:020000040800F2
:1000000000500020F56E0008C95A0008CB5A0008BD
:10001000CD5A0008CF5A0008D15A0008000000004D
:10002000000000000000000000000000D35A00089B
:10003000D55A000800000000D75A0008D95A000815
:100040003D6F00083D6F00083D6F00083D6F0008E0
:100050003D6F00083D6F00083D6F00083D6F0008D0
:100060003D6F00083D6F00083D6F00083D6F0008C0
:100070003D6F00083D6F00083D6F0008E15A000821
:100080003D6F00083D6F00083D6F00083D6F0008A0
:100090003D6F00083D6F00083D6F00083D6F000890
:1000A0003D6F00083D6F00083D6F00083D6F000880
:1000B0003D6F00083D6F00083D6F00083D6F000870
:1000C0003D6F00083D6F00083D6F00083D6F000860
:1000D000F15A00083D6F00083D6F00083D6F0008B1
:1000E0003D6F00083D6F00083D6F000800000000F4
:1000F0000000000000000000000000000000000000
:0C01000000000000000000005FF808F1A3
:1001100081F0004102E000BF83F0004330B54FEAB8
:1001200041044FEA430594EA050F08BF90EA020F25
:100130001FBF54EA000C55EA020C7FEA645C7FEAB8
:10014000655C00F0E2804FEA5454D4EB5555B8BFDB
:100150006D420CDD2C4480EA020281EA030382EA4C
:10016000000083EA010180EA020281EA0303362DDE
:1001700088BF30BD11F0004F4FEA01314FF4801CB1
:100180004CEA113102D0404261EB410113F0004FC3
:100190004FEA03334CEA133302D0524263EB43037A
:1001A00094EA050F00F0A780A4F10104D5F1200E18
:1001B0000DDB02FA0EFC22FA05F2801841F1000173
:1001C00003FA0EF2801843FA05F359410EE0A5F147
:1001D00020050EF1200E012A03FA0EFC28BF4CF078
:1001E000020C43FA05F3C01851EBE37101F000452E
:1001F00007D54FF0000EDCF1000C7EEB00006EEB3B
:100200000101B1F5801F1BD3B1F5001F0CD34908C4
:100210005FEA30004FEA3C0C04F101044FEA44521B
:1002200012F5800F80F09A80BCF1004F08BF5FEAA2
:10023000500C50F1000041EB045141EA050130BD82
:100240005FEA4C0C404141EB0101013C28BFB1F594
:10025000801FE9D291F0000F04BF01460020B1FADF
:1002600081F308BF2033A3F10B03B3F120020CDAB2
:100270000C3208DD02F1140CC2F10C0201FA0CF090
:1002800021FA02F10CE002F11402D8BFC2F1200CF5
:1002900001FA02F120FA0CFCDCBF41EA0C019040AB
:1002A000E41AA2BF01EB0451294330BD6FEA0404F4
:1002B0001F3C1CDA0C340EDC04F11404C4F12002DF
:1002C00020FA04F001FA02F340EA030021FA04F3F1
:1002D00045EA030130BDC4F10C04C4F1200220FA48
:1002E00002F001FA04F340EA0300294630BD21FA86
:1002F00004F0294630BD94F0000F83F4801306BF4C
:1003000081F480110134013D4EE77FEA645C18BF3F
:100310007FEA655C29D094EA050F08BF90EA020FD6
:1003200005D054EA000C04BF1946104630BD91EACE
:10033000030F1EBF0021002030BD5FEA545C05D1D1
:100340004000494128BF41F0004130BD14F5800410
:100350003CBF01F5801130BD01F0004545F0FE4184
:1003600041F470014FF0000030BD7FEA645C1ABFB9
:10037000194610467FEA655C1CBF0B46024650EAF0
:10038000013406BF52EA033591EA030F41F400211C
:1003900030BD00BF90F0000F04BF0021704730B5A2
:1003A0004FF4806404F132044FF000054FF0000177
:1003B00050E700BF90F0000F04BF0021704730B538
:1003C0004FF4806404F1320410F0004548BF40420D
:1003D0004FF000013EE700BF42004FEAE2014FEA62
:1003E00031014FEA02701FBF12F07F4393F07F4F3D
:1003F00081F06051704732F07F4208BF704793F040
:100400007F4F04BF41F40021704730B54FF4607452
:1004100001F0004521F000411CE700BF50EA010255
:1004200008BF704730B54FF000050AE050EA0102FE
:1004300008BF704730B511F0004502D5404261EB6E
:1004400041014FF4806404F132045FEA915C3FF4AF
:10045000D8AE4FF003025FEADC0C18BF03325FEA4C
:10046000DC0C18BF033202EBDC02C2F1200300FAFD
:1004700003FC20FA02F001FA03FE40EA0E0021FA22
:1004800002F11444BDE600BF4FF0FF3C06E000BFA0
:100490004FF0010C02E000BF4FF0010C4DF804CD0D
:1004A0004FEA410C7FEA6C5C4FEA430C18BF7FEACD
:1004B0006C5C1BD001B050EA410C0CBF52EA430CFB
:1004C00091EA030F02BF90EA020F0020704710F17B
:1004D000000F91EA030F58BF994208BF90422CBF0A
:1004E000D8176FEAE37040F0010070474FEA410C03
:1004F0007FEA6C5C02D150EA013C07D14FEA430C21
:100500007FEA6C5CD6D152EA033CD3D05DF8040B91
:10051000704700BF8446104662468C4619466346C3
:1005200000E000BF01B5FFF7B7FF002848BF10F19A
:10053000000F01BD4DF808EDFFF7F4FF0CBF0120DF
:1005400000205DF808FB00BF4DF808EDFFF7EAFF5B
:1005500034BF012000205DF808FB00BF4DF808ED16
:10056000FFF7E0FF94BF012000205DF808FB00BF0B
:100570004DF808EDFFF7CEFF94BF012000205DF895
:1005800008FB00BF4DF808EDFFF7C4FF34BF0120A2
:1005900000205DF808FB00BF4FEA4102B2F1E043E2
:1005A00024BFB3F5001CDCF1FE5C0DD901F0004C5A
:1005B0004FEAC0024CEA5070B2F1004F40EB8300AA
:1005C00008BF20F00100704711F0804F21D113F1D6
:1005D0003872BCBF01F00040704741F480114FEA0F
:1005E0005252C2F11802C2F1200C10FA0CF320FA98
:1005F00002F018BF40F001004FEAC1234FEAD323B5
:1006000003FA0CFC40EA0C0023FA02F34FEA43031E
:10061000CCE77FEA625307D150EA01331EBF4FF0A7
:10062000FE4040F44000704701F0004040F0FE40C2
:1006300040F40000704700BF80F0004002E000BFBF
:1006400081F0004142001FBF5FEA410392EA030FBD
:100650007FEA226C7FEA236C6AD04FEA1262D2EB07
:100660001363C1BFD218414048404140B8BF5B420C
:10067000192B88BF704710F0004F40F4000020F0A5
:100680007F4018BF404211F0004F41F4000121F0BB
:100690007F4118BF494292EA030F3FD0A2F1010205
:1006A00041FA03FC10EB0C00C3F1200301FA03F143
:1006B00000F0004302D5494260EB4000B0F5000F66
:1006C00013D3B0F1807F06D340084FEA310102F125
:1006D0000102FE2A51D2B1F1004F40EBC25008BFD7
:1006E00020F0010040EA03007047490040EB0000A1
:1006F000013A28BFB0F5000FEDD2B0FA80FCACF1A2
:10070000080CB2EB0C0200FA0CF0AABF00EBC250CE
:1007100052421843BCBFD0401843704792F0000FBC
:1007200081F4000106BF80F400000132013BB5E70F
:100730004FEA41037FEA226C18BF7FEA236C21D085
:1007400092EA030F04D092F0000F08BF08467047EA
:1007500090EA010F1CBF0020704712F07F4F04D1B8
:10076000400028BF40F00040704712F100723CBFCB
:1007700000F50000704700F0004343F0FE4040F4F5
:10078000000070477FEA226216BF08467FEA2363B3
:100790000146420206BF5FEA412390EA010F40F49E
:1007A000800070474FF0000304E000BF10F00043EA
:1007B00048BF40425FEA000C08BF704743F09643D1
:1007C00001464FF000001CE050EA010208BF7047EC
:1007D0004FF000030AE000BF50EA010208BF704773
:1007E00011F0004302D5404261EB41015FEA010C88
:1007F00002BF84460146002043F0B64308BFA3F180
:100800008053A3F50003BCFA8CF2083AA3EBC25361
:1008100010DB01FA02FC634400FA02FCC2F1200280
:10082000BCF1004F20FA02F243EB020008BF20F0B7
:100830000100704702F1200201FA02FCC2F120021D
:1008400050EA4C0021FA02F243EB020008BF20EA12
:10085000DC7070474FF0FF0C1CEAD0521EBF1CEA40
:10086000D15392EA0C0F93EA0C0F6FD01A4480EA2E
:10087000010C400218BF5FEA41211ED04FF0006317
:1008800043EA501043EA5111A0FB01310CF0004043
:10089000B1F5000F3EBF490041EAD3715B0040EA69
:1008A000010062F17F02FD2A1DD8B3F1004F40EB39
:1008B000C25008BF20F00100704790F0000F0CF00C
:1008C000004C08BF49024CEA502040EA51207F3AD0
:1008D000C2BFD2F1FF0340EAC250704740F40000AB
:1008E0004FF00003013A5DDC12F1190FDCBF00F09C
:1008F00000407047C2F10002410021FA02F1C2F14A
:10090000200200FA02FC5FEA310040F1000053EAE5
:100910004C0308BF20EADC70704792F0000F00F033
:10092000004C02BF400010F4000F013AF9D040EA39
:100930000C0093F0000F01F0004C02BF490011F4CD
:10094000000F013BF9D041EA0C018FE70CEAD153CB
:1009500092EA0C0F18BF93EA0C0F0AD030F0004C4B
:1009600018BF31F0004CD8D180EA010000F00040FF
:10097000704790F0000F17BF90F0004F084691F0BD
:10098000000F91F0004F14D092EA0C0F01D14202F7
:100990000FD193EA0C0F03D14B0218BF084608D1C0
:1009A00080EA010000F0004040F0FE4040F400000A
:1009B000704740F0FE4040F4400070474FF0FF0C9D
:1009C0001CEAD0521EBF1CEAD15392EA0C0F93EAE4
:1009D0000C0F69D0A2EB030280EA010C49024FEA36
:1009E000402037D04FF0805343EA111143EA1013EF
:1009F0000CF000408B4238BF5B0042F17D024FF4A7
:100A0000000C8B4224BF5B1A40EA0C00B3EB510F81
:100A100024BFA3EB510340EA5C00B3EB910F24BF6A
:100A2000A3EB910340EA9C00B3EBD10F24BFA3EBEF
:100A3000D10340EADC001B0118BF5FEA1C1CE0D1B7
:100A4000FD2A3FF650AF8B4240EBC25008BF20F06A
:100A5000010070470CF0004C4CEA50207F32C2BFBE
:100A6000D2F1FF0340EAC250704740F400004FF05B
:100A70000003013A37E792F0000F00F0004C02BF8C
:100A8000400010F4000F013AF9D040EA0C0093F056
:100A9000000F01F0004C02BF490011F4000F013BB0
:100AA000F9D041EA0C0195E70CEAD15392EA0C0F18
:100AB00008D142027FF47DAF93EA0C0F7FF470AF50
:100AC000084676E793EA0C0F04D14B023FF44CAF93
:100AD00008466EE730F0004C18BF31F0004CCAD128
:100AE00030F000427FF45CAF31F000437FF43CAF64
:100AF0005FE700BF4FF0FF3C06E000BF4FF0010C86
:100B000002E000BF4FF0010C4DF804CD4FEA400267
:100B10004FEA41037FEA226C18BF7FEA236C11D0B1
:100B200001B052EA530C18BF90EA010F58BFB2EB64
:100B3000030088BFC81738BF6FEAE17018BF40F0E4
:100B4000010070477FEA226C02D15FEA402C05D198
:100B50007FEA236CE4D15FEA412CE1D05DF8040B1D
:100B6000704700BF844608466146FFE70FB5FFF7B0
:100B7000C9FF002848BF10F1000F0FBD4DF808ED68
:100B8000FFF7F4FF0CBF012000205DF808FB00BF59
:100B90004DF808EDFFF7EAFF34BF012000205DF8B3
:100BA00008FB00BF4DF808EDFFF7E0FF94BF012000
:100BB00000205DF808FB00BF4DF808EDFFF7D2FFFD
:100BC00094BF012000205DF808FB00BF4DF808ED40
:100BD000FFF7C8FF34BF012000205DF808FB00BF0D
:100BE0004FEA4002B2F1FE4F0FD34FF09E03B3EB3A
:100BF00012620DD94FEA002343F0004310F0004F7A
:100C000023FA02F018BF404270474FF000007047CF
:100C100012F1610F01D1420205D110F0004008BF6E
:100C20006FF0004070474FF00000704742000ED256
:100C3000B2F1FE4F0BD34FF09E03B3EB126209D417
:100C40004FEA002343F0004323FA02F070474FF0CD
:100C50000000704712F1610F01D1420202D14FF042
:100C6000FF3070474FF00000704700BF00F13401C3
:100C700091E838009C46A6464CF8045D90E8FF0FCA
:100C8000E54600BD90EC210B704700BF80EC210BC6
:100C9000704700BF90EC200B704700BF80EC200B2A
:100CA000704700BFD0EC200B704700BFC0EC200B9A
:100CB000704700BFF0EC0201F0EC0211F0EC0221F1
:100CC000F0EC0231F0EC0241F0EC0251F0EC026188
:100CD000F0EC0271F0EC0281F0EC0291F0EC02A178
:100CE000F0EC02B1F0EC02C1F0EC02D1F0EC02E168
:100CF000F0EC02F1704700BFE0EC0201E0EC021101
:100D0000E0EC0221E0EC0231E0EC0241E0EC0251C7
:100D1000E0EC0261E0EC0271E0EC0281E0EC0291B7
:100D2000E0EC02A1E0EC02B1E0EC02C1E0EC02D1A7
:100D3000E0EC02E1E0EC02F1704700BFB0FC0181A1
:100D4000B0FC0191B0FC01A1B0FC01B1704700BF43
:100D5000A0FC0181A0FC0191A0FC01A1A0FC01B1BB
:100D6000704700BFEC4600B52DE900502DE9FF1F8C
:100D70004FF000032DE90C0001A90EF031F8DDF869
:100D800040E012B0704700BFEC4600B52DE90050BE
:100D90002DE9FF1F4FF000032DE90C0001A90EF013
:100DA0005FF8DDF840E012B0704700BFEC4600B5D8
:100DB0002DE900502DE9FF1F4FF000032DE90C0035
:100DC00001A90EF06DF8DDF840E012B0704700BFE9
:100DD000EC4600B52DE900502DE9FF1F4FF0000350
:100DE0002DE90C0001AB0EF02FF8DDF840E012B059
:100DF000704700BFEC4600B52DE900502DE9FF1FFC
:100E00004FF000032DE90C0001AA0EF0A7F8DDF861
:100E100040E012B0704700BF80EA010C1CF0030FE5
:100E200037D110F0030C20F0030021F0030150F83B
:100E3000042B08BF51F8043B0ED08CF0030C6FF06C
:100E40007F434FEACC0C23FA0CFC51F8043B42EAF6
:100E50000C0243EA0C0300BFA2F1013C9A4201BF1D
:100E60002CEA020C1CF0803F50F8042B51F8043B94
:100E7000F2D04FEA02604FEA1222012828BFB0EBFD
:100E8000036F08BF1B0AF4D003F0FF03000EC01A63
:100E9000704710F0030F0AD010F8012B11F8013B36
:100EA000012A28BF9A42F4D0A2EB030070474DF804
:100EB000045D50F8042B01F0030521F0030151F803
:100EC000043B022D26D04DD822F07F45B5EB132FE1
:100ED000A2F1013C2CEA020C0DD11CF0803C08BFB1
:100EE00051F8043B0AD185EA0205B5EB036F0CD13A
:100EF00050F8042BE8E74FEA13235BE03CF07F4C0B
:100F000054D10B784FEA126554E04FEA126503F0B2
:100F1000FF034FE04FEA0245A2F1013C4FEA1545BD
:100F20002CEA020CB5EB134F18D11CF0803C08BF23
:100F300051F8043B07D185EA0205B5EB034F09D10F
:100F400050F8042BE6E75FEA0C4C2FD10B884FEAF0
:100F500012452FE04FEA03434FEA12454FEA13438D
:100F600028E000BF02F0FF05B5EB136FA2F1013CD2
:100F70002CEA020C0DD11CF0803C08BF51F8043B58
:100F80000AD185EA0205B5EB032F0AD150F8042BEC
:100F9000E8E74FEA13630DE012F0FF0F06D051F8B7
:100FA000043B4FEA122523F07F4303E04FF000009B
:100FB00020BC704705F0FF0203F0FF00012828BFA6
:100FC000904204BF2D0A1B0AF4D0A2EB000020BC03
:100FD000704700BF844641EA000313F0030349D180
:100FE000403A23D30B6803604B6843608B6883608F
:100FF000CB68C3600B6903614B6943618B69836193
:10100000CB69C3610B6A03624B6A43628B6A83627A
:10101000CB6AC3620B6B03634B6B43638B6B836362
:10102000CB6BC36340304031403ADBD230320BD31C
:101030000B6803604B6843608B688360CB68C36058
:1010400010301031103AF3D20C3205D351F8043B72
:1010500040F8043B043AF9D2043208D0D2071CBF4E
:1010600011F8013B00F8013B01D30B880380604677
:10107000704700BF082A13D38B07B1D010F00303C9
:10108000AED0C3F10403D21ADB071CBF11F8013B39
:1010900000F8013BA4D331F8023B20F8023B9FE764
:1010A000043AD9D3013A11F8013B00F8013BF9D2D7
:1010B0000B7803704B7843708B7883706046704771
:1010C00070B54FF0FF0C4CF4E06C1CEA11541DBFDE
:1010D0001CEA135594EA0C0F95EA0C0F00F0DEF8A9
:1010E0002C4481EA030621EA4C5123EA4C5350EA8E
:1010F000013518BF52EA033541F4801143F48013DF
:1011000038D0A0FB02CE4FF00005E1FB02E506F06F
:101110000042E0FB03E54FF00006E1FB03569CF0C4
:10112000000F18BF4EF0010EA4F1FF04B6F5007FCA
:1011300064F5407404D25FEA4E0E6D4146EB06063C
:1011400042EAC62141EA55514FEAC52040EA5E50C5
:101150004FEACE2EB4F1FD0C88BFBCF5E06F1ED86F
:10116000BEF1004F08BF5FEA500E50F1000041EBA6
:10117000045170BD06F0004646EA010140EA020053
:1011800081EA0301B4EB5C04C2BFD4EB0C0541EA75
:10119000045170BD41F480114FF0000E013C00F38A
:1011A000AB8014F1360FDEBF002001F0004170BDAE
:1011B000C4F10004203C35DA0C341BDC04F11404C7
:1011C000C4F1200500FA05F320FA04F001FA05F253
:1011D00040EA020001F0004221F0004110EBD37020
:1011E00021FA04F642EB06015EEA430E08BF20EA4C
:1011F000D37070BDC4F10C04C4F1200500FA04F3EF
:1012000020FA05F001FA04F240EA020001F0004180
:1012100010EBD37041F100015EEA430E08BF20EAF3
:10122000D37070BDC4F1200500FA05F24EEA020E3B
:1012300020FA04F301FA05F243EA020321FA04F06A
:1012400001F0004121FA04F220EA020000EBD37021
:101250005EEA430E08BF20EAD37070BD94F0000F21
:101260000FD101F00046400041EB010111F4801F55
:1012700008BF013CF7D041EA060195F0000F18BF06
:10128000704703F00046520043EB030313F4801F42
:1012900008BF013DF7D043EA0603704794EA0C0FFC
:1012A0000CEA135518BF95EA0C0F0CD050EA410612
:1012B00018BF52EA4306D1D181EA030101F000418F
:1012C0004FF0000070BD50EA410606BF10461946B7
:1012D00052EA430619D094EA0C0F02D150EA0136C3
:1012E00013D195EA0C0F05D152EA03361CBF104604
:1012F00019460AD181EA030101F0004141F0FE41A3
:1013000041F470014FF0000070BD41F0FE4141F426
:10131000780170BD70B54FF0FF0C4CF4E06C1CEA26
:1013200011541DBF1CEA135594EA0C0F95EA0C0FDB
:1013300000F0A7F8A4EB050481EA030E52EA033596
:101340004FEA013100F088804FEA03334FF08055B7
:1013500045EA131343EA12634FEA022245EA1115E4
:1013600045EA10654FEA00260EF000419D4208BF95
:10137000964244F1FD0404F5407402D25B084FEA42
:101380003202B61A65EB03055B084FEA32024FF4EE
:1013900080104FF4002CB6EB020E75EB030E22BF4B
:1013A000B61A754640EA0C005B084FEA3202B6EB0B
:1013B000020E75EB030E22BFB61A754640EA5C00BA
:1013C0005B084FEA3202B6EB020E75EB030E22BF4A
:1013D000B61A754640EA9C005B084FEA3202B6EB4B
:1013E000020E75EB030E22BFB61A754640EADC000A
:1013F00055EA060E18D04FEA051545EA16754FEA6C
:1014000006164FEAC30343EA52734FEAC2025FEA89
:101410001C1CC0D111F4801F0BD141EA00014FF018
:1014200000004FF0004CB6E711F4801F04BF0143E9
:101430000020B4F1FD0C88BFBCF5E06F3FF6AFAE05
:10144000B5EB030C04BFB6EB020C5FEA500C50F195
:10145000000041EB045170BD0EF0004E4EEA113118
:1014600014EB5C04C2BFD4EB0C0541EA045170BD1F
:1014700041F480114FF0000E013C90E645EA060E63
:101480008DE60CEA135594EA0C0F08BF95EA0C0F91
:101490003FF43BAF94EA0C0F0AD150EA01347FF4D9
:1014A00034AF95EA0C0F7FF425AF104619462CE7B0
:1014B00095EA0C0F06D152EA03353FF4FDAE104613
:1014C000194622E750EA410618BF52EA43067FF464
:1014D000C5AE50EA41047FF40DAF52EA43057FF4F4
:1014E000EBAE12E74FEA410C7FEA6C5C02D150EAA6
:1014F000013C0AD14FEA430C7FEA6C5C02D152EA0C
:10150000033C02D14FF0000070474FF001007047DC
:101510004FEA410212F5001215D211D56FF478731B
:10152000B3EB625212D94FEAC12343F0004343EABE
:10153000505311F0004F23FA02F018BF4042704799
:101540004FF00000704750EA013005D111F0004023
:1015500008BF6FF0004070474FF00000704700BFB9
:101560000348044B834202D0034B03B11847704732
:101570005007002050070020000000000548064BDF
:101580001B1AD90F01EBA301491002D0034B03B181
:101590001847704750070020500700200000000047
:1015A00010B5064C237843B9FFF7DAFF044B13B1AB
:1015B0000448AFF300800123237010BD50070020C2
:1015C000000000009C61010808B5054B1BB10549EE
:1015D0000548AFF30080BDE80840FFF7CFBF00BF6C
:1015E00000000000540700209C61010808B501F0CC
:1015F00057FF0368DB69984708BD08B501F050FF45
:1016000003681B6A984708BD10B5044601F048FFFF
:1016100003681B6B2146984710BDF8B504460D467C
:10162000164601F03DFF03689F6B33462A4621466C
:10163000B847F8BDF8B504460D46164601F030FF30
:101640000368DF6B33462A462146B847F8BDF8B534
:1016500004460D46164601F023FF03689F6C33468F
:101660002A462146B847F8BDF8B504460D46164649
:1016700001F016FF0368DF6C33462A462146B8475F
:10168000F8BD10B5044601F00BFF03689B6E2146C0
:10169000984710BD08B50120FFF7B6FF024B186848
:1016A00001F02AFEF7E700BF8007002070B506466C
:1016B0000C46083030600D4655F8083B9D420AD074
:1016C00033608B68B3606368736025600023636078
:1016D0002372304670BD4A680132F4D02946FFF7C4
:1016E00079FCF0E708B5081E02DB06F029FA08BD10
:1016F00006F07CFEF8B5541A0CD405460E4664B1CB
:1017000000222146FFF7EEFF28600719AF6034B9C9
:101710006F60F8BD044806F0A1FE0020F4E7224601
:1017200031460FF025FAF3E73062010808B50846A4
:10173000114605F089FC08BD08B5034653F8081B9F
:10174000994203D082680132FFF7F0FF08BD70B5FF
:1017500086B0054601F0A4FE044603685E6E294685
:101760006846FFF7A3FF69462046B0476846FFF783
:10177000E3FF06B070BD6846FFF7DEFF05F066FCCC
:1017800008B5012A03D022B1FFF724FC01E00B7851
:10179000037008BD08B50846114605F055FC08BDA4
:1017A00010B5044601688268521A09B1FFF7F2FFCA
:1017B000204610BD10B582B0044602AB03E9060016
:1017C00000230360436083600A44FFF793FF04E053
:1017D0002046FFF7E5FF05F039FC204602B010BDBA
:1017E00010B50446FFF7DCFF204610BD08B5081E03
:1017F00002DB06F0A5F908BD06F0F8FD10B50B6890
:10180000002B0EDB934206D95400B3EB420F02D2F9
:101810000C60002C08DB096800220131FFF7E6FFAD
:1018200010BD034806F01AFE6FF000430B60F2E7AC
:101830006462010870B582B004460E46551A0195DF
:101840000F2D0DD800942A4631462068FFF798FFE7
:1018500000220092019B63602168CA5402B070BDEF
:10186000002201A9FFF7CAFF2060019BA360E9E7FE
:1018700038B500F10803036069B104460D46084617
:101880000FF0BEFB4FF000032A1829462046FFF751
:10189000D1FF204638BD014806F0C8FD7C62010832
:1018A00030B5EBB0A42006F04BF90446B74B03600B
:1018B0008023037140234371B54B836000218181F4
:1018C000B44B40F8103B94220FF0D0F9204601F0C1
:1018D0009BFE6420FFF7D5FE07AAAF4901A8FFF7DA
:1018E000C7FF01A8FFF733FF01A8FFF725FF4FF45B
:1018F000FA70FFF7C6FE0EAAA84908A8FFF7B8FFBE
:1019000008A8FFF724FF08A8FFF716FF6420FFF7D9
:10191000B8FE15AAA2490FA8FFF7AAFF0FA8FFF764
:1019200016FF0FA8FFF708FF6420FFF7AAFE1CAA06
:101930009B4916A8FFF79CFF16A8FFF708FF16A8FB
:10194000FFF7FAFE974B1D684FF4867006F0F8F823
:10195000044623AA94491DA8FFF78AFF08E0012541
:1019600025B14FF48671204605F06EFB05F06EFB45
:101970001DA9204601F090FA2146284601F092FB6D
:1019800004E000251DA8FFF7D7FEE9E71DA8FFF733
:10199000D3FE844B1D684FF4867006F0D1F80446E0
:1019A0002AAA824924A8FFF763FF08E0012525B190
:1019B0004FF48671204605F047FB05F047FB24A94C
:1019C000204601F069FA2146284601F06BFB04E04D
:1019D000002524A8FFF7B0FEE9E724A8FFF7ACFE36
:1019E000704B1D684FF4867006F0AAF8044631AAC1
:1019F0006F492BA8FFF73CFF08E0012525B14FF404
:101A00008671204605F020FB05F020FB2BA920461F
:101A100001F042FA2146284601F044FB04E000258B
:101A20002BA8FFF789FEE9E72BA8FFF785FE5D4BA2
:101A30001D684FF4867006F083F8044638AA5D49A5
:101A400032A8FFF715FF08E0012525B14FF4867194
:101A5000204605F0F9FA05F0F9FA32A9204601F01E
:101A60001BFA2146284601F01DFB04E0002532A8A0
:101A7000FFF762FEE9E732A8FFF75EFE494B1D68FB
:101A80004FF4867006F05CF804463FAA4A4939A82C
:101A9000FFF7EEFE08E0012525B14FF486712046E0
:101AA00005F0D2FA05F0D2FA39A9204601F0F4F98E
:101AB0002146284601F0F6FA04E0002539A8FFF790
:101AC0003BFEE9E739A8FFF737FE3C4C2168354B70
:101AD000186801F0E7FA25684FF4867006F030F8D0
:101AE000044646AA304940A8FFF7C2FE08E0012597
:101AF00025B14FF48671204605F0A6FA05F0A6FA46
:101B000040A9204601F0C8F92146284601F0CAFA4A
:101B100004E0002540A8FFF70FFEE9E740A8FFF723
:101B20000BFE264B1D684FF4867006F009F804463C
:101B30004DAA1E4947A8FFF79BFE08E0012525B1E5
:101B40004FF48671204605F07FFA05F07FFA47A929
:101B5000204601F0A1F92146284601F0A3FA04E04D
:101B6000002547A8FFF7E8FDE9E747A8FFF7E4FDF0
:101B7000124B1D684FF4867005F0E2FF044654AA2C
:101B80000B494EA8FFF774FE23E000BFB4640108C0
:101B900000007F43B8700108B0620108BC62010810
:101BA000D46201087C070020E0620108E8620108B5
:101BB000F062010800630108146301086C0700204B
:101BC000012525B14FF48671204605F03DFA05F058
:101BD0003DFA4EA9204601F05FF92146284601F062
:101BE00061FA04E000254EA8FFF7A6FDE9E74EA83C
:101BF000FFF7A2FD534B1D684FF4867005F0A0FF60
:101C000004465BAA504955A8FFF732FE08E00125BB
:101C100025B14FF48671204605F016FA05F016FA44
:101C200055A9204601F038F92146284601F03AFA34
:101C300004E0002555A8FFF77FFDE9E755A8FFF769
:101C40007BFD404B1D684FF4867005F079FF04461C
:101C500062AA3E495CA8FFF70BFE08E0012525B10A
:101C60004FF48671204605F0EFF905F0EFF95CA915
:101C7000204601F011F92146284601F013FA04E04C
:101C800000255CA8FFF758FDE9E75CA8FFF754FDC5
:101C90002C4B1D684FF4867005F052FF044669AA6C
:101CA0002B4963A8FFF7E4FD08E0012525B14FF4B7
:101CB0008671204605F0C8F905F0C8F963A92046E9
:101CC00001F0EAF82146284601F0ECF904E000258D
:101CD00063A8FFF731FDE9E763A8FFF72DFD1D4B72
:101CE00019681D4B186801F0C3FA6BB030BD01A82C
:101CF000FFF722FD05F0AAF908A8FFF71DFD05F082
:101D0000A5F90FA8FFF718FD05F0A0F916A8FFF731
:101D100013FD05F09BF9012534E6012559E601255F
:101D20007EE60125A3E60125C8E60125F2E60125A8
:101D300017E7012557E701257CE70125A1E70125E4
:101D4000C6E700BF6C0700200063010814630108A8
:101D5000286301087C07002080070020012800D0AC
:101D600070474FF6FF739942FAD130B5B1B00C20ED
:101D700005F0E6FE00230360436083602A4B186091
:101D80004FF4867005F0DCFE044625AA27491FA8FB
:101D9000FFF76EFD1FA9204601F07EF8244B1C6062
:101DA0001FA8FFF7C9FC01AD782422462149284627
:101DB000FFF710F9269527941F4C28AB7822294667
:101DC0002046FFF7F7FC1D4A1D49204605F0B8F8EC
:101DD0004FF4867005F0B4FE04462FAA194929A8CD
:101DE000FFF746FD29A9204601F056F8164B1C6066
:101DF00029A8FFF7A1FC31B030BD1FA8FFF79CFC5C
:101E00004FF48671204605F01FF905F01FF9F7E73A
:101E100029A8FFF791FC4FF48671204605F014F9CC
:101E200005F014F9F7E700BF800700203C630108C4
:101E30007C070020B8610108700700200000002026
:101E4000E1170008446301086C07002008B54FF64D
:101E5000FF710120FFF782FF08BD000000487047B6
:101E60000800002070470000F8B50D4614461E46D5
:101E70000F6811463846FEF781FE50B921463846B4
:101E8000FEF7DEFB20F000400C49FEF781FE08B1B2
:101E90002C60F8BD39462046FEF7D2FB0446314699
:101EA0000748FEF7CDFB01462046FEF787FD0146B9
:101EB0003846FEF7C7FB2860EBE700BF9A99193E4A
:101EC0000000C84230B5264A0260264A4260264ACF
:101ED0008260264AC260264A0261264A4261264A38
:101EE0008261264AC261012280F8202080F82120E8
:101EF00080F8222080F8232080F82420002280F817
:101F00002520DFF87CE0C0F828E04FF08242C26272
:101F10004FF0814101634FF0834CC0F834C04FF063
:101F20007C548463C1634FF080440464154D456460
:101F30008564C2640265144D456581651349C165B8
:101F40000266134941668466C0F86CE01149016776
:101F5000114941678167C267C0F880C030BD00BFCA
:101F60000000964200008C4200005C420000A0424B
:101F70000000C841000070410000A0410000204264
:101F80000000A0400000F0410000C040000090416F
:101F900000004041000040400000104208B501F040
:101FA0007FFA03681B69984708BD08B501F078FA05
:101FB00003685B69984708BD08B501F071FA0368CA
:101FC0009B69984708BD000010B5264B1B68BFF3FE
:101FD0005B8F13F0010F03D1224805F06FFD40B96C
:101FE000214B1B68BFF35B8F13F0010F0FD0002351
:101FF00020E0FFF7DAFF0446FFF7DEFF00FB04F402
:10200000E4001A4B1C70174805F078FDE8E7164805
:1020100005F054FD0028EAD0FFF7C0FF144B18600C
:10202000114805F06BFDE2E76FF0550002400A70C1
:1020300001339BB20D4A12789A4212D90C4A1268A7
:10204000D118D25C13F0010FEED15520EEE7054810
:1020500005F050FD04F0FAFF034805F04BFD04F0D5
:10206000F5FF10BD940700208C0700209807002082
:102070009007002010B5044601F012FA03689B6A2D
:102080002146984710BD38B504460D4601F008FAC0
:1020900003685B6B2A462146984738BDF8B504466D
:1020A0000D46164601F0FCF903685F6C33462A467C
:1020B0002146B847F8BDF0B583B004460D46164634
:1020C0001F4601F0EDF90368089A019200971F6D11
:1020D00033462A462146B84703B0F0BDF0B583B079
:1020E00004460D4616461F4601F0DAF903680097CC
:1020F0005F6D33462A462146B84703B0F0BDF0B5C0
:1021000083B004460D4616461F4601F0C9F9036820
:10211000089A019200979F6D33462A462146B84798
:1021200003B0F0BD38B55C4B1B68BFF35B8F13F099
:10213000010F03D1584805F0C1FCB8B9FFF72EFFD5
:102140000446FFF78BFE05468069FEF76FFDFFF73B
:1021500098FA95F82530002B56D0504B1B78013B50
:10216000032B4DD8DFE803F01E2C3C4AFFF71DFF80
:102170000446FFF721FF00FB04F4E400484B1C7009
:10218000454805F0BBFCD9E701339BB2444A1278BD
:102190009A4258D913F0010FF6D0E25C02F0AA027D
:1021A000E254F1E70023F1E701339BB23C4A127895
:1021B0009A4248D913F0010FF6D00022E254F3E717
:1021C0000023F3E701339BB2354A12789A423AD999
:1021D00013F0010FF6D1E25C02F05502E254F1E790
:1021E0000023F1E701339BB22D4A12789A422AD993
:1021F00013F0010FF6D10022E254F3E70023F3E7D6
:10220000264B00221A701EE0244B1B78013B032B47
:1022100039D8DFE803F0101D2D3601339BB2204A78
:1022200012789A420FD913F0010FF6D0E25C42F017
:10223000AA02E254F1E70023F1E701339BB2184A06
:1022400012789A42F9D8154A13780133137038BDC1
:102250000023F4E701339BB2114A12789A42F2D973
:1022600013F0010FF6D1E25C42F05502E254F1E7BF
:102270000023F1E701339BB2094A12789A42F9D858
:10228000E1E70023F8E7054B00221A70DBE702487C
:1022900005F030FC04F0DAFE9C070020040000206A
:1022A000A007002010B5044601F0FAF8043003C876
:1022B00084E80300FFF7D2FD0146842204F1080000
:1022C000FEF788FE10BDF8B5044603681B68984702
:1022D00094F8F530A3BB94F82C30FBB1D4F8FC5043
:1022E000D4F8007107E055F8046B216D0020FEF76B
:1022F000A7F9C6F89000AF42F5D10023C4F8A83082
:102300006079FEF74FFAC4F8C000C4F8C800616FE6
:102310000020FEF795F9C4F8B800F8BDD4F8FC30F9
:10232000D4F8000105E053F8042BD2F89410C2F859
:1023300090109842F7D1D4F8AC30C4F8A830DFE759
:10234000012BEAD194F82D30A3B1D4F8FC30D4F8A5
:10235000000104E053F8042B0021C2F898109842C1
:10236000F8D10023C4F8A0302079FEF71BFAC4F896
:10237000B000D2E7D4F8FC30D4F8000105E053F8FF
:10238000042BD2F89C10C2F898109842F7D1D4F8D8
:10239000A430C4F8A030E7E7D0F80031D0F8FC0052
:1023A000181AC0F3870070472DE9F04F87B0044634
:1023B000049190F8F5302BB1012B00F08F8107B01C
:1023C000BDE8F08F0430FFF76DFF0120FFF71CF927
:1023D000D4F8FC60D4F80031059324E056F8045B8F
:1023E000D5F890B0049B1F68D5F8E8A0D4F85490B5
:1023F000D4F850807968E06DFEF724F903903968CD
:102400005846FEF71FF9CDF800A04B464246039907
:10241000FFF751FE2368DF68E368D5F8942005F1E3
:1024200090012046B847059BB342D7D194F80801E4
:102430000130FEF7BBF905462079FEF7B3F90646F1
:102440002046FFF7A9FFFEF7B1F901463046FEF737
:10245000B5FA01462846FEF7FDF9C4F8AC004FF086
:102460000008636FD4F8A820D4F8B8104046FFF7EE
:1024700035FE226ED4F8C010606EFFF7F5F8666E78
:102480004FF07E51D4F8C000FEF7DCF805464FF05F
:102490007E513046FEF7D6F82946FFF7F4FD666E0A
:1024A0004FF08041D4F8C000FEF7CCF805464FF05D
:1024B00080413046FEF7C6F82946FFF7E4FD666E18
:1024C0004FF07E51D4F8C000FEF7BAF805464FF041
:1024D0007E513046FEF7B6F82946FFF7D4FD666E0A
:1024E0004FF08041D4F8C000FEF7AAF805464FF03F
:1024F00080413046FEF7A6F82946FFF7C4FD256E59
:102500002079FEF753F92946FEF79AF8D4F8C0600F
:10251000616EFEF795F82A463146FFF7A5F8277950
:10252000266E4FF07E51D4F8C000FEF78BF80546BA
:102530003846FEF73BF93146FEF782F82946FFF7A9
:10254000A2FD256E2079FEF731F92946FEF778F8CD
:1025500006464FF08041D4F8C000FEF773F80546F8
:102560004FF07E513046FEF76BF82946FFF78BFDA2
:102570002779266E4FF07E51D4F8C000FEF760F840
:1025800005463846FEF712F93146FEF759F8294656
:10259000FFF779FD256E2079FEF708F92946FEF749
:1025A0004FF806464FF08041D4F8C000FEF748F8D7
:1025B00005464FF07E513046FEF742F82946FFF7B8
:1025C00062FDA74E4FF08041D4F8C000FEF73AF804
:1025D00001463246D4F88C00FFF746F8D4F88CA0B8
:1025E0004FF08041D4F8C000FEF72CF84FF0814541
:1025F000DFF870922946FEF723F807464FF0804136
:102600005046FEF71FF82B464A463946FFF766FD4F
:10261000D4F88C702079FEF7C9F83946FEF710F827
:1026200082464FF08041D4F8C000FEF70BF8074611
:1026300031465046FEF704F832463946FFF714F8A3
:10264000D4F88C702079FEF7B1F83946FDF7F8FF21
:102650003146FDF7F5FF07464FF08041D4F8C00042
:10266000FDF7F0FF2946FDF7EBFF06464FF08041EE
:102670003846FDF7E7FF2B464A463146FFF72EFD69
:102680002079FEF78FF80246D4F8C8104046FFF7CD
:1026900005FD214651F8C83BDD68E368D4F8CC203D
:1026A0002046A847214651F8C03BDD68E368D4F8CE
:1026B000C4202046A847214651F8A83BDD68E368BE
:1026C000D4F8AC202046A847214651F8B83BDD6835
:1026D000E368D4F8BC202046A84770E60430FFF732
:1026E000E1FD0120FEF790FFD4F8FC70D4F800B1B2
:1026F00027E057F8045BD5F890A0049BD3F800803E
:10270000A16BD5F89800FDF79DFFE16BFDF79AFFEF
:1027100005F1D009D8F80410FDF794FF0646D8F863
:1027200000105046FDF78EFF4A463146FEF782FF05
:102730002368DE682369D5F89C2005F198012046BE
:10274000B047BB45D5D194F808010130FEF72EF80B
:1027500005466079FEF726F806462046FFF71CFE80
:10276000FEF724F801463046FEF728F901462846D0
:10277000FEF770F8C4F8A400666B00252079FEF718
:1027800015F83146FDF75CFF32462946FEF76CFF2F
:1027900094F80480676B60790138FEF707F8064605
:1027A0004046FEF703F83946FDF74AFF3A46314600
:1027B000FEF75AFF94F804804FF07C51606BFEF7EF
:1027C00049F8FDF709FE0CF00BF906460F464046A6
:1027D000FDF7F0FD32463B46FDF79EFC80468946FC
:1027E0006079FDF7DFFF064640464946FDF7D4FE17
:1027F00032462946FEF72BFFD4F8A030626B2946FB
:10280000D4F8B000FFF76AFC94F8313093B9214650
:1028100051F8A03BDD682369D4F8A4202046A847DE
:10282000214651F8B03BDD682369D4F8B420204636
:10283000A847C4E50220FEF7E7FE26796079FDF798
:10284000B1FF05463046FDF7ADFF024600202B469E
:102850000146FFF743FC0120FEF7D6FED7E700BF95
:10286000000010410000A040F8B504460D460430B9
:10287000FFF718FDD4F8903083F80851D4F8906031
:1028800096F8F53033BBD6F8FC3053F82530E76FB7
:102890003946D3F89400FDF7D3FEC4F89800D6F873
:1028A000FC3053F825303946D3F89C00FDF7C8FEBC
:1028B000C4F8A00065792846FDF774FFC4F8AC00A1
:1028C000266F2846FDF772FF3146FDF7B9FEC4F8C2
:1028D000B000F8BD012BFCD1D6F8FC3053F8253000
:1028E000A16CD3F89400FDF7ABFEC4F89800D6F8BD
:1028F000FC3053F82530D3F89C30C4F8A030D6F81B
:10290000FC3053F82500D030FFF7B4FBFDF74AFF49
:102910000546E06B0146FDF795FE01462846FDF7AA
:1029200091FEC4F8A800D4E769B108B5D0F890309A
:102930000BB1002008BDC0F8901091F80811FFF706
:1029400093FF0120F6E7002070472DE9F04383B0A4
:1029500004460D460430FFF7A5FC214651F8943B90
:10296000DE686369D4F898202046B047214651F8C4
:102970009C3BDE686369D4F8A0202046B047D4F8B9
:10298000903093F8F530002B40F03281214651F819
:10299000AC3BDE686369D4F8B0202046B047012024
:1029A000FEF732FE2079FDF701FF0646D4F890309D
:1029B00093F80821D3F8FC3053F82200D030FFF709
:1029C00059FBFDF7EFFE01463046FDF739FE804624
:1029D000D4F8903093F80821D3F8FC3053F82270E3
:1029E000D037D4F88810D4F8AC00FDF72BFE06469B
:1029F0004FF07C514046FDF72DFF3A463146FEF739
:102A000019FE0220FEF700FED4F894902F68D4F847
:102A100078807968D4F89C00FDF714FE0646396882
:102A20004846FDF70FFE42463146FEF71DFED4F83C
:102A30009490D5F80080D4F89C604FF07E51A06F40
:102A4000FDF700FE0746D8F804103046FDF7FAFD02
:102A50000646D8F800104846FDF7F4FD3A463146E0
:102A6000FEF7F5FDD4F894902F687968D4F89C00AF
:102A7000FDF7E8FDD4F88410FDF7E4FDD4F8788084
:102A80004FF07E51FDF7DCFD064639684846FDF7FC
:102A9000D9FD42463146FEF7E7FDD4F89490D5F8CB
:102AA0000080D8F80410D4F89C00FDF7CBFDD4F8D2
:102AB0008410FDF7C7FDA76F3946FDF7C1FD4FF044
:102AC0007E51FDF7BDFD0646D8F800104846FDF7DB
:102AD000B9FD3A463146FEF7BAFD2E683168D4F8A2
:102AE0009400FDF7AFFDD4F88010FDF7ABFDD4F8EE
:102AF00078804146FDF7A4FD07467168D4F89C0034
:102B0000FDF7A0FD06464FF07E513846FDF798FDD3
:102B100042463146FEF7A8FD2E683168D4F894008D
:102B2000FDF790FDD4F88010FDF78CFD0746D4F832
:102B300078807168D4F89C00FDF784FD06464FF05C
:102B40007E513846FDF77CFD42463146FEF77FFD5B
:102B50002E683168D4F89400FDF774FDD4F8801025
:102B6000FDF770FDD4F878804146FDF769FD074612
:102B70007168D4F89C00FDF765FDD4F88410FDF76A
:102B800061FD4FF07E51FDF75BFD06464FF07E5133
:102B90003846FDF755FD42463146FEF765FD2E6885
:102BA0003168D4F89400FDF74DFDD4F88010FDF79E
:102BB00049FD05467168D4F89C00FDF743FDD4F843
:102BC0008410FDF73FFDA66F3146FDF739FD4FF04C
:102BD0007E51FDF735FD04464FF07E512846FDF746
:102BE0002FFD32462146FEF732FD03B0BDE8F083EB
:102BF000012BFAD1214651F8A43BDE68A369D4F831
:102C0000A8202046B0470220FEF7FEFCD4F894909E
:102C10002F68D4F89C504FF07E51206CFDF710FDCA
:102C20000646D4F8A48079682846FDF70BFD0546D2
:102C300039684846FDF706FD636C0093334642460B
:102C40002946FFF75CFA0120FEF7DEFCCDE7000025
:102C500070B504460D461646802303714023437128
:102C60000F4B83600C30FFF72DF90E4B23600E4B9A
:102C70002360002384F8A03029460020FDF7E0FC03
:102C80000546C4F8900031460020FDF7D9FCC4F891
:102C90009400C4F89850C4F89C00204670BD00BF52
:102CA00000007F43086401083864010870B50446D9
:102CB000012380F8A0300020FDF7C2FC0546214624
:102CC00051F8983BDE68A36A02462046B047D4F824
:102CD00098102846FDF752FF10B1002384F8A03069
:102CE00070BD70B50446012380F8A0300020FDF7C8
:102CF000A7FC0546214651F89C3BDE68A36A0246C4
:102D00002046B047D4F89C102846FDF737FF10B195
:102D1000002384F8A03070BD70B505460C46234BE7
:102D20001B68BFF35B8F13F0010F28D0012385F8D8
:102D3000A0301F4B1B78B4FBF3F203FB124212F0DE
:102D4000FF0F30D1B4FBF3F3013BDCB2687904FB35
:102D500000F0FDF72BFD01462846FFF7C2FFD5F82E
:102D60009C60687904FB00F0FDF720FD01463046C9
:102D7000FDF704FF10B1002385F8A03070BD0B48AB
:102D800004F09CFE0028D1D02E6C6879FDF70EFD72
:102D90003146FDF713FEFDF749FF054B1870034858
:102DA00004F0ACFEC2E7B4FBF3F4CFE784070020E5
:102DB0008807002070B50446012380F8A03008463B
:102DC000FDF7F4FC0546A16D206DFDF73BFC0146C7
:102DD0002846FDF73FFD01462046FFF767FFD4F880
:102DE0009860A16D206DFDF72DFC01462846FDF78A
:102DF00031FD01460020FDF723FC01463046FDF77A
:102E0000BDFE10B1002384F8A03070BD08B591F864
:102E1000F430012B01D02BB108BD91F80811FFF758
:102E20007BFFF9E791F80811FFF7C4FFF4E70368A7
:102E30004068984214BF00200120704770B50546D5
:102E40000C46024652F8080B0B4653F8081B8B42FF
:102E500010D082421BD0AE68296062686A60A268A6
:102E6000AA60B0B12060A66000236360226813707E
:102E7000284670BDA542F7D062682AB963686B60C6
:102E80002A680021D154EFE7FEF77AFCF6E700202C
:102E9000E2E72360E8E7000070B504460E468023B1
:102EA0000371402343712A4B83600C30FFF70AF80B
:102EB000284B23602346284A43F8902B0025C4F86A
:102EC00090505D609D60DD603022294604F1A000D5
:102ED0000DF0CCFE04F1D803C4F8D030C4F8D450BF
:102EE00084F8D850C4F8E850C4F8EC50C4F8F05056
:102EF000C4F8FC50C4F80051C4F80451314604F140
:102F0000D000FFF79BFF012384F8F43084F8F550DC
:102F1000E26BC4F890200023C4F89830C4F89420E1
:102F2000C4F89C3084F80851C4F8F850D4F8FC3048
:102F3000D4F80021934201D0C4F80031D4F8E8302D
:102F4000D4F8EC20934201D0C4F8EC30204670BD98
:102F500000007F43086401082064010810B584B0B4
:102F60008446019144680368E31A98106FF0604E3C
:102F7000AEEBA3038B4210D30390814210D803AB76
:102F80001B681844DCF80030E41AB0EBA40F09D336
:102F9000B0F1005F09D204B010BD104605F05EFA32
:102FA00001ABEDE76FF06040F5E76FF06040F2E7EE
:102FB00008B50846910004F047F808BD08B5084672
:102FC000910004F041F808BD10B50446016882681C
:102FD000521A11B19210FFF7F1FF204610BD08B54B
:102FE000B1F1005F03D2880004F0AAFD08BDB1F181
:102FF000804F01D305F00AFA05F0F8F92DE9F84FF2
:1030000005468A4693461E4A0121FFF7A7FFD5F8D9
:1030100000806F68AAEB0804814618B300220146BD
:103020002846FFF7DCFF0646DBF800303351002C62
:103030001ADC04343444A7EB0A07002F1ADC3C44A2
:10304000AA68A2EB08029210B8F1000F03D0414623
:103050002846FFF7ADFF2E606C6006EB8906AE6078
:10306000BDE8F88F0026DFE72246414630460DF0E6
:103070007FFDDEE73A46514620460DF079FDDEE75A
:103080005063010808B543688268934205D00A6816
:103090001A6043680433436008BD0A461946FFF7C7
:1030A000ADFFF9E72DE9F04182B0019100297BD015
:1030B00004460D4600F1FC063046FFF7B8FE18B195
:1030C00095F8F43084F8F53094F8F52095F8F4305C
:1030D0009A4203D0002002B0BDE8F081C5F8F84064
:1030E00001A93046FFF7CEFF94F8F530012B41D00F
:1030F00094F8F530002B3BD126797608D4F850802F
:103100004FF07C514046FDF7A5FB05463046FDF7E4
:103110004DFB2946FDF794FA05462046FFF73CF99A
:10312000471EA16D4046FDF78DFA06463846FDF76D
:103130003DFB3146FDF78EFB0146019E2846FDF71B
:1031400081FAC6F89400E36DC6F89C300023C4F8F9
:10315000BC306079FDF72AFB0546E16EFDF770FA99
:10316000C4F8C400A16E2846FDF76AFAC4F8CC0082
:103170000120B0E7019DE36BC5F894302046FFF7CE
:103180000BF9266C0138FDF711FB3146FDF762FBA8
:10319000C5F89C00656B2079FDF708FB2946FDF713
:1031A0004FFAC4F8B400A3E7002094E708B5B1F1E2
:1031B000005F03D2880004F0C3FC08BDB1F1804F6A
:1031C00001D305F023F905F011F900002DE9F041D4
:1031D000571A0F4B9F4216D804460D461646B91093
:1031E000A1B10022FFF7E2FF206000EB0708C4F85E
:1031F0000880B54203D03A4629460DF0B9FCC4F820
:103200000480BDE8F081034805F028F90020EBE7D1
:10321000FCFFFF7F3062010810B582B0044602ABAC
:1032200003E90600002303604360836001EB820230
:10323000FFF7CCFF04E02046FFF7C6FE03F006FFD1
:10324000204602B010BD10B586B00446D1F89830C3
:103250000393D1F89C30049303AB019302230293B0
:1032600005AB01AA06CAFFF7D7FF204606B010BD7E
:1032700070B505460E4601600846FFF724F8A42005
:1032800004F05EFC044600210A46FFF7E1FCAC6056
:10329000B42004F055FC0446B42200210DF0E6FCF5
:1032A0008023237140236371104BA36004F10C0051
:1032B000FEF708FE0E4B23600E4B23606C60314618
:1032C0002046FFF731FB96F808116868FFF7CCFA43
:1032D00001216868FFF7C8FA2868FEF7F4FF70BD9F
:1032E000A421204603F0B0FE03F0B0FE00007F43AF
:1032F000086401088464010830B587B00446FEF70D
:103300007CF92568A1686846FFF79DFF6946284655
:10331000FFF74AF86846FFF757FE6568A16803A8FB
:10332000FFF791FF03A92846FFF70FFB03A8FFF75C
:103330004BFE2168A068FFF769FDFEF757F907B05B
:1033400030BD6846FFF740FE03F080FE03A8FFF79C
:103350003BFE03F07BFE000000B583B00A4B5A69C8
:1033600042F001025A615B6903F001030193019B82
:10337000002211460F2002F0C1FC0F2002F0CEFC0B
:1033800003B05DF804FB00BF0010024070B588B0C8
:1033900000240494059406940794234B9A6942F000
:1033A00020029A619A6902F020020192019A9A69B8
:1033B00042F004029A619A6902F004020292029AAF
:1033C0009A6942F008029A619B6903F0080303932B
:1033D000039B164D22460421284602F04CFF012291
:1033E0001821284602F047FF04230493012605967E
:1033F00002230693079304A9284602F027FE182308
:103400000493059606960323079304A9284602F021
:103410001DFEC02304930594069404A9284602F0D7
:1034200015FE08B070BD00BF00100240000801404A
:103430007047002070470020704700207047704799
:1034400070477047002070470020704770477047F2
:1034500070477047704770477047704770477047B4
:10346000704770477047704700207047704770473B
:10347000704770477047002070477047014B0360EA
:10348000704700BFB464010810B50446034B0360E5
:10349000102103F0D9FD204610BD00BFB46401081F
:1034A000014B1868704700BFC407002008B5FFF73C
:1034B000F7FF0368DB6A984708BD10B50446FFF7BD
:1034C000EFFF0368D3F884302146984710BD10B54C
:1034D0000024012C06DCE0B2FFF7EFFF034610B931
:1034E0000134F6E70023184610BD08B5FFF7D8FFF2
:1034F0000368D3F88830984708BD000010B5304BFA
:103500001B78022B0CD804465AB21ABB3BB9FFF702
:10351000ECFF78B900232B4A13702B4A137010BDAF
:10352000032BFCD1FFF7E1FF0028F8D1244B002248
:103530001A70F4E70020FFF7C0FF10B1204B012202
:103540001A700120FFF7B9FF0028E3D01C4B0222BC
:103550001A70DFE7FFF7C9FF28B31B4B1B7813B9BD
:10356000194B01221A70174A13780133DBB213701A
:10357000642BD4D90020FFF7A0FF18B102232373D6
:10358000002363730120FFF798FF18B102236373D0
:103590000023237300230B4A13700B4A1370084B4C
:1035A00003221A70BBE7084B1B781BB1044B0322A4
:1035B0001A70B4E70023024A137063732373AEE7F3
:1035C000A1070020A3070020A207002010B5044691
:1035D000FFF78BFF70B10023012B09D8E218127B93
:1035E000012A04D0022A09D00133DBB2F4E713B96F
:1035F0000023A38110BD012BFAD0F5E7002BF7D0F3
:10360000012BF5D0F0E7000040B110B50446036887
:10361000DB689847024B1C60012010BD00207047FA
:10362000C407002030B585B0844601914468036822
:10363000E31ADB10114803FB00F0114D2D1A8D42E7
:1036400013D30390814213D803AA12681044DCF804
:103650000030E41AE410094B03FB04F4A04209D340
:10366000074B984208D805B030BD104604F0F6FE6E
:1036700001AAEAE70248F6E70148F4E7ABAAAAAADA
:103680005555550508B5084602EB4202D10003F036
:10369000DBFC08BD10B5044601688268521AD210DE
:1036A000034B03FB02F209B1FFF7ECFF204610BD0C
:1036B000ABAAAAAA70B506460468456803E020468E
:1036C000FEF73AF81834A542F9D13046FFF7E2FF89
:1036D000304670BD70B504460E46154608E02146DA
:1036E0002846FDF7E3FF2046FEF726F81834183584
:1036F000B442F4D1284670BD10B582B0044601AA88
:103700000249FEF7B5F8204602B010BD94640108E6
:1037100070B582B004460E46551A01950F2D0DD88E
:1037200000942A4631462068FEF72AF800220092CB
:10373000019B63602168CA5402B070BD002201A9D8
:10374000FEF75CF82060019BA360E9E710B5044632
:103750000B4600F10802026009685A684FF0000346
:103760000A44FFF7D5FF204610BD000008B5084BFE
:10377000994205D801EB4101C80004F0E1F908BD08
:10378000044B994201D904F041FE04F02FFE00BF22
:1037900055555505AAAAAA0A2DE9F84F04468846A8
:1037A0009246274A0121FFF73DFF2768D4F804B06D
:1037B000A8EB0709054658B1002201462046FFF74D
:1037C000D5FF0646B14451464846FFF7BFFF01E02A
:1037D0000026F7E72346324641463846FFF77AFF90
:1037E000234600F1180259464046FFF773FF804612
:1037F000A368DB1BDB10134A03FB02F21FB139463F
:103800002046FFF73FFF2660C4F8048005EB45051E
:1038100006EBC505A560BDE8F88F03F0DDFC46B9F1
:103820004846FDF789FF04F011F903F015FD03F098
:103830000DFC2A4631462046FFF724FFF3E700BF80
:1038400050630108ABAAAAAA10B504464068A36851
:10385000984205D0FFF77AFF63681833636010BDA4
:103860000A4601462046FFF797FFF8E770B506467F
:1038700015460C1AE410074B03FB04F406E031462E
:103880002846FFF7DBFA18361835013C002CF6DC29
:10389000284670BDABAAAAAA08B5FFF7E7FF08BD86
:1038A00008B5FFF7F9FF08BD38B504460D4601F12C
:1038B00018006168814202D02A46FFF7F1FF606874
:1038C00018386060FDF738FF284638BD08B5FFF7A7
:1038D000EBFF08BD38B50D46444B1B68BFF35B8F4B
:1038E00013F0010F2ED0424B1B68BFF35B8F13F018
:1038F000010F04D13E4804F0E1F8002830D13D4BDF
:103900001B68BFF35B8F13F0010F04D1394804F03B
:10391000D5F8002831D1384C29462046FFF794FFCE
:10392000636821685B1ADB10344A02FB03F3344AF4
:1039300012789A4229D3FDF760FE0220FDF764FE5B
:10394000002438E0294804F0B9F80028CBD02D4AEB
:103950002D49294803F0F4FA244804F0CFF8C2E7CF
:10396000FFF79EFD4479FFF7A1FDB4FBF0F4244B73
:103970001C701F4804F0C2F8C1E7FFF797FD234B06
:1039800018701C4804F0BAF8C5E72046FFF79EFF00
:10399000D1E71E4B1B7803FB044004EB440105EB0D
:1039A000C1051844FCF702FF01462A460020FDF736
:1039B00034FE0134E4B2104A536815685B1BDB1017
:1039C0000E4901FB03F39C42E3D3FDF70FFE0120F8
:1039D000FDF71AFE38BD064804F08CF803F036FBFC
:1039E000044804F087F803F031FB00BFB40700205F
:1039F000AC070020A4070020B8070020ABAAAAAAA1
:103A0000B007002000000020B5360008A8070020FD
:103A100070477047704770477047704708B539B1B5
:103A20008021074802F020FC003818BF012008BDA3
:103A30004021034802F018FC003818BF0120F6E7C7
:103A40000008014008B502F0DBF808BD00B591B0F0
:103A50002822002106A80DF009F900230193029302
:103A6000039304930593012206924FF48033079346
:103A70000A9202220D920E934FF4E0130F9306A8C0
:103A800002F016FC80B90F2301930221029100235A
:103A900003934FF480620492059301A802F03AFE6A
:103AA00028B911B05DF804FB01F032FFEBE701F03B
:103AB0002FFFF6E708B5FFF769FC08BD704708B5AA
:103AC00001F06AFF08BD08B5FFF746FC08BD08B560
:103AD000084602F0B9F808BD08B502F0AFF808BD15
:103AE0002DE9F04F83B007460E4691461D46DDF89E
:103AF000308090F892A0CB18541CA4B200949BB2D2
:103B000000F0FFFF78B3BAFA8AFB4FEA5B1B01248F
:103B100014E087F892A00023009301234A4631461F
:103B2000384600F040FF0136B6B2640014F0FF04DE
:103B300002D108F101080124013DADB28DB198F820
:103B400000302342E5D197F89130002BEBD187F874
:103B500092B0009301234A463146384600F023FFD5
:103B6000E1E787F892A003B0BDE8F08F2DE9F047B8
:103B700082B08246884614461F46BDF828500B9EE8
:103B800003F10709C9F3CC0903EB010C53199BB2EC
:103B900000931FFA8CF300F0B4FF60B90DE00096BB
:103BA0003B46224641465046FFF79AFF4E440134B9
:103BB000A4B2013DADB2002DF1D102B0BDE8F08755
:103BC0002DE9F04182B080460F4614461E46BDF8EE
:103BD000205001EB030C53199BB200931FFA8CF396
:103BE00000F08FFF60B90DE00022009233462246BC
:103BF0003946404600F0D7FE0134A4B2013DADB2D3
:103C0000002DF1D102B0BDE8F0812DE9F04782B07E
:103C100080460D4614461E46BDF82890CF18BFB208
:103C200002EB09039BB200933B4600F06AFF10B918
:103C300002B0BDE8F08700230093334622462946B0
:103C4000404600F0B0FEB9F1010FF1D9A9F1020927
:103C50001FFA89F90134A4B2B9F1000F08D1002389
:103C60000093334622462946404600F09CFEDFE79B
:103C70004FF0010ACDF800A04B46224629464046A7
:103C800000F091FE791ECDF800A04B46224689B285
:103C9000404600F088FEA1441FFA89F4DFE72DE9D1
:103CA000F04F87B080460C469246BDF84060BDF8A4
:103CB0004470039104931C44A4B29519ADB20095CD
:103CC000234600F01EFF10B907B0BDE8F08F039A3D
:103CD00002EB07091FFA89F90AEB070B1FFA8BFBA6
:103CE000E41BA4B2013CA4B2ED1BADB2013DADB2E8
:103CF000022300933B465A464946404600F074FA78
:103D0000012300933B465A462146404600F06CFA98
:103D1000042300933B462A464946404600F064FA95
:103D2000082300933B462A462146404600F05CFAB1
:103D3000049BDB1B9BB2DB1B9BB209F101091FFA41
:103D400089F90BF1010B1FFA8BFB022B0FD8F61B25
:103D5000B6B2F61BB6B2022EB6D9023EB6B2009685
:103D6000049B5A4603994046FFF72AFFACE7023B03
:103D70009BB27C1CA4B2009405935246494640462F
:103D8000FFF71EFF0094059B2A4649464046FFF771
:103D900017FFDCE72DE9F04F85B007460C4690464B
:103DA000BDF838B0BDF83C60029103931C44A4B246
:103DB00002EB0B05ADB20095234600F0A2FE10B950
:103DC00005B0BDE8F08F029A02EB060A1FFA8AFAE4
:103DD00008EB06091FFA89F9A41BA4B2013CA4B29E
:103DE000AD1BADB2013DADB20223009333464A464E
:103DF0005146384600F0D4F90123009333464A4631
:103E00002146384600F0CCF90423009333462A4675
:103E10005146384600F0C4F90823009333462A4639
:103E20002146384600F0BCF9039B9B1B9BB29B1BB1
:103E30009BB2ABEB0604A4B2A41BA4B20AF1010A24
:103E40001FFA8AFA09F101091FFA89F9022B16D81B
:103E5000022CB5D9023CA4B2039B5D1EADB2234631
:103E60004A46029E3146384600F00AFE3146294451
:103E700023464A4689B2384600F002FEA0E7023BDC
:103E80009DB20BF1FF3B1FFA8BFB2B46424651467E
:103E9000384600F0EDFD08EB0B022B4692B251467E
:103EA000384600F0E5FDD3E710B582B003681B7C0F
:103EB000446B03FB01F1C90089B20C44009400215A
:103EC00001F002F902B010BD2DE9F041064690F86C
:103ED000387090F83950036893F8118000242A460E
:103EE00021463046FFF7E0FF0134E4B20135EDB280
:103EF000A74201D9A845F2D8BDE8F08108B503680A
:103F00001B7C90F8382003FB02F2D2000021406BAA
:103F10000CF0ACFE08BD10B50446FFF7D5FF2046F7
:103F200001F0F8F810BD2DE9F84380460F469146A0
:103F30001C46BDF820609DF8245015F0010F0AD1F1
:103F400015F0020F16D115F0080F24D115F0040F4B
:103F500032D1BDE8F883B21A591892B289B200F092
:103F600097FDF21B04EB090192B289B2404600F0C2
:103F70008FFDE5E7A6EB0902E11B92B289B240464C
:103F800000F086FDF21BA4EB090192B289B2404613
:103F900000F07EFDD7E706EB0902E11992B289B283
:103FA000404600F075FDBA1904EB090192B289B2DE
:103FB000404600F06DFDC9E706EB0902E11B92B235
:103FC00089B2404600F064FDBA19A4EB090192B22F
:103FD00089B2404600F05CFDBBE72DE9F04F85B0AB
:103FE0000390894692461E469DF838B0C3F10104FD
:103FF00024B2C3EBC3384FEA48080FFA88F8CDF86B
:1040000004B000920B4632460021FFF78CFF0025DA
:1040100001271AE0013EB6B208F102081FFA88F340
:104020000FFA88F823441CB20135ADB20237BBB297
:104030003FB223441CB2CDF804B0CDF800A04B46EB
:10404000324629460398FFF76EFFB54202D2002C94
:10405000E0DAE9E705B0BDE8F08F2DE9F8438046E6
:104060000C4617461D46BDF820909DF8246016F0BA
:10407000010F0AD116F0020F1BD116F0080F2DD137
:1040800016F0040F3BD1BDE8F883531CA9EB0202E4
:1040900069189BB292B289B200F0F2FC631CA9EBE2
:1040A0000402E9199BB292B289B2404600F0E8FCE2
:1040B000E0E77B1CA9EB0702291B9BB292B289B2F5
:1040C000404600F0DDFC631CA9EB0402E91B9BB237
:1040D00092B289B2404600F0D3FCCEE77B1C29198E
:1040E0009BB24A4689B2404600F0CAFC631CE919FB
:1040F0009BB24A4689B2404600F0C2FCC0E77B1C36
:10410000291B9BB24A4689B2404600F0B9FC631CA9
:10411000E91B9BB24A4689B2404600F0B1FCB2E7C7
:104120002DE9F04F85B00390894692461E469DF8D2
:1041300038B0C3F1010424B2C3EBC3384FEA4808D6
:104140000FFA88F8CDF804B000920B4632460021F1
:10415000FFF783FF002501271AE0013EB6B208F100
:1041600002081FFA88F30FFA88F823441CB20135BD
:10417000ADB20237BBB23FB223441CB2CDF804B09B
:10418000CDF800A04B46324629460398FFF765FF5D
:10419000B54202D2002CE0DAE9E705B0BDE8F08FC5
:1041A0002DE9F04182B080460E4617461D46CB18D9
:1041B0009BB2AC18A4B20133521B491B0134A4B208
:1041C00000949BB292B289B200F09BFC10B902B08D
:1041D000BDE8F0819DF8203000932B463A463146E9
:1041E0004046FFF7FAFEF2E72DE9F04182B0804643
:1041F0000E4617461D46CB189BB2AC18A4B201332D
:10420000521B491B0134A4B200949BB292B289B2F2
:1042100000F077FC10B902B0BDE8F0819DF82030C5
:1042200000932B463A4631464046FFF779FFF2E7C6
:104230000823037000487047C807002030B585B0D8
:1042400004460D4600931346084A094900F084FFCE
:104250000DF10F00FFF7ECFF01460095054B9DF8AF
:104260000F20204600F045FD05B030BDDB4E0008B4
:104270001D5000082F4B0008405C70474218435CFB
:10428000507800EB032080B270470020704738B5AB
:1042900004460D4600212846FFF7EEFF207001215D
:1042A0002846FFF7E9FF607002212846FFF7E4FF88
:1042B000A07003212846FFF7DFFFE07004212846A5
:1042C000FFF7DAFF207105212846FFF7D5FF60715F
:1042D00006212846FFF7D0FFA07107212846FFF7E7
:1042E000CBFFE07108212846FFF7C6FF20720921A5
:1042F0002846FFF7C1FF60720A212846FFF7BCFF7E
:10430000A0720B212846FFF7B7FFE0720C21284668
:10431000FFF7B2FF20730D212846FFF7ADFF607352
:104320000E212846FFF7A8FFA0730F212846FFF7AC
:10433000A3FFE07310212846FFF79EFF2074112190
:104340002846FFF79BFF608213212846FFF796FF60
:10435000A08215212846FFF791FFE08238BD30B5D5
:10436000024690F80CE00468207840FA0EF05FFAFC
:1043700080FC0EEB0103DBB2072B0FD9CEF1080E48
:104380005FFA8EFE651C156094F801C00CFA0EFCF5
:104390004CEA000C5FFA8CFC083BDBB24FF0FF30BC
:1043A000884013732CEA000030BD38B5044600F194
:1043B00060050166002380F86C3090F8781028467C
:1043C000FFF7CDFF84F86A0094F879102846FFF7CC
:1043D000C6FF84F86B0094F8923084F86E30B3FA1C
:1043E00083F35B0984F86F3038BD10B50C46FFF7D6
:1043F000B6FF013CE4B20123A340C01A40B210BD95
:10440000012B08D0022B09D013B1401A80B270479B
:10441000104480B27047084480B27047801A80B25E
:104420007047012B08D0022B09D013B1104480B281
:104430007047084480B27047801A80B27047401AB3
:1044400080B270472DE9F04F89B005468A46079241
:1044500090F968305FFA83FB90F96920D3B2039337
:1044600019E0CDF814A01FE095F86E3085F8923071
:104470000097059B0699284600F095FAB2453CD373
:10448000ABEB040454445FFA84FA039B0133DBB2C0
:1044900003934FF0000B95F96A40E4B2A4EB0B06CE
:1044A000F6B2B245DDD30596B5F866904FFA8BF1BA
:1044B0009DF90C8095F870703B4642460491B5F822
:1044C0006400FFF7AEFF06903B464246049948461B
:1044D000FFF796FF0246079B002BC5D195F86D307C
:1044E000002BCBD195F86F3085F892300097059B63
:1044F0000699284600F057FAC0E70AEB0B0385F847
:10450000683085F8698009B0BDE8F08F2DE9F04F7B
:1045100085B0044600F16005FFF747FF94F96B7022
:1045200094F87A102846FFF760FF804694F87B10D5
:104530002846FFF75AFF064694F87C102846FFF7F6
:1045400054FF039094F96A90B9F1000F55DD3E4491
:10455000F6B2764276B294F870B05B463246414687
:10456000B4F86400FFF75DFF8246A4F864005B4680
:1045700032464146B4F86600FFF742FF0246A4F80F
:104580006600BBF1030F68D8DFE80BF0023B495B24
:104590001FFA89F353449BB2384480B200905146CD
:1045A000204600F0AEFA40B3002384F8683084F867
:1045B000693094F876102846FFF7D1FE804694F8CB
:1045C00077102846FFF7CBFE0646002241462046DC
:1045D000FFF738FF012231462046FFF733FF012164
:1045E0002846FFF7BCFE0028EFD194F96930BB42A2
:1045F000DFDB94F86E3084F89230039805B0BDE8A4
:10460000F08FAAEB070189B201310AF101039BB2D5
:104610001FFA89F0104480B21FFA81FABEE71FFA30
:1046200089F1AAEB010189B201310AF101039BB2C0
:10463000C61BB6B20136013080B2B2B21FFA81FA9F
:10464000ACE70AEB07039BB21FFA89F1411A89B262
:104650000131013080B28AB2A0E753469EE770B5BF
:104660000E46846D1734FF2913D8602903D9B0F89A
:1046700088301C4406E0402904D9B0F886301C4438
:1046800000E01C44637803B32278B242F9D1A01C45
:104690001CE0B0F88A301C44254600212846FFF76C
:1046A000EDFD044402212846FFF7E8FD043586426B
:1046B000F3D801E0A3781C442278637853EA0223FC
:1046C00005D09E42F6D1E01C00E0002070BD002025
:1046D000FCE710B50446A0F86410A0F8662019465F
:1046E000FFF7BDFF28B101462046FFF70FFF80B25C
:1046F00010BD0020FCE738B50446FFF7B0FFB8B1A5
:1047000001462046FFF751FE04F1600594F87A1047
:104710002846FFF76AFE84F8900094F87B1028463C
:10472000FFF763FE94F87C102846FFF75EFE38BD65
:104730000020FCE72DE9F04104460D46002680F8F4
:104740006A6000F050FB6FF03F08374601E03E44DE
:10475000B6B263682978204698474FF6FF739842AF
:104760000FD001354FF6FE739842F2D00146204635
:10477000FFF7C1FF87B218F1400FE8D194F990809C
:10478000E5E794F96A307BB1F71BBFB29BB23B44BB
:104790009BB294F99060B6B21E44B6B2B8F1000F65
:1047A00002DDB0441FFA88F63046BDE8F08180F89B
:1047B0006D107047F8B504460D4616461F4690F832
:1047C0007030032B07D8DFE803F0020D1217C36D1A
:1047D0009847304486B23B46324629462046FFF78A
:1047E00078FFF8BDC36D9847281A85B2F3E7C36D0B
:1047F0009847301A86B2EEE7C36D9847284485B2D1
:10480000E9E700002DE9F04104460F4616461D4633
:1048100000F0E9FA4FF0000804E00744BFB240445A
:104820001FFA80F863682978204698474FF6FF7290
:10483000904222D001354FF6FE729042F2D00346EC
:10484000324639462046FFF7B5FF94F87030032B07
:10485000E5D801A252F823F01B4800086948000877
:104860006F480008754800080644B6B2D7E73F1AFB
:10487000BFB2D4E7361AB6B2D1E74046BDE8F08100
:1048800010B5024C4460FFF7BDFF10BD374D000866
:1048900010B5024C4460FFF7B5FF10BD4D4D000848
:1048A000836D73B390F9812080F88E2090F9823067
:1048B00080F88F3090F88D1019B3012914D000B50D
:1048C00090F97E1090F980C001EB0C0E724505DA6C
:1048D000C9B25FFA8CF2114480F88E10634501DD95
:1048E00080F88FC05DF804FB90F983108A4201DAEA
:1048F00080F88E1090F98420934202DD80F88F209A
:1049000070477047014BC365704700BF8B4200087A
:10491000836D8B4209D010B5044681657430FFF772
:10492000B6FC2046FFF7BCFF10BD704708B5024B30
:104930004360FFF7FFFE08BD4D4D000880F8701082
:10494000704700B5B0F800E0B1F800C0F4441FFAB9
:104950008CFCE64505D99E4513D203F1FF3C1FFAB6
:104960008CFC9E450FD294450FD9964500D37246D4
:104970009C4500D8634602809B1A0B8001205DF89D
:1049800004FB9646EDE70020F9E70020F7E730B595
:1049900083B0C48F121BC46A9DF81850009592B260
:1049A000A04703B030BD70B584B004469DF8200028
:1049B000ADF80E10ADF80C20ADF80A3094F88C303C
:1049C0005BB3BDF80A3043B3012B03D9022826D0CC
:1049D00003282DD010F0010534D1B4F84C20BDF8D7
:1049E0000C309A4219D8B4F84E20934215D2B4F83C
:1049F0004A30B4F848200DF10A010DF10E00FFF71E
:104A0000A0FF50B1236B9E680095BDF80A30BDF839
:104A10000C20BDF80E102046B04704B070BD8AB21D
:104A2000D31A9BB2ADF80E300133ADF80E30D1E79A
:104A3000BDF80C20D31A9BB2ADF80C300133ADF8A1
:104A40000C30C7E7B4F84820BDF80E309A42E4D8DD
:104A5000B4F84A209342E0D2B4F84E30B4F84C2077
:104A60000DF10A0103A8FFF76CFF0028CAD1D4E7B3
:104A700010B582B000240094FFF795FF02B010BD7E
:104A800010B582B001240094FFF78DFF02B010BD75
:104A9000B0F84C3093420BD8B0F84E30934207D95F
:104AA000B0F848308B4203D8B0F84A308B4200D877
:104AB000704700B583B0002300930123FFF773FF15
:104AC00003B05DF804FB80F89210022902D901239B
:104AD00080F8923070478A4205D2834209D89A42C0
:104AE00009D901207047834207D99A4207D901208A
:104AF0007047012070470020704700207047002059
:104B0000704770B504460D461E46BDF81030B0F82B
:104B10004E10B0F84C00FFF7DEFF38B133462A469E
:104B2000B4F84A10B4F84800FFF7D5FF70BD70B56F
:104B30009DF8105002F0070E4FF0010C0CFA0EFC1D
:104B40005FFA8CFC90F89260012E1AD90024012E95
:104B500019D022F007060268127C06FB02F292B21C
:104B60000A44416B1144DDB90A782243D2B20A707B
:104B700082EA0C0201F8012B013B9BB2002BF3D11E
:104B800070BD6446E3E74FF0000CE2E701241BE050
:104B90006400E4B24FEA4C0C5FFA8CFC002BEFD0BF
:104BA0000A782243D2B20A7082EA0C020A700EF12D
:104BB0000102013B9BB212F0070EE9D1428F114472
:104BC00090F89220012AE1D9012AE7D04FF0010C98
:104BD000E4E710B5016890F83830DA0082870A7C83
:104BE000D200428790F839E04FEACE02C28703EB49
:104BF0000E0491F811C0644503DDACEB0E0C1FFAF6
:104C00008CF3DB009BB2A0F84020A0F842201A44AD
:104C1000A0F842208B8AA0F84430CB8AA0F8463016
:104C200010BD08B5FFF7D5FF08BD10B582B004462A
:104C3000B0F856300093B0F85230B0F85420B0F8C5
:104C40005010FFF75EFF20B9002384F88C3002B0CB
:104C500010BD012384F88C30B4F84820B4F85030EB
:104C60009A4201D2A4F84830B4F84A20B4F852303D
:104C70009A4201D9A4F84A30B4F84C20B4F8543020
:104C80009A4201D2A4F84C30B4F84E20B4F8563011
:104C90009A42DCD9A4F84E30D9E708B50022A0F832
:104CA0004820B0F84420A0F84A20B0F84020A0F8EE
:104CB0004C20B0F84220A0F84E20FFF7B6FF08BD08
:104CC00010B582B09DF810400094FFF760FE02B06E
:104CD00010BD08B50022A0F85020A0F854204FF6CF
:104CE000FF72A0F85220A0F85620036B5B6898472B
:104CF00008BD70B50446049E00258565C362416306
:104D000080F8382080F8395080F86D5080F8915044
:104D100080F88D50012380F8923080F8933006633C
:104D2000336898472046FFF7D4FF2046FFF7EAFD97
:104D300084F8705070BD084611B10A2903D070473D
:104D40004FF6FF7070474FF6FF70704702460B46F4
:104D500000293FD00A2940D090F8261061BBFB2BD8
:104D600009D8F72B10D8EF2B14D8DF2B18D8BF2B6E
:104D70001CD818467047052180F8261003F001035F
:104D800013844FF6FE707047042180F8261003F05C
:104D90000303F5E7032180F8261003F00703EFE78C
:104DA000022180F8261003F00F03E9E7012180F8C3
:104DB000261003F01F03E3E70139C9B280F826107B
:104DC000008C800180B2108403F03F0318431084EC
:104DD00031B970474FF6FF7070474FF6FF7070475C
:104DE0004FF6FE70F5E7002380F82630704710B5C7
:104DF0000A46046900232021A04710BD10B51346C0
:104E000004690A461721A04710BD00B583B08DF88C
:104E100007100DF107020121FFF7F0FF03B05DF865
:104E200004FB10B50A46C46800231521A04710BD35
:104E300010B50A46C46800231621A04710BD10B55E
:104E40001346C4680A461721A04710BD10B5C468B0
:104E500000231A461821A04710BD10B5C4680023CE
:104E60001A461921A04710BD70B582B006460D46FE
:104E700016E015290CD202B070BDFE29FBD12278B4
:104E80008DF807202921304600F04BF9023507E064
:104E900022788DF80720F46800233046A0470235B9
:104EA0002C4614F8011B1929E7D818290ED2162907
:104EB000DFD91729DFD123788DF807300DF10702EC
:104EC00001213046FFF7BBFF0235E9E7F568002313
:104ED0001A463046A8472546E2E72DE9F041044648
:104EE0000D4616461F46A1F11403052B22D8DFE814
:104EF00003F018030C1518180021FFF778FF31464E
:104F00002046FFF782FF012012E00021FFF76FFF2C
:104F100031462046FFF779FF012009E00121FFF724
:104F200066FFD4F810803B46324629462046C047EB
:104F3000BDE8F0810020FBE7F8B5064615461C46A3
:104F40000B39042960D8DFE801F0035F0E2130003F
:104F500022B92E49FFF788FF012025E02C49FFF7F1
:104F600083FF012020E042B92A49FFF77DFF336823
:104F70009B7C86F82230012016E02749FFF774FF5A
:104F80003368DB7C86F8223001200DE0FFF75EFFFE
:104F900081213046FFF745FF29463046FFF748FF9D
:104FA0003046FFF75AFF0120F8BDFFF74FFF637946
:104FB000DB00DBB296F822701F44FFB2402130467E
:104FC000FFF72FFF390941F010013046FFF729FFA5
:104FD00007F00F013046FFF72BFFA17941F0B00138
:104FE0003046FFF725FF2179C900226801F0F8015A
:104FF0003046FFF724FF6A1E12F0FF05F3D130465A
:10500000FFF72BFF0120CFE70020CDE75470010808
:105010004C700108447001083C70010838B5054621
:105020000C46FFF789FF90B9092C0AD00A2C0FD142
:10503000284600F018F807492846FFF715FF012019
:1050400006E00549284600F009F8012000E00120AB
:1050500038BD00BF5C7001082470010801608B7CC2
:1050600080F82230704710B5044600231A462821E4
:10507000D0F814C0E04700231A4614212046D4F883
:105080000CC0E04701224B21204600F04AF823687B
:105090001A792921204600F044F800224B212046AD
:1050A00000F03FF823681A792921204600F039F8EA
:1050B00001224B21204600F034F823685A79292137
:1050C000204600F02EF810BD10B582B08DF8051006
:1050D0008DF806208DF80430049B009384686B469D
:1050E00001220F21A04702B010BD10B58468002333
:1050F0001A460921A04710BD10B5846800231A463E
:105100000A21A04710BD10B50A46846800230B2170
:10511000A04710BD10B5846800231A461021A0478F
:1051200010BD10B544690023A04710BD0020704792
:1051300000230360074A8260C2600261426180F816
:10514000233080F826308361FF2380F8243080F8F4
:10515000283070472D510008F8B504460F46164612
:105160001D46FFF7E5FFA760E6602561069B6361CA
:105170002046FFF7BAFFF8BD406C704790F8480032
:1051800070470369187C704790F98E00C0B2704771
:10519000024A0260024A0260704700BFB87001080C
:1051A000B464010838B50446A1F1140CBCF10C0F2D
:1051B00008D8DFE80CF0360707091A2807070707A1
:1051C00007071400002038BD1946174801F04CFDB0
:1051D000154BDB8E9BB2002BFAD10120F3E7102197
:1051E000124801F048F80120EDE703681A784921D8
:1051F000FFF797FF65692268002392782C212046EB
:10520000A8470120DFE702680023D2782C214569F6
:10521000A84723685A7849212046FFF782FF0120DA
:10522000D1E70120CFE700BF0C0C002000080140AF
:1052300008B5292903D0492905D0012008BD104609
:1052400000F002FDF9E70421014801F014F8F4E749
:105250000008014008B51030FEF750FE08BD38B513
:105260000D4600F1100401212046FFF7A0FA0021AD
:105270002046FFF763FB29462046FFF749FB38BD70
:1052800008B51030FEF747FE08BD08B509681030B4
:10529000FFF74CFBC0B208BD08B51030FFF713FC98
:1052A00008BD70B504461646084609F019FCFBF720
:1052B00097FC05B2304609F013FCFBF791FC82B273
:1052C000A9B204F11000FFF7E3FB70BD2DE9F8432C
:1052D0008146884617461E46002414E0404609F0E1
:1052E000FFFBFBF77DFC05B2384609F0F9FBFBF745
:1052F00077FC82B2224492B2A9B209F11000FFF702
:10530000C7FB0134E4B2304609F0EAFBFBF78EFC40
:10531000C0B2A04215D9631E14F0070F0CBF0125BF
:10532000002513F0070F08BF45F00105A31E13F079
:10533000070F0CBF01230023002DE2D1002BCDD09D
:10534000DFE7BDE8F8832DE9F84381468846174634
:105350001E46002413E0404609F0C2FBFBF740FC68
:1053600085B2384609F0BCFBFBF73AFC611982B202
:1053700089B209F11000FFF78BFB0134E4B220463B
:10538000FBF714FA3146FBF703FCB0B104F1FF3C24
:1053900014F0070F0CBF012500251CF0070F08BFF4
:1053A00045F00105A31E13F0070F0CBF01230023D6
:1053B000002DE2D1002BCED0DFE7BDE8F883F8B5B1
:1053C000044617461E46084609F08AFBFBF708FC10
:1053D00005B2384609F084FBFBF702FC336882B261
:1053E000A9B204F11000FFF74BFAF8BDF8B5044676
:1053F00017461E46084609F073FBFBF7F1FB05B2A2
:10540000384609F06DFBFBF7EBFB336882B2A9B2BB
:1054100004F11000FFF73CFAF8BDF8B50446164653
:105420001F46084609F05CFBFBF7DAFB05B2304685
:1054300009F056FBFBF7D4FB06B2384609F050FBE7
:10544000FBF7CEFB83B2B2B2A9B204F11000FFF7B2
:1054500017FBF8BDF8B5044616461F46084609F086
:105460003FFBFBF7BDFB05B2304609F039FBFBF70C
:10547000B7FB06B2384609F033FBFBF7B1FB83B24A
:10548000B2B2A9B204F11000FFF7F2FAF8BDF0B51C
:1054900083B0044616461F46084609F021FBFBF779
:1054A0009FFB05B2304609F01BFBFBF799FB06B2E8
:1054B000384609F015FBFBF793FB07B2089809F093
:1054C0000FFBFBF78DFB099B019380B20090BBB2F1
:1054D000B2B2A9B204F11000FEF748FB03B0F0BD70
:1054E000F0B583B0044616461F46084609F0F8FAA0
:1054F000FBF776FB05B2304609F0F2FAFBF770FBDA
:1055000006B2384609F0ECFAFBF76AFB07B20898D6
:1055100009F0E6FAFBF764FB80B20090BBB2B2B2CE
:10552000A9B204F11000FEF74BFB03B0F0BD2DE96A
:10553000F04182B0054617461C46084609F0D0FAED
:10554000FBF74EFB06B2384609F0CAFAFBF748FBF8
:1055500007B2204609F0C4FAFBF742FB0FFA80F8C5
:10556000089809F0BDFAFBF73BFB04B2099809F073
:10557000B7FAFBF735FB80B20190A4B200941FFA92
:1055800088F3BAB2B1B205F11000FEF788FB02B0A1
:10559000BDE8F081F0B583B0044616461F460846C4
:1055A00009F09EFAFBF71CFB05B2304609F098FAA9
:1055B000FBF716FB06B2384609F092FAFBF710FB30
:1055C00007B2089809F08CFAFBF70AFB80B200904A
:1055D000BBB2B2B2A9B204F11000FEF716FB03B0E1
:1055E000F0BD2DE9F04182B0054617461C4608463D
:1055F00009F076FAFBF7F4FA06B2384609F070FAC9
:10560000FBF7EEFA07B2204609F06AFAFBF7E8FA70
:105610000FFA80F8089809F063FAFBF7E1FA04B290
:10562000099809F05DFAFBF7DBFA80B20190A4B2A9
:1056300000941FFA88F3BAB2B1B205F11000FEF778
:10564000A9FB02B0BDE8F08110B50446044B03602D
:10565000044B0360A42101F0F7FC204610BD00BFFD
:10566000B8700108B464010830B587B08DF80F1028
:1056700000258DF817500E4C2A460421204600F0D4
:10568000FAFD2A461021204600F0F5FD4FF47A730A
:10569000009301230DF117020DF10F01054801F0F0
:1056A000C0F901220421204600F0E5FD07B030BD1D
:1056B000000801400C0C002010B504468D21FFF7B6
:1056C000D3FF14212046FFF7CFFFAF212046FFF77D
:1056D000CBFF10BD10B504468D21FFF7C5FF10218B
:1056E0002046FFF7C1FFAE212046FFF7BDFF10BDEA
:1056F00010B586B08DF80F101AB9CBB2DB438DF818
:105700000F3000228DF817200D4C0421204600F0A8
:10571000B2FD01221021204600F0ADFD4FF47A7356
:10572000009301230DF117020DF10F01054801F05F
:1057300078F901220421204600F09DFD06B010BD3D
:10574000000801400C0C002038B504460D4642F01C
:10575000B001FFF789FF290941F010012046FFF74A
:1057600083FF05F00F012046FFF77EFF38BDF8B537
:1057700005460E4600270BE0012231462846FFF77A
:10578000B7FF0134E4B214F0800FF5D00137FFB257
:10579000072F06D8002239462846FFF7D5FF0024F8
:1057A000F1E7F8BD10B504460021FFF7E0FF002245
:1057B00004E00133B3F57A7FFBD30132B2F57A7F8F
:1057C00001D20023F6E7AE212046FFF74DFFD52199
:1057D0002046FFF749FF80212046FFF745FFA8211B
:1057E0002046FFF741FF3F212046FFF73DFFD32131
:1057F0002046FFF739FF00212046FFF735FF402103
:105800002046FFF731FFA1212046FFF72DFFC821D9
:105810002046FFF729FFDA212046FFF725FF122156
:105820002046FFF721FF81212046FFF71DFFCF21F2
:105830002046FFF719FFD9212046FFF715FFF12178
:105840002046FFF711FFDB212046FFF70DFF302137
:105850002046FFF709FFA4212046FFF705FFA621F8
:105860002046FFF701FF8D212046FFF7FDFE1421A2
:105870002046FFF7F9FEAF212046FFF7F5FE10BDE9
:1058800010B500F110040E4B0E4A0F492046FEF7EA
:10589000D5FC2046FFF730FC00212046FFF733FC03
:1058A0002046FEF72BFB01212046FEF780FF00215A
:1058B0002046FFF743F805492046FFF729F810BDB9
:1058C00031520008A5510008187001084C65010804
:1058D00010B50446FEF7B6F82046FEF7B7F82046A6
:1058E000FEF7E8F82046FEF7EEF82046FEF7E6F869
:1058F0002046FEF7E4F82046FFF754FF2046FEF767
:105900008CF82046FEF784F82046FFF7B9FF10BD5B
:1059100072B6FEE700B591B02822002106A80BF070
:10592000A5F90023019302930393049305930122A5
:1059300006924FF4803307930A9202220D920E933F
:105940004FF4E0130F9306A800F0B2FC80B90F23C8
:10595000019302210291002303934FF48062049289
:10596000059301A800F0D6FE20B911B05DF804FB44
:10597000FFF7CEFFFFF7CCFF08B500F041F9FFF7C6
:10598000C9FFFDF703FDFDF7E7FC00F005F8FBF7A5
:1059900087FFFBF77FFEFEE708B50E480E4B03605E
:1059A0004FF48273436000238360C360022202616C
:1059B000012242614FF400728261C361036243625B
:1059C00083620A23C36200F0D1FF00B908BDFFF76C
:1059D0009FFFFBE70C0C00200038004010B586B09C
:1059E000002302930393049305930268214B9A4288
:1059F00001D006B010BD044603F5EC33DA6942F479
:105A00008042DA61DA6902F480420092009A9A696F
:105A100042F008029A619B6903F008030193019B1D
:105A20004FF420430293022303930323059302A917
:105A3000114800F00BFB1148114B03601023436029
:105A4000002383608022C260036143618361C3617C
:105A500000F09CF958B9094BA3645C62002211461E
:105A6000242000F04BF9242000F058F9C1E7FFF79B
:105A70004FFFF0E700380040000C0140C80B002049
:105A80005800024082B00E4B9A6942F001029A61BE
:105A90009A6902F001020092009ADA6942F080529B
:105AA000DA61DB6903F080530193019B054A536877
:105AB00023F0E06343F00073536002B0704700BF0F
:105AC0000010024000000140FEE7FEE7FEE7FEE7AF
:105AD000FEE770477047704708B500F0A3F808BDAF
