:020000040800F2
:1000000000500020658900087D6D00087F6D0008A4
:10001000816D0008836D0008856D000800000000F8
:10002000000000000000000000000000876D0008D4
:10003000896D0008000000008B6D00088D6D0008C0
:10004000AD890008AD890008AD890008AD890008B8
:10005000AD890008AD890008AD890008AD890008A8
:10006000AD890008AD890008AD890008AD89000898
:10007000AD890008AD890008AD890008956D0008BC
:10008000AD890008AD890008AD890008AD89000878
:10009000AD890008AD890008AD890008AD89000868
:1000A000AD890008AD890008AD890008AD89000858
:1000B000AD890008AD890008AD890008AD89000848
:1000C000AD890008AD890008AD890008AD89000838
:1000D000A56D0008AD890008AD890008AD8900084C
:1000E000AD890008AD890008AD8900080000000056
:1000F0000000000000000000000000000000000000
:0C01000000000000000000005FF808F1A3
:1001100081F0004102E000BF83F0004330B54FEAB8
:1001200041044FEA430594EA050F08BF90EA020F25
:100130001FBF54EA000C55EA020C7FEA645C7FEAB8
:10014000655C00F0E2804FEA5454D4EB5555B8BFDB
:100150006D420CDD2C4480EA020281EA030382EA4C
:10016000000083EA010180EA020281EA0303362DDE
:1001700088BF30BD11F0004F4FEA01314FF4801CB1
:100180004CEA113102D0404261EB410113F0004FC3
:100190004FEA03334CEA133302D0524263EB43037A
:1001A00094EA050F00F0A780A4F10104D5F1200E18
:1001B0000DDB02FA0EFC22FA05F2801841F1000173
:1001C00003FA0EF2801843FA05F359410EE0A5F147
:1001D00020050EF1200E012A03FA0EFC28BF4CF078
:1001E000020C43FA05F3C01851EBE37101F000452E
:1001F00007D54FF0000EDCF1000C7EEB00006EEB3B
:100200000101B1F5801F1BD3B1F5001F0CD34908C4
:100210005FEA30004FEA3C0C04F101044FEA44521B
:1002200012F5800F80F09A80BCF1004F08BF5FEAA2
:10023000500C50F1000041EB045141EA050130BD82
:100240005FEA4C0C404141EB0101013C28BFB1F594
:10025000801FE9D291F0000F04BF01460020B1FADF
:1002600081F308BF2033A3F10B03B3F120020CDAB2
:100270000C3208DD02F1140CC2F10C0201FA0CF090
:1002800021FA02F10CE002F11402D8BFC2F1200CF5
:1002900001FA02F120FA0CFCDCBF41EA0C019040AB
:1002A000E41AA2BF01EB0451294330BD6FEA0404F4
:1002B0001F3C1CDA0C340EDC04F11404C4F12002DF
:1002C00020FA04F001FA02F340EA030021FA04F3F1
:1002D00045EA030130BDC4F10C04C4F1200220FA48
:1002E00002F001FA04F340EA0300294630BD21FA86
:1002F00004F0294630BD94F0000F83F4801306BF4C
:1003000081F480110134013D4EE77FEA645C18BF3F
:100310007FEA655C29D094EA050F08BF90EA020FD6
:1003200005D054EA000C04BF1946104630BD91EACE
:10033000030F1EBF0021002030BD5FEA545C05D1D1
:100340004000494128BF41F0004130BD14F5800410
:100350003CBF01F5801130BD01F0004545F0FE4184
:1003600041F470014FF0000030BD7FEA645C1ABFB9
:10037000194610467FEA655C1CBF0B46024650EAF0
:10038000013406BF52EA033591EA030F41F400211C
:1003900030BD00BF90F0000F04BF0021704730B5A2
:1003A0004FF4806404F132044FF000054FF0000177
:1003B00050E700BF90F0000F04BF0021704730B538
:1003C0004FF4806404F1320410F0004548BF40420D
:1003D0004FF000013EE700BF42004FEAE2014FEA62
:1003E00031014FEA02701FBF12F07F4393F07F4F3D
:1003F00081F06051704732F07F4208BF704793F040
:100400007F4F04BF41F40021704730B54FF4607452
:1004100001F0004521F000411CE700BF50EA010255
:1004200008BF704730B54FF000050AE050EA0102FE
:1004300008BF704730B511F0004502D5404261EB6E
:1004400041014FF4806404F132045FEA915C3FF4AF
:10045000D8AE4FF003025FEADC0C18BF03325FEA4C
:10046000DC0C18BF033202EBDC02C2F1200300FAFD
:1004700003FC20FA02F001FA03FE40EA0E0021FA22
:1004800002F11444BDE600BF4FF0FF3C06E000BFA0
:100490004FF0010C02E000BF4FF0010C4DF804CD0D
:1004A0004FEA410C7FEA6C5C4FEA430C18BF7FEACD
:1004B0006C5C1BD001B050EA410C0CBF52EA430CFB
:1004C00091EA030F02BF90EA020F0020704710F17B
:1004D000000F91EA030F58BF994208BF90422CBF0A
:1004E000D8176FEAE37040F0010070474FEA410C03
:1004F0007FEA6C5C02D150EA013C07D14FEA430C21
:100500007FEA6C5CD6D152EA033CD3D05DF8040B91
:10051000704700BF8446104662468C4619466346C3
:1005200000E000BF01B5FFF7B7FF002848BF10F19A
:10053000000F01BD4DF808EDFFF7F4FF0CBF0120DF
:1005400000205DF808FB00BF4DF808EDFFF7EAFF5B
:1005500034BF012000205DF808FB00BF4DF808ED16
:10056000FFF7E0FF94BF012000205DF808FB00BF0B
:100570004DF808EDFFF7CEFF94BF012000205DF895
:1005800008FB00BF4DF808EDFFF7C4FF34BF0120A2
:1005900000205DF808FB00BF4FEA4102B2F1E043E2
:1005A00024BFB3F5001CDCF1FE5C0DD901F0004C5A
:1005B0004FEAC0024CEA5070B2F1004F40EB8300AA
:1005C00008BF20F00100704711F0804F21D113F1D6
:1005D0003872BCBF01F00040704741F480114FEA0F
:1005E0005252C2F11802C2F1200C10FA0CF320FA98
:1005F00002F018BF40F001004FEAC1234FEAD323B5
:1006000003FA0CFC40EA0C0023FA02F34FEA43031E
:10061000CCE77FEA625307D150EA01331EBF4FF0A7
:10062000FE4040F44000704701F0004040F0FE40C2
:1006300040F40000704700BF80F0004002E000BFBF
:1006400081F0004142001FBF5FEA410392EA030FBD
:100650007FEA226C7FEA236C6AD04FEA1262D2EB07
:100660001363C1BFD218414048404140B8BF5B420C
:10067000192B88BF704710F0004F40F4000020F0A5
:100680007F4018BF404211F0004F41F4000121F0BB
:100690007F4118BF494292EA030F3FD0A2F1010205
:1006A00041FA03FC10EB0C00C3F1200301FA03F143
:1006B00000F0004302D5494260EB4000B0F5000F66
:1006C00013D3B0F1807F06D340084FEA310102F125
:1006D0000102FE2A51D2B1F1004F40EBC25008BFD7
:1006E00020F0010040EA03007047490040EB0000A1
:1006F000013A28BFB0F5000FEDD2B0FA80FCACF1A2
:10070000080CB2EB0C0200FA0CF0AABF00EBC250CE
:1007100052421843BCBFD0401843704792F0000FBC
:1007200081F4000106BF80F400000132013BB5E70F
:100730004FEA41037FEA226C18BF7FEA236C21D085
:1007400092EA030F04D092F0000F08BF08467047EA
:1007500090EA010F1CBF0020704712F07F4F04D1B8
:10076000400028BF40F00040704712F100723CBFCB
:1007700000F50000704700F0004343F0FE4040F4F5
:10078000000070477FEA226216BF08467FEA2363B3
:100790000146420206BF5FEA412390EA010F40F49E
:1007A000800070474FF0000304E000BF10F00043EA
:1007B00048BF40425FEA000C08BF704743F09643D1
:1007C00001464FF000001CE050EA010208BF7047EC
:1007D0004FF000030AE000BF50EA010208BF704773
:1007E00011F0004302D5404261EB41015FEA010C88
:1007F00002BF84460146002043F0B64308BFA3F180
:100800008053A3F50003BCFA8CF2083AA3EBC25361
:1008100010DB01FA02FC634400FA02FCC2F1200280
:10082000BCF1004F20FA02F243EB020008BF20F0B7
:100830000100704702F1200201FA02FCC2F120021D
:1008400050EA4C0021FA02F243EB020008BF20EA12
:10085000DC7070474FF0FF0C1CEAD0521EBF1CEA40
:10086000D15392EA0C0F93EA0C0F6FD01A4480EA2E
:10087000010C400218BF5FEA41211ED04FF0006317
:1008800043EA501043EA5111A0FB01310CF0004043
:10089000B1F5000F3EBF490041EAD3715B0040EA69
:1008A000010062F17F02FD2A1DD8B3F1004F40EB39
:1008B000C25008BF20F00100704790F0000F0CF00C
:1008C000004C08BF49024CEA502040EA51207F3AD0
:1008D000C2BFD2F1FF0340EAC250704740F40000AB
:1008E0004FF00003013A5DDC12F1190FDCBF00F09C
:1008F00000407047C2F10002410021FA02F1C2F14A
:10090000200200FA02FC5FEA310040F1000053EAE5
:100910004C0308BF20EADC70704792F0000F00F033
:10092000004C02BF400010F4000F013AF9D040EA39
:100930000C0093F0000F01F0004C02BF490011F4CD
:10094000000F013BF9D041EA0C018FE70CEAD153CB
:1009500092EA0C0F18BF93EA0C0F0AD030F0004C4B
:1009600018BF31F0004CD8D180EA010000F00040FF
:10097000704790F0000F17BF90F0004F084691F0BD
:10098000000F91F0004F14D092EA0C0F01D14202F7
:100990000FD193EA0C0F03D14B0218BF084608D1C0
:1009A00080EA010000F0004040F0FE4040F400000A
:1009B000704740F0FE4040F4400070474FF0FF0C9D
:1009C0001CEAD0521EBF1CEAD15392EA0C0F93EAE4
:1009D0000C0F69D0A2EB030280EA010C49024FEA36
:1009E000402037D04FF0805343EA111143EA1013EF
:1009F0000CF000408B4238BF5B0042F17D024FF4A7
:100A0000000C8B4224BF5B1A40EA0C00B3EB510F81
:100A100024BFA3EB510340EA5C00B3EB910F24BF6A
:100A2000A3EB910340EA9C00B3EBD10F24BFA3EBEF
:100A3000D10340EADC001B0118BF5FEA1C1CE0D1B7
:100A4000FD2A3FF650AF8B4240EBC25008BF20F06A
:100A5000010070470CF0004C4CEA50207F32C2BFBE
:100A6000D2F1FF0340EAC250704740F400004FF05B
:100A70000003013A37E792F0000F00F0004C02BF8C
:100A8000400010F4000F013AF9D040EA0C0093F056
:100A9000000F01F0004C02BF490011F4000F013BB0
:100AA000F9D041EA0C0195E70CEAD15392EA0C0F18
:100AB00008D142027FF47DAF93EA0C0F7FF470AF50
:100AC000084676E793EA0C0F04D14B023FF44CAF93
:100AD00008466EE730F0004C18BF31F0004CCAD128
:100AE00030F000427FF45CAF31F000437FF43CAF64
:100AF0005FE700BF4FF0FF3C06E000BF4FF0010C86
:100B000002E000BF4FF0010C4DF804CD4FEA400267
:100B10004FEA41037FEA226C18BF7FEA236C11D0B1
:100B200001B052EA530C18BF90EA010F58BFB2EB64
:100B3000030088BFC81738BF6FEAE17018BF40F0E4
:100B4000010070477FEA226C02D15FEA402C05D198
:100B50007FEA236CE4D15FEA412CE1D05DF8040B1D
:100B6000704700BF844608466146FFE70FB5FFF7B0
:100B7000C9FF002848BF10F1000F0FBD4DF808ED68
:100B8000FFF7F4FF0CBF012000205DF808FB00BF59
:100B90004DF808EDFFF7EAFF34BF012000205DF8B3
:100BA00008FB00BF4DF808EDFFF7E0FF94BF012000
:100BB00000205DF808FB00BF4DF808EDFFF7D2FFFD
:100BC00094BF012000205DF808FB00BF4DF808ED40
:100BD000FFF7C8FF34BF012000205DF808FB00BF0D
:100BE0004FEA4002B2F1FE4F0FD34FF09E03B3EB3A
:100BF00012620DD94FEA002343F0004310F0004F7A
:100C000023FA02F018BF404270474FF000007047CF
:100C100012F1610F01D1420205D110F0004008BF6E
:100C20006FF0004070474FF00000704742000ED256
:100C3000B2F1FE4F0BD34FF09E03B3EB126209D417
:100C40004FEA002343F0004323FA02F070474FF0CD
:100C50000000704712F1610F01D1420202D14FF042
:100C6000FF3070474FF00000704700BF00F13401C3
:100C700091E838009C46A6464CF8045D90E8FF0FCA
:100C8000E54600BD90EC210B704700BF80EC210BC6
:100C9000704700BF90EC200B704700BF80EC200B2A
:100CA000704700BFD0EC200B704700BFC0EC200B9A
:100CB000704700BFF0EC0201F0EC0211F0EC0221F1
:100CC000F0EC0231F0EC0241F0EC0251F0EC026188
:100CD000F0EC0271F0EC0281F0EC0291F0EC02A178
:100CE000F0EC02B1F0EC02C1F0EC02D1F0EC02E168
:100CF000F0EC02F1704700BFE0EC0201E0EC021101
:100D0000E0EC0221E0EC0231E0EC0241E0EC0251C7
:100D1000E0EC0261E0EC0271E0EC0281E0EC0291B7
:100D2000E0EC02A1E0EC02B1E0EC02C1E0EC02D1A7
:100D3000E0EC02E1E0EC02F1704700BFB0FC0181A1
:100D4000B0FC0191B0FC01A1B0FC01B1704700BF43
:100D5000A0FC0181A0FC0191A0FC01A1A0FC01B1BB
:100D6000704700BFEC4600B52DE900502DE9FF1F8C
:100D70004FF000032DE90C0001A90FF069FDDDF82B
:100D800040E012B0704700BFEC4600B52DE90050BE
:100D90002DE9FF1F4FF000032DE90C0001A90FF012
:100DA00097FDDDF840E012B0704700BFEC4600B59B
:100DB0002DE900502DE9FF1F4FF000032DE90C0035
:100DC00001A90FF0A5FDDDF840E012B0704700BFAB
:100DD000EC4600B52DE900502DE9FF1F4FF0000350
:100DE0002DE90C0001AB0FF067FDDDF840E012B01B
:100DF000704700BFEC4600B52DE900502DE9FF1FFC
:100E00004FF000032DE90C0001AA0FF0DFFDDDF823
:100E100040E012B0704700BF80EA010C1CF0030FE5
:100E200037D110F0030C20F0030021F0030150F83B
:100E3000042B08BF51F8043B0ED08CF0030C6FF06C
:100E40007F434FEACC0C23FA0CFC51F8043B42EAF6
:100E50000C0243EA0C0300BFA2F1013C9A4201BF1D
:100E60002CEA020C1CF0803F50F8042B51F8043B94
:100E7000F2D04FEA02604FEA1222012828BFB0EBFD
:100E8000036F08BF1B0AF4D003F0FF03000EC01A63
:100E9000704710F0030F0AD010F8012B11F8013B36
:100EA000012A28BF9A42F4D0A2EB030070474DF804
:100EB000045D50F8042B01F0030521F0030151F803
:100EC000043B022D26D04DD822F07F45B5EB132FE1
:100ED000A2F1013C2CEA020C0DD11CF0803C08BFB1
:100EE00051F8043B0AD185EA0205B5EB036F0CD13A
:100EF00050F8042BE8E74FEA13235BE03CF07F4C0B
:100F000054D10B784FEA126554E04FEA126503F0B2
:100F1000FF034FE04FEA0245A2F1013C4FEA1545BD
:100F20002CEA020CB5EB134F18D11CF0803C08BF23
:100F300051F8043B07D185EA0205B5EB034F09D10F
:100F400050F8042BE6E75FEA0C4C2FD10B884FEAF0
:100F500012452FE04FEA03434FEA12454FEA13438D
:100F600028E000BF02F0FF05B5EB136FA2F1013CD2
:100F70002CEA020C0DD11CF0803C08BF51F8043B58
:100F80000AD185EA0205B5EB032F0AD150F8042BEC
:100F9000E8E74FEA13630DE012F0FF0F06D051F8B7
:100FA000043B4FEA122523F07F4303E04FF000009B
:100FB00020BC704705F0FF0203F0FF00012828BFA6
:100FC000904204BF2D0A1B0AF4D0A2EB000020BC03
:100FD000704700BF844641EA000313F0030349D180
:100FE000403A23D30B6803604B6843608B6883608F
:100FF000CB68C3600B6903614B6943618B69836193
:10100000CB69C3610B6A03624B6A43628B6A83627A
:10101000CB6AC3620B6B03634B6B43638B6B836362
:10102000CB6BC36340304031403ADBD230320BD31C
:101030000B6803604B6843608B688360CB68C36058
:1010400010301031103AF3D20C3205D351F8043B72
:1010500040F8043B043AF9D2043208D0D2071CBF4E
:1010600011F8013B00F8013B01D30B880380604677
:10107000704700BF082A13D38B07B1D010F00303C9
:10108000AED0C3F10403D21ADB071CBF11F8013B39
:1010900000F8013BA4D331F8023B20F8023B9FE764
:1010A000043AD9D3013A11F8013B00F8013BF9D2D7
:1010B0000B7803704B7843708B7883706046704771
:1010C00070B54FF0FF0C4CF4E06C1CEA11541DBFDE
:1010D0001CEA135594EA0C0F95EA0C0F00F0DEF8A9
:1010E0002C4481EA030621EA4C5123EA4C5350EA8E
:1010F000013518BF52EA033541F4801143F48013DF
:1011000038D0A0FB02CE4FF00005E1FB02E506F06F
:101110000042E0FB03E54FF00006E1FB03569CF0C4
:10112000000F18BF4EF0010EA4F1FF04B6F5007FCA
:1011300064F5407404D25FEA4E0E6D4146EB06063C
:1011400042EAC62141EA55514FEAC52040EA5E50C5
:101150004FEACE2EB4F1FD0C88BFBCF5E06F1ED86F
:10116000BEF1004F08BF5FEA500E50F1000041EBA6
:10117000045170BD06F0004646EA010140EA020053
:1011800081EA0301B4EB5C04C2BFD4EB0C0541EA75
:10119000045170BD41F480114FF0000E013C00F38A
:1011A000AB8014F1360FDEBF002001F0004170BDAE
:1011B000C4F10004203C35DA0C341BDC04F11404C7
:1011C000C4F1200500FA05F320FA04F001FA05F253
:1011D00040EA020001F0004221F0004110EBD37020
:1011E00021FA04F642EB06015EEA430E08BF20EA4C
:1011F000D37070BDC4F10C04C4F1200500FA04F3EF
:1012000020FA05F001FA04F240EA020001F0004180
:1012100010EBD37041F100015EEA430E08BF20EAF3
:10122000D37070BDC4F1200500FA05F24EEA020E3B
:1012300020FA04F301FA05F243EA020321FA04F06A
:1012400001F0004121FA04F220EA020000EBD37021
:101250005EEA430E08BF20EAD37070BD94F0000F21
:101260000FD101F00046400041EB010111F4801F55
:1012700008BF013CF7D041EA060195F0000F18BF06
:10128000704703F00046520043EB030313F4801F42
:1012900008BF013DF7D043EA0603704794EA0C0FFC
:1012A0000CEA135518BF95EA0C0F0CD050EA410612
:1012B00018BF52EA4306D1D181EA030101F000418F
:1012C0004FF0000070BD50EA410606BF10461946B7
:1012D00052EA430619D094EA0C0F02D150EA0136C3
:1012E00013D195EA0C0F05D152EA03361CBF104604
:1012F00019460AD181EA030101F0004141F0FE41A3
:1013000041F470014FF0000070BD41F0FE4141F426
:10131000780170BD70B54FF0FF0C4CF4E06C1CEA26
:1013200011541DBF1CEA135594EA0C0F95EA0C0FDB
:1013300000F0A7F8A4EB050481EA030E52EA033596
:101340004FEA013100F088804FEA03334FF08055B7
:1013500045EA131343EA12634FEA022245EA1115E4
:1013600045EA10654FEA00260EF000419D4208BF95
:10137000964244F1FD0404F5407402D25B084FEA42
:101380003202B61A65EB03055B084FEA32024FF4EE
:1013900080104FF4002CB6EB020E75EB030E22BF4B
:1013A000B61A754640EA0C005B084FEA3202B6EB0B
:1013B000020E75EB030E22BFB61A754640EA5C00BA
:1013C0005B084FEA3202B6EB020E75EB030E22BF4A
:1013D000B61A754640EA9C005B084FEA3202B6EB4B
:1013E000020E75EB030E22BFB61A754640EADC000A
:1013F00055EA060E18D04FEA051545EA16754FEA6C
:1014000006164FEAC30343EA52734FEAC2025FEA89
:101410001C1CC0D111F4801F0BD141EA00014FF018
:1014200000004FF0004CB6E711F4801F04BF0143E9
:101430000020B4F1FD0C88BFBCF5E06F3FF6AFAE05
:10144000B5EB030C04BFB6EB020C5FEA500C50F195
:10145000000041EB045170BD0EF0004E4EEA113118
:1014600014EB5C04C2BFD4EB0C0541EA045170BD1F
:1014700041F480114FF0000E013C90E645EA060E63
:101480008DE60CEA135594EA0C0F08BF95EA0C0F91
:101490003FF43BAF94EA0C0F0AD150EA01347FF4D9
:1014A00034AF95EA0C0F7FF425AF104619462CE7B0
:1014B00095EA0C0F06D152EA03353FF4FDAE104613
:1014C000194622E750EA410618BF52EA43067FF464
:1014D000C5AE50EA41047FF40DAF52EA43057FF4F4
:1014E000EBAE12E74FEA410C7FEA6C5C02D150EAA6
:1014F000013C0AD14FEA430C7FEA6C5C02D152EA0C
:10150000033C02D14FF0000070474FF001007047DC
:101510004FEA410212F5001215D211D56FF478731B
:10152000B3EB625212D94FEAC12343F0004343EABE
:10153000505311F0004F23FA02F018BF4042704799
:101540004FF00000704750EA013005D111F0004023
:1015500008BF6FF0004070474FF00000704700BFB9
:101560000348044B834202D0034B03B11847704732
:10157000C8090020C8090020000000000548064BEB
:101580001B1AD90F01EBA301491002D0034B03B181
:1015900018477047C8090020C80900200000000053
:1015A00010B5064C237843B9FFF7DAFF044B13B1AB
:1015B0000448AFF300800123237010BDC809002048
:1015C00000000000547C010808B5054B1BB105491B
:1015D0000548AFF30080BDE80840FFF7CFBF00BF6C
:1015E00000000000CC090020547C010800B585B043
:1015F00000230193029303931148124A026083600F
:10160000037303754FF46022C261436001230361D9
:1016100005F0D4FE68B9102301930123029300233F
:10162000039301A9064805F043FD28B905B05DF80C
:1016300004FB05F0B6FAEEE705F0B3FAF6E700BFF3
:10164000E4090020002401400268094B9A4200D0BE
:10165000704782B003F56C439A6942F400729A6154
:101660009B6903F400730193019B02B0704700BFB4
:10167000002401400048704738000020F8B50D46AE
:1016800014461E460F6811463846FFF777FA50B9E0
:1016900021463846FEF7D4FF20F000400C49FFF702
:1016A00077FA08B12C60F8BD39462046FEF7C8FF2E
:1016B000044631460748FEF7C3FF01462046FFF7C0
:1016C0007DF901463846FEF7BDFF2860EBE700BF15
:1016D0009A99193E0000C84208B502F0FFFF03685E
:1016E000DB69984708BD08B502F0F8FF03681B6A7C
:1016F000984708BD10B5044602F0F0FF03685B6A26
:101700002146984710BD10B5044602F0E7FF036874
:101710009B6A2146984710BD10B5044602F0DEFFD3
:1017200003681B6B2146984710BDF8B504460D466B
:10173000164602F0D3FF03689F6B33462A462146C4
:10174000B847F8BDF8B504460D46164602F0C6FF88
:1017500003689F6C33462A462146B847F8BDF8B562
:1017600004460D46164602F0B9FF0368DF6C3346A7
:101770002A462146B847F8BDF0B583B004460D4669
:1017800016461F4602F0AAFF036800975F6D3346B6
:101790002A462146B84703B0F0BD08B502F09EFFC7
:1017A00003685B6F984708BD10B584B0844601910B
:1017B00044680368E31A98106FF0604EAEEBA30321
:1017C0008B4210D30390814210D803AB1B6818449E
:1017D000DCF80030E41AB0EBA40F09D3B0F1005FDD
:1017E00009D204B010BD104608F070FB01ABEDE764
:1017F0006FF06040F5E76FF06040F2E74068043852
:10180000704710B485B000230193029303930468DA
:1018100001944268029283680393D1F800C0C0F833
:1018200000C0D1F804C0C0F804C0D1F808C0C0F8A6
:1018300008C00C604A608B6005B010BC704708B5EA
:101840000846114607F038F908BD08B5034653F8B5
:10185000081B994203D082680132FFF7F0FF08BDF0
:1018600010B50446FFF7F1FF204610BD136801E0F4
:1018700040F8043B8142FBD1704708B5084691000F
:1018800007F01AF908BD10B5044601688268521ABB
:1018900011B19210FFF7F1FF204610BD10B50446BC
:1018A000FFF7F1FF204610BD08B5B1F1005F03D28C
:1018B000880007F07DFE08BDB1F1804F01D308F02C
:1018C000DDFA08F0CBFA38B504460D4641B10022E6
:1018D000FFF7EAFF2060606000EB8500A06038BD84
:1018E0000020F7E770B5B1F1005F0ED205460C4657
:1018F00016460023036043608360FFF7E4FF2B6814
:101900006CB103EB8404326804E0064808F0DEFAA8
:1019100043F8042B9C42FBD16C60284670BD1C46EA
:10192000FAE700BF507E010870B584B005460C464A
:101930001646836800681B1AB1EBA30F09D86968C3
:101940000B1AB4EBA30F11D86CB300EB840413682B
:1019500022E02B4601A8FFF7C5FF294601A8FFF7A3
:1019600050FF01A8FFF78FFF04B070BDFFF77EFFA7
:101970006B682A689A1AB4EBA20209D003EB8202C0
:10198000316801E043F8041B9A42FBD16A60EBE73F
:101990001A46FBE740F8043B8442FBD16B68A34244
:1019A000E2D06C60E0E70446F8E700002DE9F84F6C
:1019B00005468A4693461E4A0121FFF7F5FED5F8F3
:1019C00000806F68AAEB0804814618B30022014624
:1019D0002846FFF769FF0646DBF800303351002C3C
:1019E0001ADC04343444A7EB0A07002F1ADC3C4409
:1019F000AA68A2EB08029210B8F1000F03D041468A
:101A00002846FFF73AFF2E606C6006EB8906AE6051
:101A1000BDE8F88F0026DFE722464146304610F049
:101A200003FEDEE73A465146204610F0FDFDDEE7B4
:101A3000847E010810B5044643688268934208D04A
:101A40000A681A604368043343602046FFF7D6FEF5
:101A500010BD0A461946FFF7A9FFF6E72DE9F04F3A
:101A600087B0814628E2B14807F060FD002800F009
:101A70003482AF4AAF49B04806F09AFFAB4807F04E
:101A800075FD2AE2AD4807F051FD002800F02D82D7
:101A9000A74AA849AA4806F08BFFA84807F066FDA8
:101AA00023E2A84807F042FD002800F02682A04A61
:101AB000A049A54806F07CFFA24807F057FD1CE2AC
:101AC000A24807F033FD002800F01F82984AA04981
:101AD000A04806F06DFF9D4807F048FD15E29E48BE
:101AE00007F024FD002800F01882914A98499B488D
:101AF00006F05EFF984807F039FD0EE202F0EEFDB9
:101B000004799448FFF7FFFD201A00EBD0704010D5
:101B1000FEF74CFE924B1860924807F027FD10E24A
:101B200002F0DCFD04798D48FFF7EDFD201A00EB93
:101B3000D0704010FEF73AFE8B4B18608B4807F0D0
:101B400015FD0FE28A4807F0F1FC002800F016822C
:101B5000D5F898100020FEF773FD4FF07E51FEF788
:101B60006FFD844B1860824807F000FD06E2824852
:101B700007F0DCFC002800F00982D5F89C1000205A
:101B8000FEF75EFD4FF07E51FEF75AFD7B4B18606D
:101B9000794807F0EBFCF9E1794807F0C7FC002829
:101BA00000F0FC8102F09AFD4079C043FEF7FEFD93
:101BB000744B1860724807F0D9FCEFE15E4B1A686D
:101BC0005B68934201D05C4B5A605D4B1A685B685E
:101BD000934201D05A4B5A605B4B1A685B689A4239
:101BE00001D0594B5A60002668E0FFF7D6FD40004F
:101BF0000FF070FED5F894100020FEF721FD4FF095
:101C00007E51FEF71DFD029002A94B48FFF712FF1F
:101C10000FF068FE044602F061FD90F80580D5F8EB
:101C200094000146FEF70EFD07464046FEF7BEFD56
:101C30003946FEF705FD4FF08041FEF701FD4FF0FC
:101C40007E51FEF7FFFCFEF7F1FF80B294FBF0F34C
:101C500000FB13400130FEF7A9FD039003A93848AB
:101C6000FFF7E8FE0FF03EFE044602F037FD90F865
:101C70000480D5F894000146FEF7E4FC0746404690
:101C8000FEF794FD3946FEF7DBFC4FF08041FEF78E
:101C9000D7FC4FF07E51FEF7D5FCFEF7C7FF80B2B0
:101CA00094FBF0F300FB13400130FEF77FFD04903E
:101CB00004A92548FFF7BEFE0136F6B295F8A0301C
:101CC000B34292D8304B01221A7074E102F006FD43
:101CD0004079C043FEF76AFD2C4B186095F8A04090
:101CE000D5F894100020FEF7ABFC4FF07E51FEF7C4
:101CF000A7FC059005AA21461148FFF715FED5F867
:101D000098100020FEF79CFC4FF07E51FEF798FCE7
:101D10001F4B1860D5F89C100020FEF791FC4FF087
:101D20007E51FEF78DFC1B4B186061E1700A0020AC
:101D3000000000209D180008740A0020600A00209E
:101D4000640A0020500A0020540A00204C0A002097
:101D5000611800081C000020480A00200400002030
:101D6000440A0020400A00203C0A0020380A0020D3
:101D7000300A0020340A0020280A00202C0A002003
:101D8000180A00201C0A0020820A0020140A0020E1
:101D9000240A0020200A0020BA4F3B684FEA840A38
:101DA000D5F89480414653F82400FEF749FCB64E1E
:101DB000336853F824B04FF07E51FEF741FC4246A1
:101DC0005946FFF7CCFC3B683268D5F894B052F81E
:101DD00024804FF0804153F82400FEF733FC5A462C
:101DE0004146FFF7BCFCD7F800B03368D5F89480C3
:101DF000414653F82400FEF723FC4FF07E51FEF7D6
:101E00001FFC014642465BF82400FFF79BFC3F683D
:101E10003368D5F894804FF0804153F82400FEF7E2
:101E200011FC0146424657F82400FFF78BFC31684D
:101E3000964B1A682B6A52F82420514401A8FFF7E8
:101E40001DFC0134E4B295F8A030A342A4D8D5F823
:101E5000A400FFF74FFC8E4E3168D5F89800FEF7CE
:101E6000F1FB01468B4A8C4B1868FFF75EFCD5F8F6
:101E7000A800FFF73FFC894C2168D5F89C00FEF7CD
:101E8000E1FB0146864A874B1868FFF74EFC2B6A38
:101E9000854A1268314601A8FFF7F0FB2B6A834A96
:101EA0001268214601A8FFF7E9FBFFF715FC804BFC
:101EB0001B884B4580F0D5807E4B1B78002B00F0B3
:101EC00024817B4A1388013313807B4B1B68BFF34B
:101ED0005B8F13F0010F3FF4C6AD784B1B68BFF367
:101EE0005B8F13F0010F3FF4CDAD754B1B68BFF353
:101EF0005B8F13F0010F3FF4D4AD724B1B68BFF33F
:101F00005B8F13F0010F3FF4DBAD6F4B1B68BFF32A
:101F10005B8F13F0010F3FF4E2ADFFF7ABFB05461B
:101F2000D0F8A400FFF7E6FB684B1B68BFF35B8F9C
:101F300013F0010F05D1654807F0F8FA00287FF487
:101F4000DDADD5F8A800FFF7D5FB614B1B68BFF3EB
:101F50005B8F13F0010F05D15D4807F0E7FA002809
:101F60007FF4DEADD5F8AC00FFF7C4FB594B1B681E
:101F7000BFF35B8F13F0010F3FF4E4AD564B1B68CA
:101F8000BFF35B8F13F0010F3FF4F1AD534B1B68B0
:101F9000BFF35B8F13F0010F3FF4FEAD444B1B8882
:101FA0004B45BFF493AE4E4B00221A604D4B1B784D
:101FB000002B3FF403AE02F091FB467976084FF018
:101FC0007C51D5F89800FEF745FC04463046FEF7F4
:101FD000EDFB2146FEF734FB334B1860D5F89C101F
:101FE000FEF72EFB4FF08141FEF72AFB2F4B1860C6
:101FF000FFF779FB0020FFF78FFB3B4CD4F8008004
:1020000002F06CFB0079FEF7CDFB064602F066FBA2
:102010004079FEF7C7FB0346002732464146384663
:10202000FFF7AAFB2B6A2E4A1268214601A8FFF788
:1020300025FB0120FFF770FB02F050FB4079FEF713
:10204000B5FB2168FEF7FEFA044602F047FB007973
:10205000FEF7A8FB024621463846FFF780FB002426
:10206000F1E602F03BFB4079C043FEF79FFB1E4BBD
:102070001968FEF783FD00283FF41EAF0D4B0022C8
:102080001A7019E7540A0020740A0020640A00201C
:10209000340A00201C000020440A00202C0A0020E2
:1020A000040000203C0A0020240A0020200A00200E
:1020B000800A002034000020700A0020600A0020FE
:1020C000500A00204C0A0020480A0020400A002044
:1020D000380A0020300A0020280A0020180A0020B0
:1020E000140A0020820A00201C0A0020084807F079
:1020F00039FA06F0E3FC074807F034FA06F0DEFC94
:10210000054807F02FFA06F0D9FC07B0BDE8F08FBC
:10211000400A0020380A0020180A002000487047B2
:10212000EC00002070470000F8B50D4614461E462E
:102130000F6811463846FEF721FD50B92146384652
:10214000FEF77EFA20F000400C49FEF721FD08B1B1
:102150002C60F8BD39462046FEF772FA0446314637
:102160000748FEF76DFA01462046FEF727FC0146B8
:102170003846FEF767FA2860EBE700BF9A99193EE8
:102180000000C84208B502F0A9FA03681B69984725
:1021900008BD08B502F0A2FA03685B69984708BD5C
:1021A00008B502F09BFA03689B69984708BD0000D8
:1021B00010B5264B1B68BFF35B8F13F0010F03D1E3
:1021C000224807F0B3F940B9214B1B68BFF35B8F7E
:1021D00013F0010F0FD0002320E0FFF7DAFF0446D1
:1021E000FFF7DEFF00FB04F4E4001A4B1C701748F5
:1021F00007F0BCF9E8E7164807F098F90028EAD09C
:10220000FFF7C0FF144B1860114807F0AFF9E2E781
:102210006FF0550002400A7001339BB20D4A1278EC
:102220009A4212D90C4A1268D118D25C13F0010FED
:10223000EED15520EEE7054807F094F906F03EFC94
:10224000034807F08FF906F039FC10BDC80A0020DA
:10225000C00A0020CC0A0020C40A0020F8B50446B9
:102260000D46164602F03AFA0368DF6B33462A46FB
:102270002146B847F8BD10B5044602F02FFA0368AE
:102280009B6E2146984710BD38B55C4B1B68BFF369
:102290005B8F13F0010F03D1584807F047F9B8B925
:1022A000FFF770FF0446FFF739FF05468069FEF728
:1022B000BDFCFFF7E0FF95F82930002B56D0504BBE
:1022C0001B78013B032B4DD8DFE803F01E2C3C4A62
:1022D000FFF75FFF0446FFF763FF00FB04F4E40031
:1022E000484B1C70454807F041F9D9E701339BB2D0
:1022F000444A12789A4258D913F0010FF6D0E25CA2
:1023000002F0AA02E254F1E70023F1E701339BB2A5
:102310003C4A12789A4248D913F0010FF6D00022B5
:10232000E254F3E70023F3E701339BB2354A127816
:102330009A423AD913F0010FF6D1E25C02F055024D
:10234000E254F1E70023F1E701339BB22D4A127802
:102350009A422AD913F0010FF6D10022E254F3E792
:102360000023F3E7264B00221A701EE0244B1B7853
:10237000013B032B39D8DFE803F0101D2D36013364
:102380009BB2204A12789A420FD913F0010FF6D06F
:10239000E25C42F0AA02E254F1E70023F1E70133E4
:1023A0009BB2184A12789A42F9D8154A1378013329
:1023B000137038BD0023F4E701339BB2114A127841
:1023C0009A42F2D913F0010FF6D1E25C42F05502C5
:1023D000E254F1E70023F1E701339BB2094A127896
:1023E0009A42F9D8E1E70023F8E7054B00221A707A
:1023F000DBE7024807F0B6F806F060FBD00A0020E1
:10240000E8000020D40A002008B5024B186802F04A
:1024100045F8FAE7BC0A002008B5081E02DB07F001
:10242000C7F808BD07F01AFDF8B5541A0CD40546D4
:102430000E4664B100222146FFF7EEFF286007191F
:10244000AF6034B96F60F8BD044807F03FFD00206D
:10245000F4E72246314610F0E7F8F3E7507E010832
:1024600038B504460D4639B10022FFF7D5FF20608C
:1024700060602844A06038BD0020F8E708B5012A54
:1024800003D022B1FEF7A6FD01E00B78037008BD72
:1024900008B50846114606F00FFB08BD10B5044606
:1024A00001688268521A09B1FFF7F2FF204610BD99
:1024B00010B50446FFF7F2FF204610BD10B582B0FC
:1024C000044602AB03E90600002303604360836017
:1024D0000A44FFF7A9FF04E02046FFF7DFFF06F0FC
:1024E000EDFA204602B010BD08B5081E02DB07F069
:1024F0005FF808BD07F0B2FC10B50B68002B0EDBCF
:10250000934206D95400B3EB420F02D20C60002C68
:1025100008DB096800220131FFF7E6FF10BD034820
:1025200007F0D4FC6FF000430B60F2E7A07E0108D7
:1025300070B582B004460E46551A01950F2D0DD880
:1025400000942A4631462068FFF798FF0022009247
:10255000019B63602168CA5402B070BD002201A9CA
:10256000FFF7CAFF2060019BA360E9E738B500F1DF
:102570000803036069B104460D46084610F09CFA52
:102580004FF000032A1829462046FFF7D1FF2046C6
:1025900038BD014807F082FCB87E010838B5154601
:1025A0000C1A01D1281938BD22460146284610F0E0
:1025B0003BF8F7E708B5FFF7F1FF08BD08B5FFF7EF
:1025C000F9FF08BD38B504460D4649682A6800235E
:1025D000036043608360891AFFF742FF22686968DD
:1025E0002868FFF7EBFF6060204638BD30B5C9B002
:1025F000A42006F0DDFF0446B84B0360802303717E
:1026000040234371B64B836000218181B54B40F874
:10261000103B942210F086F8204602F00BF94FF49C
:10262000AF70FFF728FE4FF47A70FFF717FAAE4B42
:102630001D684FF49C7006F0BBFF044606AAAB4928
:102640006846FFF793FF08E0012525B14FF49C7120
:10265000204606F031FA06F031FAA54907A8FFF73F
:10266000B1FF04E001256846FFF7EFF8EDE707AAA0
:102670006946204601F068FA2146284601F032FBFF
:1026800004E0002507A8FFF709FFECE707A8FFF71C
:1026900005FF6846FFF7D9F8934B1D684FF49C700F
:1026A00006F086FF044610AA92490AA8FFF75EFFCB
:1026B00008E0012525B14FF49C71204606F0FCF995
:1026C00006F0FCF98C4911A8FFF77CFF04E0012516
:1026D0000AA8FFF7BAF8EDE711AA0AA9204601F007
:1026E00033FA2146284601F0FDFA04E0002511A83E
:1026F000FFF7D4FEECE711A8FFF7D0FE0AA8FFF71A
:10270000A4F8794B1D684FF49C7006F051FF044605
:102710001AAA7A4914A8FFF729FF08E0012525B174
:102720004FF49C71204606F0C7F906F0C7F97449CA
:102730001BA8FFF747FF04E0012514A8FFF785F861
:10274000EDE71BAA14A9204601F0FEF92146284610
:1027500001F0C8FA04E000251BA8FFF79FFEECE794
:102760001BA8FFF79BFE14A8FFF76FF8654C2168C4
:102770005D4B186801F0B6FA25684FF49C7006F0BE
:1027800017FF044624AA59491EA8FFF7EFFE08E0E8
:10279000012525B14FF49C71204606F08DF906F015
:1027A0008DF91EA9204601F013F92146284601F0B3
:1027B00099FA04E000251EA8FFF747F8E9E71EA8EC
:1027C000FFF743F84F4B1D684FF49C7006F0F0FE86
:1027D00004462BAA474925A8FFF7C8FE08E00125B3
:1027E00025B14FF49C71204606F066F906F066F9B3
:1027F00025A9204601F0ECF82146284601F072FA9E
:1028000004E0002525A8FFF720F8E9E725A8FFF751
:102810001CF83C4B1D684FF49C7006F0C9FE044642
:1028200032AA36492CA8FFF7A1FE08E0012525B100
:102830004FF49C71204606F03FF906F03FF92CA9B1
:10284000204601F0C5F82146284601F04BFA04E085
:1028500000252CA8FEF7F9FFE9E72CA8FEF7F5FF05
:10286000284B1D684FF49C7006F0A2FE044639AA5E
:10287000254933A8FFF77AFE08E0012525B14FF47A
:102880009C71204606F018F906F018F933A9204685
:1028900001F09EF82146284601F024FA04E00025C4
:1028A00033A8FEF7D2FFE9E733A8FEF7CEFF154BBA
:1028B0001D684FF49C7006F07BFE044640AA134945
:1028C0003AA8FFF753FE23E0012525B14FF49C7190
:1028D000204606F0F1F806F0F1F800BFFC80010890
:1028E00000007F435C950108B80A0020EC7E0108D7
:1028F000AC0A0020F47E0108A00A0020FC7E01083A
:10290000940A0020840A00200C7F0108207F01081F
:102910003AA9204601F05CF82146284601F0E2F988
:1029200004E000253AA8FEF790FFCEE73AA8FEF7AC
:102930008CFF204B1D684FF49C7006F039FE044656
:1029400047AA1D4941A8FFF711FE08E0012525B15E
:102950004FF49C71204606F0AFF806F0AFF841A99D
:10296000204601F035F82146284601F0BBF904E085
:10297000002541A8FEF769FFE9E741A8FEF765FFDA
:102980000E4B19680E4B186801F074FC49B030BD4D
:10299000012577E60125AAE60125DDE601250AE7FE
:1029A00001252FE7012554E7012579E70125B9E73E
:1029B0000125DEE7840A0020347F0108B80A0020E0
:1029C000BC0A0020012800D070474FF6FF739942DF
:1029D000FAD12DE9F043BDB0182006F0E9FD00233F
:1029E000036043608360C36003614361544B0360D1
:1029F000544B0360544B18604FF49C7006F0D8FDA4
:102A0000044625AA51491FA8FFF7B0FD1FA920467B
:102A100000F0DEFF4E4B1C601FA8FEF716FFDFF82C
:102A2000348101AD7824224641462846FEF7D2FA89
:102A300026952794DFF8209128AB22462946484660
:102A4000FFF73CFD454F464E3A463146484605F0B5
:102A5000AFFF224608EB04012846FEF7BBFA299592
:102A60002A94DFF800912BAB224629464846FFF70F
:102A700025FD3A463146484605F09AFF224608F1C0
:102A8000F0012846FEF7A6FA2C952D94DFF8D89091
:102A90002EAB224629464846FFF710FD3A463146FE
:102AA000484605F085FF224608F5B4712846FEF732
:102AB00091FA2F9530942D4C31AB7822294620463F
:102AC000FFF7FCFC3A463146204605F071FF4FF413
:102AD0009C7006F06DFD044638AA254932A8FFF720
:102AE00045FD224939A8FFF76DFD39AA32A92046D4
:102AF00001F02AF81F4B1C6039A8FFF7CFFC32A861
:102B0000FEF7A3FE3DB0BDE8F0831FA8FEF79DFED3
:102B10004FF49C71204605F0CFFF05F0CFFFF7E79B
:102B200039A8FFF7BBFC32A8FEF78FFE4FF49C716B
:102B3000204605F0C1FF05F0C1FFF4E7F6E700BF4E
:102B4000A07F0108B87F0108BC0A0020487F010867
:102B5000B80A0020707C0108AC0A002000000020A8
:102B6000B1240008A00A0020940A0020880A00204E
:102B7000507F0108840A002008B54FF6FF7101203C
:102B8000FFF720FF08BD0000004870479C010020AF
:102B900030B5334A0260334941603349816033497B
:102BA000C16033490161334941613349816133492E
:102BB000C1610262012280F8242080F8252080F87B
:102BC000262080F8272080F82820002280F829205D
:102BD0002B4CC4624FF0824202634FF0814CC0F82C
:102BE00034C04FF0834EC0F838E04FF07C51C163E1
:102BF000C0F840C04FF080414164224D8564C564F7
:102C000002654265204D8565C0F85CC01F4D0566B4
:102C100042661F4D8566C16604671E4C44671E4CA4
:102C20008467C467C0F88020C0F884E0C0F888C01A
:102C3000C0F88C10194CC0F89040C0F89410184996
:102C4000C0F89810C0F89C20122280F8A020154AE5
:102C5000C0F8A420144AC0F8A820C0F8AC2030BDA9
:102C60000000AA4200008C42000082420000A04204
:102C70000000C841000070410000C84200007042DE
:102C80000000A0400000F0410000C0400000904162
:102C90000000404100004040000010420000B442EB
:102CA000000060419C810108F089010838B50446A4
:102CB0000D4601F013FD03685B6B2A4621469847D9
:102CC00038BDF8B504460D46164601F007FD036809
:102CD0005F6C33462A462146B847F8BDF0B583B04D
:102CE00004460D4616461F4601F0F8FC0368089A94
:102CF000019200971F6D33462A462146B84703B01C
:102D0000F0BDF0B583B004460D4616461F4601F0EF
:102D1000E5FC0368089A019200979F6D33462A46A6
:102D20002146B84703B0F0BD10B5044601F0D6FC0B
:102D3000043003C884E80300FFF726FF0146B022F1
:102D400004F10800FEF746F910BD2DE9F0410446F4
:102D50000E4603681B68984794F82131B3BB94F87A
:102D600030300BB3D4F82851D4F82C8108E055F852
:102D7000047B3368616D1868FDF762FCC7F8BC001E
:102D8000A845F4D10023C4F8D4306079FDF70AFDDA
:102D9000C4F8EC00C4F8F400A16F0020FDF750FC6B
:102DA000C4F8E400BDE8F081D4F82831D4F82C014F
:102DB00005E053F8042BD2F8C010C2F8BC109842BA
:102DC000F7D1D4F8D830C4F8D430DEE7012BE9D1FC
:102DD00094F83130C3B1D4F82851D4F82C8108E0EC
:102DE00055F8047B3368616C5868FDF729FCC7F817
:102DF000C400A845F4D10023C4F8CC302079FDF7F5
:102E0000D1FCC4F8DC00CDE7D4F82831D4F82C018B
:102E100005E053F8042BD2F8C810C2F8C410984249
:102E2000F7D1D4F8D030C4F8CC30E7E708B5036860
:102E30005B68984708BDD0F82C31D0F82801181AE3
:102E4000C0F38700704700002DE9F04F87B00446BB
:102E5000049190F821312BB1012B00F08F8107B044
:102E6000BDE8F08F0430FFF75FFF0120FEF754FC50
:102E7000D4F82861D4F82C31059324E056F8045B8B
:102E8000D5F8BCB0049B1F68D5F814A1D4F85890AD
:102E9000D4F854807968206EFDF7D4FB039039682C
:102EA0005846FDF7CFFBCDF800A04B4642460399AC
:102EB000FFF714FF2368DF68E368D5F8C02005F149
:102EC000BC012046B847059BB342D7D194F83401E2
:102ED0000130FDF76BFC05462079FDF763FC0646E3
:102EE0002046FFF7A8FFFDF761FC01463046FDF7DD
:102EF00065FD01462846FDF7ADFCC4F8D8004FF04B
:102F00000008A36FD4F8D420D4F8E4104046FEF7AC
:102F100033FC626ED4F8EC10A06EFEF720FCA66EB7
:102F20004FF07E51D4F8EC00FDF78CFB05464FF0D6
:102F30007E513046FDF786FB2946FFF7B7FEA66EA9
:102F40004FF08041D4F8EC00FDF77CFB05464FF0D4
:102F500080413046FDF776FB2946FFF7A7FEA66EB7
:102F60004FF07E51D4F8EC00FDF76AFB05464FF0B8
:102F70007E513046FDF766FB2946FFF797FEA66EA9
:102F80004FF08041D4F8EC00FDF75AFB05464FF0B6
:102F900080413046FDF756FB2946FFF787FE656EF8
:102FA0002079FDF703FC2946FDF74AFBD4F8EC60D5
:102FB000A16EFDF745FB2A463146FEF7D0FB277987
:102FC000666E4FF07E51D4F8EC00FDF73BFB0546F2
:102FD0003846FDF7EBFB3146FDF732FB2946FFF79C
:102FE00065FE656E2079FDF7E1FB2946FDF728FBBC
:102FF00006464FF08041D4F8EC00FDF723FB054670
:103000004FF07E513046FDF71BFB2946FFF74EFE81
:103010002779666E4FF07E51D4F8EC00FDF710FB77
:1030200005463846FDF7C2FB3146FDF709FB294648
:10303000FFF73CFE656E2079FDF7B8FB2946FDF7EA
:10304000FFFA06464FF08041D4F8EC00FDF7F8FA9D
:1030500005464FF07E513046FDF7F2FA2946FFF75C
:1030600025FEA74E4FF08041D4F8EC00FDF7EAFAB8
:1030700001463246D4F89000FEF771FBD4F890A0D8
:103080004FF08041D4F8EC00FDF7DCFA4FF08145B9
:10309000DFF870922946FDF7D3FA07464FF08041DA
:1030A0005046FDF7CFFA2B464A463946FEF764FBF9
:1030B000D4F890702079FDF779FB3946FDF7C0FA16
:1030C00082464FF08041D4F8EC00FDF7BBFA07468A
:1030D00031465046FDF7B4FA32463946FEF73FFB1B
:1030E000D4F890702079FDF761FB3946FDF7A8FA16
:1030F0003146FDF7A5FA07464FF08041D4F8EC00C1
:10310000FDF7A0FA2946FDF79BFA06464FF08041ED
:103110003846FDF797FA2B464A463146FEF72CFB18
:103120002079FDF73FFB0246D4F8F4104046FFF744
:10313000C8FD214651F8F43BDD68E368D4F8F82077
:103140002046A847214651F8EC3BDD68E368D4F8F7
:10315000F0202046A847214651F8D43BDD68E368BB
:10316000D4F8D8202046A847214651F8E43BDD6832
:10317000E368D4F8E8202046A84770E60430FFF75B
:10318000D3FD0120FEF7C8FAD4F82871D4F82CB189
:1031900027E057F8045BD5F8BCA0049BD3F8008067
:1031A000E16BD5F8C400FDF74DFA216CFDF74AFA42
:1031B00005F1FC09D8F80410FDF744FA0646D8F8E2
:1031C00000105046FDF73EFA4A463146FFF746F8F2
:1031D0002368DE682369D5F8C82005F1C4012046BC
:1031E000B047BB45D5D194F834010130FDF7DEFA84
:1031F00005466079FDF7D6FA06462046FFF71BFE26
:10320000FDF7D4FA01463046FDF7D8FB01462846C3
:10321000FDF720FBC4F8D000A66B00252079FDF750
:10322000C5FA3146FDF70CFA32462946FEF797FA01
:1032300094F80480A76B60790138FDF7B7FA064669
:103240004046FDF7B3FA3946FDF7FAF93A463146FA
:10325000FEF785FA94F804804FF07C51A06BFDF7DF
:10326000F9FAFDF7B9F80DF0F3F806460F464046B7
:10327000FDF7A0F832463B46FCF74EFF80468946F4
:103280006079FDF78FFA064640464946FDF784F916
:1032900032462946FEF756FAD4F8CC30A26B2946BE
:1032A000D4F8DC00FEF768FA94F8353093B921467B
:1032B00051F8CC3BDD682369D4F8D0202046A847DC
:1032C000214651F8DC3BDD682369D4F8E020204634
:1032D000A847C4E50220FEF71FFA26796079FDF7BA
:1032E00061FA05463046FDF75DFA024600202B469E
:1032F0000146FEF741FA0120FEF70EFAD7E700BFBC
:10330000000010410000A04090F83421D0F828318E
:1033100053F822007047D0F824017047F8B50446EE
:103320000D460430FFF700FDD4F8BC3083F834516B
:10333000D4F8BC6096F821313BBBD6F8283153F85D
:103340002530D4F880703946D3F8C000FDF778F9FD
:10335000C4F8C400D6F8283153F825303946D3F8DC
:10336000C800FDF76DF9C4F8CC0065792846FDF773
:1033700019FAC4F8D800666F2846FDF717FA3146E7
:10338000FDF75EF9C4F8DC00F8BD012BFCD1D6F8DE
:10339000283153F82530E16CD3F8C000FDF750F91F
:1033A000C4F8C400D6F8283153F82530D3F8C83013
:1033B000C4F8CC30D6F8283153F82500FC30FEF79D
:1033C000A2F9FDF7EFF90546206C0146FDF73AF941
:1033D00001462846FDF736F9C4F8D400D4E741B1D8
:1033E00008B5C0F8BC1091F83411FFF797FF012021
:1033F00008BD002070472DE9F04383B004460D4618
:103400000430FFF791FC214651F8C03BDE68636948
:10341000D4F8C4202046B047214651F8C83BDE68A6
:103420006369D4F8CC202046B047D4F8BC3093F878
:103430002131002B40F07A81214651F8D83BDE68DB
:103440006369D4F8DC202046B0470120FEF764F918
:103450002079FDF7ABF90646D4F8BC3093F8342157
:10346000D3F8283153F82200FC30FEF74CF9FDF771
:1034700099F901463046FDF7E3F88046D4F8BC30B0
:1034800093F83421D3F8283153F82270FC37D4F85C
:103490008C10D4F8D800FDF7D5F806464FF07C51D3
:1034A0004046FDF7D7F93A463146FEF7D7FE0220EF
:1034B000FEF732F9D4F8C0802F687968D4F8C800D4
:1034C000FDF7C0F8064639684046FDF7BBF83146BF
:1034D000FFF7ECFBD4F8C090D5F80080D4F8C860B2
:1034E0004FF07E51E06FFDF7ADF80746D8F80410B5
:1034F0003046FDF7A7F80646D8F800104846FDF715
:10350000A1F83A463146FEF72AF9D4F8C090D5F82A
:103510000080D4F8C8604FF07E51E06FFDF792F85C
:103520000746D8F804103046FDF78CF80646D8F860
:1035300000104846FDF786F83A463146FEF702F994
:10354000D4F8C090D5F80080D8F80410D4F8C8009A
:10355000FDF778F8D4F88810FDF774F806464FF0B8
:103560007E51E06FFDF76EF807464FF07E51304612
:10357000FDF766F80646D8F800104846FDF762F8F1
:103580003A463146FEF7EBF8D4F8C090D5F8008003
:10359000D8F80410D4F8C800FDF754F8D4F888100F
:1035A000FDF750F8E76F3946FDF74AF84FF07E51C6
:1035B000FDF746F80646D8F800104846FDF742F8F1
:1035C0003A463146FEF7BEF82E683168D4F8C0009E
:1035D000FDF738F8D4F88410FDF734F8D4F87C807F
:1035E0004146FDF72DF807467168D4F8C800FDF78D
:1035F00029F806464FF07E513846FDF721F842463D
:103600003146FEF7ACF82E683168D4F8C000FDF7FB
:1036100019F8D4F88410FDF715F88046D4F8C8904E
:103620004FF07E51E06FFDF70DF807467168484690
:10363000FDF708F806464FF07E514046FDF700F8CA
:103640003A463146FEF77EF82E683168D4F8C0005D
:10365000FCF7F8FFD4F88410FCF7F4FFD4F87C8072
:103660004146FCF7EDFF07467168D4F8C800FCF747
:10367000E9FFD4F88810FCF7E5FF4FF07E51FCF726
:10368000DFFF06464FF07E513846FCF7D9FF424631
:103690003146FEF764F82E683168D4F8C000FCF7B4
:1036A000D1FFD4F88410FCF7CDFF07467168D4F839
:1036B000C800FCF7C7FFD4F88810FCF7C3FFD4F8A4
:1036C0007C804146FCF7BCFF4FF07E51FCF7B8FF11
:1036D00006464FF07E513846FCF7B2FF424631466F
:1036E000FEF730F82E683168D4F8C000FCF7AAFF66
:1036F000D4F88410FCF7A6FF05467168D4F8C8001A
:10370000FCF7A0FFD4F88810FCF79CFF4FF07E5127
:10371000FCF796FF04464FF07E512846FCF790FFD9
:103720002146FFF7C3FA03B0BDE8F083012BFAD1BD
:10373000214651F8D03BDE68A369D4F8D420204656
:10374000B0470220FDF7E8FFD4F8C0902F68D4F806
:10375000C8504FF07E51606CFCF772FF0646D4F8FB
:10376000D08079682846FCF76DFF054639684846E1
:10377000FCF768FFA36C0093334642462946FFF7E7
:10378000C0FA0120FDF7C8FFCDE7000070B5044680
:103790000D46164680230371402343710F4B83600F
:1037A0000C30FFF7F5F90E4B23600E4B236000231E
:1037B00084F8CC3029460020FCF742FF0546C4F8C7
:1037C000BC0031460020FCF73BFFC4F8C000C4F841
:1037D000C450C4F8C800204670BD00BF00007F433D
:1037E000A07F010860800108F8B504461646012351
:1037F00080F8CC300020FCF723FF0546214651F825
:10380000C43BDF68A36A02462046B8473146002021
:10381000FCF716FF0646214651F8C83BDF68A36A4D
:1038200002462046B847D4F8C4102846FDF7A6F94A
:1038300040B1D4F8C8103046FDF7A0F910B100230C
:1038400084F8CC30F8BD000070B504460D46244B1A
:103850001B68BFF35B8F13F0010F2AD0012384F89C
:10386000CC3065B11F4B1B78B5FBF3F203FB125252
:1038700012F0FF0F31D1B5FBF3F3013BDDB26079FC
:1038800005FB00F0FCF792FF024600212046FFF7FF
:10389000ABFFD4F8C860607905FB00F0FCF786FF49
:1038A00001463046FDF76AF910B1002384F8CC30A8
:1038B00070BD0B4805F03AFE0028CFD0666C6079E9
:1038C000FCF774FF3146FDF779F8FDF7AFF9054BCA
:1038D0001870034805F04AFEC0E7B5FBF3F5CEE7E4
:1038E000D80A0020DC0A0020F8B50446012380F83D
:1038F000CC300846FCF75AFF0546E16D606DFCF7D9
:10390000A1FE014600262846FCF7A4FF01463246E8
:103910002046FFF769FFD4F8C470E16D606DFCF7D5
:1039200091FE01462846FCF795FF01463046FCF71C
:1039300087FE01463846FDF721F910B1002384F8CF
:10394000CC30F8BD08B591F82131012B01D02BB155
:1039500008BD91F83411FFF777FFF9E791F83411BA
:10396000FFF7C2FFF4E703684068984214BF0020E5
:103970000120704770B505460C46024652F8080B08
:103980000B4653F8081B8B4210D082421BD0AE6806
:10399000296062686A60A268AA60B0B12060A6600F
:1039A0000023636022681370284670BDA542F7D0DB
:1039B00062682AB963686B602A680021D154EFE716
:1039C000FEF75CFDF6E70020E2E72360E8E7000091
:1039D00070B504460E4680230371402343712A4B81
:1039E00083600C30FFF7D4F8284B23602346284A25
:1039F00043F8BC2B0025C4F8BC505D609D60DD60C1
:103A00003022294604F1CC000EF08CFE04F58273BE
:103A1000C4F8FC30C4F8005184F80451C4F81451BF
:103A2000C4F81851C4F81C51C4F82851C4F82C51DA
:103A3000C4F83051314604F1FC00FFF79BFF01232D
:103A400084F8203184F82151226CC4F8BC20002372
:103A5000C4F8C430C4F8C020C4F8C83084F8345165
:103A6000C4F82451D4F82831D4F82C21934201D041
:103A7000C4F82C31D4F81431D4F81821934201D071
:103A8000C4F81831204670BD00007F43A07F0108B4
:103A90004880010810B584B08446019144680368E9
:103AA000E31A98106FF0604EAEEBA3038B4210D375
:103AB0000390814210D803AB1B681844DCF8003037
:103AC000E41AB0EBA40F09D3B0F1005F09D204B03F
:103AD00010BD104606F0FAF901ABEDE76FF060405B
:103AE000F5E76FF06040F2E710B485B00023019372
:103AF00002930393046801944268029283680393DB
:103B0000D1F800C0C0F800C0D1F804C0C0F804C0AB
:103B1000D1F808C0C0F808C00C604A608B6005B0DE
:103B200010BC704710B584B00C460023019302937B
:103B30000393FFF7D9FF214601A8FFF7D5FF01A89E
:103B4000FEF7ACFC04B010BD2DE9F04104460F4671
:103B5000164680230371402343712A4B83600C3047
:103B6000FFF716F8284B23602346284A43F8BC2B5E
:103B70000025C4F8BC505D609D60DD6030222946A0
:103B800004F1CC000EF0CEFD04F58273C4F8FC30D5
:103B9000C4F8005184F8045104F58A78C4F814512B
:103BA000C4F81851C4F81C51C4F82851C4F82C5159
:103BB000C4F83051394604F1FC00FFF7DBFE4FF04A
:103BC000000231464046FFF7ADFF84F8205184F8EB
:103BD00021510023C4F8BC30C4F8C430C4F8C0304C
:103BE000236EC4F8C83084F83451C4F82451D4F892
:103BF0002831D4F82C21934201D0C4F82C3120462E
:103C0000BDE8F08100007F43A07F010848800108E3
:103C100008B50846910004F04FFF08BD08B5B1F1A2
:103C2000005F03D2880005F0C3FC08BDB1F1804FEE
:103C300001D306F023F906F011F900002DE9F84F41
:103C400005468A4693461E4A0121FFF723FFD5F811
:103C500000806F68AAEB0804814618B30022014671
:103C60002846FFF7DBFF0646DBF800303351002C17
:103C70001ADC04343444A7EB0A07002F1ADC3C4456
:103C8000AA68A2EB08029210B8F1000F03D04146D7
:103C90002846FFF7BDFF2E606C6006EB8906AE601C
:103CA000BDE8F88F0026DFE72246414630460EF099
:103CB000BBFCDEE73A46514620460EF0B5FCDEE797
:103CC000847E010808B543688268934205D00A687B
:103CD0001A6043680433436008BD0A461946FFF77B
:103CE000ADFFF9E72DE9F04182B0019100297BD0C9
:103CF00004460D4600F594763046FFF734FE18B1C1
:103D000095F8203184F8213194F8212195F820315B
:103D10009A4203D0002002B0BDE8F081C5F82441EA
:103D200001A93046FFF7CEFF94F82131012B41D095
:103D300094F82131002B3BD126797608D4F85480B1
:103D40004FF07C514046FCF785FD05463046FCF7B8
:103D50002DFD2946FCF774FC05462046FFF76BF85D
:103D6000471EE16D4046FCF76DFC06463846FCF701
:103D70001DFD3146FCF76EFD0146019E2846FCF70D
:103D800061FCC6F8C000236EC6F8C8300023C4F832
:103D9000E8306079FCF70AFD0546216FFCF750FC1E
:103DA000C4F8F000E16E2846FCF74AFCC4F8F800BD
:103DB0000120B0E7019D236CC5F8C0302046FFF715
:103DC0003AF8666C0138FCF7F1FC3146FCF742FD2D
:103DD000C5F8C800A56B2079FCF7E8FC2946FCF77C
:103DE0002FFCC4F8E000A3E7002094E72DE9F041A0
:103DF000571A0F4B9F4216D804460D461646B91067
:103E0000A1B10022FDF750FD206000EB0708C4F8C7
:103E10000880B54203D03A4629460EF005FCC4F8A6
:103E20000480BDE8F081034806F050F80020EBE77D
:103E3000FCFFFF7F507E010810B582B0044602AB44
:103E400003E90600002303604360836001EB820204
:103E5000FFF7CCFF04E02046FDF715FD04F02EFE31
:103E6000204602B010BD10B586B00446D1F8C4306B
:103E70000393D1F8C830049303AB01930223029358
:103E800005AB01AA06CAFFF7D7FF204606B010BD52
:103E9000004870475002002008B500F01FFC03687E
:103EA000DB6A984708BDF0B583B004460D46164658
:103EB0001F4600F013FC0368089A019200971F6EDA
:103EC00033462A462146B84703B0F0BD2DE9F04FEE
:103ED0008DB00446059191463D4B1B68BFF35B8F47
:103EE00013F0010F40F03581394805F01FFB002821
:103EF00000F02F81D4E904233649C1E90023344876
:103F000005F034FB25E10598FDF7FDFBFCF74EFCC1
:103F10000546FFF7BDFFD0F888000146FCF792FB8D
:103F200001462846FCF78EFB2B4B18602B4805F00A
:103F30001DFB26E1FFF7B0FFFCF738FC0546FFF755
:103F4000A7FFD0F888000146FCF77CFB0146284615
:103F5000FCF778FB224B1860224805F007FB1DE1B7
:103F6000214805F0E3FA002800F020811C4B196875
:103F70000020FCF765FB4FF08241FCF761FB1B4B17
:103F80001860194805F0F2FA10E100F0A7FB40793B
:103F9000FCF70CFC124B1968FCF752FB1449FCF7B8
:103FA0000DFD144B186019E100F098FB0079FCF747
:103FB000FDFB094B1968FCF743FB4FF07C51FCF704
:103FC00049FC0D4B18600D4805F0D0FA13E100BF15
:103FD000040B0020080B0020000B0020FC0A00202E
:103FE000F80A0020F40A0020EC0A0020F00A002061
:103FF00000004040E80A0020E40A0020E00A002017
:1040000006A8FDF740FCA568E16809A8FFF72BFFAB
:1040100009A92846FFF7EFF909A8FDF734FC616804
:10402000E068FFF78FFC0020FDF776FB864F4FF02E
:1040300081413868FCF704FB0290844E4FF08141C7
:104040003068FCF7FDFA8046DFF804A24FF08241A9
:10405000DAF80000FCF7F6FA0390DFF8F8B14FF059
:104060008241DBF80000FCF7EDFA0490FFF710FF47
:1040700005464FF08041D0F88C00FCF7E3FA009041
:10408000049B039A41460298FEF73BFE0120FDF790
:1040900043FB4FF08041DBF80000FCF7D3FA834686
:1040A0004FF08041DAF80000FCF7CCFA82464FF07E
:1040B0007E513068FCF7C4FA80464FF07E51386874
:1040C000FCF7BEFAD5F88C3000935B465246414669
:1040D000FFF7E9FED5F8888039684046FCF7B2FA68
:1040E000074631684046FCF7ADFA8046FFF7D4FE3C
:1040F000FCF75CFB4146FCF7A5FA0146059A3846F9
:10410000FDF713FBFDF7E8FA2368DF68D5F8903078
:10411000514A126831462046B847226963694F48C0
:1041200001684068521A63EB00034A4573F10003CB
:104130000FD3484B19680020FCF782FA4FF08241F8
:10414000FCF77EFA3168FCF719FD10B1444B0022F0
:104150001A70434B1B78002B72D0236962690133BC
:1041600042F10002236162613E4B1B68BFF35B8F2B
:1041700013F0010F05D13B4805F0D8F900287FF472
:10418000C2AE394B1B68BFF35B8F13F0010F05D133
:10419000354805F0CBF900287FF4CCAE334B1B68D3
:1041A000BFF35B8F13F0010F3FF4DAAE226963694E
:1041B0002A4801684068521A63EB00034A4573F1CC
:1041C0000003FFF4E2AE234B19680020FCF738FA35
:1041D0004FF08241FCF734FA1F4B1860244B1B68E8
:1041E000BFF35B8F13F0010F05D1214805F09EF955
:1041F00000287FF4D9AEFDF776FA6568E16806A875
:10420000FFF731FE06A92846FEF71EFEF8E6154820
:1042100005F0A8F904F052FC134805F0A3F904F0E6
:104220004DFC134805F09EF904F048FC06A8FDF784
:104230002AFB04F043FC09A8FDF725FB04F03EFC33
:104240000DB0BDE8F08F00BFE40A0020F00A0020A6
:10425000000B0020F80A0020E80A0020080B0020CC
:104260004D020020FC0A0020F40A0020EC0A002085
:10427000E00A002070B584B005460E464160D020AB
:1042800005F096F9044600210A46FFF77FFAEC6034
:10429000214601A8FFF7E7FD01A93046FEF755FDCD
:1042A00001A8FDF7F0FAE02005F082F90446E022CB
:1042B00000210EF037FA8023237140236371124BE3
:1042C000A36004F10C00FEF763FC104B2360104B5D
:1042D0002360AC6031462046FFF781F896F8341130
:1042E000A868FFF71BF80321A868FFF717F804B0C8
:1042F00070BDD021204604F0DFFB04F0DFFB01A8F5
:10430000FDF7C1FA04F0DAFB00007F43A07F01084B
:10431000CC80010830B593B004464068FEF7F4FF46
:10432000B0B16068FEF7F0FFFEF785FD00B360688E
:10433000FEF77CFD6068FEF7E7FF05466060E16818
:104340000FA8FFF790FD0FA92846FEF7FEFC1FE01F
:1043500007AA1F4901A8FEF709F94FF4167201A92F
:104360002046FFF7B3FD01A8FDF76FFA00201DE01E
:104370000EAA184908A8FEF7F9F84FF4167208A912
:104380002046FFF7A3FD08A8FDF75FFA00200DE027
:104390000FA8FDF778FA6168A068FFF720F8636856
:1043A00093F83411A068FEF7B9FF012013B030BDB7
:1043B00001A8FDF74AFA04F081FB08A8FDF745FAC9
:1043C00004F07CFB0FA8FDF75EFA04F077FB00BF5A
:1043D000708001088480010830B593B004464068BD
:1043E000FEF799FFB0B16068FEF795FFFEF723FD79
:1043F00000B36068FEF71AFD6068FEF78CFF0546A3
:104400006060E1680FA8FFF72EFD0FA92846FEF7B0
:104410009CFC1FE007AA1F4901A8FEF7A7F84FF46C
:10442000167201A92046FFF751FD01A8FDF70DFA0C
:1044300000201DE00EAA184908A8FEF797F84FF4CF
:10444000167208A92046FFF741FD08A8FDF7FDF9FF
:1044500000200DE00FA8FDF716FA6168A068FEF7CE
:10446000BEFF636893F83411A068FEF757FF012080
:1044700013B030BD01A8FDF7E8F904F01FFB08A850
:10448000FDF7E3F904F01AFB0FA8FDF7FCF904F0BF
:1044900015FB00BF708001088480010830B587B02B
:1044A0000446FDF720F96568E1686846FFF7DBFC24
:1044B00069462846FEF7C8FC6846FDF7E4F9A5689A
:1044C000E16803A8FFF7CFFC03A92846FEF793FF96
:1044D00003A8FDF7D8F96168E068FFF733FA2369AC
:1044E0006269A3F5FA73134328D023696269A3F2C2
:1044F000262313432FD023696269A3F21A4313437F
:104500002FD023696269A3F20E6313432DD0216972
:10451000636940F20E62914273F1000303D30022FB
:104520000023C4E90423FDF7D7F823696269013346
:1045300042F100022361626107B030BD124D2B7859
:1045400001332B706068FEF776FC2B788342CCD366
:1045500000222A70C9E70C4B1978A068FEF7DEFE2E
:10456000C9E72046FFF7D6FECBE72046FFF734FF2A
:10457000CDE76846FDF787F904F0A0FA03A8FDF738
:1045800082F904F09BFA00BF4C02002000B583B012
:104590000A4B5A6942F001025A615B6903F0010358
:1045A0000193019B002211460F2002F0D1FF0F2042
:1045B00002F0DEFF03B05DF804FB00BF0010024014
:1045C00070B588B000240494059406940794234B96
:1045D0009A6942F020029A619A6902F020020192DF
:1045E000019A9A6942F004029A619A6902F00402FF
:1045F0000292029A9A6942F008029A619B6903F05A
:1046000008030393039B164D22460421284603F01A
:104610005CFA01221821284603F057FA0423049378
:104620000126059602230693079304A9284603F062
:1046300037F918230493059606960323079304A9D4
:10464000284603F02DF9C02304930594069404A989
:10465000284603F025F908B070BD00BF00100240E5
:10466000000801407047002070470020704700207C
:1046700070477047704770470020704700207047B0
:104680007047704770477047704770477047704772
:1046900070477047704770477047704700207047F9
:1046A0000020704700207047704770477047704780
:1046B0007047002070477047014B0360704700BF90
:1046C000FC80010810B50446034B0360102104F080
:1046D000F3F9204610BD00BFFC800108014B1868AB
:1046E000704700BF340B002010B50446FFF7F6FFFB
:1046F0000368D3F88C302146984710BD10B50024CC
:10470000012C06DCE0B2FFF7EFFF034610B90134DD
:10471000F6E70023184610BD08B5FFF7DFFF036872
:10472000D3F89030984708BD10B5304B1B78022B5A
:104730000CD804465AB21ABB3BB9FFF7EDFF78B963
:1047400000232B4A13702B4A137010BD032BFCD18E
:10475000FFF7E2FF0028F8D1244B00221A70F4E79B
:104760000020FFF7C1FF10B1204B01221A70012079
:10477000FFF7BAFF0028E3D01C4B02221A70DFE7D4
:10478000FFF7CAFF28B31B4B1B7813B9194B012243
:104790001A70174A13780133DBB21370642BD4D923
:1047A0000020FFF7A1FF18B10223237300236373D6
:1047B0000120FFF799FF18B10223637300232373CD
:1047C00000230B4A13700B4A1370084B03221A7014
:1047D000BBE7084B1B781BB1044B03221A70B4E7EC
:1047E0000023024A137063732373AEE7100B00209B
:1047F000120B0020110B002010B50446FFF78CFFB0
:1048000070B10023012B09D8E218127B012A04D0D1
:10481000022A09D00133DBB2F4E713B90023A381E4
:1048200010BD012BFAD0F5E7002BF7D0012BF5D006
:10483000F0E7000040B110B504460368DB68984714
:10484000024B1C60012010BD00207047340B00207B
:1048500070B506460C46083030600D4655F8083BEA
:104860009D420AD033608B68B360636873602560D3
:10487000002363602372304670BD4A680132F4D071
:104880002946FCF7A7FBF0E730B585B084460191D7
:1048900044680368E31ADB10114803FB00F0114D74
:1048A0002D1A8D4213D30390814213D803AA1268A4
:1048B0001044DCF80030E41AE410094B03FB04F464
:1048C000A04209D3074B984208D805B030BD104626
:1048D00005F0FCFA01AAEAE70248F6E70148F4E726
:1048E000ABAAAAAA55555505F8B545688D420AD018
:1048F00007460E460C4603E02046FCF7A6FF183498
:10490000A542F9D17E60F8BD08B5084602EB420227
:10491000D10004F0D1F808BD10B5044601688268E2
:10492000521AD210034B03FB02F209B1FFF7ECFF5E
:10493000204610BDABAAAAAA70B506460468456811
:1049400003E02046FCF781FF1834A542F9D1304638
:10495000FFF7E2FF304670BD70B504460E461546BF
:1049600008E021462846FFF773FF2046FCF76DFF5D
:1049700018341835B442F4D1284670BD10B582B051
:10498000044601AA0249FDF7F1FD204602B010BD20
:10499000DC80010870B582B004460E46551A0195B8
:1049A0000F2D0DD800942A4631462068FDF766FD8C
:1049B00000220092019B63602168CA5402B070BD5E
:1049C000002201A9FDF798FD2060019BA360E9E7A3
:1049D00010B504460B4600F10802026009685A68E7
:1049E0004FF000030A44FFF7D5FF204610BD00003A
:1049F00008B5084B994205D801EB4101C80004F005
:104A0000D7FD08BD044B994201D905F037FA05F0EE
:104A100025FA00BF55555505AAAAAA0A2DE9F84F4F
:104A2000044688469246274A0121FFF72DFF276852
:104A3000D4F804B0A8EB0709054658B10022014696
:104A40002046FFF7D5FF0646B14451464846FFF7DA
:104A5000BFFF01E00026F7E72346324641463846CD
:104A6000FFF77AFF234600F1180259464046FFF748
:104A700073FF8046A368DB1BDB10134A03FB02F2C3
:104A80001FB139462046FFF73FFF2660C4F8048077
:104A900005EB450506EBC505A560BDE8F88F04F0FC
:104AA000D3F846B94846FCF7D0FE04F007FD04F001
:104AB0000BF904F003F82A4631462046FFF724FF9D
:104AC000F3E700BF847E0108ABAAAAAA10B504468A
:104AD0004068A368984205D0FFF77AFF63681833EF
:104AE000636010BD0A4601462046FFF797FFF8E7CE
:104AF00038B50C46434B1B68BFF35B8F13F0010FB7
:104B000028D0414B1B68BFF35B8F13F0010F03D11B
:104B10003D4804F00BFD58BB3C4B1B68BFF35B8F5B
:104B200013F0010F31D03A4A536811685B1ADB1059
:104B3000384A02FB03F3384A12789A4232D92146A6
:104B40003348FFF7C3FFFCF7CEFD0220FCF7E4FD7E
:104B500000243DE02B4804F0E9FC0028D1D02F4A86
:104B60002F492B4803F024FF264804F0FFFCC8E738
:104B7000FFF7B4FD4579FFF78FF9B5FBF0F5264B4C
:104B80001D70214804F0F2FCC6E7204804F0CEFC7A
:104B90000028C8D0FFF780F9224B18701B4804F09A
:104BA000E5FCC0E71A48FFF79FFEC8E71D4B1B78DE
:104BB00003FB044004EB440105EBC1051844FBF77B
:104BC000F5FD01462A460020FCF7AFFD0134E4B2B2
:104BD0000F4A536815685B1BDB100E4901FB03F39A
:104BE0009C42E3D3FCF778FD0120FCF795FD38BD2E
:104BF000054804F0B7FC03F061FF044804F0B2FC80
:104C000003F05CFF240B00201C0B0020140B002081
:104C1000280B0020ABAAAAAA200B0020000000202D
:104C200039490008180B00207047704770477047DB
:104C30007047704708B539B18021074802F03EFF40
:104C4000003818BF012008BD4021034802F036FF9C
:104C5000003818BF0120F6E70008014008B502F04F
:104C600029F908BD00B591B02822002106A80DF051
:104C700059FD0023019302930393049305930122AA
:104C800006924FF4803307930A9202220D920E93FC
:104C90004FF4E0130F9306A802F034FF80B90F23FE
:104CA000019302210291002303934FF48062049246
:104CB000059301A803F058F928B911B05DF804FB79
:104CC00001F06FFFEBE701F06CFFF6E708B5FFF7C7
:104CD00077FC08BD704708B501F0B8FF08BD08B5FE
:104CE000FFF754FC08BD08B5FCF780FC08BD08B50B
:104CF000084602F003F908BD08B502F0F9F808BD4E
:104D0000094B18684FF0E022536992699B1A074AD1
:104D100012680749A1FB0212920CB3FBF2F34FF4A5
:104D20007A7202FB00307047DC0F00200003002085
:104D300083DE1B4310B50B4C204602F09FFA322154
:104D4000204602F0EFF8204602F052FA10F4007FFD
:104D500002D1054B186810BD204602F0A5F9024BA0
:104D60001860F6E7E4090020380B00202DE9F04F29
:104D700083B007460E4691461D46DDF8308090F818
:104D800092A0CB18541CA4B200949BB200F0FFFF79
:104D900078B3BAFA8AFB4FEA5B1B012414E087F868
:104DA00092A00023009301234A463146384600F082
:104DB00040FF0136B6B2640014F0FF0402D108F1DE
:104DC00001080124013DADB28DB198F800302342B5
:104DD000E5D197F89130002BEBD187F892B0009392
:104DE00001234A463146384600F023FFE1E787F8C1
:104DF00092A003B0BDE8F08F2DE9F04782B0824663
:104E0000884614461F46BDF828500B9E03F107093B
:104E1000C9F3CC0903EB010C53199BB200931FFAA1
:104E20008CF300F0B4FF60B90DE000963B462246DB
:104E300041465046FFF79AFF4E440134A4B2013D6B
:104E4000ADB2002DF1D102B0BDE8F0872DE9F041FF
:104E500082B080460F4614461E46BDF8205001EB36
:104E6000030C53199BB200931FFA8CF300F08FFFD1
:104E700060B90DE000220092334622463946404692
:104E800000F0D7FE0134A4B2013DADB2002DF1D146
:104E900002B0BDE8F0812DE9F04782B080460D46B2
:104EA00014461E46BDF82890CF18BFB202EB090386
:104EB0009BB200933B4600F06AFF10B902B0BDE818
:104EC000F08700230093334622462946404600F0EF
:104ED000B0FEB9F1010FF1D9A9F102091FFA89F960
:104EE0000134A4B2B9F1000F08D100230093334676
:104EF00022462946404600F09CFEDFE74FF0010ABB
:104F0000CDF800A04B4622462946404600F091FECF
:104F1000791ECDF800A04B46224689B2404600F0EB
:104F200088FEA1441FFA89F4DFE72DE9F04F87B02E
:104F300080460C469246BDF84060BDF8447003912F
:104F400004931C44A4B29519ADB20095234600F019
:104F50001EFF10B907B0BDE8F08F039A02EB0709F6
:104F60001FFA89F90AEB070B1FFA8BFBE41BA4B2AB
:104F7000013CA4B2ED1BADB2013DADB202230093E2
:104F80003B465A464946404600F074FA01230093D6
:104F90003B465A462146404600F06CFA04230093F3
:104FA0003B462A464946404600F064FA08230093EF
:104FB0003B462A462146404600F05CFA049BDB1B38
:104FC0009BB2DB1B9BB209F101091FFA89F90BF1B6
:104FD000010B1FFA8BFB022B0FD8F61BB6B2F61B88
:104FE000B6B2022EB6D9023EB6B20096049B5A461D
:104FF00003994046FFF72AFFACE7023B9BB27C1CBB
:10500000A4B200940593524649464046FFF71EFF5E
:105010000094059B2A4649464046FFF717FFDCE708
:105020002DE9F04F85B007460C469046BDF838B0E4
:10503000BDF83C60029103931C44A4B202EB0B0543
:10504000ADB20095234600F0A2FE10B905B0BDE850
:10505000F08F029A02EB060A1FFA8AFA08EB060999
:105060001FFA89F9A41BA4B2013CA4B2AD1BADB2D6
:10507000013DADB20223009333464A4651463846BD
:1050800000F0D4F90123009333464A4621463846BE
:1050900000F0CCF90423009333462A4651463846A3
:1050A00000F0C4F90823009333462A4621463846C7
:1050B00000F0BCF9039B9B1B9BB29B1B9BB2ABEB11
:1050C0000604A4B2A41BA4B20AF1010A1FFA8AFAC8
:1050D00009F101091FFA89F9022B16D8022CB5D95A
:1050E000023CA4B2039B5D1EADB223464A46029E1B
:1050F0003146384600F00AFE3146294423464A46E6
:1051000089B2384600F002FEA0E7023B9DB20BF1E7
:10511000FF3B1FFA8BFB2B4642465146384600F0B8
:10512000EDFD08EB0B022B4692B25146384600F0DB
:10513000E5FDD3E710B582B003681B7C446B03FB2D
:1051400001F1C90089B20C440094002101F002F978
:1051500002B010BD2DE9F041064690F8387090F885
:105160003950036893F8118000242A4621463046BE
:10517000FFF7E0FF0134E4B20135EDB2A74201D9F7
:10518000A845F2D8BDE8F08108B503681B7C90F80B
:10519000382003FB02F2D2000021406B0DF0C2FA6E
:1051A00008BD10B50446FFF7D5FF204601F0F8F81A
:1051B00010BD2DE9F84380460F4691461C46BDF8C8
:1051C00020609DF8245015F0010F0AD115F0020F50
:1051D00016D115F0080F24D115F0040F32D1BDE817
:1051E000F883B21A591892B289B200F097FDF21BF7
:1051F00004EB090192B289B2404600F08FFDE5E769
:10520000A6EB0902E11B92B289B2404600F086FD8E
:10521000F21BA4EB090192B289B2404600F07EFD78
:10522000D7E706EB0902E11992B289B2404600F0D5
:1052300075FDBA1904EB090192B289B2404600F03B
:105240006DFDC9E706EB0902E11B92B289B2404647
:1052500000F064FDBA19A4EB090192B289B240468C
:1052600000F05CFDBBE72DE9F04F85B00390894667
:1052700092461E469DF838B0C3F1010424B2C3EB38
:10528000C3384FEA48080FFA88F8CDF804B0009206
:105290000B4632460021FFF78CFF002501271AE05C
:1052A000013EB6B208F102081FFA88F30FFA88F837
:1052B00023441CB20135ADB20237BBB23FB2234426
:1052C0001CB2CDF804B0CDF800A04B4632462946BA
:1052D0000398FFF76EFFB54202D2002CE0DAE9E74F
:1052E00005B0BDE8F08F2DE9F84380460C4617461F
:1052F0001D46BDF820909DF8246016F0010F0AD1DC
:1053000016F0020F1BD116F0080F2DD116F0040F66
:105310003BD1BDE8F883531CA9EB020269189BB28C
:1053200092B289B200F0F2FC631CA9EB0402E91905
:105330009BB292B289B2404600F0E8FCE0E77B1CE9
:10534000A9EB0702291B9BB292B289B2404600F03A
:10535000DDFC631CA9EB0402E91B9BB292B289B28B
:10536000404600F0D3FCCEE77B1C29199BB24A468D
:1053700089B2404600F0CAFC631CE9199BB24A4658
:1053800089B2404600F0C2FCC0E77B1C291B9BB2DF
:105390004A4689B2404600F0B9FC631CE91B9BB247
:1053A0004A4689B2404600F0B1FCB2E72DE9F04F21
:1053B00085B00390894692461E469DF838B0C3F1E9
:1053C000010424B2C3EBC3384FEA48080FFA88F847
:1053D000CDF804B000920B4632460021FFF783FF60
:1053E000002501271AE0013EB6B208F102081FFAB3
:1053F00088F30FFA88F823441CB20135ADB20237A6
:10540000BBB23FB223441CB2CDF804B0CDF800A02B
:105410004B46324629460398FFF765FFB54202D254
:10542000002CE0DAE9E705B0BDE8F08F2DE9F041A6
:1054300082B080460E4617461D46CB189BB2AC186C
:10544000A4B20133521B491B0134A4B200949BB295
:1054500092B289B200F09BFC10B902B0BDE8F081B5
:105460009DF8203000932B463A4631464046FFF7E0
:10547000FAFEF2E72DE9F04182B080460E4617466B
:105480001D46CB189BB2AC18A4B20133521B491B6A
:105490000134A4B200949BB292B289B200F077FCBE
:1054A00010B902B0BDE8F0819DF8203000932B4682
:1054B0003A4631464046FFF779FFF2E7082303708A
:1054C000004870473C0B002030B585B004460D46BF
:1054D00000931346084A094900F084FF0DF10F00BC
:1054E000FFF7ECFF01460095054B9DF80F20204685
:1054F00000F045FD05B030BD67610008A9620008F5
:10550000BB5D0008405C70474218435C507800EB7C
:10551000032080B270470020704738B504460D461E
:1055200000212846FFF7EEFF207001212846FFF7F3
:10553000E9FF607002212846FFF7E4FFA070032115
:105540002846FFF7DFFFE07004212846FFF7DAFF67
:10555000207105212846FFF7D5FF607106212846F6
:10556000FFF7D0FFA07107212846FFF7CBFFE071BE
:1055700008212846FFF7C6FF207209212846FFF7B9
:10558000C1FF60720A212846FFF7BCFFA0720B2101
:105590002846FFF7B7FFE0720C212846FFF7B2FF5D
:1055A00020730D212846FFF7ADFF60730E212846BA
:1055B000FFF7A8FFA0730F212846FFF7A3FFE073B2
:1055C00010212846FFF79EFF207411212846FFF77F
:1055D0009BFF608213212846FFF796FFA0821521CA
:1055E0002846FFF791FFE08238BD30B5024690F8BB
:1055F0000CE00468207840FA0EF05FFA80FC0EEBB5
:105600000103DBB2072B0FD9CEF1080E5FFA8EFE35
:10561000651C156094F801C00CFA0EFC4CEA000CF5
:105620005FFA8CFC083BDBB24FF0FF30884013730D
:105630002CEA000030BD38B5044600F16005016673
:10564000002380F86C3090F878102846FFF7CDFFE3
:1056500084F86A0094F879102846FFF7C6FF84F8AA
:105660006B0094F8923084F86E30B3FA83F35B09E0
:1056700084F86F3038BD10B50C46FFF7B6FF013C1B
:10568000E4B20123A340C01A40B210BD012B08D0E0
:10569000022B09D013B1401A80B27047104480B277
:1056A0007047084480B27047801A80B27047012B5F
:1056B00008D0022B09D013B1104480B270470844BF
:1056C00080B27047801A80B27047401A80B270472B
:1056D0002DE9F04F89B005468A46079290F9683067
:1056E0005FFA83FB90F96920D3B2039319E0CDF8F8
:1056F00014A01FE095F86E3085F892300097059B56
:105700000699284600F095FAB2453CD3ABEB040469
:1057100054445FFA84FA039B0133DBB203934FF0E6
:10572000000B95F96A40E4B2A4EB0B06F6B2B24561
:10573000DDD30596B5F866904FFA8BF19DF90C8094
:1057400095F870703B4642460491B5F86400FFF747
:10575000AEFF06903B46424604994846FFF796FF47
:105760000246079B002BC5D195F86D30002BCBD19D
:1057700095F86F3085F892300097059B069928467A
:1057800000F057FAC0E70AEB0B0385F8683085F89C
:10579000698009B0BDE8F08F2DE9F04F85B004466F
:1057A00000F16005FFF747FF94F96B7094F87A10E9
:1057B0002846FFF760FF804694F87B102846FFF7E5
:1057C0005AFF064694F87C102846FFF754FF0390D2
:1057D00094F96A90B9F1000F55DD3E44F6B2764275
:1057E00076B294F870B05B4632464146B4F8640035
:1057F000FFF75DFF8246A4F864005B4632464146EF
:10580000B4F86600FFF742FF0246A4F86600BBF159
:10581000030F68D8DFE80BF0023B495B1FFA89F3FE
:1058200053449BB2384480B200905146204600F069
:10583000AEFA40B3002384F8683084F8693094F8F5
:1058400076102846FFF7D1FE804694F87710284658
:10585000FFF7CBFE0646002241462046FFF738FF01
:10586000012231462046FFF733FF01212846FFF78A
:10587000BCFE0028EFD194F96930BB42DFDB94F81D
:105880006E3084F89230039805B0BDE8F08FAAEB33
:10589000070189B201310AF101039BB21FFA89F0B5
:1058A000104480B21FFA81FABEE71FFA89F1AAEB11
:1058B000010189B201310AF101039BB2C61BB6B2E4
:1058C0000136013080B2B2B21FFA81FAACE70AEBBE
:1058D00007039BB21FFA89F1411A89B201310130E5
:1058E00080B28AB2A0E753469EE770B50E46846D3B
:1058F0001734FF2913D8602903D9B0F888301C4425
:1059000006E0402904D9B0F886301C4400E01C446D
:10591000637803B32278B242F9D1A01C1CE0B0F83E
:105920008A301C44254600212846FFF7EDFD04443B
:1059300002212846FFF7E8FD04358642F3D801E04E
:10594000A3781C442278637853EA022305D09E4250
:10595000F6D1E01C00E0002070BD0020FCE710B58F
:105960000446A0F86410A0F866201946FFF7BDFFB2
:1059700028B101462046FFF70FFF80B210BD00207E
:10598000FCE738B50446FFF7B0FFB8B10146204642
:10599000FFF751FE04F1600594F87A102846FFF7EE
:1059A0006AFE84F8900094F87B102846FFF763FEA7
:1059B00094F87C102846FFF75EFE38BD0020FCE717
:1059C0002DE9F04104460D46002680F86A6000F09B
:1059D00050FB6FF03F08374601E03E44B6B26368C3
:1059E0002978204698474FF6FF7398420FD001352B
:1059F0004FF6FE739842F2D001462046FFF7C1FFF2
:105A000087B218F1400FE8D194F99080E5E794F956
:105A10006A307BB1F71BBFB29BB23B449BB294F997
:105A20009060B6B21E44B6B2B8F1000F02DDB044C9
:105A30001FFA88F63046BDE8F08180F86D10704797
:105A4000F8B504460D4616461F4690F87030032BF5
:105A500007D8DFE803F0020D1217C36D98473044F2
:105A600086B23B46324629462046FFF778FFF8BD0E
:105A7000C36D9847281A85B2F3E7C36D9847301A6B
:105A800086B2EEE7C36D9847284485B2E9E7000087
:105A90002DE9F04104460F4616461D4600F0E9FA8E
:105AA0004FF0000804E00744BFB240441FFA80F8FA
:105AB00063682978204698474FF6FF72904222D0BB
:105AC00001354FF6FE729042F2D003463246394617
:105AD0002046FFF7B5FF94F87030032BE5D801A2FC
