:020000040800F2
:10000000005000209D910008B5750008B7750008E4
:10001000B9750008BB750008BD7500080000000038
:10002000000000000000000000000000BF75000894
:10003000C175000800000000C3750008C575000800
:10004000E5910008E5910008E5910008E5910008B8
:10005000E5910008E5910008E5910008E5910008A8
:10006000E5910008E5910008E5910008E591000898
:10007000E5910008E5910008E5910008CD750008BC
:10008000E5910008E5910008E5910008E591000878
:10009000E5910008E5910008E5910008E591000868
:1000A000E5910008E5910008E5910008E591000858
:1000B000E5910008E5910008E5910008E591000848
:1000C000E5910008E5910008E5910008E591000838
:1000D000DD750008E5910008E5910008E59100084C
:1000E000E5910008E5910008E59100080000000096
:1000F0000000000000000000000000000000000000
:0C01000000000000000000005FF808F1A3
:1001100081F0004102E000BF83F0004330B54FEAB8
:1001200041044FEA430594EA050F08BF90EA020F25
:100130001FBF54EA000C55EA020C7FEA645C7FEAB8
:10014000655C00F0E2804FEA5454D4EB5555B8BFDB
:100150006D420CDD2C4480EA020281EA030382EA4C
:10016000000083EA010180EA020281EA0303362DDE
:1001700088BF30BD11F0004F4FEA01314FF4801CB1
:100180004CEA113102D0404261EB410113F0004FC3
:100190004FEA03334CEA133302D0524263EB43037A
:1001A00094EA050F00F0A780A4F10104D5F1200E18
:1001B0000DDB02FA0EFC22FA05F2801841F1000173
:1001C00003FA0EF2801843FA05F359410EE0A5F147
:1001D00020050EF1200E012A03FA0EFC28BF4CF078
:1001E000020C43FA05F3C01851EBE37101F000452E
:1001F00007D54FF0000EDCF1000C7EEB00006EEB3B
:100200000101B1F5801F1BD3B1F5001F0CD34908C4
:100210005FEA30004FEA3C0C04F101044FEA44521B
:1002200012F5800F80F09A80BCF1004F08BF5FEAA2
:10023000500C50F1000041EB045141EA050130BD82
:100240005FEA4C0C404141EB0101013C28BFB1F594
:10025000801FE9D291F0000F04BF01460020B1FADF
:1002600081F308BF2033A3F10B03B3F120020CDAB2
:100270000C3208DD02F1140CC2F10C0201FA0CF090
:1002800021FA02F10CE002F11402D8BFC2F1200CF5
:1002900001FA02F120FA0CFCDCBF41EA0C019040AB
:1002A000E41AA2BF01EB0451294330BD6FEA0404F4
:1002B0001F3C1CDA0C340EDC04F11404C4F12002DF
:1002C00020FA04F001FA02F340EA030021FA04F3F1
:1002D00045EA030130BDC4F10C04C4F1200220FA48
:1002E00002F001FA04F340EA0300294630BD21FA86
:1002F00004F0294630BD94F0000F83F4801306BF4C
:1003000081F480110134013D4EE77FEA645C18BF3F
:100310007FEA655C29D094EA050F08BF90EA020FD6
:1003200005D054EA000C04BF1946104630BD91EACE
:10033000030F1EBF0021002030BD5FEA545C05D1D1
:100340004000494128BF41F0004130BD14F5800410
:100350003CBF01F5801130BD01F0004545F0FE4184
:1003600041F470014FF0000030BD7FEA645C1ABFB9
:10037000194610467FEA655C1CBF0B46024650EAF0
:10038000013406BF52EA033591EA030F41F400211C
:1003900030BD00BF90F0000F04BF0021704730B5A2
:1003A0004FF4806404F132044FF000054FF0000177
:1003B00050E700BF90F0000F04BF0021704730B538
:1003C0004FF4806404F1320410F0004548BF40420D
:1003D0004FF000013EE700BF42004FEAE2014FEA62
:1003E00031014FEA02701FBF12F07F4393F07F4F3D
:1003F00081F06051704732F07F4208BF704793F040
:100400007F4F04BF41F40021704730B54FF4607452
:1004100001F0004521F000411CE700BF50EA010255
:1004200008BF704730B54FF000050AE050EA0102FE
:1004300008BF704730B511F0004502D5404261EB6E
:1004400041014FF4806404F132045FEA915C3FF4AF
:10045000D8AE4FF003025FEADC0C18BF03325FEA4C
:10046000DC0C18BF033202EBDC02C2F1200300FAFD
:1004700003FC20FA02F001FA03FE40EA0E0021FA22
:1004800002F11444BDE600BF4FF0FF3C06E000BFA0
:100490004FF0010C02E000BF4FF0010C4DF804CD0D
:1004A0004FEA410C7FEA6C5C4FEA430C18BF7FEACD
:1004B0006C5C1BD001B050EA410C0CBF52EA430CFB
:1004C00091EA030F02BF90EA020F0020704710F17B
:1004D000000F91EA030F58BF994208BF90422CBF0A
:1004E000D8176FEAE37040F0010070474FEA410C03
:1004F0007FEA6C5C02D150EA013C07D14FEA430C21
:100500007FEA6C5CD6D152EA033CD3D05DF8040B91
:10051000704700BF8446104662468C4619466346C3
:1005200000E000BF01B5FFF7B7FF002848BF10F19A
:10053000000F01BD4DF808EDFFF7F4FF0CBF0120DF
:1005400000205DF808FB00BF4DF808EDFFF7EAFF5B
:1005500034BF012000205DF808FB00BF4DF808ED16
:10056000FFF7E0FF94BF012000205DF808FB00BF0B
:100570004DF808EDFFF7CEFF94BF012000205DF895
:1005800008FB00BF4DF808EDFFF7C4FF34BF0120A2
:1005900000205DF808FB00BF4FEA4102B2F1E043E2
:1005A00024BFB3F5001CDCF1FE5C0DD901F0004C5A
:1005B0004FEAC0024CEA5070B2F1004F40EB8300AA
:1005C00008BF20F00100704711F0804F21D113F1D6
:1005D0003872BCBF01F00040704741F480114FEA0F
:1005E0005252C2F11802C2F1200C10FA0CF320FA98
:1005F00002F018BF40F001004FEAC1234FEAD323B5
:1006000003FA0CFC40EA0C0023FA02F34FEA43031E
:10061000CCE77FEA625307D150EA01331EBF4FF0A7
:10062000FE4040F44000704701F0004040F0FE40C2
:1006300040F40000704700BF80F0004002E000BFBF
:1006400081F0004142001FBF5FEA410392EA030FBD
:100650007FEA226C7FEA236C6AD04FEA1262D2EB07
:100660001363C1BFD218414048404140B8BF5B420C
:10067000192B88BF704710F0004F40F4000020F0A5
:100680007F4018BF404211F0004F41F4000121F0BB
:100690007F4118BF494292EA030F3FD0A2F1010205
:1006A00041FA03FC10EB0C00C3F1200301FA03F143
:1006B00000F0004302D5494260EB4000B0F5000F66
:1006C00013D3B0F1807F06D340084FEA310102F125
:1006D0000102FE2A51D2B1F1004F40EBC25008BFD7
:1006E00020F0010040EA03007047490040EB0000A1
:1006F000013A28BFB0F5000FEDD2B0FA80FCACF1A2
:10070000080CB2EB0C0200FA0CF0AABF00EBC250CE
:1007100052421843BCBFD0401843704792F0000FBC
:1007200081F4000106BF80F400000132013BB5E70F
:100730004FEA41037FEA226C18BF7FEA236C21D085
:1007400092EA030F04D092F0000F08BF08467047EA
:1007500090EA010F1CBF0020704712F07F4F04D1B8
:10076000400028BF40F00040704712F100723CBFCB
:1007700000F50000704700F0004343F0FE4040F4F5
:10078000000070477FEA226216BF08467FEA2363B3
:100790000146420206BF5FEA412390EA010F40F49E
:1007A000800070474FF0000304E000BF10F00043EA
:1007B00048BF40425FEA000C08BF704743F09643D1
:1007C00001464FF000001CE050EA010208BF7047EC
:1007D0004FF000030AE000BF50EA010208BF704773
:1007E00011F0004302D5404261EB41015FEA010C88
:1007F00002BF84460146002043F0B64308BFA3F180
:100800008053A3F50003BCFA8CF2083AA3EBC25361
:1008100010DB01FA02FC634400FA02FCC2F1200280
:10082000BCF1004F20FA02F243EB020008BF20F0B7
:100830000100704702F1200201FA02FCC2F120021D
:1008400050EA4C0021FA02F243EB020008BF20EA12
:10085000DC7070474FF0FF0C1CEAD0521EBF1CEA40
:10086000D15392EA0C0F93EA0C0F6FD01A4480EA2E
:10087000010C400218BF5FEA41211ED04FF0006317
:1008800043EA501043EA5111A0FB01310CF0004043
:10089000B1F5000F3EBF490041EAD3715B0040EA69
:1008A000010062F17F02FD2A1DD8B3F1004F40EB39
:1008B000C25008BF20F00100704790F0000F0CF00C
:1008C000004C08BF49024CEA502040EA51207F3AD0
:1008D000C2BFD2F1FF0340EAC250704740F40000AB
:1008E0004FF00003013A5DDC12F1190FDCBF00F09C
:1008F00000407047C2F10002410021FA02F1C2F14A
:10090000200200FA02FC5FEA310040F1000053EAE5
:100910004C0308BF20EADC70704792F0000F00F033
:10092000004C02BF400010F4000F013AF9D040EA39
:100930000C0093F0000F01F0004C02BF490011F4CD
:10094000000F013BF9D041EA0C018FE70CEAD153CB
:1009500092EA0C0F18BF93EA0C0F0AD030F0004C4B
:1009600018BF31F0004CD8D180EA010000F00040FF
:10097000704790F0000F17BF90F0004F084691F0BD
:10098000000F91F0004F14D092EA0C0F01D14202F7
:100990000FD193EA0C0F03D14B0218BF084608D1C0
:1009A00080EA010000F0004040F0FE4040F400000A
:1009B000704740F0FE4040F4400070474FF0FF0C9D
:1009C0001CEAD0521EBF1CEAD15392EA0C0F93EAE4
:1009D0000C0F69D0A2EB030280EA010C49024FEA36
:1009E000402037D04FF0805343EA111143EA1013EF
:1009F0000CF000408B4238BF5B0042F17D024FF4A7
:100A0000000C8B4224BF5B1A40EA0C00B3EB510F81
:100A100024BFA3EB510340EA5C00B3EB910F24BF6A
:100A2000A3EB910340EA9C00B3EBD10F24BFA3EBEF
:100A3000D10340EADC001B0118BF5FEA1C1CE0D1B7
:100A4000FD2A3FF650AF8B4240EBC25008BF20F06A
:100A5000010070470CF0004C4CEA50207F32C2BFBE
:100A6000D2F1FF0340EAC250704740F400004FF05B
:100A70000003013A37E792F0000F00F0004C02BF8C
:100A8000400010F4000F013AF9D040EA0C0093F056
:100A9000000F01F0004C02BF490011F4000F013BB0
:100AA000F9D041EA0C0195E70CEAD15392EA0C0F18
:100AB00008D142027FF47DAF93EA0C0F7FF470AF50
:100AC000084676E793EA0C0F04D14B023FF44CAF93
:100AD00008466EE730F0004C18BF31F0004CCAD128
:100AE00030F000427FF45CAF31F000437FF43CAF64
:100AF0005FE700BF4FF0FF3C06E000BF4FF0010C86
:100B000002E000BF4FF0010C4DF804CD4FEA400267
:100B10004FEA41037FEA226C18BF7FEA236C11D0B1
:100B200001B052EA530C18BF90EA010F58BFB2EB64
:100B3000030088BFC81738BF6FEAE17018BF40F0E4
:100B4000010070477FEA226C02D15FEA402C05D198
:100B50007FEA236CE4D15FEA412CE1D05DF8040B1D
:100B6000704700BF844608466146FFE70FB5FFF7B0
:100B7000C9FF002848BF10F1000F0FBD4DF808ED68
:100B8000FFF7F4FF0CBF012000205DF808FB00BF59
:100B90004DF808EDFFF7EAFF34BF012000205DF8B3
:100BA00008FB00BF4DF808EDFFF7E0FF94BF012000
:100BB00000205DF808FB00BF4DF808EDFFF7D2FFFD
:100BC00094BF012000205DF808FB00BF4DF808ED40
:100BD000FFF7C8FF34BF012000205DF808FB00BF0D
:100BE0004FEA4002B2F1FE4F0FD34FF09E03B3EB3A
:100BF00012620DD94FEA002343F0004310F0004F7A
:100C000023FA02F018BF404270474FF000007047CF
:100C100012F1610F01D1420205D110F0004008BF6E
:100C20006FF0004070474FF00000704742000ED256
:100C3000B2F1FE4F0BD34FF09E03B3EB126209D417
:100C40004FEA002343F0004323FA02F070474FF0CD
:100C50000000704712F1610F01D1420202D14FF042
:100C6000FF3070474FF00000704700BF00F13401C3
:100C700091E838009C46A6464CF8045D90E8FF0FCA
:100C8000E54600BD90EC210B704700BF80EC210BC6
:100C9000704700BF90EC200B704700BF80EC200B2A
:100CA000704700BFD0EC200B704700BFC0EC200B9A
:100CB000704700BFF0EC0201F0EC0211F0EC0221F1
:100CC000F0EC0231F0EC0241F0EC0251F0EC026188
:100CD000F0EC0271F0EC0281F0EC0291F0EC02A178
:100CE000F0EC02B1F0EC02C1F0EC02D1F0EC02E168
:100CF000F0EC02F1704700BFE0EC0201E0EC021101
:100D0000E0EC0221E0EC0231E0EC0241E0EC0251C7
:100D1000E0EC0261E0EC0271E0EC0281E0EC0291B7
:100D2000E0EC02A1E0EC02B1E0EC02C1E0EC02D1A7
:100D3000E0EC02E1E0EC02F1704700BFB0FC0181A1
:100D4000B0FC0191B0FC01A1B0FC01B1704700BF43
:100D5000A0FC0181A0FC0191A0FC01A1A0FC01B1BB
:100D6000704700BFEC4600B52DE900502DE9FF1F8C
:100D70004FF000032DE90C0001A910F085F9DDF812
:100D800040E012B0704700BFEC4600B52DE90050BE
:100D90002DE9FF1F4FF000032DE90C0001A910F011
:100DA000B3F9DDF840E012B0704700BFEC4600B583
:100DB0002DE900502DE9FF1F4FF000032DE90C0035
:100DC00001A910F0C1F9DDF840E012B0704700BF92
:100DD000EC4600B52DE900502DE9FF1F4FF0000350
:100DE0002DE90C0001AB10F083F9DDF840E012B002
:100DF000704700BFEC4600B52DE900502DE9FF1FFC
:100E00004FF000032DE90C0001AA10F0FBF9DDF80A
:100E100040E012B0704700BF80EA010C1CF0030FE5
:100E200037D110F0030C20F0030021F0030150F83B
:100E3000042B08BF51F8043B0ED08CF0030C6FF06C
:100E40007F434FEACC0C23FA0CFC51F8043B42EAF6
:100E50000C0243EA0C0300BFA2F1013C9A4201BF1D
:100E60002CEA020C1CF0803F50F8042B51F8043B94
:100E7000F2D04FEA02604FEA1222012828BFB0EBFD
:100E8000036F08BF1B0AF4D003F0FF03000EC01A63
:100E9000704710F0030F0AD010F8012B11F8013B36
:100EA000012A28BF9A42F4D0A2EB030070474DF804
:100EB000045D50F8042B01F0030521F0030151F803
:100EC000043B022D26D04DD822F07F45B5EB132FE1
:100ED000A2F1013C2CEA020C0DD11CF0803C08BFB1
:100EE00051F8043B0AD185EA0205B5EB036F0CD13A
:100EF00050F8042BE8E74FEA13235BE03CF07F4C0B
:100F000054D10B784FEA126554E04FEA126503F0B2
:100F1000FF034FE04FEA0245A2F1013C4FEA1545BD
:100F20002CEA020CB5EB134F18D11CF0803C08BF23
:100F300051F8043B07D185EA0205B5EB034F09D10F
:100F400050F8042BE6E75FEA0C4C2FD10B884FEAF0
:100F500012452FE04FEA03434FEA12454FEA13438D
:100F600028E000BF02F0FF05B5EB136FA2F1013CD2
:100F70002CEA020C0DD11CF0803C08BF51F8043B58
:100F80000AD185EA0205B5EB032F0AD150F8042BEC
:100F9000E8E74FEA13630DE012F0FF0F06D051F8B7
:100FA000043B4FEA122523F07F4303E04FF000009B
:100FB00020BC704705F0FF0203F0FF00012828BFA6
:100FC000904204BF2D0A1B0AF4D0A2EB000020BC03
:100FD000704700BF844641EA000313F0030349D180
:100FE000403A23D30B6803604B6843608B6883608F
:100FF000CB68C3600B6903614B6943618B69836193
:10100000CB69C3610B6A03624B6A43628B6A83627A
:10101000CB6AC3620B6B03634B6B43638B6B836362
:10102000CB6BC36340304031403ADBD230320BD31C
:101030000B6803604B6843608B688360CB68C36058
:1010400010301031103AF3D20C3205D351F8043B72
:1010500040F8043B043AF9D2043208D0D2071CBF4E
:1010600011F8013B00F8013B01D30B880380604677
:10107000704700BF082A13D38B07B1D010F00303C9
:10108000AED0C3F10403D21ADB071CBF11F8013B39
:1010900000F8013BA4D331F8023B20F8023B9FE764
:1010A000043AD9D3013A11F8013B00F8013BF9D2D7
:1010B0000B7803704B7843708B7883706046704771
:1010C00070B54FF0FF0C4CF4E06C1CEA11541DBFDE
:1010D0001CEA135594EA0C0F95EA0C0F00F0DEF8A9
:1010E0002C4481EA030621EA4C5123EA4C5350EA8E
:1010F000013518BF52EA033541F4801143F48013DF
:1011000038D0A0FB02CE4FF00005E1FB02E506F06F
:101110000042E0FB03E54FF00006E1FB03569CF0C4
:10112000000F18BF4EF0010EA4F1FF04B6F5007FCA
:1011300064F5407404D25FEA4E0E6D4146EB06063C
:1011400042EAC62141EA55514FEAC52040EA5E50C5
:101150004FEACE2EB4F1FD0C88BFBCF5E06F1ED86F
:10116000BEF1004F08BF5FEA500E50F1000041EBA6
:10117000045170BD06F0004646EA010140EA020053
:1011800081EA0301B4EB5C04C2BFD4EB0C0541EA75
:10119000045170BD41F480114FF0000E013C00F38A
:1011A000AB8014F1360FDEBF002001F0004170BDAE
:1011B000C4F10004203C35DA0C341BDC04F11404C7
:1011C000C4F1200500FA05F320FA04F001FA05F253
:1011D00040EA020001F0004221F0004110EBD37020
:1011E00021FA04F642EB06015EEA430E08BF20EA4C
:1011F000D37070BDC4F10C04C4F1200500FA04F3EF
:1012000020FA05F001FA04F240EA020001F0004180
:1012100010EBD37041F100015EEA430E08BF20EAF3
:10122000D37070BDC4F1200500FA05F24EEA020E3B
:1012300020FA04F301FA05F243EA020321FA04F06A
:1012400001F0004121FA04F220EA020000EBD37021
:101250005EEA430E08BF20EAD37070BD94F0000F21
:101260000FD101F00046400041EB010111F4801F55
:1012700008BF013CF7D041EA060195F0000F18BF06
:10128000704703F00046520043EB030313F4801F42
:1012900008BF013DF7D043EA0603704794EA0C0FFC
:1012A0000CEA135518BF95EA0C0F0CD050EA410612
:1012B00018BF52EA4306D1D181EA030101F000418F
:1012C0004FF0000070BD50EA410606BF10461946B7
:1012D00052EA430619D094EA0C0F02D150EA0136C3
:1012E00013D195EA0C0F05D152EA03361CBF104604
:1012F00019460AD181EA030101F0004141F0FE41A3
:1013000041F470014FF0000070BD41F0FE4141F426
:10131000780170BD70B54FF0FF0C4CF4E06C1CEA26
:1013200011541DBF1CEA135594EA0C0F95EA0C0FDB
:1013300000F0A7F8A4EB050481EA030E52EA033596
:101340004FEA013100F088804FEA03334FF08055B7
:1013500045EA131343EA12634FEA022245EA1115E4
:1013600045EA10654FEA00260EF000419D4208BF95
:10137000964244F1FD0404F5407402D25B084FEA42
:101380003202B61A65EB03055B084FEA32024FF4EE
:1013900080104FF4002CB6EB020E75EB030E22BF4B
:1013A000B61A754640EA0C005B084FEA3202B6EB0B
:1013B000020E75EB030E22BFB61A754640EA5C00BA
:1013C0005B084FEA3202B6EB020E75EB030E22BF4A
:1013D000B61A754640EA9C005B084FEA3202B6EB4B
:1013E000020E75EB030E22BFB61A754640EADC000A
:1013F00055EA060E18D04FEA051545EA16754FEA6C
:1014000006164FEAC30343EA52734FEAC2025FEA89
:101410001C1CC0D111F4801F0BD141EA00014FF018
:1014200000004FF0004CB6E711F4801F04BF0143E9
:101430000020B4F1FD0C88BFBCF5E06F3FF6AFAE05
:10144000B5EB030C04BFB6EB020C5FEA500C50F195
:10145000000041EB045170BD0EF0004E4EEA113118
:1014600014EB5C04C2BFD4EB0C0541EA045170BD1F
:1014700041F480114FF0000E013C90E645EA060E63
:101480008DE60CEA135594EA0C0F08BF95EA0C0F91
:101490003FF43BAF94EA0C0F0AD150EA01347FF4D9
:1014A00034AF95EA0C0F7FF425AF104619462CE7B0
:1014B00095EA0C0F06D152EA03353FF4FDAE104613
:1014C000194622E750EA410618BF52EA43067FF464
:1014D000C5AE50EA41047FF40DAF52EA43057FF4F4
:1014E000EBAE12E74FEA410C7FEA6C5C02D150EAA6
:1014F000013C0AD14FEA430C7FEA6C5C02D152EA0C
:10150000033C02D14FF0000070474FF001007047DC
:101510004FEA410212F5001215D211D56FF478731B
:10152000B3EB625212D94FEAC12343F0004343EABE
:10153000505311F0004F23FA02F018BF4042704799
:101540004FF00000704750EA013005D111F0004023
:1015500008BF6FF0004070474FF00000704700BFB9
:101560000348044B834202D0034B03B11847704732
:101570007809002078090020000000000548064B8B
:101580001B1AD90F01EBA301491002D0034B03B181
:1015900018477047780900207809002000000000F3
:1015A00010B5064C237843B9FFF7DAFF044B13B1AB
:1015B0000448AFF300800123237010BD7809002098
:1015C000000000008C84010808B5054B1BB10549DB
:1015D0000548AFF30080BDE80840FFF7CFBF00BF6C
:1015E000000000007C0900208C84010800B585B053
:1015F00000230193029303931148124A026083600F
:10160000037303754FF46022C261436001230361D9
:1016100006F0F0FA68B91023019301230293002326
:10162000039301A9064806F05FF928B905B05DF8F3
:1016300004FB05F0D2FEEEE705F0CFFEF6E700BFB3
:1016400094090020002401400268094B9A4200D00E
:10165000704782B003F56C439A6942F400729A6154
:101660009B6903F400730193019B02B0704700BFB4
:10167000002401400048704738000020F8B50D46AE
:1016800014461E460F6811463846FFF777FA50B9E0
:1016900021463846FEF7D4FF20F000400C49FFF702
:1016A00077FA08B12C60F8BD39462046FEF7C8FF2E
:1016B000044631460748FEF7C3FF01462046FFF7C0
:1016C0007DF901463846FEF7BDFF2860EBE700BF15
:1016D0009A99193E0000C84208B503F01BFC036844
:1016E000DB69984708BD08B503F014FC03681B6A62
:1016F000984708BD10B5044603F00CFC03685B6A0C
:101700002146984710BD10B5044603F003FC03685A
:101710009B6A2146984710BD10B5044603F0FAFBBA
:1017200003681B6B2146984710BDF8B504460D466B
:10173000164603F0EFFB03689F6B33462A462146AB
:10174000B847F8BDF8B504460D46164603F0E2FB6F
:1017500003689F6C33462A462146B847F8BDF8B562
:1017600004460D46164603F0D5FB0368DF6C33468E
:101770002A462146B847F8BDF0B583B004460D4669
:1017800016461F4603F0C6FB036800975F6D33469D
:101790002A462146B84703B0F0BD08B503F0BAFBAE
:1017A00003685B6F984708BD10B584B0844601910B
:1017B00044680368E31A98106FF0604EAEEBA30321
:1017C0008B4210D30390814210D803AB1B6818449E
:1017D000DCF80030E41AB0EBA40F09D3B0F1005FDD
:1017E00009D204B010BD104608F08CFF01ABEDE744
:1017F0006FF06040F5E76FF06040F2E74068043852
:10180000704710B485B000230193029303930468DA
:1018100001944268029283680393D1F800C0C0F833
:1018200000C0D1F804C0C0F804C0D1F808C0C0F8A6
:1018300008C00C604A608B6005B010BC704708B5EA
:101840000846114607F054FD08BD08B5034653F895
:10185000081B994203D082680132FFF7F0FF08BDF0
:1018600010B50446FFF7F1FF204610BD136801E0F4
:1018700040F8043B8142FBD1704708B5084691000F
:1018800007F036FD08BD10B5044601688268521A9B
:1018900011B19210FFF7F1FF204610BD10B50446BC
:1018A000FFF7F1FF204610BD08B5B1F1005F03D28C
:1018B000880008F099FA08BDB1F1804F01D308F013
:1018C000F9FE08F0E7FE38B504460D4641B10022A6
:1018D000FFF7EAFF2060606000EB8500A06038BD84
:1018E0000020F7E770B5B1F1005F0ED205460C4657
:1018F00016460023036043608360FFF7E4FF2B6814
:101900006CB103EB8404326804E0064808F0FAFE88
:1019100043F8042B9C42FBD16C60284670BD1C46EA
:10192000FAE700BF8886010870B584B005460C460A
:101930001646836800681B1AB1EBA30F09D86968C3
:101940000B1AB4EBA30F11D86CB300EB840413682B
:1019500022E02B4601A8FFF7C5FF294601A8FFF7A3
:1019600050FF01A8FFF78FFF04B070BDFFF77EFFA7
:101970006B682A689A1AB4EBA20209D003EB8202C0
:10198000316801E043F8041B9A42FBD16A60EBE73F
:101990001A46FBE740F8043B8442FBD16B68A34244
:1019A000E2D06C60E0E70446F8E700002DE9F84F6C
:1019B00005468A4693461E4A0121FFF7F5FED5F8F3
:1019C00000806F68AAEB0804814618B30022014624
:1019D0002846FFF769FF0646DBF800303351002C3C
:1019E0001ADC04343444A7EB0A07002F1ADC3C4409
:1019F000AA68A2EB08029210B8F1000F03D041468A
:101A00002846FFF73AFF2E606C6006EB8906AE6051
:101A1000BDE8F88F0026DFE722464146304611F048
:101A20001FFADEE73A465146204611F019FADEE782
:101A3000BC86010810B5044643688268934208D00A
:101A40000A681A604368043343602046FFF7D6FEF5
:101A500010BD0A461946FFF7A9FFF6E72DE9F04F3A
:101A600087B081462AE2B24808F07CF9002800F0ED
:101A70003682B04AB049B14807F0B6FBAC4808F02E
:101A800091F92CE2AE4808F06DF9002800F02F82A1
:101A9000A84AA949AB4807F0A7FBA94808F082F972
:101AA00025E2A94808F05EF9002800F02882A14A42
:101AB000A149A64807F098FBA34808F073F91EE275
:101AC000A34808F04FF9002800F02182994AA14963
:101AD000A14807F089FB9E4808F064F917E29F4887
:101AE00008F040F9002800F01A82924A99499C486F
:101AF00007F07AFB994808F055F910E203F00AFA6A
:101B000004799548FFF7FFFD201A00EBD0704010D4
:101B1000FEF74CFE934B1860934808F043F912E22D
:101B200003F0F8F904798E48FFF7EDFD201A00EB79
:101B3000D0704010FEF73AFE8C4B18608C4808F0CD
:101B400031F911E28B4808F00DF9002800F01882F5
:101B5000D5F8A4100020FEF773FD4FF07E51FEF77C
:101B60006FFD854B1860834808F01CF908E2834834
:101B700008F0F8F8002800F00B82D5F8A810002033
:101B8000FEF75EFD4FF07E51FEF75AFD7C4B18606C
:101B90007A4808F007F9FBE17A4808F0E3F80028F2
:101BA00000F0FE8103F0B6F94079C043FEF7FEFD78
:101BB000754B1860734808F0F5F8F1E15F4B1A684F
:101BC0005B68934201D05D4B5A605E4B1A685B685C
:101BD000934201D05B4B5A605C4B1A685B689A4237
:101BE00001D05A4B5A60002669E0FFF7D6FDC0EBE2
:101BF000C00010F08BFAD5F8A0100020FEF720FDF1
:101C00004FF07E51FEF71CFD029002A94B48FFF7F2
:101C100011FF10F083FA044603F07CF990F8058078
:101C2000D5F8A0000146FEF70DFD07464046FEF739
:101C3000BDFD3946FEF704FD4FF08041FEF700FD83
:101C40004FF07E51FEF7FEFCFEF7F0FF80B294FBF2
:101C5000F0F300FB13400130FEF7A8FD039003A949
:101C60003848FFF7E7FE10F059FA044603F052F93E
:101C700090F80480D5F8A0000146FEF7E3FC074683
:101C80004046FEF793FD3946FEF7DAFC4FF08041FF
:101C9000FEF7D6FC4FF07E51FEF7D4FCFEF7C6FFF0
:101CA00080B294FBF0F300FB13400130FEF77EFDA1
:101CB000049004A92548FFF7BDFE0136F6B295F859
:101CC000AC30B34291D8314B01221A7075E103F068
:101CD00021F94079C043FEF769FD2D4B186095F856
:101CE000AC40D5F8A0100020FEF7AAFC4FF07E51C2
:101CF000FEF7A6FC059005AA21461248FFF714FE40
:101D0000D5F8A4100020FEF79BFC4FF07E51FEF7A3
:101D100097FC204B1860D5F8A8100020FEF790FC27
:101D20004FF07E51FEF78CFC1B4B186062E100BF48
:101D3000200A0020000000209D180008240A00202E
:101D4000100A0020140A0020000A0020040A0020C3
:101D5000FC090020611800081C000020F809002080
:101D600004000020F4090020F0090020EC09002004
:101D7000E8090020E0090020E4090020D80900203B
:101D8000DC090020C8090020CC090020320A00200C
:101D9000C4090020D4090020D0090020BA4F3B68B4
:101DA0004FEA840AD5F8A080414653F82400FEF794
:101DB00047FCB64E336853F824B04FF07E51FEF71F
:101DC0003FFC42465946FFF7CAFC3B683268D5F8EB
:101DD000A0B052F824804FF0804153F82400FEF761
:101DE00031FC5A464146FFF7BAFCD7F800B03368D9
:101DF000D5F8A080414653F82400FEF721FC4FF0AF
:101E00007E51FEF71DFC014642465BF82400FFF7B9
:101E100099FC3F683368D5F8A0804FF0804153F8B3
:101E20002400FEF70FFC0146424657F82400FFF756
:101E300089FC3168964B1A68AB6A52F824205144E9
:101E400001A8FFF71BFC0134E4B295F8AC30A342C3
:101E5000A4D8D5F8B000FFF74DFC8E4E3168D5F808
:101E6000A400FEF7EFFB01468B4A8C4B1868FFF786
:101E70005CFCD5F8B400FFF73DFC894C2168D5F82F
:101E8000A800FEF7DFFB0146864A874B1868FFF77C
:101E90004CFCAB6A854A1268314601A8FFF7EEFB9D
:101EA000AB6A834A1268214601A8FFF7E7FBFFF7F8
:101EB00013FC804B1B884B4580F0D5807E4B1B78F4
:101EC000002B00F024817B4A1388013313807B4B65
:101ED0001B68BFF35B8F13F0010F3FF4C4AD784B69
:101EE0001B68BFF35B8F13F0010F3FF4CBAD754B55
:101EF0001B68BFF35B8F13F0010F3FF4D2AD724B41
:101F00001B68BFF35B8F13F0010F3FF4D9AD6F4B2C
:101F10001B68BFF35B8F13F0010F3FF4E0ADFFF7D9
:101F2000A9FB0546D0F8B000FFF7E4FB684B1B683F
:101F3000BFF35B8F13F0010F05D1654807F012FF67
:101F400000287FF4DBADD5F8B400FFF7D3FB614B7D
:101F50001B68BFF35B8F13F0010F05D15D4807F0DD
:101F600001FF00287FF4DCADD5F8B800FFF7C2FB15
:101F7000594B1B68BFF35B8F13F0010F3FF4E2ADC9
:101F8000564B1B68BFF35B8F13F0010F3FF4EFADAF
:101F9000534B1B68BFF35B8F13F0010F3FF4FCAD95
:101FA000444B1B884B45BFF492AE4E4B00221A6047
:101FB0004D4B1B78002B3FF401AE02F0ABFF46798E
:101FC00076084FF07C51D5F8A400FEF743FC044698
:101FD0003046FEF7EBFB2146FEF732FB334B186031
:101FE000D5F8A810FEF72CFB4FF08141FEF728FB37
:101FF0002F4B1860FFF777FB0020FFF78DFB3B4C62
:10200000D4F8008002F086FF0079FEF7CBFB06468D
:1020100002F080FF4079FEF7C5FB034600273246F9
:1020200041463846FFF7A8FBAB6A2E4A12682146A4
:1020300001A8FFF723FB0120FFF76EFB02F06AFF08
:102040004079FEF7B3FB2168FEF7FCFA044602F084
:1020500061FF0079FEF7A6FB024621463846FFF7EE
:102060007EFB0024F1E602F055FF4079C043FEF705
:102070009DFB1E4B1968FEF781FD00283FF41EAF43
:102080000D4B00221A7019E7040A0020240A0020D0
:10209000140A0020E40900201C000020F40900209C
:1020A000DC09002004000020EC090020D4090020F5
:1020B000D0090020300A002034000020200A00202F
:1020C000100A0020000A0020FC090020F809002066
:1020D000F0090020E8090020E0090020D8090020CC
:1020E000C8090020C4090020320A0020CC090020C1
:1020F000084807F053FE07F0FDF8074807F04EFECA
:1021000007F0F8F8054807F049FE07F0F3F807B0C4
:10211000BDE8F08FF0090020E8090020C809002080
:10212000F8B504460D46164602F0F4FE0368DF6B70
:1021300033462A462146B847F8BD10B5044602F09A
:10214000E9FE03689B6E2146984710BD08B5024B17
:10215000186802F075FDFAE76C0A002008B5081E41
:1021600002DB07F041FE08BD08F094FAF8B5541AF6
:102170000CD405460E4664B100222146FFF7EEFF5F
:1021800028600719AF6034B96F60F8BD044808F0E3
:10219000B9FA0020F4E72246314610F061FEF3E779
:1021A0008886010808B5012A03D022B1FEF712FF84
:1021B00001E00B78037008BD08B50846114607F02A
:1021C00097F808BD10B5044601688268521A09B133
:1021D000FFF7F2FF204610BD10B582B0044602ABF7
:1021E00003E9060000230360436083600A44FFF7AD
:1021F000BDFF04E02046FFF7E5FF07F07BF820462F
:1022000002B010BD10B50446FFF7DCFF204610BD3C
:1022100008B5081E02DB07F0E7FD08BD08F03AFA32
:1022200010B50B68002B0EDB934206D95400B3EBBC
:10223000420F02D20C60002C08DB09680022013139
:10224000FFF7E6FF10BD034808F05CFA6FF00043AB
:102250000B60F2E7D886010870B582B004460E46DE
:10226000551A01950F2D0DD800942A463146206845
:10227000FFF798FF00220092019B63602168CA5417
:1022800002B070BD002201A9FFF7CAFF2060019BC8
:10229000A360E9E738B500F10803036069B10446BB
:1022A0000D46084611F024F84FF000032A1829467D
:1022B0002046FFF7D1FF204638BD014808F00AFA52
:1022C000F086010870B5C0B0A42007F08DFD04466B
:1022D000B24B03608023037140234371B04B836092
:1022E00000218181AF4B40F8103B942210F036FE64
:1022F000204602F0BBFE4FF4AF70FFF71EFF4FF415
:102300007A70FFF7ABFBA84B1D684FF4A07007F085
:102310006BFD044607AAA54901A8FFF7BBFF08E02B
:10232000012525B14FF4A071204606F0E1FF06F02B
:10233000E1FF9F4A01A9204601F0F2FD214628460F
:1023400001F0DAFB04E0002501A8FFF77EFAE8E7D8
:1023500001A8FFF77AFA944B1D684FF4A07007F0BC
:1023600043FD04460EAA934908A8FFF793FF08E02F
:10237000012525B14FF4A071204606F0B9FF06F003
:10238000B9FF8D4A08A9204601F0CAFD214628461A
:1023900001F0B2FB04E0002508A8FFF756FAE8E7D1
:1023A00008A8FFF752FA804B1D684FF4A07007F0A1
:1023B0001BFD044615AA81490FA8FFF76BFF08E033
:1023C000012525B14FF4A071204606F091FF06F0DB
:1023D00091FF7B4A0FA9204601F0A2FD2146284625
:1023E00001F08AFB04E000250FA8FFF72EFAE8E7CA
:1023F0000FA8FFF72AFA734C21686B4B186801F09D
:102400007BFB25684FF4A07007F0EEFC04461CAA85
:102410006D4916A8FFF73EFF08E0012525B14FF4EE
:10242000A071204606F064FF06F064FF16A920465E
:1024300001F064FC2146284601F05EFB04E0002523
:1024400016A8FFF702FAE9E716A8FFF7FEF95D4BB9
:102450001E684FF4A07007F0C7FC044623AA5B492E
:102460001DA8FFF717FF08E0012525B14FF4A07163
:10247000204606F03DFF06F03DFF1DA9204601F075
:102480003DFC04E001251DA8FFF7DFF9EDE7E4209E
:1024900007F0AAFC05464E4902F0CCF801E0002501
:1024A000F1E72A462146304601F0A6FB01E000256F
:1024B000E9E71DA8FFF7C9F9424B1D684FF4A0706A
:1024C00007F092FC04462AAA424924A8FFF7E2FE3C
:1024D00008E0012525B14FF4A071204606F008FF61
:1024E00006F008FF24A9204601F008FC21462846F2
:1024F00001F002FB04E0002524A8FFF7A6F9E9E7B4
:1025000024A8FFF7A2F92F4B1D684FF4A07007F025
:102510006BFC044631AA30492BA8FFF7BBFE08E04C
:10252000012525B14FF4A071204606F0E1FE06F02A
:10253000E1FE2BA9204601F0E1FB2146284601F0EF
:10254000DBFA04E000252BA8FFF77FF9E9E72BA8C9
:10255000FFF77BF91B4B1D684FF4A07007F044FC9C
:10256000044638AA1D4932A8FFF794FE08E0012569
:1025700025B14FF4A071204606F0BAFE06F0BAFE6F
:1025800032A9204601F0BAFB2146284601F0B4FAF0
:1025900026E0002532A8FFF758F9E9E7608901082D
:1025A00000007F43C09D0108680A002024870108BD
:1025B0005C0A00202C870108500A0020348701089B
:1025C000440A0020340A002044870108508701088B
:1025D000080100205C8701086C87010884870108D6
:1025E00032A8FFF732F9224B1D684FF4A07007F0B4
:1025F000FBFB04463FAA1F4939A8FFF74BFE08E042
:10260000012525B14FF4A071204606F071FE06F0B9
:1026100071FE39A9204601F071FB2146284601F0E0
:102620006BFA04E0002539A8FFF70FF9E9E739A8AC
:10263000FFF70BF9104B1968104B186802F002FAFB
:1026400040B070BD01257FE60125A5E60125CBE65A
:102650000125F5E6E421284606F04AFE002512E7AA
:10266000012549E701256EE7012593E70125DAE712
:10267000340A00209C870108680A00206C0A0020A8
:10268000012800D070474FF6FF739942FAD12DE927
:10269000F041B8B0182007F0A7FB002303604360A7
:1026A0008360C360036143614D4B18604FF4A870B1
:1026B00007F09AFB044624AA4A491EA8FFF7EAFD40
:1026C0001EA9204601F076FB474B1C601EA8FFF7B1
:1026D000BCF8464F7824224639466846FEF77AFC15
:1026E000CDF894D02694DFF8088127AB22466946BE
:1026F0004046FFF771FD3F4E3F4D3246294640466A
:1027000006F072FD224639196846FEF763FCCDF8E3
:10271000A0D02994DFF8E4802AAB224669464046DF
:10272000FFF75AFD32462946404606F05DFD224637
:1027300007F1F0016846FEF74DFCCDF8ACD02C94C3
:10274000DFF8BC802DAB224669464046FFF744FDCA
:1027500032462946404606F047FD224607F5B47149
:102760006846FEF737FCCDF8B8D02F94254C30AB37
:10277000782269462046FFF72FFD3246294620463B
:1027800006F032FD4FF4A07007F02EFB044637AA86
:102790001D4931A8FFF77EFD1A4A31A9204601F0F4
:1027A000BFFB1A4B1C6031A8FFF74FF838B0BDE8EB
:1027B000F0811EA8FFF749F84FF4A871204606F0F3
:1027C00097FD06F097FDF7E731A8FFF73EF84FF4C5
:1027D000A071204606F08CFD06F08CFDF7E700BFE7
:1027E0006C0A0020B4870108680A0020A884010848
:1027F0005C0A00200000002005220008500A00208A
:10280000440A0020380A0020BC870108340A00204E
:1028100008B54FF6FF710120FFF732FF08BD000039
:1028200030B53E4901603E4A42603E4A82603E4ABF
:10283000C26002613D4C44613D4C84613D4CC461C9
:102840003D4C046241628262012180F82C1080F8C4
:102850002D1080F82E1080F82F1080F830100022F4
:1028600080F83120354D45634FF0824282634FF04E
:10287000814CC0F83CC04FF0834404644FF07C5E50
:10288000C0F844E0C0F848C04FF0804EC0F84CE0BB
:1028900080F850102A4941658165C2650266294960
:1028A0004166C0F868C02849C16602672749416788
:1028B000C0F878E0C5672649C0F880102549C0F8FF
:1028C0008410C0F88810C0F88C20C0F89040C0F880
:1028D00094C0C0F898E02049C0F89C10C0F8A0E06F
:1028E0001E49C0F8A410C0F8A820102180F8AC1030
:1028F0001B49C0F8B0101B49C0F8B410C0F8B8109C
:10290000C0F8BC20C0F8C020C0F8C4C0164AC0F847
:10291000C8204FF07E52C0F8CC2030BD0000A0424D
:10292000000082420000504200008C4200005C42E5
:102930000000C841000070410000C8420000A040F3
:102940000000F0410000C040000090410000404104
:1029500000004040000010420000B442000060410E
:10296000008A01085492010800002041F8B505468C
:102970000C46164601682046FDF762FE20F0004036
:102980004FF07E51FEF70EF988B92F682146384680
:10299000FEF7F4F850B921463846FDF751FE20F015
:1029A00000400D49FEF7F4F818B12C60F8BD2C601A
:1029B000EBE739462046FDF743FE0446314607481B
:1029C000FDF73EFE01462046FDF7F8FF014638467A
:1029D000FDF738FE2860E9E79A99193E0000C842E1
:1029E00070B504460D46164680230370402343709D
:1029F0000D4B43600830FFF713FF002384F8E830E5
:102A000029460020FDF71CFE0546C4F8D8003146D3
:102A10000020FDF715FEC4F8DC00C4F8E050C4F84F
:102A2000E400204670BD00BF00007F432DE9F04761
:102A300004460E461546D0F8E0100020FDF700FED3
:102A40008046D4F8E4100020FDF7FAFD07464FF069
:102A5000010931464046FEF7B9F808B94FF00009C0
:102A60004FF0010A29463846FEF7B0F808B94FF092
:102A7000000A49EA0A0919F0FF0F2ED12078FDF764
:102A800095FE4146FDF7DEFD4FF07E51FDF7D8FD86
:102A900080466078FDF78AFE3946FDF7D3FD4FF09A
:102AA0007E51FDF7CDFD07464FF00104314640460B
:102AB000FEF76EF808B94FF000044FF00106294602
:102AC0003846FEF765F808B94FF00006344314F0B5
:102AD000FF0F04D10020BDE8F0870120FBE70220B2
:102AE000F9E770B504461646012380F8E830002067
:102AF000FDF7A6FD0546E26A014604F1E000FFF796
:102B000035FF31460020FDF79BFD0646E26A01468F
:102B100004F1E400FFF72AFFD4F8E0102846FEF79E
:102B20002DF840B1D4F8E4103046FEF727F810B184
:102B3000002384F8E83070BD70B504460D46244B80
:102B40001B68BFF35B8F13F0010F28D0012384F8BB
:102B5000E83055B11F4B1B78B5FBF3F203FB125263
:102B600012F0FF0F2FD1B5FBF3F5607805FB00F0F5
:102B7000FDF71CFE024600212046FFF7B2FFD4F805
:102B8000E460607805FB00F0FDF710FE014630467A
:102B9000FDF7F4FF10B1002384F8E83070BD0C4855
:102BA00007F0E0F80028D1D0A66C6078FDF7FEFDB4
:102BB0003146FDF703FFFEF739F8064B187004485D
:102BC00007F0F0F8C2E7B5FBF3F3DDB2CDE700BFE5
:102BD000740A0020780A0020F8B504460D46012347
:102BE00080F8E8300B681E685F683A463146FFF7A8
:102BF0001DFF012819D03A4631462046FFF716FF3F
:102C0000022816D03B4B1B78012B16D0394B1B7872
:102C1000022B34D02B685A6819682046FFF706FF4C
:102C200010B9002384F8E830F8BD324B01221A7045
:102C3000E1E7304B02221A70E4E73A46314620467B
:102C4000FFF74FFFD4F8E0702E6831680020FDF7E1
:102C5000F7FC01463846FDF791FF0028D6D0D4F89E
:102C6000E47071680020FDF7EBFC01463846FDF783
:102C700085FF0028CAD01F4B00221A70C6E72F68B4
:102C80007968A06CFDF7DEFC06466078FDF78EFDE6
:102C900001463046FDF7D4FC024639682046FFF76E
:102CA00020FFD4F8E0702E6831680020FDF7C8FCE2
:102CB00001463846FDF762FF0028ABD0D4F8E47037
:102CC0007168A06CFDF7BEFC06466078FDF76EFDEE
:102CD00001463046FDF7B4FC01460020FDF7B0FC8C
:102CE00001463846FDF74AFF002893D0014B0022E9
:102CF0001A708FE7700A0020F8B50446012380F8A7
:102D0000E8300846FDF752FD0546616EE06DFDF7BF
:102D100099FC014600262846FDF79CFD01463246F7
:102D20002046FFF7DEFED4F8E070616EE06DFDF73F
:102D300089FC01462846FDF78DFD01463046FDF72A
:102D40007FFC01463846FDF719FF10B1002384F8D7
:102D5000E830F8BDF0B583B005460E4647680197E8
:102D6000084610F0C5FA04460090B8420AD301ABF9
:102D70001A6828681AB1314610F042F800B9381BB9
:102D800003B0F0BD6B46F3E7F0B591B006460C46D4
:102D900017460B681B6801A898471B4901A8FFF755
:102DA000D9FF054601A8FEF750FDB5B996F8583091
:102DB0006BB1012B1FD1394607A801F095FB07A97C
:102DC0003046FFF709FF07A8FEF75DFD13E094F812
:102DD0002C113046FFF7B0FE0DE023681B6821463A
:102DE0000AA8984709490AA8FFF7B4FF05460AA8A8
:102DF000FEF72BFD0DB111B0F0BD94F82C1130464B
:102E0000FFF77AFFF7E700BFC8870108D0870108FE
:102E10002DE9F041571A0F4B9F4216D804460D4634
:102E20001646B910A1B10022FEF73EFD206000EB6E
:102E30000708C4F80880B54203D03A46294610F086
:102E40000FF8C4F80480BDE8F081034807F05AFC8D
:102E50000020EBE7FCFFFF7F8886010810B582B0F9
:102E6000044602AB03E9060000230360436083606D
:102E700001EB8202FFF7CCFF04E02046FEF703FDE2
:102E800006F038FA204602B010BD10B586B00446F0
:102E9000D1F8E0300393D1F8E430049303AB01930D
:102EA0000223029305AB01AA06CAFFF7D7FF20460B
:102EB00006B010BD004870470C01002070477047F5
:102EC00070472DE9F04706468946D0F81431D0F80E
:102ED0001881002404E0C5F8E4000134E4B23B1D8D
:102EE0001F4698451CD01D68B36CC5F8DC30C5F88A
:102EF000E030D6F84CA02046FDF758FC5146FDF7CF
:102F0000A9FCC5F8E80096F83930002BE3D0D9F8D1
:102F10000030F16C5868FDF793FBC5F8E400DCE77E
:102F2000BDE8F08770B504460579066C2846FDF7C4
:102F30003DFC3146FDF784FBC4F83C0194F8393080
:102F400043B10023C4F830312846FDF72BFCC4F808
:102F5000380170BDD4F83431C4F83031F4E72DE9CC
:102F6000F04F83B004468B46D0F81431D0F818A146
:102F7000002505E0C6F8DC000135EDB209F10403D7
:102F800099469A4535D01E680023C6F8E430277963
:102F90007F08D4F860804FF07C514046FDF75AFC22
:102FA00001903846FDF702FC0199FDF749FB074601
:102FB000A16E4046FDF746FB80462846FDF7F6FB2E
:102FC0004146FDF747FC01463846FDF73BFBC6F896
:102FD000E000E36EC6F8E83094F83830002BC9D032
:102FE000DBF80030216E1868FDF72AFBC6F8DC001C
:102FF000C2E703B0BDE8F08F70B504460023C0F807
:103000003C3146793046FDF7D1FB0546E16FFDF7CF
:1030100017FBC4F84401A16F2846FDF711FBC4F863
:103020004C0194F838308BB10023C4F8303130466D
:10303000FDF7B8FBC4F84001C4F84801D4F8841087
:103040000020FDF7FDFAC4F8380170BDD4F8343122
:10305000C4F83031EBE708B501F05CFF03681B6989
:10306000984708BD08B501F055FF03685B699847AC
:1030700008BD08B501F04EFF03689B69984708BD7D
:1030800038B504460D4601F045FF03685B6B2A46E0
:103090002146984738BDF8B504460D46164601F05E
:1030A00039FF03685F6C33462A462146B847F8BDAE
:1030B000F0B583B004460D4616461F4601F02AFFC0
:1030C0000368089A019200971F6D33462A462146ED
:1030D000B84703B0F0BD10B5044601F01BFF043043
:1030E00003C884E80300FFF7E5FE0146D02204F19F
:1030F0000800FDF76FFF10BD38B55C4B1B68BFF3D0
:103100005B8F13F0010F03D1584806F02BFEB8B9BE
:10311000FFF7A1FF0446FFF7CDFE0546006AFDF765
:1031200085FDFFF70AF895F83130002B56D0504B4B
:103130001B78013B032B4DD8DFE803F01E2C3C4AE3
:10314000FFF790FF0446FFF794FF00FB04F4E40050
:10315000484B1C70454806F025FED9E701339BB269
:10316000444A12789A4258D913F0010FF6D0E25C23
:1031700002F0AA02E254F1E70023F1E701339BB227
:103180003C4A12789A4248D913F0010FF6D0002237
:10319000E254F3E70023F3E701339BB2354A127898
:1031A0009A423AD913F0010FF6D1E25C02F05502CF
:1031B000E254F1E70023F1E701339BB22D4A127884
:1031C0009A422AD913F0010FF6D10022E254F3E714
:1031D0000023F3E7264B00221A701EE0244B1B78D5
:1031E000013B032B39D8DFE803F0101D2D360133E6
:1031F0009BB2204A12789A420FD913F0010FF6D0F1
:10320000E25C42F0AA02E254F1E70023F1E7013365
:103210009BB2184A12789A42F9D8154A13780133AA
:10322000137038BD0023F4E701339BB2114A1278C2
:103230009A42F2D913F0010FF6D1E25C42F0550246
:10324000E254F1E70023F1E701339BB2094A127817
:103250009A42F9D8E1E70023F8E7054B00221A70FB
:10326000DBE7024806F09AFD06F044F87C0A0020ED
:1032700009010020800A002008B5FFF73DFF08BDC6
:10328000D0F81831D0F81401181AC0F3870070472D
:103290002DE9F04F87B0044605910430FFF71BFF7E
:1032A0000120FEF739FAD4F81461D4F818310493E8
:1032B00022E056F8045BD5F8DCB0059B1F68D5F812
:1032C00004A1D4F86490D4F860807968E06EFDF7CA
:1032D000B9F9039039685846FDF7B4F9CDF800A064
:1032E0004B4642460399FFF7E3FEE268D5F8E0104B
:1032F00005F1DC00FFF73AFB049BB342D9D194F807
:103300002C010130FDF752FA05462079FDF74AFA03
:1033100006462046FFF7B4FFFDF748FA014630465F
:10332000FDF74CFB01462846FDF794FAC4F834013A
:103330004FF00008D4F88430D4F83021D4F8381194
:103340004046FEF719FA226FD4F84011606FFEF77D
:1033500006FA666F4FF07E51D4F84001FDF772F91E
:1033600005464FF07E513046FDF76CF92946FFF7D0
:1033700087FE666F4FF08041D4F84001FDF762F997
:1033800005464FF080413046FDF75CF92946FFF7CE
:1033900077FE666F4FF07E51D4F84001FDF750F98B
:1033A00005464FF07E513046FDF74CF92946FFF7B0
:1033B00067FE666F4FF08041D4F84001FDF740F999
:1033C00005464FF080413046FDF73CF92946FFF7AE
:1033D00057FE256F2079FDF7E9F92946FDF730F909
:1033E000D4F84061616FFDF72BF92A463146FEF7AC
:1033F000B6F92779266F4FF07E51D4F84001FDF7DA
:1034000021F905463846FDF7D1F93146FDF718F99F
:103410002946FFF735FE256F2079FDF7C7F92946C4
:10342000FDF70EF906464FF08041D4F84001FDF754
:1034300009F905464FF07E513046FDF701F929465E
:10344000FFF71EFE2779266F4FF07E51D4F840011A
:10345000FDF7F6F805463846FDF7A8F93146FDF7C1
:10346000EFF82946FFF70CFE256F2079FDF79EF94E
:103470002946FDF7E5F806464FF08041D4F84001B3
:10348000FDF7DEF805464FF07E513046FDF7D8F8DF
:103490002946FFF7F5FD434E4FF08041D4F8400137
:1034A000FDF7D0F801463246D4F89C00FEF757F9F4
:1034B000D4F89CA04FF08041D4F84001FDF7C2F849
:1034C0004FF08145DFF8E0902946FDF7B9F807464F
:1034D0004FF080415046FDF7B5F82B464A46394635
:1034E000FEF74AF9D4F89C702079FDF75FF9394668
:1034F000FDF7A6F882464FF08041D4F84001FDF771
:10350000A1F8074631465046FDF79AF8324639464B
:10351000FEF725F9D4F89C702079FDF747F9394674
:10352000FDF78EF83146FDF78BF807464FF08041E6
:10353000D4F84001FDF786F82946FDF781F80646E4
:103540004FF080413846FDF77DF82B464A4631461C
:10355000FEF712F92079FDF725F90246D4F8481153
:103560004046FFF798FDE268D4F84C1104F5A470CA
:10357000FFF7FCF9E268D4F8441104F5A070FFF7F6
:10358000F5F9E268D4F8341104F59870FFF7EEF914
:10359000E268D4F83C1104F59C70FFF7E7F907B036
:1035A000BDE8F08F000010410000A04090F82C21F1
:1035B000D0F8143153F822007047D0F8100170474A
:1035C00010B504468023037140234371154B83607B
:1035D0000C30FFF725F92246134B42F8DC3B002361
:1035E000C4F8DC3053609360D36004F1F402C4F893
:1035F000EC20C4F8F03084F8F430C4F80431C4F896
:103600000831C4F80C31C4F81431C4F81831C4F8C6
:103610001C31C4F82031C4F82431C4F828312046C4
:1036200010BD00BF00007F43608801080368406848
:10363000984214BF0020012070472DE9F04F85B05B
:1036400004468A460430FFF746FD0120FEF764F881
:10365000D4F81431D4F81821039244E057F8048BBD
:10366000D4F8D4602079FDF7A1F83146FCF7E8FFE3
:103670000646D4F8C890D4F8D010D5F8E400FCF78A
:10368000E1FF019049463046FCF7DAFF0146D8F8E1
:1036900000301E695346019A4046B047BB45DDD114
:1036A000D5F8DC90DAF80070616CD5F8E400FCF72E
:1036B000C9FFA16CFCF7C6FF05F1EC087968FCF7BF
:1036C000C1FF064639684846FCF7BCFF4246314612
:1036D000FEF726FD2269D5F8E81005F1E400FFF7B2
:1036E00045F9029B04330293039A9A420BD01D685A
:1036F00005F59070FFF79AFF0028D1D1D5F8207119
:10370000D5F824B1CAE794F82C010130FDF74EF842
:1037100005466079FDF746F806462046FFF7B0FDFE
:10372000FDF744F801463046FDF748F901462846C2
:10373000FDF790F8C4F83401266C00252079FDF7D8
:1037400035F83146FCF77CFF32462946FEF707F88C
:1037500094F80480276C60790138FDF727F8064655
:103760004046FDF723F83946FCF76AFF3A463146F2
:10377000FDF7F5FF94F804804FF07C51206CFDF7C5
:1037800069F8FCF729FE0DF07FFA06460F46404621
:10379000FCF710FE32463B46FCF7BEFC80468946ED
:1037A0006079FCF7FFFF064640464946FCF7F4FE09
:1037B00032462946FDF7C6FFD4F83031226C29463F
:1037C000D4F83801FDF7D8FF94F83D3083B9226969
:1037D000D4F8341104F59870FFF7C8F82269D4F8CA
:1037E0003C1104F59C70FFF7C1F805B0BDE8F08FFF
:1037F0000220FDF791FF26796079FCF7D3FF05469B
:103800003046FCF7CFFF024600202B460146FDF76D
:10381000B3FF0120FDF780FFD9E710B584B08446DF
:10382000019144680368E31A98106FF0604EAEEBA4
:10383000A3038B4210D30390814210D803AB1B68C3
:103840001844DCF80030E41AB0EBA40F09D3B0F14F
:10385000005F09D204B010BD104606F053FF01AB63
:10386000EDE76FF06040F5E76FF06040F2E710B50C
:1038700084B08446019144680368E31A98106FF09D
:10388000604EAEEBA3038B4210D30390814210D85D
:1038900003AB1B681844DCF80030E41AB0EBA40F4B
:1038A00009D3B0F1005F09D204B010BD104606F094
:1038B00029FF01ABEDE76FF06040F5E76FF0604086
:1038C000F2E738B515460C1A01D1281938BD224641
:1038D000014628460FF0C4FAF7E738B515460C1A2A
:1038E00001D1281938BD2246014628460FF0B8FA02
:1038F000F7E738B515460C1A01D1281938BD22460C
:10390000014628460FF0ACFAF7E708B5FFF7F1FFDC
:1039100008BD03680B440360704708B50846910072
:1039200005F0E6FC08BD10B5044601688268521A2D
:1039300011B19210FFF7F1FF204610BD08B50846FF
:10394000910005F0D5FC08BD10B5044601688268F9
:10395000521A11B19210FFF7F1FF204610BD00007E
:1039600010B50446094B036000F59070FFF7ECFFBB
:1039700004F58A70FFF7D7FF04F58270FEF722FC8A
:1039800004F1EC00FDF761FF204610BD60880108DE
:1039900010B582B0044601AA0249FEF77BFC20461E
:1039A00002B010BDD887010810B582B0044601AA44
:1039B0000249FEF76FFC204602B010BDD087010817
:1039C00010B582B0044601AA0249FEF763FC204606
:1039D00002B010BDC8870108884228D0F0B583B076
:1039E00004460D464E68034653F8082B934209D00F
:1039F0008268B24208D3A6B96660236800229A554D
:103A000003B0F0BD0F22F4E7019601A92046FEF7AE
:103A100007FC07462046FDF718FF2760019BA360BF
:103A2000E9E7324629682068FEF7BCFBE4E7704707
:103A300008B5B1F1005F03D2880006F0D5F908BDE2
:103A4000B1F1804F01D306F035FE06F023FE0000F1
:103A50002DE9F84F05468A4693461E4A0121FFF795
:103A6000DCFED5F800806F68AAEB0804814618B325
:103A7000002201462846FFF7DBFF0646DBF8003050
:103A80003351002C1ADC04343444A7EB0A07002F0E
:103A90001ADC3C44AA68A2EB08029210B8F1000FAD
:103AA00003D041462846FFF738FF2E606C6006EBD6
:103AB0008906AE60BDE8F88F0026DFE72246414662
:103AC00030460FF0CDF9DEE73A46514620460FF07A
:103AD000C7F9DEE7BC86010808B5436882689342EF
:103AE00005D00A681A6043680433436008BD0A467B
:103AF0001946FFF7ADFFF9E770B582B005460191B1
:103B00000C4601F59070FFF791FD064658B16CB177
:103B1000C4F8105101A905F58A70FFF7DDFF2B6885
:103B20009B6828469847304602B070BD0026FAE7E9
:103B300008B5B1F1005F03D2880006F055F908BD61
:103B4000B1F1804F01D306F0B5FD06F0A3FD0000F2
:103B50002DE9F84F05468A4693461E4A0121FFF794
:103B600086FED5F800806F68AAEB0804814618B37A
:103B7000002201462846FFF7DBFF0646DBF800304F
:103B80003351002C1ADC04343444A7EB0A07002F0D
:103B90001ADC3C44AA68A2EB08029210B8F1000FAC
:103BA00003D041462846FFF7C9FE2E606C6006EB45
:103BB0008906AE60BDE8F88F0026DFE72246414661
:103BC00030460FF04DF9DEE73A46514620460FF0F9
:103BD00047F9DEE7BC86010808B54368826893426E
:103BE00005D00A681A6043680433436008BD0A467A
:103BF0001946FFF7ADFFF9E730B583B001929AB1EE
:103C00000C46FFF779FF054610B9284603B030BDD2
:103C100001A904F59070FFF7DFFF0198C0F8DC40C0
:103C200003681B689847F0E70025EEE770B5154676
:103C30001C4639B10022FEF791FA0646621B03D1F9
:103C4000304670BD0026F9E7294630460FF008F9E6
:103C5000F6E700002DE9F04182B004460E46154615
:103C6000571A8368D0F80080A3EB08039F4218D945
:103C7000002F13DB13460A463946FFF7D7FF0546E8
:103C80002168A268521A11B12046FEF795FA256004
:103C90003D446560A56002B0BDE8F081164806F0BD
:103CA00031FD4368A3EB080297420BD82FB9474474
:103CB0006368BB42EFD06760EDE73A4640460FF0DD
:103CC000CFF8F4E7019101684FF00002591A01A8FA
:103CD000FFF71FFE226801993046FFF7FEFD666878
:103CE00001996D1A02D12E446660D4E72A46304607
:103CF0000FF0B6F8F7E700BF8886010830B587B047
:103D000004460D46FFF75CFC294B23600023C4F8F2
:103D10003031C4F83431C4F83831C4F83C31294664
:103D200004F1EC00FFF758FE01238DF8143005ADC7
:103D30000395049301AB03AA92E8030083E8030010
:103D40004FF000030DF11502294604F58270FFF7CC
:103D500081FF002384F82C31C4F81031D4F81431D9
:103D6000D4F81821934201D0C4F81831D4F8203186
:103D7000D4F82421934201D0C4F824310023C4F89C
:103D8000DC30C4F8E030C4F8E430C4F8E830C4F8FB
:103D90003031C4F83431C4F83831C4F83C312046ED
:103DA00007B030BD2046FFF7DBFD05F0A3FA00BFEA
:103DB0007888010830B587B004460D46FFF700FC4F
:103DC000264B23602022002104F598700FF0C6F8DE
:103DD000294604F1EC00FFF7FFFD01238DF81430B4
:103DE00005AD0395049301AB03AA92E8030083E8B1
:103DF00003004FF000030DF11502294604F582700F
:103E0000FFF728FF002384F82C31C4F81031D4F8D0
:103E10001431D4F81821934201D0C4F81831D4F8E1
:103E20002031D4F82421934201D0C4F82431002158
:103E3000C4F8DC10C4F8E010C4F8E410C4F8E810CA
:103E4000202204F598700FF089F8204607B030BDA5
:103E50002046FFF785FD05F04DFA00BF9088010868
:103E600038B515460C1A01D1281938BD224601462D
:103E700028460EF0F5FFF7E708B5FFF7F1FF08BD9C
:103E800008B5FFF7F9FF08BD70B515461E4651B1DC
:103E90000022FEF763F90446224631462846FFF722
:103EA000EFFF204670BD0024F6E770B5044681425E
:103EB00013D00D46496828680E1A2268A368A3EB40
:103EC000020CB4450BD36368A3EB020C664518D80B
:103ED000FFF71BFD236833446360204670BD0B462B
:103EE000024631462046FFF7CFFF05462168A2680B
:103EF000521A11B12046FEF75FF925603544A560DE
:103F0000E8E700EB0C01FFF7DCFC29686068236838
:103F1000C31A19446A68521ADCD00EF0A1FFD9E71F
:103F200070B504460E461546FFF74AFB204B23604A
:103F30000023C4F83031C4F83431C4F83831C4F83F
:103F40003C31314604F1EC00FFF746FD294604F50B
:103F50008270FFF7AAFF002384F82C31C4F81031D7
:103F6000D4F81431D4F81821934201D0C4F8183190
:103F7000D4F82031D4F82421934201D0C4F824315C
:103F80000023C4F8DC30C4F8E030C4F8E430C4F8EE
:103F9000E830C4F83031C4F83431C4F83831C4F8EA
:103FA0003C31204670BD2046FFF7DAFC05F0A2F94F
:103FB00078880108F0B583B004460D4616461F46C2
:103FC00000F0A8FF0368089A019200979F6D33469E
:103FD0002A462146B84703B0F0BD0000F0B58DB0C9
:103FE00004460D46FFF777F8D4F8D83083F82C5103
:103FF000D4F8D8100B681B68684698473C49684657
:10400000FEF7A8FE06466846FDF71FFC96BBD4F8EF
:10401000D870D7F8143153F82530D4F88860314679
:10402000D3F8E000FCF70CFBC4F8E000D7F814313B
:1040300053F825303146D3F8E800FCF701FBC4F80B
:10404000E80065782846FCF7ADFBC4F8FC00E66F95
:104050002846FCF7ABFB3146FCF7F2FAC4F8000146
:10406000D4F88C30C4F8F030D4F89030C4F8F8307C
:104070000DB0F0BDD4F8D8100B681B6806A898479F
:104080001C4906A8FEF766FE064606A8FDF7DDFBFE
:10409000002EEDD1D4F8D860D6F8143153F825307D
:1040A000216DD3F8E000FCF7CBFAC4F8E000D6F8B5
:1040B000143153F82530D3F8E830C4F8E830D6F896
:1040C000143153F82500EC30FDF71DFBFCF76AFBBB
:1040D0000546606C0146FCF7B5FA01462846FCF738
:1040E000B1FAC4F8F000A36CC4F8F830C0E700BF20
:1040F000D0870108C887010841B108B5C0F8D810B9
:1041000091F82C11FFF76AFF012008BD00207047CD
:104110002DE9F0438FB004460D46FEF7DCFF6269DF
:10412000D4F8E01004F1DC00FEF720FC2269D4F89A
:10413000E81004F1E400FEF719FCE269D4F8F81085
:1041400004F1F400FEF712FCA269D4F8F01004F1B7
:10415000EC00FEF70BFCD4F8D8100B681B6802A823
:104160009847CC4902A8FEF7F5FD064602A8FDF7E0
:104170006CFB9EB1D4F8D8100B681B6808A8984750
:10418000C54908A8FEF7E6FD064608A8FDF75DFB51
:10419000002E00F083810FB0BDE8F0832269D4F8CF
:1041A000001104F1FC00FEF7E1FB0120FDF7B4FA79
:1041B0002078FCF7FBFA0646D4F8D83093F82C2187
:1041C000D3F8143153F82200EC30FDF79CFAFCF7D9
:1041D000E9FA01463046FCF733FA8046D4F8D83085
:1041E00093F82C21D3F8143153F82270EC37D4F81B
:1041F0009410D4F8FC00FCF725FA06464FF07C51E9
:104200004046FCF727FB3A463146FDF789FF02207E
:10421000FDF782FAD4F8DC802F687968D4F8E400DE
:10422000FCF710FA064639684046FCF70BFA3146AF
:10423000FEF726FFD4F8DC90D5F80080D4F8E460CF
:104240004FF07E51D4F88400FCF7FCF90746D8F80B
:1042500004103046FCF7F6F90646D8F80010484638
:10426000FCF7F0F93A463146FDF779FAD4F8DC90DC
:10427000D5F80080D4F8E4604FF07E51D4F8840083
:10428000FCF7E0F90746D8F804103046FCF7DAF9F5
:104290000646D8F800104846FCF7D4F93A463146AD
:1042A000FDF750FAD4F8DC90D5F80080D8F8041067
:1042B000D4F8E400FCF7C6F9D4F8F410FCF7C2F91E
:1042C00006464FF07E51D4F88400FCF7BBF9074650
:1042D0004FF07E513046FCF7B3F90646D8F800108F
:1042E0004846FCF7AFF93A463146FDF738FAD4F8BC
:1042F000DC90D5F80080D8F80410D4F8E400FCF77E
:10430000A1F9D4F8F410FCF79DF9D4F8847039467B
:10431000FCF796F94FF07E51FCF792F90646D8F873
:1043200000104846FCF78EF93A463146FDF70AFA86
:104330002E683168D4F8DC00FCF784F9D4F8EC106E
:10434000FCF780F9D4F884804146FCF779F90746F8
:104350007168D4F8E400FCF775F906464FF07E5119
:104360003846FCF76DF942463146FDF7F8F92E68FC
:104370003168D4F8DC00FCF765F9D4F8EC10FCF7F0
:1043800061F98046D4F8E4904FF07E51D4F884006F
:10439000FCF758F9074671684846FCF753F906469A
:1043A0004FF07E514046FCF74BF93A463146FDF757
:1043B000C9F92E683168D4F8DC00FCF743F9D4F869
:1043C000EC10FCF73FF9D4F884804146FCF738F94B
:1043D00007467168D4F8E400FCF734F9D4F8F41017
:1043E000FCF730F94FF07E51FCF72AF906464FF002
:1043F0007E513846FCF724F942463146FDF7AFF9C5
:104400002E683168D4F8DC00FCF71CF9D4F8EC1005
:10441000FCF718F907467168D4F8E400FCF712F9C4
:10442000D4F8F410FCF70EF9D4F884804146FCF778
:1044300007F94FF07E51FCF703F906464FF07E5125
:104440003846FCF7FDF842463146FDF77BF92E6809
:104450003168D4F8DC00FCF7F5F8D4F8EC10FCF780
:10446000F1F805467168D4F8E400FCF7EBF8D4F8ED
:10447000F410FCF7E7F84FF07E51FCF7E1F8044642
:104480004FF07E512846FCF7DBF82146FEF7F8FD99
:1044900081E600BFD0870108C88701080220FDF728
:1044A0003BF9D4F8DC902F68D4F8E4504FF07E51FB
:1044B000D4F8F400FCF7C4F80646D4F8EC80796828
:1044C0002846FCF7BFF8054639684846FCF7BAF8B5
:1044D000E36C0093334642462946FFF76BFD01200B
:1044E000FDF71AF957E600BF10B586B00446D1F8BB
:1044F000E0300393D1F8E830049303AB0193022337
:10450000029305AB01AA06CAFEF7A8FC204606B036
:1045100010BD7047704700207047002070477047FB
:10452000704790F8E0301BB1012380F8E23070470B
:10453000002380F8E2307047704708B5E42104F0AA
:10454000D7FE08BDF0B583B004460D4616461F469B
:1045500000F0E0FC0368089A019200971F6E334652
:104560002A462146B84703B0F0BD2DE9F04F83B08D
:1045700004460E4615461F460430FEF7ACFD0120EA
:10458000FDF7CAF8D7F80090D4F8CCB0D4F8C8A09A
:10459000D9F804102846FCF755F88046D9F80010E1
:1045A0003046FCF74FF8D4F8D83000935B465246BB
:1045B0004146FFF7C7FF94F8E23013B903B0BDE8F6
:1045C000F08FD7F80080D8F800103046FCF73AF8A2
:1045D0000646D4F8C8A04FF07A515046FCF73AF995
:1045E0000746D8F804102846FCF72CF88146D4F882
:1045F000CC504FF07A512846FCF72CF904464FF086
:104600007C512846FCF726F980464FF07C515046F5
:10461000FCF720F9054621464846FCF713F8044606
:1046200039463046FCF70EF843462A462146FDF748
:10463000A3F8C3E738B504460D4680230371402331
:1046400043710D4B83600C30FEF7EAF80B4B23608F
:104650000B4B23602B7884F8E0304BB1012384F8B6
:10466000E230002384F8E130C4F8DC30204638BD65
:10467000002384F8E230F4E700007F43F08801086B
:104680001089010800487047E001002008B500F0DB
:1046900041FC0368DB6A984708BD00002DE9F04F34
:1046A0008DB00446059191463D4B1B68BFF35B8F6F
:1046B00013F0010F40F03481394805F053FB002816
:1046C00000F02E81D4E904233649C1E9002334489F
:1046D00005F068FB24E10598FDF715F8FCF766F88E
:1046E0000546FFF7CFFFD0F894000146FBF7AAFF7D
:1046F00001462846FBF7A6FF2B4B18602B4805F018
:1047000051FB25E1FFF7C2FFFCF750F80546FFF724
:10471000B9FFD0F894000146FBF794FF0146284604
:10472000FBF790FF224B1860224805F03BFB1CE191
:10473000214805F017FB002800F01F811C4B196869
:104740000020FBF77DFF4FF08241FBF779FF1B4B09
:104750001860194805F026FB0FE100F0DBFB4079FB
:10476000FCF724F8124B1968FBF76AFF1449FCF7B1
:1047700025F9144B186018E100F0CCFB0079FCF728
:1047800015F8094B1968FBF75BFF4FF07C51FCF7FC
:1047900061F80D4B18600D4805F004FB12E100BFF5
:1047A000A80A0020B00A0020A40A0020A00A0020C5
:1047B0009C0A0020980A0020900A0020940A0020F9
:1047C000000040408C0A0020880A0020840A002053
:1047D00006A8FDF758F8A568E16809A8FEF755FB9B
:1047E00009A92846FFF794FC09A8FDF74CF8A26830
:1047F0002168E068FEF7C8FA0020FCF78DFF864FBD
:104800004FF081413868FBF71BFF0290834E4FF059
:1048100081413068FBF714FF8046DFF804A24FF0B7
:104820008241DAF80000FBF70DFF0390DFF8F4B1E6
:104830004FF08241DBF80000FBF704FF0490FFF724
:1048400021FF05464FF08041D0F89800FBF7FAFEB3
:104850000090049B039A41460298FFF7ABFB0120AE
:10486000FCF75AFF4FF08041DBF80000FBF7EAFE4F
:1048700083464FF08041DAF80000FBF7E3FE824602
:104880004FF07E513068FBF7DBFE80464FF07E51E3
:104890003868FBF7D5FED5F8983000935B46524652
:1048A0004146FFF74FFED5F8948039684046FBF744
:1048B000C9FE074631684046FBF7C4FE8046FFF755
:1048C000E5FEFBF773FF4146FBF7BCFE0146059A88
:1048D0003846FCF72AFFFCF7FFFED5F89C20524B28
:1048E00019683046FEF742F8226963694F4801684B
:1048F0004068521A63EB00034A4573F100030FD37B
:10490000484B19680020FBF79BFE4FF08241FBF7F4
:1049100097FE3168FCF732F910B1454B00221A704E
:10492000434B1B78002B73D023696269013342F13A
:104930000002236162613F4B1B68BFF35B8F13F082
:10494000010F05D13B4805F00DFA00287FF4C3AEF6
:10495000394B1B68BFF35B8F13F0010F05D136484D
:1049600005F000FA00287FF4CDAE344B1B68BFF38E
:104970005B8F13F0010F3FF4DBAE226963692B48B4
:1049800001684068521A63EB00034A4573F1000363
:10499000FFF4E3AE234B19680020FBF751FE4FF004
:1049A0008241FBF74DFE204B1860254B1B68BFF37F
:1049B0005B8F13F0010F05D1214805F0D3F90028D2
:1049C0007FF4DAAEFCF78FFE25682B68DE68E168BD
:1049D00006A8FEF75AFA06A92846B047F8E6154891
:1049E00005F0DCF904F086FC134805F0D7F904F073
:1049F00081FC134805F0D2F904F07CFC06A8FCF712
:104A000042FF04F077FC09A8FCF73DFF04F072FCBC
:104A10000DB0BDE8F08F00BF880A0020940A002086
:104A2000A40A00209C0A00208C0A0020B00A002062
:104A3000DC010020A00A0020980A0020900A002033
:104A4000840A0020F0B585B005460E460160EC20D2
:104A500005F0CAF9044600210A46FDF7C1FFEC60E3
:104A600033685F68214601A8FEF70FFA01A93046B6
:104A7000B84701A8FCF707FF4FF4827005F0B4F9BE
:104A800004464FF4827200210EF068FA80232370EE
:104A9000402363700D4B636004F10800FDF7C0FE16
:104AA000AC6031462046FFF727FB0321A868FFF7DB
:104AB00095FA05B0F0BDEC21204604F019FC04F095
:104AC00019FC01A8FCF7DFFE04F014FC00007F4392
:104AD00070B592B004460068FEF768FDB8B1206872
:104AE000FEF764FDFEF7CCFB08B32068FEF7C4FBBD
:104AF0002068FEF75BFD0546206003685E68E1689C
:104B00000FA8FEF7C2F90FA92846B0471FE007AA71
:104B10001B4901A8FDF7BEFB4FF4167201A9204600
:104B2000FFF7BCFD01A8FCF790FE002017E00EAADD
:104B3000144908A8FDF7AEFB4FF4167208A92046E9
:104B4000FFF7ACFD08A8FCF780FE002007E00FA8E7
:104B5000FCF799FE2168A068FFF7CEFA012012B099
:104B600070BD01A8FCF771FE04F0C4FB08A8FCF7B7
:104B70006CFE04F0BFFB0FA8FCF785FE04F0BAFB47
:104B8000288901083C89010870B592B00446006884
:104B9000FEF713FDB8B12068FEF70FFDFEF770FBBE
:104BA00008B32068FEF768FB2068FEF706FD05469F
:104BB000206003685E68E1680FA8FEF766F90FA938
:104BC0002846B0471FE007AA1B4901A8FDF762FB72
:104BD0004FF4167201A92046FFF760FD01A8FCF70B
:104BE00034FE002017E00EAA144908A8FDF752FB76
:104BF0004FF4167208A92046FFF750FD08A8FCF7ED
:104C000024FE002007E00FA8FCF73DFE2168A06805
:104C1000FFF772FA012012B070BD01A8FCF715FE73
:104C200004F068FB08A8FCF710FE04F063FB0FA873
:104C3000FCF729FE04F05EFB288901083C89010885
:104C400070B58AB00446FCF74EFD25682B68DE6817
:104C5000E16801A8FEF719F901A92846B04701A8A3
:104C6000FCF711FE65685DB12B685E69E16804A818
:104C7000FEF70BF904A92846B04704A8FCF703FE89
:104C8000A568E16807A8FEF700F907A92846FFF71D
:104C90003FFA07A8FCF7F7FDA2682168E068FEF775
:104CA00073F823696269A3F5FA7313434CD023693F
:104CB0006269A3F5487313434BD023696269A3F576
:104CC0009663134349D023696269A3F2DC5313430B
:104CD00048D023696269A3F5E163134347D0236990
:104CE0006269A3F63403134346D023696269A3F6CD
:104CF000FC03134345D023696269A3F6C41313432D
:104D000044D023696269A3F65433134342D0236924
:104D10006269A3F54863134340D02169636940F693
:104D2000B242914273F1000303D300220023C4E98D
:104D30000423FCF7D1FC23696269013342F10002CC
:104D4000236162610AB070BD0321A068FFF746F9D4
:104D5000ADE72046FFF7BCFEAFE70121A068FFF7F3
:104D60003DF9B0E70321A068FFF738F9B1E7042166
:104D7000A068FFF733F9B2E70121A068FFF72EF929
:104D8000B3E70021A068FFF729F9B4E72046FFF751
:104D90009FFEB6E72046FFF7F7FEB8E70021A068C0
:104DA000FFF71CF9B9E701A8FCF76DFD04F0A2FAC2
:104DB00004A8FCF768FD04F09DFA07A8FCF763FD62
:104DC00004F098FA00B583B00A4B5A6942F0010228
:104DD0005A615B6903F001030193019B00221146B4
:104DE0000F2002F0D1FF0F2002F0DEFF03B05DF8CC
:104DF00004FB00BF0010024070B588B0002404948A
:104E0000059406940794234B9A6942F020029A6114
:104E10009A6902F020020192019A9A6942F0040212
:104E20009A619A6902F004020292029A9A6942F027
:104E300008029A619B6903F008030393039B164DD4
:104E400022460421284603F05CFA01221821284654
:104E500003F057FA042304930126059602230693D0
:104E6000079304A9284603F037F9182304930596FD
:104E700006960323079304A9284603F02DF9C023BF
:104E800004930594069404A9284603F025F908B074
:104E900070BD00BF001002400008014070470020B4
:104EA0007047002070470020704770477047704778
:104EB0000020704700207047704770477047704768
:104EC000704770477047704770477047704770472A
:104ED00070477047002070470020704700207047DF
:104EE00070477047704770477047002070477047A1
:104EF000014B0360704700BF6089010810B504468C
:104F0000034B0360102104F0F3F9204610BD00BFED
:104F100060890108014B1868704700BFDC0A002057
:104F200010B50446FFF7F6FF0368D3F88C3021462E
:104F3000984710BD10B50024012C06DCE0B2FFF745
:104F4000EFFF034610B90134F6E70023184610BD01
:104F500008B5FFF7DFFF0368D3F89030984708BD26
:104F600010B5304B1B78022B0CD804465AB21ABB32
:104F70003BB9FFF7EDFF78B900232B4A13702B4A9A
:104F8000137010BD032BFCD1FFF7E2FF0028F8D10E
:104F9000244B00221A70F4E70020FFF7C1FF10B184
:104FA000204B01221A700120FFF7BAFF0028E3D03E
:104FB0001C4B02221A70DFE7FFF7CAFF28B31B4B16
:104FC0001B7813B9194B01221A70174A1378013351
:104FD000DBB21370642BD4D90020FFF7A1FF18B106
:104FE00002232373002363730120FFF799FF18B195
:104FF000022363730023237300230B4A13700B4AAD
:105000001370084B03221A70BBE7084B1B781BB1C7
:10501000044B03221A70B4E70023024A137063732F
:105020002373AEE7B80A0020BA0A0020B90A0020AC
:1050300010B50446FFF78CFF70B10023012B09D88F
:10504000E218127B012A04D0022A09D00133DBB214
:10505000F4E713B90023A38110BD012BFAD0F5E7C3
:10506000002BF7D0012BF5D0F0E7000040B110B5D0
:1050700004460368DB689847024B1C60012010BDA2
:1050800000207047DC0A002070B506460C46083048
:1050900030600D4655F8083B9D420AD033608B685E
:1050A000B3606368736025600023636023723046D9
:1050B00070BD4A680132F4D02946FBF78BFFF0E758
:1050C00030B585B08446019144680368E31ADB106B
:1050D000114803FB00F0114D2D1A8D4213D303909C
:1050E000814213D803AA12681044DCF80030E41A95
:1050F000E410094B03FB04F4A04209D3074B984288
:1051000008D805B030BD104605F0FCFA01AAEAE760
:105110000248F6E70148F4E7ABAAAAAA5555550597
:10512000F8B545688D420AD007460E460C4603E0A6
:105130002046FCF78AFB1834A542F9D17E60F8BD01
:1051400008B5084602EB4202D10004F0D1F808BDD0
:1051500010B5044601688268521AD210034B03FB53
:1051600002F209B1FFF7ECFF204610BDABAAAAAAD4
:1051700070B506460468456803E02046FCF765FB09
:105180001834A542F9D13046FFF7E2FF304670BD32
:1051900070B504460E46154608E021462846FFF73E
:1051A00073FF2046FCF751FB18341835B442F4D194
:1051B000284670BD10B582B0044601AA0249FDF729
:1051C00069F8204602B010BDD887010870B582B0DA
:1051D00004460E46551A01950F2D0DD800942A4607
:1051E00031462068FCF7DEFF00220092019B6360DD
:1051F0002168CA5402B070BD002201A9FDF710F861
:105200002060019BA360E9E710B504460B4600F15E
:105210000802026009685A684FF000030A44FFF769
:10522000D5FF204610BD000008B5084B994205D8AF
:1052300001EB4101C80004F0D7FD08BD044B9942C1
:1052400001D905F037FA05F025FA00BF5555550587
:10525000AAAAAA0A2DE9F84F044688469246274A88
:105260000121FFF72DFF2768D4F804B0A8EB070948
:10527000054658B1002201462046FFF7D5FF0646F5
:10528000B14451464846FFF7BFFF01E00026F7E76B
:105290002346324641463846FFF77AFF234600F15F
:1052A000180259464046FFF773FF8046A368DB1B90
:1052B000DB10134A03FB02F21FB139462046FFF709
:1052C0003FFF2660C4F8048005EB450506EBC505E5
:1052D000A560BDE8F88F04F0D3F846B94846FCF75E
:1052E000B4FA04F007FD04F00BF904F003F82A46C1
:1052F00031462046FFF724FFF3E700BFBC860108D4
:10530000ABAAAAAA10B504464068A368984205D083
:10531000FFF77AFF63681833636010BD0A460146E1
:105320002046FFF797FFF8E738B50C46434B1B685C
:10533000BFF35B8F13F0010F28D0414B1B68BFF305
:105340005B8F13F0010F03D13D4804F00BFD58BBF8
:105350003C4B1B68BFF35B8F13F0010F31D03A4A0F
:10536000536811685B1ADB10384A02FB03F3384AB2
:1053700012789A4232D921463348FFF7C3FFFCF72F
:10538000B2F90220FCF7C8F900243DE02B4804F0F4
:10539000E9FC0028D1D02F4A2F492B4803F024FFE5
:1053A000264804F0FFFCC8E7FFF7B4FD4579FFF796
:1053B0006DF9B5FBF0F5264B1D70214804F0F2FCA9
:1053C000C6E7204804F0CEFC0028C8D0FFF75EF9FD
:1053D000224B18701B4804F0E5FCC0E71A48FFF7A1
:1053E0009FFEC8E71D4B1B7803FB044004EB440100
:1053F00005EBC1051844FBF7D9F901462A46002000
:10540000FCF793F90134E4B20F4A536815685B1B4B
:10541000DB100E4901FB03F39C42E3D3FCF75CF97C
:105420000120FCF779F938BD054804F0B7FC03F01A
:1054300061FF044804F0B2FC03F05CFFCC0A0020DA
:10544000C40A0020BC0A0020D00A0020ABAAAAAAE5
:10545000C80A00200000002071510008C00A002086
:1054600070477047704770477047704708B539B14B
:105470008021074802F03EFF003818BF012008BD18
:105480004021034802F036FF003818BF0120F6E73C
:105490000008014008B502F029F908BD00B591B037
:1054A0002822002106A80DF059FD00230193029344
:1054B000039304930593012206924FF480330793DC
:1054C0000A9202220D920E934FF4E0130F9306A856
:1054D00002F034FF80B90F230193022102910023CF
:1054E00003934FF480620492059301A803F058F9E6
:1054F00028B911B05DF804FB01F06FFFEBE701F094
:105500006CFFF6E708B5FFF777FC08BD704708B5F4
:1055100001F0B8FF08BD08B5FFF754FC08BD08B599
:10552000FCF764F808BD08B5084602F003F908BDA9
:1055300008B502F0F9F808BD094B18684FF0E022F1
:10554000536992699B1A074A12680749A1FB021224
:10555000920CB3FBF2F34FF47A7202FB0030704707
:10556000840F0020B002002083DE1B4310B50B4CDB
:10557000204602F09FFA3221204602F0EFF8204642
:1055800002F052FA10F4007F02D1054B186810BDEA
:10559000204602F0A5F9024B1860F6E794090020B6
:1055A000E00A00202DE9F04F83B007460E469146F1
:1055B0001D46DDF8308090F892A0CB18541CA4B2A0
:1055C00000949BB200F0FFFF78B3BAFA8AFB4FEA6F
:1055D0005B1B012414E087F892A0002300930123B1
:1055E0004A463146384600F040FF0136B6B2640004
:1055F00014F0FF0402D108F101080124013DADB20D
:105600008DB198F800302342E5D197F89130002B06
:10561000EBD187F892B0009301234A4631463846D1
:1056200000F023FFE1E787F892A003B0BDE8F08F18
:105630002DE9F04782B08246884614461F46BDF8E1
:1056400028500B9E03F10709C9F3CC0903EB010CA9
:1056500053199BB200931FFA8CF300F0B4FF60B9AA
:105660000DE000963B46224641465046FFF79AFF22
:105670004E440134A4B2013DADB2002DF1D102B0CF
:10568000BDE8F0872DE9F04182B080460F46144610
:105690001E46BDF8205001EB030C53199BB200933A
:1056A0001FFA8CF300F08FFF60B90DE0002200922A
:1056B000334622463946404600F0D7FE0134A4B2B4
:1056C000013DADB2002DF1D102B0BDE8F0812DE970
:1056D000F04782B080460D4614461E46BDF828901D
:1056E000CF18BFB202EB09039BB200933B4600F018
:1056F0006AFF10B902B0BDE8F0870023009333467B
:1057000022462946404600F0B0FEB9F1010FF1D91A
:10571000A9F102091FFA89F90134A4B2B9F1000F05
:1057200008D100230093334622462946404600F024
:105730009CFEDFE74FF0010ACDF800A04B46224661
:105740002946404600F091FE791ECDF800A04B4658
:10575000224689B2404600F088FEA1441FFA89F42F
:10576000DFE72DE9F04F87B080460C469246BDF842
:105770004060BDF84470039104931C44A4B2951991
:10578000ADB20095234600F01EFF10B907B0BDE88A
:10579000F08F039A02EB07091FFA89F90AEB070B4E
:1057A0001FFA8BFBE41BA4B2013CA4B2ED1BADB20B
:1057B000013DADB2022300933B465A46494640465E
:1057C00000F074FA012300933B465A4621464046B6
:1057D00000F06CFA042300933B462A4649464046B3
:1057E00000F064FA082300933B462A4621464046CF
:1057F00000F05CFA049BDB1B9BB2DB1B9BB209F144
:1058000001091FFA89F90BF1010B1FFA8BFB022B1F
:105810000FD8F61BB6B2F61BB6B2022EB6D9023EB0
:10582000B6B20096049B5A4603994046FFF72AFFFA
:10583000ACE7023B9BB27C1CA4B200940593524699
:1058400049464046FFF71EFF0094059B2A464946FD
:105850004046FFF717FFDCE72DE9F04F85B007461C
:105860000C469046BDF838B0BDF83C6002910393F9
:105870001C44A4B202EB0B05ADB20095234600F028
:10588000A2FE10B905B0BDE8F08F029A02EB060A3D
:105890001FFA8AFA08EB06091FFA89F9A41BA4B2B9
:1058A000013CA4B2AD1BADB2013DADB202230093E9
:1058B00033464A465146384600F0D4F90123009356
:1058C00033464A462146384600F0CCF9042300937B
:1058D00033462A465146384600F0C4F9082300935F
:1058E00033462A462146384600F0BCF9039B9B1BF1
:1058F0009BB29B1B9BB2ABEB0604A4B2A41BA4B24D
:105900000AF1010A1FFA8AFA09F101091FFA89F955
:10591000022B16D8022CB5D9023CA4B2039B5D1E03
:10592000ADB223464A46029E3146384600F00AFE92
:105930003146294423464A4689B2384600F002FEE1
:10594000A0E7023B9DB20BF1FF3B1FFA8BFB2B46FE
:1059500042465146384600F0EDFD08EB0B022B465F
:1059600092B25146384600F0E5FDD3E710B582B05B
:1059700003681B7C446B03FB01F1C90089B20C4432
:105980000094002101F002F902B010BD2DE9F041B0
:10599000064690F8387090F83950036893F81180F3
:1059A00000242A4621463046FFF7E0FF0134E4B2E6
:1059B0000135EDB2A74201D9A845F2D8BDE8F08182
:1059C00008B503681B7C90F8382003FB02F2D20074
:1059D0000021406B0DF0C2FA08BD10B50446FFF778
:1059E000D5FF204601F0F8F810BD2DE9F8438046B8
:1059F0000F4691461C46BDF820609DF8245015F0D6
:105A0000010F0AD115F0020F16D115F0080F24D19D
:105A100015F0040F32D1BDE8F883B21A591892B2CA
:105A200089B200F097FDF21B04EB090192B289B232
:105A3000404600F08FFDE5E7A6EB0902E11B92B2BC
:105A400089B2404600F086FDF21BA4EB090192B238
:105A500089B2404600F07EFDD7E706EB0902E11966
:105A600092B289B2404600F075FDBA1904EB090103
:105A700092B289B2404600F06DFDC9E706EB09021B
:105A8000E11B92B289B2404600F064FDBA19A4EB62
:105A9000090192B289B2404600F05CFDBBE72DE9F6
:105AA000F04F85B00390894692461E469DF838B067
:105AB000C3F1010424B2C3EBC3384FEA48080FFA1C
:105AC00088F8CDF804B000920B4632460021FFF76B
:105AD0008CFF002501271AE0013EB6B208F102084A
