:020000040800F2
:1000000000500020898E0008A1720008A372000829
:10001000A5720008A7720008A9720008000000007D
:10002000000000000000000000000000AB720008AB
:10003000AD72000800000000AF720008B172000845
:10004000D18E0008D18E0008D18E0008D18E000814
:10005000D18E0008D18E0008D18E0008D18E000804
:10006000D18E0008D18E0008D18E0008D18E0008F4
:10007000D18E0008D18E0008D18E0008B972000818
:10008000D18E0008D18E0008D18E0008D18E0008D4
:10009000D18E0008D18E0008D18E0008D18E0008C4
:1000A000D18E0008D18E0008D18E0008D18E0008B4
:1000B000D18E0008D18E0008D18E0008D18E0008A4
:1000C000D18E0008D18E0008D18E0008D18E000894
:1000D000C9720008D18E0008D18E0008D18E0008A8
:1000E000D18E0008D18E0008D18E000800000000DB
:1000F0000000000000000000000000000000000000
:0C01000000000000000000005FF808F1A3
:1001100081F0004102E000BF83F0004330B54FEAB8
:1001200041044FEA430594EA050F08BF90EA020F25
:100130001FBF54EA000C55EA020C7FEA645C7FEAB8
:10014000655C00F0E2804FEA5454D4EB5555B8BFDB
:100150006D420CDD2C4480EA020281EA030382EA4C
:10016000000083EA010180EA020281EA0303362DDE
:1001700088BF30BD11F0004F4FEA01314FF4801CB1
:100180004CEA113102D0404261EB410113F0004FC3
:100190004FEA03334CEA133302D0524263EB43037A
:1001A00094EA050F00F0A780A4F10104D5F1200E18
:1001B0000DDB02FA0EFC22FA05F2801841F1000173
:1001C00003FA0EF2801843FA05F359410EE0A5F147
:1001D00020050EF1200E012A03FA0EFC28BF4CF078
:1001E000020C43FA05F3C01851EBE37101F000452E
:1001F00007D54FF0000EDCF1000C7EEB00006EEB3B
:100200000101B1F5801F1BD3B1F5001F0CD34908C4
:100210005FEA30004FEA3C0C04F101044FEA44521B
:1002200012F5800F80F09A80BCF1004F08BF5FEAA2
:10023000500C50F1000041EB045141EA050130BD82
:100240005FEA4C0C404141EB0101013C28BFB1F594
:10025000801FE9D291F0000F04BF01460020B1FADF
:1002600081F308BF2033A3F10B03B3F120020CDAB2
:100270000C3208DD02F1140CC2F10C0201FA0CF090
:1002800021FA02F10CE002F11402D8BFC2F1200CF5
:1002900001FA02F120FA0CFCDCBF41EA0C019040AB
:1002A000E41AA2BF01EB0451294330BD6FEA0404F4
:1002B0001F3C1CDA0C340EDC04F11404C4F12002DF
:1002C00020FA04F001FA02F340EA030021FA04F3F1
:1002D00045EA030130BDC4F10C04C4F1200220FA48
:1002E00002F001FA04F340EA0300294630BD21FA86
:1002F00004F0294630BD94F0000F83F4801306BF4C
:1003000081F480110134013D4EE77FEA645C18BF3F
:100310007FEA655C29D094EA050F08BF90EA020FD6
:1003200005D054EA000C04BF1946104630BD91EACE
:10033000030F1EBF0021002030BD5FEA545C05D1D1
:100340004000494128BF41F0004130BD14F5800410
:100350003CBF01F5801130BD01F0004545F0FE4184
:1003600041F470014FF0000030BD7FEA645C1ABFB9
:10037000194610467FEA655C1CBF0B46024650EAF0
:10038000013406BF52EA033591EA030F41F400211C
:1003900030BD00BF90F0000F04BF0021704730B5A2
:1003A0004FF4806404F132044FF000054FF0000177
:1003B00050E700BF90F0000F04BF0021704730B538
:1003C0004FF4806404F1320410F0004548BF40420D
:1003D0004FF000013EE700BF42004FEAE2014FEA62
:1003E00031014FEA02701FBF12F07F4393F07F4F3D
:1003F00081F06051704732F07F4208BF704793F040
:100400007F4F04BF41F40021704730B54FF4607452
:1004100001F0004521F000411CE700BF50EA010255
:1004200008BF704730B54FF000050AE050EA0102FE
:1004300008BF704730B511F0004502D5404261EB6E
:1004400041014FF4806404F132045FEA915C3FF4AF
:10045000D8AE4FF003025FEADC0C18BF03325FEA4C
:10046000DC0C18BF033202EBDC02C2F1200300FAFD
:1004700003FC20FA02F001FA03FE40EA0E0021FA22
:1004800002F11444BDE600BF4FF0FF3C06E000BFA0
:100490004FF0010C02E000BF4FF0010C4DF804CD0D
:1004A0004FEA410C7FEA6C5C4FEA430C18BF7FEACD
:1004B0006C5C1BD001B050EA410C0CBF52EA430CFB
:1004C00091EA030F02BF90EA020F0020704710F17B
:1004D000000F91EA030F58BF994208BF90422CBF0A
:1004E000D8176FEAE37040F0010070474FEA410C03
:1004F0007FEA6C5C02D150EA013C07D14FEA430C21
:100500007FEA6C5CD6D152EA033CD3D05DF8040B91
:10051000704700BF8446104662468C4619466346C3
:1005200000E000BF01B5FFF7B7FF002848BF10F19A
:10053000000F01BD4DF808EDFFF7F4FF0CBF0120DF
:1005400000205DF808FB00BF4DF808EDFFF7EAFF5B
:1005500034BF012000205DF808FB00BF4DF808ED16
:10056000FFF7E0FF94BF012000205DF808FB00BF0B
:100570004DF808EDFFF7CEFF94BF012000205DF895
:1005800008FB00BF4DF808EDFFF7C4FF34BF0120A2
:1005900000205DF808FB00BF4FEA4102B2F1E043E2
:1005A00024BFB3F5001CDCF1FE5C0DD901F0004C5A
:1005B0004FEAC0024CEA5070B2F1004F40EB8300AA
:1005C00008BF20F00100704711F0804F21D113F1D6
:1005D0003872BCBF01F00040704741F480114FEA0F
:1005E0005252C2F11802C2F1200C10FA0CF320FA98
:1005F00002F018BF40F001004FEAC1234FEAD323B5
:1006000003FA0CFC40EA0C0023FA02F34FEA43031E
:10061000CCE77FEA625307D150EA01331EBF4FF0A7
:10062000FE4040F44000704701F0004040F0FE40C2
:1006300040F40000704700BF80F0004002E000BFBF
:1006400081F0004142001FBF5FEA410392EA030FBD
:100650007FEA226C7FEA236C6AD04FEA1262D2EB07
:100660001363C1BFD218414048404140B8BF5B420C
:10067000192B88BF704710F0004F40F4000020F0A5
:100680007F4018BF404211F0004F41F4000121F0BB
:100690007F4118BF494292EA030F3FD0A2F1010205
:1006A00041FA03FC10EB0C00C3F1200301FA03F143
:1006B00000F0004302D5494260EB4000B0F5000F66
:1006C00013D3B0F1807F06D340084FEA310102F125
:1006D0000102FE2A51D2B1F1004F40EBC25008BFD7
:1006E00020F0010040EA03007047490040EB0000A1
:1006F000013A28BFB0F5000FEDD2B0FA80FCACF1A2
:10070000080CB2EB0C0200FA0CF0AABF00EBC250CE
:1007100052421843BCBFD0401843704792F0000FBC
:1007200081F4000106BF80F400000132013BB5E70F
:100730004FEA41037FEA226C18BF7FEA236C21D085
:1007400092EA030F04D092F0000F08BF08467047EA
:1007500090EA010F1CBF0020704712F07F4F04D1B8
:10076000400028BF40F00040704712F100723CBFCB
:1007700000F50000704700F0004343F0FE4040F4F5
:10078000000070477FEA226216BF08467FEA2363B3
:100790000146420206BF5FEA412390EA010F40F49E
:1007A000800070474FF0000304E000BF10F00043EA
:1007B00048BF40425FEA000C08BF704743F09643D1
:1007C00001464FF000001CE050EA010208BF7047EC
:1007D0004FF000030AE000BF50EA010208BF704773
:1007E00011F0004302D5404261EB41015FEA010C88
:1007F00002BF84460146002043F0B64308BFA3F180
:100800008053A3F50003BCFA8CF2083AA3EBC25361
:1008100010DB01FA02FC634400FA02FCC2F1200280
:10082000BCF1004F20FA02F243EB020008BF20F0B7
:100830000100704702F1200201FA02FCC2F120021D
:1008400050EA4C0021FA02F243EB020008BF20EA12
:10085000DC7070474FF0FF0C1CEAD0521EBF1CEA40
:10086000D15392EA0C0F93EA0C0F6FD01A4480EA2E
:10087000010C400218BF5FEA41211ED04FF0006317
:1008800043EA501043EA5111A0FB01310CF0004043
:10089000B1F5000F3EBF490041EAD3715B0040EA69
:1008A000010062F17F02FD2A1DD8B3F1004F40EB39
:1008B000C25008BF20F00100704790F0000F0CF00C
:1008C000004C08BF49024CEA502040EA51207F3AD0
:1008D000C2BFD2F1FF0340EAC250704740F40000AB
:1008E0004FF00003013A5DDC12F1190FDCBF00F09C
:1008F00000407047C2F10002410021FA02F1C2F14A
:10090000200200FA02FC5FEA310040F1000053EAE5
:100910004C0308BF20EADC70704792F0000F00F033
:10092000004C02BF400010F4000F013AF9D040EA39
:100930000C0093F0000F01F0004C02BF490011F4CD
:10094000000F013BF9D041EA0C018FE70CEAD153CB
:1009500092EA0C0F18BF93EA0C0F0AD030F0004C4B
:1009600018BF31F0004CD8D180EA010000F00040FF
:10097000704790F0000F17BF90F0004F084691F0BD
:10098000000F91F0004F14D092EA0C0F01D14202F7
:100990000FD193EA0C0F03D14B0218BF084608D1C0
:1009A00080EA010000F0004040F0FE4040F400000A
:1009B000704740F0FE4040F4400070474FF0FF0C9D
:1009C0001CEAD0521EBF1CEAD15392EA0C0F93EAE4
:1009D0000C0F69D0A2EB030280EA010C49024FEA36
:1009E000402037D04FF0805343EA111143EA1013EF
:1009F0000CF000408B4238BF5B0042F17D024FF4A7
:100A0000000C8B4224BF5B1A40EA0C00B3EB510F81
:100A100024BFA3EB510340EA5C00B3EB910F24BF6A
:100A2000A3EB910340EA9C00B3EBD10F24BFA3EBEF
:100A3000D10340EADC001B0118BF5FEA1C1CE0D1B7
:100A4000FD2A3FF650AF8B4240EBC25008BF20F06A
:100A5000010070470CF0004C4CEA50207F32C2BFBE
:100A6000D2F1FF0340EAC250704740F400004FF05B
:100A70000003013A37E792F0000F00F0004C02BF8C
:100A8000400010F4000F013AF9D040EA0C0093F056
:100A9000000F01F0004C02BF490011F4000F013BB0
:100AA000F9D041EA0C0195E70CEAD15392EA0C0F18
:100AB00008D142027FF47DAF93EA0C0F7FF470AF50
:100AC000084676E793EA0C0F04D14B023FF44CAF93
:100AD00008466EE730F0004C18BF31F0004CCAD128
:100AE00030F000427FF45CAF31F000437FF43CAF64
:100AF0005FE700BF4FF0FF3C06E000BF4FF0010C86
:100B000002E000BF4FF0010C4DF804CD4FEA400267
:100B10004FEA41037FEA226C18BF7FEA236C11D0B1
:100B200001B052EA530C18BF90EA010F58BFB2EB64
:100B3000030088BFC81738BF6FEAE17018BF40F0E4
:100B4000010070477FEA226C02D15FEA402C05D198
:100B50007FEA236CE4D15FEA412CE1D05DF8040B1D
:100B6000704700BF844608466146FFE70FB5FFF7B0
:100B7000C9FF002848BF10F1000F0FBD4DF808ED68
:100B8000FFF7F4FF0CBF012000205DF808FB00BF59
:100B90004DF808EDFFF7EAFF34BF012000205DF8B3
:100BA00008FB00BF4DF808EDFFF7E0FF94BF012000
:100BB00000205DF808FB00BF4DF808EDFFF7D2FFFD
:100BC00094BF012000205DF808FB00BF4DF808ED40
:100BD000FFF7C8FF34BF012000205DF808FB00BF0D
:100BE0004FEA4002B2F1FE4F0FD34FF09E03B3EB3A
:100BF00012620DD94FEA002343F0004310F0004F7A
:100C000023FA02F018BF404270474FF000007047CF
:100C100012F1610F01D1420205D110F0004008BF6E
:100C20006FF0004070474FF00000704742000ED256
:100C3000B2F1FE4F0BD34FF09E03B3EB126209D417
:100C40004FEA002343F0004323FA02F070474FF0CD
:100C50000000704712F1610F01D1420202D14FF042
:100C6000FF3070474FF00000704700BF00F13401C3
:100C700091E838009C46A6464CF8045D90E8FF0FCA
:100C8000E54600BD90EC210B704700BF80EC210BC6
:100C9000704700BF90EC200B704700BF80EC200B2A
:100CA000704700BFD0EC200B704700BFC0EC200B9A
:100CB000704700BFF0EC0201F0EC0211F0EC0221F1
:100CC000F0EC0231F0EC0241F0EC0251F0EC026188
:100CD000F0EC0271F0EC0281F0EC0291F0EC02A178
:100CE000F0EC02B1F0EC02C1F0EC02D1F0EC02E168
:100CF000F0EC02F1704700BFE0EC0201E0EC021101
:100D0000E0EC0221E0EC0231E0EC0241E0EC0251C7
:100D1000E0EC0261E0EC0271E0EC0281E0EC0291B7
:100D2000E0EC02A1E0EC02B1E0EC02C1E0EC02D1A7
:100D3000E0EC02E1E0EC02F1704700BFB0FC0181A1
:100D4000B0FC0191B0FC01A1B0FC01B1704700BF43
:100D5000A0FC0181A0FC0191A0FC01A1A0FC01B1BB
:100D6000704700BFEC4600B52DE900502DE9FF1F8C
:100D70004FF000032DE90C0001A90FF0F9FFDDF899
:100D800040E012B0704700BFEC4600B52DE90050BE
:100D90002DE9FF1F4FF000032DE90C0001A910F011
:100DA00027F8DDF840E012B0704700BFEC4600B510
:100DB0002DE900502DE9FF1F4FF000032DE90C0035
:100DC00001A910F035F8DDF840E012B0704700BF1F
:100DD000EC4600B52DE900502DE9FF1F4FF0000350
:100DE0002DE90C0001AB0FF0F7FFDDF840E012B089
:100DF000704700BFEC4600B52DE900502DE9FF1FFC
:100E00004FF000032DE90C0001AA10F06FF8DDF897
:100E100040E012B0704700BF80EA010C1CF0030FE5
:100E200037D110F0030C20F0030021F0030150F83B
:100E3000042B08BF51F8043B0ED08CF0030C6FF06C
:100E40007F434FEACC0C23FA0CFC51F8043B42EAF6
:100E50000C0243EA0C0300BFA2F1013C9A4201BF1D
:100E60002CEA020C1CF0803F50F8042B51F8043B94
:100E7000F2D04FEA02604FEA1222012828BFB0EBFD
:100E8000036F08BF1B0AF4D003F0FF03000EC01A63
:100E9000704710F0030F0AD010F8012B11F8013B36
:100EA000012A28BF9A42F4D0A2EB030070474DF804
:100EB000045D50F8042B01F0030521F0030151F803
:100EC000043B022D26D04DD822F07F45B5EB132FE1
:100ED000A2F1013C2CEA020C0DD11CF0803C08BFB1
:100EE00051F8043B0AD185EA0205B5EB036F0CD13A
:100EF00050F8042BE8E74FEA13235BE03CF07F4C0B
:100F000054D10B784FEA126554E04FEA126503F0B2
:100F1000FF034FE04FEA0245A2F1013C4FEA1545BD
:100F20002CEA020CB5EB134F18D11CF0803C08BF23
:100F300051F8043B07D185EA0205B5EB034F09D10F
:100F400050F8042BE6E75FEA0C4C2FD10B884FEAF0
:100F500012452FE04FEA03434FEA12454FEA13438D
:100F600028E000BF02F0FF05B5EB136FA2F1013CD2
:100F70002CEA020C0DD11CF0803C08BF51F8043B58
:100F80000AD185EA0205B5EB032F0AD150F8042BEC
:100F9000E8E74FEA13630DE012F0FF0F06D051F8B7
:100FA000043B4FEA122523F07F4303E04FF000009B
:100FB00020BC704705F0FF0203F0FF00012828BFA6
:100FC000904204BF2D0A1B0AF4D0A2EB000020BC03
:100FD000704700BF844641EA000313F0030349D180
:100FE000403A23D30B6803604B6843608B6883608F
:100FF000CB68C3600B6903614B6943618B69836193
:10100000CB69C3610B6A03624B6A43628B6A83627A
:10101000CB6AC3620B6B03634B6B43638B6B836362
:10102000CB6BC36340304031403ADBD230320BD31C
:101030000B6803604B6843608B688360CB68C36058
:1010400010301031103AF3D20C3205D351F8043B72
:1010500040F8043B043AF9D2043208D0D2071CBF4E
:1010600011F8013B00F8013B01D30B880380604677
:10107000704700BF082A13D38B07B1D010F00303C9
:10108000AED0C3F10403D21ADB071CBF11F8013B39
:1010900000F8013BA4D331F8023B20F8023B9FE764
:1010A000043AD9D3013A11F8013B00F8013BF9D2D7
:1010B0000B7803704B7843708B7883706046704771
:1010C00070B54FF0FF0C4CF4E06C1CEA11541DBFDE
:1010D0001CEA135594EA0C0F95EA0C0F00F0DEF8A9
:1010E0002C4481EA030621EA4C5123EA4C5350EA8E
:1010F000013518BF52EA033541F4801143F48013DF
:1011000038D0A0FB02CE4FF00005E1FB02E506F06F
:101110000042E0FB03E54FF00006E1FB03569CF0C4
:10112000000F18BF4EF0010EA4F1FF04B6F5007FCA
:1011300064F5407404D25FEA4E0E6D4146EB06063C
:1011400042EAC62141EA55514FEAC52040EA5E50C5
:101150004FEACE2EB4F1FD0C88BFBCF5E06F1ED86F
:10116000BEF1004F08BF5FEA500E50F1000041EBA6
:10117000045170BD06F0004646EA010140EA020053
:1011800081EA0301B4EB5C04C2BFD4EB0C0541EA75
:10119000045170BD41F480114FF0000E013C00F38A
:1011A000AB8014F1360FDEBF002001F0004170BDAE
:1011B000C4F10004203C35DA0C341BDC04F11404C7
:1011C000C4F1200500FA05F320FA04F001FA05F253
:1011D00040EA020001F0004221F0004110EBD37020
:1011E00021FA04F642EB06015EEA430E08BF20EA4C
:1011F000D37070BDC4F10C04C4F1200500FA04F3EF
:1012000020FA05F001FA04F240EA020001F0004180
:1012100010EBD37041F100015EEA430E08BF20EAF3
:10122000D37070BDC4F1200500FA05F24EEA020E3B
:1012300020FA04F301FA05F243EA020321FA04F06A
:1012400001F0004121FA04F220EA020000EBD37021
:101250005EEA430E08BF20EAD37070BD94F0000F21
:101260000FD101F00046400041EB010111F4801F55
:1012700008BF013CF7D041EA060195F0000F18BF06
:10128000704703F00046520043EB030313F4801F42
:1012900008BF013DF7D043EA0603704794EA0C0FFC
:1012A0000CEA135518BF95EA0C0F0CD050EA410612
:1012B00018BF52EA4306D1D181EA030101F000418F
:1012C0004FF0000070BD50EA410606BF10461946B7
:1012D00052EA430619D094EA0C0F02D150EA0136C3
:1012E00013D195EA0C0F05D152EA03361CBF104604
:1012F00019460AD181EA030101F0004141F0FE41A3
:1013000041F470014FF0000070BD41F0FE4141F426
:10131000780170BD70B54FF0FF0C4CF4E06C1CEA26
:1013200011541DBF1CEA135594EA0C0F95EA0C0FDB
:1013300000F0A7F8A4EB050481EA030E52EA033596
:101340004FEA013100F088804FEA03334FF08055B7
:1013500045EA131343EA12634FEA022245EA1115E4
:1013600045EA10654FEA00260EF000419D4208BF95
:10137000964244F1FD0404F5407402D25B084FEA42
:101380003202B61A65EB03055B084FEA32024FF4EE
:1013900080104FF4002CB6EB020E75EB030E22BF4B
:1013A000B61A754640EA0C005B084FEA3202B6EB0B
:1013B000020E75EB030E22BFB61A754640EA5C00BA
:1013C0005B084FEA3202B6EB020E75EB030E22BF4A
:1013D000B61A754640EA9C005B084FEA3202B6EB4B
:1013E000020E75EB030E22BFB61A754640EADC000A
:1013F00055EA060E18D04FEA051545EA16754FEA6C
:1014000006164FEAC30343EA52734FEAC2025FEA89
:101410001C1CC0D111F4801F0BD141EA00014FF018
:1014200000004FF0004CB6E711F4801F04BF0143E9
:101430000020B4F1FD0C88BFBCF5E06F3FF6AFAE05
:10144000B5EB030C04BFB6EB020C5FEA500C50F195
:10145000000041EB045170BD0EF0004E4EEA113118
:1014600014EB5C04C2BFD4EB0C0541EA045170BD1F
:1014700041F480114FF0000E013C90E645EA060E63
:101480008DE60CEA135594EA0C0F08BF95EA0C0F91
:101490003FF43BAF94EA0C0F0AD150EA01347FF4D9
:1014A00034AF95EA0C0F7FF425AF104619462CE7B0
:1014B00095EA0C0F06D152EA03353FF4FDAE104613
:1014C000194622E750EA410618BF52EA43067FF464
:1014D000C5AE50EA41047FF40DAF52EA43057FF4F4
:1014E000EBAE12E74FEA410C7FEA6C5C02D150EAA6
:1014F000013C0AD14FEA430C7FEA6C5C02D152EA0C
:10150000033C02D14FF0000070474FF001007047DC
:101510004FEA410212F5001215D211D56FF478731B
:10152000B3EB625212D94FEAC12343F0004343EABE
:10153000505311F0004F23FA02F018BF4042704799
:101540004FF00000704750EA013005D111F0004023
:1015500008BF6FF0004070474FF00000704700BFB9
:101560000348044B834202D0034B03B11847704732
:101570007809002078090020000000000548064B8B
:101580001B1AD90F01EBA301491002D0034B03B181
:1015900018477047780900207809002000000000F3
:1015A00010B5064C237843B9FFF7DAFF044B13B1AB
:1015B0000448AFF300800123237010BD7809002098
:1015C000000000007481010808B5054B1BB10549F6
:1015D0000548AFF30080BDE80840FFF7CFBF00BF6C
:1015E000000000007C0900207481010800B585B06E
:1015F00000230193029303931148124A026083600F
:10160000037303754FF46022C261436001230361D9
:1016100006F066F968B910230193012302930023B1
:10162000039301A9064805F0D5FF28B905B05DF878
:1016300004FB05F048FDEEE705F045FDF6E700BFC9
:1016400094090020002401400268094B9A4200D00E
:10165000704782B003F56C439A6942F400729A6154
:101660009B6903F400730193019B02B0704700BFB4
:10167000002401400048704738000020F8B50D46AE
:1016800014461E460F6811463846FFF777FA50B9E0
:1016900021463846FEF7D4FF20F000400C49FFF702
:1016A00077FA08B12C60F8BD39462046FEF7C8FF2E
:1016B000044631460748FEF7C3FF01462046FFF7C0
:1016C0007DF901463846FEF7BDFF2860EBE700BF15
:1016D0009A99193E0000C84208B503F091FA0368D0
:1016E000DB69984708BD08B503F08AFA03681B6AEE
:1016F000984708BD10B5044603F082FA03685B6A98
:101700002146984710BD10B5044603F079FA0368E6
:101710009B6A2146984710BD10B5044603F070FA45
:1017200003681B6B2146984710BDF8B504460D466B
:10173000164603F065FA03689F6B33462A46214636
:10174000B847F8BDF8B504460D46164603F058FAFA
:1017500003689F6C33462A462146B847F8BDF8B562
:1017600004460D46164603F04BFA0368DF6C334619
:101770002A462146B847F8BDF0B583B004460D4669
:1017800016461F4603F03CFA036800975F6D334628
:101790002A462146B84703B0F0BD08B503F030FA39
:1017A00003685B6F984708BD10B584B0844601910B
:1017B00044680368E31A98106FF0604EAEEBA30321
:1017C0008B4210D30390814210D803AB1B6818449E
:1017D000DCF80030E41AB0EBA40F09D3B0F1005FDD
:1017E00009D204B010BD104608F002FE01ABEDE7CF
:1017F0006FF06040F5E76FF06040F2E74068043852
:10180000704710B485B000230193029303930468DA
:1018100001944268029283680393D1F800C0C0F833
:1018200000C0D1F804C0C0F804C0D1F808C0C0F8A6
:1018300008C00C604A608B6005B010BC704708B5EA
:101840000846114607F0CAFB08BD08B5034653F821
:10185000081B994203D082680132FFF7F0FF08BDF0
:1018600010B50446FFF7F1FF204610BD136801E0F4
:1018700040F8043B8142FBD1704708B5084691000F
:1018800007F0ACFB08BD10B5044601688268521A27
:1018900011B19210FFF7F1FF204610BD10B50446BC
:1018A000FFF7F1FF204610BD08B5B1F1005F03D28C
:1018B000880008F00FF908BDB1F1804F01D308F09E
:1018C0006FFD08F05DFD38B504460D4641B10022BC
:1018D000FFF7EAFF2060606000EB8500A06038BD84
:1018E0000020F7E770B5B1F1005F0ED205460C4657
:1018F00016460023036043608360FFF7E4FF2B6814
:101900006CB103EB8404326804E0064808F070FD13
:1019100043F8042B9C42FBD16C60284670BD1C46EA
:10192000FAE700BF7083010870B584B005460C4625
:101930001646836800681B1AB1EBA30F09D86968C3
:101940000B1AB4EBA30F11D86CB300EB840413682B
:1019500022E02B4601A8FFF7C5FF294601A8FFF7A3
:1019600050FF01A8FFF78FFF04B070BDFFF77EFFA7
:101970006B682A689A1AB4EBA20209D003EB8202C0
:10198000316801E043F8041B9A42FBD16A60EBE73F
:101990001A46FBE740F8043B8442FBD16B68A34244
:1019A000E2D06C60E0E70446F8E700002DE9F84F6C
:1019B00005468A4693461E4A0121FFF7F5FED5F8F3
:1019C00000806F68AAEB0804814618B30022014624
:1019D0002846FFF769FF0646DBF800303351002C3C
:1019E0001ADC04343444A7EB0A07002F1ADC3C4409
:1019F000AA68A2EB08029210B8F1000F03D041468A
:101A00002846FFF73AFF2E606C6006EB8906AE6051
:101A1000BDE8F88F0026DFE722464146304611F048
:101A200093F8DEE73A465146204611F08DF8DEE79E
:101A3000A483010810B5044643688268934208D025
:101A40000A681A604368043343602046FFF7D6FEF5
:101A500010BD0A461946FFF7A9FFF6E72DE9F04F3A
:101A600087B081462AE2B24807F0F2FF002800F072
:101A70003682B04AB049B14807F02CFAAC4808F0B9
:101A800007F82CE2AE4807F0E3FF002800F02F82B1
:101A9000A84AA949AB4807F01DFAA94807F0F8FF82
:101AA00025E2A94807F0D4FF002800F02882A14AC7
:101AB000A149A64807F00EFAA34807F0E9FF1EE285
:101AC000A34807F0C5FF002800F02182994AA149E8
:101AD000A14807F0FFF99E4807F0DAFF17E29F4898
:101AE00007F0B6FF002800F01A82924A99499C48F4
:101AF00007F0F0F9994807F0CBFF10E203F080F807
:101B000004799548FFF7FFFD201A00EBD0704010D4
:101B1000FEF74CFE934B1860934807F0B9FF12E2B2
:101B200003F06EF804798E48FFF7EDFD201A00EB04
:101B3000D0704010FEF73AFE8C4B18608C4807F0CE
:101B4000A7FF11E28B4807F083FF002800F01882FE
:101B5000D5F8A4100020FEF773FD4FF07E51FEF77C
:101B60006FFD854B1860834807F092FF08E28348B9
:101B700007F06EFF002800F00B82D5F8A8100020B7
:101B8000FEF75EFD4FF07E51FEF75AFD7C4B18606C
:101B90007A4807F07DFFFBE17A4807F059FF0028FB
:101BA00000F0FE8103F02CF84079C043FEF7FEFD03
:101BB000754B1860734807F06BFFF1E15F4B1A68D3
:101BC0005B68934201D05D4B5A605E4B1A685B685C
:101BD000934201D05B4B5A605C4B1A685B689A4237
:101BE00001D05A4B5A60002669E0FFF7D6FDC0EBE2
:101BF000C00010F0FFF8D5F8A0100020FEF720FD7F
:101C00004FF07E51FEF71CFD029002A94B48FFF7F2
:101C100011FF10F0F7F8044602F0F2FF90F805808B
:101C2000D5F8A0000146FEF70DFD07464046FEF739
:101C3000BDFD3946FEF704FD4FF08041FEF700FD83
:101C40004FF07E51FEF7FEFCFEF7F0FF80B294FBF2
:101C5000F0F300FB13400130FEF7A8FD039003A949
:101C60003848FFF7E7FE10F0CDF8044602F0C8FF51
:101C700090F80480D5F8A0000146FEF7E3FC074683
:101C80004046FEF793FD3946FEF7DAFC4FF08041FF
:101C9000FEF7D6FC4FF07E51FEF7D4FCFEF7C6FFF0
:101CA00080B294FBF0F300FB13400130FEF77EFDA1
:101CB000049004A92548FFF7BDFE0136F6B295F859
:101CC000AC30B34291D8314B01221A7075E102F069
:101CD00097FF4079C043FEF769FD2D4B186095F8DA
:101CE000AC40D5F8A0100020FEF7AAFC4FF07E51C2
:101CF000FEF7A6FC059005AA21461248FFF714FE40
:101D0000D5F8A4100020FEF79BFC4FF07E51FEF7A3
:101D100097FC204B1860D5F8A8100020FEF790FC27
:101D20004FF07E51FEF78CFC1B4B186062E100BF48
:101D3000200A0020000000209D180008240A00202E
:101D4000100A0020140A0020000A0020040A0020C3
:101D5000FC090020611800081C000020F809002080
:101D600004000020F4090020F0090020EC09002004
:101D7000E8090020E0090020E4090020D80900203B
:101D8000DC090020C8090020CC090020320A00200C
:101D9000C4090020D4090020D0090020BA4F3B68B4
:101DA0004FEA840AD5F8A080414653F82400FEF794
:101DB00047FCB64E336853F824B04FF07E51FEF71F
:101DC0003FFC42465946FFF7CAFC3B683268D5F8EB
:101DD000A0B052F824804FF0804153F82400FEF761
:101DE00031FC5A464146FFF7BAFCD7F800B03368D9
:101DF000D5F8A080414653F82400FEF721FC4FF0AF
:101E00007E51FEF71DFC014642465BF82400FFF7B9
:101E100099FC3F683368D5F8A0804FF0804153F8B3
:101E20002400FEF70FFC0146424657F82400FFF756
:101E300089FC3168964B1A68AB6A52F824205144E9
:101E400001A8FFF71BFC0134E4B295F8AC30A342C3
:101E5000A4D8D5F8B000FFF74DFC8E4E3168D5F808
:101E6000A400FEF7EFFB01468B4A8C4B1868FFF786
:101E70005CFCD5F8B400FFF73DFC894C2168D5F82F
:101E8000A800FEF7DFFB0146864A874B1868FFF77C
:101E90004CFCAB6A854A1268314601A8FFF7EEFB9D
:101EA000AB6A834A1268214601A8FFF7E7FBFFF7F8
:101EB00013FC804B1B884B4580F0D5807E4B1B78F4
:101EC000002B00F024817B4A1388013313807B4B65
:101ED0001B68BFF35B8F13F0010F3FF4C4AD784B69
:101EE0001B68BFF35B8F13F0010F3FF4CBAD754B55
:101EF0001B68BFF35B8F13F0010F3FF4D2AD724B41
:101F00001B68BFF35B8F13F0010F3FF4D9AD6F4B2C
:101F10001B68BFF35B8F13F0010F3FF4E0ADFFF7D9
:101F2000A9FB0546D0F8B000FFF7E4FB684B1B683F
:101F3000BFF35B8F13F0010F05D1654807F088FDF3
:101F400000287FF4DBADD5F8B400FFF7D3FB614B7D
:101F50001B68BFF35B8F13F0010F05D15D4807F0DD
:101F600077FD00287FF4DCADD5F8B800FFF7C2FBA1
:101F7000594B1B68BFF35B8F13F0010F3FF4E2ADC9
:101F8000564B1B68BFF35B8F13F0010F3FF4EFADAF
:101F9000534B1B68BFF35B8F13F0010F3FF4FCAD95
:101FA000444B1B884B45BFF492AE4E4B00221A6047
:101FB0004D4B1B78002B3FF401AE02F021FE467919
:101FC00076084FF07C51D5F8A400FEF743FC044698
:101FD0003046FEF7EBFB2146FEF732FB334B186031
:101FE000D5F8A810FEF72CFB4FF08141FEF728FB37
:101FF0002F4B1860FFF777FB0020FFF78DFB3B4C62
:10200000D4F8008002F0FCFD0079FEF7CBFB064619
:1020100002F0F6FD4079FEF7C5FB03460027324685
:1020200041463846FFF7A8FBAB6A2E4A12682146A4
:1020300001A8FFF723FB0120FFF76EFB02F0E0FD94
:102040004079FEF7B3FB2168FEF7FCFA044602F084
:10205000D7FD0079FEF7A6FB024621463846FFF77A
:102060007EFB0024F1E602F0CBFD4079C043FEF791
:102070009DFB1E4B1968FEF781FD00283FF41EAF43
:102080000D4B00221A7019E7040A0020240A0020D0
:10209000140A0020E40900201C000020F40900209C
:1020A000DC09002004000020EC090020D4090020F5
:1020B000D0090020300A002034000020200A00202F
:1020C000100A0020000A0020FC090020F809002066
:1020D000F0090020E8090020E0090020D8090020CC
:1020E000C8090020C4090020320A0020CC090020C1
:1020F000084807F0C9FC06F073FF074807F0C4FC66
:1021000006F06EFF054807F0BFFC06F069FF07B058
:10211000BDE8F08FF0090020E8090020C809002080
:10212000F8B504460D46164602F06AFD0368DF6BFB
:1021300033462A462146B847F8BD10B5044602F09A
:102140005FFD03689B6E2146984710BD08B5024BA2
:10215000186802F0EBFBFAE76C0A002008B5081ECD
:1021600002DB07F0B7FC08BD08F00AF9F8B5541A0D
:102170000CD405460E4664B100222146FFF7EEFF5F
:1021800028600719AF6034B96F60F8BD044808F0E3
:102190002FF90020F4E72246314610F0D5FCF3E792
:1021A0007083010838B504460D4639B10022FFF7A7
:1021B000D5FF206060602844A06038BD0020F8E7AB
:1021C00008B5012A03D022B1FEF704FF01E00B7825
:1021D000037008BD08B50846114606F0FFFE08BDAD
:1021E00010B5044601688268521A09B1FFF7F2FF80
:1021F000204610BD10B50446FFF7F2FF204610BD83
:1022000010B582B0044602AB03E906000023036068
:10221000436083600A44FFF7A9FF04E02046FFF70C
:10222000DFFF06F0DDFE204602B010BD08B5081E37
:1022300002DB07F04FFC08BD08F0A2F810B50B68F0
:10224000002B0EDB934206D95400B3EB420F02D2AF
:102250000C60002C08DB096800220131FFF7E6FF63
:1022600010BD034808F0C4F86FF000430B60F2E7BC
:10227000C083010870B582B004460E46551A019518
:102280000F2D0DD800942A4631462068FFF798FF9D
:1022900000220092019B63602168CA5402B070BDA5
:1022A000002201A9FFF7CAFF2060019BA360E9E7B4
:1022B00038B500F10803036069B104460D460846CD
:1022C00010F08AFE4FF000032A1829462046FFF737
:1022D000D1FF204638BD014808F072F8D8830108C4
:1022E00038B515460C1A01D1281938BD22460146C9
:1022F000284610F029FCF7E708B5FFF7F1FF08BD05
:1023000008B5FFF7F9FF08BD38B504460D46496822
:102310002A680023036043608360891AFFF742FF45
:10232000226869682868FFF7EBFF6060204638BDC7
:1023300070B5C8B0A42007F0CDFB0446B24B0360D3
:102340008023037140234371B04B8360002181815E
:10235000AF4B40F8103B942210F074FC204602F082
:10236000FBFC4FF4AF70FFF7E8FE4FF47A70FFF715
:1023700075FBA84B1D684FF4B07007F0ABFB04462B
:1023800006AAA5496846FFF793FF08E0012525B195
:102390004FF4B071204606F021FE06F021FE9F4961
:1023A00007A8FFF7B1FF04E001256846FFF74DFAE3
:1023B000EDE707AA6946204601F0D4FA21462846EF
:1023C00001F0A4FB04E0002507A8FFF709FFECE7F4
:1023D00007A8FFF705FF6846FFF737FA8D4B1D6822
:1023E0004FF4B07007F076FB044610AA8C490AA897
:1023F000FFF75EFF08E0012525B14FF4B0712046DC
:1024000006F0ECFD06F0ECFD864911A8FFF77CFF15
:1024100004E001250AA8FFF718FAEDE711AA0AA9B6
:10242000204601F09FFA2146284601F06FFB04E0A8
:10243000002511A8FFF7D4FEECE711A8FFF7D0FEA6
:102440000AA8FFF702FA734B1D684FF4B07007F04B
:1024500041FB04461AAA744914A8FFF729FF08E0B3
:10246000012525B14FF4B071204606F0B7FD06F006
:10247000B7FD6E491BA8FFF747FF04E0012514A82C
:10248000FFF7E3F9EDE71BAA14A9204601F06AFA69
:102490002146284601F03AFB04E000251BA8FFF77F
:1024A0009FFEECE71BA8FFF79BFE14A8FFF7CDF9F2
:1024B0005F4C2168574B186801F028FB25684FF4E2
:1024C000B07007F007FB044624AA5A491EA8FFF77C
:1024D000EFFE08E0012525B14FF4B071204606F06B
:1024E0007DFD06F07DFD1EA9204601F055F921462F
:1024F000284601F00BFB04E000251EA8FFF7A5F914
:10250000E9E71EA8FFF7A1F9494B1E684FF4B07028
:1025100007F0E0FA04462BAA474925A8FFF7C8FEB2
:1025200008E0012525B14FF4B071204606F056FDB4
:1025300006F056FD25A9204601F02EF904E00125FC
:1025400025A8FFF782F9EDE7E42007F0C3FA054676
:102550003A4901F0E7FE01E00025F1E72A4621466D
:10256000304601F0C1FB01E00025E9E725A8FFF7AF
:102570006CF92F4B1D684FF4B07007F0ABFA0446AE
:1025800032AA2F492CA8FFF793FE08E0012525B1B8
:102590004FF4B071204606F021FD06F021FD2CA974
:1025A000204601F0F9F82146284601F0AFFA04E090
:1025B00000252CA8FFF749F9E9E72CA8FFF745F912
:1025C0001B4B1D684FF4B07007F084FA044639AA1B
:1025D0001C4933A8FFF76CFE08E0012525B14FF434
:1025E000B071204606F0FAFC06F0FAFC33A920464A
:1025F00001F0D2F82146284601F088FA24E00025AF
:1026000033A8FFF722F9E9E79085010800007F432E
:10261000F0990108680A00200C8401085C0A002077
:1026200014840108500A00201C840108440A002078
:10263000340A00202C840108388401080801002095
:10264000448401085484010833A8FFF7FEF8364B90
:102650001D684FF4B07007F03DFA044640AA3349B4
:102660003AA8FFF725FE08E0012525B14FF4B07127
:10267000204606F0B3FC06F0B3FC3AA9204601F070
:102680008BF82146284601F041FA04E000253AA8DB
:10269000FFF7DBF8E9E73AA8FFF7D7F8224B1D6808
:1026A0004FF4B07007F016FA044647AA204941A833
:1026B000FFF7FEFD08E0012525B14FF4B07120467B
:1026C00006F08CFC06F08CFC41A9204601F064F871
:1026D0002146284601F01AFA04E0002541A8FFF738
:1026E000B4F8E9E741A8FFF7B0F8124B1968124BAC
:1026F000186802F01DF848B070BD012564E6012598
:1027000097E60125CAE60125F7E6E421284606F00A
:1027100065FC002514E701254BE7012570E701253D
:10272000B5E70125DAE700BF340A00206C84010810
:1027300084840108680A00206C0A0020012800D067
:1027400070474FF6FF739942FAD12DE9F043BDB0BF
:10275000182007F0BFF90023036043608360C36063
:1027600003614361524B18604FF4B07007F0B2F947
:10277000044625AA4F491FA8FFF79AFD1FA9204626
:1027800001F00AF84C4B1C601FA8FFF75EF8DFF859
:102790002C8101AD7824224641462846FEF71AFCDA
:1027A00026952794DFF8189128AB224629464846FB
:1027B000FFF726FD434F444E3A463146484606F061
:1027C00089FB224608EB04012846FEF703FC299505
:1027D0002A94DFF8F8902BAB224629464846FFF7AB
:1027E0000FFD3A463146484606F074FB224608F192
:1027F000F0012846FEF7EEFB2C952D94DFF8D090E3
:102800002EAB224629464846FFF7FAFC3A463146A7
:10281000484606F05FFB224608F5B4712846FEF7ED
:10282000D9FB2F9530942B4C31AB7822294620468A
:10283000FFF7E6FC3A463146204606F04BFB4FF4E4
:10284000B07007F047F9044638AA234932A8FFF7C9
:102850002FFD204939A8FFF757FD39AA32A9204694
:1028600001F080F81D4B1C6039A8FFF7B9FC32A8B5
:10287000FEF7EBFF3DB0BDE8F0831FA8FEF7E5FFD4
:102880004FF4B071204606F0A9FB06F0A9FBF7E76C
:1028900039A8FFF7A5FC32A8FEF7D7FF4FF4B071B7
:1028A000204606F09BFB06F09BFBF4E7F6E700BF33
:1028B0006C0A00209C840108680A002090810108AD
:1028C0005C0A002000000020F5210008500A0020CA
:1028D000440A0020380A0020A4840108340A002099
:1028E00008B54FF6FF710120FFF728FF08BD000073
:1028F00030B53E4901603E4A42603E4A82603E4AEF
:10290000C26002613D4C44613D4C84613D4CC461F8
:102910003D4C046241628262012180F82C1080F8F3
:102920002D1080F82E1080F82F1080F83010002223
:1029300080F83120354D45634FF0824282634FF07D
:10294000814CC0F83CC04FF0834404644FF07C5E7F
:10295000C0F844E0C0F848C04FF0804EC0F84CE0EA
:1029600080F850102A4941658165C265026629498F
:102970004166C0F868C02849C166026727494167B7
:10298000C0F878E0C5672649C0F880102549C0F82E
:102990008410C0F88810C0F88C20C0F89040C0F8AF
:1029A00094C0C0F898E02049C0F89C10C0F8A0E09E
:1029B0001E49C0F8A410C0F8A820102180F8AC105F
:1029C0001B49C0F8B0101B49C0F8B410C0F8B810CB
:1029D000C0F8BC20C0F8C020C0F8C4C0164AC0F877
:1029E000C8204FF07E52C0F8CC2030BD0000A0427D
:1029F000000082420000504200008C4200005C4215
:102A00000000C841000070410000C8420000A04022
:102A10000000F0410000C040000090410000404133
:102A200000004040000010420000B442000060413D
:102A300030860108848E010800002041F8B5044664
:102A40000D46164607683846FEF798F850B92946ED
:102A50003846FDF7F5FD20F000400C49FEF798F8E8
:102A600008B12560F8BD39462846FDF7E9FD054661
:102A700031460748FDF7E4FD01462846FDF79EFF75
:102A800001463846FDF7DEFD2060EBE79A99193ED6
:102A90000000C84270B504460D46164680230370F8
:102AA000402343700D4B43600830FFF721FF0023A4
:102AB00084F8E83029460020FDF7C2FD0546C4F839
:102AC000D80031460020FDF7BBFDC4F8DC00C4F897
:102AD000E050C4F8E400204670BD00BF00007F4312
:102AE0002DE9F04704460E461546D0F8E0100020C8
:102AF000FDF7A6FD8046D4F8E4100020FDF7A0FD08
:102B000007464FF0010931464046FEF75FF808B925
:102B10004FF000094FF0010A29463846FEF756F8F3
:102B200008B94FF0000A49EA0A0919F0FF0F2ED13F
:102B30002078FDF73BFE4146FDF784FD4FF07E51C6
:102B4000FDF77EFD80466078FDF730FE3946FDF7E3
:102B500079FD4FF07E51FDF773FD07464FF00104FC
:102B600031464046FEF714F808B94FF000044FF024
:102B7000010629463846FEF70BF808B94FF0000663
:102B8000344314F0FF0F04D10020BDE8F08701208A
:102B9000FBE70220F9E770B504461646012380F8EA
:102BA000E8300020FDF74CFD0546E26A014604F1DD
:102BB000E000FFF743FF31460020FDF741FD0646E8
:102BC000E26A014604F1E400FFF738FFD4F8E010B0
:102BD0002846FDF7D3FF40B1D4F8E4103046FDF7A6
:102BE000CDFF10B1002384F8E83070BD70B5044605
:102BF0000D46244B1B68BFF35B8F13F0010F28D0E9
:102C0000012384F8E83055B11F4B1B78B5FBF3F274
:102C100003FB125212F0FF0F2FD1B5FBF3F56078D2
:102C200005FB00F0FDF7C2FD024600212046FFF73C
:102C3000B2FFD4F8E460607805FB00F0FDF7B6FD64
:102C400001463046FDF79AFF10B1002384F8E830C2
:102C500070BD0C4806F0FCFE0028D1D0A66C607850
:102C6000FDF7A4FD3146FDF7A9FEFDF7DFFF064B9A
:102C70001870044806F00CFFC2E7B5FBF3F3DDB2B1
:102C8000CDE700BF740A0020780A0020F8B504469A
:102C90000D46012380F8E8300B681E685F683A46ED
:102CA0003146FFF71DFF012819D03A46314620462C
:102CB000FFF716FF022816D03B4B1B78012B16D0CE
:102CC000394B1B78022B34D02B685A681968204680
:102CD000FFF706FF10B9002384F8E830F8BD324B47
:102CE00001221A70E1E7304B02221A70E4E73A46FB
:102CF00031462046FFF74FFFD4F8E0702E68316868
:102D00000020FDF79DFC01463846FDF737FF0028FF
:102D1000D6D0D4F8E47071680020FDF791FC01462C
:102D20003846FDF72BFF0028CAD01F4B00221A702F
:102D3000C6E72F687968A06CFDF784FC06466078CA
:102D4000FDF734FD01463046FDF77AFC024639684E
:102D50002046FFF720FFD4F8E0702E68316800208D
:102D6000FDF76EFC01463846FDF708FF0028ABD0A2
:102D7000D4F8E4707168A06CFDF764FC06466078D6
:102D8000FDF714FD01463046FDF75AFC01460020D0
:102D9000FDF756FC01463846FDF7F0FE002893D0BB
:102DA000014B00221A708FE7700A0020F8B5044624
:102DB000012380F8E8300846FDF7F8FC0546616E0F
:102DC000E06DFDF73FFC014600262846FDF742FD79
:102DD000014632462046FFF7DEFED4F8E070616E11
:102DE000E06DFDF72FFC01462846FDF733FD014657
:102DF0003046FDF725FC01463846FDF7BFFE10B111
:102E0000002384F8E830F8BD10B584B0044691F88A
:102E10003D31012B02D0BBB104B010BD90F8583049
:102E20006BB1012BF8D1114601A801F0D5F901A928
:102E30002046FFF72BFF01A8FEF725FDECE791F8F0
:102E40005C11FFF7D3FEE7E791F85C11FFF7AEFFE7
:102E5000E2E700002DE9F041571A0F4B9F4216D8C8
:102E600004460D461646B910A1B10022FEF71CFD1E
:102E7000206000EB0708C4F80880B54203D03A464A
:102E800029460FF061FEC4F80480BDE8F0810348D4
:102E900007F0AEFA0020EBE7FCFFFF7F708301082C
:102EA00010B582B0044602AB03E9060000230360BC
:102EB0004360836001EB8202FFF7CCFF04E0204611
:102EC000FEF7E1FC06F08CF8204602B010BD10B50C
:102ED00086B00446D1F8E0300393D1F8E43004938F
:102EE00003AB01930223029305AB01AA06CAFFF7C5
:102EF000D7FF204606B010BD004870470C010020E7
:102F000008B501F07DFE03681B69984708BD08B548
:102F100001F076FE03685B69984708BD08B501F0CB
:102F20006FFE03689B69984708BD38B504460D4697
:102F300001F066FE03685B6B2A462146984738BD60
:102F4000F8B504460D46164601F05AFE03685F6C5C
:102F500033462A462146B847F8BDF0B583B004464B
:102F60000D4616461F4601F04BFE0368089A019273
:102F700000971F6D33462A462146B84703B0F0BD7F
:102F800010B5044601F03CFE043003C884E8030099
:102F9000FFF7B2FF0146D02204F10800FEF71AF84D
:102FA00010BD000038B55C4B1B68BFF35B8F13F09E
:102FB000010F03D1584806F04BFDB8B9FFF7A0FF49
:102FC0000446FFF799FF0546006AFDF72FFEFFF75D
:102FD000B4F895F83130002B56D0504B1B78013B9C
:102FE000032B4DD8DFE803F01E2C3C4AFFF78FFF80
:102FF0000446FFF793FF00FB04F4E400484B1C7009
:10300000454806F045FDD9E701339BB2444A1278A2
:103010009A4258D913F0010FF6D0E25C02F0AA02EE
:10302000E254F1E70023F1E701339BB23C4A127806
:103030009A4248D913F0010FF6D00022E254F3E788
:103040000023F3E701339BB2354A12789A423AD90A
:1030500013F0010FF6D1E25C02F05502E254F1E701
:103060000023F1E701339BB22D4A12789A422AD904
:1030700013F0010FF6D10022E254F3E70023F3E747
:10308000264B00221A701EE0244B1B78013B032BB9
:1030900039D8DFE803F0101D2D3601339BB2204AEA
:1030A00012789A420FD913F0010FF6D0E25C42F089
:1030B000AA02E254F1E70023F1E701339BB2184A78
:1030C00012789A42F9D8154A13780133137038BD33
:1030D0000023F4E701339BB2114A12789A42F2D9E5
:1030E00013F0010FF6D1E25C42F05502E254F1E731
:1030F0000023F1E701339BB2094A12789A42F9D8CA
:10310000E1E70023F8E7054B00221A70DBE70248ED
:1031100006F0BAFC05F064FF7C0A002009010020DB
:10312000800A00202DE9F04104460E4690F83D311A
:10313000BBBB90F8343013B3D0F84451D0F8488179
:1031400008E055F8047B3368E16D1868FDF778FAFC
:10315000C7F8D800A845F4D10023C4F8F03060784F
:10316000FDF720FBC4F80801C4F81001D4F8801062
:103170000020FDF765FAC4F80001BDE8F081D0F841
:103180004431D0F8480105E053F8042BD2F8DC10A4
:10319000C2F8D8109842F7D1D4F8F430C4F8F0301F
:1031A000DDE7012BE9D190F83530C3B1D0F84451B7
:1031B000D0F8488108E055F8047B3368A16C586862
:1031C000FDF73EFAC7F8E000A845F4D10023C4F8A3
:1031D000E8302078FDF7E6FAC4F8F800CDE7D0F83B
:1031E0004431D0F8480105E053F8042BD2F8E4103C
:1031F000C2F8E0109842F7D1D4F8EC30C4F8E830C7
:10320000E7E708B5FFF7CEFE08BDD0F84831D0F8A3
:103210004401181AC0F38700704700002DE9F04FF1
:1032200087B00446039190F83D312BB1012B00F09B
:10323000878107B0BDE8F08FFFF7A2FE0120FEF7FF
:103240006BFAD4F84461D4F84831059324E056F879
:10325000045BD5F8D8B0039BD3F80080D5F8307163
:10326000D4F86090D4F85CA0D8F80410A06EFDF7F4
:10327000E9F90490D8F800105846FDF7E3F90097F3
:103280004B4652460499FFF768FEA268D5F8DC1059
:1032900005F1D800FFF7D2FB059BB342D7D194F8D4
:1032A0005C010130FDF782FA05462078FDF77AFAD5
:1032B00006462046FFF7A9FFFDF778FA014630469B
:1032C000FDF77CFB01462846FDF7C4FAC4F8F4007C
:1032D0004FF00008D4F88030D4F8F020D4F8001172
:1032E0004046FEF749FAE26ED4F80811206FFEF767
:1032F00036FA266F4FF07E51D4F80801FDF7A2F997
:1033000005464FF07E513046FDF79CF92946FFF700
:103310000CFE266F4FF08041D4F80801FDF792F9BA
:1033200005464FF080413046FDF78CF92946FFF7FE
:10333000FCFD266F4FF07E51D4F80801FDF780F9AF
:1033400005464FF07E513046FDF77CF92946FFF7E0
:10335000ECFD266F4FF08041D4F80801FDF770F9BD
:1033600005464FF080413046FDF76CF92946FFF7DE
:10337000DCFDE56E2078FDF719FA2946FDF760F9C6
:10338000D4F80861216FFDF75BF92A463146FEF754
:10339000E6F92778E66E4FF07E51D4F80801FDF784
:1033A00051F905463846FDF701FA3146FDF748F96F
:1033B0002946FFF7BAFDE56E2078FDF7F7F92946B3
:1033C000FDF73EF906464FF08041D4F80801FDF7BD
:1033D00039F905464FF07E513046FDF731F929465F
:1033E000FFF7A3FD2778E66E4FF07E51D4F8080171
:1033F000FDF726F905463846FDF7D8F93146FDF7C1
:103400001FF92946FFF791FDE56E2078FDF7CEF90B
:103410002946FDF715F906464FF08041D4F808011A
:10342000FDF70EF905464FF07E513046FDF708F9DD
:103430002946FFF77AFDB74E4FF08041D4F80801D6
:10344000FDF700F901463246D4F89800FEF787F9F7
:10345000D4F898A04FF08041D4F80801FDF7F2F8B5
:103460004FF08145DFF8B0922946FDF7E9F80746AD
:103470004FF080415046FDF7E5F82B464A46394665
:10348000FEF77AF9D4F898702078FDF78FF939466D
:10349000FDF7D6F882464FF08041D4F80801FDF7D9
:1034A000D1F8074631465046FDF7CAF8324639464C
:1034B000FEF755F9D4F898702078FDF777F939467A
:1034C000FDF7BEF83146FDF7BBF807464FF08041E7
:1034D000D4F80801FDF7B6F82946FDF7B1F806461D
:1034E0004FF080413846FDF7ADF82B464A4631464D
:1034F000FEF742F92078FDF755F90246D4F810118D
:103500004046FFF71DFDA268D4F8141104F5887039
:10351000FFF794FAA268D4F80C1104F58470FFF751
:103520008DFAA268D4F8F41004F1F000FFF786FADF
:10353000A268D4F8041104F58070FFF77FFA78E6EA
:10354000FFF71EFD0120FEF7E7F8D4F84431D4F868
:103550004821059225E0D5F8D8A0039BD3F8008038
:10356000216CD5F8E000FDF76DF8616CFDF76AF8A5
:1035700005F58C79D8F80410FDF764F80646D8F8FC
:1035800000105046FDF75EF84A463146FEF7C8FD8A
:10359000E268D5F8E41005F1E000FFF74FFA049B6C
:1035A00004330493059A9A422BD01D6895F83D3157
:1035B000022BD0D1D5F85081D5F854B1C345CAD02B
:1035C00058F8049BD4F8D0602078FDF7EFF8314626
:1035D000FDF736F80646D4F8C4A0D4F8CC10D5F8D8
:1035E000E000FDF72FF8074651463046FDF728F872
:1035F0000146D9F800301E69039B3A464846B04759
:10360000DCE794F85C010130FDF7D0F805466078FE
:10361000FDF7C8F806462046FFF7F7FDFDF7C6F8A8
:1036200001463046FDF7CAF901462846FDF712F972
:10363000C4F8EC00E66B00252078FDF7B7F83146BA
:10364000FCF7FEFF32462946FEF789F894F8008021
:10365000E76B60780138FDF7A9F806464046FDF7AC
:10366000A5F83946FCF7ECFF3A463146FEF777F805
:1036700094F800804FF07C51E06BFDF7EBF8FCF71D
:10368000ABFE0DF075F906460F464046FCF792FE7C
:1036900032463B46FCF740FD804689466078FDF7A0
:1036A00081F8064640464946FCF776FF32462946F1
:1036B000FEF748F8D4F8E830E26B2946D4F8F80071
:1036C000FEF75AF894F8393073B9E268D4F8EC1080
:1036D00004F1E800FFF7B2F9E268D4F8FC1004F155
:1036E000F800FFF7ABF9A4E50220FEF715F82678FD
:1036F0006078FDF757F805463046FDF753F8024667
:1037000000202B460146FEF737F80120FEF704F8AB
:10371000DBE700BF000010410000A04090F85C21F2
:10372000D0F8443153F822007047D0F84001704778
:1037300003684068984214BF00200120704770B5AC
:1037400005460C46024652F8080B0B4653F8081B78
:103750008B4210D082421BD0AE68296062686A60DA
:10376000A268AA60B0B12060A660002363602268EE
:103770001370284670BDA542F7D062682AB9636805
:103780006B602A680021D154EFE7FEF719FDF6E7D8
:103790000020E2E72360E8E770B504460E46802388
:1037A0000370402343702C4B43600830FFF7A0F8B0
:1037B0000025C4F8D850C4F8DC50C4F8E050C4F870
:1037C000E4503022294604F1E8000FF03BFA04F5FA
:1037D0009073C4F81831C4F81C5184F82051C4F80F
:1037E0003051C4F83451C4F83851C4F84451C4F8C5
:1037F0004851C4F84C51C4F85051C4F85451C4F85D
:103800005851314604F58C70FFF799FF012384F875
:103810003C3184F83D51626CC4F8D8200023C4F8D0
:10382000E030C4F8DC20C4F8E43084F85C51C4F81B
:103830004051D4F84431D4F84821934201D0C4F81F
:103840004831D4F83031D4F83421934201D0C4F84F
:103850003431204670BD00BF00007F4310B584B0F6
:103860008446019144680368E31A98106FF0604E33
:10387000AEEBA3038B4210D30390814210D803AB6D
:103880001B681844DCF80030E41AB0EBA40F09D32D
:10389000B0F1005F09D204B010BD104606F0A8FDDB
:1038A00001ABEDE76FF06040F5E76FF06040F2E7E5
:1038B00010B584B08446019144680368E31A9810F7
:1038C0006FF0604EAEEBA3038B4210D303908142A6
:1038D00010D803AB1B681844DCF80030E41AB0EBD6
:1038E000A40F09D3B0F1005F09D204B010BD104697
:1038F00006F07EFD01ABEDE76FF06040F5E76FF09D
:103900006040F2E710B485B0002301930293039363
:10391000046801944268029283680393D1F800C05E
:10392000C0F800C0D1F804C0C0F804C0D1F808C085
:10393000C0F808C00C604A608B6005B010BC7047CE
:1039400010B584B00C460023019302930393FFF754
:10395000D9FF214601A8FFF7D5FF01A8FEF740FCDB
:1039600004B010BD2DE9F04104460F4616468023F1
:103970000370402343702C4B43600830FEF7B8FFC0
:103980000025C4F8D850C4F8DC50C4F8E050C4F89E
:10399000E4503022294604F1E8000FF053F904F511
:1039A0009073C4F81831C4F81C5184F8205104F500
:1039B0009878C4F83051C4F83451C4F83851C4F878
:1039C0004451C4F84851C4F84C51C4F85051C4F89B
:1039D0005451C4F85851394604F58C70FFF7AFFEC6
:1039E0004FF0000231464046FFF7AAFF84F83C51F1
:1039F00084F83D510023C4F8D830C4F8E030C4F84E
:103A0000DC30A36EC4F8E43084F85C51C4F8405153
:103A1000D4F84431D4F84821934201D0C4F8483155
:103A20002046BDE8F08100BF00007F4308B508468E
:103A3000910005F0D3FA08BD08B50846910005F0DD
:103A4000CDFA08BD08B5B1F1005F03D2880006F0D9
:103A500041F808BDB1F1804F01D306F0A1FC06F09A
:103A60008FFC00002DE9F84F05468A4693461E4A12
:103A70000121FFF7F3FED5F800806F68AAEB080478
:103A8000814618B3002201462846FFF7DBFF0646B1
:103A9000DBF800303351002C1ADC04343444A7EB3B
:103AA0000A07002F1ADC3C44AA68A2EB0802921015
:103AB000B8F1000F03D041462846FFF7B7FF2E604C
:103AC0006C6006EB8906AE60BDE8F88F0026DFE784
:103AD0002246414630460FF037F8DEE73A46514677
:103AE00020460FF031F8DEE7A483010808B54368EB
:103AF0008268934205D00A681A60436804334360C1
:103B000008BD0A461946FFF7ADFFF9E72DE9F04178
:103B100082B0019190F83D31022B7DD004460D46D4
:103B200000297BD000F5A2763046FFF701FE18B1E0
:103B300095F83C3184F83D3194F83D2195F83C31BD
:103B40009A4203D0002002B0BDE8F081C5F84041A0
:103B500001A93046FFF7CAFF94F83D31012B41D04F
:103B600094F83D31002B3BD126787608D4F85C8060
:103B70004FF07C514046FCF76DFE05463046FCF7A1
:103B800015FE2946FCF75CFD05462046FFF73DFB88
:103B9000471E616E4046FCF755FD06463846FCF769
:103BA00005FE3146FCF756FE0146019E2846FCF70D
:103BB00049FDC6F8DC00A36EC6F8E4300023C4F863
:103BC00004316078FCF7F2FD0546A16FFCF738FD83
:103BD000C4F80C01616F2846FCF732FDC4F81401EB
:103BE0000120B0E7019D636CC5F8DC302046FFF78B
:103BF0000CFBA66C0138FCF7D9FD3146FCF72AFE18
:103C0000C5F8E400E56B2078FCF7D0FD2946FCF709
:103C100017FDC4F8FC00A3E7002094E7002092E71A
:103C200008B5B1F1005F03D2880005F053FF08BD6D
:103C3000B1F1804F01D306F0B3FB06F0A1FB000009
:103C40002DE9F84F05468A4693461E4A0121FFF7A3
:103C50002FFED5F800806F68AAEB0804814618B3E0
:103C6000002201462846FFF7DBFF0646DBF800305E
:103C70003351002C1ADC04343444A7EB0A07002F1C
:103C80001ADC3C44AA68A2EB08029210B8F1000FBB
:103C900003D041462846FFF7CFFE2E606C6006EB4E
:103CA0008906AE60BDE8F88F0026DFE72246414670
:103CB00030460EF049FFDEE73A46514620460EF008
:103CC00043FFDEE7A483010808B543688268934296
:103CD00005D00A681A6043680433436008BD0A4689
:103CE0001946FFF7ADFFF9E730B583B00192B2B1E5
:103CF0000C46FFF70BFF054610B9284603B030BD50
:103D0000022384F83D3101A904F5A870FFF7DCFF18
:103D10000198C0F8DC4003681B689847EDE7002570
:103D2000EBE7F0B583B004460D4616461F4600F09B
:103D300067FF0368089A019200979F6D33462A46F1
:103D40002146B84703B0F0BDF8B504460D46FFF76D
:103D500017F9D4F8D83083F85C51D4F8D86096F8C5
:103D60003D317BBBD6F8443153F82530D4F8887008
:103D70003946D3F8DC00FCF763FCC4F8E000D6F861
:103D8000443153F825303946D3F8E400FCF758FCA9
:103D9000C4F8E80065782846FCF704FDC4F8FC0088
:103DA000E66F2846FCF702FD3146FCF749FCC4F8F3
:103DB0000001D4F88C30C4F8F030D4F89030C4F856
:103DC000F830F8BD012BFCD1D6F8443153F825303A
:103DD000216DD3F8DC00FCF733FCC4F8E000D6F822
:103DE000443153F82530D3F8E430C4F8E830D6F83D
:103DF000443153F8250000F58C70FDF784FCFCF786
:103E0000D1FC0546606C0146FCF71CFC01462846C7
:103E1000FCF718FCC4F8F000A36CC4F8F830D0E745
:103E200041B108B5C0F8D81091F85C11FFF78CFFCC
:103E3000012008BD002070472DE9F04383B00446FF
:103E40000D46FFF79DF86269D4F8E01004F1DC003C
:103E5000FEF7F4FD2269D4F8E81004F1E400FEF75F
:103E6000EDFDE269D4F8F81004F1F400FEF7E6FD88
:103E7000A269D4F8F01004F1EC00FEF7DFFDD4F8ED
:103E8000D83093F83D312BB1012B00F0808103B085
:103E9000BDE8F0832269D4F8001104F1FC00FEF7BC
:103EA000CDFD0120FDF738FC2078FCF77FFC0646AD
:103EB000D4F8D83093F85C21D3F8443153F8220079
:103EC00000F58C70FDF71FFCFCF76CFC01463046DA
:103ED000FCF7B6FB8046D4F8D83093F85C21D3F8D1
:103EE000443153F8227007F58C77D4F89410D4F845
:103EF000FC00FCF7A7FB06464FF07C514046FCF760
:103F0000A9FC3A463146FEF70BF90220FDF704FC06
:103F1000D4F8DC802F687968D4F8E400FCF792FBD1
:103F2000064639684046FCF78DFB3146FEF7FDFF3B
:103F3000D4F8DC90D5F80080D4F8E4604FF07E51DE
:103F4000D4F88400FCF77EFB0746D8F8041030460E
:103F5000FCF778FB0646D8F800104846FCF772FBE1
:103F60003A463146FDF7FBFBD4F8DC90D5F80080EB
:103F7000D4F8E4604FF07E51D4F88400FCF762FB83
:103F80000746D8F804103046FCF75CFB0646D8F824
:103F900000104846FCF756FB3A463146FDF7D2FB87
:103FA000D4F8DC90D5F80080D8F80410D4F8E400F8
:103FB000FCF748FBD4F8F410FCF744FB06464FF03E
:103FC0007E51D4F88400FCF73DFB07464FF07E514C
:103FD0003046FCF735FB0646D8F800104846FCF79B
:103FE00031FB3A463146FDF7BAFBD4F8DC90D5F800
:103FF0000080D8F80410D4F8E400FCF723FBD4F8D0
:10400000F410FCF71FFBD4F884703946FCF718FB5A
:104010004FF07E51FCF714FB0646D8F800104846D6
:10402000FCF710FB3A463146FDF78CFB2E683168F1
:10403000D4F8DC00FCF706FBD4F8EC10FCF702FB2C
:10404000D4F884804146FCF7FBFA07467168D4F83F
:10405000E400FCF7F7FA06464FF07E513846FCF7CD
:10406000EFFA42463146FDF77AFB2E683168D4F804
:10407000DC00FCF7E7FAD4F8EC10FCF7E3FA804632
:10408000D4F8E4904FF07E51D4F88400FCF7DAFACB
:10409000074671684846FCF7D5FA06464FF07E5150
:1040A0004046FCF7CDFA3A463146FDF74BFB2E6809
:1040B0003168D4F8DC00FCF7C5FAD4F8EC10FCF752
:1040C000C1FAD4F884804146FCF7BAFA0746716811
:1040D000D4F8E400FCF7B6FAD4F8F410FCF7B2FA1E
:1040E0004FF07E51FCF7ACFA06464FF07E51384651
:1040F000FCF7A6FA42463146FDF731FB2E683168DF
:10410000D4F8DC00FCF79EFAD4F8EC10FCF79AFA2D
:1041100007467168D4F8E400FCF794FAD4F8F41078
:10412000FCF790FAD4F884804146FCF789FA4FF006
:104130007E51FCF785FA06464FF07E513846FCF773
:104140007FFA42463146FDF7FDFA2E683168D4F811
:10415000DC00FCF777FAD4F8EC10FCF773FA0546AC
:104160007168D4F8E400FCF76DFAD4F8F410FCF7A9
:1041700069FA4FF07E51FCF763FA04464FF07E5126
:104180002846FCF75DFA2146FEF7CFFE7FE60220C7
:10419000FDF7C2FAD4F8DC902F68D4F8E4504FF061
:1041A0007E51D4F8F400FCF74BFA0646D4F8EC80C4
:1041B00079682846FCF746FA054639684846FCF710
:1041C00041FAE36C0093334642462946FFF7A9FDC6
:1041D0000120FDF7A1FA5AE610B586B00446D1F8E1
:1041E000E0300393D1F8E830049303AB019302234A
:1041F000029305AB01AA06CAFEF752FE204606B09E
:1042000010BD70477047002070470020704770470E
:10421000704790F8E0301BB1012380F8E23070471E
:10422000002380F8E2307047704708B5E42104F0BD
:10423000D5FE08BDF0B583B004460D4616461F46B0
:1042400000F0DEFC0368089A019200971F6E334667
:104250002A462146B84703B0F0BD2DE9F04F83B0A0
:1042600004460E4615461F460430FEF789FE01201F
:10427000FDF752FAD7F80090D4F8CCB0D4F8C8A023
:10428000D9F804102846FCF7DDF98046D9F800106B
:104290003046FCF7D7F9D4F8D83000935B46524645
:1042A0004146FFF7C7FF94F8E23013B903B0BDE809
:1042B000F08FD7F80080D8F800103046FCF7C2F92C
:1042C0000646D4F8C8A04FF07A515046FCF7C2FA1F
:1042D0000746D8F804102846FCF7B4F98146D4F80C
:1042E000CC504FF07A512846FCF7B4FA04464FF010
:1042F0007C512846FCF7AEFA80464FF07C51504680
:10430000FCF7A8FA054621464846FCF79BF9044607
:1043100039463046FCF796F943462A462146FDF7D2
:104320002BFAC3E738B504460D46802303714023BA
:1043300043710D4B83600C30FEF7DAFA0B4B2360B0
:104340000B4B23602B7884F8E0304BB1012384F8C9
:10435000E230002384F8E130C4F8DC30204638BD78
:10436000002384F8E230F4E700007F431885010859
:104370003885010800487047E001002008B500F0CA
:104380003FFC0368DB6A984708BD00002DE9F04F49
:104390008DB00446059191463D4B1B68BFF35B8F82
:1043A00013F0010F40F03481394805F051FB00282B
:1043B00000F02E81D4E904233649C1E900233448B2
:1043C00005F066FB24E10598FDF79DF9FCF7EEF991
:1043D0000546FFF7CFFFD0F894000146FCF732F90D
:1043E00001462846FCF72EF92B4B18602B4805F0A8
:1043F0004FFB25E1FFF7C2FFFCF7D8F90546FFF7B1
:10440000B9FFD0F894000146FCF71CF90146284694
:10441000FCF718F9224B1860224805F039FB1CE123
:10442000214805F015FB002800F01F811C4B19687E
:104430000020FCF705F94FF08241FCF701F91B4B16
:104440001860194805F024FB0FE100F0D9FB407912
:10445000FCF7ACF9124B1968FCF7F2F81449FCF7B9
:10446000ADFA144B186018E100F0CAFB0079FCF7B4
:104470009DF9094B1968FCF7E3F84FF07C51FCF704
:10448000E9F90D4B18600D4805F002FB12E100BF81
:10449000A80A0020B00A0020A40A0020A00A0020D8
:1044A0009C0A0020980A0020900A0020940A00200C
:1044B000000040408C0A0020880A0020840A002066
:1044C00006A8FDF7E0F9A568E16809A8FEF7FFFC7A
:1044D00009A92846FFF7B0FC09A8FDF7D4F9A2689E
:1044E0002168E068FEF790FC0020FDF715F9854F84
:1044F0004FF081413868FCF7A3F80290824E4FF0EC
:1045000081413068FCF79CF88046DFF800A24FF04C
:104510008241DAF80000FCF795F80390DFF8F0B17B
:104520004FF08241DBF80000FCF78CF80490FFF7B5
:1045300021FF05464FF08041D0F89800FCF782F843
:104540000090049B039A41460298FFF7EAFB012082
:10455000FDF7E2F84FF08041DBF80000FCF772F85D
:1045600083464FF08041DAF80000FCF76BF8824692
:104570004FF07E513068FCF763F880464FF07E5173
:104580003868FCF75DF8D5F8983000935B465246E2
:104590004146FFF74FFED5F8948039684046FCF756
:1045A00051F8074631684046FCF74CF88046FFF763
:1045B000E5FEFCF7FBF84146FCF744F80146059A96
:1045C0003846FDF7B2F8FDF787F8D5F89C20514B37
:1045D00019683046FEF732FA226963694E4801686D
:1045E0004068521A63EB00034A4573F100030FD38E
:1045F000474B19680020FCF723F84FF08241FCF785
:104600001FF83168FCF7BAFA10B1444B00221A7057
:10461000424B1B78002B72D023696269013342F14F
:104620000002236162613E4B1B68BFF35B8F13F096
:10463000010F05D13A4805F00BFA00287FF4C3AE0C
:10464000384B1B68BFF35B8F13F0010F05D1354862
:1046500005F0FEF900287FF4CDAE334B1B68BFF3A5
:104660005B8F13F0010F3FF4DBAE226963692A48C8
:1046700001684068521A63EB00034A4573F1000376
:10468000FFF4E3AE224B19680020FBF7D9FF4FF08F
:104690008241FBF7D5FF1F4B1860244B1B68BFF30B
:1046A0005B8F13F0010F05D1204805F0D1F90028E8
:1046B0007FF4DAAEFDF717F82568E16806A8FEF783
:1046C00006FC06A92846FEF7A9FDF9E6144805F000
:1046D000DBF904F085FC134805F0D6F904F080FC02
:1046E000124805F0D1F904F07BFC06A8FDF7CBF8E1
:1046F00004F076FC09A8FDF7C6F804F071FC0DB0D3
:10470000BDE8F08F880A0020940A0020A40A002047
:104710009C0A00208C0A0020B00A0020DC01002046
:10472000A00A0020980A0020900A0020840A002095
:1047300070B584B005460E460160EC2005F0CAF95C
:10474000044600210A46FEF7A5F9EC60214601A8BF
:10475000FEF7BDFB01A93046FEF7E4FC01A8FDF71A
:1047600092F84FF4827005F0B5F904464FF4827266
:1047700000210EF067FA80232370402363700E4BF4
:10478000636004F10800FEF7B3F8AC6031462046E0
:10479000FFF746FB0321A868FFF7D6FA04B070BD07
:1047A000EC21204604F01AFC04F01AFC01A8FDF7E5
:1047B0006AF804F015FC00BF00007F4330B593B0E9
:1047C00004460068FEF7AAFFB0B12068FEF7A6FF16
:1047D000FEF71BFD00B32068FEF713FD2068FEF70F
:1047E0009DFF05462060E1680FA8FEF770FB0FA94A
:1047F0002846FEF797FC1FE007AA1C4901A8FDF711
:1048000057FD4FF4167201A92046FFF7BFFD01A81E
:10481000FDF71BF8002017E00EAA154908A8FDF7C0
:1048200047FD4FF4167208A92046FFF7AFFD08A810
:10483000FDF70BF8002007E00FA8FDF724F821682A
:10484000A068FFF7EDFA012013B030BD01A8FCF716
:10485000FCFF04F0C5FB08A8FCF7F7FF04F0C0FB61
:104860000FA8FDF710F804F0BBFB00BF508501084E
:104870006485010830B593B004460068FEF755FF23
:10488000B0B12068FEF751FFFEF7BFFC00B320680F
:10489000FEF7B7FC2068FEF748FF05462060E16898
:1048A0000FA8FEF714FB0FA92846FEF73BFC1FE0FC
:1048B00007AA1C4901A8FDF7FBFC4FF4167201A9D9
:1048C0002046FFF763FD01A8FCF7BFFF002017E0BB
:1048D0000EAA154908A8FDF7EBFC4FF4167208A9BB
:1048E0002046FFF753FD08A8FCF7AFFF002007E0C4
:1048F0000FA8FCF7C8FF2168A068FFF791FA012014
:1049000013B030BD01A8FCF7A0FF04F069FB08A8B4
:10491000FCF79BFF04F064FB0FA8FCF7B4FF04F066
:104920005FFB00BF508501086485010870B58AB03F
:104930000446FCF7D8FE2568E16801A8FEF7C7FA2F
:1049400001A92846FEF76AFC01A8FCF79CFF6568F0
:104950005DB12B685E69E16804A8FEF7B8FA04A9A6
:104960002846B04704A8FCF78EFFA568E16807A8B1
:10497000FEF7ADFA07A92846FFF75EFA07A8FCF78D
:1049800082FFA2682168E068FEF73EFA2369626947
:10499000A3F5FA7313434CD023696269A3F54873F6
:1049A00013434BD023696269A3F59663134349D03F
:1049B00023696269A3F2DC53134348D02369626917
:1049C000A3F5E163134347D023696269A3F6340377
:1049D000134346D023696269A3F6FC03134345D011
:1049E00023696269A3F6C413134344D0236962693F
:1049F000A3F65433134342D023696269A3F5486395
:104A0000134340D02169636940F6B242914273F189
:104A1000000303D300220023C4E90423FCF75CFE57
:104A200023696269013342F10002236162610AB0C5
:104A300070BD0321A068FFF787F9ADE72046FFF7B7
:104A4000BDFEAFE70121A068FFF77EF9B0E70321C3
:104A5000A068FFF779F9B1E70421A068FFF774F9BE
:104A6000B2E70121A068FFF76FF9B3E70021A06862
:104A7000FFF76AF9B4E72046FFF7A0FEB6E7204645
:104A8000FFF7F8FEB8E70021A068FFF75DF9B9E786
:104A900001A8FCF7F8FE04F0A3FA04A8FCF7F3FE63
:104AA00004F09EFA07A8FCF7EEFE04F099FA000065
:104AB00000B583B00A4B5A6942F001025A615B6942
:104AC00003F001030193019B002211460F2002F025
:104AD000D1FF0F2002F0DEFF03B05DF804FB00BF42
:104AE0000010024070B588B0002404940594069428
:104AF0000794234B9A6942F020029A619A6902F066
:104B000020020192019A9A6942F004029A619A691C
:104B100002F004020292029A9A6942F008029A6133
:104B20009B6903F008030393039B164D224604215F
:104B3000284603F05CFA01221821284603F057FAB0
:104B4000042304930126059602230693079304A9E0
:104B5000284603F037F91823049305960696032395
:104B6000079304A9284603F02DF9C0230493059464
:104B7000069404A9284603F025F908B070BD00BFCB
:104B800000100240000801407047002070470020DC
:104B9000704700207047704770477047002070478B
:104BA00000207047704770477047704770477047E4
:104BB000704770477047704770477047704770473D
:104BC00000207047002070470020704770477047F2
:104BD000704770477047002070477047014B036073
:104BE000704700BF9085010810B50446034B036071
:104BF000102104F0F3F9204610BD00BF9085010894
:104C0000014B1868704700BFDC0A002010B504464D
:104C1000FFF7F6FF0368D3F88C302146984710BDA4
:104C200010B50024012C06DCE0B2FFF7EFFF0346CD
:104C300010B90134F6E70023184610BD08B5FFF798
:104C4000DFFF0368D3F89030984708BD10B5304BAC
:104C50001B78022B0CD804465AB21ABB3BB9FFF79B
:104C6000EDFF78B900232B4A13702B4A137010BD47
:104C7000032BFCD1FFF7E2FF0028F8D1244B0022E0
:104C80001A70F4E70020FFF7C1FF10B1204B01229A
:104C90001A700120FFF7BAFF0028E3D01C4B022254
:104CA0001A70DFE7FFF7CAFF28B31B4B1B7813B955
:104CB000194B01221A70174A13780133DBB21370B3
:104CC000642BD4D90020FFF7A1FF18B1022323736E
:104CD000002363730120FFF799FF18B10223637368
:104CE0000023237300230B4A13700B4A1370084BE5
:104CF00003221A70BBE7084B1B781BB1044B03223D
:104D00001A70B4E70023024A137063732373AEE78B
:104D1000B80A0020BA0A0020B90A002010B50446DB
:104D2000FFF78CFF70B10023012B09D8E218127B2A
:104D3000012A04D0022A09D00133DBB2F4E713B907
:104D40000023A38110BD012BFAD0F5E7002BF7D08B
:104D5000012BF5D0F0E7000040B110B50446036820
:104D6000DB689847024B1C60012010BD0020704793
:104D7000DC0A002070B506460C46083030600D464F
:104D800055F8083B9D420AD033608B68B360636876
:104D900073602560002363602372304670BD4A68EB
:104DA0000132F4D02946FCF715F9F0E730B585B0AB
:104DB0008446019144680368E31ADB10114803FB41
:104DC00000F0114D2D1A8D4213D30390814213D858
:104DD00003AA12681044DCF80030E41AE410094B0E
:104DE00003FB04F4A04209D3074B984208D805B04E
:104DF00030BD104605F0FCFA01AAEAE70248F6E7E2
:104E00000148F4E7ABAAAAAA55555505F8B5456877
:104E10008D420AD007460E460C4603E02046FCF7BA
:104E200014FD1834A542F9D17E60F8BD08B50846D6
:104E300002EB4202D10004F0D1F808BD10B50446DF
:104E400001688268521AD210034B03FB02F209B1C7
:104E5000FFF7ECFF204610BDABAAAAAA70B5064624
:104E60000468456803E02046FCF7EFFC1834A542CF
:104E7000F9D13046FFF7E2FF304670BD70B5044609
:104E80000E46154608E021462846FFF773FF2046E8
:104E9000FCF7DBFC18341835B442F4D1284670BD59
:104EA00010B582B0044601AA0249FDF701FA204676
:104EB00002B010BD7085010870B582B004460E4680
:104EC000551A01950F2D0DD800942A4631462068B9
:104ED000FDF776F900220092019B63602168CA54B5
:104EE00002B070BD002201A9FDF7A8F92060019B66
:104EF000A360E9E710B504460B4600F10802026022
:104F000009685A684FF000030A44FFF7D5FF2046AE
:104F100010BD000008B5084B994205D801EB4101CE
:104F2000C80004F0D7FD08BD044B994201D905F033
:104F300037FA05F025FA00BF55555505AAAAAA0A61
:104F40002DE9F84F044688469246274A0121FFF78B
:104F50002DFF2768D4F804B0A8EB0709054658B11F
:104F6000002201462046FFF7D5FF0646B1445146D0
:104F70004846FFF7BFFF01E00026F7E72346324629
:104F800041463846FFF77AFF234600F1180259469A
:104F90004046FFF773FF8046A368DB1BDB10134A14
:104FA00003FB02F21FB139462046FFF73FFF2660A0
:104FB000C4F8048005EB450506EBC505A560BDE812
:104FC000F88F04F0D3F846B94846FCF73EFC04F0ED
:104FD00007FD04F00BF904F003F82A463146204699
:104FE000FFF724FFF3E700BFA4830108ABAAAAAA36
:104FF00010B504464068A368984205D0FFF77AFFD1
:1050000063681833636010BD0A4601462046FFF707
:1050100097FFF8E738B50C46434B1B68BFF35B8F2F
:1050200013F0010F28D0414B1B68BFF35B8F13F0C7
:10503000010F03D13D4804F00BFD58BB3C4B1B68EE
:10504000BFF35B8F13F0010F31D03A4A53681168F8
:105050005B1ADB10384A02FB03F3384A12789A4293
:1050600032D921463348FFF7C3FFFCF73CFB02204F
:10507000FCF752FB00243DE02B4804F0E9FC00283B
:10508000D1D02F4A2F492B4803F024FF264804F0A3
:10509000FFFCC8E7FFF7B4FD4579FFF76FF9B5FBF3
:1050A000F0F5264B1D70214804F0F2FCC6E72048BD
:1050B00004F0CEFC0028C8D0FFF760F9224B18702E
:1050C0001B4804F0E5FCC0E71A48FFF79FFEC8E75D
:1050D0001D4B1B7803FB044004EB440105EBC105A9
:1050E0001844FBF763FB01462A460020FCF71DFB32
:1050F0000134E4B20F4A536815685B1BDB100E499C
:1051000001FB03F39C42E3D3FCF7E6FA0120FCF732
:1051100003FB38BD054804F0B7FC03F061FF044809
:1051200004F0B2FC03F05CFFCC0A0020C40A0020AB
:10513000BC0A0020D00A0020ABAAAAAAC80A0020F4
:10514000000000205D4E0008C00A00207047704734
:10515000704770477047704708B539B180210748DC
:1051600002F03EFF003818BF012008BD402103486F
:1051700002F036FF003818BF0120F6E700080140B2
:1051800008B502F029F908BD00B591B02822002128
:1051900006A80DF057FD0023019302930393049397
:1051A0000593012206924FF4803307930A9202225C
:1051B0000D920E934FF4E0130F9306A802F034FF04
:1051C00080B90F23019302210291002303934FF42E
:1051D00080620492059301A803F058F928B911B030
:1051E0005DF804FB01F06FFFEBE701F06CFFF6E701
:1051F00008B5FFF777FC08BD704708B501F0B8FFA8
:1052000008BD08B5FFF754FC08BD08B5FCF7EEF97A
:1052100008BD08B5084602F003F908BD08B502F05C
:10522000F9F808BD094B18684FF0E02253699269FC
:105230009B1A074A12680749A1FB0212920CB3FBA2
:10524000F2F34FF47A7202FB00307047840F0020B3
:10525000B002002083DE1B4310B50B4C204602F049
:105260009FFA3221204602F0EFF8204602F052FA6F
:1052700010F4007F02D1054B186810BD204602F0E3
:10528000A5F9024B1860F6E794090020E00A002017
:105290002DE9F04F83B007460E4691461D46DDF8D6
:1052A000308090F892A0CB18541CA4B200949BB20A
:1052B00000F0FFFF78B3BAFA8AFB4FEA5B1B0124C8
:1052C00014E087F892A00023009301234A46314658
:1052D000384600F040FF0136B6B2640014F0FF0417
:1052E00002D108F101080124013DADB28DB198F859
:1052F00000302342E5D197F89130002BEBD187F8AD
:1053000092B0009301234A463146384600F023FF0D
:10531000E1E787F892A003B0BDE8F08F2DE9F047F0
:1053200082B08246884614461F46BDF828500B9E20
:1053300003F10709C9F3CC0903EB010C53199BB224
:1053400000931FFA8CF300F0B4FF60B90DE00096F3
:105350003B46224641465046FFF79AFF4E440134F1
:10536000A4B2013DADB2002DF1D102B0BDE8F0878D
:105370002DE9F04182B080460F4614461E46BDF826
:10538000205001EB030C53199BB200931FFA8CF3CE
:1053900000F08FFF60B90DE00022009233462246F4
:1053A0003946404600F0D7FE0134A4B2013DADB20B
:1053B000002DF1D102B0BDE8F0812DE9F04782B0B7
:1053C00080460D4614461E46BDF82890CF18BFB241
:1053D00002EB09039BB200933B4600F06AFF10B951
:1053E00002B0BDE8F08700230093334622462946E9
:1053F000404600F0B0FEB9F1010FF1D9A9F1020960
:105400001FFA89F90134A4B2B9F1000F08D10023C1
:105410000093334622462946404600F09CFEDFE7D3
:105420004FF0010ACDF800A04B46224629464046DF
:1054300000F091FE791ECDF800A04B46224689B2BD
:10544000404600F088FEA1441FFA89F4DFE72DE909
:10545000F04F87B080460C469246BDF84060BDF8DC
:105460004470039104931C44A4B29519ADB2009505
:10547000234600F01EFF10B907B0BDE8F08F039A75
:1054800002EB07091FFA89F90AEB070B1FFA8BFBDE
:10549000E41BA4B2013CA4B2ED1BADB2013DADB220
:1054A000022300933B465A464946404600F074FAB0
:1054B000012300933B465A462146404600F06CFAD1
:1054C000042300933B462A464946404600F064FACE
:1054D000082300933B462A462146404600F05CFAEA
:1054E000049BDB1B9BB2DB1B9BB209F101091FFA7A
:1054F00089F90BF1010B1FFA8BFB022B0FD8F61B5E
:10550000B6B2F61BB6B2022EB6D9023EB6B20096BD
:10551000049B5A4603994046FFF72AFFACE7023B3B
:105520009BB27C1CA4B20094059352464946404667
:10553000FFF71EFF0094059B2A4649464046FFF7A9
:1055400017FFDCE72DE9F04F85B007460C46904683
:10555000BDF838B0BDF83C60029103931C44A4B27E
:1055600002EB0B05ADB20095234600F0A2FE10B988
:1055700005B0BDE8F08F029A02EB060A1FFA8AFA1C
:1055800008EB06091FFA89F9A41BA4B2013CA4B2D6
:10559000AD1BADB2013DADB20223009333464A4686
:1055A0005146384600F0D4F90123009333464A4669
:1055B0002146384600F0CCF90423009333462A46AE
:1055C0005146384600F0C4F90823009333462A4672
:1055D0002146384600F0BCF9039B9B1B9BB29B1BEA
:1055E0009BB2ABEB0604A4B2A41BA4B20AF1010A5D
:1055F0001FFA8AFA09F101091FFA89F9022B16D854
:10560000022CB5D9023CA4B2039B5D1EADB2234669
:105610004A46029E3146384600F00AFE3146294489
:1056200023464A4689B2384600F002FEA0E7023B14
:105630009DB20BF1FF3B1FFA8BFB2B4642465146B6
:10564000384600F0EDFD08EB0B022B4692B25146B6
:10565000384600F0E5FDD3E710B582B003681B7C47
:10566000446B03FB01F1C90089B20C440094002192
:1056700001F002F902B010BD2DE9F041064690F8A4
:10568000387090F83950036893F8118000242A4646
:1056900021463046FFF7E0FF0134E4B20135EDB2B8
:1056A000A74201D9A845F2D8BDE8F08108B5036842
:1056B0001B7C90F8382003FB02F2D2000021406BE3
:1056C0000DF0C0FA08BD10B50446FFF7D5FF20461F
:1056D00001F0F8F810BD2DE9F84380460F469146D9
:1056E0001C46BDF820609DF8245015F0010F0AD12A
:1056F00015F0020F16D115F0080F24D115F0040F84
:1057000032D1BDE8F883B21A591892B289B200F0CA
:1057100097FDF21B04EB090192B289B2404600F0FA
:105720008FFDE5E7A6EB0902E11B92B289B2404684
:1057300000F086FDF21BA4EB090192B289B240464B
:1057400000F07EFDD7E706EB0902E11992B289B2BB
:10575000404600F075FDBA1904EB090192B289B216
:10576000404600F06DFDC9E706EB0902E11B92B26D
:1057700089B2404600F064FDBA19A4EB090192B267
:1057800089B2404600F05CFDBBE72DE9F04F85B0E3
:105790000390894692461E469DF838B0C3F1010435
:1057A00024B2C3EBC3384FEA48080FFA88F8CDF8A3
:1057B00004B000920B4632460021FFF78CFF002513
:1057C00001271AE0013EB6B208F102081FFA88F379
:1057D0000FFA88F823441CB20135ADB20237BBB2D0
:1057E0003FB223441CB2CDF804B0CDF800A04B4624
:1057F000324629460398FFF76EFFB54202D2002CCD
:10580000E0DAE9E705B0BDE8F08F2DE9F84380461E
:105810000C4617461D46BDF820909DF8246016F0F2
:10582000010F0AD116F0020F1BD116F0080F2DD16F
:1058300016F0040F3BD1BDE8F883531CA9EB02021C
:1058400069189BB292B289B200F0F2FC631CA9EB1A
:105850000402E9199BB292B289B2404600F0E8FC1A
:10586000E0E77B1CA9EB0702291B9BB292B289B22D
:10587000404600F0DDFC631CA9EB0402E91B9BB26F
:1058800092B289B2404600F0D3FCCEE77B1C2919C6
:105890009BB24A4689B2404600F0CAFC631CE91933
:1058A0009BB24A4689B2404600F0C2FCC0E77B1C6E
:1058B000291B9BB24A4689B2404600F0B9FC631CE2
:1058C000E91B9BB24A4689B2404600F0B1FCB2E700
:1058D0002DE9F04F85B00390894692461E469DF80B
:1058E00038B0C3F1010424B2C3EBC3384FEA48080F
:1058F0000FFA88F8CDF804B000920B46324600212A
:10590000FFF783FF002501271AE0013EB6B208F138
:1059100002081FFA88F30FFA88F823441CB20135F5
:10592000ADB20237BBB23FB223441CB2CDF804B0D3
:10593000CDF800A04B46324629460398FFF765FF95
:10594000B54202D2002CE0DAE9E705B0BDE8F08FFD
:105950002DE9F04182B080460E4617461D46CB1811
:105960009BB2AC18A4B20133521B491B0134A4B240
:1059700000949BB292B289B200F09BFC10B902B0C5
:10598000BDE8F0819DF8203000932B463A46314621
:105990004046FFF7FAFEF2E72DE9F04182B080467B
:1059A0000E4617461D46CB189BB2AC18A4B2013365
:1059B000521B491B0134A4B200949BB292B289B22B
:1059C00000F077FC10B902B0BDE8F0819DF82030FE
:1059D00000932B463A4631464046FFF779FFF2E7FF
:1059E0000823037000487047E40A002030B585B0F2
:1059F00004460D4600931346084A094900F084FF07
:105A00000DF10F00FFF7ECFF01460095054B9DF8E7
:105A10000F20204600F045FD05B030BD8B66000824
:105A2000CD670008DF620008405C70474218435CA5
:105A3000507800EB032080B270470020704738B5E3
:105A400004460D4600212846FFF7EEFF2070012195
:105A50002846FFF7E9FF607002212846FFF7E4FFC0
:105A6000A07003212846FFF7DFFFE07004212846DD
:105A7000FFF7DAFF207105212846FFF7D5FF607197
:105A800006212846FFF7D0FFA07107212846FFF71F
:105A9000CBFFE07108212846FFF7C6FF20720921DD
:105AA0002846FFF7C1FF60720A212846FFF7BCFFB6
:105AB000A0720B212846FFF7B7FFE0720C212846A1
:105AC000FFF7B2FF20730D212846FFF7ADFF60738B
:105AD0000E212846FFF7A8FFA0730F212846FFF7E5
