:020000040800F2
:1000000000500020BD8F0008D5730008D77300088A
:10001000D9730008DB730008DD73000800000000DE
:10002000000000000000000000000000DF73000876
:10003000E173000800000000E3730008E5730008A6
:10004000059000080590000805900008059000083C
:10005000059000080590000805900008059000082C
:10006000059000080590000805900008059000081C
:10007000059000080590000805900008ED73000841
:1000800005900008059000080590000805900008FC
:1000900005900008059000080590000805900008EC
:1000A00005900008059000080590000805900008DC
:1000B00005900008059000080590000805900008CC
:1000C00005900008059000080590000805900008BC
:1000D000FD730008059000080590000805900008D1
:1000E0000590000805900008059000080000000039
:1000F0000000000000000000000000000000000000
:0C01000000000000000000005FF808F1A3
:1001100081F0004102E000BF83F0004330B54FEAB8
:1001200041044FEA430594EA050F08BF90EA020F25
:100130001FBF54EA000C55EA020C7FEA645C7FEAB8
:10014000655C00F0E2804FEA5454D4EB5555B8BFDB
:100150006D420CDD2C4480EA020281EA030382EA4C
:10016000000083EA010180EA020281EA0303362DDE
:1001700088BF30BD11F0004F4FEA01314FF4801CB1
:100180004CEA113102D0404261EB410113F0004FC3
:100190004FEA03334CEA133302D0524263EB43037A
:1001A00094EA050F00F0A780A4F10104D5F1200E18
:1001B0000DDB02FA0EFC22FA05F2801841F1000173
:1001C00003FA0EF2801843FA05F359410EE0A5F147
:1001D00020050EF1200E012A03FA0EFC28BF4CF078
:1001E000020C43FA05F3C01851EBE37101F000452E
:1001F00007D54FF0000EDCF1000C7EEB00006EEB3B
:100200000101B1F5801F1BD3B1F5001F0CD34908C4
:100210005FEA30004FEA3C0C04F101044FEA44521B
:1002200012F5800F80F09A80BCF1004F08BF5FEAA2
:10023000500C50F1000041EB045141EA050130BD82
:100240005FEA4C0C404141EB0101013C28BFB1F594
:10025000801FE9D291F0000F04BF01460020B1FADF
:1002600081F308BF2033A3F10B03B3F120020CDAB2
:100270000C3208DD02F1140CC2F10C0201FA0CF090
:1002800021FA02F10CE002F11402D8BFC2F1200CF5
:1002900001FA02F120FA0CFCDCBF41EA0C019040AB
:1002A000E41AA2BF01EB0451294330BD6FEA0404F4
:1002B0001F3C1CDA0C340EDC04F11404C4F12002DF
:1002C00020FA04F001FA02F340EA030021FA04F3F1
:1002D00045EA030130BDC4F10C04C4F1200220FA48
:1002E00002F001FA04F340EA0300294630BD21FA86
:1002F00004F0294630BD94F0000F83F4801306BF4C
:1003000081F480110134013D4EE77FEA645C18BF3F
:100310007FEA655C29D094EA050F08BF90EA020FD6
:1003200005D054EA000C04BF1946104630BD91EACE
:10033000030F1EBF0021002030BD5FEA545C05D1D1
:100340004000494128BF41F0004130BD14F5800410
:100350003CBF01F5801130BD01F0004545F0FE4184
:1003600041F470014FF0000030BD7FEA645C1ABFB9
:10037000194610467FEA655C1CBF0B46024650EAF0
:10038000013406BF52EA033591EA030F41F400211C
:1003900030BD00BF90F0000F04BF0021704730B5A2
:1003A0004FF4806404F132044FF000054FF0000177
:1003B00050E700BF90F0000F04BF0021704730B538
:1003C0004FF4806404F1320410F0004548BF40420D
:1003D0004FF000013EE700BF42004FEAE2014FEA62
:1003E00031014FEA02701FBF12F07F4393F07F4F3D
:1003F00081F06051704732F07F4208BF704793F040
:100400007F4F04BF41F40021704730B54FF4607452
:1004100001F0004521F000411CE700BF50EA010255
:1004200008BF704730B54FF000050AE050EA0102FE
:1004300008BF704730B511F0004502D5404261EB6E
:1004400041014FF4806404F132045FEA915C3FF4AF
:10045000D8AE4FF003025FEADC0C18BF03325FEA4C
:10046000DC0C18BF033202EBDC02C2F1200300FAFD
:1004700003FC20FA02F001FA03FE40EA0E0021FA22
:1004800002F11444BDE600BF4FF0FF3C06E000BFA0
:100490004FF0010C02E000BF4FF0010C4DF804CD0D
:1004A0004FEA410C7FEA6C5C4FEA430C18BF7FEACD
:1004B0006C5C1BD001B050EA410C0CBF52EA430CFB
:1004C00091EA030F02BF90EA020F0020704710F17B
:1004D000000F91EA030F58BF994208BF90422CBF0A
:1004E000D8176FEAE37040F0010070474FEA410C03
:1004F0007FEA6C5C02D150EA013C07D14FEA430C21
:100500007FEA6C5CD6D152EA033CD3D05DF8040B91
:10051000704700BF8446104662468C4619466346C3
:1005200000E000BF01B5FFF7B7FF002848BF10F19A
:10053000000F01BD4DF808EDFFF7F4FF0CBF0120DF
:1005400000205DF808FB00BF4DF808EDFFF7EAFF5B
:1005500034BF012000205DF808FB00BF4DF808ED16
:10056000FFF7E0FF94BF012000205DF808FB00BF0B
:100570004DF808EDFFF7CEFF94BF012000205DF895
:1005800008FB00BF4DF808EDFFF7C4FF34BF0120A2
:1005900000205DF808FB00BF4FEA4102B2F1E043E2
:1005A00024BFB3F5001CDCF1FE5C0DD901F0004C5A
:1005B0004FEAC0024CEA5070B2F1004F40EB8300AA
:1005C00008BF20F00100704711F0804F21D113F1D6
:1005D0003872BCBF01F00040704741F480114FEA0F
:1005E0005252C2F11802C2F1200C10FA0CF320FA98
:1005F00002F018BF40F001004FEAC1234FEAD323B5
:1006000003FA0CFC40EA0C0023FA02F34FEA43031E
:10061000CCE77FEA625307D150EA01331EBF4FF0A7
:10062000FE4040F44000704701F0004040F0FE40C2
:1006300040F40000704700BF80F0004002E000BFBF
:1006400081F0004142001FBF5FEA410392EA030FBD
:100650007FEA226C7FEA236C6AD04FEA1262D2EB07
:100660001363C1BFD218414048404140B8BF5B420C
:10067000192B88BF704710F0004F40F4000020F0A5
:100680007F4018BF404211F0004F41F4000121F0BB
:100690007F4118BF494292EA030F3FD0A2F1010205
:1006A00041FA03FC10EB0C00C3F1200301FA03F143
:1006B00000F0004302D5494260EB4000B0F5000F66
:1006C00013D3B0F1807F06D340084FEA310102F125
:1006D0000102FE2A51D2B1F1004F40EBC25008BFD7
:1006E00020F0010040EA03007047490040EB0000A1
:1006F000013A28BFB0F5000FEDD2B0FA80FCACF1A2
:10070000080CB2EB0C0200FA0CF0AABF00EBC250CE
:1007100052421843BCBFD0401843704792F0000FBC
:1007200081F4000106BF80F400000132013BB5E70F
:100730004FEA41037FEA226C18BF7FEA236C21D085
:1007400092EA030F04D092F0000F08BF08467047EA
:1007500090EA010F1CBF0020704712F07F4F04D1B8
:10076000400028BF40F00040704712F100723CBFCB
:1007700000F50000704700F0004343F0FE4040F4F5
:10078000000070477FEA226216BF08467FEA2363B3
:100790000146420206BF5FEA412390EA010F40F49E
:1007A000800070474FF0000304E000BF10F00043EA
:1007B00048BF40425FEA000C08BF704743F09643D1
:1007C00001464FF000001CE050EA010208BF7047EC
:1007D0004FF000030AE000BF50EA010208BF704773
:1007E00011F0004302D5404261EB41015FEA010C88
:1007F00002BF84460146002043F0B64308BFA3F180
:100800008053A3F50003BCFA8CF2083AA3EBC25361
:1008100010DB01FA02FC634400FA02FCC2F1200280
:10082000BCF1004F20FA02F243EB020008BF20F0B7
:100830000100704702F1200201FA02FCC2F120021D
:1008400050EA4C0021FA02F243EB020008BF20EA12
:10085000DC7070474FF0FF0C1CEAD0521EBF1CEA40
:10086000D15392EA0C0F93EA0C0F6FD01A4480EA2E
:10087000010C400218BF5FEA41211ED04FF0006317
:1008800043EA501043EA5111A0FB01310CF0004043
:10089000B1F5000F3EBF490041EAD3715B0040EA69
:1008A000010062F17F02FD2A1DD8B3F1004F40EB39
:1008B000C25008BF20F00100704790F0000F0CF00C
:1008C000004C08BF49024CEA502040EA51207F3AD0
:1008D000C2BFD2F1FF0340EAC250704740F40000AB
:1008E0004FF00003013A5DDC12F1190FDCBF00F09C
:1008F00000407047C2F10002410021FA02F1C2F14A
:10090000200200FA02FC5FEA310040F1000053EAE5
:100910004C0308BF20EADC70704792F0000F00F033
:10092000004C02BF400010F4000F013AF9D040EA39
:100930000C0093F0000F01F0004C02BF490011F4CD
:10094000000F013BF9D041EA0C018FE70CEAD153CB
:1009500092EA0C0F18BF93EA0C0F0AD030F0004C4B
:1009600018BF31F0004CD8D180EA010000F00040FF
:10097000704790F0000F17BF90F0004F084691F0BD
:10098000000F91F0004F14D092EA0C0F01D14202F7
:100990000FD193EA0C0F03D14B0218BF084608D1C0
:1009A00080EA010000F0004040F0FE4040F400000A
:1009B000704740F0FE4040F4400070474FF0FF0C9D
:1009C0001CEAD0521EBF1CEAD15392EA0C0F93EAE4
:1009D0000C0F69D0A2EB030280EA010C49024FEA36
:1009E000402037D04FF0805343EA111143EA1013EF
:1009F0000CF000408B4238BF5B0042F17D024FF4A7
:100A0000000C8B4224BF5B1A40EA0C00B3EB510F81
:100A100024BFA3EB510340EA5C00B3EB910F24BF6A
:100A2000A3EB910340EA9C00B3EBD10F24BFA3EBEF
:100A3000D10340EADC001B0118BF5FEA1C1CE0D1B7
:100A4000FD2A3FF650AF8B4240EBC25008BF20F06A
:100A5000010070470CF0004C4CEA50207F32C2BFBE
:100A6000D2F1FF0340EAC250704740F400004FF05B
:100A70000003013A37E792F0000F00F0004C02BF8C
:100A8000400010F4000F013AF9D040EA0C0093F056
:100A9000000F01F0004C02BF490011F4000F013BB0
:100AA000F9D041EA0C0195E70CEAD15392EA0C0F18
:100AB00008D142027FF47DAF93EA0C0F7FF470AF50
:100AC000084676E793EA0C0F04D14B023FF44CAF93
:100AD00008466EE730F0004C18BF31F0004CCAD128
:100AE00030F000427FF45CAF31F000437FF43CAF64
:100AF0005FE700BF4FF0FF3C06E000BF4FF0010C86
:100B000002E000BF4FF0010C4DF804CD4FEA400267
:100B10004FEA41037FEA226C18BF7FEA236C11D0B1
:100B200001B052EA530C18BF90EA010F58BFB2EB64
:100B3000030088BFC81738BF6FEAE17018BF40F0E4
:100B4000010070477FEA226C02D15FEA402C05D198
:100B50007FEA236CE4D15FEA412CE1D05DF8040B1D
:100B6000704700BF844608466146FFE70FB5FFF7B0
:100B7000C9FF002848BF10F1000F0FBD4DF808ED68
:100B8000FFF7F4FF0CBF012000205DF808FB00BF59
:100B90004DF808EDFFF7EAFF34BF012000205DF8B3
:100BA00008FB00BF4DF808EDFFF7E0FF94BF012000
:100BB00000205DF808FB00BF4DF808EDFFF7D2FFFD
:100BC00094BF012000205DF808FB00BF4DF808ED40
:100BD000FFF7C8FF34BF012000205DF808FB00BF0D
:100BE0004FEA4002B2F1FE4F0FD34FF09E03B3EB3A
:100BF00012620DD94FEA002343F0004310F0004F7A
:100C000023FA02F018BF404270474FF000007047CF
:100C100012F1610F01D1420205D110F0004008BF6E
:100C20006FF0004070474FF00000704742000ED256
:100C3000B2F1FE4F0BD34FF09E03B3EB126209D417
:100C40004FEA002343F0004323FA02F070474FF0CD
:100C50000000704712F1610F01D1420202D14FF042
:100C6000FF3070474FF00000704700BF00F13401C3
:100C700091E838009C46A6464CF8045D90E8FF0FCA
:100C8000E54600BD90EC210B704700BF80EC210BC6
:100C9000704700BF90EC200B704700BF80EC200B2A
:100CA000704700BFD0EC200B704700BFC0EC200B9A
:100CB000704700BFF0EC0201F0EC0211F0EC0221F1
:100CC000F0EC0231F0EC0241F0EC0251F0EC026188
:100CD000F0EC0271F0EC0281F0EC0291F0EC02A178
:100CE000F0EC02B1F0EC02C1F0EC02D1F0EC02E168
:100CF000F0EC02F1704700BFE0EC0201E0EC021101
:100D0000E0EC0221E0EC0231E0EC0241E0EC0251C7
:100D1000E0EC0261E0EC0271E0EC0281E0EC0291B7
:100D2000E0EC02A1E0EC02B1E0EC02C1E0EC02D1A7
:100D3000E0EC02E1E0EC02F1704700BFB0FC0181A1
:100D4000B0FC0191B0FC01A1B0FC01B1704700BF43
:100D5000A0FC0181A0FC0191A0FC01A1A0FC01B1BB
:100D6000704700BFEC4600B52DE900502DE9FF1F8C
:100D70004FF000032DE90C0001A910F095F8DDF803
:100D800040E012B0704700BFEC4600B52DE90050BE
:100D90002DE9FF1F4FF000032DE90C0001A910F011
:100DA000C3F8DDF840E012B0704700BFEC4600B574
:100DB0002DE900502DE9FF1F4FF000032DE90C0035
:100DC00001A910F0D1F8DDF840E012B0704700BF83
:100DD000EC4600B52DE900502DE9FF1F4FF0000350
:100DE0002DE90C0001AB10F093F8DDF840E012B0F3
:100DF000704700BFEC4600B52DE900502DE9FF1FFC
:100E00004FF000032DE90C0001AA10F00BF9DDF8FA
:100E100040E012B0704700BF80EA010C1CF0030FE5
:100E200037D110F0030C20F0030021F0030150F83B
:100E3000042B08BF51F8043B0ED08CF0030C6FF06C
:100E40007F434FEACC0C23FA0CFC51F8043B42EAF6
:100E50000C0243EA0C0300BFA2F1013C9A4201BF1D
:100E60002CEA020C1CF0803F50F8042B51F8043B94
:100E7000F2D04FEA02604FEA1222012828BFB0EBFD
:100E8000036F08BF1B0AF4D003F0FF03000EC01A63
:100E9000704710F0030F0AD010F8012B11F8013B36
:100EA000012A28BF9A42F4D0A2EB030070474DF804
:100EB000045D50F8042B01F0030521F0030151F803
:100EC000043B022D26D04DD822F07F45B5EB132FE1
:100ED000A2F1013C2CEA020C0DD11CF0803C08BFB1
:100EE00051F8043B0AD185EA0205B5EB036F0CD13A
:100EF00050F8042BE8E74FEA13235BE03CF07F4C0B
:100F000054D10B784FEA126554E04FEA126503F0B2
:100F1000FF034FE04FEA0245A2F1013C4FEA1545BD
:100F20002CEA020CB5EB134F18D11CF0803C08BF23
:100F300051F8043B07D185EA0205B5EB034F09D10F
:100F400050F8042BE6E75FEA0C4C2FD10B884FEAF0
:100F500012452FE04FEA03434FEA12454FEA13438D
:100F600028E000BF02F0FF05B5EB136FA2F1013CD2
:100F70002CEA020C0DD11CF0803C08BF51F8043B58
:100F80000AD185EA0205B5EB032F0AD150F8042BEC
:100F9000E8E74FEA13630DE012F0FF0F06D051F8B7
:100FA000043B4FEA122523F07F4303E04FF000009B
:100FB00020BC704705F0FF0203F0FF00012828BFA6
:100FC000904204BF2D0A1B0AF4D0A2EB000020BC03
:100FD000704700BF844641EA000313F0030349D180
:100FE000403A23D30B6803604B6843608B6883608F
:100FF000CB68C3600B6903614B6943618B69836193
:10100000CB69C3610B6A03624B6A43628B6A83627A
:10101000CB6AC3620B6B03634B6B43638B6B836362
:10102000CB6BC36340304031403ADBD230320BD31C
:101030000B6803604B6843608B688360CB68C36058
:1010400010301031103AF3D20C3205D351F8043B72
:1010500040F8043B043AF9D2043208D0D2071CBF4E
:1010600011F8013B00F8013B01D30B880380604677
:10107000704700BF082A13D38B07B1D010F00303C9
:10108000AED0C3F10403D21ADB071CBF11F8013B39
:1010900000F8013BA4D331F8023B20F8023B9FE764
:1010A000043AD9D3013A11F8013B00F8013BF9D2D7
:1010B0000B7803704B7843708B7883706046704771
:1010C00070B54FF0FF0C4CF4E06C1CEA11541DBFDE
:1010D0001CEA135594EA0C0F95EA0C0F00F0DEF8A9
:1010E0002C4481EA030621EA4C5123EA4C5350EA8E
:1010F000013518BF52EA033541F4801143F48013DF
:1011000038D0A0FB02CE4FF00005E1FB02E506F06F
:101110000042E0FB03E54FF00006E1FB03569CF0C4
:10112000000F18BF4EF0010EA4F1FF04B6F5007FCA
:1011300064F5407404D25FEA4E0E6D4146EB06063C
:1011400042EAC62141EA55514FEAC52040EA5E50C5
:101150004FEACE2EB4F1FD0C88BFBCF5E06F1ED86F
:10116000BEF1004F08BF5FEA500E50F1000041EBA6
:10117000045170BD06F0004646EA010140EA020053
:1011800081EA0301B4EB5C04C2BFD4EB0C0541EA75
:10119000045170BD41F480114FF0000E013C00F38A
:1011A000AB8014F1360FDEBF002001F0004170BDAE
:1011B000C4F10004203C35DA0C341BDC04F11404C7
:1011C000C4F1200500FA05F320FA04F001FA05F253
:1011D00040EA020001F0004221F0004110EBD37020
:1011E00021FA04F642EB06015EEA430E08BF20EA4C
:1011F000D37070BDC4F10C04C4F1200500FA04F3EF
:1012000020FA05F001FA04F240EA020001F0004180
:1012100010EBD37041F100015EEA430E08BF20EAF3
:10122000D37070BDC4F1200500FA05F24EEA020E3B
:1012300020FA04F301FA05F243EA020321FA04F06A
:1012400001F0004121FA04F220EA020000EBD37021
:101250005EEA430E08BF20EAD37070BD94F0000F21
:101260000FD101F00046400041EB010111F4801F55
:1012700008BF013CF7D041EA060195F0000F18BF06
:10128000704703F00046520043EB030313F4801F42
:1012900008BF013DF7D043EA0603704794EA0C0FFC
:1012A0000CEA135518BF95EA0C0F0CD050EA410612
:1012B00018BF52EA4306D1D181EA030101F000418F
:1012C0004FF0000070BD50EA410606BF10461946B7
:1012D00052EA430619D094EA0C0F02D150EA0136C3
:1012E00013D195EA0C0F05D152EA03361CBF104604
:1012F00019460AD181EA030101F0004141F0FE41A3
:1013000041F470014FF0000070BD41F0FE4141F426
:10131000780170BD70B54FF0FF0C4CF4E06C1CEA26
:1013200011541DBF1CEA135594EA0C0F95EA0C0FDB
:1013300000F0A7F8A4EB050481EA030E52EA033596
:101340004FEA013100F088804FEA03334FF08055B7
:1013500045EA131343EA12634FEA022245EA1115E4
:1013600045EA10654FEA00260EF000419D4208BF95
:10137000964244F1FD0404F5407402D25B084FEA42
:101380003202B61A65EB03055B084FEA32024FF4EE
:1013900080104FF4002CB6EB020E75EB030E22BF4B
:1013A000B61A754640EA0C005B084FEA3202B6EB0B
:1013B000020E75EB030E22BFB61A754640EA5C00BA
:1013C0005B084FEA3202B6EB020E75EB030E22BF4A
:1013D000B61A754640EA9C005B084FEA3202B6EB4B
:1013E000020E75EB030E22BFB61A754640EADC000A
:1013F00055EA060E18D04FEA051545EA16754FEA6C
:1014000006164FEAC30343EA52734FEAC2025FEA89
:101410001C1CC0D111F4801F0BD141EA00014FF018
:1014200000004FF0004CB6E711F4801F04BF0143E9
:101430000020B4F1FD0C88BFBCF5E06F3FF6AFAE05
:10144000B5EB030C04BFB6EB020C5FEA500C50F195
:10145000000041EB045170BD0EF0004E4EEA113118
:1014600014EB5C04C2BFD4EB0C0541EA045170BD1F
:1014700041F480114FF0000E013C90E645EA060E63
:101480008DE60CEA135594EA0C0F08BF95EA0C0F91
:101490003FF43BAF94EA0C0F0AD150EA01347FF4D9
:1014A00034AF95EA0C0F7FF425AF104619462CE7B0
:1014B00095EA0C0F06D152EA03353FF4FDAE104613
:1014C000194622E750EA410618BF52EA43067FF464
:1014D000C5AE50EA41047FF40DAF52EA43057FF4F4
:1014E000EBAE12E74FEA410C7FEA6C5C02D150EAA6
:1014F000013C0AD14FEA430C7FEA6C5C02D152EA0C
:10150000033C02D14FF0000070474FF001007047DC
:101510004FEA410212F5001215D211D56FF478731B
:10152000B3EB625212D94FEAC12343F0004343EABE
:10153000505311F0004F23FA02F018BF4042704799
:101540004FF00000704750EA013005D111F0004023
:1015500008BF6FF0004070474FF00000704700BFB9
:101560000348044B834202D0034B03B11847704732
:10157000480A0020480A0020000000000548064BE9
:101580001B1AD90F01EBA301491002D0034B03B181
:1015900018477047480A0020480A00200000000051
:1015A00010B5064C237843B9FFF7DAFF044B13B1AB
:1015B0000448AFF300800123237010BD480A0020C7
:1015C00000000000AC82010808B5054B1BB10549BD
:1015D0000548AFF30080BDE80840FFF7CFBF00BF6C
:1015E000000000004C0A0020AC82010800B585B064
:1015F00000230193029303931148124A026083600F
:10160000037303754FF46022C261436001230361D9
:1016100006F000FA68B91023019301230293002316
:10162000039301A9064806F06FF828B905B05DF8E4
:1016300004FB05F0E2FDEEE705F0DFFDF6E700BF95
:10164000640A0020002401400268094B9A4200D03D
:10165000704782B003F56C439A6942F400729A6154
:101660009B6903F400730193019B02B0704700BFB4
:10167000002401400048704738000020F8B50D46AE
:1016800014461E460F6811463846FFF777FA50B9E0
:1016900021463846FEF7D4FF20F000400C49FFF702
:1016A00077FA08B12C60F8BD39462046FEF7C8FF2E
:1016B000044631460748FEF7C3FF01462046FFF7C0
:1016C0007DF901463846FEF7BDFF2860EBE700BF15
:1016D0009A99193E0000C84208B503F02BFB036835
:1016E000DB69984708BD08B503F024FB03681B6A53
:1016F000984708BD10B5044603F01CFB03685B6AFD
:101700002146984710BD10B5044603F013FB03684B
:101710009B6A2146984710BD10B5044603F00AFBAA
:1017200003681B6B2146984710BDF8B504460D466B
:10173000164603F0FFFA03689F6B33462A4621469C
:10174000B847F8BDF8B504460D46164603F0F2FA60
:1017500003689F6C33462A462146B847F8BDF8B562
:1017600004460D46164603F0E5FA0368DF6C33467F
:101770002A462146B847F8BDF0B583B004460D4669
:1017800016461F4603F0D6FA036800975F6D33468E
:101790002A462146B84703B0F0BD08B503F0CAFA9F
:1017A00003685B6F984708BD10B584B0844601910B
:1017B00044680368E31A98106FF0604EAEEBA30321
:1017C0008B4210D30390814210D803AB1B6818449E
:1017D000DCF80030E41AB0EBA40F09D3B0F1005FDD
:1017E00009D204B010BD104608F09CFE01ABEDE735
:1017F0006FF06040F5E76FF06040F2E74068043852
:10180000704710B485B000230193029303930468DA
:1018100001944268029283680393D1F800C0C0F833
:1018200000C0D1F804C0C0F804C0D1F808C0C0F8A6
:1018300008C00C604A608B6005B010BC704708B5EA
:101840000846114607F064FC08BD08B5034653F886
:10185000081B994203D082680132FFF7F0FF08BDF0
:1018600010B50446FFF7F1FF204610BD136801E0F4
:1018700040F8043B8142FBD1704708B5084691000F
:1018800007F046FC08BD10B5044601688268521A8C
:1018900011B19210FFF7F1FF204610BD10B50446BC
:1018A000FFF7F1FF204610BD08B5B1F1005F03D28C
:1018B000880008F0A9F908BDB1F1804F01D308F004
:1018C00009FE08F0F7FD38B504460D4641B1002287
:1018D000FFF7EAFF2060606000EB8500A06038BD84
:1018E0000020F7E770B5B1F1005F0ED205460C4657
:1018F00016460023036043608360FFF7E4FF2B6814
:101900006CB103EB8404326804E0064808F00AFE78
:1019100043F8042B9C42FBD16C60284670BD1C46EA
:10192000FAE700BFA884010870B584B005460C46EC
:101930001646836800681B1AB1EBA30F09D86968C3
:101940000B1AB4EBA30F11D86CB300EB840413682B
:1019500022E02B4601A8FFF7C5FF294601A8FFF7A3
:1019600050FF01A8FFF78FFF04B070BDFFF77EFFA7
:101970006B682A689A1AB4EBA20209D003EB8202C0
:10198000316801E043F8041B9A42FBD16A60EBE73F
:101990001A46FBE740F8043B8442FBD16B68A34244
:1019A000E2D06C60E0E70446F8E700002DE9F84F6C
:1019B00005468A4693461E4A0121FFF7F5FED5F8F3
:1019C00000806F68AAEB0804814618B30022014624
:1019D0002846FFF769FF0646DBF800303351002C3C
:1019E0001ADC04343444A7EB0A07002F1ADC3C4409
:1019F000AA68A2EB08029210B8F1000F03D041468A
:101A00002846FFF73AFF2E606C6006EB8906AE6051
:101A1000BDE8F88F0026DFE722464146304611F048
:101A20002FF9DEE73A465146204611F029F9DEE764
:101A3000DC84010810B5044643688268934208D0EC
:101A40000A681A604368043343602046FFF7D6FEF5
:101A500010BD0A461946FFF7A9FFF6E72DE9F04F3A
:101A600087B081462AE2B24808F08CF8002800F0DE
:101A70003682B04AB049B14807F0C6FAAC4808F01F
:101A8000A1F82CE2AE4808F07DF8002800F02F8283
:101A9000A84AA949AB4807F0B7FAA94808F092F854
:101AA00025E2A94808F06EF8002800F02882A14A33
:101AB000A149A64807F0A8FAA34808F083F81EE257
:101AC000A34808F05FF8002800F02182994AA14954
:101AD000A14807F099FA9E4808F074F817E29F4869
:101AE00008F050F8002800F01A82924A99499C4860
:101AF00007F08AFA994808F065F810E203F01AF93D
:101B000004799548FFF7FFFD201A00EBD0704010D4
:101B1000FEF74CFE934B1860934808F053F812E21E
:101B200003F008F904798E48FFF7EDFD201A00EB69
:101B3000D0704010FEF73AFE8C4B18608C4808F0CD
:101B400041F811E28B4808F01DF8002800F01882D7
:101B5000D5F8A4100020FEF773FD4FF07E51FEF77C
:101B60006FFD854B1860834808F02CF808E2834825
:101B700008F008F8002800F00B82D5F8A810002023
:101B8000FEF75EFD4FF07E51FEF75AFD7C4B18606C
:101B90007A4808F017F8FBE17A4807F0F3FF0028CD
:101BA00000F0FE8103F0C6F84079C043FEF7FEFD69
:101BB000754B1860734808F005F8F1E15F4B1A683F
:101BC0005B68934201D05D4B5A605E4B1A685B685C
:101BD000934201D05B4B5A605C4B1A685B689A4237
:101BE00001D05A4B5A60002669E0FFF7D6FDC0EBE2
:101BF000C00010F09BF9D5F8A0100020FEF720FDE2
:101C00004FF07E51FEF71CFD029002A94B48FFF7F2
:101C100011FF10F093F9044603F08CF890F805805A
:101C2000D5F8A0000146FEF70DFD07464046FEF739
:101C3000BDFD3946FEF704FD4FF08041FEF700FD83
:101C40004FF07E51FEF7FEFCFEF7F0FF80B294FBF2
:101C5000F0F300FB13400130FEF7A8FD039003A949
:101C60003848FFF7E7FE10F069F9044603F062F820
:101C700090F80480D5F8A0000146FEF7E3FC074683
:101C80004046FEF793FD3946FEF7DAFC4FF08041FF
:101C9000FEF7D6FC4FF07E51FEF7D4FCFEF7C6FFF0
:101CA00080B294FBF0F300FB13400130FEF77EFDA1
:101CB000049004A92548FFF7BDFE0136F6B295F859
:101CC000AC30B34291D8314B01221A7075E103F068
:101CD00031F84079C043FEF769FD2D4B186095F847
:101CE000AC40D5F8A0100020FEF7AAFC4FF07E51C2
:101CF000FEF7A6FC059005AA21461248FFF714FE40
:101D0000D5F8A4100020FEF79BFC4FF07E51FEF7A3
:101D100097FC204B1860D5F8A8100020FEF790FC27
:101D20004FF07E51FEF78CFC1B4B186062E100BF48
:101D3000F00A0020000000209D180008F40A00208E
:101D4000E00A0020E40A0020D00A0020D40A002083
:101D5000CC0A0020611800081C000020C80A0020DE
:101D600004000020C40A0020C00A0020BC0A002091
:101D7000B80A0020B00A0020B40A0020A80A0020F7
:101D8000AC0A0020980A00209C0A0020020B0020C8
:101D9000940A0020A40A0020A00A0020BA4F3B6841
:101DA0004FEA840AD5F8A080414653F82400FEF794
:101DB00047FCB64E336853F824B04FF07E51FEF71F
:101DC0003FFC42465946FFF7CAFC3B683268D5F8EB
:101DD000A0B052F824804FF0804153F82400FEF761
:101DE00031FC5A464146FFF7BAFCD7F800B03368D9
:101DF000D5F8A080414653F82400FEF721FC4FF0AF
:101E00007E51FEF71DFC014642465BF82400FFF7B9
:101E100099FC3F683368D5F8A0804FF0804153F8B3
:101E20002400FEF70FFC0146424657F82400FFF756
:101E300089FC3168964B1A68AB6A52F824205144E9
:101E400001A8FFF71BFC0134E4B295F8AC30A342C3
:101E5000A4D8D5F8B000FFF74DFC8E4E3168D5F808
:101E6000A400FEF7EFFB01468B4A8C4B1868FFF786
:101E70005CFCD5F8B400FFF73DFC894C2168D5F82F
:101E8000A800FEF7DFFB0146864A874B1868FFF77C
:101E90004CFCAB6A854A1268314601A8FFF7EEFB9D
:101EA000AB6A834A1268214601A8FFF7E7FBFFF7F8
:101EB00013FC804B1B884B4580F0D5807E4B1B78F4
:101EC000002B00F024817B4A1388013313807B4B65
:101ED0001B68BFF35B8F13F0010F3FF4C4AD784B69
:101EE0001B68BFF35B8F13F0010F3FF4CBAD754B55
:101EF0001B68BFF35B8F13F0010F3FF4D2AD724B41
:101F00001B68BFF35B8F13F0010F3FF4D9AD6F4B2C
:101F10001B68BFF35B8F13F0010F3FF4E0ADFFF7D9
:101F2000A9FB0546D0F8B000FFF7E4FB684B1B683F
:101F3000BFF35B8F13F0010F05D1654807F022FE58
:101F400000287FF4DBADD5F8B400FFF7D3FB614B7D
:101F50001B68BFF35B8F13F0010F05D15D4807F0DD
:101F600011FE00287FF4DCADD5F8B800FFF7C2FB06
:101F7000594B1B68BFF35B8F13F0010F3FF4E2ADC9
:101F8000564B1B68BFF35B8F13F0010F3FF4EFADAF
:101F9000534B1B68BFF35B8F13F0010F3FF4FCAD95
:101FA000444B1B884B45BFF492AE4E4B00221A6047
:101FB0004D4B1B78002B3FF401AE02F0BBFE46797F
:101FC00076084FF07C51D5F8A400FEF743FC044698
:101FD0003046FEF7EBFB2146FEF732FB334B186031
:101FE000D5F8A810FEF72CFB4FF08141FEF728FB37
:101FF0002F4B1860FFF777FB0020FFF78DFB3B4C62
:10200000D4F8008002F096FE0079FEF7CBFB06467E
:1020100002F090FE4079FEF7C5FB034600273246EA
:1020200041463846FFF7A8FBAB6A2E4A12682146A4
:1020300001A8FFF723FB0120FFF76EFB02F07AFEF9
:102040004079FEF7B3FB2168FEF7FCFA044602F084
:1020500071FE0079FEF7A6FB024621463846FFF7DF
:102060007EFB0024F1E602F065FE4079C043FEF7F6
:102070009DFB1E4B1968FEF781FD00283FF41EAF43
:102080000D4B00221A7019E7D40A0020F40A002030
:10209000E40A0020B40A00201C000020C40A00202A
:1020A000AC0A002004000020BC0A0020A40A002082
:1020B000A00A0020000B002034000020F00A0020BD
:1020C000E00A0020D00A0020CC0A0020C80A002024
:1020D000C00A0020B80A0020B00A0020A80A002088
:1020E000980A0020940A0020020B00209C0A00207D
:1020F000084807F063FD07F00DF8074807F05EFD9C
:1021000007F008F8054807F059FD07F003F807B095
:10211000BDE8F08FC00A0020B80A0020980A00200D
:10212000004870470C01002070470000F8B50D46CC
:1021300014461E460F6811463846FEF71FFD50B97B
:1021400021463846FEF77CFA20F000400C49FEF7A5
:102150001FFD08B12C60F8BD39462046FEF770FA25
:10216000044631460748FEF76BFA01462046FEF763
:1021700025FC01463846FEF765FA2860EBE700BF0C
:102180009A99193E0000C84208B502F0D3FD0368D1
:102190001B69984708BD08B502F0CCFD03685B6970
:1021A000984708BD08B502F0C5FD03689B699847CC
:1021B00008BD000010B5264B1B68BFF35B8F13F002
:1021C000010F03D1224807F0DDFC40B9214B1B6809
:1021D000BFF35B8F13F0010F0FD0002320E0FFF758
:1021E000DAFF0446FFF7DEFF00FB04F4E4001A4BBD
:1021F0001C70174807F0E6FCE8E7164807F0C2FC39
:102200000028EAD0FFF7C0FF144B1860114807F010
:10221000D9FCE2E76FF0550002400A7001339BB22F
:102220000D4A12789A4212D90C4A1268D118D25C1F
:1022300013F0010FEED15520EEE7054807F0BEFC84
:1022400006F068FF034807F0B9FC06F063FF10BD15
:10225000480B0020400B00204C0B0020440B0020BA
:10226000F8B504460D46164602F064FD0368DF6BC0
:1022700033462A462146B847F8BD10B5044602F059
:1022800059FD03689B6E2146984710BD38B55C4BDD
:102290001B68BFF35B8F13F0010F03D1584807F0A1
:1022A00071FCB8B9FFF770FF0446FFF739FF054628
:1022B000006AFEF7BBFCFFF7E0FF95F83130002B1A
:1022C00056D0504B1B78013B032B4DD8DFE803F071
:1022D0001E2C3C4AFFF75FFF0446FFF763FF00FB3D
:1022E00004F4E400484B1C70454807F06BFCD9E748
:1022F00001339BB2444A12789A4258D913F0010F25
:10230000F6D0E25C02F0AA02E254F1E70023F1E722
:1023100001339BB23C4A12789A4248D913F0010F1C
:10232000F6D00022E254F3E70023F3E701339BB237
:10233000354A12789A423AD913F0010FF6D1E25C8D
:1023400002F05502E254F1E70023F1E701339BB2BA
:102350002D4A12789A422AD913F0010FF6D10022A1
:10236000E254F3E70023F3E7264B00221A701EE045
:10237000244B1B78013B032B39D8DFE803F0101DF9
:102380002D3601339BB2204A12789A420FD913F0AE
:10239000010FF6D0E25C42F0AA02E254F1E700231A
:1023A000F1E701339BB2184A12789A42F9D8154ADC
:1023B00013780133137038BD0023F4E701339BB267
:1023C000114A12789A42F2D913F0010FF6D1E25C69
:1023D00042F05502E254F1E70023F1E701339BB2EA
:1023E000094A12789A42F9D8E1E70023F8E7054B49
:1023F00000221A70DBE7024807F0E0FB06F08AFED5
:10240000500B002009010020540B002008B5024B9E
:10241000186802F025FBFAE73C0B002008B5081EFF
:1024200002DB07F0F1FB08BD08F044F8F8B5541AD8
:102430000CD405460E4664B100222146FFF7EEFF9C
:1024400028600719AF6034B96F60F8BD044808F020
:1024500069F80020F4E72246314610F011FCF3E75A
:10246000A884010838B504460D4639B10022FFF7AB
:10247000D5FF206060602844A06038BD0020F8E7E8
:1024800008B5012A03D022B1FEF7A4FD01E00B78C4
:10249000037008BD08B50846114606F039FE08BDB0
:1024A00010B5044601688268521A09B1FFF7F2FFBD
:1024B000204610BD10B50446FFF7F2FF204610BDC0
:1024C00010B582B0044602AB03E9060000230360A6
:1024D000436083600A44FFF7A9FF04E02046FFF74A
:1024E000DFFF06F017FE204602B010BD08B5081E3B
:1024F00002DB07F089FB08BD07F0DCFF10B50B68B5
:10250000002B0EDB934206D95400B3EB420F02D2EC
:102510000C60002C08DB096800220131FFF7E6FFA0
:1025200010BD034807F0FEFF6FF000430B60F2E7B9
:10253000F884010870B582B004460E46551A01951C
:102540000F2D0DD800942A4631462068FFF798FFDA
:1025500000220092019B63602168CA5402B070BDE2
:10256000002201A9FFF7CAFF2060019BA360E9E7F1
:1025700038B500F10803036069B104460D4608460A
:1025800010F0C6FD4FF000032A1829462046FFF739
:10259000D1FF204638BD014807F0ACFF1085010887
:1025A00038B515460C1A01D1281938BD2246014606
:1025B000284610F065FBF7E708B5FFF7F1FF08BD07
:1025C00008B5FFF7F9FF08BD38B504460D46496860
:1025D0002A680023036043608360891AFFF742FF83
:1025E000226869682868FFF7EBFF6060204638BD05
:1025F00070B5C8B0A42007F007FB0446B24B0360D7
:102600008023037140234371B04B8360002181819B
:10261000AF4B40F8103B942210F0B0FB204602F084
:1026200035FC4FF4AF70FFF728FE4FF47A70FFF7D8
:1026300015FAA84B1D684FF4B27007F0E5FA04468E
:1026400006AAA5496846FFF793FF08E0012525B1D2
:102650004FF4B271204606F05BFD06F05BFD9F492A
:1026600007A8FFF7B1FF04E001256846FFF7EDF882
:10267000EDE707AA6946204601F0F0F92146284611
:1026800001F0C6FA04E0002507A8FFF709FFECE710
:1026900007A8FFF705FF6846FFF7D7F88D4B1D68C1
:1026A0004FF4B27007F0B0FA044610AA8C490AA899
:1026B000FFF75EFF08E0012525B14FF4B271204617
:1026C00006F026FD06F026FD864911A8FFF77CFFDF
:1026D00004E001250AA8FFF7B8F8EDE711AA0AA956
:1026E000204601F0BBF92146284601F091FA04E0AA
:1026F000002511A8FFF7D4FEECE711A8FFF7D0FEE4
:102700000AA8FFF7A2F8734B1D684FF4B27007F0E8
:102710007BFA04461AAA744914A8FFF729FF08E0B7
:10272000012525B14FF4B271204606F0F1FC06F008
:10273000F1FC6E491BA8FFF747FF04E0012514A830
:10274000FFF783F8EDE71BAA14A9204601F086F9EC
:102750002146284601F05CFA04E000251BA8FFF79B
:102760009FFEECE71BA8FFF79BFE14A8FFF76DF890
:102770005F4C2168574B186801F04AFA25684FF4FE
:10278000B27007F041FA044624AA5A491EA8FFF77E
:10279000EFFE08E0012525B14FF4B271204606F0A6
:1027A000B7FC06F0B7FC1EA9204601F06BF82146E5
:1027B000284601F02DFA04E000251EA8FFF745F891
:1027C000E9E71EA8FFF741F8494B1E684FF4B270C5
:1027D00007F01AFA04462BAA474925A8FFF7C8FEB6
:1027E00008E0012525B14FF4B271204606F090FCB7
:1027F00006F090FC25A9204601F044F804E00125EC
:1028000025A8FFF722F8EDE7E42007F0FDF90546DB
:102810003A4901F017FE01E00025F1E72A4621467A
:10282000304601F0E3FA01E00025E9E725A8FFF7CB
:102830000CF82F4B1D684FF4B27007F0E5F9044611
:1028400032AA2F492CA8FFF793FE08E0012525B1F5
:102850004FF4B271204606F05BFC06F05BFC2CA93D
:10286000204601F00FF82146284601F0D1F904E096
:1028700000252CA8FEF7E9FFE9E72CA8FEF7E5FF05
:102880001B4B1D684FF4B27007F0BEF9044639AA1D
:102890001C4933A8FFF76CFE08E0012525B14FF471
:1028A000B271204606F034FC06F034FC33A9204611
:1028B00000F0E8FF2146284601F0AAF924E00025AF
:1028C00033A8FEF7C2FFE9E71088010800007F4344
:1028D000709C0108380B0020448501082C0B002057
:1028E0004C850108200B002054850108140B0020A2
:1028F000040B002064850108708501080801002090
:102900007C8501088C85010833A8FEF79EFF364BB5
:102910001D684FF4B27007F077F9044640AA3349B6
:102920003AA8FFF725FE08E0012525B14FF4B27162
:10293000204606F0EDFB06F0EDFB3AA9204600F03C
:10294000A1FF2146284601F063F904E000253AA8DA
:10295000FEF77BFFE9E73AA8FEF777FF224B1D68F9
:102960004FF4B27007F050F9044647AA204941A835
:10297000FFF7FEFD08E0012525B14FF4B2712046B6
:1029800006F0C6FB06F0C6FB41A9204600F07AFF20
:102990002146284601F03CF904E0002541A8FEF755
:1029A00054FFE9E741A8FEF750FF124B1968124B9C
:1029B000186801F04FFF48B070BD012564E601259D
:1029C00097E60125CAE60125F7E6E421284606F048
:1029D0009FFB002514E701254BE7012570E7012542
:1029E000B5E70125DAE700BF040B0020A485010844
:1029F000BC850108380B00203C0B0020012800D0CA
:102A000070474FF6FF739942FAD12DE9F043BDB0FC
:102A1000202007F0F9F804462022002110F0AEF93A
:102A2000544B2360544B2360544B1C604FF4B270E2
:102A300007F0EAF8044625AA51491FA8FFF798FDB8
:102A40001FA9204600F01EFF4E4B1C601FA8FEF77A
:102A5000FCFEDFF8348101AD782422464146284649
:102A6000FEF7B8FA26952794DFF8209128AB224686
:102A700029464846FFF724FD454F464E3A46314623
:102A8000484606F0C1FA224608EB04012846FEF744
:102A9000A1FA29952A94DFF800912BAB224629460A
:102AA0004846FFF70DFD3A463146484606F0ACFA77
:102AB000224608F1F0012846FEF78CFA2C952D9459
:102AC000DFF8D8902EAB224629464846FFF7F8FC9F
:102AD0003A463146484606F097FA224608F5B47160
:102AE0002846FEF777FA2F9530942D4C31AB78229B
:102AF00029462046FFF7E4FC3A463146204606F0D8
:102B000083FA4FF4B27007F07FF8044638AA2549DB
:102B100032A8FFF72DFD224939A8FFF755FD39AA44
:102B200032A9204600F09AFF1F4B1C6039A8FFF71E
:102B3000B7FC32A8FEF789FE3DB0BDE8F0831FA8C0
:102B4000FEF783FE4FF4B271204606F0E1FA06F07C
:102B5000E1FAF7E739A8FFF7A3FC32A8FEF775FE04
:102B60004FF4B271204606F0D3FA06F0D3FAF4E738
:102B7000F6E700BF2C860108448601083C0B0020C4
:102B8000D4850108380B0020C88201082C0B0020D6
:102B900000000020B5240008200B0020140B0020AA
:102BA000080B0020DC850108040B002008B54FF657
:102BB000FF710120FFF722FF08BD000030B53E493C
:102BC00001603E4A42603E4A82603E4AC260026103
:102BD0003D4C44613D4C84613D4CC4613D4C0462BC
:102BE00041628262012180F82C1080F82D1080F85B
:102BF0002E1080F82F1080F83010002280F831203D
:102C0000354D45634FF0824282634FF0814CC0F8EE
:102C10003CC04FF0834404644FF07C5EC0F844E055
:102C2000C0F848C04FF0804EC0F84CE080F850101B
:102C30002A4941658165C265026629494166C0F835
:102C400068C02849C166026727494167C0F878E033
:102C5000C5672649C0F880102549C0F88410C0F81F
:102C60008810C0F88C20C0F89040C0F894C0C0F81C
:102C700098E02049C0F89C10C0F8A0E01E49C0F8B8
:102C8000A410C0F8A820102180F8AC101B49C0F88F
:102C9000B0101B49C0F8B410C0F8B810C0F8BC2080
:102CA000C0F8C020C0F8C4C0164AC0F8C8204FF011
:102CB0007E52C0F8CC2030BD0000A042000082420D
:102CC0000000504200008C4200005C420000C841FD
:102CD000000070410000C8420000A0400000F04128
:102CE0000000C04000009041000040410000404012
:102CF000000010420000B44200006041B0880108AA
:102D0000049101080000204170B504460D461646A6
:102D100080230371402343710F4B83600C30FFF716
:102D20004DFF0E4B23600E4B2360002384F8EC30E4
:102D300029460020FDF784FC0546C4F8DC00314636
:102D40000020FDF77DFCC4F8E000C4F8E450C4F8AE
:102D5000E800204670BD00BF00007F432C860108BC
:102D6000A48601082DE9F04704460E461546D0F822
:102D7000E4100020FDF764FC8046D4F8E810002041
:102D8000FDF75EFC07464FF0010931464046FDF76E
:102D90001DFF08B94FF000094FF0010A29463846D7
:102DA000FDF714FF08B94FF0000A49EA0A0919F0C3
:102DB000FF0F2ED12079FDF7F9FC4146FDF742FCCB
:102DC0004FF07E51FDF73CFC80466079FDF7EEFC4C
:102DD0003946FDF737FC4FF07E51FDF731FC0746D1
:102DE0004FF0010431464046FDF7D2FE08B94FF0DE
:102DF00000044FF0010629463846FDF7C9FE08B920
:102E00004FF00006344314F0FF0F04D10020BDE85A
:102E1000F0870120FBE70220F9E7F8B504461646E3
:102E2000012380F8EC300020FDF70AFC054621461E
:102E300051F8E43BDF68236B02462046B847314631
:102E40000020FDF7FDFB0646214651F8E83BDF6810
:102E5000236B02462046B847D4F8E4102846FDF715
:102E60008DFE40B1D4F8E8103046FDF787FE10B172
:102E7000002384F8EC30F8BD70B504460D46244BB1
:102E80001B68BFF35B8F13F0010F28D0012384F878
:102E9000EC3055B11F4B1B78B5FBF3F203FB12521C
:102EA00012F0FF0F2FD1B5FBF3F5607905FB00F0B1
:102EB000FDF77CFC024600212046FFF7AEFFD4F868
:102EC000E860607905FB00F0FDF770FC01463046D4
:102ED000FDF754FE10B1002384F8EC3070BD0C48AF
:102EE00006F050FE0028D1D0E66C6079FDF75EFC5C
:102EF0003146FDF763FDFDF799FE064B1870044857
:102F000006F060FEC2E7B5FBF3F3DDB2CDE700BF2C
:102F1000580B00205C0B0020F8B504460D46012339
:102F200080F8EC300B681E685F683A463146FFF760
:102F300019FF012819D03A4631462046FFF712FF03
:102F4000022816D03B4B1B78012B16D0394B1B782F
:102F5000022B34D02B685A6819682046FFF702FF0D
:102F600010B9002384F8EC30F8BD324B01221A70FE
:102F7000E1E7304B02221A70E4E73A463146204638
:102F8000FFF74BFFD4F8E4702E6831680020FDF79E
:102F900057FB01463846FDF7F1FD0028D6D0D4F89E
:102FA000E87071680020FDF74BFB01463846FDF7DD
:102FB000E5FD0028CAD01F4B00221A70C6E72F6813
:102FC0007968E06CFDF73EFB06466079FDF7EEFBA5
:102FD00001463046FDF734FB024639682046FFF7CC
:102FE0001CFFD4F8E4702E6831680020FDF728FB40
:102FF00001463846FDF7C2FD0028ABD0D4F8E87092
:103000007168E06CFDF71EFB06466079FDF7CEFBAC
:1030100001463046FDF714FB01460020FDF710FB8A
:1030200001463846FDF7AAFD002893D0014B002247
:103030001A708FE7550B0020F8B50446012380F87D
:10304000EC300846FDF7B2FB0546A16E206EFDF799
:10305000F9FA014600262846FDF7FCFB01463246F8
:103060002046FFF7DAFED4F8E470A16E206EFDF77B
:10307000E9FA01462846FDF7EDFB01463046FDF72B
:10308000DFFA01463846FDF779FD10B1002384F8D8
:10309000EC30F8BD10B584B0044691F84131012BF5
:1030A00002D0C3B104B010BD90F85C3053B1012B15
:1030B000F8D1114601A801F01EF901A92046FFF739
:1030C0002BFF04E091F86011FFF7D6FEEAE701A8B4
:1030D000FEF7D9FBE6E791F86011FFF7ADFFE1E7F6
:1030E00001A8FEF7D0FB06F015F800002DE9F0412D
:1030F000571A0F4B9F4216D804460D461646B91074
:10310000A1B10022FEF7D0FB206000EB0708C4F855
:103110000880B54203D03A4629460FF0B1FDC4F805
:103120000480BDE8F081034807F0FCF90020EBE7DC
:10313000FCFFFF7FA884010810B582B0044602ABF3
:1031400003E90600002303604360836001EB820211
:10315000FFF7CCFF04E02046FEF795FB05F0DAFF11
:10316000204602B010BD10B586B00446D1F8E43058
:103170000393D1F8E830049303AB01930223029345
:1031800005AB01AA06CAFFF7D7FF204606B010BD5F
:1031900000487047DC01002038B504460D4601F0B8
:1031A000C9FD03685B6B2A462146984738BDF8B5D0
:1031B00004460D46164601F0BDFD03685F6C3346BC
:1031C0002A462146B847F8BDF0B583B004460D46FF
:1031D00016461F4601F0AEFD0368089A019200975B
:1031E0001F6D33462A462146B84703B0F0BD10B5DF
:1031F000044601F09FFD043003C884E80300FFF794
:10320000C7FF0146D02204F10800FDF7E3FE10BD20
:103210002DE9F04104460E4603681B68984794F870
:103220004131BBBB94F8383013B3D4F84851D4F8CB
:103230004C8108E055F8047B3368216E1868FDF76F
:10324000FFF9C7F8DC00A845F4D10023C4F8F43036
:103250006079FDF7A7FAC4F80C01C4F81401D4F89A
:1032600084100020FDF7ECF9C4F80401BDE8F081FA
:10327000D4F84831D4F84C0105E053F8042BD2F8C7
:10328000E010C2F8DC109842F7D1D4F8F830C4F856
:10329000F430DDE7012BE9D194F83930C3B1D4F82B
:1032A0004851D4F84C8108E055F8047B3368E16C50
:1032B0005868FDF7C5F9C7F8E400A845F4D1002324
:1032C000C4F8EC302079FDF76DFAC4F8FC00CDE7C6
:1032D000D4F84831D4F84C0105E053F8042BD2F867
:1032E000E810C2F8E4109842F7D1D4F8F030C4F8EE
:1032F000EC30E7E708B503685B68984708BDD0F88D
:103300004C31D0F84801181AC0F38700704700000C
:103310002DE9F04F87B00446039190F841312BB16D
:10332000012B00F0938107B0BDE8F08F0430FFF768
:103330005EFF0120FEF7F0F9D4F84861D4F84C3173
:10334000059327E056F8045BD5F8DCB0039BD3F86F
:103350000080D5F83471D4F86490D4F860A0D8F81F
:103360000410E06EFDF76EF90490D8F8001058468E
:10337000FDF768F900974B4652460499FFF724FF82
:103380002368D3F80C80E368D5F8E02005F1DC0170
:103390002046C047059BB342D4D194F86001013068
:1033A000FDF704FA05462079FDF7FCF906462046AC
:1033B000FFF7A5FFFDF7FAF901463046FDF7FEFAE3
:1033C00001462846FDF746FAC4F8F8004FF0000819
:1033D000D4F88430D4F8F420D4F804114046FEF731
:1033E000CBF9226FD4F80C11606FFEF7B8F9666F55
:1033F0004FF07E51D4F80C01FDF724F905464FF04B
:103400007E513046FDF71EF92946FFF7C5FE666F6F
:103410004FF08041D4F80C01FDF714F905464FF048
:1034200080413046FDF70EF92946FFF7B5FE666F7D
:103430004FF07E51D4F80C01FDF702F905464FF02C
:103440007E513046FDF7FEF82946FFF7A5FE666F70
:103450004FF08041D4F80C01FDF7F2F805464FF02B
:1034600080413046FDF7EEF82946FFF795FE256FBF
:103470002079FDF79BF92946FDF7E2F8D4F80C61B5
:10348000616FFDF7DDF82A463146FEF768F92779C6
:10349000266F4FF07E51D4F80C01FDF7D3F80546A6
:1034A0003846FDF783F93146FDF7CAF82946FFF79C
:1034B00073FE256F2079FDF779F92946FDF7C0F8ED
:1034C00006464FF08041D4F80C01FDF7BBF80546E5
:1034D0004FF07E513046FDF7B3F82946FFF75CFE0A
:1034E0002779266F4FF07E51D4F80C01FDF7A8F82C
:1034F00005463846FDF75AF93146FDF7A1F8294649
:10350000FFF74AFE256F2079FDF750F92946FDF7B0
:1035100097F806464FF08041D4F80C01FDF790F87B
:1035200005464FF07E513046FDF78AF82946FFF7F1
:1035300033FEB34E4FF08041D4F80C01FDF782F812
:1035400001463246D4F89C00FEF709F9D4F89CA055
:103550004FF08041D4F80C01FDF774F84FF081452D
:10356000DFF8A0922946FDF76BF807464FF080413F
:103570005046FDF767F82B464A463946FEF7FCF8F9
:10358000D4F89C702079FDF711F93946FDF758F809
:1035900082464FF08041D4F80C01FDF753F80746FE
:1035A00031465046FDF74CF832463946FEF7D7F81B
:1035B000D4F89C702079FDF7F9F83946FDF740F80A
:1035C0003146FDF73DF807464FF08041D4F80C0135
:1035D000FDF738F82946FDF733F806464FF08041ED
:1035E0003846FDF72FF82B464A463146FEF7C4F819
:1035F0002079FDF7D7F80246D4F814114046FFF7BA
:10360000D6FD2368DD68E368D4F8182104F58A71D3
:103610002046A8472368DD68E368D4F8102104F544
:1036200086712046A847214651F8F43BDD68E368DF
:10363000D4F8F8202046A8472368DD68E368D4F86A
:10364000082104F582712046A8476CE60430FFF794
:10365000CEFD0120FEF760F8D4F84831D4F84CB123
:1036600027E0D5F8DCA0039BD3F80080616CD5F887
:10367000E400FCF7E7FFA16CFCF7E4FF05F58E79A9
:10368000D8F80410FCF7DEFF0646D8F800105046C4
:10369000FCF7D8FF4A463146FEF7E2FD2368DE68B4
:1036A0002369D5F8E82005F1E4012046B0473B4600
:1036B00004331F469B4516D01D6895F84131022BF7
:1036C000CFD1D5F85461D5F85891B145C9D056F845
:1036D000040B0368D3F81080039BD5F8E420D5F8D9
:1036E000DC10C047F1E794F860010130FDF75EF8A7
:1036F00005466079FDF756F806462046FFF7FFFDC0
:10370000FDF754F801463046FDF758F901462846C2
:10371000FDF7A0F8C4F8F000266C00252079FDF72D
:1037200045F83146FCF78CFF32462946FEF717F87C
:1037300094F80480276C60790138FDF737F8064665
:103740004046FDF733F83946FCF77AFF3A463146F2
:10375000FEF705F894F804804FF07C51206CFDF7DB
:1037600079F8FCF739FE0DF09FF906460F46404602
:10377000FCF720FE32463B46FCF7CEFC80468946ED
:103780006079FDF70FF8064640464946FCF704FF0E
:1037900032462946FDF7D6FFD4F8EC30226C294694
:1037A000D4F8FC00FDF7E8FF94F83D3093B92146CA
:1037B00051F8EC3BDD682369D4F8F0202046A84797
:1037C000214651F8FC3BDD682369D4F800212046EE
:1037D000A847A8E50220FDF79FFF26796079FCF74E
:1037E000E1FF05463046FCF7DDFF024600202B4690
:1037F0000146FDF7C1FF0120FDF78EFFD7E700BFAF
:10380000000010410000A04090F86021D0F848313D
:1038100053F822007047D0F84401704703684068AD
:10382000984214BF00200120704770B505460C4631
:10383000024652F8080B0B4653F8081B8B4210D077
:1038400082421BD0AE68296062686A60A268AA6082
:10385000B0B12060A6600023636022681370284620
:1038600070BDA542F7D062682AB963686B602A68A8
:103870000021D154EFE7FEF703FEF6E70020E2E770
:103880002360E8E770B504460E46802303714023A9
:1038900043712D4B83600C30FFF790F92B4B236065
:1038A00023462B4A43F8DC2B0025C4F8DC505D602E
:1038B0009D60DD603022294604F1EC000FF05EFAD5
:1038C00004F59273C4F81C31C4F8205184F82451D3
:1038D000C4F83451C4F83851C4F83C51C4F84851C4
:1038E000C4F84C51C4F85051C4F85451C4F858515C
:1038F000C4F85C51314604F58E70FFF796FF012342
:1039000084F8403184F84151A26CC4F8DC200023D3
:10391000C4F8E430C4F8E020C4F8E83084F860511A
:10392000C4F84451D4F84831D4F84C21934201D022
:10393000C4F84C31D4F83431D4F83821934201D052
:10394000C4F83831204670BD00007F432C86010842
:10395000EC86010810B584B0844601914468036880
:10396000E31A98106FF0604EAEEBA3038B4210D3B6
:103970000390814210D803AB1B681844DCF8003078
:10398000E41AB0EBA40F09D3B0F1005F09D204B080
:1039900010BD104606F0C6FD01ABEDE76FF06040CC
:1039A000F5E76FF06040F2E710B584B0844601910E
:1039B00044680368E31A98106FF0604EAEEBA303FF
:1039C0008B4210D30390814210D803AB1B6818447C
:1039D000DCF80030E41AB0EBA40F09D3B0F1005FBB
:1039E00009D204B010BD104606F09CFD01ABEDE716
:1039F0006FF06040F5E76FF06040F2E710B485B01B
:103A00000023019302930393046801944268029295
:103A100083680393D1F800C0C0F800C0D1F804C097
:103A2000C0F804C0D1F808C0C0F808C00C604A60F3
:103A30008B6005B010BC704710B584B00C460023F5
:103A4000019302930393FFF7D9FF214601A8FFF7E3
:103A5000D5FF01A8FEF724FD04B010BD2DE9F0410B
:103A600004460F46164680230371402343712D4BB5
:103A700083600C30FFF7A2F82B4B236023462B4AC0
:103A800043F8DC2B0025C4F8DC505D609D60DD60F0
:103A90003022294604F1EC000FF070F904F592731E
:103AA000C4F81C31C4F8205184F8245104F59A78E4
:103AB000C4F83451C4F83851C4F83C51C4F84851E2
:103AC000C4F84C51C4F85051C4F85451C4F858517A
:103AD000C4F85C51394604F58E70FFF7A6FE4FF02E
:103AE000000231464046FFF7A7FF84F8405184F8B2
:103AF00041510023C4F8DC30C4F8E430C4F8E030AD
:103B0000E36EC4F8E83084F86051C4F84451D4F846
:103B10004831D4F84C21934201D0C4F84C312046AE
:103B2000BDE8F08100007F432C860108EC86010887
:103B300008B50846910005F0EBFA08BD08B508463F
:103B4000910005F0E5FA08BD08B5B1F1005F03D2B8
:103B5000880006F059F808BDB1F1804F01D306F096
:103B6000B9FC06F0A7FC00002DE9F84F05468A468F
:103B700093461E4A0121FFF7EDFED5F800806F68DD
:103B8000AAEB0804814618B3002201462846FFF735
:103B9000DBFF0646DBF800303351002C1ADC04341E
:103BA0003444A7EB0A07002F1ADC3C44AA68A2EBB6
:103BB00008029210B8F1000F03D041462846FFF7E3
:103BC000B7FF2E606C6006EB8906AE60BDE8F88F2B
:103BD0000026DFE72246414630460FF051F8DEE787
:103BE0003A46514620460FF04BF8DEE7DC840108E8
:103BF00008B543688268934205D00A681A60436832
:103C00000433436008BD0A461946FFF7ADFFF9E7E4
:103C10002DE9F04182B0019190F84131022B7DD025
:103C200004460D4600297BD000F5A4763046FFF708
:103C3000F5FD18B195F8403184F8413194F84121EF
:103C400095F840319A4203D0002002B0BDE8F081DF
:103C5000C5F8444101A93046FFF7CAFF94F8413145
:103C6000012B41D094F84131002B3BD126797608C5
:103C7000D4F860804FF07C514046FCF7EBFD0546E0
:103C80003046FCF793FD2946FCF7DAFC0546204652
:103C9000FFF735FB471EA16E4046FCF7D3FC0646F6
:103CA0003846FCF783FD3146FCF7D4FD0146019E02
:103CB0002846FCF7C7FCC6F8E000E36EC6F8E8301B
:103CC0000023C4F808316079FCF770FD0546E16F08
:103CD000FCF7B6FCC4F81001A16F2846FCF7B0FC55
:103CE000C4F818010120B0E7019DA36CC5F8E030CD
:103CF0002046FFF704FBE66C0138FCF757FD314620
:103D0000FCF7A8FDC5F8E800256C2079FCF74EFD0E
:103D10002946FCF795FCC4F80001A3E7002094E7CE
:103D2000002092E708B5B1F1005F03D2880005F0EA
:103D30006BFF08BDB1F1804F01D306F0CBFB06F05D
:103D4000B9FB00002DE9F84F05468A4693461E4A06
:103D50000121FFF729FED5F800806F68AAEB08045F
:103D6000814618B3002201462846FFF7DBFF0646CE
:103D7000DBF800303351002C1ADC04343444A7EB58
:103D80000A07002F1ADC3C44AA68A2EB0802921032
:103D9000B8F1000F03D041462846FFF7CFFE2E6052
:103DA0006C6006EB8906AE60BDE8F88F0026DFE7A1
:103DB0002246414630460EF063FFDEE73A46514662
:103DC00020460EF05DFFDEE7DC84010808B543689D
:103DD0008268934205D00A681A60436804334360DE
:103DE00008BD0A461946FFF7ADFFF9E730B583B0C5
:103DF0000192B2B10C46FFF70BFF054610B92846F9
:103E000003B030BD022384F8413101A904F5AA7042
:103E1000FFF7DCFF0198C0F8DC4003681B68984797
:103E2000EDE70025EBE7F0B583B004460D461646F6
:103E30001F4600F07FFF0368089A019200979F6D6C
:103E400033462A462146B84703B0F0BDF8B50446CC
:103E50000D460430FFF7CBF9D4F8DC3083F860511D
:103E6000D4F8DC6096F8413183BBD6F8483153F87A
:103E70002530D4F88C703946D3F8E000FCF7E0FB2D
:103E8000C4F8E400D6F8483153F825303946D3F861
:103E9000E800FCF7D5FBC4F8EC0065792846FCF790
:103EA00081FCC4F80001D4F880602846FCF77EFC51
:103EB0003146FCF7C5FBC4F80401D4F89030C4F8CF
:103EC000F430D4F89430C4F8FC30F8BD012BFCD1A8
:103ED000D6F8483153F82530616DD3F8E000FCF78F
:103EE000AFFBC4F8E400D6F8483153F82530D3F8D6
:103EF000E830C4F8EC30D6F8483153F8250000F526
:103F00008E70FDF700FCFCF74DFC0546A06C0146E9
:103F1000FCF798FB01462846FCF794FBC4F8F40034
:103F2000E36CC4F8FC30D0E741B108B5C0F8DC1050
:103F300091F86011FFF78AFF012008BD002070474B
:103F40002DE9F04383B004460D460430FFF74FF9E6
:103F5000214651F8E03BDE68A369D4F8E42020460E
:103F6000B047214651F8E83BDE686369D4F8EC209D
:103F70002046B047214651F8F83BDE68236AD4F862
:103F8000FC202046B047214651F8F03BDE68E3694B
:103F9000D4F8F4202046B047D4F8DC3093F841310F
:103FA000002B40F081812368DE686369D4F8042126
:103FB00004F580712046B0470120FDF7ADFB207964
:103FC000FCF7F4FB0646D4F8DC3093F86021D3F814
:103FD000483153F8220000F58E70FDF794FBFCF792
:103FE000E1FB01463046FCF72BFB8046D4F8DC3081
:103FF00093F86021D3F8483153F8227007F58E7793
:10400000D4F89810D4F80001FCF71CFB06464FF0DA
:104010007C514046FCF71EFC3A463146FEF720F93B
:104020000220FDF779FBD4F8E0802F687968D4F896
:10403000E800FCF707FB064639684046FCF702FB40
:104040003146FFF7A9F8D4F8E090D5F80080D4F80D
:10405000E8604FF07E51D4F88800FCF7F3FA074689
:10406000D8F804103046FCF7EDFA0646D8F80010F0
:104070004846FCF7E7FA3A463146FDF770FBD4F8BC
:10408000E090D5F80080D4F8E8604FF07E51D4F885
:104090008800FCF7D7FA0746D8F804103046FCF73A
:1040A000D1FA0646D8F800104846FCF7CBFA3A4653
:1040B0003146FDF747FBD4F8E090D5F80080D8F8FA
:1040C0000410D4F8E800FCF7BDFAD4F8F810FCF7B7
:1040D000B9FA06464FF07E51D4F88800FCF7B2FAE0
:1040E00007464FF07E513046FCF7AAFA0646D8F84C
:1040F00000104846FCF7A6FA3A463146FDF72FFB7A
:10410000D4F8E090D5F80080D8F80410D4F8E8008E
:10411000FCF798FAD4F8F810FCF794FAD4F8887001
:104120003946FCF78DFA4FF07E51FCF789FA0646C6
:10413000D8F800104846FCF785FA3A463146FDF7B4
:1041400001FB2E683168D4F8E000FCF77BFAD4F864
:10415000F010FCF777FAD4F888804146FCF770FA43
:1041600007467168D4F8E800FCF76CFA06464FF091
:104170007E513846FCF764FA42463146FDF7EFFAC5
:104180002E683168D4F8E000FCF75CFAD4F8F0103F
:10419000FCF758FA8046D4F8E8904FF07E51D4F8F6
:1041A0008800FCF74FFA074671684846FCF74AFA60
:1041B00006464FF07E514046FCF742FA3A463146F9
:1041C000FDF7C0FA2E683168D4F8E000FCF73AFA3F
:1041D000D4F8F010FCF736FAD4F888804146FCF7A2
:1041E0002FFA07467168D4F8E800FCF72BFAD4F8E8
:1041F000F810FCF727FA4FF07E51FCF721FA06463B
:104200004FF07E513846FCF71BFA42463146FDF727
:10421000A6FA2E683168D4F8E000FCF713FAD4F857
:10422000F010FCF70FFA07467168D4F8E800FCF7C5
:1042300009FAD4F8F810FCF705FAD4F8888041465A
:10424000FCF7FEF94FF07E51FCF7FAF906464FF005
:104250007E513846FCF7F4F942463146FDF772FAD2
:104260002E683168D4F8E000FCF7ECF9D4F8F010CF
:10427000FCF7E8F905467168D4F8E800FCF7E2F9C4
:10428000D4F8F810FCF7DEF94FF07E51FCF7D8F9BE
:1042900004464FF07E512846FCF7D2F92146FEF73E
:1042A0007BFF03B0BDE8F083012BFAD10220FDF7BC
:1042B00033FAD4F8E0902F68D4F8E8504FF07E51EC
:1042C000D4F8F800FCF7BCF90646D4F8F080796819
:1042D0002846FCF7B7F9054639684846FCF7B2F9B5
:1042E000236D0093334642462946FFF79CFD01208B
:1042F000FDF712FAD5E710B586B00446D1F8E430E0
:104300000393D1F8EC30049303AB0193022302939F
:1043100005AB01AA06CAFEF70FFF204606B010BD86
:104320007047704700207047002070477047704703
:1043300090F8E0301BB1012380F8E2307047002391
:1043400080F8E2307047704708B5E42104F0E0FEE1
:1043500008BDF0B583B004460D4616461F4600F072
:10436000E9FC0368089A019200971F6E33462A46BB
:104370002146B84703B0F0BD2DE9F04F83B00446A5
:104380000E4615461F460430FEF731FF0120FDF7AB
:10439000C3F9D7F80090D4F8CCB0D4F8C8A0D9F8B5
:1043A00004102846FCF74EF98046D9F80010304634
:1043B000FCF748F9D4F8D83000935B4652464146A2
:1043C000FFF7C7FF94F8E23013B903B0BDE8F08FF0
:1043D000D7F80080D8F800103046FCF733F90646CD
:1043E000D4F8C8A04FF07A515046FCF733FA07468C
:1043F000D8F804102846FCF725F98146D4F8CC50AB
:104400004FF07A512846FCF725FA04464FF07C51CC
:104410002846FCF71FFA80464FF07C515046FCF7C7
:1044200019FA054621464846FCF70CF90446394678
:104430003046FCF707F943462A462146FDF79CF92A
:10444000C3E7000038B504460D46802303714023BE
:1044500043710D4B83600C30FEF7B0FB0B4B2360B8
:104460000B4B23602B7884F8E0304BB1012384F8A8
:10447000E230002384F8E130C4F8DC30204638BD57
:10448000002384F8E230F4E700007F434C87010802
:104490006C87010800487047B002002008B500F0A2
:1044A00049FC0368DB6A984708BD00002DE9F04F1E
:1044B0008DB00446059191463D4B1B68BFF35B8F61
:1044C00013F0010F40F03681394805F05BFB0028FE
:1044D00000F03081D4E906233649C1E9002334488D
:1044E00005F070FB26E10598FDF70DF9FCF75EF984
:1044F0000546FFF7CFFFD0F894000146FCF7A2F87D
:1045000001462846FCF79EF82B4B18602B4805F017
:1045100059FB27E1FFF7C2FFFCF748F90546FFF713
:10452000B9FFD0F894000146FCF78CF80146284604
:10453000FCF788F8224B1860224805F043FB1EE187
:10454000214805F01FFB002800F021811C4B196851
:104550000020FCF775F84FF08241FCF771F81B4B17
:104560001860194805F02EFB11E100F0E3FB4079DB
:10457000FCF71CF9124B1968FCF762F81449FCF7B8
:104580001DFA144B18601AE100F0D4FB0079FCF717
:104590000DF9094B1968FCF753F84FF07C51FCF703
:1045A00059F90D4B18600D4805F00CFB14E100BFE4
:1045B000840B0020880B0020800B00207C0B002047
:1045C000780B0020740B00206C0B0020700B002077
:1045D00000004040680B0020640B0020600B0020AE
:1045E00006A8FDF750F9E568216909A8FEF7BBFDAB
:1045F00009A92846FFF7A4FC09A8FDF744F9E268D9
:1046000061682069FEF746FD0020FDF785F8864FBA
:104610004FF081413868FCF713F80290834E4FF059
:1046200081413068FCF70CF88046DFF804A24FF0B7
:104630008241DAF80000FCF705F80390DFF8F4B1E6
:104640004FF08241DBF80000FBF7FCFF0490FFF71E
:1046500021FF05464FF08041D0F89800FBF7F2FFAC
:104660000090049B039A41460298FFF7DCFB01206F
:10467000FDF752F84FF08041DBF80000FBF7E2FF56
:1046800083464FF08041DAF80000FBF7DBFF8246FB
:104690004FF07E513068FBF7D3FF80464FF07E51DC
:1046A0003868FBF7CDFFD5F8983000935B4652464B
:1046B0004146FFF74EFED5F8948039684046FBF737
:1046C000C1FF074631684046FBF7BCFF8046FFF755
:1046D000E5FEFCF76BF84146FBF7B4FF0146059A8F
:1046E0003846FDF722F8FCF7F7FF2368DF68D5F8B6
:1046F0009C30514A126831462046B847A269E369A6
:104700004E4801684068521A63EB00034A4573F152
:1047100000030FD3474B19680020FBF791FF4FF0C0
:104720008241FBF78DFF3168FCF728FA10B1444B4A
:1047300000221A70424B1B78002B72D0A369E269E9
:10474000013342F10002A361E2613E4B1B68BFF3FB
:104750005B8F13F0010F05D13A4805F013FA0028DA
:104760007FF4C1AE384B1B68BFF35B8F13F0010FB2
:1047700005D1354805F006FA00287FF4CBAE334B5F
:104780001B68BFF35B8F13F0010F3FF4D9AEA26932
:10479000E3692A4801684068521A63EB00034A45FE
:1047A00073F10003FFF4E1AE224B19680020FBF720
:1047B00047FF4FF08241FBF743FF1F4B1860244B2C
:1047C0001B68BFF35B8F13F0010F05D1204805F084
:1047D000D9F900287FF4D8AEFCF785FF6568216918
:1047E00006A8FEF7C0FC06A92846FEF791FDF7E6ED
:1047F000144805F0E3F904F08DFC134805F0DEF9E8
:1048000004F088FC124805F0D9F904F083FC06A8EE
:10481000FDF739F804F07EFC09A8FDF734F804F040
:1048200079FC0DB0BDE8F08F640B0020700B002008
:10483000800B0020780B0020680B0020880B0020E4
:10484000AC0200207C0B0020740B00206C0B0020BD
:10485000600B002070B584B005460E464160F02024
:1048600005F0D2F9044600210A46FEF74DFA2C6104
:10487000214601A8FEF777FC01A93046FEF7C8FCE7
:1048800001A8FDF700F84FF4847005F0BDF9044667
:104890004FF4847200210EF071FA802323714023BB
:1048A0006371104BA36004F10C00FEF787F90E4B07
:1048B00023600E4B2360EC6031462046FFF734FB4B
:1048C0000321E868FFF7C2FA04B070BDF02120466A
:1048D00004F01EFC04F01EFC01A8FCF7D4FF04F059
:1048E00019FC00BF00007F432C860108E087010807
:1048F00030B593B004464068FEF786FFB0B16068FB
:10490000FEF782FFFEF7FBFC00B36068FEF7F2FCE7
:104910006068FEF779FF0546606021690FA8FEF721
:1049200022FC0FA92846FEF773FC1FE007AA1C49CA
:1049300001A8FDF71DFE4FF4167201A92046FFF7EE
:10494000B5FD01A8FCF781FF002017E00EAA15496C
:1049500008A8FDF70DFE4FF4167208A92046FFF7D0
:10496000A5FD08A8FCF771FF002007E00FA8FCF7E1
:104970008AFF6168E068FFF7D7FA012013B030BD05
:1049800001A8FCF762FF04F0C5FB08A8FCF75DFF77
:1049900004F0C0FB0FA8FCF776FF04F0BBFB00BFE0
:1049A000848701089887010830B593B004464068B1
:1049B000FEF731FFB0B16068FEF72DFFFEF79FFCF8
:1049C00000B36068FEF796FC6068FEF724FF0546BA
:1049D000606021690FA8FEF7C6FB0FA92846FEF705
:1049E00017FC1FE007AA1C4901A8FDF7C1FD4FF401
:1049F000167201A92046FFF759FD01A8FCF725FF13
:104A0000002017E00EAA154908A8FDF7B1FD4FF4E4
:104A1000167208A92046FFF749FD08A8FCF715FF04
:104A2000002007E00FA8FCF72EFF6168E068FFF7A1
:104A30007BFA012013B030BD01A8FCF706FF04F09B
:104A400069FB08A8FCF701FF04F064FB0FA8FCF762
:104A50001AFF04F05FFB00BF8487010898870108F4
:104A600070B58AB00446FCF73EFE6568216901A86E
:104A7000FEF779FB01A92846FEF74AFC01A8FCF7DE
:104A800002FFA5685DB12B685E69216904A8FEF785
:104A90006AFB04A92846B04704A8FCF7F4FEE568C1
:104AA000216907A8FEF75FFB07A92846FFF748FA28
:104AB00007A8FCF7E8FEE26861682069FEF7EAFAF9
:104AC000A369E269A3F5FA7313434CD0A369E269C1
:104AD000A3F5487313434BD0A369E269A3F596632A
:104AE000134349D0A369E269A3F2DC53134348D0CE
:104AF000A369E269A3F5E163134347D0A369E269BF
:104B0000A3F63403134346D0A369E269A3F6FC037A
:104B1000134345D0A369E269A3F6C413134344D0F9
:104B2000A369E269A3F65433134342D0A369E2694F
:104B3000A3F54863134340D0A169E36940F6B2424C
:104B4000914273F1000303D300220023C4E906233A
:104B5000FCF7C2FDA369E269013342F10002A361DF
:104B6000E2610AB070BD0321E068FFF76FF9ADE7BD
:104B70002046FFF7BDFEAFE70121E068FFF766F9C9
:104B8000B0E70321E068FFF761F9B1E70421E068CD
:104B9000FFF75CF9B2E70121E068FFF757F9B3E7E7
:104BA0000021E068FFF752F9B4E72046FFF7A0FEC6
:104BB000B6E72046FFF7F8FEB8E70021E068FFF708
:104BC00045F9B9E701A8FCF75EFE04F0A3FA04A8D2
:104BD000FCF759FE04F09EFA07A8FCF754FE04F017
:104BE00099FA000000B583B00A4B5A6942F00102FD
:104BF0005A615B6903F001030193019B0022114696
:104C00000F2002F0D1FF0F2002F0DEFF03B05DF8AD
:104C100004FB00BF0010024070B588B0002404946B
:104C2000059406940794234B9A6942F020029A61F6
:104C30009A6902F020020192019A9A6942F00402F4
:104C40009A619A6902F004020292029A9A6942F009
:104C500008029A619B6903F008030393039B164DB6
:104C600022460421284603F05CFA01221821284636
:104C700003F057FA042304930126059602230693B2
:104C8000079304A9284603F037F9182304930596DF
:104C900006960323079304A9284603F02DF9C023A1
:104CA00004930594069404A9284603F025F908B056
:104CB00070BD00BF00100240000801407047002096
:104CC000704700207047002070477047704770475A
:104CD000002070470020704770477047704770474A
:104CE000704770477047704770477047704770470C
:104CF00070477047002070470020704700207047C1
:104D00007047704770477047704700207047704782
:104D1000014B0360704700BF1088010810B50446BE
:104D2000034B0360102104F0F3F9204610BD00BFCF
:104D300010880108014B1868704700BFB40B0020B1
:104D400010B50446FFF7F6FF0368D3F88C30214610
:104D5000984710BD10B50024012C06DCE0B2FFF727
:104D6000EFFF034610B90134F6E70023184610BDE3
:104D700008B5FFF7DFFF0368D3F89030984708BD08
:104D800010B5304B1B78022B0CD804465AB21ABB14
:104D90003BB9FFF7EDFF78B900232B4A13702B4A7C
:104DA000137010BD032BFCD1FFF7E2FF0028F8D1F0
:104DB000244B00221A70F4E70020FFF7C1FF10B166
:104DC000204B01221A700120FFF7BAFF0028E3D020
:104DD0001C4B02221A70DFE7FFF7CAFF28B31B4BF8
:104DE0001B7813B9194B01221A70174A1378013333
:104DF000DBB21370642BD4D90020FFF7A1FF18B1E8
:104E000002232373002363730120FFF799FF18B176
:104E1000022363730023237300230B4A13700B4A8E
:104E20001370084B03221A70BBE7084B1B781BB1A9
:104E3000044B03221A70B4E70023024A1370637311
:104E40002373AEE7900B0020920B0020910B002003
:104E500010B50446FFF78CFF70B10023012B09D871
:104E6000E218127B012A04D0022A09D00133DBB2F6
:104E7000F4E713B90023A38110BD012BFAD0F5E7A5
:104E8000002BF7D0012BF5D0F0E7000040B110B5B2
:104E900004460368DB689847024B1C60012010BD84
:104EA00000207047B40B002070B506460C46083051
:104EB00030600D4655F8083B9D420AD033608B6840
:104EC000B3606368736025600023636023723046BB
:104ED00070BD4A680132F4D02946FCF77BF8F0E750
:104EE00030B585B08446019144680368E31ADB104D
:104EF000114803FB00F0114D2D1A8D4213D303907E
:104F0000814213D803AA12681044DCF80030E41A76
:104F1000E410094B03FB04F4A04209D3074B984269
:104F200008D805B030BD104605F0FCFA01AAEAE742
:104F30000248F6E70148F4E7ABAAAAAA5555550579
:104F4000F8B545688D420AD007460E460C4603E088
:104F50002046FCF77AFC1834A542F9D17E60F8BDF2
:104F600008B5084602EB4202D10004F0D1F808BDB2
:104F700010B5044601688268521AD210034B03FB35
:104F800002F209B1FFF7ECFF204610BDABAAAAAAB6
:104F900070B506460468456803E02046FCF755FCFA
:104FA0001834A542F9D13046FFF7E2FF304670BD14
:104FB00070B504460E46154608E021462846FFF720
:104FC00073FF2046FCF741FC18341835B442F4D185
:104FD000284670BD10B582B0044601AA0249FDF70B
:104FE000C7FA204602B010BDF087010870B582B044
:104FF00004460E46551A01950F2D0DD800942A46E9
:1050000031462068FDF73CFA00220092019B636064
:105010002168CA5402B070BD002201A9FDF76EFAE2
:105020002060019BA360E9E710B504460B4600F140
:105030000802026009685A684FF000030A44FFF74B
:10504000D5FF204610BD000008B5084B994205D891
:1050500001EB4101C80004F0D7FD08BD044B9942A3
:1050600001D905F037FA05F025FA00BF5555550569
:10507000AAAAAA0A2DE9F84F044688469246274A6A
:105080000121FFF72DFF2768D4F804B0A8EB07092A
:10509000054658B1002201462046FFF7D5FF0646D7
:1050A000B14451464846FFF7BFFF01E00026F7E74D
:1050B0002346324641463846FFF77AFF234600F141
:1050C000180259464046FFF773FF8046A368DB1B72
:1050D000DB10134A03FB02F21FB139462046FFF7EB
:1050E0003FFF2660C4F8048005EB450506EBC505C7
:1050F000A560BDE8F88F04F0D3F846B94846FCF740
:10510000A4FB04F007FD04F00BF904F003F82A46B1
:1051100031462046FFF724FFF3E700BFDC84010897
:10512000ABAAAAAA10B504464068A368984205D065
:10513000FFF77AFF63681833636010BD0A460146C3
:105140002046FFF797FFF8E738B50C46434B1B683E
:10515000BFF35B8F13F0010F28D0414B1B68BFF3E7
:105160005B8F13F0010F03D13D4804F00BFD58BBDA
:105170003C4B1B68BFF35B8F13F0010F31D03A4AF1
:10518000536811685B1ADB10384A02FB03F3384A94
:1051900012789A4232D921463348FFF7C3FFFCF711
:1051A000A2FA0220FCF7B8FA00243DE02B4804F0F4
:1051B000E9FC0028D1D02F4A2F492B4803F024FFC7
:1051C000264804F0FFFCC8E7FFF7B4FD4579FFF778
:1051D00065F9B5FBF0F5264B1D70214804F0F2FC93
:1051E000C6E7204804F0CEFC0028C8D0FFF756F9E7
:1051F000224B18701B4804F0E5FCC0E71A48FFF783
:105200009FFEC8E71D4B1B7803FB044004EB4401E1
:1052100005EBC1051844FBF7C9FA01462A460020F0
:10522000FCF783FA0134E4B20F4A536815685B1B3C
:10523000DB100E4901FB03F39C42E3D3FCF74CFA6D
:105240000120FCF769FA38BD054804F0B7FC03F00B
:1052500061FF044804F0B2FC03F05CFFA40B0020E3
:105260009C0B0020940B0020A80B0020ABAAAAAA3C
:10527000A00B002000000020914F0008980B002098
:1052800070477047704770477047704708B539B12D
:105290008021074802F03EFF003818BF012008BDFA
:1052A0004021034802F036FF003818BF0120F6E71E
:1052B0000008014008B502F029F908BD00B591B019
:1052C0002822002106A80DF059FD00230193029326
:1052D000039304930593012206924FF480330793BE
:1052E0000A9202220D920E934FF4E0130F9306A838
:1052F00002F034FF80B90F230193022102910023B1
:1053000003934FF480620492059301A803F058F9C7
:1053100028B911B05DF804FB01F06FFFEBE701F075
:105320006CFFF6E708B5FFF777FC08BD704708B5D6
:1053300001F0B8FF08BD08B5FFF754FC08BD08B57B
:10534000FCF754F908BD08B5084602F003F908BD9A
:1053500008B502F0F9F808BD094B18684FF0E022D3
:10536000536992699B1A074A12680749A1FB021206
:10537000920CB3FBF2F34FF47A7202FB00307047E9
:105380005C1000208003002083DE1B4310B50B4C13
:10539000204602F09FFA3221204602F0EFF8204624
:1053A00002F052FA10F4007F02D1054B186810BDCC
:1053B000204602F0A5F9024B1860F6E7640A0020C7
:1053C000B80B00202DE9F04F83B007460E469146FA
:1053D0001D46DDF8308090F892A0CB18541CA4B282
:1053E00000949BB200F0FFFF78B3BAFA8AFB4FEA51
:1053F0005B1B012414E087F892A000230093012393
:105400004A463146384600F040FF0136B6B26400E5
:1054100014F0FF0402D108F101080124013DADB2EE
:105420008DB198F800302342E5D197F89130002BE8
:10543000EBD187F892B0009301234A4631463846B3
:1054400000F023FFE1E787F892A003B0BDE8F08FFA
:105450002DE9F04782B08246884614461F46BDF8C3
:1054600028500B9E03F10709C9F3CC0903EB010C8B
:1054700053199BB200931FFA8CF300F0B4FF60B98C
:105480000DE000963B46224641465046FFF79AFF04
:105490004E440134A4B2013DADB2002DF1D102B0B1
:1054A000BDE8F0872DE9F04182B080460F461446F2
:1054B0001E46BDF8205001EB030C53199BB200931C
:1054C0001FFA8CF300F08FFF60B90DE0002200920C
:1054D000334622463946404600F0D7FE0134A4B296
:1054E000013DADB2002DF1D102B0BDE8F0812DE952
:1054F000F04782B080460D4614461E46BDF82890FF
:10550000CF18BFB202EB09039BB200933B4600F0F9
:105510006AFF10B902B0BDE8F0870023009333465C
:1055200022462946404600F0B0FEB9F1010FF1D9FC
:10553000A9F102091FFA89F90134A4B2B9F1000FE7
:1055400008D100230093334622462946404600F006
:105550009CFEDFE74FF0010ACDF800A04B46224643
:105560002946404600F091FE791ECDF800A04B463A
:10557000224689B2404600F088FEA1441FFA89F411
:10558000DFE72DE9F04F87B080460C469246BDF824
:105590004060BDF84470039104931C44A4B2951973
:1055A000ADB20095234600F01EFF10B907B0BDE86C
:1055B000F08F039A02EB07091FFA89F90AEB070B30
:1055C0001FFA8BFBE41BA4B2013CA4B2ED1BADB2ED
:1055D000013DADB2022300933B465A464946404640
:1055E00000F074FA012300933B465A462146404698
:1055F00000F06CFA042300933B462A464946404695
:1056000000F064FA082300933B462A4621464046B0
:1056100000F05CFA049BDB1B9BB2DB1B9BB209F125
:1056200001091FFA89F90BF1010B1FFA8BFB022B01
:105630000FD8F61BB6B2F61BB6B2022EB6D9023E92
:10564000B6B20096049B5A4603994046FFF72AFFDC
:10565000ACE7023B9BB27C1CA4B20094059352467B
:1056600049464046FFF71EFF0094059B2A464946DF
:105670004046FFF717FFDCE72DE9F04F85B00746FE
:105680000C469046BDF838B0BDF83C6002910393DB
:105690001C44A4B202EB0B05ADB20095234600F00A
:1056A000A2FE10B905B0BDE8F08F029A02EB060A1F
:1056B0001FFA8AFA08EB06091FFA89F9A41BA4B29B
:1056C000013CA4B2AD1BADB2013DADB202230093CB
:1056D00033464A465146384600F0D4F90123009338
:1056E00033464A462146384600F0CCF9042300935D
:1056F00033462A465146384600F0C4F90823009341
:1057000033462A462146384600F0BCF9039B9B1BD2
:105710009BB29B1B9BB2ABEB0604A4B2A41BA4B22E
:105720000AF1010A1FFA8AFA09F101091FFA89F937
:10573000022B16D8022CB5D9023CA4B2039B5D1EE5
:10574000ADB223464A46029E3146384600F00AFE74
:105750003146294423464A4689B2384600F002FEC3
:10576000A0E7023B9DB20BF1FF3B1FFA8BFB2B46E0
:1057700042465146384600F0EDFD08EB0B022B4641
:1057800092B25146384600F0E5FDD3E710B582B03D
:1057900003681B7C446B03FB01F1C90089B20C4414
:1057A0000094002101F002F902B010BD2DE9F04192
:1057B000064690F8387090F83950036893F81180D5
:1057C00000242A4621463046FFF7E0FF0134E4B2C8
:1057D0000135EDB2A74201D9A845F2D8BDE8F08164
:1057E00008B503681B7C90F8382003FB02F2D20056
:1057F0000021406B0DF0C2FA08BD10B50446FFF75A
:10580000D5FF204601F0F8F810BD2DE9F843804699
:105810000F4691461C46BDF820609DF8245015F0B7
:10582000010F0AD115F0020F16D115F0080F24D17F
:1058300015F0040F32D1BDE8F883B21A591892B2AC
:1058400089B200F097FDF21B04EB090192B289B214
:10585000404600F08FFDE5E7A6EB0902E11B92B29E
:1058600089B2404600F086FDF21BA4EB090192B21A
:1058700089B2404600F07EFDD7E706EB0902E11948
:1058800092B289B2404600F075FDBA1904EB0901E5
:1058900092B289B2404600F06DFDC9E706EB0902FD
:1058A000E11B92B289B2404600F064FDBA19A4EB44
:1058B000090192B289B2404600F05CFDBBE72DE9D8
:1058C000F04F85B00390894692461E469DF838B049
:1058D000C3F1010424B2C3EBC3384FEA48080FFAFE
:1058E00088F8CDF804B000920B4632460021FFF74D
:1058F0008CFF002501271AE0013EB6B208F102082C
:105900001FFA88F30FFA88F823441CB20135ADB2B0
:105910000237BBB23FB223441CB2CDF804B0CDF87D
:1059200000A04B46324629460398FFF76EFFB5426A
:1059300002D2002CE0DAE9E705B0BDE8F08F2DE9EE
:10594000F84380460C4617461D46BDF820909DF84A
:10595000246016F0010F0AD116F0020F1BD116F0C9
:10596000080F2DD116F0040F3BD1BDE8F883531C6E
:10597000A9EB020269189BB292B289B200F0F2FC64
:10598000631CA9EB0402E9199BB292B289B24046AA
:1059900000F0E8FCE0E77B1CA9EB0702291B9BB2A7
:1059A00092B289B2404600F0DDFC631CA9EB040210
:1059B000E91B9BB292B289B2404600F0D3FCCEE71D
:1059C0007B1C29199BB24A4689B2404600F0CAFCAA
:1059D000631CE9199BB24A4689B2404600F0C2FCFA
:1059E000C0E77B1C291B9BB24A4689B2404600F0A7
:1059F000B9FC631CE91B9BB24A4689B2404600F0E1
:105A0000B1FCB2E72DE9F04F85B00390894692468C
:105A10001E469DF838B0C3F1010424B2C3EBC3386D
:105A20004FEA48080FFA88F8CDF804B000920B4608
:105A300032460021FFF783FF002501271AE0013ECF
:105A4000B6B208F102081FFA88F30FFA88F8234467
:105A50001CB20135ADB20237BBB23FB223441CB217
:105A6000CDF804B0CDF800A04B4632462946039845
:105A7000FFF765FFB54202D2002CE0DAE9E705B096
:105A8000BDE8F08F2DE9F04182B080460E46174602
:105A90001D46CB189BB2AC18A4B20133521B491B54
:105AA0000134A4B200949BB292B289B200F09BFC84
:105AB00010B902B0BDE8F0819DF8203000932B466C
:105AC0003A4631464046FFF7FAFEF2E72DE9F0414B
:105AD00082B080460E4617461D46CB189BB2AC18C6
