:020000040800F2
:1000000000500020458C00085D7000085F700008FB
:10001000617000086370000865700008000000004F
:1000200000000000000000000000000067700008F1
:1000300069700008000000006B7000086D70000817
:100040008D8C00088D8C00088D8C00088D8C00082C
:100050008D8C00088D8C00088D8C00088D8C00081C
:100060008D8C00088D8C00088D8C00088D8C00080C
:100070008D8C00088D8C00088D8C00087570000830
:100080008D8C00088D8C00088D8C00088D8C0008EC
:100090008D8C00088D8C00088D8C00088D8C0008DC
:1000A0008D8C00088D8C00088D8C00088D8C0008CC
:1000B0008D8C00088D8C00088D8C00088D8C0008BC
:1000C0008D8C00088D8C00088D8C00088D8C0008AC
:1000D000857000088D8C00088D8C00088D8C0008C0
:1000E0008D8C00088D8C00088D8C000800000000AD
:1000F0000000000000000000000000000000000000
:0C01000000000000000000005FF808F1A3
:1001100081F0004102E000BF83F0004330B54FEAB8
:1001200041044FEA430594EA050F08BF90EA020F25
:100130001FBF54EA000C55EA020C7FEA645C7FEAB8
:10014000655C00F0E2804FEA5454D4EB5555B8BFDB
:100150006D420CDD2C4480EA020281EA030382EA4C
:10016000000083EA010180EA020281EA0303362DDE
:1001700088BF30BD11F0004F4FEA01314FF4801CB1
:100180004CEA113102D0404261EB410113F0004FC3
:100190004FEA03334CEA133302D0524263EB43037A
:1001A00094EA050F00F0A780A4F10104D5F1200E18
:1001B0000DDB02FA0EFC22FA05F2801841F1000173
:1001C00003FA0EF2801843FA05F359410EE0A5F147
:1001D00020050EF1200E012A03FA0EFC28BF4CF078
:1001E000020C43FA05F3C01851EBE37101F000452E
:1001F00007D54FF0000EDCF1000C7EEB00006EEB3B
:100200000101B1F5801F1BD3B1F5001F0CD34908C4
:100210005FEA30004FEA3C0C04F101044FEA44521B
:1002200012F5800F80F09A80BCF1004F08BF5FEAA2
:10023000500C50F1000041EB045141EA050130BD82
:100240005FEA4C0C404141EB0101013C28BFB1F594
:10025000801FE9D291F0000F04BF01460020B1FADF
:1002600081F308BF2033A3F10B03B3F120020CDAB2
:100270000C3208DD02F1140CC2F10C0201FA0CF090
:1002800021FA02F10CE002F11402D8BFC2F1200CF5
:1002900001FA02F120FA0CFCDCBF41EA0C019040AB
:1002A000E41AA2BF01EB0451294330BD6FEA0404F4
:1002B0001F3C1CDA0C340EDC04F11404C4F12002DF
:1002C00020FA04F001FA02F340EA030021FA04F3F1
:1002D00045EA030130BDC4F10C04C4F1200220FA48
:1002E00002F001FA04F340EA0300294630BD21FA86
:1002F00004F0294630BD94F0000F83F4801306BF4C
:1003000081F480110134013D4EE77FEA645C18BF3F
:100310007FEA655C29D094EA050F08BF90EA020FD6
:1003200005D054EA000C04BF1946104630BD91EACE
:10033000030F1EBF0021002030BD5FEA545C05D1D1
:100340004000494128BF41F0004130BD14F5800410
:100350003CBF01F5801130BD01F0004545F0FE4184
:1003600041F470014FF0000030BD7FEA645C1ABFB9
:10037000194610467FEA655C1CBF0B46024650EAF0
:10038000013406BF52EA033591EA030F41F400211C
:1003900030BD00BF90F0000F04BF0021704730B5A2
:1003A0004FF4806404F132044FF000054FF0000177
:1003B00050E700BF90F0000F04BF0021704730B538
:1003C0004FF4806404F1320410F0004548BF40420D
:1003D0004FF000013EE700BF42004FEAE2014FEA62
:1003E00031014FEA02701FBF12F07F4393F07F4F3D
:1003F00081F06051704732F07F4208BF704793F040
:100400007F4F04BF41F40021704730B54FF4607452
:1004100001F0004521F000411CE700BF50EA010255
:1004200008BF704730B54FF000050AE050EA0102FE
:1004300008BF704730B511F0004502D5404261EB6E
:1004400041014FF4806404F132045FEA915C3FF4AF
:10045000D8AE4FF003025FEADC0C18BF03325FEA4C
:10046000DC0C18BF033202EBDC02C2F1200300FAFD
:1004700003FC20FA02F001FA03FE40EA0E0021FA22
:1004800002F11444BDE600BF4FF0FF3C06E000BFA0
:100490004FF0010C02E000BF4FF0010C4DF804CD0D
:1004A0004FEA410C7FEA6C5C4FEA430C18BF7FEACD
:1004B0006C5C1BD001B050EA410C0CBF52EA430CFB
:1004C00091EA030F02BF90EA020F0020704710F17B
:1004D000000F91EA030F58BF994208BF90422CBF0A
:1004E000D8176FEAE37040F0010070474FEA410C03
:1004F0007FEA6C5C02D150EA013C07D14FEA430C21
:100500007FEA6C5CD6D152EA033CD3D05DF8040B91
:10051000704700BF8446104662468C4619466346C3
:1005200000E000BF01B5FFF7B7FF002848BF10F19A
:10053000000F01BD4DF808EDFFF7F4FF0CBF0120DF
:1005400000205DF808FB00BF4DF808EDFFF7EAFF5B
:1005500034BF012000205DF808FB00BF4DF808ED16
:10056000FFF7E0FF94BF012000205DF808FB00BF0B
:100570004DF808EDFFF7CEFF94BF012000205DF895
:1005800008FB00BF4DF808EDFFF7C4FF34BF0120A2
:1005900000205DF808FB00BF4FEA4102B2F1E043E2
:1005A00024BFB3F5001CDCF1FE5C0DD901F0004C5A
:1005B0004FEAC0024CEA5070B2F1004F40EB8300AA
:1005C00008BF20F00100704711F0804F21D113F1D6
:1005D0003872BCBF01F00040704741F480114FEA0F
:1005E0005252C2F11802C2F1200C10FA0CF320FA98
:1005F00002F018BF40F001004FEAC1234FEAD323B5
:1006000003FA0CFC40EA0C0023FA02F34FEA43031E
:10061000CCE77FEA625307D150EA01331EBF4FF0A7
:10062000FE4040F44000704701F0004040F0FE40C2
:1006300040F40000704700BF80F0004002E000BFBF
:1006400081F0004142001FBF5FEA410392EA030FBD
:100650007FEA226C7FEA236C6AD04FEA1262D2EB07
:100660001363C1BFD218414048404140B8BF5B420C
:10067000192B88BF704710F0004F40F4000020F0A5
:100680007F4018BF404211F0004F41F4000121F0BB
:100690007F4118BF494292EA030F3FD0A2F1010205
:1006A00041FA03FC10EB0C00C3F1200301FA03F143
:1006B00000F0004302D5494260EB4000B0F5000F66
:1006C00013D3B0F1807F06D340084FEA310102F125
:1006D0000102FE2A51D2B1F1004F40EBC25008BFD7
:1006E00020F0010040EA03007047490040EB0000A1
:1006F000013A28BFB0F5000FEDD2B0FA80FCACF1A2
:10070000080CB2EB0C0200FA0CF0AABF00EBC250CE
:1007100052421843BCBFD0401843704792F0000FBC
:1007200081F4000106BF80F400000132013BB5E70F
:100730004FEA41037FEA226C18BF7FEA236C21D085
:1007400092EA030F04D092F0000F08BF08467047EA
:1007500090EA010F1CBF0020704712F07F4F04D1B8
:10076000400028BF40F00040704712F100723CBFCB
:1007700000F50000704700F0004343F0FE4040F4F5
:10078000000070477FEA226216BF08467FEA2363B3
:100790000146420206BF5FEA412390EA010F40F49E
:1007A000800070474FF0000304E000BF10F00043EA
:1007B00048BF40425FEA000C08BF704743F09643D1
:1007C00001464FF000001CE050EA010208BF7047EC
:1007D0004FF000030AE000BF50EA010208BF704773
:1007E00011F0004302D5404261EB41015FEA010C88
:1007F00002BF84460146002043F0B64308BFA3F180
:100800008053A3F50003BCFA8CF2083AA3EBC25361
:1008100010DB01FA02FC634400FA02FCC2F1200280
:10082000BCF1004F20FA02F243EB020008BF20F0B7
:100830000100704702F1200201FA02FCC2F120021D
:1008400050EA4C0021FA02F243EB020008BF20EA12
:10085000DC7070474FF0FF0C1CEAD0521EBF1CEA40
:10086000D15392EA0C0F93EA0C0F6FD01A4480EA2E
:10087000010C400218BF5FEA41211ED04FF0006317
:1008800043EA501043EA5111A0FB01310CF0004043
:10089000B1F5000F3EBF490041EAD3715B0040EA69
:1008A000010062F17F02FD2A1DD8B3F1004F40EB39
:1008B000C25008BF20F00100704790F0000F0CF00C
:1008C000004C08BF49024CEA502040EA51207F3AD0
:1008D000C2BFD2F1FF0340EAC250704740F40000AB
:1008E0004FF00003013A5DDC12F1190FDCBF00F09C
:1008F00000407047C2F10002410021FA02F1C2F14A
:10090000200200FA02FC5FEA310040F1000053EAE5
:100910004C0308BF20EADC70704792F0000F00F033
:10092000004C02BF400010F4000F013AF9D040EA39
:100930000C0093F0000F01F0004C02BF490011F4CD
:10094000000F013BF9D041EA0C018FE70CEAD153CB
:1009500092EA0C0F18BF93EA0C0F0AD030F0004C4B
:1009600018BF31F0004CD8D180EA010000F00040FF
:10097000704790F0000F17BF90F0004F084691F0BD
:10098000000F91F0004F14D092EA0C0F01D14202F7
:100990000FD193EA0C0F03D14B0218BF084608D1C0
:1009A00080EA010000F0004040F0FE4040F400000A
:1009B000704740F0FE4040F4400070474FF0FF0C9D
:1009C0001CEAD0521EBF1CEAD15392EA0C0F93EAE4
:1009D0000C0F69D0A2EB030280EA010C49024FEA36
:1009E000402037D04FF0805343EA111143EA1013EF
:1009F0000CF000408B4238BF5B0042F17D024FF4A7
:100A0000000C8B4224BF5B1A40EA0C00B3EB510F81
:100A100024BFA3EB510340EA5C00B3EB910F24BF6A
:100A2000A3EB910340EA9C00B3EBD10F24BFA3EBEF
:100A3000D10340EADC001B0118BF5FEA1C1CE0D1B7
:100A4000FD2A3FF650AF8B4240EBC25008BF20F06A
:100A5000010070470CF0004C4CEA50207F32C2BFBE
:100A6000D2F1FF0340EAC250704740F400004FF05B
:100A70000003013A37E792F0000F00F0004C02BF8C
:100A8000400010F4000F013AF9D040EA0C0093F056
:100A9000000F01F0004C02BF490011F4000F013BB0
:100AA000F9D041EA0C0195E70CEAD15392EA0C0F18
:100AB00008D142027FF47DAF93EA0C0F7FF470AF50
:100AC000084676E793EA0C0F04D14B023FF44CAF93
:100AD00008466EE730F0004C18BF31F0004CCAD128
:100AE00030F000427FF45CAF31F000437FF43CAF64
:100AF0005FE700BF4FF0FF3C06E000BF4FF0010C86
:100B000002E000BF4FF0010C4DF804CD4FEA400267
:100B10004FEA41037FEA226C18BF7FEA236C11D0B1
:100B200001B052EA530C18BF90EA010F58BFB2EB64
:100B3000030088BFC81738BF6FEAE17018BF40F0E4
:100B4000010070477FEA226C02D15FEA402C05D198
:100B50007FEA236CE4D15FEA412CE1D05DF8040B1D
:100B6000704700BF844608466146FFE70FB5FFF7B0
:100B7000C9FF002848BF10F1000F0FBD4DF808ED68
:100B8000FFF7F4FF0CBF012000205DF808FB00BF59
:100B90004DF808EDFFF7EAFF34BF012000205DF8B3
:100BA00008FB00BF4DF808EDFFF7E0FF94BF012000
:100BB00000205DF808FB00BF4DF808EDFFF7D2FFFD
:100BC00094BF012000205DF808FB00BF4DF808ED40
:100BD000FFF7C8FF34BF012000205DF808FB00BF0D
:100BE0004FEA4002B2F1FE4F0FD34FF09E03B3EB3A
:100BF00012620DD94FEA002343F0004310F0004F7A
:100C000023FA02F018BF404270474FF000007047CF
:100C100012F1610F01D1420205D110F0004008BF6E
:100C20006FF0004070474FF00000704742000ED256
:100C3000B2F1FE4F0BD34FF09E03B3EB126209D417
:100C40004FEA002343F0004323FA02F070474FF0CD
:100C50000000704712F1610F01D1420202D14FF042
:100C6000FF3070474FF00000704700BF00F13401C3
:100C700091E838009C46A6464CF8045D90E8FF0FCA
:100C8000E54600BD90EC210B704700BF80EC210BC6
:100C9000704700BF90EC200B704700BF80EC200B2A
:100CA000704700BFD0EC200B704700BFC0EC200B9A
:100CB000704700BFF0EC0201F0EC0211F0EC0221F1
:100CC000F0EC0231F0EC0241F0EC0251F0EC026188
:100CD000F0EC0271F0EC0281F0EC0291F0EC02A178
:100CE000F0EC02B1F0EC02C1F0EC02D1F0EC02E168
:100CF000F0EC02F1704700BFE0EC0201E0EC021101
:100D0000E0EC0221E0EC0231E0EC0241E0EC0251C7
:100D1000E0EC0261E0EC0271E0EC0281E0EC0291B7
:100D2000E0EC02A1E0EC02B1E0EC02C1E0EC02D1A7
:100D3000E0EC02E1E0EC02F1704700BFB0FC0181A1
:100D4000B0FC0191B0FC01A1B0FC01B1704700BF43
:100D5000A0FC0181A0FC0191A0FC01A1A0FC01B1BB
:100D6000704700BFEC4600B52DE900502DE9FF1F8C
:100D70004FF000032DE90C0001A90FF0D9FEDDF8BA
:100D800040E012B0704700BFEC4600B52DE90050BE
:100D90002DE9FF1F4FF000032DE90C0001A90FF012
:100DA00007FFDDF840E012B0704700BFEC4600B529
:100DB0002DE900502DE9FF1F4FF000032DE90C0035
:100DC00001A90FF015FFDDF840E012B0704700BF39
:100DD000EC4600B52DE900502DE9FF1F4FF0000350
:100DE0002DE90C0001AB0FF0D7FEDDF840E012B0AA
:100DF000704700BFEC4600B52DE900502DE9FF1FFC
:100E00004FF000032DE90C0001AA0FF04FFFDDF8B1
:100E100040E012B0704700BF80EA010C1CF0030FE5
:100E200037D110F0030C20F0030021F0030150F83B
:100E3000042B08BF51F8043B0ED08CF0030C6FF06C
:100E40007F434FEACC0C23FA0CFC51F8043B42EAF6
:100E50000C0243EA0C0300BFA2F1013C9A4201BF1D
:100E60002CEA020C1CF0803F50F8042B51F8043B94
:100E7000F2D04FEA02604FEA1222012828BFB0EBFD
:100E8000036F08BF1B0AF4D003F0FF03000EC01A63
:100E9000704710F0030F0AD010F8012B11F8013B36
:100EA000012A28BF9A42F4D0A2EB030070474DF804
:100EB000045D50F8042B01F0030521F0030151F803
:100EC000043B022D26D04DD822F07F45B5EB132FE1
:100ED000A2F1013C2CEA020C0DD11CF0803C08BFB1
:100EE00051F8043B0AD185EA0205B5EB036F0CD13A
:100EF00050F8042BE8E74FEA13235BE03CF07F4C0B
:100F000054D10B784FEA126554E04FEA126503F0B2
:100F1000FF034FE04FEA0245A2F1013C4FEA1545BD
:100F20002CEA020CB5EB134F18D11CF0803C08BF23
:100F300051F8043B07D185EA0205B5EB034F09D10F
:100F400050F8042BE6E75FEA0C4C2FD10B884FEAF0
:100F500012452FE04FEA03434FEA12454FEA13438D
:100F600028E000BF02F0FF05B5EB136FA2F1013CD2
:100F70002CEA020C0DD11CF0803C08BF51F8043B58
:100F80000AD185EA0205B5EB032F0AD150F8042BEC
:100F9000E8E74FEA13630DE012F0FF0F06D051F8B7
:100FA000043B4FEA122523F07F4303E04FF000009B
:100FB00020BC704705F0FF0203F0FF00012828BFA6
:100FC000904204BF2D0A1B0AF4D0A2EB000020BC03
:100FD000704700BF844641EA000313F0030349D180
:100FE000403A23D30B6803604B6843608B6883608F
:100FF000CB68C3600B6903614B6943618B69836193
:10100000CB69C3610B6A03624B6A43628B6A83627A
:10101000CB6AC3620B6B03634B6B43638B6B836362
:10102000CB6BC36340304031403ADBD230320BD31C
:101030000B6803604B6843608B688360CB68C36058
:1010400010301031103AF3D20C3205D351F8043B72
:1010500040F8043B043AF9D2043208D0D2071CBF4E
:1010600011F8013B00F8013B01D30B880380604677
:10107000704700BF082A13D38B07B1D010F00303C9
:10108000AED0C3F10403D21ADB071CBF11F8013B39
:1010900000F8013BA4D331F8023B20F8023B9FE764
:1010A000043AD9D3013A11F8013B00F8013BF9D2D7
:1010B0000B7803704B7843708B7883706046704771
:1010C00070B54FF0FF0C4CF4E06C1CEA11541DBFDE
:1010D0001CEA135594EA0C0F95EA0C0F00F0DEF8A9
:1010E0002C4481EA030621EA4C5123EA4C5350EA8E
:1010F000013518BF52EA033541F4801143F48013DF
:1011000038D0A0FB02CE4FF00005E1FB02E506F06F
:101110000042E0FB03E54FF00006E1FB03569CF0C4
:10112000000F18BF4EF0010EA4F1FF04B6F5007FCA
:1011300064F5407404D25FEA4E0E6D4146EB06063C
:1011400042EAC62141EA55514FEAC52040EA5E50C5
:101150004FEACE2EB4F1FD0C88BFBCF5E06F1ED86F
:10116000BEF1004F08BF5FEA500E50F1000041EBA6
:10117000045170BD06F0004646EA010140EA020053
:1011800081EA0301B4EB5C04C2BFD4EB0C0541EA75
:10119000045170BD41F480114FF0000E013C00F38A
:1011A000AB8014F1360FDEBF002001F0004170BDAE
:1011B000C4F10004203C35DA0C341BDC04F11404C7
:1011C000C4F1200500FA05F320FA04F001FA05F253
:1011D00040EA020001F0004221F0004110EBD37020
:1011E00021FA04F642EB06015EEA430E08BF20EA4C
:1011F000D37070BDC4F10C04C4F1200500FA04F3EF
:1012000020FA05F001FA04F240EA020001F0004180
:1012100010EBD37041F100015EEA430E08BF20EAF3
:10122000D37070BDC4F1200500FA05F24EEA020E3B
:1012300020FA04F301FA05F243EA020321FA04F06A
:1012400001F0004121FA04F220EA020000EBD37021
:101250005EEA430E08BF20EAD37070BD94F0000F21
:101260000FD101F00046400041EB010111F4801F55
:1012700008BF013CF7D041EA060195F0000F18BF06
:10128000704703F00046520043EB030313F4801F42
:1012900008BF013DF7D043EA0603704794EA0C0FFC
:1012A0000CEA135518BF95EA0C0F0CD050EA410612
:1012B00018BF52EA4306D1D181EA030101F000418F
:1012C0004FF0000070BD50EA410606BF10461946B7
:1012D00052EA430619D094EA0C0F02D150EA0136C3
:1012E00013D195EA0C0F05D152EA03361CBF104604
:1012F00019460AD181EA030101F0004141F0FE41A3
:1013000041F470014FF0000070BD41F0FE4141F426
:10131000780170BD70B54FF0FF0C4CF4E06C1CEA26
:1013200011541DBF1CEA135594EA0C0F95EA0C0FDB
:1013300000F0A7F8A4EB050481EA030E52EA033596
:101340004FEA013100F088804FEA03334FF08055B7
:1013500045EA131343EA12634FEA022245EA1115E4
:1013600045EA10654FEA00260EF000419D4208BF95
:10137000964244F1FD0404F5407402D25B084FEA42
:101380003202B61A65EB03055B084FEA32024FF4EE
:1013900080104FF4002CB6EB020E75EB030E22BF4B
:1013A000B61A754640EA0C005B084FEA3202B6EB0B
:1013B000020E75EB030E22BFB61A754640EA5C00BA
:1013C0005B084FEA3202B6EB020E75EB030E22BF4A
:1013D000B61A754640EA9C005B084FEA3202B6EB4B
:1013E000020E75EB030E22BFB61A754640EADC000A
:1013F00055EA060E18D04FEA051545EA16754FEA6C
:1014000006164FEAC30343EA52734FEAC2025FEA89
:101410001C1CC0D111F4801F0BD141EA00014FF018
:1014200000004FF0004CB6E711F4801F04BF0143E9
:101430000020B4F1FD0C88BFBCF5E06F3FF6AFAE05
:10144000B5EB030C04BFB6EB020C5FEA500C50F195
:10145000000041EB045170BD0EF0004E4EEA113118
:1014600014EB5C04C2BFD4EB0C0541EA045170BD1F
:1014700041F480114FF0000E013C90E645EA060E63
:101480008DE60CEA135594EA0C0F08BF95EA0C0F91
:101490003FF43BAF94EA0C0F0AD150EA01347FF4D9
:1014A00034AF95EA0C0F7FF425AF104619462CE7B0
:1014B00095EA0C0F06D152EA03353FF4FDAE104613
:1014C000194622E750EA410618BF52EA43067FF464
:1014D000C5AE50EA41047FF40DAF52EA43057FF4F4
:1014E000EBAE12E74FEA410C7FEA6C5C02D150EAA6
:1014F000013C0AD14FEA430C7FEA6C5C02D152EA0C
:10150000033C02D14FF0000070474FF001007047DC
:101510004FEA410212F5001215D211D56FF478731B
:10152000B3EB625212D94FEAC12343F0004343EABE
:10153000505311F0004F23FA02F018BF4042704799
:101540004FF00000704750EA013005D111F0004023
:1015500008BF6FF0004070474FF00000704700BFB9
:101560000348044B834202D0034B03B11847704732
:10157000F8090020F8090020000000000548064B8B
:101580001B1AD90F01EBA301491002D0034B03B181
:1015900018477047F8090020F809002000000000F3
:1015A00010B5064C237843B9FFF7DAFF044B13B1AB
:1015B0000448AFF300800123237010BDF809002018
:1015C00000000000347F010808B5054B1BB1054938
:1015D0000548AFF30080BDE80840FFF7CFBF00BF6C
:1015E00000000000FC090020347F010800B585B030
:1015F00000230193029303931148124A026083600F
:10160000037303754FF46022C261436001230361D9
:1016100006F044F868B910230193012302930023D4
:10162000039301A9064805F0B3FE28B905B05DF89B
:1016300004FB05F026FCEEE705F023FCF6E700BF0F
:10164000140A0020002401400268094B9A4200D08D
:10165000704782B003F56C439A6942F400729A6154
:101660009B6903F400730193019B02B0704700BFB4
:10167000002401400048704738000020F8B50D46AE
:1016800014461E460F6811463846FFF777FA50B9E0
:1016900021463846FEF7D4FF20F000400C49FFF702
:1016A00077FA08B12C60F8BD39462046FEF7C8FF2E
:1016B000044631460748FEF7C3FF01462046FFF7C0
:1016C0007DF901463846FEF7BDFF2860EBE700BF15
:1016D0009A99193E0000C84208B503F06FF90368F3
:1016E000DB69984708BD08B503F068F903681B6A11
:1016F000984708BD10B5044603F060F903685B6ABB
:101700002146984710BD10B5044603F057F9036809
:101710009B6A2146984710BD10B5044603F04EF968
:1017200003681B6B2146984710BDF8B504460D466B
:10173000164603F043F903689F6B33462A46214659
:10174000B847F8BDF8B504460D46164603F036F91D
:1017500003689F6C33462A462146B847F8BDF8B562
:1017600004460D46164603F029F90368DF6C33463C
:101770002A462146B847F8BDF0B583B004460D4669
:1017800016461F4603F01AF9036800975F6D33464B
:101790002A462146B84703B0F0BD08B503F00EF95C
:1017A00003685B6F984708BD10B584B0844601910B
:1017B00044680368E31A98106FF0604EAEEBA30321
:1017C0008B4210D30390814210D803AB1B6818449E
:1017D000DCF80030E41AB0EBA40F09D3B0F1005FDD
:1017E00009D204B010BD104608F0E0FC01ABEDE7F3
:1017F0006FF06040F5E76FF06040F2E74068043852
:10180000704710B485B000230193029303930468DA
:1018100001944268029283680393D1F800C0C0F833
:1018200000C0D1F804C0C0F804C0D1F808C0C0F8A6
:1018300008C00C604A608B6005B010BC704708B5EA
:101840000846114607F0A8FA08BD08B5034653F844
:10185000081B994203D082680132FFF7F0FF08BDF0
:1018600010B50446FFF7F1FF204610BD136801E0F4
:1018700040F8043B8142FBD1704708B5084691000F
:1018800007F08AFA08BD10B5044601688268521A4A
:1018900011B19210FFF7F1FF204610BD10B50446BC
:1018A000FFF7F1FF204610BD08B5B1F1005F03D28C
:1018B000880007F0EDFF08BDB1F1804F01D308F0BB
:1018C0004DFC08F03BFC38B504460D4641B1002202
:1018D000FFF7EAFF2060606000EB8500A06038BD84
:1018E0000020F7E770B5B1F1005F0ED205460C4657
:1018F00016460023036043608360FFF7E4FF2B6814
:101900006CB103EB8404326804E0064808F04EFC36
:1019100043F8042B9C42FBD16C60284670BD1C46EA
:10192000FAE700BF3081010870B584B005460C4667
:101930001646836800681B1AB1EBA30F09D86968C3
:101940000B1AB4EBA30F11D86CB300EB840413682B
:1019500022E02B4601A8FFF7C5FF294601A8FFF7A3
:1019600050FF01A8FFF78FFF04B070BDFFF77EFFA7
:101970006B682A689A1AB4EBA20209D003EB8202C0
:10198000316801E043F8041B9A42FBD16A60EBE73F
:101990001A46FBE740F8043B8442FBD16B68A34244
:1019A000E2D06C60E0E70446F8E700002DE9F84F6C
:1019B00005468A4693461E4A0121FFF7F5FED5F8F3
:1019C00000806F68AAEB0804814618B30022014624
:1019D0002846FFF769FF0646DBF800303351002C3C
:1019E0001ADC04343444A7EB0A07002F1ADC3C4409
:1019F000AA68A2EB08029210B8F1000F03D041468A
:101A00002846FFF73AFF2E606C6006EB8906AE6051
:101A1000BDE8F88F0026DFE722464146304610F049
:101A200073FFDEE73A465146204610F06DFFDEE7D1
:101A30006481010810B5044643688268934208D067
:101A40000A681A604368043343602046FFF7D6FEF5
:101A500010BD0A461946FFF7A9FFF6E72DE9F04F3A
:101A600087B081462AE2B24807F0D0FE002800F095
:101A70003682B04AB049B14807F00AF9AC4807F0DD
:101A8000E5FE2CE2AE4807F0C1FE002800F02F82F0
:101A9000A84AA949AB4807F0FBF8A94807F0D6FEC9
:101AA00025E2A94807F0B2FE002800F02882A14AEA
:101AB000A149A64807F0ECF8A34807F0C7FE1EE2CC
:101AC000A34807F0A3FE002800F02182994AA1490B
:101AD000A14807F0DDF89E4807F0B8FE17E29F48DE
:101AE00007F094FE002800F01A82924A99499C4817
:101AF00007F0CEF8994807F0A9FE10E202F05EFF69
:101B000004799548FFF7FFFD201A00EBD0704010D4
:101B1000FEF74CFE934B1860934807F097FE12E2D5
:101B200002F04CFF04798E48FFF7EDFD201A00EB20
:101B3000D0704010FEF73AFE8C4B18608C4807F0CE
:101B400085FE11E28B4807F061FE002800F0188244
:101B5000D5F8A4100020FEF773FD4FF07E51FEF77C
:101B60006FFD854B1860834807F070FE08E28348DC
:101B700007F04CFE002800F00B82D5F8A8100020DA
:101B8000FEF75EFD4FF07E51FEF75AFD7C4B18606C
:101B90007A4807F05BFEFBE17A4807F037FE002841
:101BA00000F0FE8102F00AFF4079C043FEF7FEFD1F
:101BB000754B1860734807F049FEF1E15F4B1A68F6
:101BC0005B68934201D05D4B5A605E4B1A685B685C
:101BD000934201D05B4B5A605C4B1A685B689A4237
:101BE00001D05A4B5A60002669E0FFF7D6FDC0EBE2
:101BF000C0000FF0DFFFD5F8A0100020FEF720FD99
:101C00004FF07E51FEF71CFD029002A94B48FFF7F2
:101C100011FF0FF0D7FF044602F0D0FE90F80580C8
:101C2000D5F8A0000146FEF70DFD07464046FEF739
:101C3000BDFD3946FEF704FD4FF08041FEF700FD83
:101C40004FF07E51FEF7FEFCFEF7F0FF80B294FBF2
:101C5000F0F300FB13400130FEF7A8FD039003A949
:101C60003848FFF7E7FE0FF0ADFF044602F0A6FE8E
:101C700090F80480D5F8A0000146FEF7E3FC074683
:101C80004046FEF793FD3946FEF7DAFC4FF08041FF
:101C9000FEF7D6FC4FF07E51FEF7D4FCFEF7C6FFF0
:101CA00080B294FBF0F300FB13400130FEF77EFDA1
:101CB000049004A92548FFF7BDFE0136F6B295F859
:101CC000AC30B34291D8314B01221A7075E102F069
:101CD00075FE4079C043FEF769FD2D4B186095F8FD
:101CE000AC40D5F8A0100020FEF7AAFC4FF07E51C2
:101CF000FEF7A6FC059005AA21461248FFF714FE40
:101D0000D5F8A4100020FEF79BFC4FF07E51FEF7A3
:101D100097FC204B1860D5F8A8100020FEF790FC27
:101D20004FF07E51FEF78CFC1B4B186062E100BF48
:101D3000A00A0020000000209D180008A40A00202E
:101D4000900A0020940A0020800A0020840A0020C3
:101D50007C0A0020611800081C000020780A00207E
:101D600004000020740A0020700A00206C0A002081
:101D7000680A0020600A0020640A0020580A002037
:101D80005C0A0020480A00204C0A0020B20A002009
:101D9000440A0020540A0020500A0020BA4F3B6831
:101DA0004FEA840AD5F8A080414653F82400FEF794
:101DB00047FCB64E336853F824B04FF07E51FEF71F
:101DC0003FFC42465946FFF7CAFC3B683268D5F8EB
:101DD000A0B052F824804FF0804153F82400FEF761
:101DE00031FC5A464146FFF7BAFCD7F800B03368D9
:101DF000D5F8A080414653F82400FEF721FC4FF0AF
:101E00007E51FEF71DFC014642465BF82400FFF7B9
:101E100099FC3F683368D5F8A0804FF0804153F8B3
:101E20002400FEF70FFC0146424657F82400FFF756
:101E300089FC3168964B1A68AB6A52F824205144E9
:101E400001A8FFF71BFC0134E4B295F8AC30A342C3
:101E5000A4D8D5F8B000FFF74DFC8E4E3168D5F808
:101E6000A400FEF7EFFB01468B4A8C4B1868FFF786
:101E70005CFCD5F8B400FFF73DFC894C2168D5F82F
:101E8000A800FEF7DFFB0146864A874B1868FFF77C
:101E90004CFCAB6A854A1268314601A8FFF7EEFB9D
:101EA000AB6A834A1268214601A8FFF7E7FBFFF7F8
:101EB00013FC804B1B884B4580F0D5807E4B1B78F4
:101EC000002B00F024817B4A1388013313807B4B65
:101ED0001B68BFF35B8F13F0010F3FF4C4AD784B69
:101EE0001B68BFF35B8F13F0010F3FF4CBAD754B55
:101EF0001B68BFF35B8F13F0010F3FF4D2AD724B41
:101F00001B68BFF35B8F13F0010F3FF4D9AD6F4B2C
:101F10001B68BFF35B8F13F0010F3FF4E0ADFFF7D9
:101F2000A9FB0546D0F8B000FFF7E4FB684B1B683F
:101F3000BFF35B8F13F0010F05D1654807F066FC16
:101F400000287FF4DBADD5F8B400FFF7D3FB614B7D
:101F50001B68BFF35B8F13F0010F05D15D4807F0DD
:101F600055FC00287FF4DCADD5F8B800FFF7C2FBC4
:101F7000594B1B68BFF35B8F13F0010F3FF4E2ADC9
:101F8000564B1B68BFF35B8F13F0010F3FF4EFADAF
:101F9000534B1B68BFF35B8F13F0010F3FF4FCAD95
:101FA000444B1B884B45BFF492AE4E4B00221A6047
:101FB0004D4B1B78002B3FF401AE02F0FFFC46793D
:101FC00076084FF07C51D5F8A400FEF743FC044698
:101FD0003046FEF7EBFB2146FEF732FB334B186031
:101FE000D5F8A810FEF72CFB4FF08141FEF728FB37
:101FF0002F4B1860FFF777FB0020FFF78DFB3B4C62
:10200000D4F8008002F0DAFC0079FEF7CBFB06463C
:1020100002F0D4FC4079FEF7C5FB034600273246A8
:1020200041463846FFF7A8FBAB6A2E4A12682146A4
:1020300001A8FFF723FB0120FFF76EFB02F0BEFCB7
:102040004079FEF7B3FB2168FEF7FCFA044602F084
:10205000B5FC0079FEF7A6FB024621463846FFF79D
:102060007EFB0024F1E602F0A9FC4079C043FEF7B4
:102070009DFB1E4B1968FEF781FD00283FF41EAF43
:102080000D4B00221A7019E7840A0020A40A0020D0
:10209000940A0020640A00201C000020740A00201A
:1020A0005C0A0020040000206C0A0020540A002072
:1020B000500A0020B00A002034000020A00A0020AE
:1020C000900A0020800A00207C0A0020780A002064
:1020D000700A0020680A0020600A0020580A0020C8
:1020E000480A0020440A0020B20A00204C0A0020BE
:1020F000084807F0A7FB06F051FE074807F0A2FBCF
:1021000006F04CFE054807F09DFB06F047FE07B0C1
:10211000BDE8F08F700A0020680A0020480A0020FD
:1021200000487047F800002070470000F8B50D46E1
:1021300014461E460F6811463846FEF71FFD50B97B
:1021400021463846FEF77CFA20F000400C49FEF7A5
:102150001FFD08B12C60F8BD39462046FEF770FA25
:10216000044631460748FEF76BFA01462046FEF763
:1021700025FC01463846FEF765FA2860EBE700BF0C
:102180009A99193E0000C84208B502F017FC03688E
:102190001B69984708BD08B502F010FC03685B692D
:1021A000984708BD08B502F009FC03689B69984789
:1021B00008BD000010B5264B1B68BFF35B8F13F002
:1021C000010F03D1224807F021FB40B9214B1B68C6
:1021D000BFF35B8F13F0010F0FD0002320E0FFF758
:1021E000DAFF0446FFF7DEFF00FB04F4E4001A4BBD
:1021F0001C70174807F02AFBE8E7164807F006FBB3
:102200000028EAD0FFF7C0FF144B1860114807F010
:102210001DFBE2E76FF0550002400A7001339BB2EC
:102220000D4A12789A4212D90C4A1268D118D25C1F
:1022300013F0010FEED15520EEE7054807F002FB41
:1022400006F0ACFD034807F0FDFA06F0A7FD10BD4F
:10225000F80A0020F00A0020FC0A0020F40A0020FE
:10226000F8B504460D46164602F0A8FB0368DF6B7E
:1022700033462A462146B847F8BD10B5044602F059
:102280009DFB03689B6E2146984710BD38B55C4B9B
:102290001B68BFF35B8F13F0010F03D1584807F0A1
:1022A000B5FAB8B9FFF770FF0446FFF739FF0546E6
:1022B000006AFEF7BBFCFFF7E0FF95F83130002B1A
:1022C00056D0504B1B78013B032B4DD8DFE803F071
:1022D0001E2C3C4AFFF75FFF0446FFF763FF00FB3D
:1022E00004F4E400484B1C70454807F0AFFAD9E706
:1022F00001339BB2444A12789A4258D913F0010F25
:10230000F6D0E25C02F0AA02E254F1E70023F1E722
:1023100001339BB23C4A12789A4248D913F0010F1C
:10232000F6D00022E254F3E70023F3E701339BB237
:10233000354A12789A423AD913F0010FF6D1E25C8D
:1023400002F05502E254F1E70023F1E701339BB2BA
:102350002D4A12789A422AD913F0010FF6D10022A1
:10236000E254F3E70023F3E7264B00221A701EE045
:10237000244B1B78013B032B39D8DFE803F0101DF9
:102380002D3601339BB2204A12789A420FD913F0AE
:10239000010FF6D0E25C42F0AA02E254F1E700231A
:1023A000F1E701339BB2184A12789A42F9D8154ADC
:1023B00013780133137038BD0023F4E701339BB267
:1023C000114A12789A42F2D913F0010FF6D1E25C69
:1023D00042F05502E254F1E70023F1E701339BB2EA
:1023E000094A12789A42F9D8E1E70023F8E7054B49
:1023F00000221A70DBE7024807F024FA06F0CEFC50
:10240000000B0020F4000020040B002008B5024B54
:10241000186802F07DF9FAE7EC0A002008B5081EFA
:1024200002DB07F035FA08BD07F088FEF8B5541A4C
:102430000CD405460E4664B100222146FFF7EEFF9C
:1024400028600719AF6034B96F60F8BD044807F021
:10245000ADFE0020F4E72246314610F055FAF3E7CE
:102460003081010838B504460D4639B10022FFF726
:10247000D5FF206060602844A06038BD0020F8E7E8
:1024800008B5012A03D022B1FEF7A4FD01E00B78C4
:10249000037008BD08B50846114606F07DFC08BD6E
:1024A00010B5044601688268521A09B1FFF7F2FFBD
:1024B000204610BD10B50446FFF7F2FF204610BDC0
:1024C00010B582B0044602AB03E9060000230360A6
:1024D000436083600A44FFF7A9FF04E02046FFF74A
:1024E000DFFF06F05BFC204602B010BD08B5081EF9
:1024F00002DB07F0CDF908BD07F020FE10B50B6830
:10250000002B0EDB934206D95400B3EB420F02D2EC
:102510000C60002C08DB096800220131FFF7E6FFA0
:1025200010BD034807F042FE6FF000430B60F2E776
:102530008081010870B582B004460E46551A019597
:102540000F2D0DD800942A4631462068FFF798FFDA
:1025500000220092019B63602168CA5402B070BDE2
:10256000002201A9FFF7CAFF2060019BA360E9E7F1
:1025700038B500F10803036069B104460D4608460A
:1025800010F00AFC4FF000032A1829462046FFF7F6
:10259000D1FF204638BD014807F0F0FD98810108C1
:1025A00038B515460C1A01D1281938BD2246014606
:1025B000284610F0A9F9F7E708B5FFF7F1FF08BDC5
:1025C00008B5FFF7F9FF08BD38B504460D46496860
:1025D0002A680023036043608360891AFFF742FF83
:1025E000226869682868FFF7EBFF6060204638BD05
:1025F00030B5C9B0A42007F04BF90446B84B0360CE
:102600008023037140234371B64B83600021818195
:10261000B54B40F8103B942210F0F4F9204602F03C
:1026200079FA4FF4AF70FFF728FE4FF47A70FFF796
:1026300015FAAE4B1D684FF4A27007F029F9044655
:1026400006AAAB496846FFF793FF08E0012525B1CC
:102650004FF4A271204606F09FFB06F09FFBA549B0
:1026600007A8FFF7B1FF04E001256846FFF7EDF882
:10267000EDE707AA6946204601F084F9214628467D
:1026800001F04EFA04E0002507A8FFF709FFECE788
:1026900007A8FFF705FF6846FFF7D7F8934B1D68BB
:1026A0004FF4A27007F0F4F8044610AA92490AA861
:1026B000FFF75EFF08E0012525B14FF4A271204627
:1026C00006F06AFB06F06AFB8C4911A8FFF77CFF55
:1026D00004E001250AA8FFF7B8F8EDE711AA0AA956
:1026E000204601F04FF92146284601F019FA04E08E
:1026F000002511A8FFF7D4FEECE711A8FFF7D0FEE4
:102700000AA8FFF7A2F8794B1D684FF4A27007F0F2
:10271000BFF804461AAA7A4914A8FFF729FF08E06F
:10272000012525B14FF4A271204606F035FB06F0D5
:1027300035FB74491BA8FFF747FF04E0012514A8E7
:10274000FFF783F8EDE71BAA14A9204601F01AF958
:102750002146284601F0E4F904E000251BA8FFF714
:102760009FFEECE71BA8FFF79BFE14A8FFF76DF890
:10277000654C21685D4B186801F0D2F925684FF46B
:10278000A27007F085F8044624AA60491EA8FFF746
:10279000EFFE08E0012525B14FF4A271204606F0B6
:1027A000FBFA06F0FBFA1EA9204601F02FF821469D
:1027B000284601F0B5F904E000251EA8FFF745F80A
:1027C000E9E71EA8FFF741F84F4B1D684FF4A270D0
:1027D00007F05EF804462BAA4D4925A8FFF7C8FE6E
:1027E00008E0012525B14FF4A271204606F0D4FA85
:1027F00006F0D4FA25A9204601F008F8214628461B
:1028000001F08EF904E0002525A8FFF71EF8E9E79E
:1028100025A8FFF71AF83C4B1D684FF4A27007F08B
:1028200037F8044632AA3B492CA8FFF7A1FE08E07E
:10283000012525B14FF4A271204606F0ADFA06F04D
:10284000ADFA2CA9204600F0E1FF2146284601F010
:1028500067F904E000252CA8FEF7F7FFE9E72CA8AC
:10286000FEF7F3FF284B1D684FF4A27007F010F835
:10287000044639AA284933A8FFF77AFE08E0012563
:1028800025B14FF4A271204606F086FA06F086FACA
:1028900033A9204600F0BAFF2146284601F040F94E
:1028A00004E0002533A8FEF7D0FFE9E733A8FEF7E0
:1028B000CCFF154B1D684FF4A27006F0E9FF0446EB
:1028C00040AA16493AA8FFF753FE29E0012525B191
:1028D0004FF4A271204606F05FFA06F05FFA00BFDF
:1028E0001084010800007F4370980108E80A002066
:1028F000CC810108DC0A0020D4810108D00A002024
:10290000DC810108C40A0020B40A0020EC8101081F
:10291000F881010804820108148201082C82010850
:102920003AA9204600F072FF2146284601F0F8F847
:1029300004E000253AA8FEF788FFC8E73AA8FEF7AA
:1029400084FF204B1D684FF4A27006F0A1FF0446DF
:1029500047AA1D4941A8FFF70BFE08E0012525B154
:102960004FF4A271204606F017FA06F017FA41A9B3
:10297000204600F04BFF2146284601F0D1F804E044
:10298000002541A8FEF761FFE9E741A8FEF75DFFDA
:102990000E4B19680E4B186801F0B6FD49B030BDFA
:1029A000012571E60125A4E60125D7E6012504E706
:1029B000012529E701254EE7012573E70125B9E740
:1029C0000125DEE7B40A002044820108E80A00205D
:1029D000EC0A0020012800D070474FF6FF7399429F
:1029E000FAD12DE9F043BDB0182006F051FF0023C5
:1029F000036043608360C36003614361544B0360C1
:102A0000544B0360544B18604FF4A27006F040FF23
:102A1000044625AA51491FA8FFF7AAFD1FA9204671
:102A200000F0F4FE4E4B1C601FA8FEF70EFFDFF80F
:102A3000348101AD7824224641462846FEF7CAFA81
:102A400026952794DFF8209128AB22462946484650
:102A5000FFF736FD454F464E3A463146484606F0AA
:102A600017F9224608EB04012846FEF7B3FA299528
:102A70002A94DFF800912BAB224629464846FFF7FF
:102A80001FFD3A463146484606F002F9224608F153
:102A9000F0012846FEF79EFA2C952D94DFF8D89089
:102AA0002EAB224629464846FFF70AFD3A463146F4
:102AB000484606F0EDF8224608F5B4712846FEF7C0
:102AC00089FA2F9530942D4C31AB78222946204637
:102AD000FFF7F6FC3A463146204606F0D9F84FF4A7
:102AE000A27006F0D5FE044638AA254932A8FFF7A1
:102AF0003FFD224939A8FFF767FD39AA32A92046D0
:102B000000F040FF1F4B1C6039A8FFF7C9FC32A83A
:102B1000FEF79BFE3DB0BDE8F0831FA8FEF795FED3
:102B20004FF4A271204606F037F906F037F9F7E7BF
:102B300039A8FFF7B5FC32A8FEF787FE4FF4A27163
:102B4000204606F029F906F029F9F4E7F6E700BF78
:102B5000B4820108CC820108EC0A00205C820108E2
:102B6000E80A0020507F0108DC0A00200000002055
:102B7000B5240008D00A0020C40A0020B80A0020AA
:102B800064820108B40A002008B54FF6FF710120E5
:102B9000FFF720FF08BD000030B538490160384A12
:102BA0004260384A8260384AC2600261374C4461F0
:102BB000374C8461374CC461374C04624162826295
:102BC000012180F82C1080F82D1080F82E1080F84C
:102BD0002F1080F83010002280F831202F4D4563EF
:102BE0004FF0824282634FF0814EC0F83CE04FF0DC
:102BF000834404644FF07C5CC0F844C0C0F848E0F3
:102C00004FF0804CC0F84CC080F85010244941650A
:102C10008165C265026623494166C0F868E02249C1
:102C2000C166026721494167C0F878C0C56720497D
:102C3000C0F880101F49C0F88410C0F88810C0F890
:102C40008C20C0F89040C0F894E0C0F898C01A49B1
:102C5000C0F89C10C0F8A0C01849C0F8A410C0F873
:102C6000A820102280F8AC20154AC0F8B020154AE0
:102C7000C0F8B420C0F8B82030BD00BF0000A042AA
:102C8000000082420000504200008C4200005C4282
:102C90000000C841000070410000C8420000A04090
:102CA0000000F0410000C0400000904100004041A1
:102CB00000004040000010420000B44200006041AB
:102CC000B0840108048D010870B504460D4616460F
:102CD00080230371402343710F4B83600C30FFF757
:102CE0005BFF0E4B23600E4B2360002384F8D8302B
:102CF00029460020FDF7A4FC0546C4F8C80031466B
:102D00000020FDF79DFCC4F8CC00C4F8D050C4F8F6
:102D1000D400204670BD00BF00007F43B48201088C
:102D20002C8301082DE9F04704460E461546D0F8DD
:102D3000D0100020FDF784FC8046D4F8D410002089
:102D4000FDF77EFC07464FF0010931464046FDF78E
:102D50003DFF08B94FF000094FF0010A29463846F7
:102D6000FDF734FF08B94FF0000A49EA0A0919F0E3
:102D7000FF0F2ED12079FDF719FD4146FDF762FCCA
:102D80004FF07E51FDF75CFC80466079FDF70EFD4B
:102D90003946FDF757FC4FF07E51FDF751FC0746D1
:102DA0004FF0010431464046FDF7F2FE08B94FF0FE
:102DB00000044FF0010629463846FDF7E9FE08B940
:102DC0004FF00006344314F0FF0F04D10020BDE89B
:102DD000F0870120FBE70220F9E7F8B50446164624
:102DE000012380F8D8300020FDF72AFC0546214653
:102DF00051F8D03BDF68236B02462046B847314686
:102E00000020FDF71DFC0646214651F8D43BDF6843
:102E1000236B02462046B847D4F8D0102846FDF769
:102E2000ADFE40B1D4F8D4103046FDF7A7FE10B186
:102E3000002384F8D830F8BD70B504460D46244B05
:102E40001B68BFF35B8F13F0010F28D0012384F8B8
:102E5000D83055B11F4B1B78B5FBF3F203FB125270
:102E600012F0FF0F2FD1B5FBF3F5607905FB00F0F1
:102E7000FDF79CFC024600212046FFF7AEFFD4F888
:102E8000D460607905FB00F0FDF790FC0146304608
:102E9000FDF774FE10B1002384F8D83070BD0C48E3
:102EA00006F0B4FC0028D1D0E66C6079FDF77EFC1A
:102EB0003146FDF783FDFDF7B9FE064B1870044857
:102EC00006F0C4FCC2E7B5FBF3F3DDB2CDE700BF0B
:102ED000080B00200C0B0020F8B504460D4601231A
:102EE00080F8D8300B681E685F683A463146FFF7B5
:102EF00019FF012819D03A4631462046FFF712FF44
:102F0000022816D03B4B1B78012B16D0394B1B786F
:102F1000022B34D02B685A6819682046FFF702FF4D
:102F200010B9002384F8D830F8BD324B01221A7052
:102F3000E1E7304B02221A70E4E73A463146204678
:102F4000FFF74BFFD4F8D0702E6831680020FDF7F2
:102F500077FB01463846FDF711FE0028D6D0D4F89D
:102F6000D47071680020FDF76BFB01463846FDF711
:102F700005FE0028CAD01F4B00221A70C6E72F6832
:102F80007968E06CFDF75EFB06466079FDF70EFCA4
:102F900001463046FDF754FB024639682046FFF7EC
:102FA0001CFFD4F8D0702E6831680020FDF748FB74
:102FB00001463846FDF7E2FD0028ABD0D4F8D470C6
:102FC0007168E06CFDF73EFB06466079FDF7EEFBAD
:102FD00001463046FDF734FB01460020FDF730FB8B
:102FE00001463846FDF7CAFD002893D0014B002268
:102FF0001A708FE7050B0020F8B50446012380F80E
:10300000D8300846FDF7D2FB0546A16E206EFDF7CD
:1030100019FB014600262846FDF71CFC01463246F6
:103020002046FFF7DAFED4F8D070A16E206EFDF7CF
:1030300009FB01462846FDF70DFC01463046FDF729
:10304000FFFA01463846FDF799FD10B1002384F8D8
:10305000D830F8BD10B584B0044691F82D31012B5D
:1030600002D0C3B104B010BD90F85C3053B1012B55
:10307000F8D1114601A801F03FF801A92046FFF759
:103080002BFF04E091F84011FFF7D6FEEAE701A814
:10309000FEF7F9FBE6E791F84011FFF7ADFFE1E736
:1030A00001A8FEF7F0FB05F079FE00002DE9F041E4
:1030B000571A0F4B9F4216D804460D461646B910B4
:1030C000A1B10022FEF7F0FB206000EB0708C4F876
:1030D0000880B54203D03A4629460FF015FCC4F8E3
:1030E0000480BDE8F081034807F060F80020EBE7BA
:1030F000FCFFFF7F3081010810B582B0044602ABAF
:1031000003E90600002303604360836001EB820251
:10311000FFF7CCFF04E02046FEF7B5FB05F03EFECE
:10312000204602B010BD10B586B00446D1F8D030AC
:103130000393D1F8D430049303AB01930223029399
:1031400005AB01AA06CAFFF7D7FF204606B010BD9F
:1031500000487047B401002038B504460D4601F020
:103160002DFC03685B6B2A462146984738BDF8B5AD
:1031700004460D46164601F021FC03685F6C334699
:103180002A462146B847F8BDF0B583B004460D463F
:1031900016461F4601F012FC0368089A0192009738
:1031A0001F6D33462A462146B84703B0F0BD10B51F
:1031B000044601F003FC043003C884E80300FFF771
:1031C000C7FF0146BC2204F10800FDF703FF10BD54
:1031D0002DE9F04104460E4603681B68984794F8B1
:1031E0002D31BBBB94F8383013B3D4F83451D4F834
:1031F000388108E055F8047B3368216E1868FDF7C4
:103200001FFAC7F8C800A845F4D10023C4F8E0307D
:103210006079FDF7C7FAC4F8F800C4F80001D4F8E3
:1032200084100020FDF70CFAC4F8F000BDE8F0812E
:10323000D4F83431D4F8380105E053F8042BD2F82F
:10324000CC10C2F8C8109842F7D1D4F8E430C4F8D2
:10325000E030DDE7012BE9D194F83930C3B1D4F87F
:103260003451D4F8388108E055F8047B3368E16CB8
:103270005868FDF7E5F9C7F8D000A845F4D1002358
:10328000C4F8D8302079FDF78DFAC4F8E800CDE70E
:10329000D4F83431D4F8380105E053F8042BD2F8CF
:1032A000D410C2F8D0109842F7D1D4F8DC30C4F86A
:1032B000D830E7E708B503685B68984708BDD0F8E1
:1032C0003831D0F83401181AC0F387007047000075
:1032D0002DE9F04F87B00446049190F82D312BB1C1
:1032E000012B00F0908107B0BDE8F08F0430FFF7AC
:1032F0005EFF0120FEF710FAD4F83461D4F83831BB
:10330000059324E056F8045BD5F8C8B0049B1F6809
:10331000D5F820A1D4F86490D4F860807968E06E84
:10332000FDF790F9039039685846FDF78BF9CDF811
:1033300000A04B4642460399FFF726FF2368DF684B
:10334000E368D5F8CC2005F1C8012046B847059BB5
:10335000B342D7D194F840010130FDF727FA054672
:103360002079FDF71FFA06462046FFF7A8FFFDF774
:103370001DFA01463046FDF721FB01462846FDF7C0
:1033800069FAC4F8E4004FF00008D4F88430D4F8A7
:10339000E020D4F8F0104046FEF7EEF9226FD4F8A2
:1033A000F810606FFEF7DBF9666F4FF07E51D4F8CE
:1033B000F800FDF747F905464FF07E513046FDF71E
:1033C00041F92946FFF7C8FE666F4FF08041D4F8F7
:1033D000F800FDF737F905464FF080413046FDF71C
:1033E00031F92946FFF7B8FE666F4FF07E51D4F8E9
:1033F000F800FDF725F905464FF07E513046FDF700
:1034000021F92946FFF7A8FE666F4FF08041D4F8F6
:10341000F800FDF715F905464FF080413046FDF7FD
:1034200011F92946FFF798FE256F2079FDF7BEF9BF
:103430002946FDF705F9D4F8F860616FFDF700F94A
:103440002A463146FEF78BF92779266F4FF07E51D9
:10345000D4F8F800FDF7F6F805463846FDF7A6F96A
:103460003146FDF7EDF82946FFF776FE256F207906
:10347000FDF79CF92946FDF7E3F806464FF0804139
:10348000D4F8F800FDF7DEF805464FF07E513046DF
:10349000FDF7D6F82946FFF75FFE2779266F4FF034
:1034A0007E51D4F8F800FDF7CBF805463846FDF715
:1034B0007DF93146FDF7C4F82946FFF74DFE256F2B
:1034C0002079FDF773F92946FDF7BAF806464FF063
:1034D0008041D4F8F800FDF7B3F805464FF07E516F
:1034E0003046FDF7ADF82946FFF736FEA64E4FF001
:1034F0008041D4F8F800FDF7A5F801463246D4F82B
:103500009C00FEF72CF9D4F89CA04FF08041D4F831
:10351000F800FDF797F84FF08145DFF870922946E3
:10352000FDF78EF807464FF080415046FDF78AF8C8
:103530002B464A463946FEF71FF9D4F89C7020798D
:10354000FDF734F93946FDF77BF882464FF08041AC
:10355000D4F8F800FDF776F8074631465046FDF7F7
:103560006FF832463946FEF7FAF8D4F89C702079A5
:10357000FDF71CF93946FDF763F83146FDF760F8B1
:1035800007464FF08041D4F8F800FDF75BF8294674
:10359000FDF756F806464FF080413846FDF752F8E1
:1035A0002B464A463146FEF7E7F82079FDF7FAF850
:1035B0000246D4F800114046FFF7D9FD2368DD68C4
:1035C000E368D4F8042104F580712046A847214619
:1035D00051F8F83BDD68E368D4F8FC202046A847A2
:1035E000214651F8E03BDD68E368D4F8E42020464A
:1035F000A847214651F8F03BDD68E368D4F8F42091
:103600002046A8476FE60430FFF7D1FD0120FEF702
:1036100083F8D4F83471D4F838B127E057F8045B54
:10362000D5F8C8A0049BD3F80080616CD5F8D00011
:10363000FDF708F8A16CFDF705F805F58479D8F8D1
:103640000410FCF7FFFF0646D8F800105046FCF7C0
:10365000F9FF4A463146FEF703FE2368DE68236918
:10366000D5F8D42005F1D0012046B047BB45D5D1CF
:1036700094F840010130FDF799F805466079FDF7AF
:1036800091F806462046FFF71AFEFDF78FF801462F
:103690003046FDF793F901462846FDF7DBF8C4F8FC
:1036A000DC00266C00252079FDF780F83146FCF718
:1036B000C7FF32462946FEF752F894F80480276C7B
:1036C00060790138FDF772F806464046FDF76EF85E
:1036D0003946FCF7B5FF3A463146FEF740F894F814
:1036E00004804FF07C51206CFDF7B4F8FCF774FEB9
:1036F0000DF01EF806460F464046FCF75BFE3246CC
:103700003B46FCF709FD804689466079FDF74AF89B
:10371000064640464946FCF73FFF32462946FEF73B
:1037200011F8D4F8D830226C2946D4F8E800FEF716
:1037300023F894F83D3093B9214651F8D83BDD6821
:103740002369D4F8DC202046A847214651F8E83BFD
:10375000DD682369D4F8EC202046A847C3E50220A1
:10376000FDF7DAFF26796079FDF71CF8054630464B
:10377000FDF718F8024600202B460146FDF7FCFF36
:103780000120FDF7C9FFD7E7000010410000A0406D
:1037900090F84021D0F8343153F822007047D0F827
:1037A0003001704703684068984214BF0020012030
:1037B000704770B505460C46024652F8080B0B469A
:1037C00053F8081B8B4210D082421BD0AE68296090
:1037D00062686A60A268AA60B0B12060A660002337
:1037E000636022681370284670BDA542F7D06268F6
:1037F0002AB963686B602A680021D154EFE7FEF7AD
:103800003FFEF6E70020E2E72360E8E770B50446F4
:103810000E4680230371402343712A4B83600C3092
:10382000FFF7BAF9284B23602346284A43F8C82BF0
:103830000025C4F8C8505D609D60DD6030222946D7
:1038400004F1D8000FF0DEF804F58873C4F80831ED
:10385000C4F80C5184F81051C4F82051C4F8245114
:10386000C4F82851C4F83451C4F83851C4F83C5154
:10387000314604F58470FFF79CFF012384F82C3156
:1038800084F82D51A26CC4F8C8200023C4F8D030AD
:10389000C4F8CC20C4F8D43084F84051C4F8305176
:1038A000D4F83431D4F83821934201D0C4F83831F7
:1038B000D4F82031D4F82421934201D0C4F8243123
:1038C000204670BD00007F43B48201087483010864
:1038D00010B584B08446019144680368E31A9810D7
:1038E0006FF0604EAEEBA3038B4210D30390814286
:1038F00010D803AB1B681844DCF80030E41AB0EBB6
:10390000A40F09D3B0F1005F09D204B010BD104676
:1039100006F04CFC01ABEDE76FF06040F5E76FF0AF
:103920006040F2E710B485B0002301930293039343
:10393000046801944268029283680393D1F800C03E
:10394000C0F800C0D1F804C0C0F804C0D1F808C065
:10395000C0F808C00C604A608B6005B010BC7047AE
:1039600010B584B00C460023019302930393FFF734
:10397000D9FF214601A8FFF7D5FF01A8FEF790FD6A
:1039800004B010BD2DE9F04104460F4616468023D1
:103990000371402343712A4B83600C30FFF7FCF81E
:1039A000284B23602346284A43F8C82B0025C4F837
:1039B000C8505D609D60DD603022294604F1D8006A
:1039C0000FF020F804F58873C4F80831C4F80C51DE
:1039D00084F8105104F59078C4F82051C4F82451AB
:1039E000C4F82851C4F83451C4F83851C4F83C51D3
:1039F000394604F58470FFF7DCFE4FF000023146D3
:103A00004046FFF7ADFF84F82C5184F82D51002378
:103A1000C4F8C830C4F8D030C4F8CC30E36EC4F871
:103A2000D43084F84051C4F83051D4F83431D4F84B
:103A30003821934201D0C4F838312046BDE8F081E6
:103A400000007F43B48201087483010808B508466A
:103A5000910005F0A1F908BD08B5B1F1005F03D2EE
:103A6000880005F015FF08BDB1F1804F01D306F0C5
:103A700075FB06F063FB00002DE9F84F05468A460A
:103A800093461E4A0121FFF723FFD5F800806F6897
:103A9000AAEB0804814618B3002201462846FFF726
:103AA000DBFF0646DBF800303351002C1ADC04340F
:103AB0003444A7EB0A07002F1ADC3C44AA68A2EBA7
:103AC00008029210B8F1000F03D041462846FFF7D4
:103AD000BDFF2E606C6006EB8906AE60BDE8F88F16
:103AE0000026DFE72246414630460EF00DFFDEE7B6
:103AF0003A46514620460EF007FFDEE76481010892
:103B000008B543688268934205D00A681A60436822
:103B10000433436008BD0A461946FFF7ADFFF9E7D5
:103B20002DE9F04182B0019100297BD004460D4679
:103B300000F59A763046FFF735FE18B195F82C312E
:103B400084F82D3194F82D2195F82C319A4203D028
:103B5000002002B0BDE8F081C5F8304101A930462F
:103B6000FFF7CEFF94F82D31012B41D094F82D3181
:103B7000002B3BD126797608D4F860804FF07C5139
:103B80004046FCF767FE05463046FCF70FFE294627
:103B9000FCF756FD05462046FFF791FB471EA16E38
:103BA0004046FCF74FFD06463846FCF7FFFD314620
:103BB000FCF750FE0146019E2846FCF743FDC6F87F
:103BC000CC00E36EC6F8D4300023C4F8F43060793A
:103BD000FCF7ECFD0546E16FFCF732FDC4F8FC0094
:103BE000A16F2846FCF72CFDC4F804010120B0E7C2
:103BF000019DA36CC5F8CC302046FFF760FBE66C56
:103C00000138FCF7D3FD3146FCF724FEC5F8D4009B
:103C1000256C2079FCF7CAFD2946FCF711FDC4F894
:103C2000EC00A3E7002094E7F0B583B004460D460E
:103C300016461F4600F0C2FE0368089A01920097DC
:103C40009F6D33462A462146B84703B0F0BDF8B50C
:103C500004460D460430FFF7AAFAD4F8C83083F8BA
:103C60004051D4F8C86096F82D3183BBD6F8343172
:103C700053F82530D4F88C703946D3F8CC00FCF7D3
:103C8000DFFCC4F8D000D6F8343153F8253039467B
:103C9000D3F8D400FCF7D4FCC4F8D80065792846E2
:103CA000FCF780FDC4F8EC00D4F880602846FCF7EF
:103CB0007DFD3146FCF7C4FCC4F8F000D4F8903028
:103CC000C4F8E030D4F89430C4F8E830F8BD012BE3
:103CD000FCD1D6F8343153F82530616DD3F8CC00DF
:103CE000FCF7AEFCC4F8D000D6F8343153F82530D8
:103CF000D3F8D430C4F8D830D6F8343153F825008E
:103D000000F58470FDF7FFFCFCF74CFD0546A06C48
:103D10000146FCF797FC01462846FCF793FCC4F8E3
:103D2000E000E36CC4F8E830D0E741B108B5C0F872
:103D3000C81091F84011FFF78AFF012008BD00204C
:103D400070472DE9F04383B004460D460430FFF779
:103D50002EFA214651F8CC3BDE68A369D4F8D02076
:103D60002046B047214651F8D43BDE686369D4F859
:103D7000D8202046B047214651F8E43BDE68236A4C
:103D8000D4F8E8202046B047214651F8DC3BDE68F5
:103D9000E369D4F8E0202046B047D4F8C83093F85F
:103DA0002D31002B40F08181214651F8EC3BDE683B
:103DB0006369D4F8F0202046B0470120FDF7ACFC41
:103DC0002079FCF7F3FC0646D4F8C83093F840217C
:103DD000D3F8343153F8220000F58470FDF793FCDA
:103DE000FCF7E0FC01463046FCF72AFC8046D4F89C
:103DF000C83093F84021D3F8343153F8227007F5D6
:103E00008477D4F89810D4F8EC00FCF71BFC064635
:103E10004FF07C514046FCF71DFD3A463146FEF717
:103E20001FFA0220FDF778FCD4F8CC802F6879685F
:103E3000D4F8D400FCF706FC064639684046FCF787
:103E400001FC3146FFF788F9D4F8CC90D5F8008012
:103E5000D4F8D4604FF07E51D4F88800FCF7F2FB20
:103E60000746D8F804103046FCF7ECFB0646D8F8B5
:103E700000104846FCF7E6FB3A463146FDF76FFC7A
:103E8000D4F8CC90D5F80080D4F8D4604FF07E51AF
:103E9000D4F88800FCF7D6FB0746D8F80410304663
:103EA000FCF7D0FB0646D8F800104846FCF7CAFBE2
:103EB0003A463146FDF746FCD4F8CC90D5F8008060
:103EC000D8F80410D4F8D400FCF7BCFBD4F8E41004
:103ED000FCF7B8FB06464FF07E51D4F88800FCF79B
:103EE000B1FB07464FF07E513046FCF7A9FB064672
:103EF000D8F800104846FCF7A5FB3A463146FDF7D6
:103F00002EFCD4F8CC90D5F80080D8F80410D4F862
:103F1000D400FCF797FBD4F8E410FCF793FBD4F83B
:103F200088703946FCF78CFB4FF07E51FCF788FB1C
:103F30000646D8F800104846FCF784FB3A4631465E
:103F4000FDF700FC2E683168D4F8CC00FCF77AFB52
:103F5000D4F8DC10FCF776FBD4F888804146FCF7F7
:103F60006FFB07467168D4F8D400FCF76BFB06467C
:103F70004FF07E513846FCF763FB42463146FDF771
:103F8000EEFB2E683168D4F8CC00FCF75BFBD4F86C
:103F9000DC10FCF757FB8046D4F8D4904FF07E51EC
:103FA000D4F88800FCF74EFB074671684846FCF7DA
:103FB00049FB06464FF07E514046FCF741FB3A462E
:103FC0003146FDF7BFFB2E683168D4F8CC00FCF712
:103FD00039FBD4F8DC10FCF735FBD4F88880414677
:103FE000FCF72EFB07467168D4F8D400FCF72AFBD7
:103FF000D4F8E410FCF726FB4FF07E51FCF720FBD1
:1040000006464FF07E513846FCF71AFB42463146D1
:10401000FDF7A5FB2E683168D4F8CC00FCF712FB45
:10402000D4F8DC10FCF70EFB07467168D4F8D40016
:10403000FCF708FBD4F8E410FCF704FBD4F8888004
:104040004146FCF7FDFA4FF07E51FCF7F9FA0646BF
:104050004FF07E513846FCF7F3FA42463146FDF701
:1040600071FB2E683168D4F8CC00FCF7EBFAD4F879
:10407000DC10FCF7E7FA05467168D4F8D400FCF7C9
:10408000E1FAD4F8E410FCF7DDFA4FF07E51FCF7CA
:10409000D7FA04464FF07E512846FCF7D1FA214664
:1040A000FFF75AF803B0BDE8F083012BFAD10220E4
:1040B000FDF732FBD4F8CC902F68D4F8D4504FF0F1
:1040C0007E51D4F8E400FCF7BBFA0646D4F8DC8055
:1040D00079682846FCF7B6FA054639684846FCF781
:1040E000B1FA236D0093334642462946FFF79CFD03
:1040F0000120FDF711FBD5E710B586B00446D1F8D5
:10410000D0300393D1F8D830049303AB019302234A
:10411000029305AB01AA06CAFEF7EEFF204606B0E1
:1041200010BD0000004870477402002008B500F080
:1041300045FC0368DB6A984708BDF0B583B00446C8
:104140000D4616461F4600F039FC0368089A019296
:1041500000971F6E33462A462146B84703B0F0BD8C
:104160002DE9F04F8DB00446059191463D4B1B68FB
:10417000BFF35B8F13F0010F40F03681394805F033
:1041800045FB002800F03081D4E904233649C1E919
:104190000023344805F05AFB26E10598FDF7B3FAF1
:1041A000FCF704FB0546FFF7BDFFD0F8940001467D
:1041B000FCF748FA01462846FCF744FA2B4B1860F6
:1041C0002B4805F043FB27E1FFF7B0FFFCF7EEFAC1
:1041D0000546FFF7A7FFD0F894000146FCF732FA36
:1041E00001462846FCF72EFA224B1860224805F0BB
:1041F0002DFB1EE1214805F009FB002800F021817C
:104200001C4B19680020FCF71BFA4FF08241FCF7A9
:1042100017FA1B4B1860194805F018FB11E100F064
:10422000CDFB4079FCF7C2FA124B1968FCF708FA8B
:104230001449FCF7C3FB144B18601AE100F0BEFBF5
:104240000079FCF7B3FA094B1968FCF7F9F94FF05C
:104250007C51FCF7FFFA0D4B18600D4805F0F6FA9B
:1042600014E100BF340B0020380B0020300B00207D
:104270002C0B0020280B0020240B00201C0B0020FE
:10428000200B002000004040180B0020140B0020E1
:10429000100B002006A8FDF7F6FAA568E16809A84A
:1042A000FEF741FF09A92846FFF74BFD09A8FDF7D6
:1042B000EAFAA2686168E068FEF7CCFE0020FDF72C
:1042C0002BFA864F4FF081413868FCF7B9F902901C
:1042D000834E4FF081413068FCF7B2F98046DFF839
:1042E00004A24FF08241DAF80000FCF7ABF903902A
:1042F000DFF8F4B14FF08241DBF80000FCF7A2F9DF
:104300000490FFF70FFF05464FF08041D0F898006A
:10431000FCF798F90090049B039A41460298FFF736
:1043200083FC0120FDF7F8F94FF08041DBF8000035
:10433000FCF788F983464FF08041DAF80000FCF77B
:1043400081F982464FF07E513068FCF779F980465A
:104350004FF07E513868FCF773F9D5F89830009328
:104360005B4652464146FFF7E8FED5F8948039682F
:104370004046FCF767F9074631684046FCF762F9AA
:104380008046FFF7D3FEFCF711FA4146FCF75AF9D5
:104390000146059A3846FDF7C8F9FDF79DF92368EF
:1043A000DF68D5F89C30514A126831462046B8473C
:1043B000226963694E4801684068521A63EB000342
:1043C0004A4573F100030FD3474B19680020FCF7EF
:1043D00037F94FF08241FCF733F93168FCF7CEFB37
:1043E00010B1444B00221A70424B1B78002B72D044
:1043F00023696269013342F10002236162613E4B2D
:104400001B68BFF35B8F13F0010F05D13A4805F02D
:10441000FDF900287FF4C1AE384B1B68BFF35B8FFA
:1044200013F0010F05D1354805F0F0F900287FF4AD
:10443000CBAE334B1B68BFF35B8F13F0010F3FF420
:10444000D9AE226963692A4801684068521A63EB51
:1044500000034A4573F10003FFF4E1AE224B1968F3
:104460000020FCF7EDF84FF08241FCF7E9F81F4B14
:104470001860244B1B68BFF35B8F13F0010F05D14D
:10448000204805F0C3F900287FF4D8AEFDF72BF9DA
:104490006568E16806A8FEF746FE06A92846FEF70D
:1044A00017FFF7E6144805F0CDF904F077FC134840
:1044B00005F0C8F904F072FC124805F0C3F904F0E5
:1044C0006DFC06A8FDF7DFF904F068FC09A8FDF70C
:1044D000DAF904F063FC0DB0BDE8F08F140B002096
:1044E000200B0020300B0020280B0020180B002090
:1044F000380B0020700200202C0B0020240B002021
:104500001C0B0020100B002070B584B005460E4631
:104510004160DC2005F0BCF9044600210A46FEF7A4
:10452000D3FBEC60214601A8FEF7FDFD01A9304652
:10453000FEF74EFE01A8FDF7A6F9F42005F0A8F954
:104540000446F42200210EF05DFA802323714023FB
:104550006371104BA36004F10C00FEF71DFB0E4BC2
:1045600023600E4B2360AC6031462046FFF7DDFB35
:104570000321A868FFF76BFB04B070BDDC21204667
:1045800004F00AFC04F00AFC01A8FDF77CF904F031
:1045900005FC00BF00007F43B4820108E0830108EE
:1045A00030B593B004464068FFF7F2F8B0B16068E8
:1045B000FFF7EEF8FEF783FE00B36068FEF77AFEC1
:1045C0006068FFF7E5F805466060E1680FA8FEF750
:1045D000AAFD0FA92846FEF7FBFD1FE007AA1C490C
:1045E00001A8FDF7C5FF4FF4167201A92046FFF799
:1045F000B7FD01A8FDF729F9002017E00EAA15491B
:1046000008A8FDF7B5FF4FF4167208A92046FFF77A
:10461000A7FD08A8FDF719F9002007E00FA8FDF78E
:1046200032F96168A068FFF780FB012013B030BD4C
:1046300001A8FDF70AF904F0B1FB08A8FDF705F998
:1046400004F0ACFB0FA8FDF71EF904F0A7FB00BFB8
:10465000848301089883010830B593B0044640680C
:10466000FFF79DF8B0B16068FFF799F8FEF727FEF5
:1046700000B36068FEF71EFE6068FFF790F805461D
:104680006060E1680FA8FEF74EFD0FA92846FEF70F
:104690009FFD1FE007AA1C4901A8FDF769FF4FF421
:1046A000167201A92046FFF75BFD01A8FDF7CDF8C2
:1046B000002017E00EAA154908A8FDF759FF4FF48E
:1046C000167208A92046FFF74BFD08A8FDF7BDF8B4
:1046D000002007E00FA8FDF7D6F86168A068FFF793
:1046E00024FB012013B030BD01A8FDF7AEF804F0A3
:1046F00055FB08A8FDF7A9F804F050FB0FA8FDF73B
:10470000C2F804F04BFB00BF8483010898830108C2
:1047100030B587B00446FCF7E6FF6568E168684697
:10472000FEF701FD69462846FEF7D2FD6846FDF713
:10473000AAF8A568E16803A8FEF7F5FC03A92846D6
:10474000FFF7FFFA03A8FDF79EF8A2686168E0682A
:10475000FEF780FC23696269A3F5FA7313434CD01A
:1047600023696269A3F5487313434BD023696269D7
:10477000A3F59663134349D023696269A3F2DC531E
:10478000134348D023696269A3F5E163134347D01B
:1047900023696269A3F63403134346D0236962692F
:1047A000A3F6FC03134345D023696269A3F6C4133F
:1047B000134344D023696269A3F65433134342D0B0
:1047C00023696269A3F54863134340D02169636993
:1047D00040F6B242914273F1000303D3002200235A
:1047E000C4E90423FCF778FF23696269013342F1CD
:1047F00000022361626107B030BD0321A068FFF7AA
:1048000026FAADE72046FFF7CBFEAFE70121A0680F
:10481000FFF71DFAB0E70321A068FFF718FAB1E728
:104820000421A068FFF713FAB2E70121A068FFF79F
:104830000EFAB3E70021A068FFF709FAB4E72046B3
:10484000FFF7AEFEB6E72046FFF706FFB8E7002108
:10485000A068FFF7FCF9B9E76846FDF714F804F023
:104860009DFA03A8FDF70FF804F098FA00B583B09D
:104870000A4B5A6942F001025A615B6903F0010375
:104880000193019B002211460F2002F0D1FF0F205F
:1048900002F0DEFF03B05DF804FB00BF0010024031
:1048A00070B588B000240494059406940794234BB3
:1048B0009A6942F020029A619A6902F020020192FC
:1048C000019A9A6942F004029A619A6902F004021C
:1048D0000292029A9A6942F008029A619B6903F077
:1048E00008030393039B164D22460421284603F038
:1048F0005CFA01221821284603F057FA0423049396
:104900000126059602230693079304A9284603F07F
:1049100037F918230493059606960323079304A9F1
:10492000284603F02DF9C02304930594069404A9A6
:10493000284603F025F908B070BD00BF0010024002
:104940000008014070470020704700207047002099
:1049500070477047704770470020704700207047CD
:10496000704770477047704770477047704770478F
:104970007047704770477047704770470020704716
:10498000002070470020704770477047704770479D
:104990007047002070477047014B0360704700BFAD
:1049A0001084010810B50446034B0360102104F085
:1049B000F3F9204610BD00BF10840108014B1868B0
:1049C000704700BF640B002010B50446FFF7F6FFE8
:1049D0000368D3F88C302146984710BD10B50024E9
:1049E000012C06DCE0B2FFF7EFFF034610B90134FB
:1049F000F6E70023184610BD08B5FFF7DFFF036890
:104A0000D3F89030984708BD10B5304B1B78022B77
:104A10000CD804465AB21ABB3BB9FFF7EDFF78B980
:104A200000232B4A13702B4A137010BD032BFCD1AB
:104A3000FFF7E2FF0028F8D1244B00221A70F4E7B8
:104A40000020FFF7C1FF10B1204B01221A70012096
:104A5000FFF7BAFF0028E3D01C4B02221A70DFE7F1
:104A6000FFF7CAFF28B31B4B1B7813B9194B012260
:104A70001A70174A13780133DBB21370642BD4D940
:104A80000020FFF7A1FF18B10223237300236373F3
:104A90000120FFF799FF18B10223637300232373EA
:104AA00000230B4A13700B4A1370084B03221A7031
:104AB000BBE7084B1B781BB1044B03221A70B4E709
:104AC0000023024A137063732373AEE7400B002088
:104AD000420B0020410B002010B50446FFF78CFF6D
:104AE00070B10023012B09D8E218127B012A04D0EF
:104AF000022A09D00133DBB2F4E713B90023A38102
:104B000010BD012BFAD0F5E7002BF7D0012BF5D023
:104B1000F0E7000040B110B504460368DB68984731
:104B2000024B1C60012010BD00207047640B002068
:104B300070B506460C46083030600D4655F8083B07
:104B40009D420AD033608B68B360636873602560F0
:104B5000002363602372304670BD4A680132F4D08E
:104B60002946FCF737FAF0E730B585B08446019165
:104B700044680368E31ADB10114803FB00F0114D91
:104B80002D1A8D4213D30390814213D803AA1268C1
:104B90001044DCF80030E41AE410094B03FB04F481
:104BA000A04209D3074B984208D805B030BD104643
:104BB00005F0FCFA01AAEAE70248F6E70148F4E743
:104BC000ABAAAAAA55555505F8B545688D420AD035
:104BD00007460E460C4603E02046FCF736FE183426
:104BE000A542F9D17E60F8BD08B5084602EB420245
:104BF000D10004F0D1F808BD10B504460168826800
:104C0000521AD210034B03FB02F209B1FFF7ECFF7B
:104C1000204610BDABAAAAAA70B50646046845682E
:104C200003E02046FCF711FE1834A542F9D13046C6
:104C3000FFF7E2FF304670BD70B504460E461546DC
:104C400008E021462846FFF773FF2046FCF7FDFDEC
:104C500018341835B442F4D1284670BD10B582B06E
:104C6000044601AA0249FDF783FC204602B010BDAC
:104C7000F083010870B582B004460E46551A0195BE
:104C80000F2D0DD800942A4631462068FDF7F8FB19
:104C900000220092019B63602168CA5402B070BD7B
:104CA000002201A9FDF72AFC2060019BA360E9E72F
:104CB00010B504460B4600F10802026009685A6804
:104CC0004FF000030A44FFF7D5FF204610BD000057
:104CD00008B5084B994205D801EB4101C80004F022
:104CE000D7FD08BD044B994201D905F037FA05F00C
:104CF00025FA00BF55555505AAAAAA0A2DE9F84F6D
:104D0000044688469246274A0121FFF72DFF27686F
:104D1000D4F804B0A8EB0709054658B100220146B3
:104D20002046FFF7D5FF0646B14451464846FFF7F7
:104D3000BFFF01E00026F7E72346324641463846EA
:104D4000FFF77AFF234600F1180259464046FFF765
:104D500073FF8046A368DB1BDB10134A03FB02F2E0
:104D60001FB139462046FFF73FFF2660C4F8048094
:104D700005EB450506EBC505A560BDE8F88F04F019
:104D8000D3F846B94846FCF760FD04F007FD04F08F
:104D90000BF904F003F82A4631462046FFF724FFBA
:104DA000F3E700BF64810108ABAAAAAA10B50446C4
:104DB0004068A368984205D0FFF77AFF636818330C
:104DC000636010BD0A4601462046FFF797FFF8E7EB
:104DD00038B50C46434B1B68BFF35B8F13F0010FD4
:104DE00028D0414B1B68BFF35B8F13F0010F03D139
:104DF0003D4804F00BFD58BB3C4B1B68BFF35B8F79
:104E000013F0010F31D03A4A536811685B1ADB1076
:104E1000384A02FB03F3384A12789A4232D92146C3
:104E20003348FFF7C3FFFCF75EFC0220FCF774FC7D
:104E300000243DE02B4804F0E9FC0028D1D02F4AA3
:104E40002F492B4803F024FF264804F0FFFCC8E755
:104E5000FFF7B4FD4579FFF769F9B5FBF0F5264B8F
:104E60001D70214804F0F2FCC6E7204804F0CEFC97
:104E70000028C8D0FFF75AF9224B18701B4804F0DD
:104E8000E5FCC0E71A48FFF79FFEC8E71D4B1B78FB
:104E900003FB044004EB440105EBC1051844FBF798
:104EA00085FC01462A460020FCF73FFC0134E4B2B1
:104EB0000F4A536815685B1BDB100E4901FB03F3B7
:104EC0009C42E3D3FCF708FC0120FCF725FC38BD2D
:104ED000054804F0B7FC03F061FF044804F0B2FC9D
:104EE00003F05CFF540B00204C0B0020440B00200F
:104EF000580B0020ABAAAAAA500B002000000020EB
:104F0000194C0008480B00207047704770477047E5
:104F10007047704708B539B18021074802F03EFF5D
:104F2000003818BF012008BD4021034802F036FFB9
:104F3000003818BF0120F6E70008014008B502F06C
:104F400029F908BD00B591B02822002106A80DF06E
:104F500059FD0023019302930393049305930122C7
:104F600006924FF4803307930A9202220D920E9319
:104F70004FF4E0130F9306A802F034FF80B90F231B
:104F8000019302210291002303934FF48062049263
:104F9000059301A803F058F928B911B05DF804FB96
:104FA00001F06FFFEBE701F06CFFF6E708B5FFF7E4
:104FB00077FC08BD704708B501F0B8FF08BD08B51B
:104FC000FFF754FC08BD08B5FCF710FB08BD08B599
:104FD000084602F003F908BD08B502F0F9F808BD6B
:104FE000094B18684FF0E022536992699B1A074AEF
:104FF00012680749A1FB0212920CB3FBF2F34FF4C3
:105000007A7202FB003070470C1000203003002041
:1050100083DE1B4310B50B4C204602F09FFA322171
:10502000204602F0EFF8204602F052FA10F4007F1A
:1050300002D1054B186810BD204602F0A5F9024BBD
:105040001860F6E7140A0020680B00202DE9F04FE5
:1050500083B007460E4691461D46DDF8308090F835
:1050600092A0CB18541CA4B200949BB200F0FFFF96
:1050700078B3BAFA8AFB4FEA5B1B012414E087F885
:1050800092A00023009301234A463146384600F09F
:1050900040FF0136B6B2640014F0FF0402D108F1FB
:1050A00001080124013DADB28DB198F800302342D2
:1050B000E5D197F89130002BEBD187F892B00093AF
:1050C00001234A463146384600F023FFE1E787F8DE
:1050D00092A003B0BDE8F08F2DE9F04782B0824680
:1050E000884614461F46BDF828500B9E03F1070959
:1050F000C9F3CC0903EB010C53199BB200931FFABF
:105100008CF300F0B4FF60B90DE000963B462246F8
:1051100041465046FFF79AFF4E440134A4B2013D88
:10512000ADB2002DF1D102B0BDE8F0872DE9F0411C
:1051300082B080460F4614461E46BDF8205001EB53
:10514000030C53199BB200931FFA8CF300F08FFFEE
:1051500060B90DE0002200923346224639464046AF
:1051600000F0D7FE0134A4B2013DADB2002DF1D163
:1051700002B0BDE8F0812DE9F04782B080460D46CF
:1051800014461E46BDF82890CF18BFB202EB0903A3
:105190009BB200933B4600F06AFF10B902B0BDE835
:1051A000F08700230093334622462946404600F00C
:1051B000B0FEB9F1010FF1D9A9F102091FFA89F97D
:1051C0000134A4B2B9F1000F08D100230093334693
:1051D00022462946404600F09CFEDFE74FF0010AD8
:1051E000CDF800A04B4622462946404600F091FEED
:1051F000791ECDF800A04B46224689B2404600F009
:1052000088FEA1441FFA89F4DFE72DE9F04F87B04B
:1052100080460C469246BDF84060BDF8447003914C
:1052200004931C44A4B29519ADB20095234600F036
:105230001EFF10B907B0BDE8F08F039A02EB070913
:105240001FFA89F90AEB070B1FFA8BFBE41BA4B2C8
:10525000013CA4B2ED1BADB2013DADB202230093FF
:105260003B465A464946404600F074FA01230093F3
:105270003B465A462146404600F06CFA0423009310
:105280003B462A464946404600F064FA082300930C
:105290003B462A462146404600F05CFA049BDB1B55
:1052A0009BB2DB1B9BB209F101091FFA89F90BF1D3
:1052B000010B1FFA8BFB022B0FD8F61BB6B2F61BA5
:1052C000B6B2022EB6D9023EB6B20096049B5A463A
:1052D00003994046FFF72AFFACE7023B9BB27C1CD8
:1052E000A4B200940593524649464046FFF71EFF7C
:1052F0000094059B2A4649464046FFF717FFDCE726
:105300002DE9F04F85B007460C469046BDF838B001
:10531000BDF83C60029103931C44A4B202EB0B0560
:10532000ADB20095234600F0A2FE10B905B0BDE86D
:10533000F08F029A02EB060A1FFA8AFA08EB0609B6
:105340001FFA89F9A41BA4B2013CA4B2AD1BADB2F3
:10535000013DADB20223009333464A4651463846DA
:1053600000F0D4F90123009333464A4621463846DB
:1053700000F0CCF90423009333462A4651463846C0
:1053800000F0C4F90823009333462A4621463846E4
:1053900000F0BCF9039B9B1B9BB29B1B9BB2ABEB2E
:1053A0000604A4B2A41BA4B20AF1010A1FFA8AFAE5
:1053B00009F101091FFA89F9022B16D8022CB5D977
:1053C000023CA4B2039B5D1EADB223464A46029E38
:1053D0003146384600F00AFE3146294423464A4603
:1053E00089B2384600F002FEA0E7023B9DB20BF105
:1053F000FF3B1FFA8BFB2B4642465146384600F0D6
:10540000EDFD08EB0B022B4692B25146384600F0F8
:10541000E5FDD3E710B582B003681B7C446B03FB4A
:1054200001F1C90089B20C440094002101F002F995
:1054300002B010BD2DE9F041064690F8387090F8A2
:105440003950036893F8118000242A4621463046DB
:10545000FFF7E0FF0134E4B20135EDB2A74201D914
:10546000A845F2D8BDE8F08108B503681B7C90F828
:10547000382003FB02F2D2000021406B0DF0C2FA8B
:1054800008BD10B50446FFF7D5FF204601F0F8F837
:1054900010BD2DE9F84380460F4691461C46BDF8E5
:1054A00020609DF8245015F0010F0AD115F0020F6D
:1054B00016D115F0080F24D115F0040F32D1BDE834
:1054C000F883B21A591892B289B200F097FDF21B14
:1054D00004EB090192B289B2404600F08FFDE5E786
:1054E000A6EB0902E11B92B289B2404600F086FDAC
:1054F000F21BA4EB090192B289B2404600F07EFD96
:10550000D7E706EB0902E11992B289B2404600F0F2
:1055100075FDBA1904EB090192B289B2404600F058
:105520006DFDC9E706EB0902E11B92B289B2404664
:1055300000F064FDBA19A4EB090192B289B24046A9
:1055400000F05CFDBBE72DE9F04F85B00390894684
:1055500092461E469DF838B0C3F1010424B2C3EB55
:10556000C3384FEA48080FFA88F8CDF804B0009223
:105570000B4632460021FFF78CFF002501271AE079
:10558000013EB6B208F102081FFA88F30FFA88F854
:1055900023441CB20135ADB20237BBB23FB2234443
:1055A0001CB2CDF804B0CDF800A04B4632462946D7
:1055B0000398FFF76EFFB54202D2002CE0DAE9E76C
:1055C00005B0BDE8F08F2DE9F84380460C4617463C
:1055D0001D46BDF820909DF8246016F0010F0AD1F9
:1055E00016F0020F1BD116F0080F2DD116F0040F84
:1055F0003BD1BDE8F883531CA9EB020269189BB2AA
:1056000092B289B200F0F2FC631CA9EB0402E91922
:105610009BB292B289B2404600F0E8FCE0E77B1C06
:10562000A9EB0702291B9BB292B289B2404600F057
:10563000DDFC631CA9EB0402E91B9BB292B289B2A8
:10564000404600F0D3FCCEE77B1C29199BB24A46AA
:1056500089B2404600F0CAFC631CE9199BB24A4675
:1056600089B2404600F0C2FCC0E77B1C291B9BB2FC
:105670004A4689B2404600F0B9FC631CE91B9BB264
:105680004A4689B2404600F0B1FCB2E72DE9F04F3E
:1056900085B00390894692461E469DF838B0C3F106
:1056A000010424B2C3EBC3384FEA48080FFA88F864
:1056B000CDF804B000920B4632460021FFF783FF7D
:1056C000002501271AE0013EB6B208F102081FFAD0
:1056D00088F30FFA88F823441CB20135ADB20237C3
:1056E000BBB23FB223441CB2CDF804B0CDF800A049
:1056F0004B46324629460398FFF765FFB54202D272
:10570000002CE0DAE9E705B0BDE8F08F2DE9F041C3
:1057100082B080460E4617461D46CB189BB2AC1889
:10572000A4B20133521B491B0134A4B200949BB2B2
:1057300092B289B200F09BFC10B902B0BDE8F081D2
:105740009DF8203000932B463A4631464046FFF7FD
:10575000FAFEF2E72DE9F04182B080460E46174688
:105760001D46CB189BB2AC18A4B20133521B491B87
:105770000134A4B200949BB292B289B200F077FCDB
:1057800010B902B0BDE8F0819DF8203000932B469F
:105790003A4631464046FFF779FFF2E708230370A7
:1057A000004870476C0B002030B585B004460D46AC
:1057B00000931346084A094900F084FF0DF10F00D9
:1057C000FFF7ECFF01460095054B9DF80F202046A2
:1057D00000F045FD05B030BD47640008896500084C
:1057E0009B600008405C70474218435C507800EBB7
:1057F000032080B270470020704738B504460D463C
:1058000000212846FFF7EEFF207001212846FFF710
:10581000E9FF607002212846FFF7E4FFA070032132
:105820002846FFF7DFFFE07004212846FFF7DAFF84
:10583000207105212846FFF7D5FF60710621284613
:10584000FFF7D0FFA07107212846FFF7CBFFE071DB
:1058500008212846FFF7C6FF207209212846FFF7D6
:10586000C1FF60720A212846FFF7BCFFA0720B211E
:105870002846FFF7B7FFE0720C212846FFF7B2FF7A
:1058800020730D212846FFF7ADFF60730E212846D7
:10589000FFF7A8FFA0730F212846FFF7A3FFE073CF
:1058A00010212846FFF79EFF207411212846FFF79C
:1058B0009BFF608213212846FFF796FFA0821521E7
:1058C0002846FFF791FFE08238BD30B5024690F8D8
:1058D0000CE00468207840FA0EF05FFA80FC0EEBD2
:1058E0000103DBB2072B0FD9CEF1080E5FFA8EFE53
:1058F000651C156094F801C00CFA0EFC4CEA000C13
:105900005FFA8CFC083BDBB24FF0FF30884013732A
:105910002CEA000030BD38B5044600F16005016690
:10592000002380F86C3090F878102846FFF7CDFF00
:1059300084F86A0094F879102846FFF7C6FF84F8C7
:105940006B0094F8923084F86E30B3FA83F35B09FD
:1059500084F86F3038BD10B50C46FFF7B6FF013C38
:10596000E4B20123A340C01A40B210BD012B08D0FD
:10597000022B09D013B1401A80B27047104480B294
:105980007047084480B27047801A80B27047012B7C
:1059900008D0022B09D013B1104480B270470844DC
:1059A00080B27047801A80B27047401A80B2704748
:1059B0002DE9F04F89B005468A46079290F9683084
:1059C0005FFA83FB90F96920D3B2039319E0CDF815
:1059D00014A01FE095F86E3085F892300097059B73
:1059E0000699284600F095FAB2453CD3ABEB040487
:1059F00054445FFA84FA039B0133DBB203934FF004
:105A0000000B95F96A40E4B2A4EB0B06F6B2B2457E
:105A1000DDD30596B5F866904FFA8BF19DF90C80B1
:105A200095F870703B4642460491B5F86400FFF764
:105A3000AEFF06903B46424604994846FFF796FF64
:105A40000246079B002BC5D195F86D30002BCBD1BA
:105A500095F86F3085F892300097059B0699284697
:105A600000F057FAC0E70AEB0B0385F8683085F8B9
:105A7000698009B0BDE8F08F2DE9F04F85B004468C
:105A800000F16005FFF747FF94F96B7094F87A1006
:105A90002846FFF760FF804694F87B102846FFF702
:105AA0005AFF064694F87C102846FFF754FF0390EF
:105AB00094F96A90B9F1000F55DD3E44F6B2764292
:105AC00076B294F870B05B4632464146B4F8640052
:105AD000FFF75DFF8246A4F864005B46324641460C
