:020000040800F2
:100000000050002049880008616C0008636C0008FB
:10001000656C0008676C0008696C0008000000004F
:100020000000000000000000000000006B6C0008F1
:100030006D6C0008000000006F6C0008716C000817
:10004000918800089188000891880008918800082C
:10005000918800089188000891880008918800081C
:10006000918800089188000891880008918800080C
:10007000918800089188000891880008796C000830
:1000800091880008918800089188000891880008EC
:1000900091880008918800089188000891880008DC
:1000A00091880008918800089188000891880008CC
:1000B00091880008918800089188000891880008BC
:1000C00091880008918800089188000891880008AC
:1000D000896C0008918800089188000891880008C0
:1000E00091880008918800089188000800000000AD
:1000F0000000000000000000000000000000000000
:0C01000000000000000000005FF808F1A3
:1001100081F0004102E000BF83F0004330B54FEAB8
:1001200041044FEA430594EA050F08BF90EA020F25
:100130001FBF54EA000C55EA020C7FEA645C7FEAB8
:10014000655C00F0E2804FEA5454D4EB5555B8BFDB
:100150006D420CDD2C4480EA020281EA030382EA4C
:10016000000083EA010180EA020281EA0303362DDE
:1001700088BF30BD11F0004F4FEA01314FF4801CB1
:100180004CEA113102D0404261EB410113F0004FC3
:100190004FEA03334CEA133302D0524263EB43037A
:1001A00094EA050F00F0A780A4F10104D5F1200E18
:1001B0000DDB02FA0EFC22FA05F2801841F1000173
:1001C00003FA0EF2801843FA05F359410EE0A5F147
:1001D00020050EF1200E012A03FA0EFC28BF4CF078
:1001E000020C43FA05F3C01851EBE37101F000452E
:1001F00007D54FF0000EDCF1000C7EEB00006EEB3B
:100200000101B1F5801F1BD3B1F5001F0CD34908C4
:100210005FEA30004FEA3C0C04F101044FEA44521B
:1002200012F5800F80F09A80BCF1004F08BF5FEAA2
:10023000500C50F1000041EB045141EA050130BD82
:100240005FEA4C0C404141EB0101013C28BFB1F594
:10025000801FE9D291F0000F04BF01460020B1FADF
:1002600081F308BF2033A3F10B03B3F120020CDAB2
:100270000C3208DD02F1140CC2F10C0201FA0CF090
:1002800021FA02F10CE002F11402D8BFC2F1200CF5
:1002900001FA02F120FA0CFCDCBF41EA0C019040AB
:1002A000E41AA2BF01EB0451294330BD6FEA0404F4
:1002B0001F3C1CDA0C340EDC04F11404C4F12002DF
:1002C00020FA04F001FA02F340EA030021FA04F3F1
:1002D00045EA030130BDC4F10C04C4F1200220FA48
:1002E00002F001FA04F340EA0300294630BD21FA86
:1002F00004F0294630BD94F0000F83F4801306BF4C
:1003000081F480110134013D4EE77FEA645C18BF3F
:100310007FEA655C29D094EA050F08BF90EA020FD6
:1003200005D054EA000C04BF1946104630BD91EACE
:10033000030F1EBF0021002030BD5FEA545C05D1D1
:100340004000494128BF41F0004130BD14F5800410
:100350003CBF01F5801130BD01F0004545F0FE4184
:1003600041F470014FF0000030BD7FEA645C1ABFB9
:10037000194610467FEA655C1CBF0B46024650EAF0
:10038000013406BF52EA033591EA030F41F400211C
:1003900030BD00BF90F0000F04BF0021704730B5A2
:1003A0004FF4806404F132044FF000054FF0000177
:1003B00050E700BF90F0000F04BF0021704730B538
:1003C0004FF4806404F1320410F0004548BF40420D
:1003D0004FF000013EE700BF42004FEAE2014FEA62
:1003E00031014FEA02701FBF12F07F4393F07F4F3D
:1003F00081F06051704732F07F4208BF704793F040
:100400007F4F04BF41F40021704730B54FF4607452
:1004100001F0004521F000411CE700BF50EA010255
:1004200008BF704730B54FF000050AE050EA0102FE
:1004300008BF704730B511F0004502D5404261EB6E
:1004400041014FF4806404F132045FEA915C3FF4AF
:10045000D8AE4FF003025FEADC0C18BF03325FEA4C
:10046000DC0C18BF033202EBDC02C2F1200300FAFD
:1004700003FC20FA02F001FA03FE40EA0E0021FA22
:1004800002F11444BDE600BF4FF0FF3C06E000BFA0
:100490004FF0010C02E000BF4FF0010C4DF804CD0D
:1004A0004FEA410C7FEA6C5C4FEA430C18BF7FEACD
:1004B0006C5C1BD001B050EA410C0CBF52EA430CFB
:1004C00091EA030F02BF90EA020F0020704710F17B
:1004D000000F91EA030F58BF994208BF90422CBF0A
:1004E000D8176FEAE37040F0010070474FEA410C03
:1004F0007FEA6C5C02D150EA013C07D14FEA430C21
:100500007FEA6C5CD6D152EA033CD3D05DF8040B91
:10051000704700BF8446104662468C4619466346C3
:1005200000E000BF01B5FFF7B7FF002848BF10F19A
:10053000000F01BD4DF808EDFFF7F4FF0CBF0120DF
:1005400000205DF808FB00BF4DF808EDFFF7EAFF5B
:1005500034BF012000205DF808FB00BF4DF808ED16
:10056000FFF7E0FF94BF012000205DF808FB00BF0B
:100570004DF808EDFFF7CEFF94BF012000205DF895
:1005800008FB00BF4DF808EDFFF7C4FF34BF0120A2
:1005900000205DF808FB00BF4FEA4102B2F1E043E2
:1005A00024BFB3F5001CDCF1FE5C0DD901F0004C5A
:1005B0004FEAC0024CEA5070B2F1004F40EB8300AA
:1005C00008BF20F00100704711F0804F21D113F1D6
:1005D0003872BCBF01F00040704741F480114FEA0F
:1005E0005252C2F11802C2F1200C10FA0CF320FA98
:1005F00002F018BF40F001004FEAC1234FEAD323B5
:1006000003FA0CFC40EA0C0023FA02F34FEA43031E
:10061000CCE77FEA625307D150EA01331EBF4FF0A7
:10062000FE4040F44000704701F0004040F0FE40C2
:1006300040F40000704700BF80F0004002E000BFBF
:1006400081F0004142001FBF5FEA410392EA030FBD
:100650007FEA226C7FEA236C6AD04FEA1262D2EB07
:100660001363C1BFD218414048404140B8BF5B420C
:10067000192B88BF704710F0004F40F4000020F0A5
:100680007F4018BF404211F0004F41F4000121F0BB
:100690007F4118BF494292EA030F3FD0A2F1010205
:1006A00041FA03FC10EB0C00C3F1200301FA03F143
:1006B00000F0004302D5494260EB4000B0F5000F66
:1006C00013D3B0F1807F06D340084FEA310102F125
:1006D0000102FE2A51D2B1F1004F40EBC25008BFD7
:1006E00020F0010040EA03007047490040EB0000A1
:1006F000013A28BFB0F5000FEDD2B0FA80FCACF1A2
:10070000080CB2EB0C0200FA0CF0AABF00EBC250CE
:1007100052421843BCBFD0401843704792F0000FBC
:1007200081F4000106BF80F400000132013BB5E70F
:100730004FEA41037FEA226C18BF7FEA236C21D085
:1007400092EA030F04D092F0000F08BF08467047EA
:1007500090EA010F1CBF0020704712F07F4F04D1B8
:10076000400028BF40F00040704712F100723CBFCB
:1007700000F50000704700F0004343F0FE4040F4F5
:10078000000070477FEA226216BF08467FEA2363B3
:100790000146420206BF5FEA412390EA010F40F49E
:1007A000800070474FF0000304E000BF10F00043EA
:1007B00048BF40425FEA000C08BF704743F09643D1
:1007C00001464FF000001CE050EA010208BF7047EC
:1007D0004FF000030AE000BF50EA010208BF704773
:1007E00011F0004302D5404261EB41015FEA010C88
:1007F00002BF84460146002043F0B64308BFA3F180
:100800008053A3F50003BCFA8CF2083AA3EBC25361
:1008100010DB01FA02FC634400FA02FCC2F1200280
:10082000BCF1004F20FA02F243EB020008BF20F0B7
:100830000100704702F1200201FA02FCC2F120021D
:1008400050EA4C0021FA02F243EB020008BF20EA12
:10085000DC7070474FF0FF0C1CEAD0521EBF1CEA40
:10086000D15392EA0C0F93EA0C0F6FD01A4480EA2E
:10087000010C400218BF5FEA41211ED04FF0006317
:1008800043EA501043EA5111A0FB01310CF0004043
:10089000B1F5000F3EBF490041EAD3715B0040EA69
:1008A000010062F17F02FD2A1DD8B3F1004F40EB39
:1008B000C25008BF20F00100704790F0000F0CF00C
:1008C000004C08BF49024CEA502040EA51207F3AD0
:1008D000C2BFD2F1FF0340EAC250704740F40000AB
:1008E0004FF00003013A5DDC12F1190FDCBF00F09C
:1008F00000407047C2F10002410021FA02F1C2F14A
:10090000200200FA02FC5FEA310040F1000053EAE5
:100910004C0308BF20EADC70704792F0000F00F033
:10092000004C02BF400010F4000F013AF9D040EA39
:100930000C0093F0000F01F0004C02BF490011F4CD
:10094000000F013BF9D041EA0C018FE70CEAD153CB
:1009500092EA0C0F18BF93EA0C0F0AD030F0004C4B
:1009600018BF31F0004CD8D180EA010000F00040FF
:10097000704790F0000F17BF90F0004F084691F0BD
:10098000000F91F0004F14D092EA0C0F01D14202F7
:100990000FD193EA0C0F03D14B0218BF084608D1C0
:1009A00080EA010000F0004040F0FE4040F400000A
:1009B000704740F0FE4040F4400070474FF0FF0C9D
:1009C0001CEAD0521EBF1CEAD15392EA0C0F93EAE4
:1009D0000C0F69D0A2EB030280EA010C49024FEA36
:1009E000402037D04FF0805343EA111143EA1013EF
:1009F0000CF000408B4238BF5B0042F17D024FF4A7
:100A0000000C8B4224BF5B1A40EA0C00B3EB510F81
:100A100024BFA3EB510340EA5C00B3EB910F24BF6A
:100A2000A3EB910340EA9C00B3EBD10F24BFA3EBEF
:100A3000D10340EADC001B0118BF5FEA1C1CE0D1B7
:100A4000FD2A3FF650AF8B4240EBC25008BF20F06A
:100A5000010070470CF0004C4CEA50207F32C2BFBE
:100A6000D2F1FF0340EAC250704740F400004FF05B
:100A70000003013A37E792F0000F00F0004C02BF8C
:100A8000400010F4000F013AF9D040EA0C0093F056
:100A9000000F01F0004C02BF490011F4000F013BB0
:100AA000F9D041EA0C0195E70CEAD15392EA0C0F18
:100AB00008D142027FF47DAF93EA0C0F7FF470AF50
:100AC000084676E793EA0C0F04D14B023FF44CAF93
:100AD00008466EE730F0004C18BF31F0004CCAD128
:100AE00030F000427FF45CAF31F000437FF43CAF64
:100AF0005FE700BF4FF0FF3C06E000BF4FF0010C86
:100B000002E000BF4FF0010C4DF804CD4FEA400267
:100B10004FEA41037FEA226C18BF7FEA236C11D0B1
:100B200001B052EA530C18BF90EA010F58BFB2EB64
:100B3000030088BFC81738BF6FEAE17018BF40F0E4
:100B4000010070477FEA226C02D15FEA402C05D198
:100B50007FEA236CE4D15FEA412CE1D05DF8040B1D
:100B6000704700BF844608466146FFE70FB5FFF7B0
:100B7000C9FF002848BF10F1000F0FBD4DF808ED68
:100B8000FFF7F4FF0CBF012000205DF808FB00BF59
:100B90004DF808EDFFF7EAFF34BF012000205DF8B3
:100BA00008FB00BF4DF808EDFFF7E0FF94BF012000
:100BB00000205DF808FB00BF4DF808EDFFF7D2FFFD
:100BC00094BF012000205DF808FB00BF4DF808ED40
:100BD000FFF7C8FF34BF012000205DF808FB00BF0D
:100BE0004FEA4002B2F1FE4F0FD34FF09E03B3EB3A
:100BF00012620DD94FEA002343F0004310F0004F7A
:100C000023FA02F018BF404270474FF000007047CF
:100C100012F1610F01D1420205D110F0004008BF6E
:100C20006FF0004070474FF00000704742000ED256
:100C3000B2F1FE4F0BD34FF09E03B3EB126209D417
:100C40004FEA002343F0004323FA02F070474FF0CD
:100C50000000704712F1610F01D1420202D14FF042
:100C6000FF3070474FF00000704700BF00F13401C3
:100C700091E838009C46A6464CF8045D90E8FF0FCA
:100C8000E54600BD90EC210B704700BF80EC210BC6
:100C9000704700BF90EC200B704700BF80EC200B2A
:100CA000704700BFD0EC200B704700BFC0EC200B9A
:100CB000704700BFF0EC0201F0EC0211F0EC0221F1
:100CC000F0EC0231F0EC0241F0EC0251F0EC026188
:100CD000F0EC0271F0EC0281F0EC0291F0EC02A178
:100CE000F0EC02B1F0EC02C1F0EC02D1F0EC02E168
:100CF000F0EC02F1704700BFE0EC0201E0EC021101
:100D0000E0EC0221E0EC0231E0EC0241E0EC0251C7
:100D1000E0EC0261E0EC0271E0EC0281E0EC0291B7
:100D2000E0EC02A1E0EC02B1E0EC02C1E0EC02D1A7
:100D3000E0EC02E1E0EC02F1704700BFB0FC0181A1
:100D4000B0FC0191B0FC01A1B0FC01B1704700BF43
:100D5000A0FC0181A0FC0191A0FC01A1A0FC01B1BB
:100D6000704700BFEC4600B52DE900502DE9FF1F8C
:100D70004FF000032DE90C0001A90FF0D9FCDDF8BC
:100D800040E012B0704700BFEC4600B52DE90050BE
:100D90002DE9FF1F4FF000032DE90C0001A90FF012
:100DA00007FDDDF840E012B0704700BFEC4600B52B
:100DB0002DE900502DE9FF1F4FF000032DE90C0035
:100DC00001A90FF015FDDDF840E012B0704700BF3B
:100DD000EC4600B52DE900502DE9FF1F4FF0000350
:100DE0002DE90C0001AB0FF0D7FCDDF840E012B0AC
:100DF000704700BFEC4600B52DE900502DE9FF1FFC
:100E00004FF000032DE90C0001AA0FF04FFDDDF8B3
:100E100040E012B0704700BF80EA010C1CF0030FE5
:100E200037D110F0030C20F0030021F0030150F83B
:100E3000042B08BF51F8043B0ED08CF0030C6FF06C
:100E40007F434FEACC0C23FA0CFC51F8043B42EAF6
:100E50000C0243EA0C0300BFA2F1013C9A4201BF1D
:100E60002CEA020C1CF0803F50F8042B51F8043B94
:100E7000F2D04FEA02604FEA1222012828BFB0EBFD
:100E8000036F08BF1B0AF4D003F0FF03000EC01A63
:100E9000704710F0030F0AD010F8012B11F8013B36
:100EA000012A28BF9A42F4D0A2EB030070474DF804
:100EB000045D50F8042B01F0030521F0030151F803
:100EC000043B022D26D04DD822F07F45B5EB132FE1
:100ED000A2F1013C2CEA020C0DD11CF0803C08BFB1
:100EE00051F8043B0AD185EA0205B5EB036F0CD13A
:100EF00050F8042BE8E74FEA13235BE03CF07F4C0B
:100F000054D10B784FEA126554E04FEA126503F0B2
:100F1000FF034FE04FEA0245A2F1013C4FEA1545BD
:100F20002CEA020CB5EB134F18D11CF0803C08BF23
:100F300051F8043B07D185EA0205B5EB034F09D10F
:100F400050F8042BE6E75FEA0C4C2FD10B884FEAF0
:100F500012452FE04FEA03434FEA12454FEA13438D
:100F600028E000BF02F0FF05B5EB136FA2F1013CD2
:100F70002CEA020C0DD11CF0803C08BF51F8043B58
:100F80000AD185EA0205B5EB032F0AD150F8042BEC
:100F9000E8E74FEA13630DE012F0FF0F06D051F8B7
:100FA000043B4FEA122523F07F4303E04FF000009B
:100FB00020BC704705F0FF0203F0FF00012828BFA6
:100FC000904204BF2D0A1B0AF4D0A2EB000020BC03
:100FD000704700BF844641EA000313F0030349D180
:100FE000403A23D30B6803604B6843608B6883608F
:100FF000CB68C3600B6903614B6943618B69836193
:10100000CB69C3610B6A03624B6A43628B6A83627A
:10101000CB6AC3620B6B03634B6B43638B6B836362
:10102000CB6BC36340304031403ADBD230320BD31C
:101030000B6803604B6843608B688360CB68C36058
:1010400010301031103AF3D20C3205D351F8043B72
:1010500040F8043B043AF9D2043208D0D2071CBF4E
:1010600011F8013B00F8013B01D30B880380604677
:10107000704700BF082A13D38B07B1D010F00303C9
:10108000AED0C3F10403D21ADB071CBF11F8013B39
:1010900000F8013BA4D331F8023B20F8023B9FE764
:1010A000043AD9D3013A11F8013B00F8013BF9D2D7
:1010B0000B7803704B7843708B7883706046704771
:1010C00070B54FF0FF0C4CF4E06C1CEA11541DBFDE
:1010D0001CEA135594EA0C0F95EA0C0F00F0DEF8A9
:1010E0002C4481EA030621EA4C5123EA4C5350EA8E
:1010F000013518BF52EA033541F4801143F48013DF
:1011000038D0A0FB02CE4FF00005E1FB02E506F06F
:101110000042E0FB03E54FF00006E1FB03569CF0C4
:10112000000F18BF4EF0010EA4F1FF04B6F5007FCA
:1011300064F5407404D25FEA4E0E6D4146EB06063C
:1011400042EAC62141EA55514FEAC52040EA5E50C5
:101150004FEACE2EB4F1FD0C88BFBCF5E06F1ED86F
:10116000BEF1004F08BF5FEA500E50F1000041EBA6
:10117000045170BD06F0004646EA010140EA020053
:1011800081EA0301B4EB5C04C2BFD4EB0C0541EA75
:10119000045170BD41F480114FF0000E013C00F38A
:1011A000AB8014F1360FDEBF002001F0004170BDAE
:1011B000C4F10004203C35DA0C341BDC04F11404C7
:1011C000C4F1200500FA05F320FA04F001FA05F253
:1011D00040EA020001F0004221F0004110EBD37020
:1011E00021FA04F642EB06015EEA430E08BF20EA4C
:1011F000D37070BDC4F10C04C4F1200500FA04F3EF
:1012000020FA05F001FA04F240EA020001F0004180
:1012100010EBD37041F100015EEA430E08BF20EAF3
:10122000D37070BDC4F1200500FA05F24EEA020E3B
:1012300020FA04F301FA05F243EA020321FA04F06A
:1012400001F0004121FA04F220EA020000EBD37021
:101250005EEA430E08BF20EAD37070BD94F0000F21
:101260000FD101F00046400041EB010111F4801F55
:1012700008BF013CF7D041EA060195F0000F18BF06
:10128000704703F00046520043EB030313F4801F42
:1012900008BF013DF7D043EA0603704794EA0C0FFC
:1012A0000CEA135518BF95EA0C0F0CD050EA410612
:1012B00018BF52EA4306D1D181EA030101F000418F
:1012C0004FF0000070BD50EA410606BF10461946B7
:1012D00052EA430619D094EA0C0F02D150EA0136C3
:1012E00013D195EA0C0F05D152EA03361CBF104604
:1012F00019460AD181EA030101F0004141F0FE41A3
:1013000041F470014FF0000070BD41F0FE4141F426
:10131000780170BD70B54FF0FF0C4CF4E06C1CEA26
:1013200011541DBF1CEA135594EA0C0F95EA0C0FDB
:1013300000F0A7F8A4EB050481EA030E52EA033596
:101340004FEA013100F088804FEA03334FF08055B7
:1013500045EA131343EA12634FEA022245EA1115E4
:1013600045EA10654FEA00260EF000419D4208BF95
:10137000964244F1FD0404F5407402D25B084FEA42
:101380003202B61A65EB03055B084FEA32024FF4EE
:1013900080104FF4002CB6EB020E75EB030E22BF4B
:1013A000B61A754640EA0C005B084FEA3202B6EB0B
:1013B000020E75EB030E22BFB61A754640EA5C00BA
:1013C0005B084FEA3202B6EB020E75EB030E22BF4A
:1013D000B61A754640EA9C005B084FEA3202B6EB4B
:1013E000020E75EB030E22BFB61A754640EADC000A
:1013F00055EA060E18D04FEA051545EA16754FEA6C
:1014000006164FEAC30343EA52734FEAC2025FEA89
:101410001C1CC0D111F4801F0BD141EA00014FF018
:1014200000004FF0004CB6E711F4801F04BF0143E9
:101430000020B4F1FD0C88BFBCF5E06F3FF6AFAE05
:10144000B5EB030C04BFB6EB020C5FEA500C50F195
:10145000000041EB045170BD0EF0004E4EEA113118
:1014600014EB5C04C2BFD4EB0C0541EA045170BD1F
:1014700041F480114FF0000E013C90E645EA060E63
:101480008DE60CEA135594EA0C0F08BF95EA0C0F91
:101490003FF43BAF94EA0C0F0AD150EA01347FF4D9
:1014A00034AF95EA0C0F7FF425AF104619462CE7B0
:1014B00095EA0C0F06D152EA03353FF4FDAE104613
:1014C000194622E750EA410618BF52EA43067FF464
:1014D000C5AE50EA41047FF40DAF52EA43057FF4F4
:1014E000EBAE12E74FEA410C7FEA6C5C02D150EAA6
:1014F000013C0AD14FEA430C7FEA6C5C02D152EA0C
:10150000033C02D14FF0000070474FF001007047DC
:101510004FEA410212F5001215D211D56FF478731B
:10152000B3EB625212D94FEAC12343F0004343EABE
:10153000505311F0004F23FA02F018BF4042704799
:101540004FF00000704750EA013005D111F0004023
:1015500008BF6FF0004070474FF00000704700BFB9
:101560000348044B834202D0034B03B11847704732
:10157000D8090020D8090020000000000548064BCB
:101580001B1AD90F01EBA301491002D0034B03B181
:1015900018477047D8090020D80900200000000033
:1015A00010B5064C237843B9FFF7DAFF044B13B1AB
:1015B0000448AFF300800123237010BDD809002038
:1015C00000000000347B010808B5054B1BB105493C
:1015D0000548AFF30080BDE80840FFF7CFBF00BF6C
:1015E00000000000DC090020347B010800B585B054
:1015F00000230193029303931148124A026083600F
:10160000037303754FF46022C261436001230361D9
:1016100005F046FE68B910230193012302930023CD
:10162000039301A9064805F0B5FC28B905B05DF89B
:1016300004FB05F028FAEEE705F025FAF6E700BF0F
:10164000F4090020002401400268094B9A4200D0AE
:10165000704782B003F56C439A6942F400729A6154
:101660009B6903F400730193019B02B0704700BFB4
:10167000002401400048704738000020F8B50D46AE
:1016800014461E460F6811463846FFF777FA50B9E0
:1016900021463846FEF7D4FF20F000400C49FFF702
:1016A00077FA08B12C60F8BD39462046FEF7C8FF2E
:1016B000044631460748FEF7C3FF01462046FFF7C0
:1016C0007DF901463846FEF7BDFF2860EBE700BF15
:1016D0009A99193E0000C84208B502F071FF0368EC
:1016E000DB69984708BD08B502F06AFF03681B6A0A
:1016F000984708BD10B5044602F062FF03685B6AB4
:101700002146984710BD10B5044602F059FF036802
:101710009B6A2146984710BD10B5044602F050FF61
:1017200003681B6B2146984710BDF8B504460D466B
:10173000164602F045FF03689F6B33462A46214652
:10174000B847F8BDF8B504460D46164602F038FF16
:1017500003689F6C33462A462146B847F8BDF8B562
:1017600004460D46164602F02BFF0368DF6C334635
:101770002A462146B847F8BDF0B583B004460D4669
:1017800016461F4602F01CFF036800975F6D334644
:101790002A462146B84703B0F0BD08B502F010FF55
:1017A00003685B6F984708BD10B584B0844601910B
:1017B00044680368E31A98106FF0604EAEEBA30321
:1017C0008B4210D30390814210D803AB1B6818449E
:1017D000DCF80030E41AB0EBA40F09D3B0F1005FDD
:1017E00009D204B010BD104608F0E2FA01ABEDE7F3
:1017F0006FF06040F5E76FF06040F2E74068043852
:10180000704710B485B000230193029303930468DA
:1018100001944268029283680393D1F800C0C0F833
:1018200000C0D1F804C0C0F804C0D1F808C0C0F8A6
:1018300008C00C604A608B6005B010BC704708B5EA
:101840000846114607F0AAF808BD08B5034653F844
:10185000081B994203D082680132FFF7F0FF08BDF0
:1018600010B50446FFF7F1FF204610BD136801E0F4
:1018700040F8043B8142FBD1704708B5084691000F
:1018800007F08CF808BD10B5044601688268521A4A
:1018900011B19210FFF7F1FF204610BD10B50446BC
:1018A000FFF7F1FF204610BD08B5B1F1005F03D28C
:1018B000880007F0EFFD08BDB1F1804F01D308F0BB
:1018C0004FFA08F03DFA38B504460D4641B1002202
:1018D000FFF7EAFF2060606000EB8500A06038BD84
:1018E0000020F7E770B5B1F1005F0ED205460C4657
:1018F00016460023036043608360FFF7E4FF2B6814
:101900006CB103EB8404326804E0064808F050FA36
:1019100043F8042B9C42FBD16C60284670BD1C46EA
:10192000FAE700BFC87B010870B584B005460C46D5
:101930001646836800681B1AB1EBA30F09D86968C3
:101940000B1AB4EBA30F11D86CB300EB840413682B
:1019500022E02B4601A8FFF7C5FF294601A8FFF7A3
:1019600050FF01A8FFF78FFF04B070BDFFF77EFFA7
:101970006B682A689A1AB4EBA20209D003EB8202C0
:10198000316801E043F8041B9A42FBD16A60EBE73F
:101990001A46FBE740F8043B8442FBD16B68A34244
:1019A000E2D06C60E0E70446F8E700002DE9F84F6C
:1019B00005468A4693461E4A0121FFF7F5FED5F8F3
:1019C00000806F68AAEB0804814618B30022014624
:1019D0002846FFF769FF0646DBF800303351002C3C
:1019E0001ADC04343444A7EB0A07002F1ADC3C4409
:1019F000AA68A2EB08029210B8F1000F03D041468A
:101A00002846FFF73AFF2E606C6006EB8906AE6051
:101A1000BDE8F88F0026DFE722464146304610F049
:101A200073FDDEE73A465146204610F06DFDDEE7D5
:101A3000FC7B010810B5044643688268934208D0D5
:101A40000A681A604368043343602046FFF7D6FEF5
:101A500010BD0A461946FFF7A9FFF6E72DE9F04F3A
:101A600087B082462FE2B14807F0D2FC002800F090
:101A70003B82AF4AAF49B04806F00CFFAB4807F0D5
:101A8000E7FC31E2AD4807F0C3FC002800F03482E7
:101A9000A74AA849AA4806F0FDFEA84807F0D8FCC6
:101AA0002AE2A84807F0B4FC002800F02D82A04AE2
:101AB000A049A54806F0EEFEA24807F0C9FC23E2C3
:101AC000A24807F0A5FC002800F02682984AA04909
:101AD000A04806F0DFFE9D4807F0BAFC1CE29E48D5
:101AE00007F096FC002800F01F82914A98499B4815
:101AF00006F0D0FE984807F0ABFC15E202F060FD5E
:101B000004799448FFF7FFFD201A00EBD0704010D5
:101B1000FEF74CFE924B1860924807F099FC17E2D2
:101B200002F04EFD04798D48FFF7EDFD201A00EB21
:101B3000D0704010FEF73AFE8B4B18608B4807F0D0
:101B400087FC16E28A4807F063FC002800F019823F
:101B5000D5F8A0100020FEF773FD4FF07E51FEF780
:101B60006FFD844B1860824807F072FC09E28248DE
:101B700007F04EFC002800F00C82D5F8A4100020DD
:101B8000FEF75EFD4FF07E51FEF75AFD7B4B18606D
:101B9000794807F05DFCFCE1794807F039FC002842
:101BA00000F0FF8102F00CFD4079C043FEF7FEFD1E
:101BB000744B1860724807F04BFCF2E15E4B1A68F8
:101BC0005B68934201D05C4B5A605D4B1A685B685E
:101BD000934201D05A4B5A605B4B1A685B689A4239
:101BE00001D0594B5A60002667E0FFF7D6FD0FF091
:101BF000E1FDD5F894100020FEF722FD4FF07E5154
:101C0000FEF71EFD029002A94B48FFF713FF0FF0ED
:101C1000D9FD044602F0D4FC90F80580D5F8940074
:101C20000146FEF70FFD07464046FEF7BFFD394669
:101C3000FEF706FD4FF08041FEF702FD4FF07E51AA
:101C4000FEF700FDFEF7F2FF80B294FBF0F300FB1D
:101C500013400130FEF7AAFD039003A93848FFF7AF
:101C6000E9FE0FF0AFFD044602F0AAFC90F80480F4
:101C7000D5F894000146FEF7E5FC07464046FEF71E
:101C800095FD3946FEF7DCFC4FF08041FEF7D8FCAD
:101C90004FF07E51FEF7D6FCFEF7C8FF80B294FBF2
:101CA000F0F300FB13400130FEF780FD049004A91F
:101CB0002548FFF7BFFE0136F6B295F8A830B342CB
:101CC00093D8314B01221A7078E102F079FC407907
:101CD000C043FEF76BFD2D4B186095F8A840D5F872
:101CE00094100020FEF7ACFC4FF07E51FEF7A8FCEC
:101CF000059005AA21461248FFF716FED5F8A01058
:101D00000020FEF79DFC4FF07E51FEF799FC204B22
:101D10001860D5F8A4100020FEF792FC4FF07E5119
:101D2000FEF78EFC1B4B186065E100BF800A0020A7
:101D3000000000209D180008840A0020700A00207E
:101D4000740A0020600A0020640A00205C0A002057
:101D5000611800081C000020580A00200400002020
:101D6000540A0020500A00204C0A0020480A002093
:101D7000400A0020440A0020380A00203C0A0020C3
:101D8000280A00202C0A0020920A0020240A0020A1
:101D9000340A0020300A0020B54F3B684FEA84091E
:101DA000D5F89480414653F82400FEF749FCB14E23
:101DB000336853F824B04FF07E51FEF741FC4246A1
:101DC0005946FFF7CCFC3B683268D5F894B052F81E
:101DD00024804FF07E5153F82400FEF733FC5A461E
:101DE0004146FFF7BCFCD7F800B03368D5F89480C3
:101DF000414653F82400FEF723FC4FF07E51FEF7D6
:101E00001FFC014642465BF82400FFF79BFCD7F815
:101E10000080D6F800B04FF07E51D5F89400FEF760
:101E200011FC07464FF07E515BF82400FEF70AFCD8
:101E300001463A4658F82400FFF784FC31688E4B7F
:101E40001A682B6A52F82420494401A8FFF716FCAF
:101E50000134E4B295F8A830A3429DD8D5F8AC007F
:101E6000FFF748FC854E3168D5F8A000FEF7EAFB85
:101E70000146834A834B1868FFF757FCD5F8B0003A
:101E8000FFF738FC804C2168D5F8A400FEF7DAFB98
:101E900001467E4A7E4B1868FFF747FC2B6A7D4A55
:101EA0001268314601A8FFF7E9FB2B6A7A4A1268EB
:101EB000214601A8FFF7E2FBFFF70EFC774B1B88DA
:101EC000534580F00981764B1B78002B00F024816C
:101ED000724A138801331380724B1B68BFF35B8F08
:101EE00013F0010F3FF4BFAD6F4B1B68BFF35B8F67
:101EF00013F0010F3FF4C6AD6C4B1B68BFF35B8F53
:101F000013F0010F3FF4CDAD694B1B68BFF35B8F3E
:101F100013F0010F3FF4D4AD664B1B68BFF35B8F2A
:101F200013F0010F3FF4DBADFFF7A4FB0546D0F83B
:101F3000AC00FFF7DFFB604B1B68BFF35B8F13F058
:101F4000010F05D15C4807F063FA00287FF4D6AD95
:101F5000D5F8B000FFF7CEFB584B1B68BFF35B8F83
:101F600013F0010F05D1554807F052FA00287FF40D
:101F7000D7AD534B1B68BFF35B8F13F0010F3FF4DA
:101F8000E1AD504B1B68BFF35B8F13F0010F3FF4C3
:101F9000EEAD4D4B1B68BFF35B8F13F0010F3FF4A9
:101FA000FBAD3E4B1B885345BFF48FAE474B002221
:101FB0001A60474B1B78002B3FF400AE02F000FB89
:101FC000467976084FF07C51D5F8A000FEF742FC28
:101FD00004463046FEF7EAFB2146FEF731FB2D4B67
:101FE0001860D5F8A410FEF72BFB4FF08141FEF7E7
:101FF00027FB294B1860FFF776FB0020FFF78CFBCF
:10200000344CD4F8008002F0DBFA0079FEF7CAFB0A
:10201000064602F0D5FA4079FEF7C4FB03460027D6
:10202000324641463846FFF7A7FB2B6A274A12681B
:10203000214601A8FFF722FB0120FFF76DFB02F00C
:10204000BFFA4079FEF7B2FB2168FEF7FBFA4FF0CA
:102050007E51FEF7F5FA044602F0B2FA0079FEF777
:10206000A1FB024621463846FFF779FB0024F1E642
:10207000640A0020840A0020740A0020440A002018
:102080001C000020540A00203C0A0020040000200C
:102090004C0A0020340A0020300A0020900A002058
:1020A00034000020800A0020700A0020600A00200E
:1020B0005C0A0020580A0020500A0020480A00202C
:1020C000400A0020380A0020280A0020240A0020A4
:1020D000920A00202C0A002002F072FA4079C043D4
:1020E000FEF764FB0E4B1968FEF748FD00283FF42D
:1020F000EAAE0C4B00221A70E5E60B4807F0A4F993
:1021000006F04EFC094807F09FF906F049FC084824
:1021100007F09AF906F044FC07B0BDE8F08F00BF65
:102120002C0A002034000020500A0020480A002019
:10213000280A002000487047F00000207047000087
:10214000F8B50D4614461E460F6811463846FEF790
:1021500015FD50B921463846FEF772FA20F00040CE
:102160000C49FEF715FD08B12C60F8BD3946204634
:10217000FEF766FA044631460748FEF761FA014663
:102180002046FEF71BFC01463846FEF75BFA286046
:10219000EBE700BF9A99193E0000C84208B502F06B
:1021A0000FFA03681B69984708BD08B502F008FAE2
:1021B00003685B69984708BD08B502F001FA036837
:1021C0009B69984708BD000010B5264B1B68BFF3FC
:1021D0005B8F13F0010F03D1224807F019F940B9C2
:1021E000214B1B68BFF35B8F13F0010F0FD000234F
:1021F00020E0FFF7DAFF0446FFF7DEFF00FB04F400
:10220000E4001A4B1C70174807F022F9E8E716485B
:1022100007F0FEF80028EAD0FFF7C0FF144B186063
:10222000114807F015F9E2E76FF0550002400A7017
:1022300001339BB20D4A12789A4212D90C4A1268A5
:10224000D118D25C13F0010FEED15520EEE705480E
:1022500007F0FAF806F0A4FB034807F0F5F806F0DB
:102260009FFB10BDB40A0020AC0A0020B80A002071
:10227000B00A0020F8B504460D46164602F0A0F953
:102280000368DF6B33462A462146B847F8BD10B5D0
:10229000044602F095F903689B6E2146984710BDED
:1022A00038B55C4B1B68BFF35B8F13F0010F03D194
:1022B000584807F0ADF8B8B9FFF770FF0446FFF7CC
:1022C00039FF05468069FEF7B1FCFFF7E0FF95F89E
:1022D0002930002B56D0504B1B78013B032B4DD897
:1022E000DFE803F01E2C3C4AFFF75FFF0446FFF7D0
:1022F00063FF00FB04F4E400484B1C70454807F002
:10230000A7F8D9E701339BB2444A12789A4258D9C8
:1023100013F0010FF6D0E25C02F0AA02E254F1E7FA
:102320000023F1E701339BB23C4A12789A4248D924
:1023300013F0010FF6D00022E254F3E70023F3E795
:1023400001339BB2354A12789A423AD913F0010F01
:10235000F6D1E25C02F05502E254F1E70023F1E726
:1023600001339BB22D4A12789A422AD913F0010FF9
:10237000F6D10022E254F3E70023F3E7264B0022D4
:102380001A701EE0244B1B78013B032B39D8DFE881
:1023900003F0101D2D3601339BB2204A12789A4269
:1023A0000FD913F0010FF6D0E25C42F0AA02E2541A
:1023B000F1E70023F1E701339BB2184A12789A4201
:1023C000F9D8154A13780133137038BD0023F4E7A8
:1023D00001339BB2114A12789A42F2D913F0010FDD
:1023E000F6D1E25C42F05502E254F1E70023F1E756
:1023F00001339BB2094A12789A42F9D8E1E70023E7
:10240000F8E7054B00221A70DBE7024807F01CF8DA
:1024100006F0C6FABC0A0020EC000020C00A00202A
:1024200008B50120FFF778F9024B186801F0B6FFF4
:10243000F7E700BFA80A002008B5081E02DB07F076
:1024400029F808BD07F07CFCF8B5541A0CD40546F1
:102450000E4664B100222146FFF7EEFF28600719FF
:10246000AF6034B96F60F8BD044807F0A1FC0020EC
:10247000F4E72246314610F047F8F3E7C87B01083D
:1024800038B504460D4639B10022FFF7D5FF20606C
:1024900060602844A06038BD0020F8E708B5012A34
:1024A00003D022B1FEF796FD01E00B78037008BD62
:1024B00008B50846114606F071FA08BD10B5044685
:1024C00001688268521A09B1FFF7F2FF204610BD79
:1024D00010B50446FFF7F2FF204610BD10B582B0DC
:1024E000044602AB03E906000023036043608360F7
:1024F0000A44FFF7A9FF04E02046FFF7DFFF06F0DC
:102500004FFA204602B010BD08B5081E02DB06F0E7
:10251000C1FF08BD07F014FC10B50B68002B0EDBE3
:10252000934206D95400B3EB420F02D20C60002C48
:1025300008DB096800220131FFF7E6FF10BD034800
:1025400007F036FC6FF000430B60F2E7187C0108DF
:1025500070B582B004460E46551A01950F2D0DD860
:1025600000942A4631462068FFF798FF0022009227
:10257000019B63602168CA5402B070BD002201A9AA
:10258000FFF7CAFF2060019BA360E9E738B500F1BF
:102590000803036069B104460D46084610F0FCF9D3
:1025A0004FF000032A1829462046FFF7D1FF2046A6
:1025B00038BD014807F0E4FB307C010838B515460A
:1025C0000C1A01D1281938BD2246014628460FF0C1
:1025D0009BFFF7E708B5FFF7F1FF08BD08B5FFF768
:1025E000F9FF08BD38B504460D4649682A6800233E
:1025F000036043608360891AFFF742FF22686968BD
:102600002868FFF7EBFF6060204638BD30B5C9B0E1
:10261000A42006F03FFF0446B84B036080230371FB
:1026200040234371B64B836000218181B54B40F854
:10263000103B94220FF0E6FF204602F06DF84FF4B5
:102640009670FFF724FE4FF44870FFF707FAAE4B81
:102650001D684FF49E7006F01DFF044606AAAB49A4
:102660006846FFF793FF08E0012525B14FF49E71FE
:10267000204606F093F906F093F9A54907A8FFF75D
:10268000B1FF04E001256846FFF7DFF8EDE707AA90
:102690006946204601F0D8F92146284601F0A2FA01
:1026A00004E0002507A8FFF709FFECE707A8FFF7FC
:1026B00005FF6846FFF7C9F8934B1D684FF49E70FD
:1026C00006F0E8FE044610AA92490AA8FFF75EFF4A
:1026D00008E0012525B14FF49E71204606F05EF911
:1026E00006F05EF98A4911A8FFF77CFF04E0012596
:1026F0000AA8FFF7AAF8EDE711AA0AA9204601F0F7
:10270000A3F92146284601F06DFA04E0002511A83E
:10271000FFF7D4FEECE711A8FFF7D0FE0AA8FFF7F9
:1027200094F8794B1D684FF49E7006F0B3FE044692
:102730001AAA794914A8FFF729FF08E0012525B155
:102740004FF49E71204606F029F906F029F97049E8
:102750001BA8FFF747FF04E0012514A8FFF775F851
:10276000EDE71BAA14A9204601F06EF92146284680
:1027700001F038FA04E000251BA8FFF79FFEECE704
:102780001BA8FFF79BFE14A8FFF75FF8634C2168B6
:102790005D4B186801F026FA25684FF49E7006F02C
:1027A00079FE044624AA59491EA8FFF7EFFE08E067
:1027B000012525B14FF49E71204606F0EFF806F092
:1027C000EFF81EA9204601F083F82146284601F0C3
:1027D00009FA04E000251EA8FFF737F8E9E71EA86C
:1027E000FFF733F84D4B1D684FF49E7006F052FE14
:1027F00004462BAA474925A8FFF7C8FE08E0012593
:1028000025B14FF49E71204606F0C8F806F0C8F8CE
:1028100025A9204601F05CF82146284601F0E2F99E
:1028200004E0002525A8FFF710F8E9E725A8FFF741
:102830000CF83A4B1D684FF49E7006F02BFE0446D0
:1028400032AA35492CA8FFF7A1FE08E0012525B1E1
:102850004FF49E71204606F0A1F806F0A1F82CA9CD
:10286000204601F035F82146284601F0BBF904E086
:1028700000252CA8FEF7E9FFE9E72CA8FEF7E5FF05
:10288000264B1D684FF49E7006F004FE044639AADC
:10289000234933A8FFF77AFE08E0012525B14FF45C
:1028A0009E71204606F07AF806F07AF833A92046A1
:1028B00001F00EF82146284601F094F904E00025C5
:1028C00033A8FEF7C2FFE9E733A8FEF7BEFF134BBC
:1028D0001D684FF49E7006F0DDFD044640AA1149C4
:1028E0003AA8FFF753FE1FE0012525B14FF49E7172
:1028F000204606F053F806F053F800BF747E010836
:1029000000007F43D4920108A40A0020647C0108DF
:10291000980A00206C7C0108747C0108940A00204D
:10292000847C0108987C01083AA9204600F0D0FF79
:102930002146284601F056F904E000253AA8FEF7A2
:1029400084FFD2E73AA8FEF780FF204B1D684FF4C2
:102950009E7006F09FFD044647AA1D4941A8FFF757
:1029600015FE08E0012525B14FF49E71204606F0C2
:1029700015F806F015F841A9204600F0A9FF2146F8
:10298000284601F02FF904E0002541A8FEF75DFF7D
:10299000E9E741A8FEF759FF0E4B19680E4B18687E
:1029A00001F0E8FB49B030BD01257BE60125AEE62C
:1029B0000125E1E601250EE7012533E7012558E76A
:1029C00001257DE70125B9E70125DEE7940A00200E
:1029D000AC7C0108A40A0020A80A0020012800D02D
:1029E00070474FF6FF739942FAD110B5B2B0182074
:1029F00006F050FD0023036043608360C360036101
:102A00004361324B0360324B0360324B18604FF42A
:102A10009E7006F03FFD044624AA2F491EA8FFF72A
:102A2000B5FD1EA9204600F053FF2C4B1C601EA8CC
:102A3000FEF70BFF7824224629496846FEF7CAFABA
:102A4000CDF894D02694274C27AB782269462046AF
:102A5000FFF744FD244A2549204605F01BFF4FF4AB
:102A60009E7006F017FD04462EAA214928A8FFF7FC
:102A70008DFD1C492FA8FFF7B5FD2FAA28A92046D8
:102A800000F0E2FF1B4B1C602FA8FFF717FD28A8E2
:102A9000FEF7DBFE32B010BD1EA8FEF7D6FE4FF4E7
:102AA0009E71204605F07AFF05F07AFFF7E72FA820
:102AB000FFF704FD28A8FEF7C8FE4FF49E712046DC
:102AC00005F06CFF05F06CFFF4E7F6E7187D0108F0
:102AD000307D0108A80A0020C07C0108A40A00205B
:102AE000507B0108980A002000000020D124000833
:102AF000C87C0108940A002008B54FF6FF71012038
:102B0000FFF76CFF08BD000000487047A4010020DB
:102B100030B5354A0260354A4260354A8260354AEE
:102B2000C2603549016135494161354981613549A5
:102B3000C1610262012280F8242080F8252080F8FB
:102B4000262080F8272080F82820002280F82920DD
:102B50002D4CC4624FF0824202634FF0814CC0F8AA
:102B600034C04FF0834EC0F838E04FF07C51C16361
:102B7000C0F840C04FF080414164244D8564C56475
:102B800002654265224D8565C0F85CC0214D056631
:102B90004266214D8566C1660467204C4467204C1F
:102BA0008467C467C0F88020C0F884E0C0F888C09B
:102BB000C0F88C101B4CC0F89040C0F894101A4913
:102BC000C0F89810C0F89C101849C0F8A010C0F8C0
:102BD000A420082280F8A820154AC0F8AC20154A85
:102BE000C0F8B02030BD00BF0000AA4200008C42F7
:102BF000000082420000A0420000C8410000704175
:102C00000000C842000070420000A0400000F041F7
:102C10000000C040000090410000404100004040E2
:102C2000000010420000B44200002041000060415A
:102C3000147F01086887010838B504460D4601F085
:102C4000BFFC03685B6B2A462146984738BDF8B540
:102C500004460D46164601F0B3FC03685F6C33462C
:102C60002A462146B847F8BDF0B583B004460D4664
:102C700016461F4601F0A4FC0368089A01920097CB
:102C80001F6D33462A462146B84703B0F0BDF0B564
:102C900083B004460D4616461F4601F091FC0368BA
:102CA000089A019200979F6D33462A462146B847FD
:102CB00003B0F0BD10B5044601F082FC043003C837
:102CC00084E80300FFF720FF0146B42204F1080066
:102CD000FEF780F910BD2DE9F04104460E46036869
:102CE0001B68984794F82531B3BB94F830300BB388
:102CF000D4F82C51D4F8308108E055F8047B3368BF
:102D0000616D1868FDF79CFCC7F8C000A845F4D1B8
:102D10000023C4F8D8306079FDF744FDC4F8F00012
:102D2000C4F8F800A16F0020FDF78AFCC4F8E800A1
:102D3000BDE8F081D4F82C31D4F8300105E053F827
:102D4000042BD2F8C410C2F8C0109842F7D1D4F8BE
:102D5000DC30C4F8D830DEE7012BE9D194F831300B
:102D6000C3B1D4F82C51D4F8308108E055F8047B75
:102D70003368616C5868FDF763FCC7F8C800A84564
:102D8000F4D10023C4F8D0302079FDF70BFDC4F84E
:102D9000E000CDE7D4F82C31D4F8300105E053F849
:102DA000042BD2F8CC10C2F8C8109842F7D1D4F84E
:102DB000D430C4F8D030E7E708B503685B689847BB
:102DC00008BDD0F83031D0F82C01181AC0F38700B4
:102DD000704700002DE9F04F87B00446049190F849
:102DE00025312BB1012B00F08F8107B0BDE8F08FAA
:102DF0000430FFF75FFF0120FEF78EFCD4F82C6152
:102E0000D4F83031059324E056F8045BD5F8C0B00F
:102E1000049B1F68D5F818A1D4F85890D4F85480B2
:102E20007968206EFDF70EFC039039685846FDF76F
:102E300009FCCDF800A04B4642460399FFF714FF6A
:102E40002368DF68E368D5F8C42005F1C001204697
:102E5000B847059BB342D7D194F838010130FDF74C
:102E6000A5FC05462079FDF79DFC06462046FFF7A8
:102E7000A8FFFDF79BFC01463046FDF79FFD01468C
:102E80002846FDF7E7FCC4F8DC004FF00008A36F0C
:102E9000D4F8D820D4F8E8104046FEF76DFC626EF6
:102EA000D4F8F010A06EFEF75AFCA66E4FF07E51DB
:102EB000D4F8F000FDF7C6FB05464FF07E513046D2
:102EC000FDF7C0FB2946FFF7B7FEA66E4FF0804125
:102ED000D4F8F000FDF7B6FB05464FF080413046D0
:102EE000FDF7B0FB2946FFF7A7FEA66E4FF07E5117
:102EF000D4F8F000FDF7A4FB05464FF07E513046B4
:102F0000FDF7A0FB2946FFF797FEA66E4FF0804124
:102F1000D4F8F000FDF794FB05464FF080413046B1
:102F2000FDF790FB2946FFF787FE656E2079FDF7D8
:102F30003DFC2946FDF784FBD4F8F060A16EFDF757
:102F40007FFB2A463146FEF70AFC2779666E4FF072
:102F50007E51D4F8F000FDF775FB05463846FDF7C5
:102F600025FC3146FDF76CFB2946FFF765FE656ED3
:102F70002079FDF71BFC2946FDF762FB06464FF062
:102F80008041D4F8F000FDF75DFB05464FF07E511F
:102F90003046FDF755FB2946FFF74EFE2779666E52
:102FA0004FF07E51D4F8F000FDF74AFB0546384655
:102FB000FDF7FCFB3146FDF743FB2946FFF73CFEDE
:102FC000656E2079FDF7F2FB2946FDF739FB0646D1
:102FD0004FF08041D4F8F000FDF732FB05464FF08A
:102FE0007E513046FDF72CFB2946FFF725FEA74E04
:102FF0004FF08041D4F8F000FDF724FB0146324643
:10300000D4F89000FEF7ABFBD4F890A04FF08041CD
:10301000D4F8F000FDF716FB4FF08145DFF8709211
:103020002946FDF70DFB07464FF080415046FDF75E
:1030300009FB2B464A463946FEF79EFBD4F89070B2
:103040002079FDF7B3FB3946FDF7FAFA82464FF0D7
:103050008041D4F8F000FDF7F5FA074631465046B6
:10306000FDF7EEFA32463946FEF779FBD4F8907058
:103070002079FDF79BFB3946FDF7E2FA3146FDF773
:10308000DFFA07464FF08041D4F8F000FDF7DAFA96
:103090002946FDF7D5FA06464FF080413846FDF740
:1030A000D1FA2B464A463146FEF766FB2079FDF7FA
:1030B00079FB0246D4F8F8104046FFF7C8FD2146D8
:1030C00051F8F83BDD68E368D4F8FC202046A847B7
:1030D000214651F8F03BDD68E368D4F8F42020463F
:1030E000A847214651F8D83BDD68E368D4F8DC20D6
:1030F0002046A847214651F8E83BDD68E368D4F84C
:10310000EC202046A84770E60430FFF7D3FD0120ED
:10311000FEF702FBD4F82C71D4F830B127E057F851
:10312000045BD5F8C0A0049BD3F80080E16BD5F810
:10313000C800FDF787FA216CFDF784FA05F5807960
:10314000D8F80410FDF77EFA0646D8F8001050466D
:10315000FDF778FA4A463146FFF78CF82368DE68B7
:103160002369D5F8CC2005F1C8012046B047BB45FE
:10317000D5D194F838010130FDF718FB0546607988
:10318000FDF710FB06462046FFF71BFEFDF70EFB82
:1031900001463046FDF712FC01462846FDF75AFB72
:1031A000C4F8D400A66B00252079FDF7FFFA31465C
:1031B000FDF746FA32462946FEF7D1FA94F8048024
:1031C000A76B60790138FDF7F1FA06464046FDF736
:1031D000EDFA3946FDF734FA3A463146FEF7BFFAC2
:1031E00094F804804FF07C51A06BFDF733FBFDF7A2
:1031F000F3F80DF09DF806460F464046FDF7DAF865
:1032000032463B46FCF788FF804689466079FDF7E9
:10321000C9FA064640464946FDF7BEF932462946F8
:10322000FEF790FAD4F8D030A26B2946D4F8E0002B
:10323000FEF7A2FA94F8353093B9214651F8D03B05
:10324000DD682369D4F8D4202046A847214651F8E8
:10325000E03BDD682369D4F8E4202046A847C4E5B4
:103260000220FEF759FA26796079FDF79BFA0546A8
:103270003046FDF797FA024600202B460146FEF73E
:103280007BFA0120FEF748FAD7E700BF00001041A3
:103290000000A04090F83821D0F82C3153F82200DB
:1032A0007047D0F828017047F8B504460D46043041
:1032B000FFF700FDD4F8C03083F83851D4F8C0606F
:1032C00096F825313BBBD6F82C3153F82530D4F88D
:1032D00080703946D3F8C400FDF7B2F9C4F8C800CD
:1032E000D6F82C3153F825303946D3F8CC00FDF709
:1032F000A7F9C4F8D00065792846FDF753FAC4F859
:10330000DC00666F2846FDF751FA3146FDF798F963
:10331000C4F8E000F8BD012BFCD1D6F82C3153F8ED
:103320002530E16CD3F8C400FDF78AF9C4F8C80071
:10333000D6F82C3153F82530D3F8CC30C4F8D0303F
:10334000D6F82C3153F8250000F58070FEF7DBF934
:10335000FDF728FA0546206C0146FDF773F9014692
:103360002846FDF76FF9C4F8D800D3E741B108B596
:10337000C0F8C01091F83811FFF796FF012008BD82
:10338000002070472DE9F04383B004460D46043019
:10339000FFF790FC214651F8C43BDE686369D4F81E
:1033A000C8202046B047214651F8CC3BDE6863690F
:1033B000D4F8D0202046B047D4F8C03093F8253157
:1033C000002B40F03481214651F8DC3BDE68636914
:1033D000D4F8E0202046B0470120FEF79DF920797F
:1033E000FDF7E4F90646D4F8C03093F83821D3F855
:1033F0002C3153F8220000F58070FEF784F9FDF7B8
:10340000D1F901463046FDF71BF98046D4F8C030AB
:1034100093F83821D3F82C3153F8227007F58077D0
:10342000D4F88C10D4F8DC00FDF70CF906464FF008
:103430007C514046FDF70EFA3A463146FEF71AFF38
:103440000220FEF769F9D4F8C4902F68D4F87C8084
:103450007968D4F8CC00FDF7F5F806463968484697
:10346000FDF7F0F842463146FEF779F9D4F8C490FA
:10347000D5F80080D4F8CC604FF07E51E06FFDF7B6
:10348000E1F80746D8F804103046FDF7DBF80646A9
:10349000D8F800104846FDF7D5F83A463146FEF711
:1034A00051F9D4F8C4902F687968D4F8CC00FDF7AE
:1034B000C9F8D4F88810FDF7C5F8D4F87C804FF02F
:1034C0007E51FDF7BDF8064639684846FDF7BAF863
:1034D00042463146FEF743F9D4F8C490D5F800804F
:1034E000D8F80410D4F8CC00FDF7ACF8D4F8881064
:1034F000FDF7A8F8E76F3946FDF7A2F84FF07E51C7
:10350000FDF79EF80646D8F800104846FDF79AF8F1
:103510003A463146FEF716F92E683168D4F8C400F1
:10352000FDF790F8D4F88410FDF78CF8D4F87C807F
:103530004146FDF785F807467168D4F8CC00FDF7E1
:1035400081F806464FF07E513846FDF779F842463D
:103550003146FEF704F92E683168D4F8C400FDF74F
:1035600071F8D4F88410FDF76DF80746D4F87C8024
:103570007168D4F8CC00FDF765F806464FF07E512F
:103580003846FDF75DF842463146FEF7DBF82E6817
:103590003168D4F8C400FDF755F8D4F88410FDF76D
:1035A00051F8D4F87C804146FDF74AF80746716827
:1035B000D4F8CC00FDF746F8D4F88810FDF742F8AF
:1035C0004FF07E51FDF73CF806464FF07E513846ED
:1035D000FDF736F842463146FEF7C1F82E683168ED
:1035E000D4F8C400FDF72EF8D4F88410FDF72AF8BB
:1035F00005467168D4F8CC00FDF724F8D4F888109B
:10360000FDF720F8E66F3146FDF71AF84FF07E51CE
:10361000FDF716F804464FF07E512846FDF710F8E6
:1036200032462146FEF78EF803B0BDE8F083012B49
:10363000FAD1214651F8D43BDE68A369D4F8D820EA
:103640002046B0470220FEF767F8D4F8C4902F68F0
:10365000D4F8CC504FF07E51606CFCF7F1FF064679
:10366000D4F8D48079682846FCF7ECFF0546396821
:103670004846FCF7E7FFA36C0093334642462946D1
:10368000FFF705FB0120FEF747F8CDE770B50446CC
:103690000D46164680230371402343710F4B836010
:1036A0000C30FFF735FA0E4B23600E4B23600023DE
:1036B00084F8D03029460020FCF7C2FF0546C4F844
:1036C000C00031460020FCF7BBFFC4F8C400C4F8BA
:1036D000C850C4F8CC00204670BD00BF00007F4336
:1036E000187D0108D87D0108F8B504461646012367
:1036F00080F8D0300020FCF7A3FF0546214651F8A2
:10370000C83BDF68A36A02462046B847314600201E
:10371000FCF796FF0646214651F8CC3BDF68A36ACA
:1037200002462046B847D4F8C8102846FDF726FAC6
:1037300040B1D4F8CC103046FDF720FA10B1002388
:1037400084F8D030F8BD000070B504460D46244B17
:103750001B68BFF35B8F13F0010F2AD0012384F89D
:10376000D03065B11F4B1B78B5FBF3F203FB12524F
:1037700012F0FF0F31D1B5FBF3F3013BDDB26079FD
:1037800005FB00F0FDF712F8024600212046FFF786
:10379000ABFFD4F8CC60607905FB00F0FDF706F8CC
:1037A00001463046FDF7EAF910B1002384F8D03025
:1037B00070BD0B4805F02CFE0028CFD0666C6079F8
:1037C000FCF7F4FF3146FDF7F9F8FDF72FFA054B4A
:1037D0001870034805F03CFEC0E7B5FBF3F5CEE7F3
:1037E000C40A0020C80A0020F8B50446012380F866
:1037F000D0300846FCF7DAFF0546E16D606DFCF756
:1038000021FF014600262846FDF724F801463246EE
:103810002046FFF769FFD4F8C870E16D606DFCF7D2
:1038200011FF01462846FDF715F801463046FCF722
:1038300007FF01463846FDF7A1F910B1002384F8CF
:10384000D030F8BD08B591F82531012B01D02BB14E
:1038500008BD91F83811FFF777FFF9E791F83811B3
:10386000FFF7C2FFF4E703684068984214BF0020E6
:103870000120704770B505460C46024652F8080B09
:103880000B4653F8081B8B4210D082421BD0AE6807
:10389000296062686A60A268AA60B0B12060A66010
:1038A0000023636022681370284670BDA542F7D0DC
:1038B00062682AB963686B602A680021D154EFE717
:1038C000FEF7ECFDF6E70020E2E72360E8E7000002
:1038D00070B504460E4680230371402343712A4B82
:1038E00083600C30FFF714F9284B23602346284AE5
:1038F00043F8C02B0025C4F8C0505D609D60DD60BA
:103900003022294604F1D0000EF07CFE04F58473C9
:10391000C4F80031C4F8045184F80851C4F81851AF
:10392000C4F81C51C4F82051C4F82C51C4F83051CB
:10393000C4F83451314604F58070FFF79BFF012332
:1039400084F8243184F82551226CC4F8C020002367
:10395000C4F8C830C4F8C420C4F8CC3084F8385156
:10396000C4F82851D4F82C31D4F83021934201D036
:10397000C4F83031D4F81831D4F81C21934201D066
:10398000C4F81C31204670BD00007F43187D01083B
:10399000C07D010810B584B0844601914468036875
:1039A000E31A98106FF0604EAEEBA3038B4210D376
:1039B0000390814210D803AB1B681844DCF8003038
:1039C000E41AB0EBA40F09D3B0F1005F09D204B040
:1039D00010BD104606F0ECF901ABEDE76FF060406A
:1039E000F5E76FF06040F2E710B485B00023019373
:1039F00002930393046801944268029283680393DC
:103A0000D1F800C0C0F800C0D1F804C0C0F804C0AC
:103A1000D1F808C0C0F808C00C604A608B6005B0DF
:103A200010BC704710B584B00C460023019302937C
:103A30000393FFF7D9FF214601A8FFF7D5FF01A89F
:103A4000FEF73CFD04B010BD2DE9F04104460F46E1
:103A5000164680230371402343712A4B83600C3048
:103A6000FFF756F8284B23602346284A43F8C02B1B
:103A70000025C4F8C0505D609D60DD60302229469D
:103A800004F1D0000EF0BEFD04F58473C4F80031DB
:103A9000C4F8045184F8085104F58C78C4F818511E
:103AA000C4F81C51C4F82051C4F82C51C4F830514A
:103AB000C4F83451394604F58070FFF7DBFE4FF04F
:103AC000000231464046FFF7ADFF84F8245184F8E8
:103AD00025510023C4F8C030C4F8C830C4F8C4303D
:103AE000236EC4F8CC3084F83851C4F82851D4F887
:103AF0002C31D4F83021934201D0C4F83031204623
:103B0000BDE8F08100007F43187D0108C07D0108F9
:103B100008B50846910004F041FF08BD08B5B1F1B1
:103B2000005F03D2880005F0B5FC08BDB1F1804FFD
:103B300001D306F015F906F003F900002DE9F84F5E
:103B400005468A4693461E4A0121FFF723FFD5F812
:103B500000806F68AAEB0804814618B30022014672
:103B60002846FFF7DBFF0646DBF800303351002C18
:103B70001ADC04343444A7EB0A07002F1ADC3C4457
:103B8000AA68A2EB08029210B8F1000F03D04146D8
:103B90002846FFF7BDFF2E606C6006EB8906AE601D
:103BA000BDE8F88F0026DFE72246414630460EF09A
:103BB000ABFCDEE73A46514620460EF0A5FCDEE7B8
:103BC000FC7B010808B543688268934205D00A6807
:103BD0001A6043680433436008BD0A461946FFF77C
:103BE000ADFFF9E72DE9F04182B0019100297BD0CA
:103BF00004460D4600F596763046FFF734FE18B1C0
:103C000095F8243184F8253194F8252195F824314C
:103C10009A4203D0002002B0BDE8F081C5F82841E7
:103C200001A93046FFF7CEFF94F82531012B41D092
:103C300094F82531002B3BD126797608D4F85480AE
:103C40004FF07C514046FCF705FE05463046FCF738
:103C5000ADFD2946FCF7F4FC05462046FFF7B1F818
:103C6000471EE16D4046FCF7EDFC06463846FCF782
:103C70009DFD3146FCF7EEFD0146019E2846FCF70E
:103C8000E1FCC6F8C400236EC6F8CC300023C4F8AB
:103C9000EC306079FCF78AFD0546216FFCF7D0FC1B
:103CA000C4F8F400E16E2846FCF7CAFCC4F8FC0036
:103CB0000120B0E7019D236CC5F8C4302046FFF712
:103CC00080F8666C0138FCF771FD3146FCF7C2FDE7
:103CD000C5F8CC00A56B2079FCF768FD2946FCF7F8
:103CE000AFFCC4F8E400A3E7002094E72DE9F0411D
:103CF000571A0F4B9F4216D804460D461646B91068
:103D0000A1B10022FDF7D0FD206000EB0708C4F848
:103D10000880B54203D03A4629460EF0F5FBC4F8B8
:103D20000480BDE8F081034806F042F80020EBE78C
:103D3000FCFFFF7FC87B010810B582B0044602ABD0
:103D400003E90600002303604360836001EB820205
:103D5000FFF7CCFF04E02046FDF795FD04F020FEC0
:103D6000204602B010BD10B586B00446D1F8C83068
:103D70000393D1F8CC30049303AB01930223029355
:103D800005AB01AA06CAFFF7D7FF204606B010BD53
:103D9000004870475C02002008B500F011FC036881
:103DA000DB6A984708BDF0B583B004460D46164659
:103DB0001F4600F005FC0368089A019200971F6EE9
:103DC00033462A462146B84703B0F0BD2DE9F04FEF
:103DD0008DB00446059191463D4B1B68BFF35B8F48
:103DE00013F0010F40F03581394805F011FB002830
:103DF00000F02F81D4E904233649C1E90023344877
:103E000005F026FB25E10598FDF77DFCFCF7CEFCCF
:103E10000546FFF7BDFFD0F888000146FCF712FC0D
:103E200001462846FCF70EFC2B4B18602B4805F08A
:103E30000FFB26E1FFF7B0FFFCF7B8FC0546FFF7E4
:103E4000A7FFD0F888000146FCF7FCFB0146284696
:103E5000FCF7F8FB224B1860224805F0F9FA1DE147
:103E6000214805F0D5FA002800F020811C4B196884
:103E70000020FCF7E5FB4FF08241FCF7E1FB1B4B18
:103E80001860194805F0E4FA10E100F099FB407958
:103E9000FCF78CFC124B1968FCF7D2FB1449FCF7B9
:103EA0008DFD144B186019E100F08AFB0079FCF7D6
:103EB0007DFC094B1968FCF7C3FB4FF07C51FCF704
:103EC000C9FC0D4B18600D4805F0C2FA13E100BFA4
:103ED000F00A0020F80A0020EC0A0020E80A00207E
:103EE000E40A0020E00A0020D80A0020DC0A0020B2
:103EF00000004040D40A0020D00A0020CC0A002054
:103F000006A8FDF7C0FCA568E16809A8FFF72BFF2C
:103F100009A92846FFF736FA09A8FDF7B4FC61683D
:103F2000E068FFF78FFC0020FDF7F6FB864F4FF0AF
:103F300081413868FCF784FB0290844E4FF0814148
:103F40003068FCF77DFB8046DFF804A24FF0824129
:103F5000DAF80000FCF776FB0390DFF8F8B14FF0D9
:103F60008241DBF80000FCF76DFB0490FFF710FFC7
:103F700005464FF08041D0F88C00FCF763FB0090C1
:103F8000049B039A41460298FEF781FE0120FDF74B
:103F9000C3FB4FF08041DBF80000FCF753FB834686
:103FA0004FF08041DAF80000FCF74CFB82464FF0FE
:103FB0007E513068FCF744FB80464FF07E513868F4
:103FC000FCF73EFBD5F88C3000935B4652464146E9
:103FD000FFF7E9FED5F8888039684046FCF732FBE8
:103FE000074631684046FCF72DFB8046FFF7D4FEBC
:103FF000FCF7DCFB4146FCF725FB0146059A3846F9
:10400000FDF793FBFDF768FB2368DF68D5F8903078
:10401000514A126831462046B847226963694F48C1
:1040200001684068521A63EB00034A4573F10003CC
:104030000FD3484B19680020FCF702FB4FF0824178
:10404000FCF7FEFA3168FCF799FD10B1444B0022F1
:104050001A70434B1B78002B72D0236962690133BD
:1040600042F10002236162613E4B1B68BFF35B8F2C
:1040700013F0010F05D13B4805F0CAF900287FF481
:10408000C2AE394B1B68BFF35B8F13F0010F05D134
:10409000354805F0BDF900287FF4CCAE334B1B68E2
:1040A000BFF35B8F13F0010F3FF4DAAE226963694F
:1040B0002A4801684068521A63EB00034A4573F1CD
:1040C0000003FFF4E2AE234B19680020FCF7B8FAB6
:1040D0004FF08241FCF7B4FA1F4B1860244B1B6869
:1040E000BFF35B8F13F0010F05D1214805F090F964
:1040F00000287FF4D9AEFDF7F6FA6568E16806A8F6
:10410000FFF731FE06A92846FEF764FEF8E61548DB
:1041100005F09AF904F044FC134805F095F904F011
:104120003FFC134805F090F904F03AFC06A8FDF7AF
:10413000AAFB04F035FC09A8FDF7A5FB04F030FC50
:104140000DB0BDE8F08F00BFD00A0020DC0A0020CF
:10415000EC0A0020E40A0020D40A0020F80A00201B
:1041600058020020E80A0020E00A0020D80A0020B7
:10417000CC0A002070B584B005460E464160D420BC
:1041800005F088F9044600210A46FFF77FFAEC6043
:10419000214601A8FFF7E7FD01A93046FEF79BFD88
:1041A00001A8FDF770FBE42005F074F90446E42251
:1041B00000210EF027FA8023237140236371124BF4
:1041C000A36004F10C00FEF7A3FC104B2360104B1E
:1041D0002360AC6031462046FFF7C8F896F83811E6
:1041E000A868FFF761F80321A868FFF75DF804B03D
:1041F00070BDD421204604F0D1FB04F0D1FB01A80E
:10420000FDF741FB04F0CCFB00007F43187D010863
:10421000447E010830B593B004464068FFF73AF891
:10422000B0B16068FFF736F8FEF7CBFD00B3606809
:10423000FEF7C2FD6068FFF72DF805466060E16893
:104240000FA8FFF790FD0FA92846FEF744FD1FE0D9
:1042500007AA1F4901A8FEF799F94FF4167201A9A0
:104260002046FFF7B3FD01A8FDF7EFFA00201DE09F
:104270000EAA184908A8FEF789F94FF4167208A982
:104280002046FFF7A3FD08A8FDF7DFFA00200DE0A8
:104290000FA8FDF7F8FA6168A068FFF767F8636890
:1042A00093F83811A068FEF7FFFF012013B030BD6E
:1042B00001A8FDF7CAFA04F073FB08A8FDF7C5FAD8
:1042C00004F06EFB0FA8FDF7DEFA04F069FB00BFF7
:1042D000E87D0108FC7D010830B593B004464068D4
:1042E000FEF7DFFFB0B16068FEF7DBFFFEF769FDA8
:1042F00000B36068FEF760FD6068FEF7D2FF054618
:104300006060E1680FA8FFF72EFD0FA92846FEF7B1
:10431000E2FC1FE007AA1F4901A8FEF737F94FF496
:10432000167201A92046FFF751FD01A8FDF78DFA8D
:1043300000201DE00EAA184908A8FEF727F94FF43F
:10434000167208A92046FFF741FD08A8FDF77DFA7F
:1043500000200DE00FA8FDF796FA6168A068FFF74E
:1043600005F8636893F83811A068FEF79DFF0120F7
:1043700013B030BD01A8FDF768FA04F011FB08A8DE
:10438000FDF763FA04F00CFB0FA8FDF77CFA04F0CC
:1043900007FB00BFE87D0108FC7D010830B587B050
:1043A0000446FDF7A0F96568E1686846FFF7DBFCA5
:1043B00069462846FEF70EFD6846FDF764FAA568D3
:1043C000E16803A8FFF7CFFC03A92846FEF7DAFF50
:1043D00003A8FDF758FA6168E068FFF733FA23692C
:1043E0006269A3F5FA73134322D023696269A3F5C6
:1043F0007A73134320D023696269A3F2DC53134319
:104400001ED023696269A3F5FA6313431DD02369A3
:104410006269A3F6C41313431BD0FDF75DF923694A
:104420006269013342F100022361626107B030BD6D
:104430002046FFF7EFFED8E72046FFF74DFFDAE70B
:104440000221A068FEF730FFDBE72046FFF7E2FE1F
:10445000DDE72046FFF740FFDFE76846FDF713FA88
:1044600004F09EFA03A8FDF70EFA04F099FA000092
:1044700000B583B00A4B5A6942F001025A615B6988
:1044800003F001030193019B002211460F2002F06B
:10449000D1FF0F2002F0DEFF03B05DF804FB00BF88
:1044A0000010024070B588B000240494059406946E
:1044B0000794234B9A6942F020029A619A6902F0AC
:1044C00020020192019A9A6942F004029A619A6963
:1044D00002F004020292029A9A6942F008029A617A
:1044E0009B6903F008030393039B164D22460421A6
:1044F000284603F05CFA01221821284603F057FAF7
:10450000042304930126059602230693079304A926
:10451000284603F037F918230493059606960323DB
:10452000079304A9284603F02DF9C02304930594AA
:10453000069404A9284603F025F908B070BD00BF11
:104540000010024000080140704700207047002022
:1045500070470020704770477047704700207047D1
:10456000002070477047704770477047704770472A
:104570007047704770477047704770477047704783
:104580000020704700207047002070477047704738
:10459000704770477047002070477047014B0360B9
:1045A000704700BF747E010810B50446034B0360DA
:1045B000102104F0F3F9204610BD00BF747E0108FD
:1045C000014B1868704700BF240B002010B504464B
:1045D000FFF7F6FF0368D3F88C302146984710BDEB
:1045E00010B50024012C06DCE0B2FFF7EFFF034614
:1045F00010B90134F6E70023184610BD08B5FFF7DF
:10460000DFFF0368D3F89030984708BD10B5304BF2
:104610001B78022B0CD804465AB21ABB3BB9FFF7E1
:10462000EDFF78B900232B4A13702B4A137010BD8D
:10463000032BFCD1FFF7E2FF0028F8D1244B002226
:104640001A70F4E70020FFF7C1FF10B1204B0122E0
:104650001A700120FFF7BAFF0028E3D01C4B02229A
:104660001A70DFE7FFF7CAFF28B31B4B1B7813B99B
:10467000194B01221A70174A13780133DBB21370F9
:10468000642BD4D90020FFF7A1FF18B102232373B4
:10469000002363730120FFF799FF18B102236373AE
:1046A0000023237300230B4A13700B4A1370084B2B
:1046B00003221A70BBE7084B1B781BB1044B032283
:1046C0001A70B4E70023024A137063732373AEE7D2
:1046D000000B0020020B0020010B002010B5044647
:1046E000FFF78CFF70B10023012B09D8E218127B71
:1046F000012A04D0022A09D00133DBB2F4E713B94E
:104700000023A38110BD012BFAD0F5E7002BF7D0D1
:10471000012BF5D0F0E7000040B110B50446036866
:10472000DB689847024B1C60012010BD00207047D9
:10473000240B002070B506460C46083030600D464C
:1047400055F8083B9D420AD033608B68B3606368BC
:1047500073602560002363602372304670BD4A6831
:104760000132F4D02946FCF735FCF0E730B585B0CE
:104770008446019144680368E31ADB10114803FB87
:1047800000F0114D2D1A8D4213D30390814213D89E
:1047900003AA12681044DCF80030E41AE410094B54
:1047A00003FB04F4A04209D3074B984208D805B094
:1047B00030BD104605F0FCFA01AAEAE70248F6E728
:1047C0000148F4E7ABAAAAAA55555505F8B54568BE
:1047D0008D420AD007460E460C4603E02046FDF700
:1047E00034F81834A542F9D17E60F8BD08B5084602
:1047F00002EB4202D10004F0D1F808BD10B5044626
:1048000001688268521AD210034B03FB02F209B10D
:10481000FFF7ECFF204610BDABAAAAAA70B506466A
:104820000468456803E02046FDF70FF81834A542F8
:10483000F9D13046FFF7E2FF304670BD70B504464F
:104840000E46154608E021462846FFF773FF20462E
:10485000FCF7FBFF18341835B442F4D1284670BD7C
:1048600010B582B0044601AA0249FDF78FFE20462A
:1048700002B010BD547E010870B582B004460E46E9
:10488000551A01950F2D0DD800942A4631462068FF
:10489000FDF704FE00220092019B63602168CA5468
:1048A00002B070BD002201A9FDF736FE2060019B19
:1048B000A360E9E710B504460B4600F10802026068
:1048C00009685A684FF000030A44FFF7D5FF2046F5
:1048D00010BD000008B5084B994205D801EB410115
:1048E000C80004F0D7FD08BD044B994201D905F07A
:1048F00037FA05F025FA00BF55555505AAAAAA0AA8
:104900002DE9F84F044688469246274A0121FFF7D1
:104910002DFF2768D4F804B0A8EB0709054658B165
:10492000002201462046FFF7D5FF0646B144514616
:104930004846FFF7BFFF01E00026F7E7234632466F
:1049400041463846FFF77AFF234600F118025946E0
:104950004046FFF773FF8046A368DB1BDB10134A5A
:1049600003FB02F21FB139462046FFF73FFF2660E6
:10497000C4F8048005EB450506EBC505A560BDE858
:10498000F88F04F0D3F846B94846FCF75EFF04F010
:1049900007FD04F00BF904F003F82A4631462046DF
:1049A000FFF724FFF3E700BFFC7B0108ABAAAAAA2C
:1049B00010B504464068A368984205D0FFF77AFF17
:1049C00063681833636010BD0A4601462046FFF74E
:1049D00097FFF8E738B50C46434B1B68BFF35B8F76
:1049E00013F0010F28D0414B1B68BFF35B8F13F00E
:1049F000010F03D13D4804F00BFD58BB3C4B1B6835
:104A0000BFF35B8F13F0010F31D03A4A536811683E
:104A10005B1ADB10384A02FB03F3384A12789A42D9
:104A200032D921463348FFF7C3FFFCF75CFE022072
:104A3000FCF772FE00243DE02B4804F0E9FC00285E
:104A4000D1D02F4A2F492B4803F024FF264804F0E9
:104A5000FFFCC8E7FFF7B4FD4579FFF79DF9B5FB0B
:104A6000F0F5264B1D70214804F0F2FCC6E7204803
:104A700004F0CEFC0028C8D0FFF78EF9224B187046
:104A80001B4804F0E5FCC0E71A48FFF79FFEC8E7A3
:104A90001D4B1B7803FB044004EB440105EBC105EF
:104AA0001844FBF783FE01462A460020FCF73DFE32
:104AB0000134E4B20F4A536815685B1BDB100E49E2
:104AC00001FB03F39C42E3D3FCF706FE0120FCF755
:104AD00023FE38BD054804F0B7FC03F061FF04482D
:104AE00004F0B2FC03F05CFF140B00200C0B002060
:104AF000040B0020180B0020ABAAAAAA100B002060
:104B0000000000201D480008080B00207047704777
:104B1000704770477047704708B539B18021074822
:104B200002F03EFF003818BF012008BD40210348B5
:104B300002F036FF003818BF0120F6E700080140F8
:104B400008B502F029F908BD00B591B0282200216E
:104B500006A80DF057FD00230193029303930493DD
:104B60000593012206924FF4803307930A920222A2
:104B70000D920E934FF4E0130F9306A802F034FF4A
:104B800080B90F23019302210291002303934FF474
:104B900080620492059301A803F058F928B911B076
:104BA0005DF804FB01F06FFFEBE701F06CFFF6E747
:104BB00008B5FFF777FC08BD704708B501F0B8FFEE
:104BC00008BD08B5FFF754FC08BD08B5FCF70EFD9D
:104BD00008BD08B5084602F003F908BD08B502F0A3
:104BE000F9F808BD094B18684FF0E0225369926943
:104BF0009B1A074A12680749A1FB0212920CB3FBE9
:104C0000F2F34FF47A7202FB00307047CC0F0020B1
:104C10001003002083DE1B4310B50B4C204602F02E
:104C20009FFA3221204602F0EFF8204602F052FAB5
:104C300010F4007F02D1054B186810BD204602F029
:104C4000A5F9024B1860F6E7F4090020280B0020B4
:104C50002DE9F04F83B007460E4691461D46DDF81C
:104C6000308090F892A0CB18541CA4B200949BB250
:104C700000F0FFFF78B3BAFA8AFB4FEA5B1B01240E
:104C800014E087F892A00023009301234A4631469E
:104C9000384600F040FF0136B6B2640014F0FF045D
:104CA00002D108F101080124013DADB28DB198F89F
:104CB00000302342E5D197F89130002BEBD187F8F3
:104CC00092B0009301234A463146384600F023FF54
:104CD000E1E787F892A003B0BDE8F08F2DE9F04737
:104CE00082B08246884614461F46BDF828500B9E67
:104CF00003F10709C9F3CC0903EB010C53199BB26B
:104D000000931FFA8CF300F0B4FF60B90DE0009639
:104D10003B46224641465046FFF79AFF4E44013437
:104D2000A4B2013DADB2002DF1D102B0BDE8F087D3
:104D30002DE9F04182B080460F4614461E46BDF86C
:104D4000205001EB030C53199BB200931FFA8CF314
:104D500000F08FFF60B90DE000220092334622463A
:104D60003946404600F0D7FE0134A4B2013DADB251
:104D7000002DF1D102B0BDE8F0812DE9F04782B0FD
:104D800080460D4614461E46BDF82890CF18BFB287
:104D900002EB09039BB200933B4600F06AFF10B997
:104DA00002B0BDE8F087002300933346224629462F
:104DB000404600F0B0FEB9F1010FF1D9A9F10209A6
:104DC0001FFA89F90134A4B2B9F1000F08D1002308
:104DD0000093334622462946404600F09CFEDFE71A
:104DE0004FF0010ACDF800A04B4622462946404626
:104DF00000F091FE791ECDF800A04B46224689B204
:104E0000404600F088FEA1441FFA89F4DFE72DE94F
:104E1000F04F87B080460C469246BDF84060BDF822
:104E20004470039104931C44A4B29519ADB200954B
:104E3000234600F01EFF10B907B0BDE8F08F039ABB
:104E400002EB07091FFA89F90AEB070B1FFA8BFB24
:104E5000E41BA4B2013CA4B2ED1BADB2013DADB266
:104E6000022300933B465A464946404600F074FAF6
:104E7000012300933B465A462146404600F06CFA17
:104E8000042300933B462A464946404600F064FA14
:104E9000082300933B462A462146404600F05CFA30
:104EA000049BDB1B9BB2DB1B9BB209F101091FFAC0
:104EB00089F90BF1010B1FFA8BFB022B0FD8F61BA4
:104EC000B6B2F61BB6B2022EB6D9023EB6B2009604
:104ED000049B5A4603994046FFF72AFFACE7023B82
:104EE0009BB27C1CA4B200940593524649464046AE
:104EF000FFF71EFF0094059B2A4649464046FFF7F0
:104F000017FFDCE72DE9F04F85B007460C469046C9
:104F1000BDF838B0BDF83C60029103931C44A4B2C4
:104F200002EB0B05ADB20095234600F0A2FE10B9CE
:104F300005B0BDE8F08F029A02EB060A1FFA8AFA62
:104F400008EB06091FFA89F9A41BA4B2013CA4B21C
:104F5000AD1BADB2013DADB20223009333464A46CC
:104F60005146384600F0D4F90123009333464A46AF
:104F70002146384600F0CCF90423009333462A46F4
:104F80005146384600F0C4F90823009333462A46B8
:104F90002146384600F0BCF9039B9B1B9BB29B1B30
:104FA0009BB2ABEB0604A4B2A41BA4B20AF1010AA3
:104FB0001FFA8AFA09F101091FFA89F9022B16D89A
:104FC000022CB5D9023CA4B2039B5D1EADB22346B0
:104FD0004A46029E3146384600F00AFE31462944D0
:104FE00023464A4689B2384600F002FEA0E7023B5B
:104FF0009DB20BF1FF3B1FFA8BFB2B4642465146FD
:10500000384600F0EDFD08EB0B022B4692B25146FC
:10501000384600F0E5FDD3E710B582B003681B7C8D
:10502000446B03FB01F1C90089B20C4400940021D8
:1050300001F002F902B010BD2DE9F041064690F8EA
:10504000387090F83950036893F8118000242A468C
:1050500021463046FFF7E0FF0134E4B20135EDB2FE
:10506000A74201D9A845F2D8BDE8F08108B5036888
:105070001B7C90F8382003FB02F2D2000021406B29
:105080000DF0C0FA08BD10B50446FFF7D5FF204665
:1050900001F0F8F810BD2DE9F84380460F4691461F
:1050A0001C46BDF820609DF8245015F0010F0AD170
:1050B00015F0020F16D115F0080F24D115F0040FCA
:1050C00032D1BDE8F883B21A591892B289B200F011
:1050D00097FDF21B04EB090192B289B2404600F041
:1050E0008FFDE5E7A6EB0902E11B92B289B24046CB
:1050F00000F086FDF21BA4EB090192B289B2404692
:1051000000F07EFDD7E706EB0902E11992B289B201
:10511000404600F075FDBA1904EB090192B289B25C
:10512000404600F06DFDC9E706EB0902E11B92B2B3
:1051300089B2404600F064FDBA19A4EB090192B2AD
:1051400089B2404600F05CFDBBE72DE9F04F85B029
:105150000390894692461E469DF838B0C3F101047B
:1051600024B2C3EBC3384FEA48080FFA88F8CDF8E9
:1051700004B000920B4632460021FFF78CFF002559
:1051800001271AE0013EB6B208F102081FFA88F3BF
:105190000FFA88F823441CB20135ADB20237BBB216
:1051A0003FB223441CB2CDF804B0CDF800A04B466A
:1051B000324629460398FFF76EFFB54202D2002C13
:1051C000E0DAE9E705B0BDE8F08F2DE9F843804665
:1051D0000C4617461D46BDF820909DF8246016F039
:1051E000010F0AD116F0020F1BD116F0080F2DD1B6
:1051F00016F0040F3BD1BDE8F883531CA9EB020263
:1052000069189BB292B289B200F0F2FC631CA9EB60
:105210000402E9199BB292B289B2404600F0E8FC60
:10522000E0E77B1CA9EB0702291B9BB292B289B273
:10523000404600F0DDFC631CA9EB0402E91B9BB2B5
:1052400092B289B2404600F0D3FCCEE77B1C29190C
:105250009BB24A4689B2404600F0CAFC631CE91979
:105260009BB24A4689B2404600F0C2FCC0E77B1CB4
:10527000291B9BB24A4689B2404600F0B9FC631C28
:10528000E91B9BB24A4689B2404600F0B1FCB2E746
:105290002DE9F04F85B00390894692461E469DF851
:1052A00038B0C3F1010424B2C3EBC3384FEA480855
:1052B0000FFA88F8CDF804B000920B463246002170
:1052C000FFF783FF002501271AE0013EB6B208F17F
:1052D00002081FFA88F30FFA88F823441CB201353C
:1052E000ADB20237BBB23FB223441CB2CDF804B01A
:1052F000CDF800A04B46324629460398FFF765FFDC
:10530000B54202D2002CE0DAE9E705B0BDE8F08F43
:105310002DE9F04182B080460E4617461D46CB1857
:105320009BB2AC18A4B20133521B491B0134A4B286
:1053300000949BB292B289B200F09BFC10B902B00B
:10534000BDE8F0819DF8203000932B463A46314667
:105350004046FFF7FAFEF2E72DE9F04182B08046C1
:105360000E4617461D46CB189BB2AC18A4B20133AB
:10537000521B491B0134A4B200949BB292B289B271
:1053800000F077FC10B902B0BDE8F0819DF8203044
:1053900000932B463A4631464046FFF779FFF2E745
:1053A00008230370004870472C0B002030B585B0EF
:1053B00004460D4600931346084A094900F084FF4D
:1053C0000DF10F00FFF7ECFF01460095054B9DF82E
:1053D0000F20204600F045FD05B030BD4B600008B1
:1053E0008D6100089F5C0008405C70474218435C78
:1053F000507800EB032080B270470020704738B52A
:1054000004460D4600212846FFF7EEFF20700121DB
:105410002846FFF7E9FF607002212846FFF7E4FF06
:10542000A07003212846FFF7DFFFE0700421284623
:10543000FFF7DAFF207105212846FFF7D5FF6071DD
:1054400006212846FFF7D0FFA07107212846FFF765
:10545000CBFFE07108212846FFF7C6FF2072092123
:105460002846FFF7C1FF60720A212846FFF7BCFFFC
:10547000A0720B212846FFF7B7FFE0720C212846E7
:10548000FFF7B2FF20730D212846FFF7ADFF6073D1
:105490000E212846FFF7A8FFA0730F212846FFF72B
:1054A000A3FFE07310212846FFF79EFF207411210F
:1054B0002846FFF79BFF608213212846FFF796FFDF
:1054C000A08215212846FFF791FFE08238BD30B554
:1054D000024690F80CE00468207840FA0EF05FFA7B
:1054E00080FC0EEB0103DBB2072B0FD9CEF1080EC7
:1054F0005FFA8EFE651C156094F801C00CFA0EFC74
:105500004CEA000C5FFA8CFC083BDBB24FF0FF303A
:10551000884013732CEA000030BD38B5044600F112
:1055200060050166002380F86C3090F878102846FA
:10553000FFF7CDFF84F86A0094F879102846FFF74A
:10554000C6FF84F86B0094F8923084F86E30B3FA9A
:1055500083F35B0984F86F3038BD10B50C46FFF754
:10556000B6FF013CE4B20123A340C01A40B210BD13
:10557000012B08D0022B09D013B1401A80B270471A
:10558000104480B27047084480B27047801A80B2DD
:105590007047012B08D0022B09D013B1104480B200
:1055A0007047084480B27047801A80B27047401A32
:1055B00080B270472DE9F04F89B005468A460792C0
:1055C00090F968305FFA83FB90F96920D3B20393B6
:1055D00019E0CDF814A01FE095F86E3085F89230F0
:1055E0000097059B0699284600F095FAB2453CD3F2
:1055F000ABEB040454445FFA84FA039B0133DBB23F
:1056000003934FF0000B95F96A40E4B2A4EB0B064C
:10561000F6B2B245DDD30596B5F866904FFA8BF138
:105620009DF90C8095F870703B4642460491B5F8A0
:105630006400FFF7AEFF06903B4642460499484699
:10564000FFF796FF0246079B002BC5D195F86D30FA
:10565000002BCBD195F86F3085F892300097059BE1
:105660000699284600F057FAC0E70AEB0B0385F8C5
:10567000683085F8698009B0BDE8F08F2DE9F04FFA
:1056800085B0044600F16005FFF747FF94F96B70A1
:1056900094F87A102846FFF760FF804694F87B1054
:1056A0002846FFF75AFF064694F87C102846FFF775
:1056B00054FF039094F96A90B9F1000F55DD3E4410
:1056C000F6B2764276B294F870B05B463246414606
:1056D000B4F86400FFF75DFF8246A4F864005B46FF
:1056E00032464146B4F86600FFF742FF0246A4F88E
:1056F0006600BBF1030F68D8DFE80BF0023B495BA3
:105700001FFA89F353449BB2384480B2009051464B
:10571000204600F0AEFA40B3002384F8683084F8E5
:10572000693094F876102846FFF7D1FE804694F849
:1057300077102846FFF7CBFE06460022414620465A
:10574000FFF738FF012231462046FFF733FF0121E2
:105750002846FFF7BCFE0028EFD194F96930BB4220
:10576000DFDB94F86E3084F89230039805B0BDE822
:10577000F08FAAEB070189B201310AF101039BB254
:105780001FFA89F0104480B21FFA81FABEE71FFAAF
:1057900089F1AAEB010189B201310AF101039BB23F
:1057A000C61BB6B20136013080B2B2B21FFA81FA1E
:1057B000ACE70AEB07039BB21FFA89F1411A89B2E1
:1057C0000131013080B28AB2A0E753469EE770B53E
:1057D0000E46846D1734FF2913D8602903D9B0F819
:1057E00088301C4406E0402904D9B0F886301C44B7
:1057F00000E01C44637803B32278B242F9D1A01CC4
:105800001CE0B0F88A301C44254600212846FFF7EA
:10581000EDFD044402212846FFF7E8FD04358642E9
:10582000F3D801E0A3781C442278637853EA02237A
:1058300005D09E42F6D1E01C00E0002070BD0020A3
:10584000FCE710B50446A0F86410A0F866201946DD
:10585000FFF7BDFF28B101462046FFF70FFF80B2DA
:1058600010BD0020FCE738B50446FFF7B0FFB8B123
:1058700001462046FFF751FE04F1600594F87A10C6
:105880002846FFF76AFE84F8900094F87B102846BB
:10589000FFF763FE94F87C102846FFF75EFE38BDE4
:1058A0000020FCE72DE9F04104460D46002680F873
:1058B0006A6000F050FB6FF03F08374601E03E445D
:1058C000B6B263682978204698474FF6FF7398422E
:1058D0000FD001354FF6FE739842F2D001462046B4
:1058E000FFF7C1FF87B218F1400FE8D194F990801B
:1058F000E5E794F96A307BB1F71BBFB29BB23B443A
:105900009BB294F99060B6B21E44B6B2B8F1000FE3
:1059100002DDB0441FFA88F63046BDE8F08180F819
:105920006D107047F8B504460D4616461F4690F8B0
:105930007030032B07D8DFE803F0020D1217C36D98
:105940009847304486B23B46324629462046FFF708
:1059500078FFF8BDC36D9847281A85B2F3E7C36D89
:105960009847301A86B2EEE7C36D9847284485B24F
:10597000E9E700002DE9F04104460F4616461D46B2
:1059800000F0E9FA4FF0000804E00744BFB24044D9
:105990001FFA80F863682978204698474FF6FF720F
:1059A000904222D001354FF6FE729042F2D003466B
:1059B000324639462046FFF7B5FF94F87030032B86
:1059C000E5D801A252F823F08B590008D9590008F4
:1059D000DF590008E55900080644B6B2D7E73F1A78
:1059E000BFB2D4E7361AB6B2D1E74046BDE8F0817F
:1059F00010B5024C4460FFF7BDFF10BDA75E000864
:105A000010B5024C4460FFF7B5FF10BDBD5E000845
:105A1000836D73B390F9812080F88E2090F98230E5
:105A200080F88F3090F88D1019B3012914D000B58B
:105A300090F97E1090F980C001EB0C0E724505DAEA
:105A4000C9B25FFA8CF2114480F88E10634501DD13
:105A500080F88FC05DF804FB90F983108A4201DA68
:105A600080F88E1090F98420934202DD80F88F2018
:105A700070477047014BC365704700BFFB53000878
:105A8000836D8B4209D010B5044681657430FFF7F1
:105A9000B6FC2046FFF7BCFF10BD704708B5024BAF
:105AA0004360FFF7FFFE08BDBD5E000880F8701080
:105AB000704700B5B0F800E0B1F800C0F4441FFA38
:105AC0008CFCE64505D99E4513D203F1FF3C1FFA35
:105AD0008CFC9E450FD294450FD9964500D3724653
