:020000040800F2
:1000000000500020C5A20008DD860008DF86000839
:10001000E1860008E3860008E5860008000000008D
:10002000000000000000000000000000E78600085B
:10003000E986000800000000EB860008ED86000855
:100040000DA300080DA300080DA300080DA30008D0
:100050000DA300080DA300080DA300080DA30008C0
:100060000DA300080DA300080DA300080DA30008B0
:100070000DA300080DA300080DA30008F5860008D5
:100080000DA300080DA300080DA300080DA3000890
:100090000DA300080DA300080DA300080DA3000880
:1000A0000DA300080DA300080DA300080DA3000870
:1000B0000DA300080DA300080DA300080DA3000860
:1000C0000DA300080DA300080DA300080DA3000850
:1000D000058700080DA300080DA300080DA3000864
:1000E0000DA300080DA300080DA3000800000000E8
:1000F0000000000000000000000000000000000000
:0C01000000000000000000005FF808F1A3
:1001100081F0004102E000BF83F0004330B54FEAB8
:1001200041044FEA430594EA050F08BF90EA020F25
:100130001FBF54EA000C55EA020C7FEA645C7FEAB8
:10014000655C00F0E2804FEA5454D4EB5555B8BFDB
:100150006D420CDD2C4480EA020281EA030382EA4C
:10016000000083EA010180EA020281EA0303362DDE
:1001700088BF30BD11F0004F4FEA01314FF4801CB1
:100180004CEA113102D0404261EB410113F0004FC3
:100190004FEA03334CEA133302D0524263EB43037A
:1001A00094EA050F00F0A780A4F10104D5F1200E18
:1001B0000DDB02FA0EFC22FA05F2801841F1000173
:1001C00003FA0EF2801843FA05F359410EE0A5F147
:1001D00020050EF1200E012A03FA0EFC28BF4CF078
:1001E000020C43FA05F3C01851EBE37101F000452E
:1001F00007D54FF0000EDCF1000C7EEB00006EEB3B
:100200000101B1F5801F1BD3B1F5001F0CD34908C4
:100210005FEA30004FEA3C0C04F101044FEA44521B
:1002200012F5800F80F09A80BCF1004F08BF5FEAA2
:10023000500C50F1000041EB045141EA050130BD82
:100240005FEA4C0C404141EB0101013C28BFB1F594
:10025000801FE9D291F0000F04BF01460020B1FADF
:1002600081F308BF2033A3F10B03B3F120020CDAB2
:100270000C3208DD02F1140CC2F10C0201FA0CF090
:1002800021FA02F10CE002F11402D8BFC2F1200CF5
:1002900001FA02F120FA0CFCDCBF41EA0C019040AB
:1002A000E41AA2BF01EB0451294330BD6FEA0404F4
:1002B0001F3C1CDA0C340EDC04F11404C4F12002DF
:1002C00020FA04F001FA02F340EA030021FA04F3F1
:1002D00045EA030130BDC4F10C04C4F1200220FA48
:1002E00002F001FA04F340EA0300294630BD21FA86
:1002F00004F0294630BD94F0000F83F4801306BF4C
:1003000081F480110134013D4EE77FEA645C18BF3F
:100310007FEA655C29D094EA050F08BF90EA020FD6
:1003200005D054EA000C04BF1946104630BD91EACE
:10033000030F1EBF0021002030BD5FEA545C05D1D1
:100340004000494128BF41F0004130BD14F5800410
:100350003CBF01F5801130BD01F0004545F0FE4184
:1003600041F470014FF0000030BD7FEA645C1ABFB9
:10037000194610467FEA655C1CBF0B46024650EAF0
:10038000013406BF52EA033591EA030F41F400211C
:1003900030BD00BF90F0000F04BF0021704730B5A2
:1003A0004FF4806404F132044FF000054FF0000177
:1003B00050E700BF90F0000F04BF0021704730B538
:1003C0004FF4806404F1320410F0004548BF40420D
:1003D0004FF000013EE700BF42004FEAE2014FEA62
:1003E00031014FEA02701FBF12F07F4393F07F4F3D
:1003F00081F06051704732F07F4208BF704793F040
:100400007F4F04BF41F40021704730B54FF4607452
:1004100001F0004521F000411CE700BF50EA010255
:1004200008BF704730B54FF000050AE050EA0102FE
:1004300008BF704730B511F0004502D5404261EB6E
:1004400041014FF4806404F132045FEA915C3FF4AF
:10045000D8AE4FF003025FEADC0C18BF03325FEA4C
:10046000DC0C18BF033202EBDC02C2F1200300FAFD
:1004700003FC20FA02F001FA03FE40EA0E0021FA22
:1004800002F11444BDE600BF4FF0FF3C06E000BFA0
:100490004FF0010C02E000BF4FF0010C4DF804CD0D
:1004A0004FEA410C7FEA6C5C4FEA430C18BF7FEACD
:1004B0006C5C1BD001B050EA410C0CBF52EA430CFB
:1004C00091EA030F02BF90EA020F0020704710F17B
:1004D000000F91EA030F58BF994208BF90422CBF0A
:1004E000D8176FEAE37040F0010070474FEA410C03
:1004F0007FEA6C5C02D150EA013C07D14FEA430C21
:100500007FEA6C5CD6D152EA033CD3D05DF8040B91
:10051000704700BF8446104662468C4619466346C3
:1005200000E000BF01B5FFF7B7FF002848BF10F19A
:10053000000F01BD4DF808EDFFF7F4FF0CBF0120DF
:1005400000205DF808FB00BF4DF808EDFFF7EAFF5B
:1005500034BF012000205DF808FB00BF4DF808ED16
:10056000FFF7E0FF94BF012000205DF808FB00BF0B
:100570004DF808EDFFF7CEFF94BF012000205DF895
:1005800008FB00BF4DF808EDFFF7C4FF34BF0120A2
:1005900000205DF808FB00BF4A0011D212F50012DE
:1005A00011D20DD56FF47873B3EB62520ED44FEACB
:1005B000C12343F0004343EA505323FA02F070474B
:1005C0004FF00000704750EA013002D14FF0FF3089
:1005D00070474FF0000070474FEA4102B2F1E0432C
:1005E00024BFB3F5001CDCF1FE5C0DD901F0004C1A
:1005F0004FEAC0024CEA5070B2F1004F40EB83006A
:1006000008BF20F00100704711F0804F21D113F195
:100610003872BCBF01F00040704741F480114FEACE
:100620005252C2F11802C2F1200C10FA0CF320FA57
:1006300002F018BF40F001004FEAC1234FEAD32374
:1006400003FA0CFC40EA0C0023FA02F34FEA4303DE
:10065000CCE77FEA625307D150EA01331EBF4FF067
:10066000FE4040F44000704701F0004040F0FE4082
:1006700040F40000704700BF80F0004002E000BF7F
:1006800081F0004142001FBF5FEA410392EA030F7D
:100690007FEA226C7FEA236C6AD04FEA1262D2EBC7
:1006A0001363C1BFD218414048404140B8BF5B42CC
:1006B000192B88BF704710F0004F40F4000020F065
:1006C0007F4018BF404211F0004F41F4000121F07B
:1006D0007F4118BF494292EA030F3FD0A2F10102C5
:1006E00041FA03FC10EB0C00C3F1200301FA03F103
:1006F00000F0004302D5494260EB4000B0F5000F26
:1007000013D3B0F1807F06D340084FEA310102F1E4
:100710000102FE2A51D2B1F1004F40EBC25008BF96
:1007200020F0010040EA03007047490040EB000060
:10073000013A28BFB0F5000FEDD2B0FA80FCACF161
:10074000080CB2EB0C0200FA0CF0AABF00EBC2508E
:1007500052421843BCBFD0401843704792F0000F7C
:1007600081F4000106BF80F400000132013BB5E7CF
:100770004FEA41037FEA226C18BF7FEA236C21D045
:1007800092EA030F04D092F0000F08BF08467047AA
:1007900090EA010F1CBF0020704712F07F4F04D178
:1007A000400028BF40F00040704712F100723CBF8B
:1007B00000F50000704700F0004343F0FE4040F4B5
:1007C000000070477FEA226216BF08467FEA236373
:1007D0000146420206BF5FEA412390EA010F40F45E
:1007E000800070474FF0000304E000BF10F00043AA
:1007F00048BF40425FEA000C08BF704743F0964391
:1008000001464FF000001CE050EA010208BF7047AB
:100810004FF000030AE000BF50EA010208BF704732
:1008200011F0004302D5404261EB41015FEA010C47
:1008300002BF84460146002043F0B64308BFA3F13F
:100840008053A3F50003BCFA8CF2083AA3EBC25321
:1008500010DB01FA02FC634400FA02FCC2F1200240
:10086000BCF1004F20FA02F243EB020008BF20F077
:100870000100704702F1200201FA02FCC2F12002DD
:1008800050EA4C0021FA02F243EB020008BF20EAD2
:10089000DC7070474FF0FF0C1CEAD0521EBF1CEA00
:1008A000D15392EA0C0F93EA0C0F6FD01A4480EAEE
:1008B000010C400218BF5FEA41211ED04FF00063D7
:1008C00043EA501043EA5111A0FB01310CF0004003
:1008D000B1F5000F3EBF490041EAD3715B0040EA29
:1008E000010062F17F02FD2A1DD8B3F1004F40EBF9
:1008F000C25008BF20F00100704790F0000F0CF0CC
:10090000004C08BF49024CEA502040EA51207F3A8F
:10091000C2BFD2F1FF0340EAC250704740F400006A
:100920004FF00003013A5DDC12F1190FDCBF00F05B
:1009300000407047C2F10002410021FA02F1C2F109
:10094000200200FA02FC5FEA310040F1000053EAA5
:100950004C0308BF20EADC70704792F0000F00F0F3
:10096000004C02BF400010F4000F013AF9D040EAF9
:100970000C0093F0000F01F0004C02BF490011F48D
:10098000000F013BF9D041EA0C018FE70CEAD1538B
:1009900092EA0C0F18BF93EA0C0F0AD030F0004C0B
:1009A00018BF31F0004CD8D180EA010000F00040BF
:1009B000704790F0000F17BF90F0004F084691F07D
:1009C000000F91F0004F14D092EA0C0F01D14202B7
:1009D0000FD193EA0C0F03D14B0218BF084608D180
:1009E00080EA010000F0004040F0FE4040F40000CA
:1009F000704740F0FE4040F4400070474FF0FF0C5D
:100A00001CEAD0521EBF1CEAD15392EA0C0F93EAA3
:100A10000C0F69D0A2EB030280EA010C49024FEAF5
:100A2000402037D04FF0805343EA111143EA1013AE
:100A30000CF000408B4238BF5B0042F17D024FF466
:100A4000000C8B4224BF5B1A40EA0C00B3EB510F41
:100A500024BFA3EB510340EA5C00B3EB910F24BF2A
:100A6000A3EB910340EA9C00B3EBD10F24BFA3EBAF
:100A7000D10340EADC001B0118BF5FEA1C1CE0D177
:100A8000FD2A3FF650AF8B4240EBC25008BF20F02A
:100A9000010070470CF0004C4CEA50207F32C2BF7E
:100AA000D2F1FF0340EAC250704740F400004FF01B
:100AB0000003013A37E792F0000F00F0004C02BF4C
:100AC000400010F4000F013AF9D040EA0C0093F016
:100AD000000F01F0004C02BF490011F4000F013B70
:100AE000F9D041EA0C0195E70CEAD15392EA0C0FD8
:100AF00008D142027FF47DAF93EA0C0F7FF470AF10
:100B0000084676E793EA0C0F04D14B023FF44CAF52
:100B100008466EE730F0004C18BF31F0004CCAD1E7
:100B200030F000427FF45CAF31F000437FF43CAF23
:100B30005FE700BF4FF0FF3C06E000BF4FF0010C45
:100B400002E000BF4FF0010C4DF804CD4FEA400227
:100B50004FEA41037FEA226C18BF7FEA236C11D071
:100B600001B052EA530C18BF90EA010F58BFB2EB24
:100B7000030088BFC81738BF6FEAE17018BF40F0A4
:100B8000010070477FEA226C02D15FEA402C05D158
:100B90007FEA236CE4D15FEA412CE1D05DF8040BDD
:100BA000704700BF844608466146FFE70FB5FFF770
:100BB000C9FF002848BF10F1000F0FBD4DF808ED28
:100BC000FFF7F4FF0CBF012000205DF808FB00BF19
:100BD0004DF808EDFFF7EAFF34BF012000205DF873
:100BE00008FB00BF4DF808EDFFF7E0FF94BF0120C0
:100BF00000205DF808FB00BF4DF808EDFFF7D2FFBD
:100C000094BF012000205DF808FB00BF4DF808EDFF
:100C1000FFF7C8FF34BF012000205DF808FB00BFCC
:100C20004FEA4002B2F1FE4F0FD34FF09E03B3EBF9
:100C300012620DD94FEA002343F0004310F0004F39
:100C400023FA02F018BF404270474FF0000070478F
:100C500012F1610F01D1420205D110F0004008BF2E
:100C60006FF0004070474FF00000704742000ED216
:100C7000B2F1FE4F0BD34FF09E03B3EB126209D4D7
:100C80004FEA002343F0004323FA02F070474FF08D
:100C90000000704712F1610F01D1420202D14FF002
:100CA000FF3070474FF00000704700BF00F1340183
:100CB00091E838009C46A6464CF8045D90E8FF0F8A
:100CC000E54600BD90EC210B704700BF80EC210B86
:100CD000704700BF90EC200B704700BF80EC200BEA
:100CE000704700BFD0EC200B704700BFC0EC200B5A
:100CF000704700BFF0EC0201F0EC0211F0EC0221B1
:100D0000F0EC0231F0EC0241F0EC0251F0EC026147
:100D1000F0EC0271F0EC0281F0EC0291F0EC02A137
:100D2000F0EC02B1F0EC02C1F0EC02D1F0EC02E127
:100D3000F0EC02F1704700BFE0EC0201E0EC0211C0
:100D4000E0EC0221E0EC0231E0EC0241E0EC025187
:100D5000E0EC0261E0EC0271E0EC0281E0EC029177
:100D6000E0EC02A1E0EC02B1E0EC02C1E0EC02D167
:100D7000E0EC02E1E0EC02F1704700BFB0FC018161
:100D8000B0FC0191B0FC01A1B0FC01B1704700BF03
:100D9000A0FC0181A0FC0191A0FC01A1A0FC01B17B
:100DA000704700BFEC4600B52DE900502DE9FF1F4C
:100DB0004FF000032DE90C0001A911F0F1FADDF864
:100DC00040E012B0704700BFEC4600B52DE900507E
:100DD0002DE9FF1F4FF000032DE90C0001A911F0D0
:100DE0001FFBDDF840E012B0704700BFEC4600B5D5
:100DF0002DE900502DE9FF1F4FF000032DE90C00F5
:100E000001A911F02DFBDDF840E012B0704700BFE2
:100E1000EC4600B52DE900502DE9FF1F4FF000030F
:100E20002DE90C0001AB11F0EFFADDF840E012B053
:100E3000704700BFEC4600B52DE900502DE9FF1FBB
:100E40004FF000032DE90C0001AA11F067FBDDF85B
:100E500040E012B0704700BF80EA010C1CF0030FA5
:100E600037D110F0030C20F0030021F0030150F8FB
:100E7000042B08BF51F8043B0ED08CF0030C6FF02C
:100E80007F434FEACC0C23FA0CFC51F8043B42EAB6
:100E90000C0243EA0C0300BFA2F1013C9A4201BFDD
:100EA0002CEA020C1CF0803F50F8042B51F8043B54
:100EB000F2D04FEA02604FEA1222012828BFB0EBBD
:100EC000036F08BF1B0AF4D003F0FF03000EC01A23
:100ED000704710F0030F0AD010F8012B11F8013BF6
:100EE000012A28BF9A42F4D0A2EB030070474DF8C4
:100EF000045D50F8042B01F0030521F0030151F8C3
:100F0000043B022D26D04DD822F07F45B5EB132FA0
:100F1000A2F1013C2CEA020C0DD11CF0803C08BF70
:100F200051F8043B0AD185EA0205B5EB036F0CD1F9
:100F300050F8042BE8E74FEA13235BE03CF07F4CCA
:100F400054D10B784FEA126554E04FEA126503F072
:100F5000FF034FE04FEA0245A2F1013C4FEA15457D
:100F60002CEA020CB5EB134F18D11CF0803C08BFE3
:100F700051F8043B07D185EA0205B5EB034F09D1CF
:100F800050F8042BE6E75FEA0C4C2FD10B884FEAB0
:100F900012452FE04FEA03434FEA12454FEA13434D
:100FA00028E000BF02F0FF05B5EB136FA2F1013C92
:100FB0002CEA020C0DD11CF0803C08BF51F8043B18
:100FC0000AD185EA0205B5EB032F0AD150F8042BAC
:100FD000E8E74FEA13630DE012F0FF0F06D051F877
:100FE000043B4FEA122523F07F4303E04FF000005B
:100FF00020BC704705F0FF0203F0FF00012828BF66
:10100000904204BF2D0A1B0AF4D0A2EB000020BCC2
:10101000704700BF844641EA000313F0030349D13F
:10102000403A23D30B6803604B6843608B6883604E
:10103000CB68C3600B6903614B6943618B69836152
:10104000CB69C3610B6A03624B6A43628B6A83623A
:10105000CB6AC3620B6B03634B6B43638B6B836322
:10106000CB6BC36340304031403ADBD230320BD3DC
:101070000B6803604B6843608B688360CB68C36018
:1010800010301031103AF3D20C3205D351F8043B32
:1010900040F8043B043AF9D2043208D0D2071CBF0E
:1010A00011F8013B00F8013B01D30B880380604637
:1010B000704700BF082A13D38B07B1D010F0030389
:1010C000AED0C3F10403D21ADB071CBF11F8013BF9
:1010D00000F8013BA4D331F8023B20F8023B9FE724
:1010E000043AD9D3013A11F8013B00F8013BF9D297
:1010F0000B7803704B7843708B7883706046704731
:1011000070B54FF0FF0C4CF4E06C1CEA11541DBF9D
:101110001CEA135594EA0C0F95EA0C0F00F0DEF868
:101120002C4481EA030621EA4C5123EA4C5350EA4D
:10113000013518BF52EA033541F4801143F480139E
:1011400038D0A0FB02CE4FF00005E1FB02E506F02F
:101150000042E0FB03E54FF00006E1FB03569CF084
:10116000000F18BF4EF0010EA4F1FF04B6F5007F8A
:1011700064F5407404D25FEA4E0E6D4146EB0606FC
:1011800042EAC62141EA55514FEAC52040EA5E5085
:101190004FEACE2EB4F1FD0C88BFBCF5E06F1ED82F
:1011A000BEF1004F08BF5FEA500E50F1000041EB66
:1011B000045170BD06F0004646EA010140EA020013
:1011C00081EA0301B4EB5C04C2BFD4EB0C0541EA35
:1011D000045170BD41F480114FF0000E013C00F34A
:1011E000AB8014F1360FDEBF002001F0004170BD6E
:1011F000C4F10004203C35DA0C341BDC04F1140487
:10120000C4F1200500FA05F320FA04F001FA05F212
:1012100040EA020001F0004221F0004110EBD370DF
:1012200021FA04F642EB06015EEA430E08BF20EA0B
:10123000D37070BDC4F10C04C4F1200500FA04F3AE
:1012400020FA05F001FA04F240EA020001F0004140
:1012500010EBD37041F100015EEA430E08BF20EAB3
:10126000D37070BDC4F1200500FA05F24EEA020EFB
:1012700020FA04F301FA05F243EA020321FA04F02A
:1012800001F0004121FA04F220EA020000EBD370E1
:101290005EEA430E08BF20EAD37070BD94F0000FE1
:1012A0000FD101F00046400041EB010111F4801F15
:1012B00008BF013CF7D041EA060195F0000F18BFC6
:1012C000704703F00046520043EB030313F4801F02
:1012D00008BF013DF7D043EA0603704794EA0C0FBC
:1012E0000CEA135518BF95EA0C0F0CD050EA4106D2
:1012F00018BF52EA4306D1D181EA030101F000414F
:101300004FF0000070BD50EA410606BF1046194676
:1013100052EA430619D094EA0C0F02D150EA013682
:1013200013D195EA0C0F05D152EA03361CBF1046C3
:1013300019460AD181EA030101F0004141F0FE4162
:1013400041F470014FF0000070BD41F0FE4141F4E6
:10135000780170BD70B54FF0FF0C4CF4E06C1CEAE6
:1013600011541DBF1CEA135594EA0C0F95EA0C0F9B
:1013700000F0A7F8A4EB050481EA030E52EA033556
:101380004FEA013100F088804FEA03334FF0805577
:1013900045EA131343EA12634FEA022245EA1115A4
:1013A00045EA10654FEA00260EF000419D4208BF55
:1013B000964244F1FD0404F5407402D25B084FEA02
:1013C0003202B61A65EB03055B084FEA32024FF4AE
:1013D00080104FF4002CB6EB020E75EB030E22BF0B
:1013E000B61A754640EA0C005B084FEA3202B6EBCB
:1013F000020E75EB030E22BFB61A754640EA5C007A
:101400005B084FEA3202B6EB020E75EB030E22BF09
:10141000B61A754640EA9C005B084FEA3202B6EB0A
:10142000020E75EB030E22BFB61A754640EADC00C9
:1014300055EA060E18D04FEA051545EA16754FEA2B
:1014400006164FEAC30343EA52734FEAC2025FEA49
:101450001C1CC0D111F4801F0BD141EA00014FF0D8
:1014600000004FF0004CB6E711F4801F04BF0143A9
:101470000020B4F1FD0C88BFBCF5E06F3FF6AFAEC5
:10148000B5EB030C04BFB6EB020C5FEA500C50F155
:10149000000041EB045170BD0EF0004E4EEA1131D8
:1014A00014EB5C04C2BFD4EB0C0541EA045170BDDF
:1014B00041F480114FF0000E013C90E645EA060E23
:1014C0008DE60CEA135594EA0C0F08BF95EA0C0F51
:1014D0003FF43BAF94EA0C0F0AD150EA01347FF499
:1014E00034AF95EA0C0F7FF425AF104619462CE770
:1014F00095EA0C0F06D152EA03353FF4FDAE1046D3
:10150000194622E750EA410618BF52EA43067FF423
:10151000C5AE50EA41047FF40DAF52EA43057FF4B3
:10152000EBAE12E74FEA410C7FEA6C5C02D150EA65
:10153000013C0AD14FEA430C7FEA6C5C02D152EACB
:10154000033C02D14FF0000070474FF0010070479C
:101550004FEA410212F5001215D211D56FF47873DB
:10156000B3EB625212D94FEAC12343F0004343EA7E
:10157000505311F0004F23FA02F018BF4042704759
:101580004FF00000704750EA013005D111F00040E3
:1015900008BF6FF0004070474FF00000704700BF79
:1015A0000348044B834202D0034B03B118477047F2
:1015B0008809002088090020000000000548064B2B
:1015C0001B1AD90F01EBA301491002D0034B03B141
:1015D0001847704788090020880900200000000093
:1015E00010B5064C237843B9FFF7DAFF044B13B16B
:1015F0000448AFF300800123237010BDA009002030
:1016000000000000A497010808B5054B1BB105496F
:101610000548AFF30080BDE80840FFF7CFBF00BF2B
:1016200000000000A4090020A497010800B585B0BF
:1016300000230193029303931148124A02608360CE
:10164000037303754FF46022C26143600123036199
:1016500007F064FB68B91023019301230293002370
:10166000039301A9064807F0D3F928B905B05DF83E
:1016700004FB06F045FFEEE706F042FFF6E700BF89
:10168000BC090020002401400268094B9A4200D0A6
:10169000704782B003F56C439A6942F400729A6114
:1016A0009B6903F400730193019B02B0704700BF74
:1016B000002401400048704738000020F8B50D466E
:1016C00014461E460F6811463846FFF777FA50B9A0
:1016D00021463846FEF7D4FF20F000400C49FFF7C2
:1016E00077FA08B12C60F8BD39462046FEF7C8FFEE
:1016F000044631460748FEF7C3FF01462046FFF780
:101700007DF901463846FEF7BDFF2860EBE700BFD4
:101710009A99193E0000C84208B504F02FFC0368EE
:10172000DB69984708BD08B504F028FC03681B6A0C
:10173000984708BD10B5044604F020FC03685B6AB6
:101740002146984710BD10B5044604F017FC036805
:101750009B6A2146984710BD10B5044604F00EFC64
:1017600003681B6B2146984710BDF8B504460D462B
:10177000164604F003FC03689F6B33462A46214655
:10178000B847F8BDF8B504460D46164604F0F6FB1A
:1017900003689F6C33462A462146B847F8BDF8B522
:1017A00004460D46164604F0E9FB0368DF6C334639
:1017B0002A462146B847F8BDF0B583B004460D4629
:1017C00016461F4604F0DAFB036800975F6D334648
:1017D0002A462146B84703B0F0BD08B504F0CEFB59
:1017E00003685B6F984708BD10B584B084460191CB
:1017F00044680368E31A98106FF0604EAEEBA303E1
:101800008B4210D30390814210D803AB1B6818445D
:10181000DCF80030E41AB0EBA40F09D3B0F1005F9C
:1018200009D204B010BD10460AF03AF801ABEDE75A
:101830006FF06040F5E76FF06040F2E74068043811
:10184000704710B485B0002301930293039304689A
:1018500001944268029283680393D1F800C0C0F8F3
:1018600000C0D1F804C0C0F804C0D1F808C0C0F866
:1018700008C00C604A608B6005B010BC704708B5AA
:101880000846114608F0C8FD08BD08B5034653F8E0
:10189000081B994203D082680132FFF7F0FF08BDB0
:1018A00010B50446FFF7F1FF204610BD136801E0B4
:1018B00040F8043B8142FBD1704708B508469100CF
:1018C00008F0AAFD08BD10B5044601688268521AE6
:1018D00011B19210FFF7F1FF204610BD10B504467C
:1018E000FFF7F1FF204610BD08B5B1F1005F03D24C
:1018F000880006F0FBFD08BDB1F1804F01D309F06F
:10190000A7FF09F095FF38B504460D4641B1002206
:10191000FFF7EAFF2060606000EB8500A06038BD43
:101920000020F7E770B5B1F1005F0ED205460C4616
:1019300016460023036043608360FFF7E4FF2B68D3
:101940006CB103EB8404326804E0064809F0A8FF98
:1019500043F8042B9C42FBD16C60284670BD1C46AA
:10196000FAE700BFC097010870B584B005460C4681
:101970001646836800681B1AB1EBA30F09D8696883
:101980000B1AB4EBA30F11D86CB300EB84041368EB
:1019900022E02B4601A8FFF7C5FF294601A8FFF763
:1019A00050FF01A8FFF78FFF04B070BDFFF77EFF67
:1019B0006B682A689A1AB4EBA20209D003EB820280
:1019C000316801E043F8041B9A42FBD16A60EBE7FF
:1019D0001A46FBE740F8043B8442FBD16B68A34204
:1019E000E2D06C60E0E70446F8E700002DE9F84F2C
:1019F00005468A4693461E4A0121FFF7F5FED5F8B3
:101A000000806F68AAEB0804814618B300220146E3
:101A10002846FFF769FF0646DBF800303351002CFB
:101A20001ADC04343444A7EB0A07002F1ADC3C44C8
:101A3000AA68A2EB08029210B8F1000F03D0414649
:101A40002846FFF73AFF2E606C6006EB8906AE6011
:101A5000BDE8F88F0026DFE722464146304612F007
:101A60008BFBDEE73A465146204612F085FBDEE767
:101A7000F497010810B5044643688268934208D081
:101A80000A681A604368043343602046FFF7D6FEB5
:101A900010BD0A461946FFF7A9FFF6E72DE9F04FFA
:101AA00087B081462AE2B24809F048FA002800F0DF
:101AB0003682B04AB049B14808F02AFCAC4809F077
:101AC0005DFA2CE2AE4809F039FA002800F02F82C6
:101AD000A84AA949AB4808F01BFCA94809F04EFAEE
:101AE00025E2A94809F02AFA002800F02882A14A34
:101AF000A149A64808F00CFCA34809F03FFA1EE2F1
:101B0000A34809F01BFA002800F02182994AA14954
:101B1000A14808F0FDFB9E4809F030FA17E29F4803
:101B200009F00CFA002800F01A82924A99499C4860
:101B300008F0EEFB994809F021FA10E204F01EFAD1
:101B400004799548FFF7FFFD201A00EBD070401094
:101B5000FEF74CFE934B1860934809F00FFA12E21F
:101B600004F00CFA04798E48FFF7EDFD201A00EB23
:101B7000D0704010FEF73AFE8C4B18608C4809F08C
:101B8000FDF911E28B4809F0D9F9002800F018821C
:101B9000D5F8A0100020FEF773FD4FF07E51FEF740
:101BA0006FFD854B1860834809F0E8F908E2834827
:101BB00009F0C4F9002800F00B82D5F8A410002029
:101BC000FEF75EFD4FF07E51FEF75AFD7C4B18602C
:101BD0007A4809F0D3F9FBE17A4809F0AFF9002817
:101BE00000F0FE8104F0CAF94079C043FEF7FEFD23
:101BF000754B1860734809F0C1F9F1E15F4B1A6841
:101C00005B68934201D05D4B5A605E4B1A685B681B
:101C1000934201D05B4B5A605C4B1A685B689A42F6
:101C200001D05A4B5A60002669E0FFF7D6FDC0EBA1
:101C3000C00011F0F7FBD5F89C100020FEF720FD46
:101C40004FF07E51FEF71CFD029002A94B48FFF7B2
:101C500011FF11F0EFFB044604F090F990F80580B5
:101C6000D5F89C000146FEF70DFD07464046FEF7FD
:101C7000BDFD3946FEF704FD4FF08041FEF700FD43
:101C80004FF07E51FEF7FEFCFEF7F0FF80B294FBB2
:101C9000F0F300FB13400130FEF7A8FD039003A909
:101CA0003848FFF7E7FE11F0C5FB044604F066F97B
:101CB00090F80480D5F89C000146FEF7E3FC074647
:101CC0004046FEF793FD3946FEF7DAFC4FF08041BF
:101CD000FEF7D6FC4FF07E51FEF7D4FCFEF7C6FFB0
:101CE00080B294FBF0F300FB13400130FEF77EFD61
:101CF000049004A92548FFF7BDFE0136F6B295F819
:101D0000A830B34291D8314B01221A7075E104F02A
:101D100035F94079C043FEF769FD2D4B186095F801
:101D2000A840D5F89C100020FEF7AAFC4FF07E5189
:101D3000FEF7A6FC059005AA21461248FFF714FEFF
:101D4000D5F8A0100020FEF79BFC4FF07E51FEF767
:101D500097FC204B1860D5F8A4100020FEF790FCEB
:101D60004FF07E51FEF78CFC1B4B186062E100BF08
:101D7000480A002000000020DD1800084C0A00205E
:101D8000380A00203C0A0020280A00202C0A0020E3
:101D9000240A0020A11800081C000020200A0020AE
:101DA000040000201C0A0020180A0020140A002049
:101DB000100A0020080A00200C0A0020000A002057
:101DC000040A0020F0090020F40900205A0A00202B
:101DD000EC090020FC090020F8090020BA4F3B68FC
:101DE0004FEA840AD5F89C80414653F82400FEF758
:101DF00047FCB64E336853F824B04FF07E51FEF7DF
:101E00003FFC42465946FFF7CAFC3B683268D5F8AA
:101E10009CB052F824804FF0804153F82400FEF724
:101E200031FC5A464146FFF7BAFCD7F800B0336898
:101E3000D5F89C80414653F82400FEF721FC4FF072
:101E40007E51FEF71DFC014642465BF82400FFF779
:101E500099FC3F683368D5F89C804FF0804153F877
:101E60002400FEF70FFC0146424657F82400FFF716
:101E700089FC3168964B1A68AB6A52F824205144A9
:101E800001A8FFF71BFC0134E4B295F8A830A34287
:101E9000A4D8D5F8AC00FFF74DFC8E4E3168D5F8CC
:101EA000A000FEF7EFFB01468B4A8C4B1868FFF74A
:101EB0005CFCD5F8B000FFF73DFC894C2168D5F8F3
:101EC000A400FEF7DFFB0146864A874B1868FFF740
:101ED0004CFCAB6A854A1268314601A8FFF7EEFB5D
:101EE000AB6A834A1268214601A8FFF7E7FBFFF7B8
:101EF00013FC804B1B884B4580F0D5807E4B1B78B4
:101F0000002B00F024817B4A1388013313807B4B24
:101F10001B68BFF35B8F13F0010F3FF4C4AD784B28
:101F20001B68BFF35B8F13F0010F3FF4CBAD754B14
:101F30001B68BFF35B8F13F0010F3FF4D2AD724B00
:101F40001B68BFF35B8F13F0010F3FF4D9AD6F4BEC
:101F50001B68BFF35B8F13F0010F3FF4E0ADFFF799
:101F6000A9FB0546D0F8AC00FFF7E4FB684B1B6803
:101F7000BFF35B8F13F0010F05D1654808F0DEFF5A
:101F800000287FF4DBADD5F8B000FFF7D3FB614B41
:101F90001B68BFF35B8F13F0010F05D15D4808F09C
:101FA000CDFF00287FF4DCADD5F8B400FFF7C2FB0D
:101FB000594B1B68BFF35B8F13F0010F3FF4E2AD89
:101FC000564B1B68BFF35B8F13F0010F3FF4EFAD6F
:101FD000534B1B68BFF35B8F13F0010F3FF4FCAD55
:101FE000444B1B884B45BFF492AE4E4B00221A6007
:101FF0004D4B1B78002B3FF401AE03F0BFFF467939
:1020000076084FF07C51D5F8A000FEF743FC04465B
:102010003046FEF7EBFB2146FEF732FB334B1860F0
:10202000D5F8A410FEF72CFB4FF08141FEF728FBFA
:102030002F4B1860FFF777FB0020FFF78DFB3B4C21
:10204000D4F8008003F09AFF0079FEF7CBFB064638
:1020500003F094FF4079FEF7C5FB034600273246A4
:1020600041463846FFF7A8FBAB6A2E4A1268214664
:1020700001A8FFF723FB0120FFF76EFB03F07EFFB3
:102080004079FEF7B3FB2168FEF7FCFA044603F043
:1020900075FF0079FEF7A6FB024621463846FFF79A
:1020A0007EFB0024F1E603F069FF4079C043FEF7B0
:1020B0009DFB1E4B1968FEF781FD00283FF41EAF03
:1020C0000D4B00221A7019E72C0A00204C0A002040
:1020D0003C0A00200C0A00201C0000201C0A0020E2
:1020E000040A002004000020140A0020FC0900203B
:1020F000F8090020580A002034000020480A002077
:10210000380A0020280A0020240A0020200A002083
:10211000180A0020100A0020080A0020000A0020E7
:10212000F0090020EC0900205A0A0020F4090020E0
:10213000084808F01FFF08F0C9F9074808F01AFF1F
:1021400008F0C4F9054808F015FF08F0BFF907B01A
:10215000BDE8F08F180A0020100A0020F0090020C6
:1021600010B5044603F00AFF03689B6E21469847AA
:1021700010BD000008B5024B186803F0B7FDFAE780
:10218000680A002008B5012A03D022B1FEF742FFF9
:1021900001E00B78037008BD08B5081E02DB06F0ED
:1021A000A5F908BD09F044FB10B50B68002B0EDB48
:1021B000934206D95400B3EB420F02D20C60002CBC
:1021C00008DB096800220131FFF7E6FF10BD034874
:1021D00009F066FB6FF000430B60F2E7109801080E
:1021E00070B582B004460E46551A01950F2D0DD8D4
:1021F00000942A4631462068FFF7C4FF002200926F
:10220000019B63602168CA5402B070BD002201A91D
:10221000FFF7CAFF2060019BA360E9E738B500F132
:102220000803036069B104460D46084612F0ECF954
:102230004FF000032A1829462046FFF7D1FF204619
:1022400038BD014809F014FB28980108012800D086
:1022500070474FF6FF739942FAD110B58EB018202F
:1022600006F044F90023036043608360C3600361A8
:102270004361204B18604FF4B47006F037F9044600
:1022800006AA1D496846FFF7C9FF6946204602F0C5
:10229000ADFA1A4B1C606846FFF7F7FA4FF4B270BC
:1022A00006F024F904460DAA154907A8FFF7B6FF62
:1022B00007A9204602F026FA124B1C6007A8FFF778
:1022C000E4FA0EB010BD6846FFF7DFFA4FF4B471C0
:1022D000204608F0A1F808F0F9F8F7E707A8FFF79B
:1022E000D4FA4FF4B271204608F096F808F0EEF8F0
:1022F000F7E700BF680A00205C980108640A002024
:10230000649801085C0A002070B582B004460E464D
:10231000551A01950F2D0DD800942A463146206894
:10232000FFF730FF00220092019B63602168CA54CE
:1023300002B070BD002201A9FFF736FF2060019BAB
:10234000A360E9E708B5084602EB4202D10008F0B5
:1023500063F808BD10B5044601688268521AD210AD
:10236000034B03FB02F209B1FFF7ECFF204610BD5F
:10237000ABAAAAAA70B506460468456803E02046E1
:10238000FFF783FA1834A542F9D13046FFF7E2FF90
:10239000304670BD08B5084B994205D801EB4101A4
:1023A000C80006F0A3F808BD044B994201D909F012
:1023B0004FFA09F03DFA00BF55555505AAAAAA0AD9
:1023C00010B504460B4600F10802026009685A681D
:1023D0004FF000030A44FFF797FF204610BDF8B501
:1023E00004460E461746154601E018341835B44227
:1023F00013D021462846FFF7E3FFF6E708F02CF953
:10240000BD4205D108F062FD08F066F908F05EF8FB
:102410003846FFF73AFA1837F2E72846F8BD0000C9
:10242000F8B50E46551AE9100D4B03FB01F10D4BA3
:102430009D420FD80446174679B10022FFF7AAFF44
:10244000024622601544A56039463046FFF7C7FFB3
:102450006060F8BD044809F023FA0022F1E700BFEC
:10246000ABAAAAAAF8FFFF7FC097010810B582B0F7
:10247000044602AB03E90600002303604360836067
:1024800002EB420201EBC202FFF7CAFF04E0204662
:10249000FFF760FF08F01AF8204602B010BD0000F8
:1024A000F0B5F3B0A42006F021F80446B34B036066
:1024B0008023037140234371B14B836000218181EC
:1024C0008173B04B40F8103B942211F0D3FE2046AC
:1024D00003F00CFE4FF4AF70FFF742FE4FF47A703A
:1024E000FFF7DCFAA84B1D684FF4B27005F0FEFF51
:1024F000044609AAA54903A8FFF790FE08E00125B4
:1025000025B14FF4B271204607F086FF07F0DEFFD9
:1025100003A9204602F0F6F82146284601F010FFF4
:1025200004E0002503A8FFF7B0F9E9E703A8FFF7E7
:10253000ACF9954B1D684FF4B27005F0D7FF044617
:1025400010AA93490AA8FFF769FE08E0012525B102
:102550004FF4B271204607F05FFF07F0B7FF0AA9FA
:10256000204602F0CFF82146284601F0E9FE04E0BB
:1025700000250AA8FFF789F9E9E70AA8FFF785F916
:10258000814B1D684FF4B27005F0B0FF044617AAE6
:10259000804911A8FFF742FE08E0012525B14FF45C
:1025A000B271204607F038FF07F090FF11A92046CE
:1025B00002F0A8F82146284601F0C2FE04E00025FA
:1025C00011A8FFF762F9E9E711A8FFF75EF96E4B72
:1025D0001D684FF4B27005F089FF04461EAA6D49CC
:1025E00018A8FFF71BFE08E0012525B14FF4B271D2
:1025F000204607F011FF07F069FF18A9204602F0F6
:1026000081F82146284601F09BFE04E0002518A829
:10261000FFF73BF9E9E718A8FFF737F95E4C2168A7
:10262000594B186801F08CFE25684FF4B27005F024
:102630005DFF044601F0F0FF2146284601F080FED0
:10264000554B1E684FF4B27005F050FF044625AAA2
:1026500052491FA8FFF7E2FD08E0012525B14FF41C
:10266000B271204607F0D8FE07F030FF1FA92046C0
:1026700002F048F804E001251FA8FFF706F9EDE78E
:10268000E02005F033FF0546454902F011FD01E069
:102690000025F1E72A462146304601F0D1FE01E04F
:1026A0000025E9E71FA8FFF7F0F83B4B1E684FF441
:1026B000B47005F01BFF04462CAA3A4926A8FFF780
:1026C000ADFD08E0012525B14FF4B471204607F0B7
:1026D000A3FE07F0FBFE26A9204602F087F804E0DF
:1026E000012526A8FFF7D1F8EDE74FF48C7005F02F
:1026F000FDFE054633AA2C492DA8FFF78FFD0AE001
:102700000025EEE7012626B14FF48C71284607F02C
:1027100083FE0025E5E73FAA234939A8FFF77EFDA0
:1027200004E001262DA8FFF7B0F8ECE739AB3793AA
:102730000123389340AB37AA06CA34A8FFF796FEA8
:1027400009E001263FAF39AB9F42EBD0183F384636
:10275000FFF79BF8F7E7154B009334AB2DAA012147
:10276000284602F03DFF2A462146304601F068FE29
:102770001EE0002634A8FFF7FDFDE3E72C9C0108CE
:1027800000007F438CB00108640A002070980108A3
:1027900078980108809801085C0A00209098010848
:1027A000610A00209C980108AC980108600A00208A
:1027B00034A8FFF7DFFD3FAC39AB9C4204D0183C96
:1027C0002046FFF762F8F7E72DA8FFF75EF826A886
:1027D000FFF75BF89F4B1E684FF4B47005F086FE60
:1027E000044647AA9C4941A8FFF718FD08E00125C7
:1027F00025B14FF4B471204607F00EFE07F066FED7
:1028000041A9204601F0F2FF04E0012541A8FFF7AD
:102810003CF8EDE74FF48C7005F068FE05464EAAD3
:102820008E4948A8FFF7FAFC0AE00025EEE70126EA
:1028300026B14FF48C71284607F0EEFD0025E5E740
:10284000874B0193322300936423002248A9284632
:1028500002F016FD2A462146304601F0F1FD04E063
:10286000002648A8FFF711F8E2E748A8FFF70DF89F
:1028700041A8FFF70AF8774B1D684FF4B27005F0D6
:1028800035FE044655AA77494FA8FFF7C7FC08E074
:10289000012525B14FF4B271204607F0BDFD07F0C8
:1028A00015FE4FA9204601F02DFF2146284601F0D4
:1028B00047FD04E000254FA8FEF7E7FFE9E74FA832
:1028C000FEF7E3FF634B1D684FF4B27005F00EFE98
:1028D00004465CAA644956A8FFF7A0FC08E001255D
:1028E00025B14FF4B271204607F096FD07F0EEFDDA
:1028F00056A9204601F006FF2146284601F020FD9A
:1029000004E0002556A8FEF7C0FFE9E756A8FEF749
:10291000BCFF504B1D684FF4B27005F0E7FD044654
:1029200063AA51495DA8FFF779FC08E0012525B1AC
:102930004FF4B271204607F06FFD07F0C7FD5DA9A7
:10294000204601F0DFFE2146284601F0F9FC04E0B4
:1029500000255DA8FEF799FFE9E75DA8FEF795FF62
:102960003C4B1D684FF4B27005F0C0FD04466AAAE6
:102970003D4964A8FFF752FC08E0012525B14FF45A
:10298000B271204607F048FD07F0A0FD64A920467B
:1029900001F0B8FE2146284601F0D2FC04E00025F3
:1029A00064A8FEF772FFE9E764A8FEF76EFF294B03
:1029B0001D684FF4B27005F099FD044671AA2A49CA
:1029C0006BA8FFF72BFC08E0012525B14FF4B2718D
:1029D000204607F021FD07F079FD6BA9204601F0A4
:1029E00091FE2146284601F0ABFC04E000256BA8CF
:1029F000FEF74BFFE9E76BA8FEF747FF1B4B196893
:102A00001B4B186802F0E8FF73B0F0BD012589E5A3
:102A10000125AEE50125D3E50125F8E54FF4B271B6
:102A2000204607F0F9FC07F051FDE021284607F0A9
:102A3000F3FC002520E601269CE6012611E701258E
:102A400039E701255EE7012583E70125A8E7012590
:102A5000CDE700BF5C0A0020B4980108AC980108DB
:102A600004010020CC980108E4980108640A0020C1
:102A7000680A002008B54FF6FF710120FFF7E6FB5A
:102A800008BD0000004870470801002030B53C49EF
:102A900001603C4A42603C4A82603C4AC26002613A
:102AA0003B4C44613B4C84613B4CC4613B4C0462F5
:102AB00041628262012280F82C2080F82D2080F86B
:102AC0002E2080F82F20002280F83020DFF8D0E080
:102AD000C0F834E04FF0824282634FF08141C1631D
:102AE0004FF0834404644FF07C55456481644FF09B
:102AF000804CC0F84CC02B4D056545658265C265AC
:102B0000294D05664166294D8566C266284D0567D3
:102B1000C0F874C0C0F878E0264DC567DFF898E0CB
:102B2000C0F880E0C0F884E0C0F88820C0F88C408D
:102B3000C0F89010C0F894C0204CC0F89840C0F87D
:102B40009CC01F4CC0F8A040C0F8A420102480F8FE
:102B5000A8401C4CC0F8AC401B4CC0F8B040C0F8BA
:102B6000B440C0F8B820C0F8BC20C0F8C010174A64
:102B7000C0F8C4204FF07E52C0F8C82030BD00BF5E
:102B80000000A042000082420000504200008C423F
:102B900000005C420000C841000070410000C842D3
:102BA0000000A0400000F0410000C0400000904143
:102BB0000000404100004040000010420000B442CC
:102BC00000006041CC9C010820A5010800002041C4
:102BD000F8B504460D46164607683846FDF7EEFF81
:102BE000E0B929463846FDF74BFD20F000404FF094
:102BF0007E51FDF7F7FF90B939462846FDF740FDB5
:102C0000054631460748FDF73BFD01462846FDF7DE
:102C1000F5FE01463846FDF735FD2060F8BD25601C
:102C2000FCE700BF0000C84270B504460D461646DA
:102C300080230370402343700D4B43600830FFF73F
:102C400025FF29460020FDF71BFD0546C4F8D400EA
:102C500031460020FDF714FDC4F8D800C4F8DC505C
:102C6000C4F8E000C4F8E450C4F8E800204670BDA1
:102C700000007F4338B5044615460020FDF700FDEF
:102C8000C4F8E40029460020FDF7FAFCC4F8E80087
:102C900038BD70B5044616460020FDF7F1FC054628
:102CA000C4F8DC0031460020FDF7EAFCC4F8E0007F
:102CB000C4F8E450C4F8E80070BD38B504461546C1
:102CC000D0F8E400FDF7DCFCC4F8E4002946D4F8B1
:102CD000E800FDF7D5FCC4F8E80038BD70B504463F
:102CE0000E46016E806DFDF7CDFC05463046FDF7C2
:102CF0007DFD2946FDF7CEFD014600222046FFF767
:102D0000B9FF70BD10B50446C26AD0F8E410DC30DB
:102D1000FFF75EFFE26AD4F8E81004F1E000FFF785
:102D200057FF10BDF0B583B005460E4647680197C2
:102D3000084611F069FC04460090B8420AD301AB82
:102D40001A6828681AB1314611F0E6F900B9381B43
:102D500003B0F0BD6B46F3E738B505460C461449A1
:102D60002046FFF7DFFF28B112492046FFF7DAFFC0
:102D700078B138BDFFF786FE43786FF0090003FB9A
:102D800000F0FDF733FD024600212846FFF781FFE2
:102D9000EFE7FFF777FE03786FF0090003FB00F021
:102DA000FDF724FD014600222846FFF772FFE0E709
:102DB000FC9801080499010838B514460D1A884298
:102DC00004D02A460146204611F0D6F9601938BDD4
:102DD00038B515460C1A01D1281938BD22460146CE
:102DE000284611F0C9F9F7E7036803EB8103036094
:102DF000704703680B440360704708B508461146E6
:102E000007F00AFB08BD10B5044601688268521A33
:102E100009B1FFF7F2FF204610BD00002DE9F04197
:102E2000571A0F4B9F4216D804460D461646B91046
:102E3000A1B10022FEF758FD206000EB0708C4F89E
:102E40000880B54203D03A46294611F095F9C4F8F6
:102E50000480BDE8F081034808F022FD0020EBE784
:102E6000FCFFFF7FC097010810B582B0044602AB9B
:102E700003E90600002303604360836001EB8202E4
:102E8000FFF7CCFF04E02046FEF71DFD07F01EFB18
:102E9000204602B010BD10B586B00446D1F8DC3033
:102EA0000393D1F8E030049303AB01930223029320
:102EB00005AB01AA06CAFFF7D7FF204606B010BD32
:102EC00010B586B00446D1F8E4300393D1F8E83069
:102ED000049303AB01930223029305AB01AA06CA34
:102EE000FFF7C2FF204606B010BD70B514461D4660
:102EF00061B10022FEF7F8FC06462A1BAC4203D063
:102F00002146304611F038F9304670BD0026F4E70E
:102F10002DE9F04182B004460D461646571A8368E3
:102F2000D0F80080A3EB0803BB421AD2B910234BA0
:102F30009F4213D813462A46FFF7D7FF054621685C
:102F4000A268521A921011B12046FEF7B6FC256015
:102F50003D446560A56002B0BDE8F081184808F006
:102F60009FFC4168A1EB08039F420CD8954204D016
:102F70003A462946404611F0FFF847446368BB4291
:102F8000E9D06760E7E701950368C91A4FF00002CE
:102F9000891001A8FFF728FF226801992846FFF74A
:102FA0000BFF65680199771AB14203D03A4628466B
:102FB00011F0E2F83D446560CDE700BFFCFFFF7F04
:102FC000C097010810B586B084460023049305938A
:102FD00004AC0294022303936B4602AA92E8030016
:102FE00083E803004FF0000306AA21460CF1D80045
:102FF000FFF78EFF06B010BD38B514460D1A81429A
:1030000004D02A460146204611F0B6F8601938BDB2
:1030100008B5FFF7F1FF08BD08B5FFF7F9FF08BDD8
:1030200038B504460D4649682B68C91A0023036069
:10303000436083608910FEF766FC2268696828682F
:10304000FFF7EAFF6060204638BD08B5081E02DBC6
:1030500005F04CFA08BD08F0EBFB38B504460D4608
:1030600039B10022FFF7F1FF206060602844A060C2
:1030700038BD0020F8E770B515461C4639B100226E
:10308000FFF7E3FF0646621B03D1304670BD002602
:10309000F9E72946304611F06FF8F6E72DE9F041DF
:1030A00082B004460E461546571A8368D0F8008051
:1030B000A3EB08039F4218D9002F13DB13460A46DF
:1030C0003946FFF7D8FF05462168A268521A11B1A8
:1030D0002046FFF792FE25603D446560A56002B082
:1030E000BDE8F081164808F0DBFB4368A3EB08025B
:1030F00097420BD82FB947446368BB42EFD0676053
:10310000EDE73A46404611F037F8F4E701910168DF
:103110004FF00002591A01A8FFF76BFE22680199CF
:103120003046FFF755FE666801996D1A02D12E44AC
:103130006660D4E72A46304611F01EF8F7E700BF74
:10314000C097010810B586B084468DF814108DF82C
:10315000152005AC03940223049301AB03AA92E863
:10316000030083E803004FF000030DF1160221462F
:103170000CF5AC70FFF792FF06B010BD38B51546E0
:103180000C1A01D1281938BD22460146284610F0F4
:10319000F3FFF7E708B5FFF7F1FF08BD08B5FFF744
:1031A000F9FF08BD38B504460D4649682A68002372
:1031B000036043608360891AFFF74FFF22686968E4
:1031C0002868FFF7EBFF6060204638BD2DE9F0412D
:1031D0008CB005460C46464B1B68BFF35B8F13F063
:1031E000010F22D094F84531002B32D094F844815D
:1031F00004F5AC7631466846FFF7D4FF009B1F7894
:103200006846FFF700FEB8452CD394F84481314658
:1032100006A8FFF7C7FF069B5F7806A8FFF7F3FD38
:10322000B84542D80CB0BDE8F081314807F086FEC1
:103230000028D7D0AE6C6878FDF7D8FA3146FDF794
:10324000DDFBFDF713FD2B4B1870294807F096FEA8
:10325000C8E700210A462846FFF70CFD012384F841
:103260004531C3E794F84471314603A8FFF79AFF4C
:10327000039B1878AE6C381AFDF7B8FA3146FDF7A3
:1032800009FB024600212846FFF717FD03A8FFF7B8
:10329000BAFD94F84411174B1A780A44D2B2013A95
:1032A000D2B22046FFF74EFFBCE794F84471314696
:1032B00009A8FFF777FF099B5878AE6C381AFDF71D
:1032C00095FA3146FDF7E6FA024600212846FFF757
:1032D000F4FC09A8FFF797FD94F84421054B1978F1
:1032E000511AC9B20131C9B22046FFF72BFF99E745
:1032F0006C0A0020700A0020F0B593B005460C4619
:1033000091F8E430FBB923681B68214606A898476A
:103310002D4906A8FFF706FD064606A8FEF7B5FAF2
:10332000002E37D134B10023284A2949204607F01E
:1033300075F8044621462846FFF748FF2846FFF760
:10334000E1FC13B0F0BD01F1D80739466846FFF73C
:1033500067FE009B19680020FDF792F90646394682
:1033600003A8FFF75DFE039B59680020FDF788F96D
:10337000024631462846FFF77DFC03A8FEF7A3FA74
:103380006846FEF7A0FA002384F8E4302046FFF7F1
:1033900019FEB8E723681B6821460CA898470D4919
:1033A0000CA8FFF7BFFC06460CA8FEF76EFA002E2D
:1033B000C4D194F844112846FFF790FCBEE7684654
:1033C000FEF781FA07F082F8FC980108A499010839
:1033D000349901080499010800487047140100203D
:1033E0007047704770472DE9F04706468946D0F888
:1033F0002C31D0F83081002502E0C4F8F0003B1DEC
:103400001F46984524D01C68B36CC4F8E830C4F853
:10341000EC30D6F84CA02846FDF7E8F95146FDF708
:1034200039FAC4F8F4000135EDB2D4F82831D3F8F4
:103430002831002BE1D096F83930002BDFD0D9F8B5
:103440000030F16C5868FDF71BF9C4F8F000D6E7BE
:10345000BDE8F08770B504460579066C2846FDF78F
:10346000C5F93146FDF70CF9C4F8540194F8393028
:1034700043B10023C4F848312846FDF7B3F9C4F836
:10348000500170BDD4F84C31C4F84831F4E72DE94F
:10349000F04F83B004460191D0F82C31D0F830B110
:1034A000002603E0C5F8E8000AF104039A469B45AC
:1034B0003FD01D680023C5F8F03094F804804FEA2F
:1034C0005808D4F85C904FF07C514846FDF7E2F97B
:1034D00007464046FDF78AF93946FDF7D1F8074619
:1034E000616E4846FDF7CEF880463046FDF77EF91E
:1034F0004146FDF7CFF901463846FDF7C3F8C5F858
:10350000EC00A36EC5F8F4300136F6B2D5F82831D8
:10351000D3F82831002BC5D094F83830002BC3D015
:10352000019B1B68E16D1868FDF7AAF8C5F8E80073
:10353000BAE703B0BDE8F08F70B504460023C0F8C9
:10354000543146793046FDF751F90546A16FFDF734
:1035500097F8C4F85C01616F2846FDF791F8C4F84C
:10356000640194F838308BB10023C4F848313046F8
:10357000FDF738F9C4F85801C4F86001D4F8801098
:103580000020FDF77DF8C4F8500170BDD4F84C312F
:10359000C4F84831EBE708B502F0F0FC03681B699A
:1035A000984708BD08B502F0E9FC03685B699847D5
:1035B00008BD08B502F0E2FC03689B69984708BDA6
:1035C00038B504460D4602F0D9FC03685B6B2A4609
:1035D0002146984738BDF8B504460D46164602F018
:1035E000CDFC0368DF6B33462A462146B847F8BD59
:1035F000F8B504460D46164602F0C0FC03685F6C41
:1036000033462A462146B847F8BDF0B583B0044694
:103610000D4616461F4602F0B1FC0368089A019257
:1036200000971F6D33462A462146B84703B0F0BDC8
:1036300010B5044602F0A2FC043003C884E803007D
:10364000FFF7CAFE0146CC2204F10800FDF7E2FCB8
:1036500010BD000038B55C4B1B68BFF35B8F13F0E7
:10366000010F03D1584807F069FCB8B9FFF793FF81
:103670000446FFF7B1FE0546006AFDF7F7FAFEF7CC
:103680006FFD95F83030002B56D0504B1B78013B26
:10369000032B4DD8DFE803F01E2C3C4AFFF782FFD6
:1036A0000446FFF786FF00FB04F4E400484B1C705F
:1036B000454807F063FCD9E701339BB2444A1278CE
:1036C0009A4258D913F0010FF6D0E25C02F0AA0238
:1036D000E254F1E70023F1E701339BB23C4A127850
:1036E0009A4248D913F0010FF6D00022E254F3E7D2
:1036F0000023F3E701339BB2354A12789A423AD954
:1037000013F0010FF6D1E25C02F05502E254F1E74A
:103710000023F1E701339BB22D4A12789A422AD94D
:1037200013F0010FF6D10022E254F3E70023F3E790
:10373000264B00221A701EE0244B1B78013B032B02
:1037400039D8DFE803F0101D2D3601339BB2204A33
:1037500012789A420FD913F0010FF6D0E25C42F0D2
:10376000AA02E254F1E70023F1E701339BB2184AC1
:1037700012789A42F9D8154A13780133137038BD7C
:103780000023F4E701339BB2114A12789A42F2D92E
:1037900013F0010FF6D1E25C42F05502E254F1E77A
:1037A0000023F1E701339BB2094A12789A42F9D813
:1037B000E1E70023F8E7054B00221A70DBE7024837
:1037C00007F0D8FB06F082FE740A002010010020EA
:1037D000780A0020D0F83031D0F82C01181AC0F344
:1037E000870070472DE9F04F87B0044605910430FB
:1037F000FFF71EFF0120FDF7AFFFD4F82C61D4F8CE
:103800003031049322E056F8045BD5F8E8B0059B0C
:103810001F68D5F810A1D4F86090D4F85C8079685E
:10382000A06EFCF72FFF039039685846FCF72AFF7B
:10383000CDF800A04B4642460399FFF7E6FEE2684A
:10384000D5F8EC1005F1E800FFF7C2F9049BB3428C
:10385000D9D194F844010130FCF7C8FF054620791E
:10386000FCF7C0FF06462046FFF7B4FFFCF7BEFF9B
:1038700001463046FDF7C2F801462846FDF70AF832
:10388000C4F84C014FF00008D4F88030D4F8482137
:10389000D4F850114046FDF78FFFE26ED4F858116E
:1038A000206FFDF77CFF266F4FF07E51D4F8580152
:1038B000FCF7E8FE05464FF07E513046FCF7E2FE8D
:1038C0002946FFF77DFE266F4FF08041D4F858015E
:1038D000FCF7D8FE05464FF080413046FCF7D2FE9B
:1038E0002946FFF76DFE266F4FF07E51D4F8580140
:1038F000FCF7C6FE05464FF07E513046FCF7C2FE8F
:103900002946FFF75DFE266F4FF08041D4F858013D
:10391000FCF7B6FE05464FF080413046FCF7B2FE9C
:103920002946FFF74DFEE56E2079FCF75FFF29463B
:10393000FCF7A6FED4F85861216FFCF7A1FE2A46D9
:103940003146FDF72CFF2779E66E4FF07E51D4F813
:103950005801FCF797FE05463846FCF747FF31460D
:10396000FCF78EFE2946FFF72BFEE56E2079FCF76B
:103970003DFF2946FCF784FE06464FF08041D4F80F
:103980005801FCF77FFE05464FF07E513046FCF7AC
:1039900077FE2946FFF714FE2779E66E4FF07E5139
:1039A000D4F85801FCF76CFE05463846FCF71EFFBC
:1039B0003146FCF765FE2946FFF702FEE56E2079E9
:1039C000FCF714FF2946FCF75BFE06464FF08041EA
:1039D000D4F85801FCF754FE05464FF07E513046AE
:1039E000FCF74EFE2946FFF7EBFD434E4FF08041BA
:1039F000D4F85801FCF746FE01463246D4F8980048
:103A0000FDF7CDFED4F898A04FF08041D4F85801CE
:103A1000FCF738FE4FF08145DFF8E0902946FCF7CF
:103A20002FFE07464FF080415046FCF72BFE2B46F9
:103A30004A463946FDF7C0FED4F898702079FCF765
:103A4000D5FE3946FCF71CFE82464FF08041D4F883
:103A50005801FCF717FE074631465046FCF710FEAA
:103A600032463946FDF79BFED4F898702079FCF772
:103A7000BDFE3946FCF704FE3146FCF701FE074661
:103A80004FF08041D4F85801FCF7FCFD2946FCF7C3
:103A9000F7FD06464FF080413846FCF7F3FD2B4614
:103AA0004A463146FDF788FE2079FCF79BFE024628
:103AB000D4F860114046FFF79BFDE268D4F864112A
:103AC00004F5B070FFF784F8E268D4F85C1104F5EF
:103AD000AC70FFF77DF8E268D4F84C1104F5A470DF
:103AE000FFF776F8E268D4F8541104F5A870FFF7F0
:103AF0006FF807B0BDE8F08F000010410000A04053
:103B000090F84421D0F82C3153F822007047D0F8B7
:103B10002801704708B5FFF79DFD08BD10B50446A4
:103B20008023037140234371254B83600C30FEF7E3
:103B3000ADFF2246234B42F8D83B0023C4F8D830CF
:103B400053609360C4F8D830C4F8DC30C4F8E03077
:103B500084F8E430C4F8E830C4F8EC30C4F8F0304D
:103B6000C4F8F43004F58072C4F8F820C4F8FC30CE
:103B700084F80031C4F81031C4F81431C4F8183195
:103B8000C4F81C31C4F82031C4F82431C4F81C3105
:103B9000C4F82031C4F82431C4F82831C4F82C31D9
:103BA000C4F83031C4F83431C4F83831C4F83C3189
:103BB000C4F8403184F8443184F84531204610BDC2
:103BC00000007F43D499010803684068984214BFFD
:103BD0000020012070472DE9F04F85B004468A4649
:103BE0000430FFF725FD0120FDF7B6FDD4F82C3198
:103BF000D4F83021039244E057F8048BD4F8D06015
:103C00002079FCF7F3FD3146FCF73AFD0646D4F87F
:103C1000C490D4F8CC10D5F8F000FCF733FD019037
:103C200049463046FCF72CFD0146D8F80030DE68E6
:103C30005346019A4046B047BB45DDD1D5F8E890E0
:103C4000DAF80070616CD5F8F000FCF71BFDA16C90
:103C5000FCF718FD05F1F8087968FCF713FD064636
:103C600039684846FCF70EFD42463146FFF7B3FC83
:103C70002269D5F8F41005F1F000FEF7A9FF029BC8
:103C800004330293039A9A420BD01D6805F59C7089
:103C9000FFF79AFF0028D1D1D5F83871D5F83CB19B
:103CA000CAE794F844010130FCF7A0FD05466079AD
:103CB000FCF798FD06462046FFF78CFDFCF796FDC5
:103CC00001463046FCF79AFE01462846FCF7E2FD25
:103CD000C4F84C01266C00252079FCF787FD31469D
:103CE000FCF7CEFC32462946FDF759FD94F80480D6
:103CF000276C60790138FCF779FD06464046FCF7F1
:103D000075FD3946FCF7BCFC3A463146FDF747FDE8
:103D100094F804804FF07C51206CFCF7BBFDFCF75D
:103D20005BFB0EF075F806460F464046FCF742FB7B
:103D300032463B46FCF7F0F9804689466079FCF74D
:103D400051FD064640464946FCF746FC32462946A8
:103D5000FDF718FDD4F84831226C2946D4F85001FB
:103D6000FDF72AFD94F83C3083B92269D4F84C1150
:103D700004F5A470FEF72CFF2269D4F8541104F561
:103D8000A870FEF725FF05B0BDE8F08F0220FDF713
:103D9000E3FC26796079FCF725FD05463046FCF703
:103DA00021FD024600202B460146FDF705FD0120BE
:103DB000FDF7D2FCD9E710B584B084460191446880
:103DC0000368E31A6FF00040C01A88420ED30393D1
:103DD00099420ED803AA10681844DCF80030E41A9F
:103DE000844208D8002809DB04B010BD104607F053
:103DF00057FD01AAEFE76FF00040F5E76FF00040D4
:103E0000F2E710B584B08446019144680368E31A70
:103E100098106FF0604EAEEBA3038B4210D303906B
:103E2000814210D803AB1B681844DCF80030E41A58
:103E3000B0EBA40F09D3B0F1005F09D204B010BDFC
:103E4000104607F02DFD01ABEDE76FF06040F5E7A0
:103E50006FF06040F2E710B584B084460191446889
:103E60000368E31A98106FF0604EAEEBA3038B4229
:103E700010D30390814210D803AB1B681844DCF8C0
:103E80000030E41AB0EBA40F09D3B0F1005F09D2FF
:103E900004B010BD104607F003FD01ABEDE76FF075
:103EA0006040F5E76FF06040F2E710B485B00023A2
:103EB0000193029303930468019442680292836819
:103EC0000393D1F800C0C0F800C0D1F804C0C0F816
:103ED00004C0D1F808C0C0F808C00C604A608B600C
:103EE00005B010BC704708B5012A03D022B110F00C
:103EF00043F901E00B78037008BD10B584B00C469F
:103F00000023019302930393FFF7CFFF214601A8FB
:103F1000FFF7CBFF01A8FEF776FF04B010BD08B590
:103F200013780A1A00D108BD194610F0A3F9FAE770
:103F300008B50846910006F06FFA08BD10B50446B2
:103F400001688268521A11B19210FFF7F1FF204602
:103F500010BD08B50846910006F05EFA08BD10B520
:103F6000044601688268521A11B19210FFF7F1FFFE
:103F7000204610BD10B504460D4B036000F59C7043
:103F8000FFF7EDFF04F59670FFF7D8FF04F58E708C
:103F9000FEF739FF04F58870FEF735FF04F1F800ED
:103FA000FDF773FC04F1D800FDF78DFC204610BD31
:103FB000D499010810B582B0044601AA0249FEF75F
:103FC0002DF9204602B010BD4C99010810B582B001
:103FD000044601AA0249FEF721F9204602B010BDAD
:103FE0000499010810B582B0044601AA0249FEF7FF
:103FF00015F9204602B010BDFC9801082DE9F047E4
:1040000082B004460D4616469846DDF82890406872
:10401000471ABF1A4844801A0190234653F8082BC8
:10402000934217D0A26801A92046FEF7BDF8824648
:1040300095B9B8F1000F02D0B9F1000F11D1BFB995
:104040002046FDF722FCC4F800A0019BA36002B04B
:10405000BDE8F0870F22E6E72A462168FEF792F8CE
:10406000E7E74A4641460AEB0500FEF78BF8E6E72C
:1040700005EB0900216835443A4629445044FEF7CF
:1040800081F8DDE72DE9F04782B0044616460A9F25
:104090004068121A02F10042013A97422DD8984620
:1040A00007EB0009A9EB0609224652F8083B9A42A1
:1040B00026D0A268914566D803EB010A411A8D1BF0
:1040C00098451FD3034498451CD8BFBB0DB1BE42D1
:1040D0003CD1BE421AD208EB07020AEB06039A4211
:1040E0003CD9434540D8A8EB0A01BE1B31443A46AF
:1040F00051445046FEF746F808E0264807F0D0FB4A
:104100000F22D7E70DB1BE420AD18FB9C4F804908F
:104110002368002203F80920204602B0BDE8F0879A
:104120002A460AEB06010AEB0700FFF7DCFEECE784
:104130003A4641465046FEF725F8E7E7BE42C5D36A
:104140003A4641465046FFF7CEFEBFE72A460AEB05
:1041500006010AEB0700FFF7C6FEBAE73A464146FA
:104160005046FFF7C0FED1E7A3EB08052A464146BB
:104170005046FFF7B8FE7A1B0AEB07010AEB050071
:10418000FEF700F8C2E70097434632462046FFF7A5
:1041900035FFBBE75499010870B582B004460D465F
:1041A0004668084610F030FA00902B46324600214F
:1041B0002046FFF767FF02B070BD884228D0F0B5F7
:1041C00083B004460D464E68034653F8082B9342CD
:1041D00009D08268B24208D3A6B96660236800227B
:1041E0009A5503B0F0BD0F22F4E7019601A92046CD
:1041F000FDF7DAFF07462046FDF747FB2760019BE6
:10420000A360E9E7324629682068FDF7BBFFE4E7D1
:1042100070470000F8B5541A0CD405460E4664B138
:1042200000222146FEF711FF28600719AF6034B95C
:104230006F60F8BD044807F033FB0020F4E7224626
:1042400031460FF099FFF3E7C097010810B582B02F
:10425000044602AB03E90600002303604360836069
:104260000A44FFF7D7FF04E02046FEF7CCFD06F036
:104270002DF9204602B010BD08B5B1F1005F03D2A0
:10428000880004F033F908BDB1F1804F01D307F085
:10429000DFFA07F0CDFA00002DE9F84F05468A460F
:1042A00093461E4A0121FFF7ACFDD5F800806F68E8
:1042B000AAEB0804814618B3002201462846FFF7FE
:1042C000DBFF0646DBF800303351002C1ADC0434E7
:1042D0003444A7EB0A07002F1ADC3C44AA68A2EB7F
:1042E00008029210B8F1000F03D041462846FFF7AC
:1042F0001FFE2E606C6006EB8906AE60BDE8F88F8D
:104300000026DFE72246414630460FF035FFDEE764
:104310003A46514620460FF02FFFDEE7F49701089A
:1043200008B543688268934205D00A681A604368FA
:104330000433436008BD0A461946FFF7ADFFF9E7AD
:1043400070B582B00191B1B104460D4601F59C7083
:10435000FFF73AFC064610B9304602B070BDC5F80A
:10436000284101A904F59670FFF7DAFF23689B68DE
:1043700020469847F0E70026EEE708B5B1F1005F68
:1043800003D2880004F0B2F808BDB1F1804F01D328
:1043900007F05EFA07F04CFA2DE9F84F05468A4619
:1043A00093461E4A0121FFF756FDD5F800806F683D
:1043B000AAEB0804814618B3002201462846FFF7FD
:1043C000DCFF0646DBF800303351002C1ADC0434E5
:1043D0003444A7EB0A07002F1ADC3C44AA68A2EB7E
:1043E00008029210B8F1000F03D041462846FFF7AB
:1043F000B0FD2E606C6006EB8906AE60BDE8F88FFC
:104400000026DFE72246414630460FF0B5FEDEE7E4
:104410003A46514620460FF0AFFEDEE7F49701081A
:1044200008B543688268934205D00A681A604368F9
:104430000433436008BD0A461946FFF7ADFFF9E7AC
:1044400030B583B001929AB10C46FFF779FF05466B
:1044500010B9284603B030BD01A904F59C70FFF7E0
:10446000DFFF0198C0F8D84003685B689847F0E721
:104470000025EEE738B515460C1A01D1281938BDCC
:104480002246014628460FF077FEF7E708B5FFF70A
:10449000F1FF08BD08B5FFF7F9FF08BD08B5FFF744
:1044A000F5FF08BD38B515460C1A01D1281B38BDDB
:1044B00022460146281B0FF05FFEF7E7002A7DD059
:1044C0002DE9F04782B004460D461F461646816826
:1044D0004368C91A91423ED3009000238DF80430FE
:1044E0003B788DF804304768A7EB0508424515D3A3
:1044F000B2EB080628D13E4666602346324639466E
:104500002846FFF7C7FF63684344636001AA394642
:104510002846FFF704FD02B0BDE8F087A7EB0208CC
:1045200003463A4639464046FFF7B4FF63683344D2
:1045300063603A4641462846FFF7B4FF01AAA9192D
:104540002846FFF7ECFCE6E73E4401AA3146384630
:10455000FFF7E5FCD0E71A4A3146FFF72CFC236849
:10456000A5EB0309824630B3002201462046FEF740
:104570006CFD804608EB09003A468119FFF7CFFC35
:104580002346424629462068FFF788FF23468219C2
:1045900061682846FFF782FF05462168A268521A23
:1045A00011B12046FEF729FCC4F80080656008EBD5
:1045B0000A01A160AFE74FF00008DBE7704700BFDA
:1045C0007C99010808B58C4641680368A1EB030E8D
:1045D000F44506D8F44509D263448B4206D04360C3
:1045E00004E01346ACEB0E02FFF768FF08BD30B5E0
:1045F00083B0044601F58E75FF238DF807300DF169
:10460000070278212846FFF7DDFF29462046FEF7FE
:10461000C9FD204603B030BD10B588B00446FFF791
:104620007DFA364B23600023C4F84831C4F84C317E
:10463000C4F85031C4F854318DF80C306079FCF76F
:10464000D5F8E16CFCF7DAF94FF07E51FCF718F879
:10465000FCF70CFB8DF80D0003AB019302230293D2
:1046600004AB01AA06CA04F5AC70FFF7EFFD2449BC
:1046700004F1F800FFF790FD214605A8FFF7B7FF0A
:104680004FF0000205A904F58870FFF736FC05A875
:10469000FEF7B9FB002384F84431C4F82831D4F87C
:1046A0002C31D4F83021934201D0C4F83031D4F801
:1046B0003831D4F83C219A4201D0C4F83C3100236F
:1046C000C4F8E830C4F8EC30C4F8F030C4F8F43082
:1046D000C4F84831C4F84C31C4F85031C4F85431EE
:1046E000204608B010BD04F5AC70FEF78CFB2046E8
:1046F000FFF740FC05F0EAFEF9E700BFEC9901087E
:104700007099010830B589B004460D46FFF706FAE6
:10471000354B23600023C4F84831C4F84C31C4F849
:104720005031C4F854318DF80C306079FCF75EF8E4
:10473000E16CFCF763F94FF07E51FBF7A1FFFCF74A
:1047400095FA8DF80D0003AB01930223029304AB9D
:1047500001AA06CA04F5AC70FFF778FD294604F1FA
:10476000F800FFF72AFD214605A8FFF740FF4FF0AC
:10477000000205A904F58870FFF7BFFB05A8FEF746
:1047800042FB002384F84431C4F82831D4F82C319A
:10479000D4F83021934201D0C4F83031D4F8383104
:1047A000D4F83C219A4201D0C4F83C310023C4F82B
:1047B000E830C4F8EC30C4F8F030C4F8F430C4F891
:1047C0004831C4F84C31C4F85031C4F85431204653
:1047D00009B030BD04F5AC70FEF715FB2046FFF7BD
:1047E000C9FB05F073FEF9E7EC99010830B585B017
:1047F00004460D46FFF792F9224B23602022002148
:1048000004F5A4700FF036FD294604F1F800FFF717
:10481000D4FC214601A8FFF7EAFE4FF0000201A9EF
:1048200004F58870FFF769FB01A8FEF7ECFA002396
:1048300084F84431C4F82831D4F82C31D4F830212C
:10484000934201D0C4F83031D4F83831D4F83C2147
:10485000934201D0C4F83C310021C4F8E810C4F8F8
:10486000EC10C4F8F010C4F8F410202204F5A47081
:104870000FF000FD204605B030BD2046FFF77AFB63
:1048800005F024FE049A0108F0B583B004460D46F5
:1048900016461F4601F072FB0368089A01920097C2
:1048A0009F6D33462A462146B84703B0F0BD00004D
:1048B00070B58CB00446D0F8D4100B681B686846FD
:1048C000984741496846FEF72DFA05466846FCF7C9
:1048D000DCFFB5BBD4F8D45095F84421D5F82C3181
:1048E00053F82230D4F884603146D3F8EC00FBF75B
:1048F000C7FEC4F8DC0095F84421D5F82C3153F8F4
:1049000022303146D3F8F400FBF7BAFEC4F8E400D5
:1049100065782846FBF766FFC4F8F800A66F2846BE
:10492000FBF764FF3146FBF7ABFEC4F8FC00D4F89C
:104930008830C4F8EC30D4F88C30C4F8F4300CB0C3
:1049400070BDD4F8D4100B681B6806A898471F499F
:1049500006A8FEF7E7F9054606A8FCF796FF002D26
:10496000EDD1D4F8D45095F84421D5F82C3153F832
:104970002230216DD3F8EC00FBF782FEC4F8DC0096
:1049800095F84421D5F82C3153F82230D3F8F4307F
:10499000C4F8E43095F84421D5F82C3153F82200BE
:1049A000F830FCF7D0FEFBF71DFF0546606C0146B2
:1049B000FBF768FE01462846FBF764FEC4F8EC00EE
:1049C000A36CC4F8F430BAE704990108FC98010814
:1049D00038B504460D46FEF72BFED4F8D420D2F8A5
:1049E0003031D2F82C115B1A9B10013B9D4200D94B
:1049F00038BD82F844512046FFF75AFFF8E741B12D
:104A000008B5C0F8D41091F84411FFF7E1FF012078
:104A100008BD0020704710B50446D0F8D42092F8A5
:104A20004411D2F83031D2F82C219B1A9B10013B53
:104A3000994206D190F8363053B10021FFF7C8FFF4
:104A400003E00131C9B2FFF7C3FF2046FFF730FF93
:104A500010BD10B50446D0F8D43093F8441169B9AC
:104A600090F836208AB1D3F83011D3F82C31C91A16
:104A700089100139C9B2FFF7ABFF03E00139C9B2B0
:104A8000FFF7A6FF2046FFF713FF10BD2DE9F04307
:104A90008FB004460D46FEF7CBFD6269D4F8DC10FA
:104AA00004F1D800FEF794F82269D4F8E41004F178
:104AB000E000FEF78DF8E269D4F8F41004F1F0009C
:104AC000FEF786F8A269D4F8EC1004F1E800FEF7CE
:104AD0007FF8D4F8D4100B681B6802A89847CC491B
:104AE00002A8FEF71FF9064602A8FCF7CEFE9EB10B
:104AF000D4F8D4100B681B6808A89847C54908A8C3
:104B0000FEF710F9064608A8FCF7BFFE002E00F0DD
:104B100083810FB0BDE8F0832269D4F8FC1004F162
:104B2000F800FEF755F80120FCF716FE2078FBF799
:104B30005DFE0646D4F8D43093F84421D3F82C31E6
:104B400053F82200F830FCF7FEFDFBF74BFE014660
:104B50003046FBF795FD8046D4F8D43093F84421D5
:104B6000D3F82C3153F82270F837D4F89010D4F8D9
:104B7000F800FBF787FD06464FF07C514046FBF7F7
:104B800089FE3A463146FEF726FD0220FCF7E4FD99
:104B9000D4F8D8802F687968D4F8E000FBF772FD6C
:104BA000064639684046FBF76DFD3146FEF708FDC5
:104BB000D4F8D890D5F80080D4F8E0604FF07E515A
:104BC000D4F88000FBF75EFD0746D8F804103046A5
:104BD000FBF758FD0646D8F800104846FBF752FD93
:104BE0003A463146FCF7DBFDD4F8D890D5F8008082
:104BF000D4F8E0604FF07E51D4F88000FBF742FD1E
:104C00000746D8F804103046FBF73CFD0646D8F8B6
:104C100000104846FBF736FD3A463146FCF7B2FD38
:104C2000D4F8D890D5F80080D8F80410D4F8E00073
:104C3000FBF728FDD4F8F010FBF724FD06464FF0F3
:104C40007E51D4F88000FBF71DFD07464FF07E51E2
:104C50003046FBF715FD0646D8F800104846FBF72E
:104C600011FD3A463146FCF79AFDD4F8D890D5F8B4
:104C70000080D8F80410D4F8E000FBF703FDD4F866
:104C8000F010FBF7FFFCD4F880703946FBF7F8FC16
:104C90004FF07E51FBF7F4FC0646D8F8001048466A
:104CA000FBF7F0FC3A463146FCF76CFD2E683168A4
:104CB000D4F8D800FBF7E6FCD4F8E810FBF7E2FCE8
:104CC000D4F880804146FBF7DBFC07467168D4F8D6
:104CD000E000FBF7D7FC06464FF07E513846FBF765
:104CE000CFFC42463146FCF75AFD2E683168D4F8B5
:104CF000D800FBF7C7FCD4F8E810FBF7C3FC8046EC
:104D0000D4F8E0904FF07E51D4F88000FBF7BAFC65
:104D1000074671684846FBF7B5FC06464FF07E51E2
:104D20004046FBF7ADFC3A463146FCF72BFD2E68BA
:104D30003168D4F8D800FBF7A5FCD4F8E810FBF7ED
:104D4000A1FCD4F880804146FBF79AFC07467168C5
:104D5000D4F8E000FBF796FCD4F8F010FBF792FCD7
:104D60004FF07E51FBF78CFC06464FF07E513846E3
:104D7000FBF786FC42463146FCF711FD2E68316890
:104D8000D4F8D800FBF77EFCD4F8E810FBF77AFCE7
:104D900007467168D4F8E000FBF774FCD4F8F01013
:104DA000FBF770FCD4F880804146FBF769FC4FF0BC
:104DB0007E51FBF765FC06464FF07E513846FBF707
:104DC0005FFC42463146FCF7DDFC2E683168D4F8C2
:104DD000D800FBF757FCD4F8E810FBF753FC054666
:104DE0007168D4F8E000FBF74DFCD4F8F010FBF745
:104DF00049FC4FF07E51FBF743FC04464FF07E51D7
:104E00002846FBF73DFC2146FEF7DAFB81E600BFB2
:104E100004990108FC9801080220FCF79DFCD4F8D5
:104E2000D8902F68D4F8E0504FF07E51D4F8F000BD
:104E3000FBF726FC0646D4F8E88079682846FBF79D
:104E400021FC054639684846FBF71CFCE36C0093DF
:104E5000334642462946FFF717FD0120FCF77CFC4C
:104E600057E600BF704770477047704790F8DC30D6
:104E70001BB1012380F8DD307047002380F8DD305E
:104E80007047704770477047704708B5E02105F0DC
:104E9000C3FA08BD00000000F8B5044601F06EF842
:104EA0000079FBF787FA1AA3D3E90023FCF728F966
:104EB0000DF02EF8FBF770FBC6B284F8106194F881
:104EC000DC0094F81171C01BFBF790FC054694F8C8
:104ED0001201C01BFBF78AFC01462846FBF78EFD3A
:104EE00005463046FBF782FC2946FBF7D3FC0DF064
:104EF00093F8C4F8F40008492846FBF7CBFC0DF002
:104F0000CFF8FBF7B3FE84F81401F8BDAFF30080CF
:104F1000333333333333E33F0000C040F0B583B065
:104F200004460D4616461F4601F028F80368089A05
:104F3000019200971F6E33462A462146B84703B0B8
:104F4000F0BD2DE9F04F83B004460E4615461F46CE
:104F50000430FEF76DFB0120FCF7FEFBD7F8009054
:104F6000D4F8C8B0D4F8C4A0D9F804102846FBF788
:104F700089FB8046D9F800103046FBF783FBD4F854
:104F8000D43000935B4652464146FFF7C7FF94F882
:104F9000DD3013B903B0BDE8F08FD7F80080D8F842
:104FA00000103046FBF76EFB0646D4F8C4A04FF065
:104FB0007A515046FBF76EFC0746D8F80410284695
:104FC000FBF760FB8146D4F8C8504FF07A51284671
:104FD000FBF760FC04464FF07C512846FBF75AFC77
:104FE00080464FF07C515046FBF754FC0546214665
:104FF0004846FBF747FB044639463046FBF742FB81
:1050000043462A462146FCF7D7FBC3E72DE9F04388
:1050100083B004460E4615461F460430FEF708FBD3
:105020000120FCF799FBD7F80090D9F80010304622
:10503000FBF728FB8046D9F804102846FBF722FB33
:105040004FF07E51FBF71CFB81464FF07E514046EE
:10505000FBF716FB4FF07E58CDF800804FF08243EF
:10506000124A4946FFF75AFF3F6839683046FBF756
:1050700009FB064679682846FBF704FB074694F8C7
:105080001401FBF7AFFB054641463846FBF7FAFA39
:10509000044641463046FBF7F5FA4FF081432A4675
:1050A0002146FCF789FB03B0BDE8F08300002041F6
:1050B00038B504460D4680230371402343710D4BE0
:1050C00083600C30FDF7E2FC0B4B23600023C4F837
:1050D000D83084F8DC30094B23602B7884F8DC303E
:1050E00023B1012384F8DD30204638BD002384F845
:1050F000DD30F9E700007F43C09A0108DC9A01081F
:1051000000B5034601FB01FC0CFB01FE0EFB01F2A6
:10511000012099420AD8634507D3734508D39342C7
:1051200008D3B3FBF2F30430F3E701305DF804FB7E
:105130000230FBE70330F9E710B5013919E0154BF0
:10514000A3FB023C4FEA5C13642404FB13234FEAE5
:10515000430E4FEA5C120EF1010C0F4C14F80CC018
:1051600000F801C001F1FF3C14F8133000F80C30D6
:105170000239632AE3D8092A08D9530001330649C2
:10518000CB5C437011F81230037010BD30320270E6
:10519000FBE700BF1F85EB51289B010808B50B46B4
:1051A0001146012B04D023B11A460FF063F800E03A
:1051B000027008BD10B50446054B40F8F83BFCF7FB
:1051C00064FB4FF48C71204605F026F910BD00BF3A
:1051D000149B010838B504460D4603E02046FCF751
:1051E00054FB1834AC42F9D138BD000010B5044668
:1051F000054B036000F58470FDF7BCF804F1F00086
:10520000FCF743FB204610BDF89A010810B5044690
:10521000FFF7ECFF4FF48C71204605F0FDF810BD50
:1052200010B582B0044601AA0249FCF7F7FF2046F8
:1052300002B010BD149A010810B582B0044601AA4C
:105240000249FCF7EBFF204602B010BD1C9A010892
:1052500010B582B0044601AA0249FCF7DFFF2046E0
:1052600002B010BD249A010810B582B0044601AA0C
:105270000249FCF7D3FF204602B010BD2C9A01086A
:105280002DE9F04104460F4616461D468023037162
:1052900040234371224B83600C30FDF7F7FB214B19
:1052A00023600020C4F8D80084F8DC00A4461E4B1C
:1052B0004CF8E03BC4F8E000CCF80400CCF808005F
:1052C000CCF80C00CCF81000CCF8140004F1F8086D
:1052D00004F58073C4F8F830C4F8FC0084F80001C9
:1052E00039464046FEF769FF04E04046FCF7CDFA38
:1052F00005F0ECF8002184F8101184F8116184F8AD
:1053000012519DF8183084F81331079B1B7884F8EC
:10531000DC3084F81411C4F8D8102046BDE8F081C0
:1053200000007F43C09A0108149B010830B583B088
:105330000446019115460F2908D8019971B9019BBE
:10534000636022680021D15403B030BD002201A95E
:10535000FCF72AFF2060019BA360EEE72A46206845
:10536000FFF71CFFEBE7F8B50546CF0F002915DB6B
:105370000C460A212046FFF7C3FE064605F1080346
:105380002B602D2239182846FFF7D0FF28682246C7
:1053900031463844FFF7D0FE2846F8BD4C42E8E7D6
:1053A000F0B587B004460D4616461F460430FEF79A
:1053B0003FF90120FCF7D0F93F6839682846FBF730
:1053C00061F94FF07E51FBF75DF90546796830468B
:1053D000FBF758F9616CFBF755F9064694F8DC10B9
:1053E0006846FFF7C0FF6A4631462846FCF7BDF91C
:1053F0006846FCF74AFA07B0F0BD6846FCF745FA84
:1054000005F064F8F8B50E461746144602E005F1BB
:10541000180018340546B04213D001462046FCF768
:10542000CFFFF4E705F018F9BC4205D105F04EFDB9
:1054300005F052F905F04AF83846FCF726FA183715
:10544000F2E72046F8BD08B5FFF7DCFF08BDF8B568
:1054500004460E461746154601E018341835B44286
:1054600013D021462846FCF7ABFFF6E705F0F4F829
:10547000BD4205D105F02AFD05F02EF905F026F80C
:105480003846FCF702FA1837F2E72846F8BD2DE94E
:10549000F041074615461E46884649B10022FCF7F2
:1054A00079FF0446224631462846FFF7CCFF0FE03D
:1054B0000024F7E705F0D0F824B1424621463846EB
:1054C000FCF740FF05F002FD05F006F904F0FEFFD1
:1054D0002046BDE8F081000070B5064615460C1A5E
:1054E000E410074B03FB04F406E031462846FEF7C0
:1054F00064FE18361835013C002CF6DC284670BDD9
:10550000ABAAAAAA08B5FFF7E7FF08BD08B5FFF7E1
:10551000F9FF08BD70B5064615460C1AE410074B96
:1055200003FB04F406E031462846FEF746FE183633
:105530001835013C002CF6DC284670BDABAAAAAA9F
:105540002DE9F041044681421AD00D464B680868A7
:105550001E1AF210214902FB01F12268A768A7EB8D
:10556000020C66450FD86768BF1ABE422AD8194692
:10557000FFF7CCFF6168FFF72DFE236833446360BB
:105580002046BDE8F08102462046FFF780FF8046B6
:105590002568676803E02846FCF777F91835AF42BD
:1055A000F9D12168A3685B1ADB100C4A03FB02F2F5
:1055B00011B12046FCF7C6FEC4F8008008EB0603D4
:1055C000A360DAE7C119FFF7A5FF286862682368BE
:1055D000D31A69681844FFF73AFFCEE7ABAAAAAA24
:1055E0002DE9F84304460F4616461D4680230371F5
:1055F00040234371284B83600C30FDF747FA274B5B
:1056000023600020C4F8D80084F8DC00A446244BB2
:105610004CF8E03BC4F8E000CCF80400CCF80800FB
:10562000CCF80C0004F1F00804F1F803C4F8F030F1
:10563000C4F8F40084F8F80004F58479C4F808018B
:10564000C4F80C01C4F8100184F8147131464046C6
:10565000FEF7B3FD29464846FFF772FF07E04846CC
:10566000FCF788FE4046FCF710F904F02FFFD4F851
:105670000C31D4F808219B1ADB100A4A02FB03F311
:1056800084F81531089B1B7884F8DC300023C4F8BB
:10569000D8302046BDE8F88300007F43C09A010857
:1056A000F89A0108ABAAAAAA00487047E0010020B6
:1056B00008B500F063FC0368DB6A984708BD08B5CD
:1056C00000F05CFC0368DB6E984708BD08B500F08D
:1056D00055FC0368D3F89030984708BD08B500F032
:1056E0004DFC0368D3F89430984708BD38B514468C
:1056F0000D1A884204D02A46014620460EF03CFD91
:10570000601938BD38B514460D1A814204D02A46B6
:10571000014620460EF030FD601938BD08B5FFF790
:10572000F1FF08BD2DE9F04F91B0044606910792B4
:10573000A44B1B68BFF35B8F13F0010F53D0A24B38
:105740001B784BB90121A04B1970D4E904239F4861
:10575000C0E900239E4B19700698FBF7F4FFFBF796
:1057600045F80646FFF7A0FF0546D0F89000014631
:10577000FAF788FF01463046FAF784FF07460290A1
:10578000FFF796FFFBF732F80646D5F89000014682
:10579000FAF778FF01463046FAF774FF8146014672
:1057A0000020FAF76DFF4FF08241FAF769FF04908D
:1057B000099000F0E3FB4079FBF718F84946FAF747
:1057C0005FFF8449FBF71AF9059000F0D7FB0079D9
:1057D000FBF70CF83946FAF753FF4FF07C51FBF713
:1057E00059F88246ABE0774805F0A8FB0028A6D020
:1057F000D4E904237549C1E90023724805F0BEFBD2
:105800009DE70AA8FCF75FF8A668E1680DA8FDF718
:1058100042FB0DA93046FFF739F90DA8FCF753F804
:10582000A2682168E068FDF767FD0020FBF794FFA0
:10583000D5F894B04FF082414846FAF723FF039021
:105840004FF082410298FAF71DFF80464FF08141E8
:105850000998FAF715FF07464FF081415046FAF7CD
:105860000FFF06464FF080415846FAF70BFF0090B5
:10587000039B424639463046FFF706F80120FBF706
:105880006BFF4FF080414846FAF7FCFE80464FF030
:1058900080410298FAF7F6FE07464FF07E510998CC
:1058A000FAF7EEFE06464FF07E515046FAF7E8FE54
:1058B000D5F89430009343463A463146FFF72EFB25
:1058C000D5F8907051463846FAF7DCFE064609993D
:1058D0003846FAF7D7FE0746FFF7EAFEFAF786FFE3
:1058E0003946FAF7CFFE0146069A3046FBF73DFFF0
:1058F000FBF712FFD5F89820059909A8FDF768F97C
:1059000022696369314801684068521A63EB0003F9
:1059100007998A4273F1000301D3049B0593FFF7B3
:10592000DDFEFFF7D3FE00282ED109990498FBF77E
:1059300045F920B10023264A1370234A1370244BE3
:105940001B78002B3AD023696269013342F10002CF
:1059500023616261FBF7E7FE26683368DF68E16870
:105960000AA8FDF798FA0AA93046B84749E7013670
:10597000F6B2012E0AD800F001FB0C30835D012B3A
:10598000F5D1049B0593F2E70026F2E700F0F6FA62
:1059900000F10C0600F0F2FA0E3002E0002306F8E7
:1059A000013BB042FAD1C0E70AA8FBF78CFF04F034
:1059B0008DFD0DA8FBF787FF04F088FD11B0BDE851
:1059C000F08F00BF7C0A0020880A0020800A002097
:1059D000790A002000004040F0B58BB006460C4626
:1059E0000160EC2002F082FD054600210A46FDF729
:1059F0001BF9F56023685F68294601A8FDF74BFA9B
:105A000001A92046B84701A8FBF75DFF4FF480705D
:105A100002F06CFD05464FF4807200210EF02AFC66
:105A200080232B7040236B70144B6B6005F10800D2
:105A3000FDF72CF8B56021462846FEF7E0FFF56833
:105A400023681B68214604A8984704A92846FDF747
:105A500083F904A8FBF719FF0BB0F0BDEC21284631
:105A600004F0DAFC04F032FD01A8FBF72CFF04F08F
:105A70002DFD04A8FBF709FF04F028FD00007F437B
:105A800070B515461E4651B10022FBF72DFF0446A6
:105A9000224631462846FDF7BFFA204670BD002455
:105AA000F6E770B50446814215D00D464B6808688C
:105AB0001E1AB1102268D4F808C0ACEB020CB44531
:105AC0000BD36168891AB14218D31946FFF726FE35
:105AD000236833446360204670BD02462046FFF7CA
