:020000040800F2
:10000000005000203D310008992200089B22000882
:100010009D2200089F220008A12200080000000085
:10002000000000000000000000000000A322000803
:10003000A522000800000000A7220008A92200084D
:1000400085310008853100088531000885310008B8
:1000500085310008853100088531000885310008A8
:100060008531000885310008853100088531000898
:10007000853100088531000885310008B12200086B
:100080008531000885310008853100088531000878
:100090008531000885310008853100088531000868
:1000A0008531000885310008853100088531000858
:1000B0008531000885310008853100088531000848
:1000C0008531000885310008853100088531000838
:1000D000C1220008853100088531000885310008FB
:1000E00085310008853100088531000800000000D6
:1000F0000000000000000000000000000000000000
:0C01000000000000000000005FF808F1A3
:1001100080F0004002E000BF81F0004142001FBFBC
:100120005FEA410392EA030F7FEA226C7FEA236CC5
:100130006AD04FEA1262D2EB1363C1BFD2184140BA
:1001400048404140B8BF5B42192B88BF704710F050
:10015000004F40F4000020F07F4018BF404211F0F3
:10016000004F41F4000121F07F4118BF494292EA5B
:10017000030F3FD0A2F1010241FA03FC10EB0C0087
:10018000C3F1200301FA03F100F0004302D5494214
:1001900060EB4000B0F5000F13D3B0F1807F06D3C1
:1001A00040084FEA310102F10102FE2A51D2B1F1B9
:1001B000004F40EBC25008BF20F0010040EA0300AE
:1001C0007047490040EB0000013A28BFB0F5000F2E
:1001D000EDD2B0FA80FCACF1080CB2EB0C0200FAE4
:1001E0000CF0AABF00EBC25052421843BCBFD04033
:1001F0001843704792F0000F81F4000106BF80F4AD
:1002000000000132013BB5E74FEA41037FEA226C6F
:1002100018BF7FEA236C21D092EA030F04D092F03A
:10022000000F08BF0846704790EA010F1CBF00206E
:10023000704712F07F4F04D1400028BF40F00040CB
:10024000704712F100723CBF00F50000704700F0EB
:10025000004343F0FE4040F4000070477FEA226212
:1002600016BF08467FEA23630146420206BF5FEAE3
:10027000412390EA010F40F4800070474FF00003E3
:1002800004E000BF10F0004348BF40425FEA000CAA
:1002900008BF704743F0964301464FF000001CE052
:1002A00050EA010208BF70474FF000030AE000BFA8
:1002B00050EA010208BF704711F0004302D54042E6
:1002C00061EB41015FEA010C02BF84460146002058
:1002D00043F0B64308BFA3F18053A3F50003BCFA73
:1002E0008CF2083AA3EBC25310DB01FA02FC634420
:1002F00000FA02FCC2F12002BCF1004F20FA02F227
:1003000043EB020008BF20F00100704702F1200219
:1003100001FA02FCC2F1200250EA4C0021FA02F27A
:1003200043EB020008BF20EADC7070474FF0FF0C7F
:100330001CEAD0521EBF1CEAD15392EA0C0F93EA7A
:100340000C0F6FD01A4480EA010C400218BF5FEA1C
:1003500041211ED04FF0006343EA501043EA51118F
:10036000A0FB01310CF00040B1F5000F3EBF490089
:1003700041EAD3715B0040EA010062F17F02FD2A8D
:100380001DD8B3F1004F40EBC25008BF20F0010070
:10039000704790F0000F0CF0004C08BF49024CEA87
:1003A000502040EA51207F3AC2BFD2F1FF0340EA19
:1003B000C250704740F400004FF00003013A5DDC8A
:1003C00012F1190FDCBF00F000407047C2F10002CB
:1003D000410021FA02F1C2F1200200FA02FC5FEAB8
:1003E000310040F1000053EA4C0308BF20EADC7002
:1003F000704792F0000F00F0004C02BF400010F474
:10040000000F013AF9D040EA0C0093F0000F01F020
:10041000004C02BF490011F4000F013BF9D041EA42
:100420000C018FE70CEAD15392EA0C0F18BF93EA44
:100430000C0F0AD030F0004C18BF31F0004CD8D16E
:1004400080EA010000F00040704790F0000F17BFF5
:1004500090F0004F084691F0000F91F0004F14D03B
:1004600092EA0C0F01D142020FD193EA0C0F03D193
:100470004B0218BF084608D180EA010000F0004096
:1004800040F0FE4040F40000704740F0FE4040F471
:10049000400070474FF0FF0C1CEAD0521EBF1CEA10
:1004A000D15392EA0C0F93EA0C0F69D0A2EB03022E
:1004B00080EA010C49024FEA402037D04FF08053C8
:1004C00043EA111143EA10130CF000408B4238BF8D
:1004D0005B0042F17D024FF4000C8B4224BF5B1A9B
:1004E00040EA0C00B3EB510F24BFA3EB510340EAE9
:1004F0005C00B3EB910F24BFA3EB910340EA9C0097
:10050000B3EBD10F24BFA3EBD10340EADC001B0106
:1005100018BF5FEA1C1CE0D1FD2A3FF650AF8B42AA
:1005200040EBC25008BF20F0010070470CF0004CB7
:100530004CEA50207F32C2BFD2F1FF0340EAC250E2
:10054000704740F400004FF00003013A37E792F0A3
:10055000000F00F0004C02BF400010F4000F013A01
:10056000F9D040EA0C0093F0000F01F0004C02BFFC
:10057000490011F4000F013BF9D041EA0C0195E765
:100580000CEAD15392EA0C0F08D142027FF47DAFFE
:1005900093EA0C0F7FF470AF084676E793EA0C0FEE
:1005A00004D14B023FF44CAF08466EE730F0004CEC
:1005B00018BF31F0004CCAD130F000427FF45CAF7C
:1005C00031F000437FF43CAF5FE700BF4FF0FF3CEA
:1005D00006E000BF4FF0010C02E000BF4FF0010C3D
:1005E0004DF804CD4FEA40024FEA41037FEA226C06
:1005F00018BF7FEA236C11D001B052EA530C18BF28
:1006000090EA010F58BFB2EB030088BFC81738BF8C
:100610006FEAE17018BF40F0010070477FEA226C7A
:1006200002D15FEA402C05D17FEA236CE4D15FEA76
:10063000412CE1D05DF8040B704700BF84460846AA
:100640006146FFE70FB5FFF7C9FF002848BF10F16B
:10065000000F0FBD4DF808EDFFF7F4FF0CBF0120B0
:1006600000205DF808FB00BF4DF808EDFFF7EAFF3A
:1006700034BF012000205DF808FB00BF4DF808EDF5
:10068000FFF7E0FF94BF012000205DF808FB00BFEA
:100690004DF808EDFFF7D2FF94BF012000205DF870
:1006A00008FB00BF4DF808EDFFF7C8FF34BF01207D
:1006B00000205DF808FB00BF4FEA4002B2F1FE4F98
:1006C0000FD34FF09E03B3EB12620DD94FEA002314
:1006D00043F0004310F0004F23FA02F018BF4042ED
:1006E00070474FF00000704712F1610F01D14202D4
:1006F00005D110F0004008BF6FF0004070474FF088
:100700000000704742000ED2B2F1FE4F0BD34FF003
:100710009E03B3EB126209D44FEA002343F0004377
:1007200023FA02F070474FF00000704712F1610F9A
:1007300001D1420202D14FF0FF3070474FF000006C
:10074000704700BF00F1340191E838009C46A6468E
:100750004CF8045D90E8FF0FE54600BD90EC210BDE
:10076000704700BF80EC210B704700BF90EC200B5E
:10077000704700BF80EC200B704700BFD0EC200B0F
:10078000704700BFC0EC200B704700BFF0EC0201C7
:10079000F0EC0211F0EC0221F0EC0231F0EC02413D
:1007A000F0EC0251F0EC0261F0EC0271F0EC02812D
:1007B000F0EC0291F0EC02A1F0EC02B1F0EC02C11D
:1007C000F0EC02D1F0EC02E1F0EC02F1704700BF76
:1007D000E0EC0201E0EC0211E0EC0221E0EC02317D
:1007E000E0EC0241E0EC0251E0EC0261E0EC02716D
:1007F000E0EC0281E0EC0291E0EC02A1E0EC02B15D
:10080000E0EC02C1E0EC02D1E0EC02E1E0EC02F14C
:10081000704700BFB0FC0181B0FC0191B0FC01A1A8
:10082000B0FC01B1704700BFA0FC0181A0FC0191A8
:10083000A0FC01A1A0FC01B1704700BFEC4600B5CF
:100840002DE900502DE9FF1F4FF000032DE90C00AA
:1008500001A90AF0CFF9DDF840E012B0704700BFFF
:10086000EC4600B52DE900502DE9FF1F4FF00003C5
:100870002DE90C0001A90AF0FDF9DDF840E012B005
:10088000704700BFEC4600B52DE900502DE9FF1F71
:100890004FF000032DE90C0001A90AF00BFADDF876
:1008A00040E012B0704700BFEC4600B52DE90050A3
:1008B0002DE9FF1F4FF000032DE90C0001AB0AF0FA
:1008C000CDF9DDF840E012B0704700BFEC4600B54E
:1008D0002DE900502DE9FF1F4FF000032DE90C001A
:1008E00001AA0AF045FADDF840E012B0704700BFF7
:1008F00080EA010C1CF0030F37D110F0030C20F03C
:10090000030021F0030150F8042B08BF51F8043B09
:100910000ED08CF0030C6FF07F434FEACC0C23FA1F
:100920000CFC51F8043B42EA0C0243EA0C0300BF02
:10093000A2F1013C9A4201BF2CEA020C1CF0803F5C
:1009400050F8042B51F8043BF2D04FEA02604FEA12
:100950001222012828BFB0EB036F08BF1B0AF4D096
:1009600003F0FF03000EC01A704710F0030F0AD007
:1009700010F8012B11F8013B012A28BF9A42F4D04C
:10098000A2EB030070474DF8045D50F8042B01F012
:10099000030521F0030151F8043B022D26D04DD868
:1009A00022F07F45B5EB132FA2F1013C2CEA020C9B
:1009B0000DD11CF0803C08BF51F8043B0AD185EAF8
:1009C0000205B5EB036F0CD150F8042BE8E74FEAB2
:1009D00013235BE03CF07F4C54D10B784FEA126557
:1009E00054E04FEA126503F0FF034FE04FEA02457F
:1009F000A2F1013C4FEA15452CEA020CB5EB134F6E
:100A000018D11CF0803C08BF51F8043B07D185EA9F
:100A10000205B5EB034F09D150F8042BE6E75FEA76
:100A20000C4C2FD10B884FEA12452FE04FEA0343BD
:100A30004FEA12454FEA134328E000BF02F0FF05DA
:100A4000B5EB136FA2F1013C2CEA020C0DD11CF0A6
:100A5000803C08BF51F8043B0AD185EA0205B5EB9A
:100A6000032F0AD150F8042BE8E74FEA13630DE097
:100A700012F0FF0F06D051F8043B4FEA122523F085
:100A80007F4303E04FF0000020BC704705F0FF02F9
:100A900003F0FF00012828BF904204BF2D0A1B0A63
:100AA000F4D0A2EB000020BC704700BF844641EAAE
:100AB000000313F0030349D1403A23D30B680360CA
:100AC0004B6843608B688360CB68C3600B690361CC
:100AD0004B6943618B698361CB69C3610B6A0362B4
:100AE0004B6A43628B6A8362CB6AC3620B6B03639C
:100AF0004B6B43638B6B8363CB6BC3634030403181
:100B0000403ADBD230320BD30B6803604B68436052
:100B10008B688360CB68C36010301031103AF3D219
:100B20000C3205D351F8043B40F8043B043AF9D2A7
:100B3000043208D0D2071CBF11F8013B00F8013B7A
:100B400001D30B8803806046704700BF082A13D387
:100B50008B07B1D010F00303AED0C3F10403D21A57
:100B6000DB071CBF11F8013B00F8013BA4D331F8AF
:100B7000023B20F8023B9FE7043AD9D3013A11F82F
:100B8000013B00F8013BF9D20B7803704B784370BE
:100B90008B7883706046704781F0004102E000BFAF
:100BA00083F0004330B54FEA41044FEA430594EA2D
:100BB000050F08BF90EA020F1FBF54EA000C55EA68
:100BC000020C7FEA645C7FEA655C00F0E2804FEA39
:100BD0005454D4EB5555B8BF6D420CDD2C4480EA1B
:100BE000020281EA030382EA000083EA010180EA4B
:100BF000020281EA0303362D88BF30BD11F0004F99
:100C00004FEA01314FF4801C4CEA113102D04042CE
:100C100061EB410113F0004F4FEA03334CEA133309
:100C200002D0524263EB430394EA050F00F0A78021
:100C3000A4F10104D5F1200E0DDB02FA0EFC22FA1C
:100C400005F2801841F1000103FA0EF2801843FA10
:100C500005F359410EE0A5F120050EF1200E012A01
:100C600003FA0EFC28BF4CF0020C43FA05F3C0183F
:100C700051EBE37101F0004507D54FF0000EDCF1B8
:100C8000000C7EEB00006EEB0101B1F5801F1BD361
:100C9000B1F5001F0CD349085FEA30004FEA3C0C65
:100CA00004F101044FEA445212F5800F80F09A805B
:100CB000BCF1004F08BF5FEA500C50F1000041EB5F
:100CC000045141EA050130BD5FEA4C0C404141EB63
:100CD0000101013C28BFB1F5801FE9D291F0000F5E
:100CE00004BF01460020B1FA81F308BF2033A3F10D
:100CF0000B03B3F120020CDA0C3208DD02F1140C04
:100D0000C2F10C0201FA0CF021FA02F10CE002F13E
:100D10001402D8BFC2F1200C01FA02F120FA0CFC37
:100D2000DCBF41EA0C019040E41AA2BF01EB045180
:100D3000294330BD6FEA04041F3C1CDA0C340EDC7E
:100D400004F11404C4F1200220FA04F001FA02F3C1
:100D500040EA030021FA04F345EA030130BDC4F17F
:100D60000C04C4F1200220FA02F001FA04F340EA74
:100D70000300294630BD21FA04F0294630BD94F025
:100D8000000F83F4801306BF81F480110134013D0C
:100D90004EE77FEA645C18BF7FEA655C29D094EA7D
:100DA000050F08BF90EA020F05D054EA000C04BFFB
:100DB0001946104630BD91EA030F1EBF00210020E6
:100DC00030BD5FEA545C05D14000494128BF41F085
:100DD000004130BD14F580043CBF01F5801130BDE9
:100DE00001F0004545F0FE4141F470014FF0000074
:100DF00030BD7FEA645C1ABF194610467FEA655C25
:100E00001CBF0B46024650EA013406BF52EA0335C6
:100E100091EA030F41F4002130BD00BF90F0000FB4
:100E200004BF0021704730B54FF4806404F13204F0
:100E30004FF000054FF0000150E700BF90F0000FA9
:100E400004BF0021704730B54FF4806404F13204D0
:100E500010F0004548BF40424FF000013EE700BFA0
:100E600042004FEAE2014FEA31014FEA02701FBF30
:100E700012F07F4393F07F4F81F06051704732F062
:100E80007F4208BF704793F07F4F04BF41F40021B9
:100E9000704730B54FF4607401F0004521F0004117
:100EA0001CE700BF50EA010208BF704730B54FF0A1
:100EB00000050AE050EA010208BF704730B511F0A2
:100EC000004502D5404261EB41014FF4806404F1DA
:100ED00032045FEA915C3FF4D8AE4FF003025FEA60
:100EE000DC0C18BF03325FEADC0C18BF033202EBE4
:100EF000DC02C2F1200300FA03FC20FA02F001FA3E
:100F000003FE40EA0E0021FA02F11444BDE600BFE0
:100F100070B54FF0FF0C4CF4E06C1CEA11541DBF8F
:100F20001CEA135594EA0C0F95EA0C0F00F0DEF85A
:100F30002C4481EA030621EA4C5123EA4C5350EA3F
:100F4000013518BF52EA033541F4801143F4801390
:100F500038D0A0FB02CE4FF00005E1FB02E506F021
:100F60000042E0FB03E54FF00006E1FB03569CF076
:100F7000000F18BF4EF0010EA4F1FF04B6F5007F7C
:100F800064F5407404D25FEA4E0E6D4146EB0606EE
:100F900042EAC62141EA55514FEAC52040EA5E5077
:100FA0004FEACE2EB4F1FD0C88BFBCF5E06F1ED821
:100FB000BEF1004F08BF5FEA500E50F1000041EB58
:100FC000045170BD06F0004646EA010140EA020005
:100FD00081EA0301B4EB5C04C2BFD4EB0C0541EA27
:100FE000045170BD41F480114FF0000E013C00F33C
:100FF000AB8014F1360FDEBF002001F0004170BD60
:10100000C4F10004203C35DA0C341BDC04F1140478
:10101000C4F1200500FA05F320FA04F001FA05F204
:1010200040EA020001F0004221F0004110EBD370D1
:1010300021FA04F642EB06015EEA430E08BF20EAFD
:10104000D37070BDC4F10C04C4F1200500FA04F3A0
:1010500020FA05F001FA04F240EA020001F0004132
:1010600010EBD37041F100015EEA430E08BF20EAA5
:10107000D37070BDC4F1200500FA05F24EEA020EED
:1010800020FA04F301FA05F243EA020321FA04F01C
:1010900001F0004121FA04F220EA020000EBD370D3
:1010A0005EEA430E08BF20EAD37070BD94F0000FD3
:1010B0000FD101F00046400041EB010111F4801F07
:1010C00008BF013CF7D041EA060195F0000F18BFB8
:1010D000704703F00046520043EB030313F4801FF4
:1010E00008BF013DF7D043EA0603704794EA0C0FAE
:1010F0000CEA135518BF95EA0C0F0CD050EA4106C4
:1011000018BF52EA4306D1D181EA030101F0004140
:101110004FF0000070BD50EA410606BF1046194668
:1011200052EA430619D094EA0C0F02D150EA013674
:1011300013D195EA0C0F05D152EA03361CBF1046B5
:1011400019460AD181EA030101F0004141F0FE4154
:1011500041F470014FF0000070BD41F0FE4141F4D8
:10116000780170BD70B54FF0FF0C4CF4E06C1CEAD8
:1011700011541DBF1CEA135594EA0C0F95EA0C0F8D
:1011800000F0A7F8A4EB050481EA030E52EA033548
:101190004FEA013100F088804FEA03334FF0805569
:1011A00045EA131343EA12634FEA022245EA111596
:1011B00045EA10654FEA00260EF000419D4208BF47
:1011C000964244F1FD0404F5407402D25B084FEAF4
:1011D0003202B61A65EB03055B084FEA32024FF4A0
:1011E00080104FF4002CB6EB020E75EB030E22BFFD
:1011F000B61A754640EA0C005B084FEA3202B6EBBD
:10120000020E75EB030E22BFB61A754640EA5C006B
:101210005B084FEA3202B6EB020E75EB030E22BFFB
:10122000B61A754640EA9C005B084FEA3202B6EBFC
:10123000020E75EB030E22BFB61A754640EADC00BB
:1012400055EA060E18D04FEA051545EA16754FEA1D
:1012500006164FEAC30343EA52734FEAC2025FEA3B
:101260001C1CC0D111F4801F0BD141EA00014FF0CA
:1012700000004FF0004CB6E711F4801F04BF01439B
:101280000020B4F1FD0C88BFBCF5E06F3FF6AFAEB7
:10129000B5EB030C04BFB6EB020C5FEA500C50F147
:1012A000000041EB045170BD0EF0004E4EEA1131CA
:1012B00014EB5C04C2BFD4EB0C0541EA045170BDD1
:1012C00041F480114FF0000E013C90E645EA060E15
:1012D0008DE60CEA135594EA0C0F08BF95EA0C0F43
:1012E0003FF43BAF94EA0C0F0AD150EA01347FF48B
:1012F00034AF95EA0C0F7FF425AF104619462CE762
:1013000095EA0C0F06D152EA03353FF4FDAE1046C4
:10131000194622E750EA410618BF52EA43067FF415
:10132000C5AE50EA41047FF40DAF52EA43057FF4A5
:10133000EBAE12E74FF0FF3C06E000BF4FF0010CB0
:1013400002E000BF4FF0010C4DF804CD4FEA410C14
:101350007FEA6C5C4FEA430C18BF7FEA6C5C1BD0E1
:1013600001B050EA410C0CBF52EA430C91EA030F62
:1013700002BF90EA020F0020704710F1000F91EABF
:10138000030F58BF994208BF90422CBFD8176FEA8D
:10139000E37040F0010070474FEA410C7FEA6C5C5B
:1013A00002D150EA013C07D14FEA430C7FEA6C5C62
:1013B000D6D152EA033CD3D05DF8040B704700BF8E
:1013C0008446104662468C461946634600E000BFDC
:1013D00001B5FFF7B7FF002848BF10F1000F01BDAE
:1013E0004DF808EDFFF7F4FF0CBF012000205DF879
:1013F00008FB00BF4DF808EDFFF7EAFF34BF0120FE
:1014000000205DF808FB00BF4DF808EDFFF7E0FF96
:1014100094BF012000205DF808FB00BF4DF808EDE7
:10142000FFF7CEFF94BF012000205DF808FB00BF4E
:101430004DF808EDFFF7C4FF34BF012000205DF830
:1014400008FB00BF4FEA410C7FEA6C5C02D150EA16
:10145000013C0AD14FEA430C7FEA6C5C02D152EAAC
:10146000033C02D14FF0000070474FF0010070477D
:101470004FEA410212F5001215D211D56FF47873BC
:10148000B3EB625212D94FEAC12343F0004343EA5F
:10149000505311F0004F23FA02F018BF404270473A
:1014A0004FF00000704750EA013005D111F00040C4
:1014B00008BF6FF0004070474FF00000704700BF5A
:1014C0000348044B834202D0034B03B118477047D3
:1014D000C8060020C8060020000000000548064B92
:1014E0001B1AD90F01EBA301491002D0034B03B122
:1014F00018477047C8060020C806002000000000FA
:1015000010B5064C237843B9FFF7DAFF044B13B14B
:101510000448AFF300800123237010BDC8060020EB
:1015200000000000AC1F010808B5054B1BB10549C0
:101530000548AFF30080BDE80840FFF7CFBF00BF0C
:1015400000000000CC060020AC1F0108012800D0DC
:10155000704708B54FF6FF73994200D008BD0C20C4
:1015600002F012FC0023036043608360014B1860AB
:10157000F4E700BFE406002008B50021024B18681C
:1015800000F00FFD08BD00BFE406002008B5024BC7
:10159000186800F024FDFAE7E406002008B54FF6CD
:1015A000FF710120FFF7D2FF08BD7047F8B50D4667
:1015B00014461E460F6811463846FFF74BF850B9DF
:1015C00021463846FEF7A8FD20F000400C49FFF701
:1015D0004BF808B12C60F8BD39462046FEF79CFD5B
:1015E000044608493046FEF755FF01462046FEF7FF
:1015F00051FF01463846FEF791FD2860EBE700BF3A
:101600009A99193E0000204110B5322202703C2107
:10161000417082701922C270282202714271827157
:101620000122C27102724272827205224273082242
:1016300082730421C1734FF0100C80F810C04FF07A
:101640007C54446101764FF0020E80F819E01E24AC
:101650008476C47602770724447706248477C1779A
:10166000122180F8201080F821200C2280F82220FE
:1016700080F823E0242280F8242080F8252080F8B8
:1016800026C010BD08B50A4B1B68BFF35B8F13F073
:10169000010F01D0074808BD054802F033FB0028C0
:1016A000F8D00448FFF7B0FF014802F04BFBF1E728
:1016B000080700200C07002008B500F00BFD0368A8
:1016C0001B69984708BD08B500F004FD03685B6915
:1016D000984708BD08B500F0FDFC03689B69984772
:1016E00008BD000010B5264B1B68BFF35B8F13F0DD
:1016F000010F03D1224802F005FB40B9214B1B68C2
:10170000BFF35B8F13F0010F0FD0002320E0FFF732
:10171000DAFF0446FFF7DEFF00FB04F4E4001A4B97
:101720001C70174802F00EFBE8E7164802F0EAFAD0
:101730000028EAD0FFF7C0FF144B1860114802F0F0
:1017400001FBE2E76FF0550002400A7001339BB2E3
:101750000D4A12789A4212D90C4A1268D118D25CFA
:1017600013F0010FEED15520EEE7054802F0E6FA3E
:1017700001F090FD034802F0E1FA01F08BFD10BD8D
:10178000F0060020E8060020F4060020EC06002009
:1017900010B5044600F09EFC03689B6A21469847FA
:1017A00010BD10B5044600F095FC03681B6B214684
:1017B000984710BD38B504460D4600F08BFC036811
:1017C0005B6B2A462146984738BDF8B504460D465E
:1017D000164600F07FFC0368DF6B33462A4621463D
:1017E000B847F8BDF8B504460D46164600F072FC41
:1017F00003685F6C33462A462146B847F8BDF8B502
:1018000004460D46164600F065FC0368DF6C33465F
:101810002A462146B847F8BDF0B583B004460D46C8
:1018200016461F4600F056FC0368089A019200977E
:101830001F6D33462A462146B84703B0F0BDF0B5C8
:1018400083B004460D4616461F4600F043FC03686D
:1018500000975F6D33462A462146B84703B0F0BD76
:10186000F0B583B004460D4616461F4600F032FC24
:1018700003689DF82020019200979F6D33462A4609
:101880002146B84703B0F0BDF0B583B004460D461D
:1018900016461F4600F01EFC03680097DF6D3346B6
:1018A0002A462146B84703B0F0BD10B5044600F003
:1018B00011FC03689B6E2146984710BD10B5314B53
:1018C0001B68BFF35B8F13F0010F03D12D4802F0AB
:1018D00019FAA8B92C4B1B68BFF35B8F13F0010FEB
:1018E00003D1294802F00EFAC0B9FFF7CBFE4079C8
:1018F000FFF7DBFFFFF7C6FE037B4BB3002317E0C8
:10190000FFF7E1FE0446FFF7E5FE00FB04F4E40008
:101910001E4B1C701B4802F015FADBE7FFF7CCFEEC
:101920001B4B1860184802F00DFADEE701339BB23A
:10193000164A12789A4223D913F0010FF6D0144AAE
:101940001168CA5C02F0AA02CA54EFE701339BB2E5
:101950000E4A12789A4213D913F0010FF6D00C4AAE
:101960001168CA5C42F0AA02CA54EFE7054802F0C7
:10197000E5F901F08FFC044802F0E0F901F08AFC7F
:1019800010BD00BF00070020F8060020040700205B
:10199000FC06002010B5044600F09CFB8288837989
:1019A0002280A370FFF76EFE231D00F12002D0F805
:1019B00000E0D0F804C08468C168C3F800E0C3F850
:1019C00004C09C60D960103010339042EFD102689F
:1019D0001A608188827999809A7110BD10B5044689
:1019E0008023037140234371FF2383710830FFF785
:1019F0000BFE054B2360054B2360002323636363C9
:101A0000A363E363204610BD68200108802001081D
:101A1000D0F8A030D0F89C00181AC0F387007047A7
:101A20002DE9F04F85B004460F4690F894302BB165
:101A3000012B00F0728105B0BDE8F08F0430FFF794
:101A4000A9FF207AFEF71AFC0346214651F8682BBD
:101A5000D568E26E2046A847207AFEF70FFC0346C1
:101A6000214651F8602BD568626E2046A847207A3F
:101A7000FEF704FC0346214651F8482BD568E26C7A
:101A80002046A847207AFEF7F9FB0346214651F885
:101A9000582BD568E26D2046A8470120FFF781FE4C
:101AA000D4F89C80D4F8A03003932FE058F8045B5E
:101AB000B96B286BFEF732FB0290FE6B94F82500A1
:101AC000FEF7E0FB3146FEF729FBD5F88830D3F866
:101AD00000B094F823A094F82290FEF713FEC6B24B
:101AE0000298FEF70FFECDF800B053464A46314645
:101AF000C0B2FFF791FE207AFEF7C0FB03462268D2
:101B0000D6686A6B05F130012046B047039B434518
:101B1000CCD1267994F8A85001352046FFF778FFFC
:101B200095FBF0F006FB00F0FEF7ACFBE064A76D60
:101B300094F82B60A06CFEF7E5FDC5B23846FEF7C1
:101B4000E1FD33462A46C1B20020FFF778FE94F843
:101B50002650206EFEF7D6FD2A46C1B294F8270023
:101B6000FFF74DFE94F827504FF07E51206EFEF7A0
:101B7000D5FAFEF7C7FD0135C1B2E8B2FFF71AFE8C
:101B800094F827504FF08041206EFEF7C7FAFEF719
:101B9000B9FD0235C1B2E8B2FFF70CFE94F8275048
:101BA0004FF07E51206EFEF7B7FAFEF7ABFD013520
:101BB000C1B2E8B2FFF7FEFD94F827504FF0804124
:101BC000206EFEF7A9FAFEF79DFD0235C1B2E8B21C
:101BD000FFF7F0FD257994F82660AD1BEDB294F87F
:101BE0002770206EFEF78EFDED1B3246C1B2E8B2C3
:101BF000FFF705FE257994F826604FF07E51206EA0
:101C0000FEF78CFAFEF77EFDAD1BC1B2E8B2FFF71E
:101C1000D1FD257994F82630ED1AEDB24FF08041D0
:101C2000206EFEF77BFAFEF76DFD013DC1B2E8B212
:101C3000FFF7C0FD257994F826604FF07E51206EA5
:101C4000FEF76AFAFEF75EFDAD1BC1B2E8B2FFF720
:101C5000B1FD257994F82630ED1AEDB24FF08041B0
:101C6000206EFEF759FAFEF74DFD013DC1B2E8B214
:101C7000FFF7A0FD4FF08041206EFEF74FFAFEF710
:101C800041FD0922C1B294F82E00FFF7B8FD94F887
:101C90002E504FF08041206EFEF740FA4FF0814108
:101CA000FEF73AFAFEF72EFD023504230522C1B2F3
:101CB000E8B2FFF7C4FD257994F82E30ED1AEDB2A5
:101CC0004FF08041206EFEF729FAFEF71BFD093D1B
:101CD0000922C1B2E8B2FFF792FD257994F82E30BF
:101CE000ED1AEDB24FF08041206EFEF717FA4FF07B
:101CF0008141FEF711FAFEF705FD073D0423052299
:101D0000C1B2E8B2FFF79BFDA06EFEF7D5FC2279C9
:101D1000C1B20020FFF766FD8DE60430FFF73AFE02
:101D2000607AFEF7ABFA0346214651F8402BD5689E
:101D3000626C2046A847607AFEF7A0FA0346214667
:101D400051F8502BD568626D2046A8470120FFF757
:101D500028FDD4F89C90D4F8A0A022E059F8045BA8
:101D6000B96B286BFEF7DAF98046F96BA86BFEF7C2
:101D7000D5F905F1700BFEF7C5FCC6B24046FEF77B
:101D8000C1FC5A463146C0B2FFF71FFD607AFEF72C
:101D900075FA03462268D668EA6B05F138012046D9
:101DA000B047CA45DAD1667994F8A8500135204683
:101DB000FFF72EFE95FBF0F006FB00F0FEF762FA4F
:101DC0006064276D206CFEF79DFCC5B2667D3846C9
:101DD000FEF798FC2B4632460021C0B2FFF72FFDDC
:101DE0000220FFF7DEFC237D1BB90120FFF7D9FCA1
:101DF00021E66379227900210846FFF720FDF4E708
:101E000010B504468023037140234371FF2383717F
:101E10000830FFF7F9FB064B2360064B23600023D5
:101E20006363A363E36323646364A364204610BD18
:101E300068200108982001082DE9F04383B004468A
:101E40000E460430FFF7A6FDA07AFEF717FA034608
:101E5000214651F8342BD568A26B2046A847A07ABA
:101E6000FEF70CFA0346214651F83C2BD568226C4C
:101E70002046A847236B93F89430002B4BD1A07ACF
:101E8000FEF7FCF90346214651F85C2BD568226E1B
:101E90002046A8470120FFF784FC2579236B93F89F
:101EA000A820D3F89C3053F822007030FFF770FC64
:101EB000281A00EBD0704510236B93F8A820D3F8B4
:101EC0009C3053F822707037E06DFEF71BFC3A46E9
:101ED000C1B2E8B2FFF779FC0220FFF762FCB16BF8
:101EE000606BFEF71BF90546F16BE06BFEF716F928
:101EF00094F82C7094F82D60FEF704FCC4B22846C8
:101F0000FEF700FC3B4632462146C0B2FFF7BCFC60
:101F100003B0BDE8F083012BFAD1A07AFEF7AEF949
:101F20000346214651F8442BD568A26C2046A847A9
:101F30000220FFF736FCB16B606BFEF7EFF88046CE
:101F4000F16BE06BFEF7EAF80546D4F81C90277EAB
:101F5000606CFEF7D7FBC6B22846FEF7D3FBC5B2CE
:101F60004046FEF7CFFBC4B24846FEF7CBFBC0B2FB
:101F700000903B46324629462046FFF771FC01207F
:101F8000FFF70FFCC4E708B500F0A4F80368DB69AD
:101F9000984708BD08B500F09DF803681B6A98478C
:101FA00008BD38B504460160642001F0EDFE054629
:101FB000FFF726FF6560402001F0E6FE0546FFF7CB
:101FC0000DFDA56038BD6421284601F061F901F0DE
:101FD00061F94021284601F05BF901F05BF910B589
:101FE0000446FFF7D7FFA1682068FFF719FDA16835
:101FF0006068FFF721FFFFF7C6FF10BD00B583B093
:102000000A4B5A6942F001025A615B6903F001030D
:102010000193019B002211460F2000F043FA0F208C
:1020200000F050FA03B05DF804FB00BF001002405E
:1020300070B588B000240494059406940794234B4B
:102040009A6942F020029A619A6902F02002019294
:10205000019A9A6942F004029A619A6902F00402B4
:102060000292029A9A6942F008029A619B6903F00F
:1020700008030393039B164D22460421284600F0D3
:1020800075FC01221821284600F070FC04230493FB
:102090000126059602230693079304A9284600F01B
:1020A00057FB18230493059606960323079304A968
:1020B000284600F04DFBC02304930594069404A920
:1020C000284600F045FB08B070BD00BF001002407C
:1020D00000080140014B1868704700BF340700201A
:1020E00072B6FEE700B591B02822002106A80AF0DA
:1020F000C7FC0023019302930393049305930122E9
:1021000006924FF4803307930A9202220D920E93A7
:102110004FF4E0130F9306A800F044FC80B90F239E
:10212000019302210291002303934FF480620492F1
:10213000059301A800F068FE20B911B05DF804FB1A
:10214000FFF7CEFFFFF7CCFF08B500F041F9FFF72E
:10215000C9FFFFF76DFFFFF751FF00F005F8FFF72C
:102160000BFAFFF713FAFCE708B50E480E4B0360B5
:102170004FF48273436000238360C36002220261D4
:10218000012242614FF400728261C36103624362C3
:1021900083620A23C36200F0EDFE00B908BDFFF7B9
:1021A0009FFFFBE77C0700200038004010B586B099
:1021B000002302930393049305930268214B9A42F0
:1021C00001D006B010BD044603F5EC33DA6942F4E1
:1021D0008042DA61DA6902F480420092009A9A69D8
:1021E00042F008029A619B6903F008030193019B86
:1021F0004FF420430293022303930323059302A980
:10220000114800F0A5FA1148114B036010234360F8
:10221000002383608022C260036143618361C361E4
:1022200000F072F958B9094BA3645C6200221146B0
:10223000242000F037F9242000F044F9C1E7FFF72B
:102240004FFFF0E700380040000C01403807002045
:102250005800024082B00E4B9A6942F001029A6126
:102260009A6902F001020092009ADA6942F0805203
:10227000DA61DB6903F080530193019B054A5368DF
:1022800023F0E06343F00073536002B0704700BF77
:102290000010024000000140FEE7FEE7FEE7FEE717
:1022A000FEE770477047704708B500F0A3F808BD17
:1022B00008B5024800F0AAF908BD00BF38070020A1
:1022C00008B5024800F0B2FE08BD00BF7C07002040
:1022D0000120704708B50AF00DFD162303604FF08A
:1022E000FF3008BD08B54FF0FF31FFF7F3FFFEE701
:1022F00070B50C461646002506E0AFF30080214677
:1023000001F8010B01350C46B542F6DB304670BDD5
:1023100070B50C461646002504E014F8010BAFF327
:1023200000800135B542F8DB304670BD08B5034684
:102330000B4A126842B10A4A106803446A46934243
:1023400006D8074A136008BD054A06491160F2E73E
:102350000AF0D0FC0C2303604FF0FF30F3E700BF1E
:10236000D4070020180B00204FF0FF3070474FF4C7
:1023700000534B60002070470120704700207047D9
:102380007047000010B504460E4B1A784FF47A736C
:10239000B3FBF2F30C4A1068B0FBF3F000F0A0F8C6
:1023A00068B90F2C01D901200AE0002221464FF024
:1023B000FF3000F077F8054B1C60002000E00120A2
:1023C00010BD00BF08000020040000200C00002009
:1023D00008B5074A136843F010031360032000F0A8
:1023E0004FF80F20FFF7CEFFFFF734FF002008BDA6
:1023F00000200240034A1168034B1B780B44136012
:10240000704700BFD807002008000020014B186863
:10241000704700BFD8070020002808DB0901C9B2B7
:1024200000F1604000F5614080F80013704700F053
:102430000F000901C9B2014B1954704714ED00E0B7
:1024400000B500F00700C0F1070CBCF1040F28BF75
:102450004FF0040C031D062B0FD9C31E4FF0FF3E97
:102460000EFA0CF021EA000199400EFA03FE22EA6E
:102470000E0241EA02005DF804FB0023EEE70000D3
:10248000074AD36823F4E0631B041B0C000200F42A
:10249000E060034343F0BF6343F40033D36070470D
:1024A00000ED00E010B50446054BD868C0F30220EB
:1024B000FFF7C6FF01462046FFF7AEFF10BD00BF85
:1024C00000ED00E0002807DB00F01F0240090123B7
:1024D0009340024A42F82030704700BF00E100E01C
:1024E0000138B0F1807F0BD24FF0E0235861054AEC
:1024F000F02182F823100020986107221A617047AA
:102500000120704700ED00E060B310B4024601689E
:10251000154B0B441548A0FB03031B099B001364D8
:10252000134BD363022382F82130086820F47F50D4
:1025300020F03000536894682343D468234314691F
:1025400023435469234394692343D46923430343B6
:102550000B6000209063012382F8213082F8200074
:1025600010BC704701207047F8FFFDBFCDCCCCCC2C
:102570000000024008B590F82130DBB2022B03D0F6
:1025800004238363012008BD0268136823F00E034F
:1025900013600268136823F0010313600368194A8B
:1025A000934214D0143293421FD0143293421ED05F
:1025B000143293421ED0143293421ED014329342EE
:1025C00002D04FF0807203E04FF4801200E001224D
:1025D0000D4B5A60012380F82130002380F8203011
:1025E000436B6BB198470020CDE71022F0E74FF422
:1025F0008072EDE74FF48052EAE74FF48032E7E76C
:102600000020C0E7080002400000024038B5C36B5C
:102610001A6804682568016C04238B40134235D086
:1026200015F0040F32D0236813F0200F03D1236874
:1026300023F0040323600368434A934214D0143206
:10264000934218D01432934217D01432934217D0C9
:102650001432934217D01432934202D04FF080626A
:1026600003E04FF4800200E00422384B5A60C36A52
:1026700003B1984738BD4022F7E74FF48062F4E792
:102680004FF48042F1E74FF48022EEE702238B40C3
:1026900013423CD015F0020F39D0236813F0200FFD
:1026A00006D1236823F00A032360012380F8213038
:1026B0000368254A934214D0143293421CD014323A
:1026C00093421BD0143293421BD0143293421BD03E
:1026D0001432934202D04FF0007203E04FF4001224
:1026E00000E00222194B5A60002380F82030836AF0
:1026F000002BBFD09847BDE72022F3E74FF40072CC
:10270000F0E74FF40052EDE74FF40032EAE7082318
:102710008B401342AED015F0080FABD0236823F0E6
:102720000E032360026CC16B012303FA02F24A60BC
:10273000836380F82130002380F82030036B002B66
:1027400098D0984796E700BF08000240000002407A
:1027500070B582B00024A446A2E07E4DAB4210D0FA
:1027600007D97D4DAB420CD005F58035AB4208D082
:1027700013E0A5F58015AB4203D005F57025AB42FB
:1027800007D18B68002B55D0012B4ED04261082415
:1027900003E0A5F58015AB42F3D0BEF1FF0F4BD897
:1027A00006464FEA8C0233680F25954023EA05035D
:1027B00004FA02F2134333604B6813F0805F6DD06C
:1027C000664B9A6942F001029A619B6903F001032A
:1027D0000193019B4FEA9C02951C614B53F82560C5
:1027E0000CF00305AD000F23AB4026EA03065D4B5A
:1027F000984228D003F58063984200F08D8003F55D
:102800008063984200F08A8003F58063984218D074
:10281000042319E0CC68C0E7CC680434BDE7CC6879
:102820000834BAE7CC680C34B7E702610824B4E78F
:102830000024B2E70424B0E7061DACF108029200C0
:10284000B1E7032300E00023AB4033430232444DA1
:1028500045F822304B6813F4801F61D0424A9368D8
:1028600043EA0E0393604B6813F4001F5ED03E4AA8
:10287000D36843EA0E03D3604B6813F4003F5BD088
:10288000394A536843EA0E0353604B6813F4803FA0
:1028900058D0354A136843EA0E0313600CF1010C5B
:1028A0000B6833FA0CF253D0012202FA0CF203EA5D
:1028B000020E32EA0303F1D14B68122B3FF64DAF03
:1028C000122B3FF66AAF01A555F823F083270008C5
:1028D000152800081F280008312800089B27000839
:1028E0009B2700089B2700089B2700089B270008C0
:1028F0009B2700089B2700089B2700089B270008B0
:102900009B2700089B2700089B2700089B2700089F
:102910001928000825280008012395E7022393E7DA
:10292000114A936823EA0E0393609CE70E4AD3682A
:1029300023EA0E03D3609FE70B4A536823EA0E0392
:102940005360A2E7084A136823EA0E031360A5E761
:1029500002B070BD000022100000311000100240D3
:102960000000014000080140000401400AB101617B
:10297000704709040161704782B0084B1B68084A20
:10298000A2FB03235B0A00FB03F3019300BF019B3F
:102990005A1E0192002BF9D102B0704704000020AA
:1029A000D34D6210002800F0F18170B582B004466A
:1029B000036813F0010F2CD0994B5B6803F00C03F4
:1029C000042B1DD0964B5B6803F00C03082B12D030
:1029D0006368B3F5803F41D0002B55D103F18043AC
:1029E00003F504331A6822F480321A601A6822F45C
:1029F00080221A6037E08A4B5B6813F4803FE7D08F
:102A0000874B1B6813F4003F03D06368002B00F072
:102A1000BF81236813F0020F75D0814B5B6813F000
:102A20000C0F5FD07E4B5B6803F00C03082B54D077
:102A30002369002B00F08A807A4B01221A60FFF78D
:102A4000E5FC0546764B1B6813F0020F75D1FFF7C6
:102A5000DDFC401B0228F5D903209EE1704A136873
:102A600043F480331360636843B3FFF7CFFC05463C
:102A70006B4B1B6813F4003FCBD1FFF7C7FC401B27
:102A80006428F5D9032088E1B3F5A02F09D0644B61
:102A90001A6822F480321A601A6822F480221A60BE
:102AA000E1E703F18043A3F53C331A6842F4802246
:102AB0001A601A6842F480321A60D4E7FFF7A6FC65
:102AC0000546574B1B6813F4003FA2D0FFF79EFC4E
:102AD000401B6428F5D903205FE1514B5B6813F478
:102AE000803FA5D14E4B1B6813F0020F03D0236922
:102AF000012B40F04F814A4A136823F0F8036169C3
:102B000043EAC1031360236813F0080F33D0A369AD
:102B1000002B5CD0434B0122C3F88024FFF776FCE6
:102B200005463F4B5B6A13F0020F21D1FFF76EFCA5
:102B3000401B0228F5D903202FE1394A136823F0FE
:102B4000F803616943EAC1031360DCE7354B0022F7
:102B50001A60FFF75BFC0546314B1B6813F0020F50
:102B6000D1D0FFF753FC401B0228F5D9032014E114
:102B70000120FFF701FF236813F0040F00F0968097
:102B8000274BDB6913F0805F34D1254BDA6942F0C3
:102B90008052DA61DB6903F080530193019B0125C8
:102BA000214B1B6813F4807F26D0E368012B3DD0B6
:102BB000002B53D103F1804303F504331A6A22F04A
:102BC00001021A621A6A22F004021A6233E0154BFB
:102BD0000022C3F88024FFF719FC0546104B5B6AFE
:102BE00013F0020FC7D0FFF711FC401B0228F5D9E4
:102BF0000320D2E00025D3E70B4A136843F4807327
:102C00001360FFF703FC0646074B1B6813F4807F35
:102C1000CBD1FFF7FBFB801B6428F5D90320BCE078
:102C20000010024000004242007000405F4A136AF8
:102C300043F001031362E36833B3FFF7E7FB064693
:102C40005A4B1B6A13F0020F2FD1FFF7DFFB801BDB
:102C500041F288339842F3D903209EE0052B09D036
:102C6000524B1A6A22F001021A621A6A22F0040216
:102C70001A62E0E74D4B1A6A42F004021A621A6ABD
:102C800042F001021A62D6E7FFF7C0FB0646474B47
:102C90001B6A13F0020F08D0FFF7B8FB801B41F24C
:102CA00088339842F3D9032077E0E5B9E369002B34
:102CB00072D03E4A526802F00C02082A56D0022B0B
:102CC00017D03B4B00221A66FFF7A0FB0446374B98
:102CD0001B6813F0007F47D0FFF798FB001B02280A
:102CE000F5D9032059E0314AD36923F08053D361E9
:102CF000DCE72F4B00221A66FFF788FB05462B4BBB
:102D00001B6813F0007F06D0FFF780FB401B0228F2
:102D1000F5D9032041E0236AB3F5803F1AD0234957
:102D20004B6823F47413226A606A024313434B60B6
:102D30001F4B01221A66FFF769FB04461B4B1B68F9
:102D400013F0007F0ED1FFF761FB001B0228F5D9BD
:102D5000032022E0154A536823F40033A1680B4393
:102D60005360DCE7002018E0002016E0012B16D0AD
:102D70000E4B5B6803F48031226A914211D103F457
:102D80007013626A93420ED1002006E00120704762
:102D9000012002E0012000E0002002B070BD01200F
:102DA000FBE70120F9E70120F7E700BF0010024030
:102DB000000042420F4B5B6803F00C02082A01D06E
:102DC0000D487047C3F383420C49885C13F4803F7D
:102DD0000BD0084B5B68C3F34043094AD35C064AF7
:102DE00002FB00F0B0FBF3F07047064B03FB00F072
:102DF000704700BF0010024000127A00BC2001089A
:102E0000B820010800093D00002800F0A08070B53E
:102E10000D460446524B1B6803F007038B420BD24E
:102E20004F4A136823F007030B431360136803F042
:102E300007038B4240F08D80236813F0020F17D0F8
:102E400013F0040F04D0474A536843F4E06353601F
:102E5000236813F0080F04D0424A536843F46053C8
:102E60005360404A536823F0F003A1680B4353605A
:102E7000236813F0010F31D06368012B20D0022B9F
:102E800025D0384A126812F0020F64D035494A68DA
:102E900022F0030213434B60FFF7B8FA0646314BAA
:102EA0005B6803F00C036268B3EB820F16D0FFF788
:102EB000ADFA801B41F288339842F0D9032045E0F7
:102EC000284A126812F4003FE0D101203EE0254A72
:102ED000126812F0007FD9D1012037E0204B1B6827
:102EE00003F00703AB420AD91D4A136823F0070316
:102EF0002B431360136803F00703AB422DD1236803
:102F000013F0040F06D0174A536823F4E063E16816
:102F10000B435360236813F0080F07D0114A53681E
:102F200023F46053216943EAC1035360FFF742FF72
:102F30000C4B5B68C3F303130B4AD35CD8400B4BB9
:102F400018600B4B1868FFF71DFA002070BD0120B8
:102F500070470120FAE70120F8E70120F6E700BFFB
:102F60000020024000100240A820010804000020B8
:102F70000C000020002856D010B50446436A33B92F
:102F80004368B3F5827F05D00023C36102E00023CC
:102F9000036143610023A36294F85130002B3CD0BD
:102FA000022384F851302268136823F04003136031
:102FB000636803F48273A26802F404421343E26874
:102FC00002F400621343226902F0020213436269B1
:102FD00002F001021343A26902F400721343E26992
:102FE00002F038021343226A02F080021343A26AFD
:102FF00002F40052216813430B60638B226803F0D4
:10300000040353602268D36923F40063D361002072
:103010006065012384F8513010BD84F8503020469B
:10302000FFF7C4F8BCE701207047704710B584B0C3
:10303000044602685168936803F0410001285AD0A1
:1030400013F0020F02D011F0800F5BD113F0600F6C
:103050005BD011F0200F58D013F0400F0FD094F830
:103060005100C0B2032852D0606D40F0040060658A
:1030700000200190D068019090680190019813F0B1
:10308000200F0CD0636D43F00103636500230393AD
:1030900093680393136823F040031360039B636DED
:1030A000002B32D02268536823F0E00353600123E1
:1030B00084F8513011F0030F31D02268536823F0A7
:1030C00003035360E36C4BB1174A5A63E06CFFF79C
:1030D00051FA18B1636D43F040036365A36CA3B16B
:1030E000114A5A63A06CFFF745FA70B1636D43F063
:1030F0004003636509E011F0400FA1D0236C204626
:10310000984702E0636C2046984704B010BD002346
:103110000293D368029393680293029BF5E72046DB
:10312000FFF783FFF1E700BF2D31000808B5406AC3
:103130000023C387C386FFF778FF08BDFFF720F998
:103140000B480C490C4A002302E0D458C450043305
:10315000C4188C42F9D3094A094C002301E01360DA
:103160000432A242FBD309F0CBFDFEF7EDFF70471E
:1031700000000020C8060020803C0108C80600208E
:10318000140B0020FEE700000B460146184608F02D
:1031900029BF00BF102370B5002484B002930368D8
:1031A00015469E6912686B46009401940394B047DB
:1031B0009DF8043003F00603062B09BF01202046CA
:1031C000009B2B6004B070BD009890420CBF06209D
:1031D0000120704710B50446024B036000F080FEEA
:1031E000204610BD0421010810B50446044B0360BD
:1031F00000F076FE2046082100F04AF8204610BD77
:10320000042101082DE9F041069FDDE908158F42F0
:10321000044690461E460CD03146204600F064FE1F
:1032200020B101232F6085F80480AB710020BDE838
:10323000F081079900F058FE0028EDD0002085F8B5
:103240000580BDE8F08100BF38B515461C4600F08A
:103250004BFE00B938BD082206232560E2602371C9
:1032600038BD00BF2DE9F041064617461D460C4605
:1032700000F03AFE48B9032D07D823683A46314694
:103280002046BDE8F0415B691847BDE8F08100BF0A
:1032900007F004BA1EB400F08BF81EBCFDF7E0FA8C
:1032A000F0B51D4603780C46472B83B019D000209B
:1032B000244E336801909B683046984778B10227C6
:1032C000019B1B6801932368204631461C6901AAB3
:1032D0000123A04728BB0746384603B0F0BD0127AD
:1032E000F1E743784E2BE2D18378552BDFD1C378B9
:1032F000432BDCD10379462B18D0432BD7D143790C
:103300002B2BD4D183792B2BD1D1C379012BCED8C0
:103310000BBF50F8200C50F8206C50F8786C5830E7
:10332000C7E73846019B2B6003B0F0BD43794F2BB4
:10333000BDD18379522BBAD1C0790028B7D1024EC2
:10334000B7E700BFD0210108A421010810B5044649
:1033500000F004F9224612F82039472B04D0836884
:1033600023BB8260012010BD63784E2BF7D1A37878
:10337000552BF4D1E378432BF1D12379432BEED1B4
:1033800063792B2BEBD1A3792B2BE8D1E379012B9C
:10339000E5D854F8043C0133012B44F8043CE1D156
:1033A000836844F8083C8260012010BD00F0EAFB0D
:1033B00008B500F0D3F8836883B393F82020472A38
:1033C00004D00022826003F1200008BD93F8212080
:1033D0004E2AF6D193F82220552AF2D193F82320D1
:1033E000432AEED193F82420432AEAD193F82520EA
:1033F0002B2AE6D193F826202B2AE2D193F8272016
:10340000012ADED8DA69013ADA61002ADBD100222A
:10341000996981609A6103F1200008BD00F0B2FB58
:1034200038B5044600F09AF8224612F820390568AB
:10343000472B03D08DBB0260284638BD63784E2BE6
:10344000F8D1A378552BF5D1E378432BF2D123792A
:10345000432BEFD163792B2BECD1A3792B2BE9D123
:10346000E379012BE6D854F80C3C002B12DB013336
:1034700044F80C3C4368954203F1FF33436018BFA6
:1034800044F8105C656A18BF0260204607F01EFC15
:10349000284638BDC3F10103EAE700F073FB00BF23
:1034A00008B500F057F80246006870B390F8201095
:1034B000472906D0BDE8084000212030116007F000
:1034C00007BC90F821104E29F4D190F8221055290C
:1034D000F0D190F823104329ECD190F8241043291F
:1034E000E8D190F825102B29E4D190F826102B294B
:1034F000E0D190F827100129DCD84169002905DBCB
:10350000013908D04B1C0DD0416108BD0131FBD100
:1035100003691360F8E70169BDE8084020301160D5
:1035200007F0D6BB00F02EFB704700BF704700BF0E
:1035300000487047282101080048704738210108D9
:1035400010B504460421FFF7A3FE204610BD00BFBE
:10355000704700BF00487047DC07002000487047F4
:10356000DC070020024A03490348FFF70DBE00BFF5
:103570000000002051350008DC070020502870B5FD
:103580001DD0844600F00F000C2855D8DFE800F06D
:10359000074426071E545454542A22071E0010467E
:1035A00050F8046B4EB10CF07004102C08BF11469B
:1035B0001CF0800F0E4418BF36681E6070BDD01C12
:1035C00020F0030050F8046B1E6070BD104650F8E8
:1035D000086BE7E7104630F9026BE3E7104630F876
:1035E000026BDFE700261046344610F8015B05F059
:1035F0007F0E0EFA04FE15F0800F46EA0E0604F167
:103600000704F2D11F2CCDD86D06CBD54FF0FF3576
:1036100005FA04F42643C6E700261046344610F89F
:10362000015B05F07F0E0EFA04FE2D0646EA0E063B
:1036300004F10704F3D4B5E708F046F8FF2808B50D
:10364000034612D003F07003302B084613D005D880
:10365000202B09D1BDE8084008F033B8402B06D133
:10366000BDE8084008F01AB803D8002008BD502B68
:10367000FBD008F029F8BDE8084008F01FB800BFEB
:10368000F8B506460C46154608B108F007F828605C
:1036900014F8017BFF2F28D16860204610F8012B19
:1036A000FF2A32D00024102322462B7510F8011B6C
:1036B00001F07F039340090644EA030402F1070284
:1036C000F4D4031900242246EB6010F8013B6B751B
:1036D00010F8011B01F07F0393401C430B0602F11D
:1036E0000702F5D404442C61F8BD31463846FFF793
:1036F000A5FF224601462B1D3846FFF73FFF044633
:10370000204610F8012BFF2ACCD100232A75D9E7D7
:1037100000232DE9F04F164600F0030295B0012A70
:103720000F460A9313D0022A08D13146384607F0D3
:103730009DFF40B9082015B0BDE8F08F002A00F0C9
:10374000988007F0C1FF092015B0BDE8F08F10F098
:10375000080400F09F800EAA0292009244F0020238
:1037600003920E910C221946304607F0DDFA3046DE
:1037700007F09AFF04900028D7D0029A04993046A7
:10378000FFF77EFF9DF84C30814631461846069380
:10379000FFF754FF014600230C460DF13408059154
:1037A0000F2219463046CDF80080109407F096FAA3
:1037B0000D9BDDF848B023F00103D94503F1FF3537
:1037C00035D29DF84DA00E9C00215046FFF736FFE4
:1037D0004A4601460BAB5046FFF7D0FE002181461A
:1037E0005046FFF72BFF4A4601460CAB5046FFF709
:1037F000C5FE002181465046FFF720FF4A4601469C
:1038000043465046FFF7BAFE4FF0000C8146624631
:1038100019F8011B01F07F0393404CEA030C0B06DF
:1038200002F10702F4D40B9B2344AB421AD94FF0A8
:1038300000090123CA46039AD10740F1838000237F
:10384000304619460D22CDF800800A9C07F046FA52
:10385000049B0620C7E90B3A0D9B7C62C7F82890B1
:103860003B6268E70C9A1344AB4275D8CB45ABD8A2
:10387000DDE702073FF559AF012303930EAB029337
:103880000023029A3046009219460C220E9707F048
:103890004BFA6CE70EAB1A4600920D6A02930D22AA
:1038A00023462146304607F019FA0E9B9D4202D06E
:1038B00002230393E4E7029A23462146009230460E
:1038C0000C220E9707F030FAD7E90A43D7F830A058
:1038D000BAF1000F3DD0A14604930DF13408B9F1BF
:1038E000000FC0F20C810325002330461A4619460A
:1038F000CDF800800D9707F017FA00230122194632
:103900003046CDF800800D9407F00EFA00230F2208
:1039100019463046CDF8008007F0E0F900230D9AF3
:10392000304602F0010242EA0A020D9219460F22C5
:10393000CDF8008007F0F8F9022D64D0072015B00B
:10394000BDE8F08F039A120761D4012B18BF4C46D3
:10395000C5D1384606F064FF0D9B6046002B3FF44E
:10396000E4AE0F9A03EB020A002800F0EB800CF1A2
:10397000FF300BEB0004BAF1000F3FF4D6AE039B0F
:1039800013F00803089300F0E280784B3B60784B1B
:103990007B600023DDF818B0CDF818A09A460BF034
:1039A00007020992079600210A4614F8010B00F05D
:1039B0007F039340050641EA030102F10702F4D4B4
:1039C0001F2A05D8400603D5012393405B421943C3
:1039D0000025894626462A4616F8010B00F07F038B
:1039E00093401D43030602F10702F5D41F2A18D89D
:1039F000460616D5012393405B421D4319BB4FF089
:103A0000010A2C44CFE73846FFF7A0FC96E7012BCC
:103A100000F0AA80B9F1000FC0F2A2804C46032545
:103A200062E781B94FF0010A002DEAD15346DDE982
:103A300006A6002B3FF479AE039BD8073FF575AE81
:103A40000024022550E700290FDC17B1089B002B4A
:103A50003CD06FF04043119A5B1A52F82330002B90
:103A6000E2D10323DDE906A6E5E6BBF1FF0F67D04F
:103A7000099A042A3FF665AE01A353F822F000BF6D
:103A8000953A000843370008C73A0008953A0008FD
:103A9000C13A00088B005B42119A05991A445846B6
:103AA0004346FFF76BFD0D990029DAD0002FBBD0FC
:103AB000002238460AABFFF7F3FB0028B4D0D0E76A
:103AC000CB005B42E8E74B005B42E5E76FF0404329
:103AD000119E5B1A0A9A56F823100D9206EB830684
:103AE00021B9BEE756F8041F0029BAD04346002288
:103AF00038463144FFF7D4FB0028F3D094E7029A0C
:103B000004993046FFF7BCFD31469DF84C00FFF7A5
:103B100095FD6FF04041119A091B52F8213005467E
:103B200002EB810033B10246002352F8041F013337
:103B30000029FAD1C7E90A35042378633B63D2E64A
:103B40000023A9E7BAF1000F7FF476AFEDE5FB792A
:103B5000012B0CBF57F8203C07F158030A9318E7D4
:103B600000F01EF8FFF75CFC00F00CF8474E5543E0
:103B7000464F520008B5804707F0A6FDFFF750FCFE
:103B800007F0A2FD08B5034B1868BFF35B8FFFF782
:103B9000F1FF00BF1400002008B58047FFF7F2FFD7
:103BA00008B5034B1868BFF35B8FFFF7F5FF00BF45
:103BB00010000020024B1868BFF35B8F704700BFF6
:103BC00014000020024B1868BFF35B8F704700BFE2
:103BD00010000020012810B51AD8BFF35B8FA1F1A7
:103BE000280353E8002F013A43E800200028F8D1C9
:103BF000BFF35B8F5AB951F81C3C01F158040BB16B
:103C0000204698472046BDE8104006F0C7BD10BDCD
:103C100051F8140CFFF7AEFF002310B540E91E1257
:103C200040F8803C0446FFF7CDFF44F8700CFFF7E6
:103C3000C1FF034606490748074A44F8580C44F8B0
:103C4000541C44F8502CA4F1800044F86C3C10BD86
:103C5000432B2B00474E5543D53B000870B5044617
:103C60000E461546FFF77AFC034620465C6831464F
:103C700001342A465C60FFF7CFFF0123044644F875
:103C8000283B2046FCF7DAFD2046FFF7C9FBFFF78B
:103C900079FF00BF10B5FFF761FCD0E900420132A7
:103CA000426064B194F82020472A0AD000220260C2
:103CB00020342046FCF7E6FD2046FFF7B1FBFFF776
:103CC00061FF94F821204E2AF0D194F82220552A41
:103CD000ECD194F82320432AE8D194F82420432AF5
:103CE000E4D194F825202B2AE0D194F826202B2A21
:103CF000DCD194F82720012AD8D862695242626147
:103D0000D6E700BF0268D30706D4427803462AB933
:103D1000012210465A7070470020704710B50420E9
:103D200006F024FD044600F029F82046014A024925
:103D3000FFF794FF4D3D0008102201080023437057
:103D4000704700BF01230360704700BF10B50446F1
:103D5000024B0360FFF7E8FB204610BD2422010858
:103D600010B50446044B0360FFF7DEFB2046042138
:103D7000FFF78EFA204610BD24220108014B036094
:103D8000704700BF24220108012838BF012010B568
:103D90000446204607F0A0FC00B110BD06F0C6FDA9
:103DA00008B18047F5E7042006F0E0FC024B034A27
:103DB00003490360FFF752FFD02301083D46000886
:103DC000BC23010810B50446024B0360FFF702FA5A
:103DD000204610BD6C22010810B50446044B036058
:103DE000FFF7F8F920460C21FFF752FA204610BDE4
:103DF0006C22010870B582B0069E044696420D46BC
:103E000009D0A068294604680696246AA44602B030
:103E1000BDE87040604719460192009300F064F8D5
:103E2000DDE900320028ECD0062002B070BD00BFF2
:103E30002DE9F04F0D4681B01946DDE90A8BDDE929
:103E40000CA91C460746164600F04EF880B9D0452E
:103E500027D0B86823460468CDE90CA9CDE90A8BC0
:103E6000E46932462946A44601B0BDE8F04F6047F8
:103E7000002DC9F8008089F804600CDBA844C24515
:103E800014BF4FF001084FF0060889F806800020A3
:103E900001B0BDE8F08F0235F9D1012389F8063071
:103EA000F5E75946384600F01FF80028D1D089F8C8
:103EB0000560ECE72DE9F04106460F4614461D4625
:103EC000FFF7C2F948B9B0682B4605682246AC69CD
:103ED0003946A446BDE8F0416047BDE8F08100BF27
:103EE000704700BF00207047814211D008B540687C
:103EF00003782A2B0AD049680B782A2B08BF013196
:103F0000FCF7F6FCB0FA80F0400908BD002008BDBF
:103F10000120704710B50446024B0360FFF75AF9C1
:103F2000204610BDE422010810B50446044B03608E
:103F3000FFF750F920461821FFF7AAF9204610BDD7
:103F4000E42201082DE9F04F83B0DDF830A00546EA
:103F5000524517468846994630D0EB685E1E05EB01
:103F6000C305FBB1EC68013E14F0020F4FEA2422B6
:103F700014D014F0010404D018F1030F0ED03B68E4
:103F80009A58A8684B46D0F800C0CDF800A041462A
:103F9000DCF820B03A44D847032807D8731CA5F1B1
:103FA0000805DFD1012003B0BDE8F08F002CFAD066
:103FB00040F00100C0B203B0BDE8F08F1946FFF732
:103FC00093FF0028C9D00620EDE700BF2DE9F04F90
:103FD00093B01F9C8A46A5680793E90648BF83688B
:103FE000DDF870B048BFA3601E9B0B909B45099203
:103FF00000F0728107990B98FFF776FF002840F0D8
:104000005781BAF1000F03DB1E9BA3EB0A0318468E
:104010004FF0010E0022CDF814A002238246099928
:10402000069241EA0E010A910C92CDF820E00B9A1B
:10403000D668771E002E7ED04FF0000902EBC60630
:104040000D93F168CDE90F99CA07A06848BFDBF866
:1040500000204FEA212311904ABFD358099A0A9AA7
:104060005B44BAF1000F08D09A452CBF002501250A
:10407000DDF820C0654500F09880890705D40599D2
:10408000023100F08F8002F0FD02B0680FAD0168D0
:1040900000931E9B039502931D9B0193CD69079B83
:1040A0000599A84763799DF841209DF84250134334
:1040B000062D8446637100F01981022D00F01681EF
:1040C000069A002A60D12268002A00F0A8800F9981
:1040D00091426DD0002900F0AF80032B94F8068048
:1040E00031D9D80702D5A06880072CD4B8F1010FC8
:1040F00038BF4FF00108012D38BF01255FFA88F85D
:10410000EDB285EA0803DBB2032B00F2848005EAF6
:104110000805EDB2032D00F24C8163790122C4F849
:104120000090A2710692042B36D0013F7B1CA6F1B1
:10413000080686D10D9B0C9A72B3012B2CD000225D
:104140000123089273E7B8F1000F37D0002DD8D1C2
:10415000B8F1030F40F2188118F0010F00F08580CC
:104160000B9B9B6899076BD488F00103DBB2032B90
:10417000D3D918F0020F84F8068035D04FF0000C28
:10418000604613B0BDE8F08F2268002A9FD10F99D6
:104190000029A2D1042BC8D1DDF818C0604613B0A5
:1041A000BDE8F08F8107C0D06DE701230C93BCE719
:1041B00022799DF840100A432271B4E7032D5FD99C
:1041C000E80713D485F00102D2B2032AA6D900224F
:1041D00006929DF8402005F0020321602271A5712E
:1041E000002BCBD1EA07C9D563799CE70B9880688F
:1041F0008007E7D505980028C0F2AA8005980244F8
:104200001E98904200F0E38085F00102D2B2032AAA
:1042100084D94FF00108032D21D90F99D7E70F9AC0
:104220009DF840102260217122B1E3B10B9A92688F
:10423000D207A5D5069076E700283FF474AF4CE787
:10424000059B0F9A002B76DB1E99D318994200F03C
:10425000948088F00103DBB2032B7FF65EAF454606
:1042600008F00203BBE706905FE788F00103DBB2CA
:10427000032B7FF652AF4FF0000C84F806807FE7E7
:10428000059800283CDB0598DDF878C00244944589
:1042900000F08B80002D7FF441AF0A1894457FF425
:1042A0003DAF06239DF8402021602271A37165E790
:1042B000099BBAF1000FC4F800B0237134DB1E9BD8
:1042C000D3445B4514BF4FF0010B4FF0060B4FF08A
:1042D000000C84F806B053E71D990B98FFF704FE15
:1042E00000283FF487AE099B637147E760460F9A49
:1042F0009DF8403022602371A57113B0BDE8F08FA6
:1043000002303FF40BAF1E9B07980093036805999A
:10431000D3F820801D9BC0478046002D50D1032834
:104320003FF61AAF0F9A09E01AF1020F7FF426AF99
:104330000123A37122E7059B02338AD01E9B0798B5
:104340000093036805991D6A1D9BA8470546D8E69A
:10435000059802303FF436AF1E9B07980093036820
:104360000599D3F820801D9BC04785EA0003DBB286
:10437000032B80467FF6CBAE4FE788F00603DBB217
:10438000032B0BD80625C2E6059B0A46002B27DB2C
:10439000059BCB181E9999427FF4BFAE06239DF86A
:1043A000401022602171A371E8E6E5B90623A371EC
:1043B000E4E6002202234FF0010C2260A371DFE645
:1043C00085EA0003DBB2032B3FF649AF9FE685F099
:1043D0000603DBB2032B3FF6FAAE4FF0060896E673
:1043E0000233ABD199E64FF0060838E72DE9F04FDC
:1043F00089B0044691469846CDE90210FEF724FFA5
:10440000002871D1D8F80830DA06039A48BFA368AB
:10441000D468661E002C49D00025039A02EBC40420
:1044200003F00102CDE90023019BE268CDE90635E6
:10443000009B02F002073B4304958DF8145002F0F4
:10444000010A2ED0B9F1000F38D01212BAF1000FC4
:1044500002D0D9F800309A584A44A06804AB0168E9
:10446000D1F818B00299D847D8B1079B082B27D0AC
:104470009DF81430032B04D91FB923F002038DF8E3
:104480001430D8F80C1009B3D8F80030049A9342CD
:1044900042D16BB398F804309DF81420134388F888
:1044A0000430013E771CA4F10804BDD198F8040043
:1044B000003818BF012009B0BDE8F08F4A46CCE7AC
:1044C000BAF1000FD4D0A3680793D1E704AB0FCBA8
:1044D00088E80F0098F80430032B05D9980714D505
:1044E000039B9B68D907DCD4012009B0BDE8F08F9D
:1044F0000798082805D0082903D0FFF7F5FC002805
:10450000C8D1022388F80430EEE7DA07ECD5039B24
:104510009B689B07C5D4E7E7002202230120C8F867
:10452000002088F80430E0E770B53B4B82B01A7881
:10453000002A41D101241C7006F0EAF9002831D08C
:1045400000224FF0FF3644681146237801962A2B4B
:1045500008BF013401AB204606F042F82F4D064655
:104560002B683022DB6801212D4808F06DF8019B93
:1045700093B12B682046D96807F07CFE2B68022295
:10458000DB680121274808F05FF8019B13B930462A
:1045900007F0AAF8FFF77EFB2B683046D96807F0D2
:1045A00069FEEBE71D4B2D221B682146DB681E4888
:1045B00008F04AF807F088F8184B1D221B68012103
:1045C000DB681A4808F040F807F07EF801290C462D
:1045D00019D1FEF725FF03689B6898472B680646AC
:1045E0000B222146DB68124808F02EF82B68304673
:1045F000D96807F03FFE2B680A20D96807F0CCFD88
:10460000FEF74EFFD6E7FEF70BFFFEF749FFD1E7B7
:10461000FEF746FFFEF73EFEE807002034040020C8
:10462000282301085C2301086023010808230108EE
:1046300090230108004870479C23010810B50446E8
:10464000024B0360FEF770FF204610BDD023010827
:1046500010B50446044B0360FEF766FF20460421B4
:10466000FEF716FE204610BDD0230108312970B593
:10467000864643D8282928D80A291ED90120A1F125
:104680000B04E4B2A040304C0440002C4DD0D2B119
:10469000DEE90540844216DA0026DEF8105004EB0D
:1046A000840C05EB8C00013446608660CEF8144023
:1046B00005F82C10C0E9032370BD042930D9A1F1FD
:1046C00009000128E3D9002070BDA1F129000828C4
:1046D000F9D801A454F820F09146000825470008B5
:1046E00021470008C74600082147000891460008F6
:1046F000914600088F46000825470008A1F13400C4
:10470000C0B21D28DFD84FF0010C0CFA00FC0F4896
:104710000CEA00000028BAD10D480CEA000070B184
:10472000002AD0D0002BB3D1CDE710F47F1FAFD13A
:10473000084C0440002CC6D0002AF3D1C3E71CF07B
:10474000505CC0D0A4E700BFFE1F802F0711C70137
:10475000F82E000A0100400070B5C2688646117844
:104760006E2924D03039CBB2092B2AD8002600205C
:104770006FF00045144C06E01946EB1AA4FB03C386
:10478000B0EBD30F10DC0132CEF80C20137800EB25
:104790008000303B5FFA83FCBCF1090F01EB400065
:1047A000EAD906B1404270BD4FF0FF3070BD531CD6
:1047B000C36051783039CAB2092A02D81A46012694
:1047C000D5E7002070BD00BFCDCCCCCC10B50446E1
:1047D00029B9C3681A786AB15A1CC2601978682965
:1047E00017D0762906D12046FFF7B6FFE3681A787E
:1047F0005F2A01D0002010BD01332046E360FFF79F
:10480000ABFFE3681A785F2AF4D101200344E36028
:1048100010BD2046FFF7A0FFF3E700BFC3681A787A
:104820005F2A01D00120704710B55A1CC2605A7827
:1048300004465F2A04D0FFF78FFFC043C00F10BDAE
:104840000233C360FFF788FF002807DB092801DC7B
:10485000012010BDE3681A785F2A01D0002010BD46
:104860000133E360F4E700BF002966D038B50546A0
:104870000C46A368012B03F1010337DCD5F81C01BA
:10488000B0F5806F32DC2278A360531E502B2DD8F8
:10489000DFE803F03131314C2C2C2D2D3131313109
:1048A00031313131313131313131312C31313131FD
:1048B000313131313131424231312C3131313129D3
:1048C00031313131312C2D313131313131313131E1
:1048D00031313131312C2C31292929292C313131F7
:1048E000313131313100E468002CC2D138BD246946
:1048F000002CBED1FAE7E168431CC5F81C312846FC
:10490000FFF7B2FF28462169FFF7AEFFD5F81C314B
:10491000013BC5F81C3138BDE1680B78052BEBD1A4
:10492000D5F838310133C5F83831E5E7D5F84431E9
:10493000E1680133C5F84431DEE7704703460020E3
:104940002BB909E0DA682AB11B6901301BB11A786A
:104950002F2AF7D0704770471846704720B909E0F2
:1049600039B10069013930B103782F2BF8D000201C
:104970007047C06870477047F0B514465268A56824
:104980004B1C1344AB420E46074683B011D8E56872
:104990006DB963682068324618443946FCF786F8DA
:1049A000D4E9003233449D5463683344636003B0F8
:1049B000F0BDE268002AFAD155B16D00AB42FCD8D7
:1049C0002946206807F058F938B12060A560DEE775
:1049D000022B4FF00205F0D8F2E70190206806F0B4
:1049E00083FE0122019BE26023606360A360DEE737
:1049F0000378722B07D0562B05D04B2B03D0442BBA
:104A000003D000207047012070474078A0F1770361
:104A1000012BF8D900F0DF00A0F14F00B0FA80F0D0
:104A20004009704770B50D46D0F800110446FF29C3
:104A300006D04B1CC4F80031655484F8045170BD95
:104A40000026D0E9423280F8FF60984701233146C2
:104A5000D4F82821C4F800311A44C4F82821655438
:104A600084F8045170BD00BFD0F810318BB15A6882
:104A7000CB681069002B0BDB20B906E03BB1006965
:104A8000013B10B102782F2AF8D000207047C0688F
:104A900070470123C0F81831F7E700BF00293FD065
:104AA0002DE9F04105460C464FF001081D4F1E4E02
:104AB0002378082B08D8082B12D8DFE803F0191147
:104AC00011111126191616002C2B14D9323BDBB20A
:104AD0001B2B05D808FA03F23A4209D1012B04D066
:104AE0002846E168FFF7DAFF18B92469002CDFD106
:104AF0000020BDE8F081172BF2D9183BDBB226FA73
:104B000003F3DB07ECD50020F3E721462846FFF747
:104B1000ABFF0028ECD003782F2BEAD00020E8E789
:104B2000002070470100E30C018010002DE9F041E6
:104B3000044608460D4608F06DF940B3013D4FF0BC
:104B40000008D4F800112F1809E00B46BD4201F10E
:104B50000101C4F80011E65484F8046117D0FF295C
:104B600015F8016FF1D1D4E94232204684F8FF8074
:104B7000984701210023D4F82821BD420A44C4F8F3
:104B80002821C4F80011E65484F80461E7D1BDE897
:104B9000F08100BF38B5C2681378542B27D1531C5D
:104BA000C360527804465F2A23D06E2A1FD0FFF7D5
:104BB000D3FD411C1BD4E3681A785F2A17D1D4E9CE
:104BC000052001338242E36011DA4FF0000E052523
:104BD000236902EB820C03EB8C000132C0F804E085
:104BE000C0F808E0626103F82C50C16038BD0020B5
:104BF00038BD0021E3E700BF2DE9F04188B00A4647
:104C000004461A4901A807F06DFD01A808F002F951
:104C100040B301AD4FF00008D4F800112F1809E09F
:104C20000B46AF4201F10101C4F80011E65484F8CB
:104C3000046117D0FF2915F8016BF1D1D4E9423294
:104C4000204684F8FF80984701210023D4F82821CA
:104C5000AF420A44C4F82821C4F80011E65484F88D
:104C60000461E7D108B0BDE8F08100BFDC23010892
:104C700070B50446FFF770FD051E46DDE668636803
:104C80009B1B9D423EDCA26873195207E36004D56A
:104C9000725D242A04BF0133E360092D22DD08225E
:104CA0003046294907F03EFE30B9337A2E2B2ED0FC
:104CB0005F2B2CD0242B2AD0D4E905329A4221DD57
:104CC0000022206903EB830100EB81000133426085
:104CD0008260636100230370C0E903654360836001
:104CE000A06270BDD4E9053293420BDA002220693C
:104CF00003EB830100EB810001334260826063615A
:104D0000002EE7D10020A06270BD002070BD737A34
:104D10004E2BD1D1E26A6369A1691632521B8B42D4
:104D2000E262EFDA03EB83000133636115210023B4
:104D30002269064D860002EB800043608360935534
:104D4000C0E90351DFE700BFE0230108EC230108BD
:104D50002DE9F843C3681A78532A26D15A1CC26039
:104D60005A7804464AB39A1CC2605A785F2A49D0DE
:104D7000A2F13000C3B2092B1BD8002106E0E0608D
:104D800012785F2A34D01946A2F13000C0B201EB8C
:104D9000C103092802EB830320D8303B994204D891
:104DA000E2681178501C0029E9D100252846BDE8A9
:104DB000F883A2F14103192BDFD9A36813F008038C
:104DC00022D0191E18BF0121454B03F1C4051878E4
:104DD000904221D01C33AB42F9D1E6E7A2F1410366
:104DE000192BE2D801EBC10302EB8303373BD5E774
:104DF0000133226A9A42D8D9E26952F823502846F0
:104E0000BDE8F8830023F4E70029DAD0E0680078F1
:104E100043380128D5D8D7E75E69002E59D0D4E9A8
:104E20000525AA42D3F8188058DA4FF0000E4FF04B
:104E30001809276902EB820C07EB8C000132C0F8DD
:104E400004E0C0F808E0626107F82C90C0E903684C
:104E5000A06200293AD0D3E90371E36AAA420B4465
:104E6000E36239DA00264FF0180C236902EB820066
:104E700003EB800501326E60AE60626103F820C012
:104E8000C5E90371E3681A78422A8FD1A66A013313
:104E9000E3602046FFF7ECFE2A4603464D212046FC
:104EA000FFF7E4FBE36805461A78422AEFD0A662D2
:104EB00000283FF47AAFD4E908329342BFF675AFC9
:104EC000E1695A1C41F8230022626FE7D3E90171BE
:104ED000C3E7D4E90525BCE70025D3E70020B7E701
:104EE000942C01082DE9F043C268044683B01046B3
:104EF000FFF77EFD002862D113785A2B33D82F2B71
:104F000040F28D80303B2A2B00F28980DFE813F0DD
:104F10008900890089008900890089008900890049
:104F20008900890087008700870087008700870045
:104F30008700C20187004901B2008700AC009E00D3
:104F40008700870087008700870004028900970197
:104F5000890187007B0157012201AA018700870090
:104F6000870087008900613B5FFA83FCBCF1190F61
:104F700055D80121B94D01FA0CF10D40002D4AD050
:104F8000B74903EB830301EB8301D4E90535AB4259
:104F900080F2A9834FF0270E266903EB830C06EB02
:104FA0008C0501336860A860636106F82CE0E36A51
:104FB000E960496801320B44E260E36224E00022C8
:104FC000204601A901F0C2FA054640B3E368204635
:104FD0001B78462B1CD0FFF785FF2860F8B10378BB
:104FE0001F3B012B05D8019AC368C2602A68019251
:104FF0002B60019D9DB1D4E9083293420FDAE1693B
:105000005A1C41F823502262284603B0BDE8F083C1
:1050100000F0E6FBE1E7BCF1140F00F0F68200259A
:10502000F2E7204601F0D2FD05460190002DF6D0B2
:10503000D4E908329342F2DAE1695A1C41F823506C
:10504000019D2262284603B0BDE8F0830132E26090
:105050002046FFF747FF0023024626212046FFF7A0
:1050600005FB05460190E1E7204600F0B9FB054647
:105070000190DBE7531CE3605378002BCFD0931CE7
:10508000E3605378463B302BC9D801A151F823F097
:10509000855300081F5000081F5000081F500008CB
:1050A0001F5000081F5000081F5000081F50000824
:1050B0001F5000081F5000081F5000081F50000814
:1050C0001F5000081F500008495300081F500008D7
:1050D0001F5000081F5000081F5000081F500008F4
:1050E0001F5000081F5000081F5000081F500008E4
:1050F0001F5000081F5000081F5000081D540008D2
:105100001F500008F1530008CF5400089F540008B6
:105110006F5400081F5000083F540008EF55000866
:105120001F5000081F5000081F5000081F500008A3
:10513000BF5500081F500008A75500081F50000861
:105140001F500008775500084953000847550008CC
:10515000ED5400082046FFF71DFDE668054633784C
:105160000190492B7FF462AF636B002B40F0858286
:1051700000283FF454AFD4E908218A42BFF64FAF6C
:10518000E16941F82200013222623278493A012A6B
:1051900005D801362046E66000F04AFE03462A465E
:1051A0002AE00132E2602046FFF79CFE002302461F
:1051B00025212046FFF75AFA0546019036E7537835
:1051C000A3F13002092A05D95F2B03D0413B192BEB
:1051D00000F2468200212046FFF7BAFDE36805464B
:1051E0001A780190492A7FF40FAF0133E36020461B
:1051F00000F01EFE2A46034604212046FFF736FA39
:105200000546019012E70132E2602046FFF76AFE90
:105210000023024623212046FFF728FA0546019085
:1052200004E70132E2602046FFF75CFE00230246FD
:1052300022212046FFF71AFA05460190F6E60132D0
:10524000E2602046FFF74EFE00230246242120465E
:10525000FFF70CFA05460190E8E600BFFF7BEC0380
:10526000E83101080132E2602046FFF701FDE36802
:1052700005461A780190492A00F0D7812046FFF7A9
:1052800031FE2B46024621212046FFF7EFF9054665
:105290000190CBE6551CE56053785F2B00F0C3818D
:1052A000303B092B00F2CE812B469C460133E36054
:1052B000197830390929F8D9D4E905108142ACEBC5
:1052C0000202BFF6ACAE0020276901EB810E07EBAE
:1052D0008E06013182427060B0604FEA8E0E6161CD
:1052E0007FF79DAE7060B06007F80E00C6E903520C
:1052F0001D469CF801305F2B7FF491AE0135E560CF
:105300002046FFF7EFFD324603462A212046FFF7ED
:10531000ADF90546019089E601322046E260FFF7CB
:10532000E1FD054600283FF47AAE2046FFF7DAFD9E
:10533000034600283FF473AE2A462B212046FFF790
:1053400095F90546019071E60123256B20462363FC
:1053500000F03EFE25630246002344212046FFF76D
:1053600085F90546019000283FF459AEE3681A78A4
:10537000002A3FF454AE5A1CE2601B78452B7FF4A0
:105380004EAE55E6D4E905318B4280F2AE8100265F
:105390002C27216903EB830001EB800501336E604C
:1053A000AE60636101F8207093780195303BDBB209
:1053B000092B94BF012333462B8202D82046FFF7E6
:1053C000CBF92046FFF78EFDE86000283FF427AEBA
:1053D0002046FFF7C1F9E268137813B1531CE3606C
:1053E0001378A3F17303B3FA83F35B096B820BE6C3
:1053F000D4E905329342BFF612AE03EB83050133C5
:1054000063610E2100232269B948AE0002EB8505D5
:105410006B60AB609355C5E90301F5E5D4E905324E
:105420009342BFF6FCAD226903EB83050133AE0066
:10543000636104210023AF4802EB8505E8E7D4E966
:105440000532934280F24C8100202727226903EB2A
:10545000830102EB810501336860A860636102F893
:105460002170E36AA44E0433EE60E362CCE5D4E934
:105470000532934280F2348100202727226903EB12
:1054800083019E4E013302EB81056860A860636171
:1054900002F82170E36AEE600933E362B4E5D4E90F
:1054A0000532934280F21C8100202727226903EBFA
:1054B000830102EB810501336860A860636102F833
:1054C0002170E36A8E4E0A33EE60E3629CE5D4E914
:1054D0000532934280F20481226903EB83010020AC
:1054E0002727884E013302EB8105CEE793785F2BA7
:1054F00000F0E880D4E905329342BFF690AD002673
:105500004327226903EB830102EB810501336E60BF
:10551000AE602046636102F82170FFF71DF9E86074
:10552000E3681A785F2A7FF47AAD0133E36020469E
:10553000FFF7D8FC2A4603462D212046FFF796F8B0
:105540000546019072E5D4E90532934280F2C880A5
:1055500000202727226903EB830102EB8105013339
:105560006860A860636102F82170E36A664E0733E1
:10557000EE60E36248E5D4E90532934280F2B08000
:1055800000202727226903EB8301604E013302EBE1
:1055900081056860A860636102F82170E36AEE60CB
:1055A0000833E36230E52046FFF79CFC0023024607
:1055B0004C212046FFF75AF80546019036E5D4E91C
:1055C0000532934280F28C8000202727226903EB6A
:1055D000830102EB810501336860A860636102F812
:1055E0002170E36A4A4E1133EE60E3620CE5D4E9C0
:1055F0000532934274DA226903EB830100202727E6
:10560000444E013302EB8105C3E70132E2602046DC
:10561000FFF72EFB2B46024628212046FFF726F8EF
:105620000546019002E5002668E60133E360204666
:1056300000F0FEFB2A46034604212046FFF716F839
:1056400005461BE60123256B2046236300F0C0FCC2
:105650002563064600283FF4E2ACE5682B784AE66D
:10566000204601F0B3FA0546019000283FF4D7AC7C
:105670000378182B7FF4DCACC6E4731CE36020468F
:10568000D4F81490D4F82080E76A00F0D1FBE368E6
:105690001B78492B06D0E660C4F81490C4F820802B
:1056A000E762C3E4002D3FF4BAACD4E90813994291
:1056B000BFF6B5ACE269034642F8215001312A46F3
:1056C000216299E501230332256B2046E2602363C2
:1056D00000F07EFC2563054600287FF421AF9EE4A0
:1056E0000023DB68FFDEC368FFDE00231B70FFDEE4
:1056F0000C240108042401082C340108F0330108AB
:1057000018340108043401084034010854340108F5
:105710007C34010868340108002330B5C26883B0C6
:1057200001931378002B34D0044601AD4F2B0CD0DD
:1057300009D82E2B01D0452B0AD1019848B3036913
:10574000CBB103B030BD522B02D15378452BF4D0EE
:105750002046FFF7C7FB0246D8B100232E21204682
:10576000FEF784FF2860A0B1E26800F1100513780D
:10577000002BDBD1E1E7C26811782729E1D1D2689B
:10578000117C0929DDD1E16A5268891AE162C3609E
:10579000D7E7002003B030BD70B5C36805461A785E
:1057A0004A2A1AD081B12846FFF79CFB044690B1E3
:1057B0002846FFF7B1FF034668B122462846BDE8F8
:1057C00070402921FEF752BF28460C46FFF7A4FF80
:1057D00003460028F1D1002070BD0133C360E2E729
:1057E00070B50446806810F480200BD1E26BB2F5EE
:1057F000006F06D8511CE368E1631978462907D089
:10580000E26370BDE3681A78462A01D0002070BDBB
:105810005A1CE2605A780121592A04BF0233E3601E
:105820002046FFF7B9FFE5682B78522B1AD04F2B93
:105830000AD0452BA3680ABF01350020E5605B0351
:10584000DFD4E26B013ADBE72021E36A03336E1C0D
:105850000246E36220460023E660FEF707FF6B780E
:105860003546E6E7E36A1F210233F0E7F8B5C3687F
:1058700006461F78A7B35A1CC26093F801E01F7850
:10588000BEF1000F2ED148210022374D8B1A03EBB9
:10589000D37302EB630318012C5805EB031C20782B
:1058A000B84206D08CBF19465A1C8A42EED100205D
:1058B000F8BD60787045F5D1D6E905329342F6DA45
:1058C00000243225326903EB830102EB81000133AE
:1058D00044608460736102F82150C0F80CC0F8BDC8
:1058E000BE46D0E79A1CC260762F93F801E01FD124
:1058F000AEF13004E3B2092BC5D8FFF7B9F9D6E908
:1059000005318B420246D2DA0021356903EB830070
:105910008700013305EB8000416081607361002ADC
:10592000C5D0332341608160EB55C0E90342F8BD27
:10593000632FA8D1BEF1760FA5D1D0E90C34B3FA0C
:1059400083F35B094363FFF7CDFA736B024633B110
:10595000002335213046FEF789FE7463F8BD3421FB
:105960003046FEF783FEF8E7582D01082DE9F04197
:10597000C36804461A78A2F13001092950D9552A82
:1059800058D00FD8442A38D94C2A09D10133C360E2
:10599000FFF76EF9054618B12046FEF73FFF98B9AC
:1059A000002544E0A2F161011929F9D86F2A056B9D
:1059B00000F0F4802046FFF759FF2563054618B133
:1059C0000378322B00F0F380E3681A78422A2ED154
:1059D000A66A0133E3602046FFF74AF92A460346E8
:1059E0004D212046FEF742FEE36805461A78422A1A
:1059F000EFD02846A662BDE8F081422AD0D9816A5C
:105A0000002957D00878002852D1E26A0869024478
:105A1000E2621A78432A63D0442A4DD0002504E07C
:105A2000FFF726F90546E3681A78422AD0D02846BF
:105A3000BDE8F0815A786C2A00F0D980742AAFD181
:105A4000591CC1605A78742A77D1991CC1609B781F
:105A50005F2B00F025816E2BA2D0FEF77DFE01307A
:105A600000F11781E1680A785F2A66D1D4E905253B
:105A70004B1CAA42E36080F2108100264FF0490ED1
:105A8000276902EB820C07EB8C0501326E60AE6079
:105A9000626107F82CE0E860D4E90820824280F2D5
:105AA000FC80E06940F82250013222624A78BCE76B
:105AB0001828AAD0432A13D05A78303A052A3FF63C
:105AC0006FAF01A050F822F0975B0008915B0008CF
:105AD0003F5B0008A15900088B5B0008855B00084C
