:020000040800F2
:1000000000500020E56B0008B9570008BB570008F6
:10001000BD570008BF570008C15700080000000086
:10002000000000000000000000000000C3570008AE
:10003000C557000800000000C7570008C95700084E
:100040002D6C00082D6C00082D6C00082D6C00082C
:100050002D6C00082D6C00082D6C00082D6C00081C
:100060002D6C00082D6C00082D6C00082D6C00080C
:100070002D6C00082D6C00082D6C0008D15700086D
:100080002D6C00082D6C00082D6C00082D6C0008EC
:100090002D6C00082D6C00082D6C00082D6C0008DC
:1000A0002D6C00082D6C00082D6C00082D6C0008CC
:1000B0002D6C00082D6C00082D6C00082D6C0008BC
:1000C0002D6C00082D6C00082D6C00082D6C0008AC
:1000D000E15700082D6C00082D6C00082D6C0008FD
:1000E0002D6C00082D6C00082D6C0008000000002D
:1000F0000000000000000000000000000000000000
:0C01000000000000000000005FF808F1A3
:1001100081F0004102E000BF83F0004330B54FEAB8
:1001200041044FEA430594EA050F08BF90EA020F25
:100130001FBF54EA000C55EA020C7FEA645C7FEAB8
:10014000655C00F0E2804FEA5454D4EB5555B8BFDB
:100150006D420CDD2C4480EA020281EA030382EA4C
:10016000000083EA010180EA020281EA0303362DDE
:1001700088BF30BD11F0004F4FEA01314FF4801CB1
:100180004CEA113102D0404261EB410113F0004FC3
:100190004FEA03334CEA133302D0524263EB43037A
:1001A00094EA050F00F0A780A4F10104D5F1200E18
:1001B0000DDB02FA0EFC22FA05F2801841F1000173
:1001C00003FA0EF2801843FA05F359410EE0A5F147
:1001D00020050EF1200E012A03FA0EFC28BF4CF078
:1001E000020C43FA05F3C01851EBE37101F000452E
:1001F00007D54FF0000EDCF1000C7EEB00006EEB3B
:100200000101B1F5801F1BD3B1F5001F0CD34908C4
:100210005FEA30004FEA3C0C04F101044FEA44521B
:1002200012F5800F80F09A80BCF1004F08BF5FEAA2
:10023000500C50F1000041EB045141EA050130BD82
:100240005FEA4C0C404141EB0101013C28BFB1F594
:10025000801FE9D291F0000F04BF01460020B1FADF
:1002600081F308BF2033A3F10B03B3F120020CDAB2
:100270000C3208DD02F1140CC2F10C0201FA0CF090
:1002800021FA02F10CE002F11402D8BFC2F1200CF5
:1002900001FA02F120FA0CFCDCBF41EA0C019040AB
:1002A000E41AA2BF01EB0451294330BD6FEA0404F4
:1002B0001F3C1CDA0C340EDC04F11404C4F12002DF
:1002C00020FA04F001FA02F340EA030021FA04F3F1
:1002D00045EA030130BDC4F10C04C4F1200220FA48
:1002E00002F001FA04F340EA0300294630BD21FA86
:1002F00004F0294630BD94F0000F83F4801306BF4C
:1003000081F480110134013D4EE77FEA645C18BF3F
:100310007FEA655C29D094EA050F08BF90EA020FD6
:1003200005D054EA000C04BF1946104630BD91EACE
:10033000030F1EBF0021002030BD5FEA545C05D1D1
:100340004000494128BF41F0004130BD14F5800410
:100350003CBF01F5801130BD01F0004545F0FE4184
:1003600041F470014FF0000030BD7FEA645C1ABFB9
:10037000194610467FEA655C1CBF0B46024650EAF0
:10038000013406BF52EA033591EA030F41F400211C
:1003900030BD00BF90F0000F04BF0021704730B5A2
:1003A0004FF4806404F132044FF000054FF0000177
:1003B00050E700BF90F0000F04BF0021704730B538
:1003C0004FF4806404F1320410F0004548BF40420D
:1003D0004FF000013EE700BF42004FEAE2014FEA62
:1003E00031014FEA02701FBF12F07F4393F07F4F3D
:1003F00081F06051704732F07F4208BF704793F040
:100400007F4F04BF41F40021704730B54FF4607452
:1004100001F0004521F000411CE700BF50EA010255
:1004200008BF704730B54FF000050AE050EA0102FE
:1004300008BF704730B511F0004502D5404261EB6E
:1004400041014FF4806404F132045FEA915C3FF4AF
:10045000D8AE4FF003025FEADC0C18BF03325FEA4C
:10046000DC0C18BF033202EBDC02C2F1200300FAFD
:1004700003FC20FA02F001FA03FE40EA0E0021FA22
:1004800002F11444BDE600BF4FF0FF3C06E000BFA0
:100490004FF0010C02E000BF4FF0010C4DF804CD0D
:1004A0004FEA410C7FEA6C5C4FEA430C18BF7FEACD
:1004B0006C5C1BD001B050EA410C0CBF52EA430CFB
:1004C00091EA030F02BF90EA020F0020704710F17B
:1004D000000F91EA030F58BF994208BF90422CBF0A
:1004E000D8176FEAE37040F0010070474FEA410C03
:1004F0007FEA6C5C02D150EA013C07D14FEA430C21
:100500007FEA6C5CD6D152EA033CD3D05DF8040B91
:10051000704700BF8446104662468C4619466346C3
:1005200000E000BF01B5FFF7B7FF002848BF10F19A
:10053000000F01BD4DF808EDFFF7F4FF0CBF0120DF
:1005400000205DF808FB00BF4DF808EDFFF7EAFF5B
:1005500034BF012000205DF808FB00BF4DF808ED16
:10056000FFF7E0FF94BF012000205DF808FB00BF0B
:100570004DF808EDFFF7CEFF94BF012000205DF895
:1005800008FB00BF4DF808EDFFF7C4FF34BF0120A2
:1005900000205DF808FB00BF4FEA4102B2F1E043E2
:1005A00024BFB3F5001CDCF1FE5C0DD901F0004C5A
:1005B0004FEAC0024CEA5070B2F1004F40EB8300AA
:1005C00008BF20F00100704711F0804F21D113F1D6
:1005D0003872BCBF01F00040704741F480114FEA0F
:1005E0005252C2F11802C2F1200C10FA0CF320FA98
:1005F00002F018BF40F001004FEAC1234FEAD323B5
:1006000003FA0CFC40EA0C0023FA02F34FEA43031E
:10061000CCE77FEA625307D150EA01331EBF4FF0A7
:10062000FE4040F44000704701F0004040F0FE40C2
:1006300040F40000704700BF80F0004002E000BFBF
:1006400081F0004142001FBF5FEA410392EA030FBD
:100650007FEA226C7FEA236C6AD04FEA1262D2EB07
:100660001363C1BFD218414048404140B8BF5B420C
:10067000192B88BF704710F0004F40F4000020F0A5
:100680007F4018BF404211F0004F41F4000121F0BB
:100690007F4118BF494292EA030F3FD0A2F1010205
:1006A00041FA03FC10EB0C00C3F1200301FA03F143
:1006B00000F0004302D5494260EB4000B0F5000F66
:1006C00013D3B0F1807F06D340084FEA310102F125
:1006D0000102FE2A51D2B1F1004F40EBC25008BFD7
:1006E00020F0010040EA03007047490040EB0000A1
:1006F000013A28BFB0F5000FEDD2B0FA80FCACF1A2
:10070000080CB2EB0C0200FA0CF0AABF00EBC250CE
:1007100052421843BCBFD0401843704792F0000FBC
:1007200081F4000106BF80F400000132013BB5E70F
:100730004FEA41037FEA226C18BF7FEA236C21D085
:1007400092EA030F04D092F0000F08BF08467047EA
:1007500090EA010F1CBF0020704712F07F4F04D1B8
:10076000400028BF40F00040704712F100723CBFCB
:1007700000F50000704700F0004343F0FE4040F4F5
:10078000000070477FEA226216BF08467FEA2363B3
:100790000146420206BF5FEA412390EA010F40F49E
:1007A000800070474FF0000304E000BF10F00043EA
:1007B00048BF40425FEA000C08BF704743F09643D1
:1007C00001464FF000001CE050EA010208BF7047EC
:1007D0004FF000030AE000BF50EA010208BF704773
:1007E00011F0004302D5404261EB41015FEA010C88
:1007F00002BF84460146002043F0B64308BFA3F180
:100800008053A3F50003BCFA8CF2083AA3EBC25361
:1008100010DB01FA02FC634400FA02FCC2F1200280
:10082000BCF1004F20FA02F243EB020008BF20F0B7
:100830000100704702F1200201FA02FCC2F120021D
:1008400050EA4C0021FA02F243EB020008BF20EA12
:10085000DC7070474FF0FF0C1CEAD0521EBF1CEA40
:10086000D15392EA0C0F93EA0C0F6FD01A4480EA2E
:10087000010C400218BF5FEA41211ED04FF0006317
:1008800043EA501043EA5111A0FB01310CF0004043
:10089000B1F5000F3EBF490041EAD3715B0040EA69
:1008A000010062F17F02FD2A1DD8B3F1004F40EB39
:1008B000C25008BF20F00100704790F0000F0CF00C
:1008C000004C08BF49024CEA502040EA51207F3AD0
:1008D000C2BFD2F1FF0340EAC250704740F40000AB
:1008E0004FF00003013A5DDC12F1190FDCBF00F09C
:1008F00000407047C2F10002410021FA02F1C2F14A
:10090000200200FA02FC5FEA310040F1000053EAE5
:100910004C0308BF20EADC70704792F0000F00F033
:10092000004C02BF400010F4000F013AF9D040EA39
:100930000C0093F0000F01F0004C02BF490011F4CD
:10094000000F013BF9D041EA0C018FE70CEAD153CB
:1009500092EA0C0F18BF93EA0C0F0AD030F0004C4B
:1009600018BF31F0004CD8D180EA010000F00040FF
:10097000704790F0000F17BF90F0004F084691F0BD
:10098000000F91F0004F14D092EA0C0F01D14202F7
:100990000FD193EA0C0F03D14B0218BF084608D1C0
:1009A00080EA010000F0004040F0FE4040F400000A
:1009B000704740F0FE4040F4400070474FF0FF0C9D
:1009C0001CEAD0521EBF1CEAD15392EA0C0F93EAE4
:1009D0000C0F69D0A2EB030280EA010C49024FEA36
:1009E000402037D04FF0805343EA111143EA1013EF
:1009F0000CF000408B4238BF5B0042F17D024FF4A7
:100A0000000C8B4224BF5B1A40EA0C00B3EB510F81
:100A100024BFA3EB510340EA5C00B3EB910F24BF6A
:100A2000A3EB910340EA9C00B3EBD10F24BFA3EBEF
:100A3000D10340EADC001B0118BF5FEA1C1CE0D1B7
:100A4000FD2A3FF650AF8B4240EBC25008BF20F06A
:100A5000010070470CF0004C4CEA50207F32C2BFBE
:100A6000D2F1FF0340EAC250704740F400004FF05B
:100A70000003013A37E792F0000F00F0004C02BF8C
:100A8000400010F4000F013AF9D040EA0C0093F056
:100A9000000F01F0004C02BF490011F4000F013BB0
:100AA000F9D041EA0C0195E70CEAD15392EA0C0F18
:100AB00008D142027FF47DAF93EA0C0F7FF470AF50
:100AC000084676E793EA0C0F04D14B023FF44CAF93
:100AD00008466EE730F0004C18BF31F0004CCAD128
:100AE00030F000427FF45CAF31F000437FF43CAF64
:100AF0005FE700BF4FF0FF3C06E000BF4FF0010C86
:100B000002E000BF4FF0010C4DF804CD4FEA400267
:100B10004FEA41037FEA226C18BF7FEA236C11D0B1
:100B200001B052EA530C18BF90EA010F58BFB2EB64
:100B3000030088BFC81738BF6FEAE17018BF40F0E4
:100B4000010070477FEA226C02D15FEA402C05D198
:100B50007FEA236CE4D15FEA412CE1D05DF8040B1D
:100B6000704700BF844608466146FFE70FB5FFF7B0
:100B7000C9FF002848BF10F1000F0FBD4DF808ED68
:100B8000FFF7F4FF0CBF012000205DF808FB00BF59
:100B90004DF808EDFFF7EAFF34BF012000205DF8B3
:100BA00008FB00BF4DF808EDFFF7E0FF94BF012000
:100BB00000205DF808FB00BF4DF808EDFFF7D2FFFD
:100BC00094BF012000205DF808FB00BF4DF808ED40
:100BD000FFF7C8FF34BF012000205DF808FB00BF0D
:100BE0004FEA4002B2F1FE4F0FD34FF09E03B3EB3A
:100BF00012620DD94FEA002343F0004310F0004F7A
:100C000023FA02F018BF404270474FF000007047CF
:100C100012F1610F01D1420205D110F0004008BF6E
:100C20006FF0004070474FF00000704742000ED256
:100C3000B2F1FE4F0BD34FF09E03B3EB126209D417
:100C40004FEA002343F0004323FA02F070474FF0CD
:100C50000000704712F1610F01D1420202D14FF042
:100C6000FF3070474FF00000704700BF00F13401C3
:100C700091E838009C46A6464CF8045D90E8FF0FCA
:100C8000E54600BD90EC210B704700BF80EC210BC6
:100C9000704700BF90EC200B704700BF80EC200B2A
:100CA000704700BFD0EC200B704700BFC0EC200B9A
:100CB000704700BFF0EC0201F0EC0211F0EC0221F1
:100CC000F0EC0231F0EC0241F0EC0251F0EC026188
:100CD000F0EC0271F0EC0281F0EC0291F0EC02A178
:100CE000F0EC02B1F0EC02C1F0EC02D1F0EC02E168
:100CF000F0EC02F1704700BFE0EC0201E0EC021101
:100D0000E0EC0221E0EC0231E0EC0241E0EC0251C7
:100D1000E0EC0261E0EC0271E0EC0281E0EC0291B7
:100D2000E0EC02A1E0EC02B1E0EC02C1E0EC02D1A7
:100D3000E0EC02E1E0EC02F1704700BFB0FC0181A1
:100D4000B0FC0191B0FC01A1B0FC01B1704700BF43
:100D5000A0FC0181A0FC0191A0FC01A1A0FC01B1BB
:100D6000704700BFEC4600B52DE900502DE9FF1F8C
:100D70004FF000032DE90C0001A90DF0A9FEDDF8EC
:100D800040E012B0704700BFEC4600B52DE90050BE
:100D90002DE9FF1F4FF000032DE90C0001A90DF014
:100DA000D7FEDDF840E012B0704700BFEC4600B55A
:100DB0002DE900502DE9FF1F4FF000032DE90C0035
:100DC00001A90DF0E5FEDDF840E012B0704700BF6C
:100DD000EC4600B52DE900502DE9FF1F4FF0000350
:100DE0002DE90C0001AB0DF0A7FEDDF840E012B0DC
:100DF000704700BFEC4600B52DE900502DE9FF1FFC
:100E00004FF000032DE90C0001AA0DF01FFFDDF8E3
:100E100040E012B0704700BF80EA010C1CF0030FE5
:100E200037D110F0030C20F0030021F0030150F83B
:100E3000042B08BF51F8043B0ED08CF0030C6FF06C
:100E40007F434FEACC0C23FA0CFC51F8043B42EAF6
:100E50000C0243EA0C0300BFA2F1013C9A4201BF1D
:100E60002CEA020C1CF0803F50F8042B51F8043B94
:100E7000F2D04FEA02604FEA1222012828BFB0EBFD
:100E8000036F08BF1B0AF4D003F0FF03000EC01A63
:100E9000704710F0030F0AD010F8012B11F8013B36
:100EA000012A28BF9A42F4D0A2EB030070474DF804
:100EB000045D50F8042B01F0030521F0030151F803
:100EC000043B022D26D04DD822F07F45B5EB132FE1
:100ED000A2F1013C2CEA020C0DD11CF0803C08BFB1
:100EE00051F8043B0AD185EA0205B5EB036F0CD13A
:100EF00050F8042BE8E74FEA13235BE03CF07F4C0B
:100F000054D10B784FEA126554E04FEA126503F0B2
:100F1000FF034FE04FEA0245A2F1013C4FEA1545BD
:100F20002CEA020CB5EB134F18D11CF0803C08BF23
:100F300051F8043B07D185EA0205B5EB034F09D10F
:100F400050F8042BE6E75FEA0C4C2FD10B884FEAF0
:100F500012452FE04FEA03434FEA12454FEA13438D
:100F600028E000BF02F0FF05B5EB136FA2F1013CD2
:100F70002CEA020C0DD11CF0803C08BF51F8043B58
:100F80000AD185EA0205B5EB032F0AD150F8042BEC
:100F9000E8E74FEA13630DE012F0FF0F06D051F8B7
:100FA000043B4FEA122523F07F4303E04FF000009B
:100FB00020BC704705F0FF0203F0FF00012828BFA6
:100FC000904204BF2D0A1B0AF4D0A2EB000020BC03
:100FD000704700BF844641EA000313F0030349D180
:100FE000403A23D30B6803604B6843608B6883608F
:100FF000CB68C3600B6903614B6943618B69836193
:10100000CB69C3610B6A03624B6A43628B6A83627A
:10101000CB6AC3620B6B03634B6B43638B6B836362
:10102000CB6BC36340304031403ADBD230320BD31C
:101030000B6803604B6843608B688360CB68C36058
:1010400010301031103AF3D20C3205D351F8043B72
:1010500040F8043B043AF9D2043208D0D2071CBF4E
:1010600011F8013B00F8013B01D30B880380604677
:10107000704700BF082A13D38B07B1D010F00303C9
:10108000AED0C3F10403D21ADB071CBF11F8013B39
:1010900000F8013BA4D331F8023B20F8023B9FE764
:1010A000043AD9D3013A11F8013B00F8013BF9D2D7
:1010B0000B7803704B7843708B7883706046704771
:1010C00070B54FF0FF0C4CF4E06C1CEA11541DBFDE
:1010D0001CEA135594EA0C0F95EA0C0F00F0DEF8A9
:1010E0002C4481EA030621EA4C5123EA4C5350EA8E
:1010F000013518BF52EA033541F4801143F48013DF
:1011000038D0A0FB02CE4FF00005E1FB02E506F06F
:101110000042E0FB03E54FF00006E1FB03569CF0C4
:10112000000F18BF4EF0010EA4F1FF04B6F5007FCA
:1011300064F5407404D25FEA4E0E6D4146EB06063C
:1011400042EAC62141EA55514FEAC52040EA5E50C5
:101150004FEACE2EB4F1FD0C88BFBCF5E06F1ED86F
:10116000BEF1004F08BF5FEA500E50F1000041EBA6
:10117000045170BD06F0004646EA010140EA020053
:1011800081EA0301B4EB5C04C2BFD4EB0C0541EA75
:10119000045170BD41F480114FF0000E013C00F38A
:1011A000AB8014F1360FDEBF002001F0004170BDAE
:1011B000C4F10004203C35DA0C341BDC04F11404C7
:1011C000C4F1200500FA05F320FA04F001FA05F253
:1011D00040EA020001F0004221F0004110EBD37020
:1011E00021FA04F642EB06015EEA430E08BF20EA4C
:1011F000D37070BDC4F10C04C4F1200500FA04F3EF
:1012000020FA05F001FA04F240EA020001F0004180
:1012100010EBD37041F100015EEA430E08BF20EAF3
:10122000D37070BDC4F1200500FA05F24EEA020E3B
:1012300020FA04F301FA05F243EA020321FA04F06A
:1012400001F0004121FA04F220EA020000EBD37021
:101250005EEA430E08BF20EAD37070BD94F0000F21
:101260000FD101F00046400041EB010111F4801F55
:1012700008BF013CF7D041EA060195F0000F18BF06
:10128000704703F00046520043EB030313F4801F42
:1012900008BF013DF7D043EA0603704794EA0C0FFC
:1012A0000CEA135518BF95EA0C0F0CD050EA410612
:1012B00018BF52EA4306D1D181EA030101F000418F
:1012C0004FF0000070BD50EA410606BF10461946B7
:1012D00052EA430619D094EA0C0F02D150EA0136C3
:1012E00013D195EA0C0F05D152EA03361CBF104604
:1012F00019460AD181EA030101F0004141F0FE41A3
:1013000041F470014FF0000070BD41F0FE4141F426
:10131000780170BD70B54FF0FF0C4CF4E06C1CEA26
:1013200011541DBF1CEA135594EA0C0F95EA0C0FDB
:1013300000F0A7F8A4EB050481EA030E52EA033596
:101340004FEA013100F088804FEA03334FF08055B7
:1013500045EA131343EA12634FEA022245EA1115E4
:1013600045EA10654FEA00260EF000419D4208BF95
:10137000964244F1FD0404F5407402D25B084FEA42
:101380003202B61A65EB03055B084FEA32024FF4EE
:1013900080104FF4002CB6EB020E75EB030E22BF4B
:1013A000B61A754640EA0C005B084FEA3202B6EB0B
:1013B000020E75EB030E22BFB61A754640EA5C00BA
:1013C0005B084FEA3202B6EB020E75EB030E22BF4A
:1013D000B61A754640EA9C005B084FEA3202B6EB4B
:1013E000020E75EB030E22BFB61A754640EADC000A
:1013F00055EA060E18D04FEA051545EA16754FEA6C
:1014000006164FEAC30343EA52734FEAC2025FEA89
:101410001C1CC0D111F4801F0BD141EA00014FF018
:1014200000004FF0004CB6E711F4801F04BF0143E9
:101430000020B4F1FD0C88BFBCF5E06F3FF6AFAE05
:10144000B5EB030C04BFB6EB020C5FEA500C50F195
:10145000000041EB045170BD0EF0004E4EEA113118
:1014600014EB5C04C2BFD4EB0C0541EA045170BD1F
:1014700041F480114FF0000E013C90E645EA060E63
:101480008DE60CEA135594EA0C0F08BF95EA0C0F91
:101490003FF43BAF94EA0C0F0AD150EA01347FF4D9
:1014A00034AF95EA0C0F7FF425AF104619462CE7B0
:1014B00095EA0C0F06D152EA03353FF4FDAE104613
:1014C000194622E750EA410618BF52EA43067FF464
:1014D000C5AE50EA41047FF40DAF52EA43057FF4F4
:1014E000EBAE12E74FEA410C7FEA6C5C02D150EAA6
:1014F000013C0AD14FEA430C7FEA6C5C02D152EA0C
:10150000033C02D14FF0000070474FF001007047DC
:101510004FEA410212F5001215D211D56FF478731B
:10152000B3EB625212D94FEAC12343F0004343EABE
:10153000505311F0004F23FA02F018BF4042704799
:101540004FF00000704750EA013005D111F0004023
:1015500008BF6FF0004070474FF00000704700BFB9
:101560000348044B834202D0034B03B11847704732
:101570005007002050070020000000000548064BDF
:101580001B1AD90F01EBA301491002D0034B03B181
:101590001847704750070020500700200000000047
:1015A00010B5064C237843B9FFF7DAFF044B13B1AB
:1015B0000448AFF300800123237010BD50070020C2
:1015C000000000008C5E010808B5054B1BB1054901
:1015D0000548AFF30080BDE80840FFF7CFBF00BF6C
:1015E00000000000540700208C5E010808B501F0DF
:1015F000CFFD0368DB69984708BD08B501F0C8FD59
:1016000003681B6A984708BD10B5044601F0C0FD89
:1016100003681B6B2146984710BDF8B504460D467C
:10162000164601F0B5FD03689F6B33462A462146F6
:10163000B847F8BDF8B504460D46164601F0A8FDBA
:101640000368DF6B33462A462146B847F8BDF8B534
:1016500004460D46164601F09BFD03689F6C334619
:101660002A462146B847F8BDF8B504460D46164649
:1016700001F08EFD0368DF6C33462A462146B847E9
:10168000F8BD10B5044601F083FD03689B6E21464A
:10169000984710BD08B50120FFF7B6FF024B186848
:1016A00001F0C2FCF7E700BF7C07002070B50646DA
:1016B0000C46083030600D4655F8083B9D420AD074
:1016C00033608B68B3606368736025600023636078
:1016D0002372304670BD4A680132F4D02946FFF7C4
:1016E00079FCF0E708B5081E02DB06F0A1F808BD9A
:1016F00006F0F4FCF8B5541A0CD405460E4664B155
:1017000000222146FFF7EEFF28600719AF6034B9C9
:101710006F60F8BD044806F019FD0020F4E722468A
:1017200031460FF09DF8F3E7205F010838B5044615
:101730000D4639B10022FFF7D5FF206060602844D4
:10174000A06038BD0020F8E708B50846114605F04E
:10175000F3FA08BD08B5034653F8081B994203D0B5
:1017600082680132FFF7F0FF08BD70B586B005460C
:1017700001F00EFD044603685E6E29466846FFF7D9
:1017800095FF69462046B0476846FFF7E3FF06B07D
:1017900070BD6846FFF7DEFF05F0D0FA08B5012AF4
:1017A00003D022B1FFF716FC01E00B78037008BDEF
:1017B00008B50846114605F0BFFA08BD10B5044645
:1017C00001688268521A09B1FFF7F2FF204610BD86
:1017D00010B50446FFF7F2FF204610BD10B582B0E9
:1017E000044602AB03E90600002303604360836004
:1017F0000A44FFF77FFF04E02046FFF7DFFF05F014
:101800009DFA204602B010BD08B5081E02DB06F0A6
:101810000FF808BD06F062FC10B50B68002B0EDB5C
:10182000934206D95400B3EB420F02D20C60002C55
:1018300008DB096800220131FFF7E6FF10BD03480D
:1018400006F084FC6FF000430B60F2E7545F010880
:1018500070B582B004460E46551A01950F2D0DD86D
:1018600000942A4631462068FFF798FF0022009234
:10187000019B63602168CA5402B070BD002201A9B7
:10188000FFF7CAFF2060019BA360E9E738B500F1CC
:101890000803036069B104460D4608460FF028FAB4
:1018A0004FF000032A1829462046FFF7D1FF2046B3
:1018B00038BD014806F032FC6C5F0108012800D0F9
:1018C00070474FF6FF739942FAD110B5A8B00C20BB
:1018D00005F0AEFF00230360436083601B4B18607C
:1018E0004FF4867005F0A4FF044624AA18491EA8E8
:1018F000FFF7CCFF1EA9204601F044F9154B1C60F0
:101900001EA8FFF727FF7824224613496846FFF7F1
:1019100061FBCDF894D02694104C27AB7822694611
:101920002046FFF75BFF0E4A0E49204605F080F97E
:1019300028B010BD1EA8FFF70DFF4FF4867120469A
:1019400005F0FAF905F0FAF9F7E700BF7C07002087
:10195000A05F010878070020A85E01086C0700203E
:1019600000000020D117000838B515460C1A01D127
:10197000281938BD2246014628460EF071FFF7E7C8
:1019800008B5FFF7F1FF08BD08B5FFF7F9FF08BD7F
:1019900038B504460D4649682A6800230360436051
:1019A0008360891AFFF7C2FE226869682868FFF71A
:1019B000EBFF6060204638BD30B5BBB0A42005F019
:1019C00037FF0446864B0360802303714023437135
:1019D000844B836000218181834B40F8103B94222B
:1019E0000EF0BCFF204601F087FC6420FFF749FEA3
:1019F00006AA7E496846FFF749FF6846FFF7B5FE2D
:101A00006846FFF7A7FE4FF4FA70FFF73AFE0DAAFB
:101A1000774907A8FFF73AFF07A8FFF7A6FE07A830
:101A2000FFF798FE6420FFF72CFE14AA71490EA858
:101A3000FFF72CFF0EA8FFF798FE0EA8FFF78AFE0F
:101A40006420FFF71EFE1BAA6A4915A8FFF71EFFB8
:101A500015A8FFF78AFE15A8FFF77CFE664B1D68E8
:101A60004FF4867005F0E4FE044622AA63491CA8E0
:101A7000FFF70CFF08E0012525B14FF486712046E1
:101A800005F05AF905F05AF95D4923A8FFF780FFE0
:101A900004E001251CA8FFF75DFEEDE723AA1CA9C1
:101AA000204601F02BF92146284601F0F5F904E023
:101AB000002523A8FFF782FEECE723A8FFF77EFEB0
:101AC0001CA8FFF747FE4C4B1D684FF4867005F0CD
:101AD000AFFE04462CAA4B4926A8FFF7D7FE08E024
:101AE000012525B14FF48671204605F025F905F052
:101AF00025F943492DA8FFF74BFF04E0012526A84F
:101B0000FFF728FEEDE72DAA26A9204601F0F6F8FA
:101B10002146284601F0C0F904E000252DA8FFF772
:101B20004DFEECE72DA8FFF749FE26A8FFF712FEB1
:101B3000314B1D684FF4867005F07AFE044636AAD4
:101B4000314930A8FFF7A2FE08E0012525B14FF486
:101B50008671204605F0F0F805F0F0F8284937A81E
:101B6000FFF716FF04E0012530A8FFF7F3FDEDE7CE
:101B700037AA30A9204601F0C1F82146284601F0D5
:101B80008BF904E0002537A8FFF718FEECE737A82B
:101B9000FFF714FE30A8FFF7DDFD174B19681B4B4C
:101BA000186801F0FDF93BB030BD6846FFF7D2FD83
:101BB00005F0C4F807A8FFF7CDFD05F0BFF80EA8A3
:101BC000FFF7C8FD05F0BAF815A8FFF7C3FD05F04B
:101BD000B5F801256DE70125A0E70125D3E700BF92
:101BE0005C61010800007F43606D0108A85F010887
:101BF000B45F0108CC5F010878070020D85F0108B6
:101C00006C070020E05F0108E85F01087C07002006
:101C100008B54FF6FF710120FFF750FE08BD000028
:101C2000004870470800002070470000F8B50D46D6
:101C300014461E460F6811463846FEF79FFF50B9FE
:101C400021463846FEF7FCFC20F000400C49FEF728
:101C50009FFF08B12C60F8BD39462046FEF7F0FC26
:101C6000044631460748FEF7EBFC01462046FEF7E6
:101C7000A5FE01463846FEF7E5FC2860EBE700BF0D
:101C80009A99193E0000C8422DE9F0410D461446CC
:101C90001F460E6811463046FEF770FF50B92146C8
:101CA0003046FEF7CDFC20F000401C49FEF770FFE7
:101CB00010B12C60BDE8F08121463046FEF768FF88
:101CC00088B131462046FEF7BBFC804639461448B1
:101CD000FEF7B6FC01464046FEF770FE0146304670
:101CE000FEF7B0FC28602E6821463046FEF76EFFF6
:101CF0000028DFD031462046FEF7A2FC04463946D4
:101D00000748FEF79DFC01462046FEF757FE0146B8
:101D10003046FEF795FC2860CCE700BF9A99193E43
:101D20000000C84230B5264A0260264A4260264A70
:101D30008260264AC260264A0261264A4261264AD9
:101D40008261264AC261012280F8202080F8212089
:101D500080F8222080F8232080F82420002280F8B8
:101D60002520DFF87CE0C0F828E04FF08242C26214
:101D70004FF0814101634FF0834CC0F834C04FF005
:101D80007C548463C1634FF080440464154D456402
:101D90008564C2640265144D456581651349C1655A
:101DA0000266134941668466C0F86CE01149016718
:101DB000114941678167C267C0F880C030BD00BF6C
:101DC0000000964200008C4200005C420000A042ED
:101DD0000000C841000070410000A0410000204206
:101DE0000000A0400000F0410000C0400000904111
:101DF00000004041000040400000104208B501F0E2
:101E0000C7F903681B69984708BD08B501F0C0F918
:101E100003685B69984708BD08B501F0B9F9036824
:101E20009B69984708BD000010B5264B1B68BFF39F
:101E30005B8F13F0010F03D1224805F0B7FC40B9C6
:101E4000214B1B68BFF35B8F13F0010F0FD00023F2
:101E500020E0FFF7DAFF0446FFF7DEFF00FB04F4A3
:101E6000E4001A4B1C70174805F0C0FCE8E7164860
:101E700005F09CFC0028EAD0FFF7C0FF144B186067
:101E8000114805F0B3FCE2E76FF0550002400A701C
:101E900001339BB20D4A12789A4212D90C4A126849
:101EA000D118D25C13F0010FEED15520EEE70548B2
:101EB00005F098FC04F042FF034805F093FC04F0A1
:101EC0003DFF10BD88070020800700208C07002000
:101ED0008407002010B5044601F05AF903689B6A94
:101EE0002146984710BD38B504460D4601F050F91B
:101EF00003685B6B2A462146984738BDF8B504460F
:101F00000D46164601F044F903685F6C33462A46D5
:101F10002146B847F8BDF0B583B004460D461646D5
:101F20001F4601F035F90368089A019200971F6D6A
:101F300033462A462146B84703B0F0BDF0B583B01A
:101F400004460D4616461F4601F022F90368009725
:101F50005F6D33462A462146B84703B0F0BDF0B561
:101F600083B004460D4616461F4601F011F903687A
:101F7000089A019200979F6D33462A462146B8473A
:101F800003B0F0BD38B55C4B1B68BFF35B8F13F03B
:101F9000010F03D1584805F009FCB8B9FFF72EFF2F
:101FA0000446FFF73DFE05468069FEF73FFEFFF75A
:101FB00068FB95F82530002B56D0504B1B78013B21
:101FC000032B4DD8DFE803F01E2C3C4AFFF71DFF22
:101FD0000446FFF721FF00FB04F4E400484B1C70AB
:101FE000454805F003FCD9E701339BB2444A127817
:101FF0009A4258D913F0010FF6D0E25C02F0AA021F
:10200000E254F1E70023F1E701339BB23C4A127836
:102010009A4248D913F0010FF6D00022E254F3E7B8
:102020000023F3E701339BB2354A12789A423AD93A
:1020300013F0010FF6D1E25C02F05502E254F1E731
:102040000023F1E701339BB22D4A12789A422AD934
:1020500013F0010FF6D10022E254F3E70023F3E777
:10206000264B00221A701EE0244B1B78013B032BE9
:1020700039D8DFE803F0101D2D3601339BB2204A1A
:1020800012789A420FD913F0010FF6D0E25C42F0B9
:10209000AA02E254F1E70023F1E701339BB2184AA8
:1020A00012789A42F9D8154A13780133137038BD63
:1020B0000023F4E701339BB2114A12789A42F2D915
:1020C00013F0010FF6D1E25C42F05502E254F1E761
:1020D0000023F1E701339BB2094A12789A42F9D8FA
:1020E000E1E70023F8E7054B00221A70DBE702481E
:1020F00005F078FB04F022FE900700200400002089
:102100009407002010B5044601F042F8043003C8DB
:1021100084E80300FFF784FD0146842204F10800EF
:10212000FEF758FF10BD000070B504460D46164678
:1021300080230371402343710D4B83600C30FFF704
:10214000F1FD0C4B23600C4B236029460020FEF769
:1021500077FA0546C4F8900031460020FEF770FA81
:10216000C4F89400C4F89850C4F89C00204670BD90
:1021700000007F43B0600108C8600108F8B504465C
:1021800003681B68984794F8F530A3BB94F82C308B
:10219000FBB1D4F8FC50D4F8007107E055F8046B9B
:1021A000216D0020FEF74CFAC6F89000AF42F5D141
:1021B0000023C4F8A8306079FEF7F4FAC4F8C00030
:1021C000C4F8C800616F0020FEF73AFAC4F8B800FE
:1021D000F8BDD4F8FC30D4F8000105E053F8042B26
:1021E000D2F89410C2F890109842F7D1D4F8AC30DD
:1021F000C4F8A830DFE7012BEAD194F82D30A3B161
:10220000D4F8FC30D4F8000104E053F8042B00218A
:10221000C2F898109842F8D10023C4F8A030207971
:10222000FEF7C0FAC4F8B000D2E7D4F8FC30D4F816
:10223000000105E053F8042BD2F89C10C2F8981066
:102240009842F7D1D4F8A430C4F8A030E7E7D0F82A
:102250000031D0F8FC00181AC0F387007047000066
:102260002DE9F04F87B004460E4690F8F5302BB1BB
:10227000012B00F0928107B0BDE8F08F0430FFF72A
:1022800041FF0120FFF7C0F9D4F8FC70D4F8003109
:10229000059327E057F8045BD5F890A0D6F898B0DE
:1022A000D5F8E8300393D4F85480D4F85090D6F899
:1022B0009C10E06DFEF7C6F9049059465046FEF7B3
:1022C000C1F9039B009343464A460499FFF723FE56
:1022D0002368D3F80C80E368D5F8942005F19001C9
:1022E0002046C047059BBB42D4D194F80801013079
:1022F000FEF75CFA05462079FEF754FA06462046BA
:10230000FFF7A5FFFEF752FA01463046FEF756FBEF
:1023100001462846FEF79EFAC4F8AC004FF00008CC
:10232000636FD4F8A820D4F8B8104046FFF706FE33
:10233000226ED4F8C010606EFFF796F9666E4FF00B
:102340007E51D4F8C000FEF77DF905464FF07E516E
:102350003046FEF777F92946FFF7C5FD666E4FF068
:102360008041D4F8C000FEF76DF905464FF080417A
:102370003046FEF767F92946FFF7B5FD666E4FF068
:102380007E51D4F8C000FEF75BF905464FF07E5150
:102390003046FEF757F92946FFF7A5FD666E4FF068
:1023A0008041D4F8C000FEF74BF905464FF080415C
:1023B0003046FEF747F92946FFF795FD256E20794F
:1023C000FEF7F4F92946FEF73BF9D4F8C060616ED8
:1023D000FEF736F92A463146FFF746F92779266E89
:1023E0004FF07E51D4F8C000FEF72CF90546384670
:1023F000FEF7DCF93146FEF723F92946FFF773FDB6
:10240000256E2079FEF7D2F92946FEF719F906461E
:102410004FF08041D4F8C000FEF714F905464FF0A4
:102420007E513046FEF70CF92946FFF75CFD27790F
:10243000266E4FF07E51D4F8C000FEF701F9054634
:102440003846FEF7B3F93146FEF7FAF82946FFF7AA
:102450004AFD256E2079FEF7A9F92946FEF7F0F826
:1024600006464FF08041D4F8C000FEF7E9F8054673
:102470004FF07E513046FEF7E3F82946FFF733FD73
:10248000A64E4FF08041D4F8C000FEF7DBF80146BD
:102490003246D4F88C00FFF7E7F8D4F88CA04FF060
:1024A0008041D4F8C000FEF7CDF84FF08145DFF849
:1024B00070922946FEF7C4F807464FF08041504617
:1024C000FEF7C0F82B464A463946FFF737FDD4F8E9
:1024D0008C702079FEF76AF93946FEF7B1F882462A
:1024E0004FF08041D4F8C000FEF7ACF80746314603
:1024F0005046FEF7A5F832463946FFF7B5F8D4F84E
:102500008C702079FEF752F93946FEF799F831467A
:10251000FEF796F807464FF08041D4F8C000FEF76A
:1025200091F82946FEF78CF806464FF08041384670
:10253000FEF788F82B464A463146FFF7FFFC207924
:10254000FEF730F90246D4F8C8104046FFF7D6FC33
:10255000214651F8C83BDD68E368D4F8CC2020461A
:10256000A847214651F8C03BDD68E368D4F8C42091
:102570002046A847214651F8A83BDD68E368D4F817
:10258000AC202046A847214651F8B83BDD68E368F7
:10259000D4F8BC202046A8476DE60430FFF7B2FD12
:1025A0000120FFF731F8D4F8FC80D4F80031039310
:1025B00025E058F8045BD5F890A0D6F898B0A16B48
:1025C000D5F89800FEF73EF8E16BFEF73BF805F111
:1025D000D009D6F89C10FEF735F807465946504604
:1025E000FEF730F84A463946FFF724F82368DF68DB
:1025F0002369D5F89C2005F198012046B847039B34
:102600004345D6D194F808010130FEF7CFF80546CE
:102610006079FEF7C7F806462046FFF718FEFEF77A
:10262000C5F801463046FEF7C9F901462846FEF7CF
:1026300011F9C4F8A400666B00252079FEF7B6F8FE
:102640003146FDF7FDFF32462946FFF70DF894F8B5
:102650000480676B60790138FEF7A8F806464046AB
:10266000FEF7A4F83946FDF7EBFF3A463146FEF790
:10267000FBFF94F804804FF07C51606BFEF7EAF8A2
:10268000FDF7AAFE0CF024F806460F464046FDF77B
:1026900091FE32463B46FDF73FFD80468946607914
:1026A000FEF780F8064640464946FDF775FF32467C
:1026B0002946FEF7CCFFD4F8A030626B2946D4F847
:1026C000B000FFF73BFC94F8313093B9214651F844
:1026D000A03BDD682369D4F8A4202046A847214602
:1026E00051F8B03BDD682369D4F8B4202046A847F0
:1026F000C1E50220FEF788FF26796079FEF752F8DF
:1027000005463046FEF74EF8024600202B460146AD
:10271000FFF714FC0120FEF777FFD7E70000104118
:102720000000A040F8B504460D460430FFF7EAFC6F
:10273000D4F8903083F80851D4F8906096F8F530CA
:1027400033BBD6F8FC3053F82530E76F3946D3F861
:102750009400FDF775FFC4F89800D6F8FC3053F8E4
:1027600025303946D3F89C00FDF76AFFC4F8A00075
:1027700065792846FEF716F8C4F8AC00266F28469F
:10278000FEF714F83146FDF75BFFC4F8B000F8BD62
:10279000012BFCD1D6F8FC3053F82530A16CD3F8CE
:1027A0009400FDF74DFFC4F89800D6F8FC3053F8BC
:1027B0002530D3F89C30C4F8A030D6F8FC3053F85C
:1027C0002500D030FFF786FBFDF7ECFF0546E06BF8
:1027D0000146FDF737FF01462846FDF733FFC4F8F1
:1027E000A800D4E769B108B5D0F890300BB100204B
:1027F00008BDC0F8901091F80811FFF793FF012071
:10280000F6E7002070472DE9F04782B004460D46F8
:102810000430FFF777FC214651F8943BDE6863698A
:10282000D4F898202046B047214651F89C3BDE68FA
:102830006369D4F8A0202046B047D4F8903093F8CC
:10284000F530002B40F03781214651F8AC3BDE6873
:102850006369D4F8B0202046B0470120FEF7D4FECB
:102860002079FDF7A3FF0646D4F8903093F80821AD
:10287000D3F8FC3053F82200D030FFF72BFBFDF7E4
:1028800091FF01463046FDF7DBFE8046D4F89030DC
:1028900093F80821D3F8FC3053F82270D037D4F8DD
:1028A0008810D4F8AC00FDF7CDFE06464FF07C5101
:1028B0004046FDF7CFFF3A463146FEF7BBFE022009
:1028C000FEF7A2FED4F89480D5F89890A76FD5F8BB
:1028D0009C10D4F89C00FDF7B5FE064649464046DC
:1028E000FDF7B0FE3A463146FEF7BEFED4F89480BE
:1028F000D5F89890D4F89C60D5F89CA04FF07E5104
:10290000A06FFDF79FFE074651463046FDF79AFE41
:10291000064649464046FDF795FE3A463146FEF7E3
:1029200096FED4F89480D5F89890D5F89C10D4F8F9
:102930009C00FDF787FED4F88410FDF783FEA76F97
:102940004FF07E51FDF77CFE064649464046FDF7B6
:1029500079FE3A463146FEF787FED4F89480D5F8E2
:102960009890D5F89C10D4F89C00FDF76BFED4F835
:102970008410FDF767FEA76F3946FDF761FE4FF043
:102980007E51FDF75DFE064649464046FDF75AFE7C
:102990003A463146FEF75BFED5F89810D4F894001D
:1029A000FDF750FED4F88010FDF74CFED4F8788087
:1029B0004146FDF745FE0746D5F89C10D4F89C002B
:1029C000FDF740FE06464FF07E513846FDF738FED3
:1029D00042463146FEF748FED5F89810D4F89400E8
:1029E000FDF730FED4F88010FDF72CFE0746D4F832
:1029F0007880D5F89C10D4F89C00FDF723FE06469D
:102A00004FF07E513846FDF71BFE42463146FEF739
:102A10001EFED5F89810D4F89400FDF713FED4F8F4
:102A20008010FDF70FFED4F878804146FDF708FED0
:102A30000746D5F89C10D4F89C00FDF703FED4F8A7
:102A40008410FDF7FFFD4FF07E51FDF7F9FD0646BE
:102A50004FF07E513846FDF7F3FD42463146FEF712
:102A600003FED5F89810D4F89400FDF7EBFDD4F8E8
:102A70008010FDF7E7FD0646D5F89C10D4F89C00C1
:102A8000FDF7E0FDD4F88410FDF7DCFDA56F2946C5
:102A9000FDF7D6FD4FF07E51FDF7D2FD04464FF015
:102AA0007E513046FDF7CCFD2A462146FEF7CFFD8C
:102AB00002B0BDE8F087012BFAD1214651F8A43BC2
:102AC000DE68A369D4F8A8202046B0470220FEF7AC
:102AD0009BFDD4F89480D5F89890D4F89CA0D5F8B4
:102AE0009C504FF07E51206CFDF7AAFD0646D4F8AD
:102AF000A47029465046FDF7A5FD054649464046C7
:102B0000FDF7A0FD636C009333463A462946FFF774
:102B100026FA0120FEF778FDCAE70368406898426C
:102B200014BF00200120704770B505460C460246D0
:102B300052F8080B0B4653F8081B8B4210D0824208
:102B40001BD0AE68296062686A60A268AA60B0B1F2
:102B50002060A6600023636022681370284670BD61
:102B6000A542F7D062682AB963686B602A680021C1
:102B7000D154EFE7FEF712FEF6E70020E2E723600C
:102B8000E8E7000070B504460E4680230371402339
:102B900043712A4B83600C30FFF7C4F8284B236045
:102BA0002346284A43F8902B0025C4F890505D60D6
:102BB0009D60DD603022294604F1A0000DF0CEFEBC
:102BC00004F1D803C4F8D030C4F8D45084F8D850F5
:102BD000C4F8E850C4F8EC50C4F8F050C4F8FC5005
:102BE000C4F80051C4F80451314604F1D000FFF795
:102BF0009BFF012384F8F43084F8F550E26BC4F8AD
:102C000090200023C4F89830C4F89420C4F89C3075
:102C100084F80851C4F8F850D4F8FC30D4F80021F6
:102C2000934201D0C4F80031D4F8E830D4F8EC2055
:102C3000934201D0C4F8EC30204670BD00007F43C1
:102C4000B0600108E060010810B584B084460191CD
:102C500044680368E31A98106FF0604EAEEBA3036C
:102C60008B4210D30390814210D803AB1B681844E9
:102C7000DCF80030E41AB0EBA40F09D3B0F1005F28
:102C800009D204B010BD104605F060FA01ABEDE7C3
:102C90006FF06040F5E76FF06040F2E710B485B088
:102CA0000023019302930393046801944268029203
:102CB00083680393D1F800C0C0F800C0D1F804C005
:102CC000C0F804C0D1F808C0C0F808C00C604A6061
:102CD0008B6005B010BC704710B584B00C46002363
:102CE000019302930393FFF7D9FF214601A8FFF751
:102CF000D5FF01A8FEF762FD04B010BD2DE9F0413B
:102D000004460F46164680230371402343712A4B25
:102D100083600C30FFF706F8284B23602346284ACF
:102D200043F8902B0025C4F890505D609D60DD60F5
:102D30003022294604F1A0000DF010FE04F1D80362
:102D4000C4F8D030C4F8D45084F8D85004F1E8085E
:102D5000C4F8E850C4F8EC50C4F8F050C4F8FC5083
:102D6000C4F80051C4F80451394604F1D000FFF70B
:102D7000DBFE4FF0000231464046FFF7ADFF84F81E
:102D8000F45084F8F5500023C4F89030C4F898301B
:102D9000C4F89430E36DC4F89C3084F80851C4F84A
:102DA000F850D4F8FC30D4F80021934201D0C4F894
:102DB00000312046BDE8F08100007F43B06001088B
:102DC000E060010808B50846910003F0B5FF08BDB2
:102DD00008B5B1F1005F03D2880004F029FD08BDF9
:102DE000B1F1804F01D305F089F905F077F90000C2
:102DF0002DE9F84F05468A4693461E4A0121FFF702
:102E000023FFD5F800806F68AAEB0804814618B349
:102E1000002201462846FFF7DBFF0646DBF80030BC
:102E20003351002C1ADC04343444A7EB0A07002F7A
:102E30001ADC3C44AA68A2EB08029210B8F1000F19
:102E400003D041462846FFF7BDFF2E606C6006EBBD
:102E50008906AE60BDE8F88F0026DFE722464146CE
:102E600030460DF0FDFCDEE73A46514620460DF0B7
:102E7000F7FCDEE7F85F010808B543688268934213
:102E800005D00A681A6043680433436008BD0A46E7
:102E90001946FFF7ADFFF9E72DE9F04182B0019146
:102EA00000297BD004460D4600F1FC063046FFF7B2
:102EB00034FE18B195F8F43084F8F53094F8F52024
:102EC00095F8F4309A4203D0002002B0BDE8F081BA
:102ED000C5F8F84001A93046FFF7CEFF94F8F53069
:102EE000012B41D094F8F530002B3BD126797608A0
:102EF000D4F850804FF07C514046FDF7ABFC0546BE
:102F00003046FDF753FC2946FDF79AFB054620465F
:102F1000FFF79DF9471EA16D4046FDF793FB06465E
:102F20003846FDF743FC3146FDF794FC0146019E0F
:102F30002846FDF787FBC6F89400E36DC6F89C3081
:102F40000023C4F8BC306079FDF730FC0546E16E23
:102F5000FDF776FBC4F8C400A16E2846FDF770FBB0
:102F6000C4F8CC000120B0E7019DE36BC5F89430B4
:102F70002046FFF76CF9266C0138FDF717FC314647
:102F8000FDF768FCC5F89C00656B2079FDF70EFC29
:102F90002946FDF755FBC4F8B400A3E7002094E7E9
:102FA00070B505460E4601600846FFF7E7F8A02019
:102FB00004F03EFC044600210A46FFF7B5F8AC6079
:102FC000B42004F035FC0446B42200210DF0C6FC08
:102FD0008023237140236371104BA36004F10C0024
:102FE000FEF7A0FE0E4B23600E4B23606C60314653
:102FF0002046FFF7F7FB96F808116868FFF792FB89
:1030000002216868FFF78EFB2868FFF7B7F870BDEC
:10301000A021204603F090FE03F090FE00007F43C5
:10302000B06001082C61010810B50446FEF7E5FA0E
:10303000A1682068FFF714F9A1686068FFF7E3FB57
:10304000FEF7D4FA10BD000000B583B00A4B5A69F0
:1030500042F001025A615B6903F001030193019B95
:10306000002211460F2002F0C1FC0F2002F0CEFC1E
:1030700003B05DF804FB00BF0010024070B588B0DB
:1030800000240494059406940794234B9A6942F013
:1030900020029A619A6902F020020192019A9A69CB
:1030A00042F004029A619A6902F004020292029AC2
:1030B0009A6942F008029A619B6903F0080303933E
:1030C000039B164D22460421284602F04CFF0122A4
:1030D0001821284602F047FF042304930126059691
:1030E00002230693079304A9284602F027FE18231B
:1030F0000493059606960323079304A9284602F035
:103100001DFEC02304930594069404A9284602F0EA
:1031100015FE08B070BD00BF00100240000801405D
:1031200070470020704700207047002070477047AC
:103130007047704700207047002070477047704705
:1031400070477047704770477047704770477047C7
:10315000704770477047704700207047704770474E
:10316000704770477047002070477047014B0360FD
:10317000704700BF5C61010810B50446034B036053
:10318000102103F0D9FD204610BD00BF5C6101088D
:10319000014B1868704700BFB807002008B5FFF75B
:1031A000F7FF0368DB6A984708BD10B50446FFF7D0
:1031B000EFFF0368D3F884302146984710BD10B55F
:1031C0000024012C06DCE0B2FFF7EFFF034610B944
:1031D0000134F6E70023184610BD08B5FFF7D8FF05
:1031E0000368D3F88830984708BD000010B5304B0D
:1031F0001B78022B0CD804465AB21ABB3BB9FFF716
:10320000ECFF78B900232B4A13702B4A137010BDC2
:10321000032BFCD1FFF7E1FF0028F8D1244B00225B
:103220001A70F4E70020FFF7C0FF10B1204B012215
:103230001A700120FFF7B9FF0028E3D01C4B0222CF
:103240001A70DFE7FFF7C9FF28B31B4B1B7813B9D0
:10325000194B01221A70174A13780133DBB213702D
:10326000642BD4D90020FFF7A0FF18B102232373E9
:10327000002363730120FFF798FF18B102236373E3
:103280000023237300230B4A13700B4A1370084B5F
:1032900003221A70BBE7084B1B781BB1044B0322B7
:1032A0001A70B4E70023024A137063732373AEE706
:1032B00095070020970700209607002010B50446C8
:1032C000FFF78BFF70B10023012B09D8E218127BA6
:1032D000012A04D0022A09D00133DBB2F4E713B982
:1032E0000023A38110BD012BFAD0F5E7002BF7D006
:1032F000012BF5D0F0E7000040B110B5044603689B
:10330000DB689847024B1C60012010BD002070470D
:10331000B807002030B585B0844601914468036841
:10332000E31ADB10114803FB00F0114D2D1A8D42FA
:1033300013D30390814213D803AA12681044DCF817
:103340000030E41AE410094B03FB04F4A04209D353
:10335000074B984208D805B030BD104604F0F6FE81
:1033600001AAEAE70248F6E70148F4E7ABAAAAAAED
:103370005555550508B5084602EB4202D10003F049
:10338000DBFC08BD10B5044601688268521AD210F1
:10339000034B03FB02F209B1FFF7ECFF204610BD1F
:1033A000ABAAAAAA70B506460468456803E02046A1
:1033B000FEF7D0F91834A542F9D13046FFF7E2FF05
:1033C000304670BD70B504460E46154608E02146ED
:1033D0002846FEF76BF92046FEF7BCF9183418357D
:1033E000B442F4D1284670BD10B582B0044601AA9B
:1033F0000249FEF74BFA204602B010BD3C610108BD
:1034000070B582B004460E46551A01950F2D0DD8A1
:1034100000942A4631462068FEF7C0F90022009247
:10342000019B63602168CA5402B070BD002201A9EB
:10343000FEF7F2F92060019BA360E9E710B50446AE
:103440000B4600F10802026009685A684FF0000359
:103450000A44FFF7D5FF204610BD000008B5084B11
:10346000994205D801EB4101C80004F0E1F908BD1B
:10347000044B994201D904F041FE04F02FFE00BF35
:1034800055555505AAAAAA0A2DE9F84F04468846BB
:103490009246274A0121FFF73DFF2768D4F804B080
:1034A000A8EB0709054658B1002201462046FFF760
:1034B000D5FF0646B14451464846FFF7BFFF01E03D
:1034C0000026F7E72346324641463846FFF77AFFA3
:1034D000234600F1180259464046FFF773FF804625
:1034E000A368DB1BDB10134A03FB02F21FB1394652
:1034F0002046FFF73FFF2660C4F8048005EB450532
:1035000006EBC505A560BDE8F88F03F0DDFC46B904
:103510004846FEF71FF904F011F903F015FD03F01A
:103520000DFC2A4631462046FFF724FFF3E700BF93
:10353000F85F0108ABAAAAAA10B504464068A368C0
:10354000984205D0FFF77AFF63681833636010BDB7
:103550000A4601462046FFF797FFF8E770B5064692
:1035600015460C1AE410074B03FB04F406E0314641
:103570002846FFF7D9FA18361835013C002CF6DC3E
:10358000284670BDABAAAAAA08B5FFF7E7FF08BD99
:1035900008B5FFF7F9FF08BD38B504460D4601F13F
:1035A00018006168814202D02A46FFF7F1FF606887
:1035B00018386060FEF7CEF8284638BD08B5FFF72A
:1035C000EBFF08BD38B50D46444B1B68BFF35B8F5E
:1035D00013F0010F2ED0424B1B68BFF35B8F13F02B
:1035E000010F04D13E4804F0E1F8002830D13D4BF2
:1035F0001B68BFF35B8F13F0010F04D1394804F04F
:10360000D5F8002831D1384C29462046FFF794FFE1
:10361000636821685B1ADB10344A02FB03F3344A07
:1036200012789A4229D3FDF7E8FF0220FDF7ECFF5C
:10363000002438E0294804F0B9F80028CBD02D4AFE
:103640002D49294803F0F4FA244804F0CFF8C2E7E2
:10365000FFF79EFD4479FFF7A1FDB4FBF0F4244B86
:103660001C701F4804F0C2F8C1E7FFF797FD234B19
:1036700018701C4804F0BAF8C5E72046FFF79EFF13
:10368000D1E71E4B1B7803FB044004EB440105EB20
:10369000C1051844FDF78AF801462A460020FDF7C7
:1036A000BCFF0134E4B2104A536815685B1BDB10A1
:1036B0000E4901FB03F39C42E3D3FDF797FF012082
:1036C000FDF7A2FF38BD064804F08CF803F036FB86
:1036D000044804F087F803F031FB00BFA80700207E
:1036E000A007002098070020AC070020ABAAAAAAD8
:1036F000A407002000000020A53300089C0700203C
:1037000070477047704770477047704708B539B1C8
:103710008021074802F020FC003818BF012008BDB6
:103720004021034802F018FC003818BF0120F6E7DA
:103730000008014008B502F0DBF808BD00B591B003
:103740002822002106A80DF009F900230193029315
:10375000039304930593012206924FF48033079359
:103760000A9202220D920E934FF4E0130F9306A8D3
:1037700002F016FC80B90F2301930221029100236D
:1037800003934FF480620492059301A802F03AFE7D
:1037900028B911B05DF804FB01F032FFEBE701F04E
:1037A0002FFFF6E708B5FFF769FC08BD704708B5BD
:1037B00001F06AFF08BD08B5FFF746FC08BD08B573
:1037C000084602F0B9F808BD08B502F0AFF808BD28
:1037D0002DE9F04F83B007460E4691461D46DDF8B1
:1037E000308090F892A0CB18541CA4B200949BB2E5
:1037F00000F0FFFF78B3BAFA8AFB4FEA5B1B0124A3
:1038000014E087F892A00023009301234A46314632
:10381000384600F040FF0136B6B2640014F0FF04F1
:1038200002D108F101080124013DADB28DB198F833
:1038300000302342E5D197F89130002BEBD187F887
:1038400092B0009301234A463146384600F023FFE8
:10385000E1E787F892A003B0BDE8F08F2DE9F047CB
:1038600082B08246884614461F46BDF828500B9EFB
:1038700003F10709C9F3CC0903EB010C53199BB2FF
:1038800000931FFA8CF300F0B4FF60B90DE00096CE
:103890003B46224641465046FFF79AFF4E440134CC
:1038A000A4B2013DADB2002DF1D102B0BDE8F08768
:1038B0002DE9F04182B080460F4614461E46BDF801
:1038C000205001EB030C53199BB200931FFA8CF3A9
:1038D00000F08FFF60B90DE00022009233462246CF
:1038E0003946404600F0D7FE0134A4B2013DADB2E6
:1038F000002DF1D102B0BDE8F0812DE9F04782B092
:1039000080460D4614461E46BDF82890CF18BFB21B
:1039100002EB09039BB200933B4600F06AFF10B92B
:1039200002B0BDE8F08700230093334622462946C3
:10393000404600F0B0FEB9F1010FF1D9A9F102093A
:103940001FFA89F90134A4B2B9F1000F08D100239C
:103950000093334622462946404600F09CFEDFE7AE
:103960004FF0010ACDF800A04B46224629464046BA
:1039700000F091FE791ECDF800A04B46224689B298
:10398000404600F088FEA1441FFA89F4DFE72DE9E4
:10399000F04F87B080460C469246BDF84060BDF8B7
:1039A0004470039104931C44A4B29519ADB20095E0
:1039B000234600F01EFF10B907B0BDE8F08F039A50
:1039C00002EB07091FFA89F90AEB070B1FFA8BFBB9
:1039D000E41BA4B2013CA4B2ED1BADB2013DADB2FB
:1039E000022300933B465A464946404600F074FA8B
:1039F000012300933B465A462146404600F06CFAAC
:103A0000042300933B462A464946404600F064FAA8
:103A1000082300933B462A462146404600F05CFAC4
:103A2000049BDB1B9BB2DB1B9BB209F101091FFA54
:103A300089F90BF1010B1FFA8BFB022B0FD8F61B38
:103A4000B6B2F61BB6B2022EB6D9023EB6B2009698
:103A5000049B5A4603994046FFF72AFFACE7023B16
:103A60009BB27C1CA4B20094059352464946404642
:103A7000FFF71EFF0094059B2A4649464046FFF784
:103A800017FFDCE72DE9F04F85B007460C4690465E
:103A9000BDF838B0BDF83C60029103931C44A4B259
:103AA00002EB0B05ADB20095234600F0A2FE10B963
:103AB00005B0BDE8F08F029A02EB060A1FFA8AFAF7
:103AC00008EB06091FFA89F9A41BA4B2013CA4B2B1
:103AD000AD1BADB2013DADB20223009333464A4661
:103AE0005146384600F0D4F90123009333464A4644
:103AF0002146384600F0CCF90423009333462A4689
:103B00005146384600F0C4F90823009333462A464C
:103B10002146384600F0BCF9039B9B1B9BB29B1BC4
:103B20009BB2ABEB0604A4B2A41BA4B20AF1010A37
:103B30001FFA8AFA09F101091FFA89F9022B16D82E
:103B4000022CB5D9023CA4B2039B5D1EADB2234644
:103B50004A46029E3146384600F00AFE3146294464
:103B600023464A4689B2384600F002FEA0E7023BEF
:103B70009DB20BF1FF3B1FFA8BFB2B464246514691
:103B8000384600F0EDFD08EB0B022B4692B2514691
:103B9000384600F0E5FDD3E710B582B003681B7C22
:103BA000446B03FB01F1C90089B20C44009400216D
:103BB00001F002F902B010BD2DE9F041064690F87F
:103BC000387090F83950036893F8118000242A4621
:103BD00021463046FFF7E0FF0134E4B20135EDB293
:103BE000A74201D9A845F2D8BDE8F08108B503681D
:103BF0001B7C90F8382003FB02F2D2000021406BBE
:103C00000CF0ACFE08BD10B50446FFF7D5FF20460A
:103C100001F0F8F810BD2DE9F84380460F469146B3
:103C20001C46BDF820609DF8245015F0010F0AD104
:103C300015F0020F16D115F0080F24D115F0040F5E
:103C400032D1BDE8F883B21A591892B289B200F0A5
:103C500097FDF21B04EB090192B289B2404600F0D5
:103C60008FFDE5E7A6EB0902E11B92B289B240465F
:103C700000F086FDF21BA4EB090192B289B2404626
:103C800000F07EFDD7E706EB0902E11992B289B296
:103C9000404600F075FDBA1904EB090192B289B2F1
:103CA000404600F06DFDC9E706EB0902E11B92B248
:103CB00089B2404600F064FDBA19A4EB090192B242
:103CC00089B2404600F05CFDBBE72DE9F04F85B0BE
:103CD0000390894692461E469DF838B0C3F1010410
:103CE00024B2C3EBC3384FEA48080FFA88F8CDF87E
:103CF00004B000920B4632460021FFF78CFF0025EE
:103D000001271AE0013EB6B208F102081FFA88F353
:103D10000FFA88F823441CB20135ADB20237BBB2AA
:103D20003FB223441CB2CDF804B0CDF800A04B46FE
:103D3000324629460398FFF76EFFB54202D2002CA7
:103D4000E0DAE9E705B0BDE8F08F2DE9F8438046F9
:103D50000C4617461D46BDF820909DF8246016F0CD
:103D6000010F0AD116F0020F1BD116F0080F2DD14A
:103D700016F0040F3BD1BDE8F883531CA9EB0202F7
:103D800069189BB292B289B200F0F2FC631CA9EBF5
:103D90000402E9199BB292B289B2404600F0E8FCF5
:103DA000E0E77B1CA9EB0702291B9BB292B289B208
:103DB000404600F0DDFC631CA9EB0402E91B9BB24A
:103DC00092B289B2404600F0D3FCCEE77B1C2919A1
:103DD0009BB24A4689B2404600F0CAFC631CE9190E
:103DE0009BB24A4689B2404600F0C2FCC0E77B1C49
:103DF000291B9BB24A4689B2404600F0B9FC631CBD
:103E0000E91B9BB24A4689B2404600F0B1FCB2E7DA
:103E10002DE9F04F85B00390894692461E469DF8E5
:103E200038B0C3F1010424B2C3EBC3384FEA4808E9
:103E30000FFA88F8CDF804B000920B463246002104
:103E4000FFF783FF002501271AE0013EB6B208F113
:103E500002081FFA88F30FFA88F823441CB20135D0
:103E6000ADB20237BBB23FB223441CB2CDF804B0AE
:103E7000CDF800A04B46324629460398FFF765FF70
:103E8000B54202D2002CE0DAE9E705B0BDE8F08FD8
:103E90002DE9F04182B080460E4617461D46CB18EC
:103EA0009BB2AC18A4B20133521B491B0134A4B21B
:103EB00000949BB292B289B200F09BFC10B902B0A0
:103EC000BDE8F0819DF8203000932B463A463146FC
:103ED0004046FFF7FAFEF2E72DE9F04182B0804656
:103EE0000E4617461D46CB189BB2AC18A4B2013340
:103EF000521B491B0134A4B200949BB292B289B206
:103F000000F077FC10B902B0BDE8F0819DF82030D8
:103F100000932B463A4631464046FFF779FFF2E7D9
:103F20000823037000487047BC07002030B585B0F7
:103F300004460D4600931346084A094900F084FFE1
:103F40000DF10F00FFF7ECFF01460095054B9DF8C2
:103F50000F20204600F045FD05B030BDCB4B0008DA
:103F60000D4D00081F480008405C70474218435C34
:103F7000507800EB032080B270470020704738B5BE
:103F800004460D4600212846FFF7EEFF2070012170
:103F90002846FFF7E9FF607002212846FFF7E4FF9B
:103FA000A07003212846FFF7DFFFE07004212846B8
:103FB000FFF7DAFF207105212846FFF7D5FF607172
:103FC00006212846FFF7D0FFA07107212846FFF7FA
:103FD000CBFFE07108212846FFF7C6FF20720921B8
:103FE0002846FFF7C1FF60720A212846FFF7BCFF91
:103FF000A0720B212846FFF7B7FFE0720C2128467C
:10400000FFF7B2FF20730D212846FFF7ADFF607365
:104010000E212846FFF7A8FFA0730F212846FFF7BF
:10402000A3FFE07310212846FFF79EFF20741121A3
:104030002846FFF79BFF608213212846FFF796FF73
:10404000A08215212846FFF791FFE08238BD30B5E8
:10405000024690F80CE00468207840FA0EF05FFA0F
:1040600080FC0EEB0103DBB2072B0FD9CEF1080E5B
:104070005FFA8EFE651C156094F801C00CFA0EFC08
:104080004CEA000C5FFA8CFC083BDBB24FF0FF30CF
:10409000884013732CEA000030BD38B5044600F1A7
:1040A00060050166002380F86C3090F8781028468F
:1040B000FFF7CDFF84F86A0094F879102846FFF7DF
:1040C000C6FF84F86B0094F8923084F86E30B3FA2F
:1040D00083F35B0984F86F3038BD10B50C46FFF7E9
:1040E000B6FF013CE4B20123A340C01A40B210BDA8
:1040F000012B08D0022B09D013B1401A80B27047AF
:10410000104480B27047084480B27047801A80B271
:104110007047012B08D0022B09D013B1104480B294
:104120007047084480B27047801A80B27047401AC6
:1041300080B270472DE9F04F89B005468A46079254
:1041400090F968305FFA83FB90F96920D3B203934A
:1041500019E0CDF814A01FE095F86E3085F8923084
:104160000097059B0699284600F095FAB2453CD386
:10417000ABEB040454445FFA84FA039B0133DBB2D3
:1041800003934FF0000B95F96A40E4B2A4EB0B06E1
:10419000F6B2B245DDD30596B5F866904FFA8BF1CD
:1041A0009DF90C8095F870703B4642460491B5F835
:1041B0006400FFF7AEFF06903B464246049948462E
:1041C000FFF796FF0246079B002BC5D195F86D308F
:1041D000002BCBD195F86F3085F892300097059B76
:1041E0000699284600F057FAC0E70AEB0B0385F85A
:1041F000683085F8698009B0BDE8F08F2DE9F04F8F
:1042000085B0044600F16005FFF747FF94F96B7035
:1042100094F87A102846FFF760FF804694F87B10E8
:104220002846FFF75AFF064694F87C102846FFF709
:1042300054FF039094F96A90B9F1000F55DD3E44A4
:10424000F6B2764276B294F870B05B46324641469A
:10425000B4F86400FFF75DFF8246A4F864005B4693
:1042600032464146B4F86600FFF742FF0246A4F822
:104270006600BBF1030F68D8DFE80BF0023B495B37
:104280001FFA89F353449BB2384480B200905146E0
:10429000204600F0AEFA40B3002384F8683084F87A
:1042A000693094F876102846FFF7D1FE804694F8DE
:1042B00077102846FFF7CBFE0646002241462046EF
:1042C000FFF738FF012231462046FFF733FF012177
:1042D0002846FFF7BCFE0028EFD194F96930BB42B5
:1042E000DFDB94F86E3084F89230039805B0BDE8B7
:1042F000F08FAAEB070189B201310AF101039BB2E9
:104300001FFA89F0104480B21FFA81FABEE71FFA43
:1043100089F1AAEB010189B201310AF101039BB2D3
:10432000C61BB6B20136013080B2B2B21FFA81FAB2
:10433000ACE70AEB07039BB21FFA89F1411A89B275
:104340000131013080B28AB2A0E753469EE770B5D2
:104350000E46846D1734FF2913D8602903D9B0F8AD
:1043600088301C4406E0402904D9B0F886301C444B
:1043700000E01C44637803B32278B242F9D1A01C58
:104380001CE0B0F88A301C44254600212846FFF77F
:10439000EDFD044402212846FFF7E8FD043586427E
:1043A000F3D801E0A3781C442278637853EA02230F
:1043B00005D09E42F6D1E01C00E0002070BD002038
:1043C000FCE710B50446A0F86410A0F86620194672
:1043D000FFF7BDFF28B101462046FFF70FFF80B26F
:1043E00010BD0020FCE738B50446FFF7B0FFB8B1B8
:1043F00001462046FFF751FE04F1600594F87A105B
:104400002846FFF76AFE84F8900094F87B1028464F
:10441000FFF763FE94F87C102846FFF75EFE38BD78
:104420000020FCE72DE9F04104460D46002680F807
:104430006A6000F050FB6FF03F08374601E03E44F1
:10444000B6B263682978204698474FF6FF739842C2
:104450000FD001354FF6FE739842F2D00146204648
:10446000FFF7C1FF87B218F1400FE8D194F99080AF
:10447000E5E794F96A307BB1F71BBFB29BB23B44CE
:104480009BB294F99060B6B21E44B6B2B8F1000F78
:1044900002DDB0441FFA88F63046BDE8F08180F8AE
:1044A0006D107047F8B504460D4616461F4690F845
:1044B0007030032B07D8DFE803F0020D1217C36D2D
:1044C0009847304486B23B46324629462046FFF79D
:1044D00078FFF8BDC36D9847281A85B2F3E7C36D1E
:1044E0009847301A86B2EEE7C36D9847284485B2E4
:1044F000E9E700002DE9F04104460F4616461D4647
:1045000000F0E9FA4FF0000804E00744BFB240446D
:104510001FFA80F863682978204698474FF6FF72A3
:10452000904222D001354FF6FE729042F2D00346FF
:10453000324639462046FFF7B5FF94F87030032B1A
:10454000E5D801A252F823F00B45000859450008B0
:104550005F450008654500080644B6B2D7E73F1A34
:10456000BFB2D4E7361AB6B2D1E74046BDE8F08113
:1045700010B5024C4460FFF7BDFF10BD274A00088C
:1045800010B5024C4460FFF7B5FF10BD3D4A00086E
:10459000836D73B390F9812080F88E2090F982307A
:1045A00080F88F3090F88D1019B3012914D000B520
:1045B00090F97E1090F980C001EB0C0E724505DA7F
:1045C000C9B25FFA8CF2114480F88E10634501DDA8
:1045D00080F88FC05DF804FB90F983108A4201DAFD
:1045E00080F88E1090F98420934202DD80F88F20AD
:1045F00070477047014BC365704700BF7B3F0008A1
:10460000836D8B4209D010B5044681657430FFF785
:10461000B6FC2046FFF7BCFF10BD704708B5024B43
:104620004360FFF7FFFE08BD3D4A000880F87010A8
:10463000704700B5B0F800E0B1F800C0F4441FFACC
:104640008CFCE64505D99E4513D203F1FF3C1FFAC9
:104650008CFC9E450FD294450FD9964500D37246E7
:104660009C4500D8634602809B1A0B8001205DF8B0
:1046700004FB9646EDE70020F9E70020F7E730B5A8
:1046800083B0C48F121BC46A9DF81850009592B273
:10469000A04703B030BD70B584B004469DF820003B
:1046A000ADF80E10ADF80C20ADF80A3094F88C304F
:1046B0005BB3BDF80A3043B3012B03D9022826D0DF
:1046C00003282DD010F0010534D1B4F84C20BDF8EA
:1046D0000C309A4219D8B4F84E20934215D2B4F84F
:1046E0004A30B4F848200DF10A010DF10E00FFF731
:1046F000A0FF50B1236B9E680095BDF80A30BDF84D
:104700000C20BDF80E102046B04704B070BD8AB230
:10471000D31A9BB2ADF80E300133ADF80E30D1E7AD
:10472000BDF80C20D31A9BB2ADF80C300133ADF8B4
:104730000C30C7E7B4F84820BDF80E309A42E4D8F0
:10474000B4F84A209342E0D2B4F84E30B4F84C208A
:104750000DF10A0103A8FFF76CFF0028CAD1D4E7C6
:1047600010B582B000240094FFF795FF02B010BD91
:1047700010B582B001240094FFF78DFF02B010BD88
:10478000B0F84C3093420BD8B0F84E30934207D972
:10479000B0F848308B4203D8B0F84A308B4200D88A
:1047A000704700B583B0002300930123FFF773FF28
:1047B00003B05DF804FB80F89210022902D90123AE
:1047C00080F8923070478A4205D2834209D89A42D3
:1047D00009D901207047834207D99A4207D901209D
:1047E000704701207047002070470020704700206C
:1047F000704770B504460D461E46BDF81030B0F83F
:104800004E10B0F84C00FFF7DEFF38B133462A46B1
:10481000B4F84A10B4F84800FFF7D5FF70BD70B582
:104820009DF8105002F0070E4FF0010C0CFA0EFC30
:104830005FFA8CFC90F89260012E1AD90024012EA8
:1048400019D022F007060268127C06FB02F292B22F
:104850000A44416B1144DDB90A782243D2B20A708E
:1048600082EA0C0201F8012B013B9BB2002BF3D131
:1048700070BD6446E3E74FF0000CE2E701241BE063
:104880006400E4B24FEA4C0C5FFA8CFC002BEFD0D2
:104890000A782243D2B20A7082EA0C020A700EF140
:1048A0000102013B9BB212F0070EE9D1428F114485
:1048B00090F89220012AE1D9012AE7D04FF0010CAB
:1048C000E4E710B5016890F83830DA0082870A7C96
:1048D000D200428790F839E04FEACE02C28703EB5C
:1048E0000E0491F811C0644503DDACEB0E0C1FFA09
:1048F0008CF3DB009BB2A0F84020A0F842201A44C1
:10490000A0F842208B8AA0F84430CB8AA0F8463029
:1049100010BD08B5FFF7D5FF08BD10B582B004463D
:10492000B0F856300093B0F85230B0F85420B0F8D8
:104930005010FFF75EFF20B9002384F88C3002B0DE
:1049400010BD012384F88C30B4F84820B4F85030FE
:104950009A4201D2A4F84830B4F84A20B4F8523050
:104960009A4201D9A4F84A30B4F84C20B4F8543033
:104970009A4201D2A4F84C30B4F84E20B4F8563024
:104980009A42DCD9A4F84E30D9E708B50022A0F845
:104990004820B0F84420A0F84A20B0F84020A0F801
:1049A0004C20B0F84220A0F84E20FFF7B6FF08BD1B
:1049B00010B582B09DF810400094FFF760FE02B081
:1049C00010BD08B50022A0F85020A0F854204FF6E2
:1049D000FF72A0F85220A0F85620036B5B6898473E
:1049E00008BD70B50446049E00258565C362416319
:1049F00080F8382080F8395080F86D5080F8915058
:104A000080F88D50012380F8923080F8933006634F
:104A1000336898472046FFF7D4FF2046FFF7EAFDAA
:104A200084F8705070BD084611B10A2903D0704750
:104A30004FF6FF7070474FF6FF70704702460B4607
:104A400000293FD00A2940D090F8261061BBFB2BEB
:104A500009D8F72B10D8EF2B14D8DF2B18D8BF2B81
:104A60001CD818467047052180F8261003F0010372
:104A700013844FF6FE707047042180F8261003F06F
:104A80000303F5E7032180F8261003F00703EFE79F
:104A9000022180F8261003F00F03E9E7012180F8D6
:104AA000261003F01F03E3E70139C9B280F826108E
:104AB000008C800180B2108403F03F0318431084FF
:104AC00031B970474FF6FF7070474FF6FF7070476F
:104AD0004FF6FE70F5E7002380F82630704710B5DA
:104AE0000A46046900232021A04710BD10B51346D3
:104AF00004690A461721A04710BD00B583B08DF8A0
:104B000007100DF107020121FFF7F0FF03B05DF878
:104B100004FB10B50A46C46800231521A04710BD48
:104B200010B50A46C46800231621A04710BD10B571
:104B30001346C4680A461721A04710BD10B5C468C3
:104B400000231A461821A04710BD10B5C4680023E1
:104B50001A461921A04710BD70B582B006460D4611
:104B600016E015290CD202B070BDFE29FBD12278C7
:104B70008DF807202921304600F04BF9023507E077
:104B800022788DF80720F46800233046A0470235CC
:104B90002C4614F8011B1929E7D818290ED216291A
:104BA000DFD91729DFD123788DF807300DF10702FF
:104BB00001213046FFF7BBFF0235E9E7F568002326
:104BC0001A463046A8472546E2E72DE9F04104465B
:104BD0000D4616461F46A1F11403052B22D8DFE827
:104BE00003F018030C1518180021FFF778FF314661
:104BF0002046FFF782FF012012E00021FFF76FFF40
:104C000031462046FFF779FF012009E00121FFF737
:104C100066FFD4F810803B46324629462046C047FE
:104C2000BDE8F0810020FBE7F8B5064615461C46B6
:104C30000B39042960D8DFE801F0035F0E21300052
:104C400022B92E49FFF788FF012025E02C49FFF704
:104C500083FF012020E042B92A49FFF77DFF336836
:104C60009B7C86F82230012016E02749FFF774FF6D
:104C70003368DB7C86F8223001200DE0FFF75EFF11
:104C800081213046FFF745FF29463046FFF748FFB0
:104C90003046FFF75AFF0120F8BDFFF74FFF637959
:104CA000DB00DBB296F822701F44FFB24021304691
:104CB000FFF72FFF390941F010013046FFF729FFB8
:104CC00007F00F013046FFF72BFFA17941F0B0014B
:104CD0003046FFF725FF2179C900226801F0F8016D
:104CE0003046FFF724FF6A1E12F0FF05F3D130466D
:104CF000FFF72BFF0120CFE70020CDE7FC6C010878
:104D0000F46C0108EC6C0108E46C010838B5054648
:104D10000C46FFF789FF90B9092C0AD00A2C0FD155
:104D2000284600F018F807492846FFF715FF01202C
:104D300006E00549284600F009F8012000E00120BE
:104D400038BD00BF046D0108CC6C010801608B7C8C
:104D500080F82230704710B5044600231A462821F7
:104D6000D0F814C0E04700231A4614212046D4F896
:104D70000CC0E04701224B21204600F04AF823688E
:104D80001A792921204600F044F800224B212046C0
:104D900000F03FF823681A792921204600F039F8FD
:104DA00001224B21204600F034F823685A7929214A
:104DB000204600F02EF810BD10B582B08DF8051019
:104DC0008DF806208DF80430049B009384686B46B0
:104DD00001220F21A04702B010BD10B58468002346
:104DE0001A460921A04710BD10B5846800231A4651
:104DF0000A21A04710BD10B50A46846800230B2184
:104E0000A04710BD10B5846800231A461021A047A2
:104E100010BD10B544690023A04710BD00207047A5
:104E200000230360074A8260C2600261426180F829
:104E3000233080F826308361FF2380F8243080F807
:104E4000283070471D4E0008F8B504460F46164638
:104E50001D46FFF7E5FFA760E6602561069B6361DD
:104E60002046FFF7BAFFF8BD406C704790F8480045
:104E700070470369187C704790F98E00C0B2704784
:104E8000024A0260024A0260704700BF606D01087A
:104E90005C61010838B50446A1F1140CBCF10C0F9B
:104EA00008D8DFE80CF0360707091A2807070707B4
:104EB00007071400002038BD1946174801F04CFDC3
:104EC000154BDB8E9BB2002BFAD10120F3E71021AA
:104ED000124801F048F80120EDE703681A784921EB
:104EE000FFF797FF65692268002392782C212046FE
:104EF000A8470120DFE702680023D2782C2145690A
:104F0000A84723685A7849212046FFF782FF0120ED
:104F1000D1E70120CFE700BF000C002000080140CE
:104F200008B5292903D0492905D0012008BD10461C
:104F300000F002FDF9E70421014801F014F8F4E75C
:104F40000008014008B51030FEF750FE08BD38B526
:104F50000D4600F1100401212046FFF7A0FA0021C0
:104F60002046FFF763FB29462046FFF749FB38BD83
:104F700008B51030FEF747FE08BD08B509681030C7
:104F8000FFF74CFBC0B208BD08B51030FFF713FCAB
:104F900008BD70B504461646084609F019FCFBF733
:104FA0001FFE05B2304609F013FCFBF719FE82B272
:104FB000A9B204F11000FFF7E3FB70BD2DE9F8433F
:104FC0008146884617461E46002414E0404609F0F4
:104FD000FFFBFBF705FE05B2384609F0F9FBFBF7CE
:104FE000FFFD82B2224492B2A9B209F11000FFF78C
:104FF000C7FB0134E4B2304609F0EAFBFBF716FECA
:10500000C0B2A04215D9631E14F0070F0CBF0125D2
:10501000002513F0070F08BF45F00105A31E13F08C
:10502000070F0CBF01230023002DE2D1002BCDD0B0
:10503000DFE7BDE8F8832DE9F84381468846174647
:105040001E46002413E0404609F0C2FBFBF7C8FDF2
:1050500085B2384609F0BCFBFBF7C2FD611982B28C
:1050600089B209F11000FFF78BFB0134E4B220464E
:10507000FBF79CFB3146FBF78BFDB0B104F1FF3C25
:1050800014F0070F0CBF012500251CF0070F08BF07
:1050900045F00105A31E13F0070F0CBF01230023E9
:1050A000002DE2D1002BCED0DFE7BDE8F883F8B5C4
:1050B000044617461E46084609F08AFBFBF790FD9A
:1050C00005B2384609F084FBFBF78AFD336882B2EB
:1050D000A9B204F11000FFF74BFAF8BDF8B5044689
:1050E00017461E46084609F073FBFBF779FD05B22B
:1050F000384609F06DFBFBF773FD336882B2A9B245
:1051000004F11000FFF73CFAF8BDF8B50446164666
:105110001F46084609F05CFBFBF762FD05B230460E
:1051200009F056FBFBF75CFD06B2384609F050FB70
:10513000FBF756FD83B2B2B2A9B204F11000FFF73B
:1051400017FBF8BDF8B5044616461F46084609F099
:105150003FFBFBF745FD05B2304609F039FBFBF795
:105160003FFD06B2384609F033FBFBF739FD83B249
:10517000B2B2A9B204F11000FFF7F2FAF8BDF0B52F
:1051800083B0044616461F46084609F021FBFBF78C
:1051900027FD05B2304609F01BFBFBF721FD06B2E7
:1051A000384609F015FBFBF71BFD07B2089809F01C
:1051B0000FFBFBF715FD099B019380B20090BBB27A
:1051C000B2B2A9B204F11000FEF748FB03B0F0BD83
:1051D000F0B583B0044616461F46084609F0F8FAB3
:1051E000FBF7FEFC05B2304609F0F2FAFBF7F8FCDB
:1051F00006B2384609F0ECFAFBF7F2FC07B2089861
:1052000009F0E6FAFBF7ECFC80B20090BBB2B2B258
:10521000A9B204F11000FEF74BFB03B0F0BD2DE97D
:10522000F04182B0054617461C46084609F0D0FA00
:10523000FBF7D6FC06B2384609F0CAFAFBF7D0FCF9
:1052400007B2204609F0C4FAFBF7CAFC0FFA80F84F
:10525000089809F0BDFAFBF7C3FC04B2099809F0FD
:10526000B7FAFBF7BDFC80B20190A4B200941FFA1C
:1052700088F3BAB2B1B205F11000FEF788FB02B0B4
:10528000BDE8F081F0B583B0044616461F460846D7
:1052900009F09EFAFBF7A4FC05B2304609F098FA33
:1052A000FBF79EFC06B2384609F092FAFBF798FC31
:1052B00007B2089809F08CFAFBF792FC80B20090D4
:1052C000BBB2B2B2A9B204F11000FEF716FB03B0F4
:1052D000F0BD2DE9F04182B0054617461C46084650
:1052E00009F076FAFBF77CFC06B2384609F070FA52
:1052F000FBF776FC07B2204609F06AFAFBF770FC70
:105300000FFA80F8089809F063FAFBF769FC04B219
:10531000099809F05DFAFBF763FC80B20190A4B232
:1053200000941FFA88F3BAB2B1B205F11000FEF78B
:10533000A9FB02B0BDE8F08110B50446044B036040
:10534000044B0360A42101F0F7FC204610BD00BF10
:10535000606D01085C61010830B587B08DF80F10F1
:1053600000258DF817500E4C2A460421204600F0E7
:10537000FAFD2A461021204600F0F5FD4FF47A731D
:10538000009301230DF117020DF10F01054801F003
:10539000C0F901220421204600F0E5FD07B030BD30
:1053A00000080140000C002010B504468D21FFF7D5
:1053B000D3FF14212046FFF7CFFFAF212046FFF790
:1053C000CBFF10BD10B504468D21FFF7C5FF10219E
:1053D0002046FFF7C1FFAE212046FFF7BDFF10BDFD
:1053E00010B586B08DF80F101AB9CBB2DB438DF82B
:1053F0000F3000228DF817200D4C0421204600F0BC
:10540000B2FD01221021204600F0ADFD4FF47A7369
:10541000009301230DF117020DF10F01054801F072
:1054200078F901220421204600F09DFD06B010BD50
:1054300000080140000C002038B504460D4642F03B
:10544000B001FFF789FF290941F010012046FFF75D
:1054500083FF05F00F012046FFF77EFF38BDF8B54A
:1054600005460E4600270BE0012231462846FFF78D
:10547000B7FF0134E4B214F0800FF5D00137FFB26A
:10548000072F06D8002239462846FFF7D5FF00240B
:10549000F1E7F8BD10B504460021FFF7E0FF002258
:1054A00004E00133B3F57A7FFBD30132B2F57A7FA2
:1054B00001D20023F6E7AE212046FFF74DFFD521AC
:1054C0002046FFF749FF80212046FFF745FFA8212E
:1054D0002046FFF741FF3F212046FFF73DFFD32144
:1054E0002046FFF739FF00212046FFF735FF402116
:1054F0002046FFF731FFA1212046FFF72DFFC821ED
:105500002046FFF729FFDA212046FFF725FF122169
:105510002046FFF721FF81212046FFF71DFFCF2105
:105520002046FFF719FFD9212046FFF715FFF1218B
:105530002046FFF711FFDB212046FFF70DFF30214A
:105540002046FFF709FFA4212046FFF705FFA6210B
:105550002046FFF701FF8D212046FFF7FDFE1421B5
:105560002046FFF7F9FEAF212046FFF7F5FE10BDFC
:1055700010B500F110040E4B0E4A0F492046FEF7FD
:10558000D5FC2046FFF730FC00212046FFF733FC16
:105590002046FEF72BFB01212046FEF780FF00216D
:1055A0002046FFF743F805492046FFF729F810BDCC
:1055B000214F0008954E0008C06C0108F4610108F5
:1055C00010B50446FEF7B6F82046FEF7B7F82046B9
:1055D000FEF7E8F82046FEF7EEF82046FEF7E6F87C
:1055E0002046FEF7E4F82046FFF754FF2046FEF77A
:1055F0008CF82046FEF784F82046FFF7B9FF10BD6F
:1056000072B6FEE700B591B02822002106A80BF083
:10561000A5F90023019302930393049305930122B8
:1056200006924FF4803307930A9202220D920E9352
:105630004FF4E0130F9306A800F0B2FC80B90F23DB
:10564000019302210291002303934FF4806204929C
:10565000059301A800F0D6FE20B911B05DF804FB57
:10566000FFF7CEFFFFF7CCFF08B500F041F9FFF7D9
:10567000C9FFFDF703FDFDF7E7FC00F005F8FCF7B7
:105680009BF9FCF707F8FEE708B50E480E4B0360E0
:105690004FF48273436000238360C360022202617F
:1056A000012242614FF400728261C361036243626E
:1056B00083620A23C36200F0D1FF00B908BDFFF77F
:1056C0009FFFFBE7000C00200038004010B586B0BB
:1056D000002302930393049305930268214B9A429B
:1056E00001D006B010BD044603F5EC33DA6942F48C
:1056F0008042DA61DA6902F480420092009A9A6983
:1057000042F008029A619B6903F008030193019B30
:105710004FF420430293022303930323059302A92A
:10572000114800F00BFB1148114B0360102343603C
:10573000002383608022C260036143618361C3618F
:1057400000F09CF958B9094BA3645C620022114631
:10575000242000F04BF9242000F058F9C1E7FFF7AE
:105760004FFFF0E700380040000C0140BC0B002068
:105770005800024082B00E4B9A6942F001029A61D1
:105780009A6902F001020092009ADA6942F08052AE
:10579000DA61DB6903F080530193019B054A53688A
:1057A00023F0E06343F00073536002B0704700BF22
:1057B0000010024000000140FEE7FEE7FEE7FEE7C2
:1057C000FEE770477047704708B500F0A3F808BDC2
:1057D00008B5024800F010FA08BD00BFBC0B00205D
:1057E00008B5024801F076F908BD00BF000C0020A2
:1057F0000120704708B50BF0EBF9162303604FF05A
:10580000FF3008BD08B54FF0FF31FFF7F3FFFEE7AB
:1058100070B50C461646002506E0AFF30080214621
:1058200001F8010B01350C46B542F6DB304670BD80
:1058300070B50C461646002504E014F8010BAFF3D2
:1058400000800135B542F8DB304670BD08B503462F
:105850000B4A126842B10A4A106803446A469342EE
:1058600006D8074A136008BD054A06491160F2E7E9
:105870000BF0AEF90C2303604FF0FF30F3E700BFED
:10588000580C0020A80F00204FF0FF3070474FF455
:1058900000534B6000207047012070470020704784
:1058A0007047000010B504460E4B1A784FF47A7317
:1058B000B3FBF2F30C4A1068B0FBF3F000F0B4F85D
:1058C00068B90F2C01D901200AE0002221464FF0CF
:1058D000FF3000F08BF8054B1C60002000E0012039
:1058E00010BD00BF900000208C000020940000201C
:1058F00008B5074A136843F010031360032000F053
:1059000063F80F20FFF7CEFFFFF734FF002008BD3C
:1059100000200240034A1168034B1B780B441360BC
:10592000704700BF5C0C002090000020014B1868FD
:10593000704700BF5C0C002038B50446FFF7F6FF47
:105940000546B4F1FF3F02D0044B1B781C44FFF71F
:10595000EDFF401BA042FAD338BD00BF90000020ED
:10596000002808DB0901C9B200F1604000F5614080
:1059700080F80013704700F00F000901C9B2014B15
:105980001954704714ED00E000B500F00700C0F1B5
:10599000070CBCF1040F28BF4FF0040C031D062BAD
:1059A0000FD9C31E4FF0FF3E0EFA0CF021EA0001A2
:1059B00099400EFA03FE22EA0E0241EA02005DF867
:1059C00004FB0023EEE70000074AD36823F4E063FA
:1059D0001B041B0C000200F4E060034343F0BF63B0
:1059E00043F40033D360704700ED00E010B5044687
:1059F000054BD868C0F30220FFF7C6FF01462046DA
:105A0000FFF7AEFF10BD00BF00ED00E0002807DB90
:105A100000F01F02400901239340024A42F820305F
:105A2000704700BF00E100E00138B0F1807F0BD289
:105A30004FF0E0235861054AF02182F8231000203E
:105A4000986107221A6170470120704700ED00E05D
:105A500030B40124056CAC40C56B6C6004686360B5
:105A60004368102B05D0036899600368DA6030BC86
:105A7000704703689A600368D960F8E760B310B4B0
:105A800002460168154B0B441548A0FB03031B0994
:105A90009B001364134BD363022382F82130086800
:105AA00020F47F5020F03000536894682343D4687A
:105AB0002343146923435469234394692343D469DA
:105AC000234303430B6000209063012382F82130BD
:105AD00082F8200010BC704701207047F8FFFDBF1E
