:020000040800F2
:100000000050002021980008397C00083B7C000843
:100010003D7C00083F7C0008417C00080000000097
:10002000000000000000000000000000437C000809
:10003000457C000800000000477C0008497C00085F
:10004000699800086998000869980008699800088C
:10005000699800086998000869980008699800087C
:10006000699800086998000869980008699800086C
:10007000699800086998000869980008517C000890
:10008000699800086998000869980008699800084C
:10009000699800086998000869980008699800083C
:1000A000699800086998000869980008699800082C
:1000B000699800086998000869980008699800081C
:1000C000699800086998000869980008699800080C
:1000D000617C000869980008699800086998000820
:1000E00069980008699800086998000800000000F5
:1000F0000000000000000000000000000000000000
:0C01000000000000000000005FF808F1A3
:1001100081F0004102E000BF83F0004330B54FEAB8
:1001200041044FEA430594EA050F08BF90EA020F25
:100130001FBF54EA000C55EA020C7FEA645C7FEAB8
:10014000655C00F0E2804FEA5454D4EB5555B8BFDB
:100150006D420CDD2C4480EA020281EA030382EA4C
:10016000000083EA010180EA020281EA0303362DDE
:1001700088BF30BD11F0004F4FEA01314FF4801CB1
:100180004CEA113102D0404261EB410113F0004FC3
:100190004FEA03334CEA133302D0524263EB43037A
:1001A00094EA050F00F0A780A4F10104D5F1200E18
:1001B0000DDB02FA0EFC22FA05F2801841F1000173
:1001C00003FA0EF2801843FA05F359410EE0A5F147
:1001D00020050EF1200E012A03FA0EFC28BF4CF078
:1001E000020C43FA05F3C01851EBE37101F000452E
:1001F00007D54FF0000EDCF1000C7EEB00006EEB3B
:100200000101B1F5801F1BD3B1F5001F0CD34908C4
:100210005FEA30004FEA3C0C04F101044FEA44521B
:1002200012F5800F80F09A80BCF1004F08BF5FEAA2
:10023000500C50F1000041EB045141EA050130BD82
:100240005FEA4C0C404141EB0101013C28BFB1F594
:10025000801FE9D291F0000F04BF01460020B1FADF
:1002600081F308BF2033A3F10B03B3F120020CDAB2
:100270000C3208DD02F1140CC2F10C0201FA0CF090
:1002800021FA02F10CE002F11402D8BFC2F1200CF5
:1002900001FA02F120FA0CFCDCBF41EA0C019040AB
:1002A000E41AA2BF01EB0451294330BD6FEA0404F4
:1002B0001F3C1CDA0C340EDC04F11404C4F12002DF
:1002C00020FA04F001FA02F340EA030021FA04F3F1
:1002D00045EA030130BDC4F10C04C4F1200220FA48
:1002E00002F001FA04F340EA0300294630BD21FA86
:1002F00004F0294630BD94F0000F83F4801306BF4C
:1003000081F480110134013D4EE77FEA645C18BF3F
:100310007FEA655C29D094EA050F08BF90EA020FD6
:1003200005D054EA000C04BF1946104630BD91EACE
:10033000030F1EBF0021002030BD5FEA545C05D1D1
:100340004000494128BF41F0004130BD14F5800410
:100350003CBF01F5801130BD01F0004545F0FE4184
:1003600041F470014FF0000030BD7FEA645C1ABFB9
:10037000194610467FEA655C1CBF0B46024650EAF0
:10038000013406BF52EA033591EA030F41F400211C
:1003900030BD00BF90F0000F04BF0021704730B5A2
:1003A0004FF4806404F132044FF000054FF0000177
:1003B00050E700BF90F0000F04BF0021704730B538
:1003C0004FF4806404F1320410F0004548BF40420D
:1003D0004FF000013EE700BF42004FEAE2014FEA62
:1003E00031014FEA02701FBF12F07F4393F07F4F3D
:1003F00081F06051704732F07F4208BF704793F040
:100400007F4F04BF41F40021704730B54FF4607452
:1004100001F0004521F000411CE700BF50EA010255
:1004200008BF704730B54FF000050AE050EA0102FE
:1004300008BF704730B511F0004502D5404261EB6E
:1004400041014FF4806404F132045FEA915C3FF4AF
:10045000D8AE4FF003025FEADC0C18BF03325FEA4C
:10046000DC0C18BF033202EBDC02C2F1200300FAFD
:1004700003FC20FA02F001FA03FE40EA0E0021FA22
:1004800002F11444BDE600BF4FF0FF3C06E000BFA0
:100490004FF0010C02E000BF4FF0010C4DF804CD0D
:1004A0004FEA410C7FEA6C5C4FEA430C18BF7FEACD
:1004B0006C5C1BD001B050EA410C0CBF52EA430CFB
:1004C00091EA030F02BF90EA020F0020704710F17B
:1004D000000F91EA030F58BF994208BF90422CBF0A
:1004E000D8176FEAE37040F0010070474FEA410C03
:1004F0007FEA6C5C02D150EA013C07D14FEA430C21
:100500007FEA6C5CD6D152EA033CD3D05DF8040B91
:10051000704700BF8446104662468C4619466346C3
:1005200000E000BF01B5FFF7B7FF002848BF10F19A
:10053000000F01BD4DF808EDFFF7F4FF0CBF0120DF
:1005400000205DF808FB00BF4DF808EDFFF7EAFF5B
:1005500034BF012000205DF808FB00BF4DF808ED16
:10056000FFF7E0FF94BF012000205DF808FB00BF0B
:100570004DF808EDFFF7CEFF94BF012000205DF895
:1005800008FB00BF4DF808EDFFF7C4FF34BF0120A2
:1005900000205DF808FB00BF4FEA4102B2F1E043E2
:1005A00024BFB3F5001CDCF1FE5C0DD901F0004C5A
:1005B0004FEAC0024CEA5070B2F1004F40EB8300AA
:1005C00008BF20F00100704711F0804F21D113F1D6
:1005D0003872BCBF01F00040704741F480114FEA0F
:1005E0005252C2F11802C2F1200C10FA0CF320FA98
:1005F00002F018BF40F001004FEAC1234FEAD323B5
:1006000003FA0CFC40EA0C0023FA02F34FEA43031E
:10061000CCE77FEA625307D150EA01331EBF4FF0A7
:10062000FE4040F44000704701F0004040F0FE40C2
:1006300040F40000704700BF80F0004002E000BFBF
:1006400081F0004142001FBF5FEA410392EA030FBD
:100650007FEA226C7FEA236C6AD04FEA1262D2EB07
:100660001363C1BFD218414048404140B8BF5B420C
:10067000192B88BF704710F0004F40F4000020F0A5
:100680007F4018BF404211F0004F41F4000121F0BB
:100690007F4118BF494292EA030F3FD0A2F1010205
:1006A00041FA03FC10EB0C00C3F1200301FA03F143
:1006B00000F0004302D5494260EB4000B0F5000F66
:1006C00013D3B0F1807F06D340084FEA310102F125
:1006D0000102FE2A51D2B1F1004F40EBC25008BFD7
:1006E00020F0010040EA03007047490040EB0000A1
:1006F000013A28BFB0F5000FEDD2B0FA80FCACF1A2
:10070000080CB2EB0C0200FA0CF0AABF00EBC250CE
:1007100052421843BCBFD0401843704792F0000FBC
:1007200081F4000106BF80F400000132013BB5E70F
:100730004FEA41037FEA226C18BF7FEA236C21D085
:1007400092EA030F04D092F0000F08BF08467047EA
:1007500090EA010F1CBF0020704712F07F4F04D1B8
:10076000400028BF40F00040704712F100723CBFCB
:1007700000F50000704700F0004343F0FE4040F4F5
:10078000000070477FEA226216BF08467FEA2363B3
:100790000146420206BF5FEA412390EA010F40F49E
:1007A000800070474FF0000304E000BF10F00043EA
:1007B00048BF40425FEA000C08BF704743F09643D1
:1007C00001464FF000001CE050EA010208BF7047EC
:1007D0004FF000030AE000BF50EA010208BF704773
:1007E00011F0004302D5404261EB41015FEA010C88
:1007F00002BF84460146002043F0B64308BFA3F180
:100800008053A3F50003BCFA8CF2083AA3EBC25361
:1008100010DB01FA02FC634400FA02FCC2F1200280
:10082000BCF1004F20FA02F243EB020008BF20F0B7
:100830000100704702F1200201FA02FCC2F120021D
:1008400050EA4C0021FA02F243EB020008BF20EA12
:10085000DC7070474FF0FF0C1CEAD0521EBF1CEA40
:10086000D15392EA0C0F93EA0C0F6FD01A4480EA2E
:10087000010C400218BF5FEA41211ED04FF0006317
:1008800043EA501043EA5111A0FB01310CF0004043
:10089000B1F5000F3EBF490041EAD3715B0040EA69
:1008A000010062F17F02FD2A1DD8B3F1004F40EB39
:1008B000C25008BF20F00100704790F0000F0CF00C
:1008C000004C08BF49024CEA502040EA51207F3AD0
:1008D000C2BFD2F1FF0340EAC250704740F40000AB
:1008E0004FF00003013A5DDC12F1190FDCBF00F09C
:1008F00000407047C2F10002410021FA02F1C2F14A
:10090000200200FA02FC5FEA310040F1000053EAE5
:100910004C0308BF20EADC70704792F0000F00F033
:10092000004C02BF400010F4000F013AF9D040EA39
:100930000C0093F0000F01F0004C02BF490011F4CD
:10094000000F013BF9D041EA0C018FE70CEAD153CB
:1009500092EA0C0F18BF93EA0C0F0AD030F0004C4B
:1009600018BF31F0004CD8D180EA010000F00040FF
:10097000704790F0000F17BF90F0004F084691F0BD
:10098000000F91F0004F14D092EA0C0F01D14202F7
:100990000FD193EA0C0F03D14B0218BF084608D1C0
:1009A00080EA010000F0004040F0FE4040F400000A
:1009B000704740F0FE4040F4400070474FF0FF0C9D
:1009C0001CEAD0521EBF1CEAD15392EA0C0F93EAE4
:1009D0000C0F69D0A2EB030280EA010C49024FEA36
:1009E000402037D04FF0805343EA111143EA1013EF
:1009F0000CF000408B4238BF5B0042F17D024FF4A7
:100A0000000C8B4224BF5B1A40EA0C00B3EB510F81
:100A100024BFA3EB510340EA5C00B3EB910F24BF6A
:100A2000A3EB910340EA9C00B3EBD10F24BFA3EBEF
:100A3000D10340EADC001B0118BF5FEA1C1CE0D1B7
:100A4000FD2A3FF650AF8B4240EBC25008BF20F06A
:100A5000010070470CF0004C4CEA50207F32C2BFBE
:100A6000D2F1FF0340EAC250704740F400004FF05B
:100A70000003013A37E792F0000F00F0004C02BF8C
:100A8000400010F4000F013AF9D040EA0C0093F056
:100A9000000F01F0004C02BF490011F4000F013BB0
:100AA000F9D041EA0C0195E70CEAD15392EA0C0F18
:100AB00008D142027FF47DAF93EA0C0F7FF470AF50
:100AC000084676E793EA0C0F04D14B023FF44CAF93
:100AD00008466EE730F0004C18BF31F0004CCAD128
:100AE00030F000427FF45CAF31F000437FF43CAF64
:100AF0005FE700BF4FF0FF3C06E000BF4FF0010C86
:100B000002E000BF4FF0010C4DF804CD4FEA400267
:100B10004FEA41037FEA226C18BF7FEA236C11D0B1
:100B200001B052EA530C18BF90EA010F58BFB2EB64
:100B3000030088BFC81738BF6FEAE17018BF40F0E4
:100B4000010070477FEA226C02D15FEA402C05D198
:100B50007FEA236CE4D15FEA412CE1D05DF8040B1D
:100B6000704700BF844608466146FFE70FB5FFF7B0
:100B7000C9FF002848BF10F1000F0FBD4DF808ED68
:100B8000FFF7F4FF0CBF012000205DF808FB00BF59
:100B90004DF808EDFFF7EAFF34BF012000205DF8B3
:100BA00008FB00BF4DF808EDFFF7E0FF94BF012000
:100BB00000205DF808FB00BF4DF808EDFFF7D2FFFD
:100BC00094BF012000205DF808FB00BF4DF808ED40
:100BD000FFF7C8FF34BF012000205DF808FB00BF0D
:100BE0004FEA4002B2F1FE4F0FD34FF09E03B3EB3A
:100BF00012620DD94FEA002343F0004310F0004F7A
:100C000023FA02F018BF404270474FF000007047CF
:100C100012F1610F01D1420205D110F0004008BF6E
:100C20006FF0004070474FF00000704742000ED256
:100C3000B2F1FE4F0BD34FF09E03B3EB126209D417
:100C40004FEA002343F0004323FA02F070474FF0CD
:100C50000000704712F1610F01D1420202D14FF042
:100C6000FF3070474FF00000704700BF00F13401C3
:100C700091E838009C46A6464CF8045D90E8FF0FCA
:100C8000E54600BD90EC210B704700BF80EC210BC6
:100C9000704700BF90EC200B704700BF80EC200B2A
:100CA000704700BFD0EC200B704700BFC0EC200B9A
:100CB000704700BFF0EC0201F0EC0211F0EC0221F1
:100CC000F0EC0231F0EC0241F0EC0251F0EC026188
:100CD000F0EC0271F0EC0281F0EC0291F0EC02A178
:100CE000F0EC02B1F0EC02C1F0EC02D1F0EC02E168
:100CF000F0EC02F1704700BFE0EC0201E0EC021101
:100D0000E0EC0221E0EC0231E0EC0241E0EC0251C7
:100D1000E0EC0261E0EC0271E0EC0281E0EC0291B7
:100D2000E0EC02A1E0EC02B1E0EC02C1E0EC02D1A7
:100D3000E0EC02E1E0EC02F1704700BFB0FC0181A1
:100D4000B0FC0191B0FC01A1B0FC01B1704700BF43
:100D5000A0FC0181A0FC0191A0FC01A1A0FC01B1BB
:100D6000704700BFEC4600B52DE900502DE9FF1F8C
:100D70004FF000032DE90C0001A910F0C5FCDDF8CF
:100D800040E012B0704700BFEC4600B52DE90050BE
:100D90002DE9FF1F4FF000032DE90C0001A910F011
:100DA000F3FCDDF840E012B0704700BFEC4600B540
:100DB0002DE900502DE9FF1F4FF000032DE90C0035
:100DC00001A910F001FDDDF840E012B0704700BF4E
:100DD000EC4600B52DE900502DE9FF1F4FF0000350
:100DE0002DE90C0001AB10F0C3FCDDF840E012B0BF
:100DF000704700BFEC4600B52DE900502DE9FF1FFC
:100E00004FF000032DE90C0001AA10F03BFDDDF8C6
:100E100040E012B0704700BF80EA010C1CF0030FE5
:100E200037D110F0030C20F0030021F0030150F83B
:100E3000042B08BF51F8043B0ED08CF0030C6FF06C
:100E40007F434FEACC0C23FA0CFC51F8043B42EAF6
:100E50000C0243EA0C0300BFA2F1013C9A4201BF1D
:100E60002CEA020C1CF0803F50F8042B51F8043B94
:100E7000F2D04FEA02604FEA1222012828BFB0EBFD
:100E8000036F08BF1B0AF4D003F0FF03000EC01A63
:100E9000704710F0030F0AD010F8012B11F8013B36
:100EA000012A28BF9A42F4D0A2EB030070474DF804
:100EB000045D50F8042B01F0030521F0030151F803
:100EC000043B022D26D04DD822F07F45B5EB132FE1
:100ED000A2F1013C2CEA020C0DD11CF0803C08BFB1
:100EE00051F8043B0AD185EA0205B5EB036F0CD13A
:100EF00050F8042BE8E74FEA13235BE03CF07F4C0B
:100F000054D10B784FEA126554E04FEA126503F0B2
:100F1000FF034FE04FEA0245A2F1013C4FEA1545BD
:100F20002CEA020CB5EB134F18D11CF0803C08BF23
:100F300051F8043B07D185EA0205B5EB034F09D10F
:100F400050F8042BE6E75FEA0C4C2FD10B884FEAF0
:100F500012452FE04FEA03434FEA12454FEA13438D
:100F600028E000BF02F0FF05B5EB136FA2F1013CD2
:100F70002CEA020C0DD11CF0803C08BF51F8043B58
:100F80000AD185EA0205B5EB032F0AD150F8042BEC
:100F9000E8E74FEA13630DE012F0FF0F06D051F8B7
:100FA000043B4FEA122523F07F4303E04FF000009B
:100FB00020BC704705F0FF0203F0FF00012828BFA6
:100FC000904204BF2D0A1B0AF4D0A2EB000020BC03
:100FD000704700BF844641EA000313F0030349D180
:100FE000403A23D30B6803604B6843608B6883608F
:100FF000CB68C3600B6903614B6943618B69836193
:10100000CB69C3610B6A03624B6A43628B6A83627A
:10101000CB6AC3620B6B03634B6B43638B6B836362
:10102000CB6BC36340304031403ADBD230320BD31C
:101030000B6803604B6843608B688360CB68C36058
:1010400010301031103AF3D20C3205D351F8043B72
:1010500040F8043B043AF9D2043208D0D2071CBF4E
:1010600011F8013B00F8013B01D30B880380604677
:10107000704700BF082A13D38B07B1D010F00303C9
:10108000AED0C3F10403D21ADB071CBF11F8013B39
:1010900000F8013BA4D331F8023B20F8023B9FE764
:1010A000043AD9D3013A11F8013B00F8013BF9D2D7
:1010B0000B7803704B7843708B7883706046704771
:1010C00070B54FF0FF0C4CF4E06C1CEA11541DBFDE
:1010D0001CEA135594EA0C0F95EA0C0F00F0DEF8A9
:1010E0002C4481EA030621EA4C5123EA4C5350EA8E
:1010F000013518BF52EA033541F4801143F48013DF
:1011000038D0A0FB02CE4FF00005E1FB02E506F06F
:101110000042E0FB03E54FF00006E1FB03569CF0C4
:10112000000F18BF4EF0010EA4F1FF04B6F5007FCA
:1011300064F5407404D25FEA4E0E6D4146EB06063C
:1011400042EAC62141EA55514FEAC52040EA5E50C5
:101150004FEACE2EB4F1FD0C88BFBCF5E06F1ED86F
:10116000BEF1004F08BF5FEA500E50F1000041EBA6
:10117000045170BD06F0004646EA010140EA020053
:1011800081EA0301B4EB5C04C2BFD4EB0C0541EA75
:10119000045170BD41F480114FF0000E013C00F38A
:1011A000AB8014F1360FDEBF002001F0004170BDAE
:1011B000C4F10004203C35DA0C341BDC04F11404C7
:1011C000C4F1200500FA05F320FA04F001FA05F253
:1011D00040EA020001F0004221F0004110EBD37020
:1011E00021FA04F642EB06015EEA430E08BF20EA4C
:1011F000D37070BDC4F10C04C4F1200500FA04F3EF
:1012000020FA05F001FA04F240EA020001F0004180
:1012100010EBD37041F100015EEA430E08BF20EAF3
:10122000D37070BDC4F1200500FA05F24EEA020E3B
:1012300020FA04F301FA05F243EA020321FA04F06A
:1012400001F0004121FA04F220EA020000EBD37021
:101250005EEA430E08BF20EAD37070BD94F0000F21
:101260000FD101F00046400041EB010111F4801F55
:1012700008BF013CF7D041EA060195F0000F18BF06
:10128000704703F00046520043EB030313F4801F42
:1012900008BF013DF7D043EA0603704794EA0C0FFC
:1012A0000CEA135518BF95EA0C0F0CD050EA410612
:1012B00018BF52EA4306D1D181EA030101F000418F
:1012C0004FF0000070BD50EA410606BF10461946B7
:1012D00052EA430619D094EA0C0F02D150EA0136C3
:1012E00013D195EA0C0F05D152EA03361CBF104604
:1012F00019460AD181EA030101F0004141F0FE41A3
:1013000041F470014FF0000070BD41F0FE4141F426
:10131000780170BD70B54FF0FF0C4CF4E06C1CEA26
:1013200011541DBF1CEA135594EA0C0F95EA0C0FDB
:1013300000F0A7F8A4EB050481EA030E52EA033596
:101340004FEA013100F088804FEA03334FF08055B7
:1013500045EA131343EA12634FEA022245EA1115E4
:1013600045EA10654FEA00260EF000419D4208BF95
:10137000964244F1FD0404F5407402D25B084FEA42
:101380003202B61A65EB03055B084FEA32024FF4EE
:1013900080104FF4002CB6EB020E75EB030E22BF4B
:1013A000B61A754640EA0C005B084FEA3202B6EB0B
:1013B000020E75EB030E22BFB61A754640EA5C00BA
:1013C0005B084FEA3202B6EB020E75EB030E22BF4A
:1013D000B61A754640EA9C005B084FEA3202B6EB4B
:1013E000020E75EB030E22BFB61A754640EADC000A
:1013F00055EA060E18D04FEA051545EA16754FEA6C
:1014000006164FEAC30343EA52734FEAC2025FEA89
:101410001C1CC0D111F4801F0BD141EA00014FF018
:1014200000004FF0004CB6E711F4801F04BF0143E9
:101430000020B4F1FD0C88BFBCF5E06F3FF6AFAE05
:10144000B5EB030C04BFB6EB020C5FEA500C50F195
:10145000000041EB045170BD0EF0004E4EEA113118
:1014600014EB5C04C2BFD4EB0C0541EA045170BD1F
:1014700041F480114FF0000E013C90E645EA060E63
:101480008DE60CEA135594EA0C0F08BF95EA0C0F91
:101490003FF43BAF94EA0C0F0AD150EA01347FF4D9
:1014A00034AF95EA0C0F7FF425AF104619462CE7B0
:1014B00095EA0C0F06D152EA03353FF4FDAE104613
:1014C000194622E750EA410618BF52EA43067FF464
:1014D000C5AE50EA41047FF40DAF52EA43057FF4F4
:1014E000EBAE12E74FEA410C7FEA6C5C02D150EAA6
:1014F000013C0AD14FEA430C7FEA6C5C02D152EA0C
:10150000033C02D14FF0000070474FF001007047DC
:101510004FEA410212F5001215D211D56FF478731B
:10152000B3EB625212D94FEAC12343F0004343EABE
:10153000505311F0004F23FA02F018BF4042704799
:101540004FF00000704750EA013005D111F0004023
:1015500008BF6FF0004070474FF00000704700BFB9
:101560000348044B834202D0034B03B11847704732
:101570008009002080090020000000000548064B7B
:101580001B1AD90F01EBA301491002D0034B03B181
:1015900018477047800900208009002000000000E3
:1015A00010B5064C237843B9FFF7DAFF044B13B1AB
:1015B0000448AFF300800123237010BD8009002090
:1015C000000000000C8B010808B5054B1BB1054954
:1015D0000548AFF30080BDE80840FFF7CFBF00BF6C
:1015E00000000000840900200C8B010800B585B0C4
:1015F00000230193029303931148124A026083600F
:10160000037303754FF46022C261436001230361D9
:1016100006F032FE68B910230193012302930023E0
:10162000039301A9064806F0A1FC28B905B05DF8AE
:1016300004FB06F014FAEEE706F011FAF6E700BF35
:101640009C090020002401400268094B9A4200D006
:10165000704782B003F56C439A6942F400729A6154
:101660009B6903F400730193019B02B0704700BFB4
:10167000002401400048704738000020F8B50D46AE
:1016800014461E460F6811463846FFF777FA50B9E0
:1016900021463846FEF7D4FF20F000400C49FFF702
:1016A00077FA08B12C60F8BD39462046FEF7C8FF2E
:1016B000044631460748FEF7C3FF01462046FFF7C0
:1016C0007DF901463846FEF7BDFF2860EBE700BF15
:1016D0009A99193E0000C84208B503F051FF03680B
:1016E000DB69984708BD08B503F04AFF03681B6A29
:1016F000984708BD10B5044603F042FF03685B6AD3
:101700002146984710BD10B5044603F039FF036821
:101710009B6A2146984710BD10B5044603F030FF80
:1017200003681B6B2146984710BDF8B504460D466B
:10173000164603F025FF03689F6B33462A46214671
:10174000B847F8BDF8B504460D46164603F018FF35
:1017500003689F6C33462A462146B847F8BDF8B562
:1017600004460D46164603F00BFF0368DF6C334654
:101770002A462146B847F8BDF0B583B004460D4669
:1017800016461F4603F0FCFE036800975F6D334664
:101790002A462146B84703B0F0BD08B503F0F0FE75
:1017A00003685B6F984708BD10B584B0844601910B
:1017B00044680368E31A98106FF0604EAEEBA30321
:1017C0008B4210D30390814210D803AB1B6818449E
:1017D000DCF80030E41AB0EBA40F09D3B0F1005FDD
:1017E00009D204B010BD104609F0CEFA01ABEDE706
:1017F0006FF06040F5E76FF06040F2E74068043852
:10180000704710B485B000230193029303930468DA
:1018100001944268029283680393D1F800C0C0F833
:1018200000C0D1F804C0C0F804C0D1F808C0C0F8A6
:1018300008C00C604A608B6005B010BC704708B5EA
:101840000846114608F096F808BD08B5034653F857
:10185000081B994203D082680132FFF7F0FF08BDF0
:1018600010B50446FFF7F1FF204610BD136801E0F4
:1018700040F8043B8142FBD1704708B5084691000F
:1018800008F078F808BD10B5044601688268521A5D
:1018900011B19210FFF7F1FF204610BD10B50446BC
:1018A000FFF7F1FF204610BD08B5B1F1005F03D28C
:1018B000880008F0DBFD08BDB1F1804F01D309F0CD
:1018C0003BFA09F029FA38B504460D4641B1002229
:1018D000FFF7EAFF2060606000EB8500A06038BD84
:1018E0000020F7E770B5B1F1005F0ED205460C4657
:1018F00016460023036043608360FFF7E4FF2B6814
:101900006CB103EB8404326804E0064809F03CFA49
:1019100043F8042B9C42FBD16C60284670BD1C46EA
:10192000FAE700BF088D010870B584B005460C4683
:101930001646836800681B1AB1EBA30F09D86968C3
:101940000B1AB4EBA30F11D86CB300EB840413682B
:1019500022E02B4601A8FFF7C5FF294601A8FFF7A3
:1019600050FF01A8FFF78FFF04B070BDFFF77EFFA7
:101970006B682A689A1AB4EBA20209D003EB8202C0
:10198000316801E043F8041B9A42FBD16A60EBE73F
:101990001A46FBE740F8043B8442FBD16B68A34244
:1019A000E2D06C60E0E70446F8E700002DE9F84F6C
:1019B00005468A4693461E4A0121FFF7F5FED5F8F3
:1019C00000806F68AAEB0804814618B30022014624
:1019D0002846FFF769FF0646DBF800303351002C3C
:1019E0001ADC04343444A7EB0A07002F1ADC3C4409
:1019F000AA68A2EB08029210B8F1000F03D041468A
:101A00002846FFF73AFF2E606C6006EB8906AE6051
:101A1000BDE8F88F0026DFE722464146304611F048
:101A20005FFDDEE73A465146204611F059FDDEE7FC
:101A30003C8D010810B5044643688268934208D083
:101A40000A681A604368043343602046FFF7D6FEF5
:101A500010BD0A461946FFF7A9FFF6E72DE9F04F3A
:101A600087B081462AE2B24808F0BEFC002800F0A8
:101A70003682B04AB049B14807F0F8FEAC4808F0E9
:101A8000D3FC2CE2AE4808F0AFFC002800F02F8217
:101A9000A84AA949AB4807F0E9FEA94808F0C4FCE8
:101AA00025E2A94808F0A0FC002800F02882A14AFD
:101AB000A149A64807F0DAFEA34808F0B5FC1EE2EB
:101AC000A34808F091FC002800F02182994AA1491E
:101AD000A14807F0CBFE9E4808F0A6FC17E29F48FD
:101AE00008F082FC002800F01A82924A99499C482A
:101AF00007F0BCFE994808F097FC10E203F040FDA7
:101B000004799548FFF7FFFD201A00EBD0704010D4
:101B1000FEF74CFE934B1860934808F085FC12E2E8
:101B200003F02EFD04798E48FFF7EDFD201A00EB3F
:101B3000D0704010FEF73AFE8C4B18608C4808F0CD
:101B400073FC11E28B4808F04FFC002800F018826B
:101B5000D5F8A4100020FEF773FD4FF07E51FEF77C
:101B60006FFD854B1860834808F05EFC08E28348EF
:101B700008F03AFC002800F00B82D5F8A8100020ED
:101B8000FEF75EFD4FF07E51FEF75AFD7C4B18606C
:101B90007A4808F049FCFBE17A4808F025FC002867
:101BA00000F0FE8103F0ECFC4079C043FEF7FEFD3F
:101BB000754B1860734808F037FCF1E15F4B1A6809
:101BC0005B68934201D05D4B5A605E4B1A685B685C
:101BD000934201D05B4B5A605C4B1A685B689A4237
:101BE00001D05A4B5A60002669E0FFF7D6FDC0EBE2
:101BF000C00010F0CBFDD5F8A0100020FEF720FDAE
:101C00004FF07E51FEF71CFD029002A94B48FFF7F2
:101C100011FF10F0C3FD044603F0B2FC90F80580FC
:101C2000D5F8A0000146FEF70DFD07464046FEF739
:101C3000BDFD3946FEF704FD4FF08041FEF700FD83
:101C40004FF07E51FEF7FEFCFEF7F0FF80B294FBF2
:101C5000F0F300FB13400130FEF7A8FD039003A949
:101C60003848FFF7E7FE10F099FD044603F088FCC2
:101C700090F80480D5F8A0000146FEF7E3FC074683
:101C80004046FEF793FD3946FEF7DAFC4FF08041FF
:101C9000FEF7D6FC4FF07E51FEF7D4FCFEF7C6FFF0
:101CA00080B294FBF0F300FB13400130FEF77EFDA1
:101CB000049004A92548FFF7BDFE0136F6B295F859
:101CC000AC30B34291D8314B01221A7075E103F068
:101CD00057FC4079C043FEF769FD2D4B186095F81D
:101CE000AC40D5F8A0100020FEF7AAFC4FF07E51C2
:101CF000FEF7A6FC059005AA21461248FFF714FE40
:101D0000D5F8A4100020FEF79BFC4FF07E51FEF7A3
:101D100097FC204B1860D5F8A8100020FEF790FC27
:101D20004FF07E51FEF78CFC1B4B186062E100BF48
:101D3000280A0020000000209D1800082C0A00201E
:101D4000180A00201C0A0020080A00200C0A0020A3
:101D5000040A0020611800081C000020000A00206E
:101D600004000020FC090020F8090020F4090020EC
:101D7000F0090020E8090020EC090020E00900201B
:101D8000E4090020D0090020D40900203A0A0020EC
:101D9000CC090020DC090020D8090020BA4F3B689C
:101DA0004FEA840AD5F8A080414653F82400FEF794
:101DB00047FCB64E336853F824B04FF07E51FEF71F
:101DC0003FFC42465946FFF7CAFC3B683268D5F8EB
:101DD000A0B052F824804FF0804153F82400FEF761
:101DE00031FC5A464146FFF7BAFCD7F800B03368D9
:101DF000D5F8A080414653F82400FEF721FC4FF0AF
:101E00007E51FEF71DFC014642465BF82400FFF7B9
:101E100099FC3F683368D5F8A0804FF0804153F8B3
:101E20002400FEF70FFC0146424657F82400FFF756
:101E300089FC3168964B1A68AB6A52F824205144E9
:101E400001A8FFF71BFC0134E4B295F8AC30A342C3
:101E5000A4D8D5F8B000FFF74DFC8E4E3168D5F808
:101E6000A400FEF7EFFB01468B4A8C4B1868FFF786
:101E70005CFCD5F8B400FFF73DFC894C2168D5F82F
:101E8000A800FEF7DFFB0146864A874B1868FFF77C
:101E90004CFCAB6A854A1268314601A8FFF7EEFB9D
:101EA000AB6A834A1268214601A8FFF7E7FBFFF7F8
:101EB00013FC804B1B884B4580F0D5807E4B1B78F4
:101EC000002B00F024817B4A1388013313807B4B65
:101ED0001B68BFF35B8F13F0010F3FF4C4AD784B69
:101EE0001B68BFF35B8F13F0010F3FF4CBAD754B55
:101EF0001B68BFF35B8F13F0010F3FF4D2AD724B41
:101F00001B68BFF35B8F13F0010F3FF4D9AD6F4B2C
:101F10001B68BFF35B8F13F0010F3FF4E0ADFFF7D9
:101F2000A9FB0546D0F8B000FFF7E4FB684B1B683F
:101F3000BFF35B8F13F0010F05D1654808F054FA29
:101F400000287FF4DBADD5F8B400FFF7D3FB614B7D
:101F50001B68BFF35B8F13F0010F05D15D4808F0DC
:101F600043FA00287FF4DCADD5F8B800FFF7C2FBD8
:101F7000594B1B68BFF35B8F13F0010F3FF4E2ADC9
:101F8000564B1B68BFF35B8F13F0010F3FF4EFADAF
:101F9000534B1B68BFF35B8F13F0010F3FF4FCAD95
:101FA000444B1B884B45BFF492AE4E4B00221A6047
:101FB0004D4B1B78002B3FF401AE03F0E1FA46795C
:101FC00076084FF07C51D5F8A400FEF743FC044698
:101FD0003046FEF7EBFB2146FEF732FB334B186031
:101FE000D5F8A810FEF72CFB4FF08141FEF728FB37
:101FF0002F4B1860FFF777FB0020FFF78DFB3B4C62
:10200000D4F8008003F0BCFA0079FEF7CBFB06465B
:1020100003F0B6FA4079FEF7C5FB034600273246C7
:1020200041463846FFF7A8FBAB6A2E4A12682146A4
:1020300001A8FFF723FB0120FFF76EFB03F0A0FAD6
:102040004079FEF7B3FB2168FEF7FCFA044603F083
:1020500097FA0079FEF7A6FB024621463846FFF7BD
:102060007EFB0024F1E603F08BFA4079C043FEF7D3
:102070009DFB1E4B1968FEF781FD00283FF41EAF43
:102080000D4B00221A7019E70C0A00202C0A0020C0
:102090001C0A0020EC0900201C000020FC09002084
:1020A000E409002004000020F4090020DC090020DD
:1020B000D8090020380A002034000020280A002017
:1020C000180A0020080A0020040A0020000A002044
:1020D000F8090020F0090020E8090020E0090020AC
:1020E000D0090020CC0900203A0A0020D4090020A1
:1020F000084808F095F907F03FFC074808F090F908
:1021000007F03AFC054808F08BF907F035FC07B0FA
:10211000BDE8F08FF8090020F0090020D009002068
:1021200010B5044603F02CFA03689B6E21469847CD
:1021300010BD000008B5024B186803F0D9F8FAE7A3
:10214000740A002008B5081E02DB08F08FF908BDEC
:1021500008F0E2FDF8B5541A0CD405460E4664B1F9
:1021600000222146FFF7EEFF28600719AF6034B95F
:102170006F60F8BD044808F007FE0020F4E722462F
:10218000314611F0ADF9F3E7088D010808B5012AD1
:1021900003D022B1FEF71EFF01E00B78037008BDEB
:1021A00008B50846114607F0E5FB08BD10B5044622
:1021B00001688268521A09B1FFF7F2FF204610BD8C
:1021C00010B50446FFF7F2FF204610BD10B582B0EF
:1021D000044602AB03E9060000230360436083600A
:1021E0000A44FFF7B7FF04E02046FFF7DFFF07F0E0
:1021F000C3FB204602B010BD08B5081E02DB08F084
:1022000035F908BD08F088FD10B50B68002B0EDB12
:10221000934206D95400B3EB420F02D20C60002C5B
:1022200008DB096800220131FFF7E6FF10BD034813
:1022300008F0AAFD6FF000430B60F2E7588D01082B
:1022400070B582B004460E46551A01950F2D0DD873
:1022500000942A4631462068FFF798FF002200923A
:10226000019B63602168CA5402B070BD002201A9BD
:10227000FFF7CAFF2060019BA360E9E738B500F1D2
:102280000803036069B104460D46084611F070FB6F
:102290004FF000032A1829462046FFF7D1FF2046B9
:1022A00038BD014808F058FD708D010870B5C0B008
:1022B000A42008F0DBF80446B84B036080230371C8
:1022C00040234371B64B836000218181B54B40F8B8
:1022D000103B942211F082F9204603F009FA4FF4E2
:1022E000AF70FFF71DFF4FF47A70FFF7B7FBAE4BEF
:1022F0001D684FF4AE7008F0B9F8044607AAAB4960
:1023000001A8FFF7BBFF08E0012525B14FF4AE712E
:10231000204607F02FFB07F02FFBA54A01A9204616
:1023200001F0FAFD2146284601F0A4FE04E0002554
:1023300001A8FFF78AFAE8E701A8FFF786FA9A4BA7
:102340001D684FF4AE7008F091F804460EAA994942
:1023500008A8FFF793FF08E0012525B14FF4AE71FF
:10236000204607F007FB07F007FB934A08A9204621
:1023700001F0D2FD2146284601F07CFE04E0002554
:1023800008A8FFF762FAE8E708A8FFF75EFA864BAD
:102390001D684FF4AE7008F069F8044615AA874925
:1023A0000FA8FFF76BFF08E0012525B14FF4AE71D0
:1023B000204607F0DFFA07F0DFFA0FA9204602F007
:1023C0001BF82146284601F055FE04E000250FA821
:1023D000FFF73BFAE9E70FA8FFF737FA784C2168D7
:1023E000714B186801F046FE25684FF4AE7008F096
:1023F0003DF8044601F0AAFF2146284601F03AFEC6
:102400006F4B1E684FF4AE7008F030F804461CAAFB
:102410006C4916A8FFF732FF08E0012525B14FF4FB
:10242000AE71204607F0A6FA07F0A6FA16A92046D4
:1024300001F0E2FF04E0012516A8FFF706FAEDE738
:10244000E42008F013F805465F4902F00BFC01E0B8
:102450000025F1E72A462146304601F08BFE01E0D7
:102460000025E9E716A8FFF7F0F9554B1D684FF472
:10247000B67007F0FBFF044623AA54491DA8FFF7D6
:10248000FDFE08E0012525B14FF4B671204607F0A6
:1024900071FA07F071FA1DA9204602F001F82146F1
:1024A000284601F0E7FD04E000251DA8FFF7CDF95F
:1024B000E9E71DA8FFF7C9F9414B1D684FF4B67055
:1024C00007F0D4FF04462AAA414924A8FFF7D6FE04
:1024D00008E0012525B14FF4B671204607F04AFA0D
:1024E00007F04AFA24A9204601F0DAFF21462846DF
:1024F00001F0C0FD04E0002524A8FFF7A6F9E9E7F4
:1025000024A8FFF7A2F92E4B1D684FF4AE7007F018
:10251000ADFF044631AA2F492BA8FFF7AFFE08E014
:10252000012525B14FF4AE71204607F023FA07F0DC
:1025300023FA2BA9204601F05FFF2146284601F02F
:1025400099FD04E000252BA8FFF77FF9E9E72BA808
:10255000FFF77BF91A4B1D684FF4AE7007F086FF4A
:10256000044638AA1C4932A8FFF788FE08E0012576
:1025700025B14FF4AE71204607F0FCF907F0FCF9E5
:1025800032A9204601F038FF2146284601F072FDAD
:1025900024E0002532A8FFF758F9E9E72C9001085C
:1025A00000007F438CA40108700A0020A48D01085C
:1025B000640A0020AC8D0108580A0020B48D01087F
:1025C0003C0A0020C48D010808010020D08D0108BC
:1025D000E08D0108F88D0108108E010832A8FFF780
:1025E00034F9264B1D684FF4AE7007F03FFF0446E8
:1025F0003FAA234939A8FFF741FE08E0012525B18C
:102600004FF4AE71204607F0B5F907F0B5F939A9D6
:10261000204601F0F1FE2146284601F02BFD04E0A2
:10262000002539A8FFF711F9E9E739A8FFF70DF9F7
:10263000144B1968144B186802F0D4FC40B070BDFC
:10264000012575E601259BE60125C0E64FF4AE7134
:10265000204607F08FF907F08FF9E421284607F0AC
:1026600089F90025E8E601251FE7012544E7012552
:1026700069E701258EE70125D3E700BF3C0A00206A
:10268000288E0108700A0020740A0020012800D05A
:1026900070474FF6FF739942FAD12DE9F041B8B077
:1026A000182007F0E3FE0023036043608360C360EB
:1026B000036143614D4B18604FF4B67007F0D6FECE
:1026C000044624AA4A491EA8FFF7D8FD1EA92046A1
:1026D00001F0E6FE474B1C601EA8FFF7B6F8464F18
:1026E0007824224639466846FEF774FCCDF894D02B
:1026F0002694DFF8088127AB224669464046FFF75B
:1027000065FD3F4E3F4D32462946404607F0AEF844
:10271000224639196846FEF75DFCCDF8A0D0299411
:10272000DFF8E4802AAB224669464046FFF74EFDBB
:1027300032462946404607F099F8224607F1F00153
:102740006846FEF747FCCDF8ACD02C94DFF8BC808F
:102750002DAB224669464046FFF738FD32462946F2
:10276000404607F083F8224607F5B4716846FEF745
:1027700031FCCDF8B8D02F94254C30AB7822694687
:102780002046FFF723FD32462946204607F06EF823
:102790004FF4AE7007F06AFE044637AA1D4931A80F
:1027A000FFF76CFD1A4A31A9204601F0B5FB1A4B20
:1027B0001C6031A8FFF749F838B0BDE8F0811EA8C9
:1027C000FFF743F84FF4B671204607F0D3F807F04F
:1027D000D3F8F7E731A8FFF738F84FF4AE71204689
:1027E00007F0C8F807F0C8F8F7E700BF740A002040
:1027F000408E0108700A0020288B0108640A00201E
:1028000000000020C1210008580A00204C0A0020C6
:10281000400A0020488E01083C0A002008B54FF607
:10282000FF710120FFF732FF08BD0000004870472C
:102830000C01002030B541490160414A4260414AE3
:102840008260414AC2600261404C4461404C8461F4
:10285000404CC461404C0462416282624FF0010C02
:1028600080F82CC080F82DC080F82EC080F82FC0D2
:10287000002280F83020394D45634FF08242826358
:102880004FF08141C1634FF0834404644FF07C5E9C
:10289000C0F844E081644FF0804EC0F84CE080F80E
:1028A00050C0DFF8BCC0C0F854C0C0F858C0C26502
:1028B0000266DFF8B0C0C0F864C08166DFF8A8C067
:1028C000C0F86CC00267DFF8A4C0C0F874C0C0F8DC
:1028D00078E0C567264DC0F88050DFF898C0C0F892
:1028E00084C0C0F888C0C0F88C20C0F89040C0F800
:1028F0009410C0F898E0204CC0F89C40C0F8A0E0CC
:102900001E4CC0F8A440C0F8A820102480F8AC40A9
:102910001B4CC0F8B0401B4CC0F8B440C0F8B840E5
:10292000C0F8BC20C0F8C020C0F8C410164AC0F8D7
:10293000C8204FF07E52C0F8CC2030BD0000A0422D
:10294000000082420000504200008C4200005C42C5
:102950000000C841000070410000C8420000A040D3
:102960000000F0410000C0400000904100004041E4
:1029700000004040000010420000B44200006041EE
:10298000CC9001082099010800002041F8B50446C8
:102990000D46164607683846FEF7F0F8E0B92946B6
:1029A0003846FDF74DFE20F000404FF07E51FEF717
:1029B000F9F890B939462846FDF742FE05463146FA
:1029C0000748FDF73DFE01462846FDF7F7FF0146A3
:1029D0003846FDF737FE2060F8BD2560FCE700BFF4
:1029E0000000C84270B504460D46164680230370A9
:1029F000402343700F4B43600830FFF71BFF002359
:102A000084F8F03029460020FDF71AFE0546C4F888
:102A1000D80031460020FDF713FEC4F8DC00C4F8EE
:102A2000E050C4F8E400C4F8E850C4F8EC002046D4
:102A300070BD00BF00007F432DE9F04704460E46FD
:102A40001546D0F8E0100020FDF7FAFD8046D4F8D6
:102A5000E4100020FDF7F4FD07464FF00109314670
:102A60004046FEF7B3F808B94FF000094FF0010AED
:102A700029463846FEF7AAF808B94FF0000A49EA95
:102A80000A0919F0FF0F2ED12078FDF78FFE41467D
:102A9000FDF7D8FD4FF07E51FDF7D2FD80466078FE
:102AA000FDF784FE3946FDF7CDFD4FF07E51FDF771
:102AB000C7FD07464FF0010431464046FEF768F86F
:102AC00008B94FF000044FF0010629463846FEF7DA
:102AD0005FF808B94FF00006344314F0FF0F04D13B
:102AE0000020BDE8F0870120FBE70220F9E738B5B8
:102AF000044615460020FDF7A3FDC4F8E80029466A
:102B00000020FDF79DFDC4F8EC0038BD38B5044643
:102B10000D460B6819680020FDF792FDC4F8E80027
:102B20002B6859680020FDF78BFDC4F8EC0038BD18
:102B300070B5044616460020FDF782FD0546C4F830
:102B4000E00031460020FDF77BFDC4F8E400C4F846
:102B5000E850C4F8EC0070BD70B505460C461B4B40
:102B60001B68BFF35B8F13F0010F16D054B1184BE5
:102B70001B78B4FBF3F203FB124212F0FF0F20D1DB
:102B8000B4FBF3F4687804FB00F0FDF70FFE024697
:102B900000212846FFF7ABFF70BD0C4807F024FC6E
:102BA0000028E3D0AE6C6878FDF700FE3146FDF7F3
:102BB00005FFFEF73BF8064B1870044807F034FC9D
:102BC000D4E7B4FBF3F3DCB2DCE700BF7C0A0020FF
:102BD000800A0020F8B504460D460B681E685F6841
:102BE0003A463146FFF728FF01280AD002280CD0C8
:102BF000364B1B78012B0CD0344B1B78022B2AD080
:102C0000F8BD324B01221A70F2E7304B02221A70E3
:102C1000EEE73A4631462046FFF769FFD4F8E07008
:102C20002E6831680020FDF70BFD01463846FDF7A0
:102C3000A5FF0028E0D0D4F8E47071680020FDF70B
:102C4000FFFC01463846FDF799FF0028D4D01F4B02
:102C500000221A70D0E72F687968A06CFDF7F2FCAB
:102C600006466078FDF7A2FD01463046FDF7E8FC18
:102C7000024639682046FFF73AFFD4F8E0602D6835
:102C800029680020FDF7DCFC01463046FDF776FFA1
:102C90000028B5D0D4F8E4606968A06CFDF7D2FCD8
:102CA00005466078FDF782FD01462846FDF7C8FC21
:102CB00001460020FDF7C4FC01463046FDF75EFFEB
:102CC00000289DD0014B00221A7099E7780A002055
:102CD00070B504460E46416EC06DFDF7B3FC054667
:102CE0003046FDF763FD2946FDF7B4FD014600229D
:102CF0002046FFF7FCFE70BD10B50446012380F8A6
:102D0000F030C26AD0F8E810E030FFF73FFEE26A28
:102D1000D4F8EC1004F1E400FFF738FED4F8E81022
:102D2000D4F8E000FDF72AFF48B1D4F8EC10D4F84D
:102D3000E400FDF723FF10B1002384F8F03010BD4C
:102D4000F0B583B005460E4647680197084610F077
:102D50000FFE04460090B8420AD301AB1A682868F7
:102D60001AB1314610F08CFB00B9381B03B0F0BD2E
:102D70006B46F3E738B505460C4617492046FFF782
:102D8000DFFF28B115492046FFF7DAFF90B138BDC3
:102D9000FFF74CFD43786FF0090003FB00F0FDF7EF
:102DA00005FD024600212846FFF7C2FE2846FFF730
:102DB000A3FFECE7FFF73AFD03786FF0090003FB90
:102DC00000F0FDF7F3FC014600222846FFF7B0FEB5
:102DD0002846FFF791FFDAE7548E01085C8E010860
:102DE0002DE9F041571A0F4B9F4216D804460D4665
:102DF0001646B910A1B10022FEF756FD206000EB87
:102E00000708C4F80880B54203D03A46294610F0B6
:102E100067FBC4F80480BDE8F081034807F0B4FF05
:102E20000020EBE7FCFFFF7F088D010810B582B0A2
:102E3000044602AB03E9060000230360436083609D
:102E400001EB8202FFF7CCFF04E02046FEF71BFDFA
:102E500006F092FD204602B010BD10B586B00446C3
:102E6000D1F8E0300393D1F8E430049303AB01933D
:102E70000223029305AB01AA06CAFFF7D7FF20463B
:102E800006B010BD10B586B00446D1F8E830039303
:102E9000D1F8EC30049303AB01930223029305AB0A
:102EA00001AA06CAFFF7C2FF204606B010BD38B51A
:102EB00014460D1A814204D02A460146204610F0DD
:102EC0000FFB601938BD08B5FFF7F1FF08BD08B565
:102ED000FFF7F9FF08BD38B504460D4649682B6871
:102EE000C91A00230360436083608910FEF7EBFC7E
:102EF000226869682868FFF7EAFF6060204638BDED
:102F0000F0B593B007460C461646FFF7F5FE94F869
:102F1000E830F3B923681B68214603A89847214984
:102F200003A8FFF70DFF054603A8FEF78EFC25BB9F
:102F300097F85830DBB1012B17D1314609A801F0C1
:102F4000EBFD09A93846FFF745FE09A8FEF79BFCF3
:102F50000BE004F1DC016846FFF7BDFF6946384627
:102F6000FFF7D4FD6846FEF78EFC13B0F0BD94F871
:102F700048113846FFF7F0FDF7E723681B68214644
:102F80000CA8984708490CA8FFF7DAFE05460CA8DC
:102F9000FEF75BFC002DE8D194F848113846FFF7A6
:102FA00097FEE2E7548E01085C8E010800487047E6
:102FB000180100207047704770472DE9F04706461A
:102FC0008946D0F83031D0F83481002502E0C4F8C9
:102FD000F4003B1D1F46984524D01C68B36CC4F810
:102FE000EC30C4F8F030D6F84CA02846FDF7DEFBF4
:102FF0005146FDF72FFCC4F8F8000135EDB2D4F8C6
:103000002C31D3F82C31002BE1D096F83930002B3D
:10301000DFD0D9F80030F16C5868FDF711FBC4F827
:10302000F400D6E7BDE8F08770B504460579066C74
:103030002846FDF7BBFB3146FDF702FBC4F85801FB
:1030400094F8393043B10023C4F84C312846FDF7D9
:10305000A9FBC4F8540170BDD4F85031C4F84C3108
:10306000F4E72DE9F04F83B004460191D0F83031F8
:10307000D0F834B1002603E0C5F8EC000AF10403EF
:103080009A469B453FD01D680023C5F8F43094F85C
:1030900004804FEA5808D4F860904FF07C514846BD
:1030A000FDF7D8FB07464046FDF780FB3946FDF7A4
:1030B000C7FA0746A16E4846FDF7C4FA8046304677
:1030C000FDF774FB4146FDF7C5FB01463846FDF7A9
:1030D000B9FAC5F8F000E36EC5F8F8300136F6B27B
:1030E000D5F82C31D3F82C31002BC5D094F83830DA
:1030F000002BC3D0019B1B68216E1868FDF7A0FA56
:10310000C5F8EC00BAE703B0BDE8F08F70B504462F
:103110000023C0F8583146793046FDF747FB054695
:10312000E16FFDF78DFAC4F86001A16F2846FDF745
:1031300087FAC4F8680194F838308BB10023C4F8DA
:103140004C313046FDF72EFBC4F85C01C4F8640135
:10315000D4F884100020FDF773FAC4F8540170BD50
:10316000D4F85031C4F84C31EBE708B502F008FA56
:1031700003681B69984708BD08B502F001FA0368A7
:103180005B69984708BD08B502F0FAF903689B69C6
:10319000984708BD38B504460D4602F0F1F90368BA
:1031A0005B6B2A462146984738BDF8B504460D4664
:1031B000164602F0E5F90368DF6B33462A462146DE
:1031C000B847F8BDF8B504460D46164602F0D8F9E2
:1031D00003685F6C33462A462146B847F8BDF0B510
:1031E00083B004460D4616461F4602F0C9F903682F
:1031F000089A019200971F6D33462A462146B84728
:1032000003B0F0BD10B5044602F0BAF9043003C8AB
:1032100084E80300FFF7CAFE0146D02204F108004B
:10322000FDF7D8FE10BD000038B55C4B1B68BFF33E
:103230005B8F13F0010F03D1584807F0D5F8B8B9E8
:10324000FFF793FF0446FFF7B1FE0546006AFDF75E
:10325000EDFCFEF765FF95F83030002B56D0504B53
:103260001B78013B032B4DD8DFE803F01E2C3C4AB2
:10327000FFF782FF0446FFF786FF00FB04F4E4003B
:10328000484B1C70454807F0CFF8D9E701339BB293
:10329000444A12789A4258D913F0010FF6D0E25CF2
:1032A00002F0AA02E254F1E70023F1E701339BB2F6
:1032B0003C4A12789A4248D913F0010FF6D0002206
:1032C000E254F3E70023F3E701339BB2354A127867
:1032D0009A423AD913F0010FF6D1E25C02F055029E
:1032E000E254F1E70023F1E701339BB22D4A127853
:1032F0009A422AD913F0010FF6D10022E254F3E7E3
:103300000023F3E7264B00221A701EE0244B1B78A3
:10331000013B032B39D8DFE803F0101D2D360133B4
:103320009BB2204A12789A420FD913F0010FF6D0BF
:10333000E25C42F0AA02E254F1E70023F1E7013334
:103340009BB2184A12789A42F9D8154A1378013379
:10335000137038BD0023F4E701339BB2114A127891
:103360009A42F2D913F0010FF6D1E25C42F0550215
:10337000E254F1E70023F1E701339BB2094A1278E6
:103380009A42F9D8E1E70023F8E7054B00221A70CA
:10339000DBE7024807F044F806F0EEFA840A002062
:1033A00014010020880A0020D0F83431D0F8300110
:1033B000181AC0F3870070472DE9F04F87B0044614
:1033C00005910430FFF71EFF0120FEF7A5F9D4F8A0
:1033D0003061D4F83431049322E056F8045BD5F818
:1033E000ECB0059B1F68D5F814A1D4F86490D4F80C
:1033F00060807968E06EFDF725F9039039685846DA
:10340000FDF720F9CDF800A04B4642460399FFF79F
:10341000E6FEE268D5F8F01005F1EC00FFF7B6FA29
:10342000049BB342D9D194F848010130FDF7BEF9AD
:1034300005462079FDF7B6F906462046FFF7B4FFAA
:10344000FDF7B4F901463046FDF7B8FA01462846C3
:10345000FDF700FAC4F850014FF00008D4F88430AA
:10346000D4F84C21D4F854114046FEF785F9226F68
:10347000D4F85C11606FFEF772F9666F4FF07E5101
:10348000D4F85C01FDF7DEF805464FF07E5130467A
:10349000FDF7D8F82946FFF77DFE666F4FF08041B3
:1034A000D4F85C01FDF7CEF805464FF08041304678
:1034B000FDF7C8F82946FFF76DFE666F4FF07E51A5
:1034C000D4F85C01FDF7BCF805464FF07E5130465C
:1034D000FDF7B8F82946FFF75DFE666F4FF08041B3
:1034E000D4F85C01FDF7ACF805464FF0804130465A
:1034F000FDF7A8F82946FFF74DFE256F2079FDF767
:1035000055F92946FDF79CF8D4F85C61616FFDF729
:1035100097F82A463146FEF722F92779266F4FF0B1
:103520007E51D4F85C01FDF78DF805463846FDF76D
:103530003DF93146FDF784F82946FFF72BFE256F4C
:103540002079FDF733F92946FDF77AF806464FF062
:103550008041D4F85C01FDF775F805464FF07E51C7
:103560003046FDF76DF82946FFF714FE2779266FE0
:103570004FF07E51D4F85C01FDF762F805463846FD
:10358000FDF714F93146FDF75BF82946FFF702FE17
:10359000256F2079FDF70AF92946FDF751F806460F
:1035A0004FF08041D4F85C01FDF74AF805464FF032
:1035B0007E513046FDF744F82946FFF7EBFD434EB8
:1035C0004FF08041D4F85C01FDF73CF801463246EB
:1035D000D4F89C00FEF7C3F8D4F89CA04FF08041CB
:1035E000D4F85C01FDF72EF84FF08145DFF8E0904C
:1035F0002946FDF725F807464FF080415046FDF774
:1036000021F82B464A463946FEF7B6F8D4F89C70A6
:103610002079FDF7CBF83946FDF712F882464FF0D6
:103620008041D4F85C01FDF70DF80746314650465D
:10363000FDF706F832463946FEF791F8D4F89C704B
:103640002079FDF7B3F83946FCF7FAFF3146FCF76D
:10365000F7FF07464FF08041D4F85C01FCF7F2FF1A
:103660002946FCF7EDFF06464FF080413846FCF74F
:10367000E9FF2B464A463146FEF77EF82079FDF7F2
:1036800091F80246D4F864114046FFF79BFDE268CA
:10369000D4F8681104F5B270FFF778F9E268D4F84D
:1036A000601104F5AE70FFF771F9E268D4F85011BB
:1036B00004F5A670FFF76AF9E268D4F8581104F52A
:1036C000AA70FFF763F907B0BDE8F08F0000104162
:1036D0000000A04090F84821D0F8303153F8220083
:1036E0007047D0F82C01704708B5FFF79DFD08BD65
:1036F00010B504468023037140234371224B83603D
:103700000C30FFF797F82246204B42F8DC3B0023B1
:10371000C4F8DC3053609360C4F8DC30C4F8E030A7
:10372000C4F8E43084F8E830C4F8EC30C4F8F03081
:10373000C4F8F430C4F8F83004F58272C4F8FC2000
:10374000C4F8003184F80431C4F81431C4F81831D5
:10375000C4F81C31C4F82031C4F82431C4F828312D
:10376000C4F82031C4F82431C4F82831C4F8303109
:10377000C4F83431C4F83831C4F83C31C4F84031AD
:10378000C4F84431204610BD00007F432C8F01084F
:1037900003684068984214BF0020012070472DE95B
:1037A000F04F85B004468A460430FFF72BFD012018
:1037B000FDF7B2FFD4F83031D4F83421039244E05D
:1037C00057F8048BD4F8D4602079FCF7EFFF31462A
:1037D000FCF736FF0646D4F8C890D4F8D010D5F8D8
:1037E000F400FCF72FFF019049463046FCF728FF14
:1037F0000146D8F800301E695346019A4046B0474A
:10380000BB45DDD1D5F8EC90DAF80070616CD5F8E5
:10381000F400FCF717FFA16CFCF714FF05F1FC089E
:103820007968FCF70FFF064639684846FCF70AFF3F
:1038300042463146FFF7B9FC2269D5F8F81005F188
:10384000F400FFF7A3F8029B04330293039A9A4211
:103850000BD01D6805F59E70FFF79AFF0028D1D1A7
:10386000D5F83C71D5F840B1CAE794F84801013069
:10387000FCF79CFF05466079FCF794FF064620465E
:10388000FFF792FDFCF792FF01463046FDF796F8F0
:1038900001462846FCF7DEFFC4F85001266C0025DF
:1038A0002079FCF783FF3146FCF7CAFE32462946F1
:1038B000FDF755FF94F80480276C60790138FCF718
:1038C00075FF06464046FCF771FF3946FCF7B8FE27
:1038D0003A463146FDF743FF94F804804FF07C519F
:1038E000206CFCF7B7FFFCF777FD0DF00DFD0646E9
:1038F0000F464046FCF75EFD32463B46FCF70CFCAB
:10390000804689466079FCF74DFF064640464946A9
:10391000FCF742FE32462946FDF714FFD4F84C313D
:10392000226C2946D4F85401FDF726FF94F83C3068
:1039300083B92269D4F8501104F5A670FFF726F870
:103940002269D4F8581104F5AA70FFF71FF805B0E2
:10395000BDE8F08F0220FDF7DFFE26796079FCF7E5
:1039600021FF05463046FCF71DFF024600202B468E
:103970000146FDF701FF0120FDF7CEFED9E710B5A6
:1039800084B08446019144680368E31A6FF00040F4
:10399000C01A88420ED3039399420ED803AA106826
:1039A0001844DCF80030E41A844208D8002809DB07
:1039B00004B010BD104607F0E7F901AAEFE76FF079
:1039C0000040F5E76FF00040F2E710B584B08446A0
:1039D000019144680368E31A98106FF0604EAEEBF3
:1039E000A3038B4210D30390814210D803AB1B6812
:1039F0001844DCF80030E41AB0EBA40F09D3B0F19E
:103A0000005F09D204B010BD104607F0BDF901AB4C
:103A1000EDE76FF06040F5E76FF06040F2E710B55A
:103A200084B08446019144680368E31A98106FF0EB
:103A3000604EAEEBA3038B4210D30390814210D8AB
:103A400003AB1B681844DCF80030E41AB0EBA40F99
:103A500009D3B0F1005F09D204B010BD104607F0E1
:103A600093F901ABEDE76FF06040F5E76FF0604070
:103A7000F2E738B515460C1A01D1281938BD22468F
:103A8000014628460FF02CFDF7E710B485B000235F
:103A9000019302930393046801944268029283683D
:103AA0000393D1F800C0C0F800C0D1F804C0C0F83A
:103AB00004C0D1F808C0C0F808C00C604A608B6030
:103AC00005B010BC704738B515460C1A01D128193D
:103AD00038BD2246014628460FF002FDF7E708B53B
:103AE000FFF7F1FF08BD08B5012A03D022B10FF09E
:103AF000F7FC01E00B78037008BD10B584B00C46EC
:103B00000023019302930393FFF7BFFF214601A80F
:103B1000FFF7BBFF01A8FEF749FB04B010BD08B5D5
:103B200013780A1A00D108BD19460FF057FDFAE7BD
:103B300008B50846910005F01DFF08BD10B5044604
:103B400001688268521A11B19210FFF7F1FF204606
:103B500010BD08B50846910005F00CFF08BD10B572
:103B6000044601688268521A11B19210FFF7F1FF02
:103B7000204610BD10B504460D4B036000F59E7045
:103B8000FFF7EDFF04F59870FFF7D8FF04F590708C
:103B9000FEF70CFB04F58A70FEF708FB04F1FC004D
:103BA000FDF753FE04F1DC00FDF76DFE204610BD6D
:103BB0002C8F010810B582B0044601AA0249FEF715
:103BC0005DFB204602B010BD648E010810B582B0C6
:103BD000044601AA0249FEF751FB204602B010BD7F
:103BE0005C8E010810B582B0044601AA0249FEF7B6
:103BF00045FB204602B010BD548E01082DE9F04768
:103C000082B004460D4616469846DDF82890406876
:103C1000471ABF1A4844801A0190234653F8082BCC
:103C2000934217D0A26801A92046FEF7EDFA82461A
:103C300095B9B8F1000F02D0B9F1000F11D1BFB999
:103C40002046FDF702FEC4F800A0019BA36002B06D
:103C5000BDE8F0870F22E6E72A462168FEF796FACC
:103C6000E7E74A4641460AEB0500FEF78FFAE6E72A
:103C700005EB0900216835443A4629445044FEF7D3
:103C800085FADDE72DE9F04782B0044616460A9F23
:103C90004068121A02F10042013A97422DD8984624
:103CA00007EB0009A9EB0609224652F8083B9A42A5
:103CB00026D0A268914566D803EB010A411A8D1BF4
:103CC00098451FD3034498451CD8BFBB0DB1BE42D5
:103CD0003CD1BE421AD208EB07020AEB06039A4215
:103CE0003CD9434540D8A8EB0A01BE1B31443A46B3
:103CF00051445046FEF74AFA08E0264807F044F8D7
:103D00000F22D7E70DB1BE420AD18FB9C4F8049093
:103D10002368002203F80920204602B0BDE8F0879E
:103D20002A460AEB06010AEB0700FFF7DCFEECE788
:103D30003A4641465046FEF729FAE7E7BE42C5D368
:103D40003A4641465046FFF7CEFEBFE72A460AEB09
:103D500006010AEB0700FFF7C6FEBAE73A464146FE
:103D60005046FFF7C0FED1E7A3EB08052A464146BF
:103D70005046FFF7B8FE7A1B0AEB07010AEB050075
:103D8000FEF704FAC2E70097434632462046FFF7A3
:103D900035FFBBE76C8E010870B582B004460D4656
:103DA000466808460FF0E4FD00902B46324600219D
:103DB0002046FFF767FF02B070BD884228D0F0B5FB
:103DC00083B004460D464E68034653F8082B9342D1
:103DD00009D08268B24208D3A6B96660236800227F
:103DE0009A5503B0F0BD0F22F4E7019601A92046D1
:103DF000FEF70AFA07462046FDF727FD2760019BDC
:103E0000A360E9E7324629682068FEF7BFF9E4E7D6
:103E1000704738B504460D4639B10022FEF792F9D5
:103E2000206060602844A06038BD0020F8E738B505
:103E300015460C1A01D1281938BD224601462846DC
:103E40000FF04EFBF7E708B5FFF7F1FF08BD08B527
:103E5000FFF7F9FF08BD38B504460D4649682A68E2
:103E60000023036043608360891AFFF7D2FF226852
:103E700069682868FFF7EBFF6060204638BD70B5C1
:103E800015461E4651B10022FEF75CF90446224653
:103E900031462846FFF7DBFF204670BD0024F6E7D9
:103EA00070B50446814213D00D46496828680E1A41
:103EB0002268A368A3EB020CB4450BD36368A3EBA1
:103EC000020C664518D8FFF70AFE23683344636086
:103ED000204670BD0B46024631462046FFF7CFFF15
:103EE00005462168A268521A11B12046FEF758F91A
:103EF00025603544A560E8E700EB0C01FFF7B9FD4C
:103F0000296860682368C31A19446A68521ADCD0A9
:103F10000FF0E6FAD9E7000070B504460E461546E4
:103F2000FFF7E6FB204B23600023C4F84C31C4F8B4
:103F30005031C4F85431C4F85831314604F1FC0012
:103F4000FFF73BFF294604F58A70FFF7A9FF00231E
:103F500084F84831C4F82C31D4F83031D4F8342105
:103F6000934201D0C4F83431D4F83C31D4F8402124
:103F7000934201D0C4F840310023C4F8EC30C4F8B7
:103F8000F030C4F8F430C4F8F830C4F84C31C4F858
:103F90005031C4F85431C4F85831204670BD204621
:103FA000FFF7E8FD05F0E8FC448F010808B5B1F122
:103FB000005F03D2880006F059FA08BDB1F1804FC6
:103FC00001D306F0B9FE06F0A7FE00002DE9F84F78
:103FD00005468A4693461E4A0121FFF7F6FCD5F8AE
:103FE00000806F68AAEB0804814618B300220146DE
:103FF0002846FFF7DBFF0646DBF800303351002C84
:104000001ADC04343444A7EB0A07002F1ADC3C44C2
:10401000AA68A2EB08029210B8F1000F03D0414643
:104020002846FFF785FD2E606C6006EB8906AE60C2
:10403000BDE8F88F0026DFE72246414630460FF004
:104040004FFADEE73A46514620460FF049FADEE7DE
:104050003C8D010808B543688268934205D00A6820
:104060001A6043680433436008BD0A461946FFF7E7
:10407000ADFFF9E770B582B0054601910C4601F538
:104080009E70FFF785FB064658B16CB1C4F82C5101
:1040900001A905F59870FFF7DDFF2B689B6828469E
:1040A0009847304602B070BD0026FAE708B5B1F176
:1040B000005F03D2880006F0D9F908BDB1F1804F46
:1040C00001D306F039FE06F027FE00002DE9F84F77
:1040D00005468A4693461E4A0121FFF7A0FCD5F803
:1040E00000806F68AAEB0804814618B300220146DD
:1040F0002846FFF7DBFF0646DBF800303351002C83
:104100001ADC04343444A7EB0A07002F1ADC3C44C1
:10411000AA68A2EB08029210B8F1000F03D0414642
:104120002846FFF716FD2E606C6006EB8906AE6030
:10413000BDE8F88F0026DFE72246414630460FF003
:10414000CFF9DEE73A46514620460FF0C9F9DEE7DF
:104150003C8D010808B543688268934205D00A681F
:104160001A6043680433436008BD0A461946FFF7E6
:10417000ADFFF9E730B583B001929AB10C46FFF775
:1041800079FF054610B9284603B030BD01A904F5F2
:104190009E70FFF7DFFF0198C0F8DC4003681B68E2
:1041A0009847F0E70025EEE738B515460C1A01D11F
:1041B000281938BD2246014628460FF091F9F7E745
:1041C00008B5FFF7F1FF08BD08B5FFF7F9FF08BD17
:1041D00008B5FFF7F5FF08BD38B515460C1A01D133
:1041E000281B38BD22460146281B0FF079F9F7E756
:1041F000002A7DD02DE9F04782B004460D461F46C7
:10420000164681684368C91A91423ED30090002344
:104210008DF804303B788DF804304768A7EB05082B
:10422000424515D3B2EB080628D13E4666602346C8
:10423000324639462846FFF7C7FF63684344636048
:1042400001AA39462846FFF76AFC02B0BDE8F087AC
:10425000A7EB020803463A4639464046FFF7B4FF4B
:104260006368334463603A4641462846FFF7B4FF2B
:1042700001AAA9192846FFF752FCE6E73E4401AA25
:1042800031463846FFF74BFCD0E71A4A3146FFF774
:1042900076FB2368A5EB0309824630B30022014672
:1042A0002046FDF74FFF804608EB09003A4681198A
:1042B000FFF735FC2346424629462068FFF788FF72
:1042C0002346821961682846FFF782FF0546216868
:1042D000A268521A11B12046FDF762FFC4F80080AF
:1042E000656008EB0A01A160AFE74FF00008DBE76B
:1042F000704700BF948E010808B58C46416803687A
:10430000A1EB030EF44506D8F44509D263448B4271
:1043100006D0436004E01346ACEB0E02FFF768FFE3
:1043200008BD30B583B0044601F59075FF238DF8C4
:1043300007300DF1070278212846FFF7DDFF2946F7
:104340002046FFF788FD204603B030BD10B584B08D
:104350000446FFF7CDF9264B23600023C4F84C3107
:10436000C4F85031C4F85431C4F85831214904F12B
:10437000FC00FFF711FD214601A8FFF7D2FF4FF027
:10438000000201A904F58A70FFF7B7FB01A8FDF749
:104390000DFF002384F84831C4F82C31D4F83031B3
:1043A000D4F83421934201D0C4F83431D4F83C31EC
:1043B000D4F84021934201D0C4F840310023C4F81E
:1043C000EC30C4F8F030C4F8F430C4F8F830C4F875
:1043D0004C31C4F85031C4F85431C4F85831204637
:1043E00004B010BD2046FFF7C5FB05F0C5FA00BFBD
:1043F000448F0108888E010830B585B004460D460B
:10440000FFF776F9254B23600023C4F84C31C4F83C
:104410005031C4F85431C4F85831294604F1FC0035
:10442000FFF7CBFC214601A8FFF77BFF4FF000020E
:1044300001A904F58A70FFF760FB01A8FDF7B6FE3D
:10444000002384F84831C4F82C31D4F83031D4F842
:104450003421934201D0C4F83431D4F83C31D4F83B
:104460004021934201D0C4F840310023C4F8EC301D
:10447000C4F8F030C4F8F430C4F8F830C4F84C3163
:10448000C4F85031C4F85431C4F85831204605B04E
:1044900030BD2046FFF76EFB05F06EFA448F010831
:1044A00030B585B004460D46FFF722F9224B236054
:1044B0002022002104F5A6700FF090F8294604F19F
:1044C000FC00FFF77AFC214601A8FFF72AFF4FF016
:1044D000000201A904F58A70FFF70FFB01A8FDF7A0
:1044E00065FE002384F84831C4F82C31D4F830310B
:1044F000D4F83421934201D0C4F83431D4F83C319B
:10450000D4F84021934201D0C4F840310021C4F8CE
:10451000EC10C4F8F010C4F8F410C4F8F81020221D
:1045200004F5A6700FF05AF8204605B030BD2046BD
:10453000FFF720FB05F020FA5C8F0108F0B583B08F
:1045400004460D4616461F4601F01AF80368089AFD
:10455000019200979F6D33462A462146B84703B023
:10456000F0BD000070B58CB00446D0F8D8100B68D0
:104570001B686846984741496846FEF7E1FB0546D7
:104580006846FDF762F9B5BBD4F8D85095F84821D4
:10459000D5F8303153F82230D4F888603146D3F85A
:1045A000F000FCF74DF8C4F8E00095F84821D5F884
:1045B000303153F822303146D3F8F800FCF740F898
:1045C000C4F8E80065782846FCF7ECF8C4F8FC006D
:1045D000E66F2846FCF7EAF83146FCF731F8C4F8F4
:1045E0000001D4F88C30C4F8F030D4F89030C4F81E
:1045F000F8300CB070BDD4F8D8100B681B6806A852
:1046000098471F4906A8FEF79BFB054606A8FDF73D
:104610001CF9002DEDD1D4F8D85095F84821D5F8E3
:10462000303153F82230216DD3F8F000FCF708F850
:10463000C4F8E00095F84821D5F8303153F822301D
:10464000D3F8F830C4F8E83095F84821D5F830317F
:1046500053F82200FC30FDF756F8FCF7A3F80546A6
:10466000606C0146FBF7EEFF01462846FBF7EAFFC8
:10467000C4F8F000A36CC4F8F830BAE75C8E010807
:10468000548E010838B504460D46FEF7BBFDD4F83C
:10469000D820D2F83431D2F830115B1A9B10013B8C
:1046A0009D4200D938BD82F848512046FFF75AFF95
:1046B000F8E741B108B5C0F8D81091F84811FFF7F4
:1046C000E1FF012008BD0020704710B50446D0F876
:1046D000D82092F84811D2F83431D2F830219B1A00
:1046E0009B10013B994206D190F8363053B100211E
:1046F000FFF7C8FF03E00131C9B2FFF7C3FF20464F
:10470000FFF730FF10BD10B50446D0F8D83093F84D
:10471000481169B990F836208AB1D3F83411D3F82A
:104720003031C91A89100139C9B2FFF7ABFF03E074
:104730000139C9B2FFF7A6FF2046FFF713FF10BDEE
:104740002DE9F0438FB004460D46FEF75BFD62692C
:10475000D4F8E01004F1DC00FEF718F92269D4F86F
:10476000E81004F1E400FEF711F9E269D4F8F8105A
:1047700004F1F400FEF70AF9A269D4F8F01004F18C
:10478000EC00FEF703F9D4F8D8100B681B6802A8F8
:104790009847CC4902A8FEF7D3FA064602A8FDF7CF
:1047A00054F89EB1D4F8D8100B681B6808A8984735
:1047B000C54908A8FEF7C4FA064608A8FDF745F85B
:1047C000002E00F083810FB0BDE8F0832269D4F899
:1047D000001104F1FC00FEF7D9F80120FCF79CFF62
:1047E0002078FBF7E3FF0646D4F8D83093F8482149
:1047F000D3F8303153F82200FC30FCF784FFFBF78C
:10480000D1FF01463046FBF71BFF8046D4F8D83075
:1048100093F84821D3F8303153F82270FC37D4F89C
:104820009410D4F8FC00FBF70DFF06464FF07C51C6
:104830004046FCF70FF83A463146FEF7B6FC022038
:10484000FCF76AFFD4F8DC802F687968D4F8E400BC
:10485000FBF7F8FE064639684046FBF7F3FE3146A3
:10486000FEF798FCD4F8DC90D5F80080D4F8E4602A
:104870004FF07E51D4F88400FBF7E4FE0746D8F8E9
:1048800004103046FBF7DEFE0646D8F80010484616
:10489000FBF7D8FE3A463146FCF761FFD4F8DC90CE
:1048A000D5F80080D4F8E4604FF07E51D4F884004D
:1048B000FBF7C8FE0746D8F804103046FBF7C2FEE7
:1048C0000646D8F800104846FBF7BCFE3A4631468B
:1048D000FCF738FFD4F8DC90D5F80080D8F8041045
:1048E000D4F8E400FBF7AEFED4F8F410FBF7AAFE10
:1048F00006464FF07E51D4F88400FBF7A3FE07462E
:104900004FF07E513046FBF79BFE0646D8F800106C
:104910004846FBF797FE3A463146FCF720FFD4F8AD
:10492000DC90D5F80080D8F80410D4F8E400FBF748
:1049300089FED4F8F410FBF785FED4F8847039466C
:10494000FBF77EFE4FF07E51FBF77AFE0646D8F865
:1049500000104846FBF776FE3A463146FCF7F2FE79
:104960002E683168D4F8DC00FBF76CFED4F8EC104C
:10497000FBF768FED4F884804146FBF761FE0746EA
:104980007168D4F8E400FBF75DFE06464FF07E51F7
:104990003846FBF755FE42463146FCF7E0FE2E68EE
:1049A0003168D4F8DC00FBF74DFED4F8EC10FBF7CF
:1049B00049FE8046D4F8E4904FF07E51D4F884004C
:1049C000FBF740FE074671684846FBF73BFE06468C
:1049D0004FF07E514046FBF733FE3A463146FCF736
:1049E000B1FE2E683168D4F8DC00FBF72BFED4F85A
:1049F000EC10FBF727FED4F884804146FBF720FE3D
:104A000007467168D4F8E400FBF71CFED4F8F410F4
:104A1000FBF718FE4FF07E51FBF712FE06464FF0F3
:104A20007E513846FBF70CFE42463146FCF797FEB6
:104A30002E683168D4F8DC00FBF704FED4F8EC10E3
:104A4000FBF700FE07467168D4F8E400FBF7FAFDB7
:104A5000D4F8F410FBF7F6FDD4F884804146FBF758
:104A6000EFFD4FF07E51FBF7EBFD06464FF07E5118
:104A70003846FBF7E5FD42463146FCF763FE2E68FB
:104A80003168D4F8DC00FBF7DDFDD4F8EC10FBF75F
:104A9000D9FD05467168D4F8E400FBF7D3FDD4F8DE
:104AA000F410FBF7CFFD4FF07E51FBF7C9FD044634
:104AB0004FF07E512846FBF7C3FD2146FEF76AFB07
:104AC00081E600BF5C8E0108548E01080220FCF7CD
:104AD00023FED4F8DC902F68D4F8E4504FF07E51D8
:104AE000D4F8F400FBF7ACFD0646D4F8EC80796806
:104AF0002846FBF7A7FD054639684846FBF7A2FDA7
:104B0000E36C0093334642462946FFF717FD012028
:104B1000FCF702FE57E600BF10B586B00446D1F898
:104B2000E0300393D1F8E830049303AB0193022300
:104B3000029305AB01AA06CAFEF778F9204606B033
:104B400010BD7047704700207047002070477047C5
:104B5000704790F8E0301BB1012380F8E2307047D5
:104B6000002380F8E2307047704708B5E42104F074
:104B700001FF08BDF0B583B004460D4616461F463A
:104B800000F0FEFC0368089A019200971F6E3346FE
:104B90002A462146B84703B0F0BD2DE9F04F83B057
:104BA00004460E4615461F460430FEF72BFB012037
:104BB000FCF7B2FDD7F80090D4F8CCB0D4F8C8A078
:104BC000D9F804102846FBF73DFD8046D9F80010BF
:104BD0003046FBF737FDD4F8D83000935B46524699
:104BE0004146FFF7C7FF94F8E23013B903B0BDE8C0
:104BF000F08FD7F80080D8F800103046FBF722FD80
:104C00000646D4F8C8A04FF07A515046FBF722FE72
:104C10000746D8F804102846FBF714FD8146D4F85F
:104C2000CC504FF07A512846FBF714FE04464FF063
:104C30007C512846FBF70EFE80464FF07C515046D3
:104C4000FBF708FE054621464846FBF7FBFC0446F9
:104C500039463046FBF7F6FC43462A462146FCF728
:104C60008BFDC3E738B504460D468023037140230E
:104C700043710D4B83600C30FDF7DCFD0B4B236063
:104C80000B4B23602B7884F8E0304BB1012384F880
:104C9000E230002384F8E130C4F8DC30204638BD2F
:104CA000002384F8E230F4E700007F43BC8F010862
:104CB000DC8F010800487047E801002008B500F0CB
:104CC0005FFC0368DB6A984708BD08B500F058FC34
:104CD0000368DB6E984708BD08B500F051FC036817
:104CE000D3F89030984708BD08B500F049FC036838
:104CF000D3F89430984708BD38B514460D1A884249
:104D000004D02A46014620460EF0EAFB601938BD61
:104D100038B514460D1A814204D02A460146204671
:104D20000EF0DEFB601938BD08B5FFF7F1FF08BDD6
:104D30002DE9F04F91B0044606910792A44B1B68F1
:104D4000BFF35B8F13F0010F53D0A24B1B784BB90D
:104D50000121A04B1970D4E904239F48C0E9002326
:104D60009E4B19700698FCF7CEFCFBF71FFD06461C
:104D7000FFF7A0FF0546D0F894000146FBF762FC60
:104D800001463046FBF75EFC07460290FFF796FFB0
:104D9000FBF70CFD0646D5F894000146FBF752FCE4
:104DA00001463046FBF74EFC814601460020FBF7EA
:104DB00047FC4FF08241FBF743FC0490099000F060
:104DC000DFFB4079FBF7F2FC4946FBF739FC8449ED
:104DD000FBF7F4FD059000F0D3FB0079FBF7E6FC50
:104DE0003946FBF72DFC4FF07C51FBF733FD824633
:104DF000ABE0774805F0F8FA0028A6D0D4E9042300
:104E00007549C1E90023724805F00EFB9DE70AA829
:104E1000FCF739FDA668E1680DA8FEF71EF80DA99C
:104E20003046FFF78DFC0DA8FCF72DFDA268216828
:104E3000E068FEF765F80020FCF76EFCD5F898B046
:104E40004FF082414846FBF7FDFB03904FF0824153
:104E50000298FBF7F7FB80464FF081410998FBF77A
:104E6000EFFB07464FF081415046FBF7E9FB064652
:104E70004FF080415846FBF7E5FB0090039B42460C
:104E800039463046FFF75AFB0120FCF745FC4FF04E
:104E900080414846FBF7D6FB80464FF080410298A0
:104EA000FBF7D0FB07464FF07E510998FBF7C8FB94
:104EB00006464FF07E515046FBF7C2FBD5F89830BE
:104EC000009343463A463146FFF754FED5F89470B6
:104ED00051463846FBF7B6FB064609993846FBF7BC
:104EE000B1FB0746FFF7EAFEFBF760FC3946FBF72C
:104EF000A9FB0146069A3046FCF717FCFCF7ECFBD1
:104F0000D5F89C20059909A8FDF740FD2269636941
:104F1000314801684068521A63EB000307998A42DE
:104F200073F1000301D3049B0593FFF7DDFEFFF748
:104F3000D3FE00282ED109990498FBF71FFE20B15B
:104F40000023264A1370234A1370244B1B78002B2E
:104F50003AD023696269013342F100022361626140
:104F6000FCF7C1FB26683368DF68E1680AA8FDF733
:104F700074FF0AA93046B84749E70136F6B2012E58
:104F80000AD800F0FDFA0C30835D012BF5D1049BAB
:104F90000593F2E70026F2E700F0F2FA00F10C06C2
:104FA00000F0EEFA0E3002E0002306F8013BB042BA
:104FB000FAD1C0E70AA8FCF766FC04F0DDFC0DA8F6
:104FC000FCF761FC04F0D8FC11B0BDE8F08F00BF25
:104FD0008C0A0020980A0020900A0020890A0020EC
:104FE00000004040F0B58BB006460C460160F4204E
:104FF00005F03CFA054600210A46FDF7F3FCF56092
:1050000023685F68294601A8FDF727FF01A920460C
:10501000B84701A8FCF737FC4FF4827005F026FA78
:1050200005464FF4827200210EF0D8FA80232B70CF
:1050300040236B70144B6B6005F10800FDF7FAFB21
:10504000B56021462846FFF734FBF56823681B68E6
:10505000214604A8984704A92846FDF78BFE04A81A
:10506000FCF7F3FB0BB0F0BDF421284604F082FC02
:1050700004F082FC01A8FCF706FC04F07DFC04A807
:10508000FCF7E3FB04F078FC00007F4370B51546A5
:105090001E4651B10022FCF707FC04462246314669
:1050A0002846FDF714FF204670BD0024F6E770B5D2
:1050B0000446814215D00D464B6808681E1AB1108F
:1050C0002268D4F808C0ACEB020CB4450BD361687D
:1050D000891AB14218D31946FFF726FE23683344D4
:1050E0006360204670BD02462046FFF7CFFF0546AD
:1050F0002168A268521A921011B12046FCF7BDFB3C
:1051000025603544A560E9E70144FFF7F5FD29680E
:1051100060682368C31A19446B685A1A9942DDD033
:105120000EF0DEF9DAE7000070B594B004460068CE
:10513000FEF7D0FA80B12068FEF7CCFAFEF734F91A
:10514000D0B12568E1680EA8FDF79CFE0EA905F117
:10515000DC00FFF7ACFF1FE006AA2A496846FDF70E
:105160008DF84FF4167269462046FFF7E1FD684658
:10517000FCF76BFB00202EE00DAA234907A8FDF7E2
:105180007DF84FF4167207A92046FFF7D1FD07A856
:10519000FCF75BFB00201EE0012385F8E8300EA839
:1051A000FCF771FB2068FEF79FFA2068FEF792FA81
:1051B0000546206003685E68E16811A8FDF74DFEB2
:1051C00011A92846B04711A8FCF75DFB2168A0682B
:1051D000FFF76FFA012014B070BD6846FCF735FB8D
:1051E00004F0CAFB07A8FCF730FB04F0C5FB0EA8CF
:1051F000FCF749FB04F0C0FB11A8FCF744FB04F0EA
:10520000BBFB00BFF48F01080890010870B594B093
:1052100004460068FEF765FA80B12068FEF761FA7F
:10522000FEF7C2F8D0B12568E1680EA8FDF72AFEA6
:105230000EA905F1DC00FFF73AFF1FE006AA2A4994
:105240006846FDF71BF84FF4167269462046FFF7D3
:105250006FFD6846FCF7F9FA00202EE00DAA2349FD
:1052600007A8FDF70BF84FF4167207A92046FFF7C1
:105270005FFD07A8FCF7E9FA00201EE0012385F88E
:10528000E8300EA8FCF7FFFA2068FEF72DFA206838
:10529000FEF727FA0546206003685E68E16811A8FA
:1052A000FDF7DBFD11A92846B04711A8FCF7EBFA82
:1052B0002168A068FFF7FDF9012014B070BD6846B1
:1052C000FCF7C3FA04F058FB07A8FCF7BEFA04F099
:1052D00053FB0EA8FCF7D7FA04F04EFB11A8FCF71D
:1052E000D2FA04F049FB00BFF48F010808900108CE
:1052F00070B58AB00446FCF7F6F925682B68DE68BD
:10530000E16801A8FDF7A9FD01A92846B04701A859
:10531000FCF7B9FA65685DB12B685E69E16804A8BD
:10532000FDF79BFD04A92846B04704A8FCF7ABFA9B
:10533000A568E16807A8FDF790FD07A92846FFF7D3
:10534000FFF907A8FCF79FFAA2682168E068FDF75B
:10535000D7FD22696369032A73F1000311D200F0BB
:105360000FF9837B012B13D0FCF7B6F9FFF7ADFCE7
:105370002E4BA3FB003080092061002363610AB03B
:1053800070BDFFF7B1FC00220023C4E90423E6E767
:1053900000F0F6F8002585730BE0A068FFF7B3F97D
:1053A00005E000F0EDF80C30435D022B11D0013523
:1053B000EDB2012D18D800F0E3F80C30435D012B5D
:1053C000EFD1002DE9D0012DF1D1A068FFF77DF9D3
:1053D000EDE72DB1012DEAD12046FFF7A5FEE6E766
:1053E0002046FFF713FFE2E700F0CAF800F10C05D2
:1053F00000F0C6F80E3002E0002305F8013BA84299
:10540000FAD100F0BDF800238373ADE701A8FCF7E3
:105410003AFA04F0B1FA04A8FCF735FA04F0ACFA51
:1054200007A8FCF730FA04F0A7FA00BFD34D6210CA
:1054300000B583B00A4B5A6942F001025A615B69B8
:1054400003F001030193019B002211460F2002F09B
:10545000DDFF0F2002F0EAFF03B05DF804FB00BFA0
:105460000010024070B588B000240494059406949E
:105470000794234B9A6942F020029A619A6902F0DC
:1054800020020192019A9A6942F004029A619A6993
:1054900002F004020292029A9A6942F008029A61AA
:1054A0009B6903F008030393039B164D22460421D6
:1054B000284603F068FA01221821284603F063FA0F
:1054C000042304930126059602230693079304A957
:1054D000284603F043F91823049305960696032300
:1054E000079304A9284603F039F9C02304930594CF
:1054F000069404A9284603F031F908B070BD00BF36
:105500000010024000080140704700207047002052
:105510007047002070477047704770470020704701
:10552000002070477047704770477047704770475A
:1055300070477047704770477047704770477047B3
:105540000020704700207047002070477047704768
:10555000704770477047002070477047014B0360E9
:10556000704700BF2C90010810B50446034B036040
:10557000102104F0FFF9204610BD00BF2C90010857
:10558000014B1868704700BFBC0A002010B50446E4
:10559000FFF7F6FF0368D3F88C302146984710BD1B
:1055A00010B50024012C06DCE0B2FFF7EFFF034644
:1055B00010B90134F6E70023184610BD10B53A4B78
:1055C0001B78022B0CD804465AB21ABB3BB9FFF722
:1055D00083FB78B90023354A1370354A137010BD28
:1055E000032BFCD1FFF778FB0028F8D12E4B0022CB
:1055F0001A70F4E70020FFF7C9FF10B12A4B01220F
:105600001A700120FFF7C2FF0028E3D0264B0222C8
:105610001A70DFE7FFF760FB38B3254B1B7813B92F
:10562000234B01221A70214A13780133DBB2137025
:10563000642BD4D90123A3730020FFF7A7FF18B16F
:1056400002232373002363730120FFF79FFF18B128
:1056500002236373002323730023144A1370144A34
:105660001370114B03221A70B9E7114B1B78ABB1C1
:105670000D4B1B78012B07D0022B0AD00123A373FB
:10568000094B03221A70AAE70122227300226273D7
:10569000F2E70123637300232373EFE70023024A39
:1056A0001370237363739AE7990A00209B0A002002
:1056B0009A0A002010B50446FFF70EFB70B10023D4
:1056C000012B09D8E218127B012A04D0022A09D042
:1056D0000133DBB2F4E713B90023A38110BD012B22
:1056E000FAD0F5E7002BF7D0012BF5D0F0E700005A
:1056F00040B110B504460368DB689847024B1C6054
:10570000012010BD00207047BC0A002070B506467D
:105710000C46083030600D4655F8083B9D420AD0D3
:1057200033608B68B36063687360256000236360D7
:105730002372304670BD4A680132F4D02946FBF727
:1057400049FCF0E730B585B08446019144680368B0
:10575000E31ADB10114803FB00F0114D2D1A8D42A6
:1057600013D30390814213D803AA12681044DCF8C3
:105770000030E41AE410094B03FB04F4A04209D3FF
:10578000074B984208D805B030BD104605F0FCFA2A
:1057900001AAEAE70248F6E70148F4E7ABAAAAAA99
:1057A00055555505F8B545688D420AD007460E4651
:1057B0000C4603E02046FCF748F81834A542F9D11E
:1057C0007E60F8BD08B5084602EB4202D10004F045
:1057D000D1F808BD10B5044601688268521AD2108B
:1057E000034B03FB02F209B1FFF7ECFF204610BDAB
:1057F000ABAAAAAA70B506460468456803E020462D
:10580000FCF723F81834A542F9D13046FFF7E2FF40
:10581000304670BD70B504460E46154608E0214678
:105820002846FFF773FF2046FCF70FF818341835A9
:10583000B442F4D1284670BD10B582B0044601AA26
:105840000249FCF71BFD204602B010BD648E010822
:1058500070B582B004460E46551A01950F2D0DD82D
:1058600000942A4631462068FCF790FC0022009202
:10587000019B63602168CA5402B070BD002201A977
:10588000FCF7C2FC2060019BA360E9E710B5044669
:105890000B4600F10802026009685A684FF00003E5
:1058A0000A44FFF7D5FF204610BD000008B5084B9D
:1058B000994205D801EB4101C80004F0D7FD08BDAD
:1058C000044B994201D905F037FA05F025FA00BFDB
:1058D00055555505AAAAAA0A2DE9F84F0446884647
:1058E0009246274A0121FFF72DFF2768D4F804B01C
:1058F000A8EB0709054658B1002201462046FFF7EC
:10590000D5FF0646B14451464846FFF7BFFF01E0C8
:105910000026F7E72346324641463846FFF77AFF2E
:10592000234600F1180259464046FFF773FF8046B0
:10593000A368DB1BDB10134A03FB02F21FB13946DD
:105940002046FFF73FFF2660C4F8048005EB4505BD
:1059500006EBC505A560BDE8F88F04F0D3F846B99D
:105960004846FBF772FF04F007FD04F00BF904F062
:1059700003F82A4631462046FFF724FFF3E700BF2D
:105980003C8D0108ABAAAAAA10B504464068A368DA
:10599000984205D0FFF77AFF63681833636010BD43
:1059A0000A4601462046FFF797FFF8E738B50C4650
:1059B000434B1B68BFF35B8F13F0010F28D0414BA3
:1059C0001B68BFF35B8F13F0010F03D13D4804F058
:1059D0000BFD58BB3C4B1B68BFF35B8F13F0010FF3
:1059E00031D03A4A536811685B1ADB10384A02FB1F
:1059F00003F3384A12789A4232D921463348FFF7E6
:105A0000C3FFFBF770FE0220FBF786FE00243DE09B
:105A10002B4804F0E9FC0028D1D02F4A2F492B480D
:105A200003F024FF264804F0FFFCC8E7FFF7A8FDB9
:105A30004579FFF743F9B5FBF0F5264B1D7021487A
:105A400004F0F2FCC6E7204804F0CEFC0028C8D0E1
:105A5000FFF734F9224B18701B4804F0E5FCC0E74F
:105A60001A48FFF79FFEC8E71D4B1B7803FB044055
:105A700004EB440105EBC1051844FAF797FE014613
:105A80002A460020FBF751FE0134E4B20F4A536866
:105A900015685B1BDB100E4901FB03F39C42E3D34B
:105AA000FBF71AFE0120FBF737FE38BD054804F06E
:105AB000B7FC03F061FF044804F0B2FC03F05CFFA4
:105AC000AC0A0020A40A00209C0A0020B00A002092
:105AD000ABAAAAAAA80A002000000020F5570008D7
