:020000040800F2
:100000000050002081950008997900089B7900082C
:100010009D7900089F790008A17900080000000080
:10002000000000000000000000000000A3790008AC
:10003000A579000800000000A7790008A979000848
:10004000C9950008C9950008C9950008C995000818
:10005000C9950008C9950008C9950008C995000808
:10006000C9950008C9950008C9950008C9950008F8
:10007000C9950008C9950008C9950008B17900081C
:10008000C9950008C9950008C9950008C9950008D8
:10009000C9950008C9950008C9950008C9950008C8
:1000A000C9950008C9950008C9950008C9950008B8
:1000B000C9950008C9950008C9950008C9950008A8
:1000C000C9950008C9950008C9950008C995000898
:1000D000C1790008C9950008C9950008C9950008AC
:1000E000C9950008C9950008C995000800000000DE
:1000F0000000000000000000000000000000000000
:0C01000000000000000000005FF808F1A3
:1001100081F0004102E000BF83F0004330B54FEAB8
:1001200041044FEA430594EA050F08BF90EA020F25
:100130001FBF54EA000C55EA020C7FEA645C7FEAB8
:10014000655C00F0E2804FEA5454D4EB5555B8BFDB
:100150006D420CDD2C4480EA020281EA030382EA4C
:10016000000083EA010180EA020281EA0303362DDE
:1001700088BF30BD11F0004F4FEA01314FF4801CB1
:100180004CEA113102D0404261EB410113F0004FC3
:100190004FEA03334CEA133302D0524263EB43037A
:1001A00094EA050F00F0A780A4F10104D5F1200E18
:1001B0000DDB02FA0EFC22FA05F2801841F1000173
:1001C00003FA0EF2801843FA05F359410EE0A5F147
:1001D00020050EF1200E012A03FA0EFC28BF4CF078
:1001E000020C43FA05F3C01851EBE37101F000452E
:1001F00007D54FF0000EDCF1000C7EEB00006EEB3B
:100200000101B1F5801F1BD3B1F5001F0CD34908C4
:100210005FEA30004FEA3C0C04F101044FEA44521B
:1002200012F5800F80F09A80BCF1004F08BF5FEAA2
:10023000500C50F1000041EB045141EA050130BD82
:100240005FEA4C0C404141EB0101013C28BFB1F594
:10025000801FE9D291F0000F04BF01460020B1FADF
:1002600081F308BF2033A3F10B03B3F120020CDAB2
:100270000C3208DD02F1140CC2F10C0201FA0CF090
:1002800021FA02F10CE002F11402D8BFC2F1200CF5
:1002900001FA02F120FA0CFCDCBF41EA0C019040AB
:1002A000E41AA2BF01EB0451294330BD6FEA0404F4
:1002B0001F3C1CDA0C340EDC04F11404C4F12002DF
:1002C00020FA04F001FA02F340EA030021FA04F3F1
:1002D00045EA030130BDC4F10C04C4F1200220FA48
:1002E00002F001FA04F340EA0300294630BD21FA86
:1002F00004F0294630BD94F0000F83F4801306BF4C
:1003000081F480110134013D4EE77FEA645C18BF3F
:100310007FEA655C29D094EA050F08BF90EA020FD6
:1003200005D054EA000C04BF1946104630BD91EACE
:10033000030F1EBF0021002030BD5FEA545C05D1D1
:100340004000494128BF41F0004130BD14F5800410
:100350003CBF01F5801130BD01F0004545F0FE4184
:1003600041F470014FF0000030BD7FEA645C1ABFB9
:10037000194610467FEA655C1CBF0B46024650EAF0
:10038000013406BF52EA033591EA030F41F400211C
:1003900030BD00BF90F0000F04BF0021704730B5A2
:1003A0004FF4806404F132044FF000054FF0000177
:1003B00050E700BF90F0000F04BF0021704730B538
:1003C0004FF4806404F1320410F0004548BF40420D
:1003D0004FF000013EE700BF42004FEAE2014FEA62
:1003E00031014FEA02701FBF12F07F4393F07F4F3D
:1003F00081F06051704732F07F4208BF704793F040
:100400007F4F04BF41F40021704730B54FF4607452
:1004100001F0004521F000411CE700BF50EA010255
:1004200008BF704730B54FF000050AE050EA0102FE
:1004300008BF704730B511F0004502D5404261EB6E
:1004400041014FF4806404F132045FEA915C3FF4AF
:10045000D8AE4FF003025FEADC0C18BF03325FEA4C
:10046000DC0C18BF033202EBDC02C2F1200300FAFD
:1004700003FC20FA02F001FA03FE40EA0E0021FA22
:1004800002F11444BDE600BF4FF0FF3C06E000BFA0
:100490004FF0010C02E000BF4FF0010C4DF804CD0D
:1004A0004FEA410C7FEA6C5C4FEA430C18BF7FEACD
:1004B0006C5C1BD001B050EA410C0CBF52EA430CFB
:1004C00091EA030F02BF90EA020F0020704710F17B
:1004D000000F91EA030F58BF994208BF90422CBF0A
:1004E000D8176FEAE37040F0010070474FEA410C03
:1004F0007FEA6C5C02D150EA013C07D14FEA430C21
:100500007FEA6C5CD6D152EA033CD3D05DF8040B91
:10051000704700BF8446104662468C4619466346C3
:1005200000E000BF01B5FFF7B7FF002848BF10F19A
:10053000000F01BD4DF808EDFFF7F4FF0CBF0120DF
:1005400000205DF808FB00BF4DF808EDFFF7EAFF5B
:1005500034BF012000205DF808FB00BF4DF808ED16
:10056000FFF7E0FF94BF012000205DF808FB00BF0B
:100570004DF808EDFFF7CEFF94BF012000205DF895
:1005800008FB00BF4DF808EDFFF7C4FF34BF0120A2
:1005900000205DF808FB00BF4FEA4102B2F1E043E2
:1005A00024BFB3F5001CDCF1FE5C0DD901F0004C5A
:1005B0004FEAC0024CEA5070B2F1004F40EB8300AA
:1005C00008BF20F00100704711F0804F21D113F1D6
:1005D0003872BCBF01F00040704741F480114FEA0F
:1005E0005252C2F11802C2F1200C10FA0CF320FA98
:1005F00002F018BF40F001004FEAC1234FEAD323B5
:1006000003FA0CFC40EA0C0023FA02F34FEA43031E
:10061000CCE77FEA625307D150EA01331EBF4FF0A7
:10062000FE4040F44000704701F0004040F0FE40C2
:1006300040F40000704700BF80F0004002E000BFBF
:1006400081F0004142001FBF5FEA410392EA030FBD
:100650007FEA226C7FEA236C6AD04FEA1262D2EB07
:100660001363C1BFD218414048404140B8BF5B420C
:10067000192B88BF704710F0004F40F4000020F0A5
:100680007F4018BF404211F0004F41F4000121F0BB
:100690007F4118BF494292EA030F3FD0A2F1010205
:1006A00041FA03FC10EB0C00C3F1200301FA03F143
:1006B00000F0004302D5494260EB4000B0F5000F66
:1006C00013D3B0F1807F06D340084FEA310102F125
:1006D0000102FE2A51D2B1F1004F40EBC25008BFD7
:1006E00020F0010040EA03007047490040EB0000A1
:1006F000013A28BFB0F5000FEDD2B0FA80FCACF1A2
:10070000080CB2EB0C0200FA0CF0AABF00EBC250CE
:1007100052421843BCBFD0401843704792F0000FBC
:1007200081F4000106BF80F400000132013BB5E70F
:100730004FEA41037FEA226C18BF7FEA236C21D085
:1007400092EA030F04D092F0000F08BF08467047EA
:1007500090EA010F1CBF0020704712F07F4F04D1B8
:10076000400028BF40F00040704712F100723CBFCB
:1007700000F50000704700F0004343F0FE4040F4F5
:10078000000070477FEA226216BF08467FEA2363B3
:100790000146420206BF5FEA412390EA010F40F49E
:1007A000800070474FF0000304E000BF10F00043EA
:1007B00048BF40425FEA000C08BF704743F09643D1
:1007C00001464FF000001CE050EA010208BF7047EC
:1007D0004FF000030AE000BF50EA010208BF704773
:1007E00011F0004302D5404261EB41015FEA010C88
:1007F00002BF84460146002043F0B64308BFA3F180
:100800008053A3F50003BCFA8CF2083AA3EBC25361
:1008100010DB01FA02FC634400FA02FCC2F1200280
:10082000BCF1004F20FA02F243EB020008BF20F0B7
:100830000100704702F1200201FA02FCC2F120021D
:1008400050EA4C0021FA02F243EB020008BF20EA12
:10085000DC7070474FF0FF0C1CEAD0521EBF1CEA40
:10086000D15392EA0C0F93EA0C0F6FD01A4480EA2E
:10087000010C400218BF5FEA41211ED04FF0006317
:1008800043EA501043EA5111A0FB01310CF0004043
:10089000B1F5000F3EBF490041EAD3715B0040EA69
:1008A000010062F17F02FD2A1DD8B3F1004F40EB39
:1008B000C25008BF20F00100704790F0000F0CF00C
:1008C000004C08BF49024CEA502040EA51207F3AD0
:1008D000C2BFD2F1FF0340EAC250704740F40000AB
:1008E0004FF00003013A5DDC12F1190FDCBF00F09C
:1008F00000407047C2F10002410021FA02F1C2F14A
:10090000200200FA02FC5FEA310040F1000053EAE5
:100910004C0308BF20EADC70704792F0000F00F033
:10092000004C02BF400010F4000F013AF9D040EA39
:100930000C0093F0000F01F0004C02BF490011F4CD
:10094000000F013BF9D041EA0C018FE70CEAD153CB
:1009500092EA0C0F18BF93EA0C0F0AD030F0004C4B
:1009600018BF31F0004CD8D180EA010000F00040FF
:10097000704790F0000F17BF90F0004F084691F0BD
:10098000000F91F0004F14D092EA0C0F01D14202F7
:100990000FD193EA0C0F03D14B0218BF084608D1C0
:1009A00080EA010000F0004040F0FE4040F400000A
:1009B000704740F0FE4040F4400070474FF0FF0C9D
:1009C0001CEAD0521EBF1CEAD15392EA0C0F93EAE4
:1009D0000C0F69D0A2EB030280EA010C49024FEA36
:1009E000402037D04FF0805343EA111143EA1013EF
:1009F0000CF000408B4238BF5B0042F17D024FF4A7
:100A0000000C8B4224BF5B1A40EA0C00B3EB510F81
:100A100024BFA3EB510340EA5C00B3EB910F24BF6A
:100A2000A3EB910340EA9C00B3EBD10F24BFA3EBEF
:100A3000D10340EADC001B0118BF5FEA1C1CE0D1B7
:100A4000FD2A3FF650AF8B4240EBC25008BF20F06A
:100A5000010070470CF0004C4CEA50207F32C2BFBE
:100A6000D2F1FF0340EAC250704740F400004FF05B
:100A70000003013A37E792F0000F00F0004C02BF8C
:100A8000400010F4000F013AF9D040EA0C0093F056
:100A9000000F01F0004C02BF490011F4000F013BB0
:100AA000F9D041EA0C0195E70CEAD15392EA0C0F18
:100AB00008D142027FF47DAF93EA0C0F7FF470AF50
:100AC000084676E793EA0C0F04D14B023FF44CAF93
:100AD00008466EE730F0004C18BF31F0004CCAD128
:100AE00030F000427FF45CAF31F000437FF43CAF64
:100AF0005FE700BF4FF0FF3C06E000BF4FF0010C86
:100B000002E000BF4FF0010C4DF804CD4FEA400267
:100B10004FEA41037FEA226C18BF7FEA236C11D0B1
:100B200001B052EA530C18BF90EA010F58BFB2EB64
:100B3000030088BFC81738BF6FEAE17018BF40F0E4
:100B4000010070477FEA226C02D15FEA402C05D198
:100B50007FEA236CE4D15FEA412CE1D05DF8040B1D
:100B6000704700BF844608466146FFE70FB5FFF7B0
:100B7000C9FF002848BF10F1000F0FBD4DF808ED68
:100B8000FFF7F4FF0CBF012000205DF808FB00BF59
:100B90004DF808EDFFF7EAFF34BF012000205DF8B3
:100BA00008FB00BF4DF808EDFFF7E0FF94BF012000
:100BB00000205DF808FB00BF4DF808EDFFF7D2FFFD
:100BC00094BF012000205DF808FB00BF4DF808ED40
:100BD000FFF7C8FF34BF012000205DF808FB00BF0D
:100BE0004FEA4002B2F1FE4F0FD34FF09E03B3EB3A
:100BF00012620DD94FEA002343F0004310F0004F7A
:100C000023FA02F018BF404270474FF000007047CF
:100C100012F1610F01D1420205D110F0004008BF6E
:100C20006FF0004070474FF00000704742000ED256
:100C3000B2F1FE4F0BD34FF09E03B3EB126209D417
:100C40004FEA002343F0004323FA02F070474FF0CD
:100C50000000704712F1610F01D1420202D14FF042
:100C6000FF3070474FF00000704700BF00F13401C3
:100C700091E838009C46A6464CF8045D90E8FF0FCA
:100C8000E54600BD90EC210B704700BF80EC210BC6
:100C9000704700BF90EC200B704700BF80EC200B2A
:100CA000704700BFD0EC200B704700BFC0EC200B9A
:100CB000704700BFF0EC0201F0EC0211F0EC0221F1
:100CC000F0EC0231F0EC0241F0EC0251F0EC026188
:100CD000F0EC0271F0EC0281F0EC0291F0EC02A178
:100CE000F0EC02B1F0EC02C1F0EC02D1F0EC02E168
:100CF000F0EC02F1704700BFE0EC0201E0EC021101
:100D0000E0EC0221E0EC0231E0EC0241E0EC0251C7
:100D1000E0EC0261E0EC0271E0EC0281E0EC0291B7
:100D2000E0EC02A1E0EC02B1E0EC02C1E0EC02D1A7
:100D3000E0EC02E1E0EC02F1704700BFB0FC0181A1
:100D4000B0FC0191B0FC01A1B0FC01B1704700BF43
:100D5000A0FC0181A0FC0191A0FC01A1A0FC01B1BB
:100D6000704700BFEC4600B52DE900502DE9FF1F8C
:100D70004FF000032DE90C0001A910F075FBDDF820
:100D800040E012B0704700BFEC4600B52DE90050BE
:100D90002DE9FF1F4FF000032DE90C0001A910F011
:100DA000A3FBDDF840E012B0704700BFEC4600B591
:100DB0002DE900502DE9FF1F4FF000032DE90C0035
:100DC00001A910F0B1FBDDF840E012B0704700BFA0
:100DD000EC4600B52DE900502DE9FF1F4FF0000350
:100DE0002DE90C0001AB10F073FBDDF840E012B010
:100DF000704700BFEC4600B52DE900502DE9FF1FFC
:100E00004FF000032DE90C0001AA10F0EBFBDDF818
:100E100040E012B0704700BF80EA010C1CF0030FE5
:100E200037D110F0030C20F0030021F0030150F83B
:100E3000042B08BF51F8043B0ED08CF0030C6FF06C
:100E40007F434FEACC0C23FA0CFC51F8043B42EAF6
:100E50000C0243EA0C0300BFA2F1013C9A4201BF1D
:100E60002CEA020C1CF0803F50F8042B51F8043B94
:100E7000F2D04FEA02604FEA1222012828BFB0EBFD
:100E8000036F08BF1B0AF4D003F0FF03000EC01A63
:100E9000704710F0030F0AD010F8012B11F8013B36
:100EA000012A28BF9A42F4D0A2EB030070474DF804
:100EB000045D50F8042B01F0030521F0030151F803
:100EC000043B022D26D04DD822F07F45B5EB132FE1
:100ED000A2F1013C2CEA020C0DD11CF0803C08BFB1
:100EE00051F8043B0AD185EA0205B5EB036F0CD13A
:100EF00050F8042BE8E74FEA13235BE03CF07F4C0B
:100F000054D10B784FEA126554E04FEA126503F0B2
:100F1000FF034FE04FEA0245A2F1013C4FEA1545BD
:100F20002CEA020CB5EB134F18D11CF0803C08BF23
:100F300051F8043B07D185EA0205B5EB034F09D10F
:100F400050F8042BE6E75FEA0C4C2FD10B884FEAF0
:100F500012452FE04FEA03434FEA12454FEA13438D
:100F600028E000BF02F0FF05B5EB136FA2F1013CD2
:100F70002CEA020C0DD11CF0803C08BF51F8043B58
:100F80000AD185EA0205B5EB032F0AD150F8042BEC
:100F9000E8E74FEA13630DE012F0FF0F06D051F8B7
:100FA000043B4FEA122523F07F4303E04FF000009B
:100FB00020BC704705F0FF0203F0FF00012828BFA6
:100FC000904204BF2D0A1B0AF4D0A2EB000020BC03
:100FD000704700BF844641EA000313F0030349D180
:100FE000403A23D30B6803604B6843608B6883608F
:100FF000CB68C3600B6903614B6943618B69836193
:10100000CB69C3610B6A03624B6A43628B6A83627A
:10101000CB6AC3620B6B03634B6B43638B6B836362
:10102000CB6BC36340304031403ADBD230320BD31C
:101030000B6803604B6843608B688360CB68C36058
:1010400010301031103AF3D20C3205D351F8043B72
:1010500040F8043B043AF9D2043208D0D2071CBF4E
:1010600011F8013B00F8013B01D30B880380604677
:10107000704700BF082A13D38B07B1D010F00303C9
:10108000AED0C3F10403D21ADB071CBF11F8013B39
:1010900000F8013BA4D331F8023B20F8023B9FE764
:1010A000043AD9D3013A11F8013B00F8013BF9D2D7
:1010B0000B7803704B7843708B7883706046704771
:1010C00070B54FF0FF0C4CF4E06C1CEA11541DBFDE
:1010D0001CEA135594EA0C0F95EA0C0F00F0DEF8A9
:1010E0002C4481EA030621EA4C5123EA4C5350EA8E
:1010F000013518BF52EA033541F4801143F48013DF
:1011000038D0A0FB02CE4FF00005E1FB02E506F06F
:101110000042E0FB03E54FF00006E1FB03569CF0C4
:10112000000F18BF4EF0010EA4F1FF04B6F5007FCA
:1011300064F5407404D25FEA4E0E6D4146EB06063C
:1011400042EAC62141EA55514FEAC52040EA5E50C5
:101150004FEACE2EB4F1FD0C88BFBCF5E06F1ED86F
:10116000BEF1004F08BF5FEA500E50F1000041EBA6
:10117000045170BD06F0004646EA010140EA020053
:1011800081EA0301B4EB5C04C2BFD4EB0C0541EA75
:10119000045170BD41F480114FF0000E013C00F38A
:1011A000AB8014F1360FDEBF002001F0004170BDAE
:1011B000C4F10004203C35DA0C341BDC04F11404C7
:1011C000C4F1200500FA05F320FA04F001FA05F253
:1011D00040EA020001F0004221F0004110EBD37020
:1011E00021FA04F642EB06015EEA430E08BF20EA4C
:1011F000D37070BDC4F10C04C4F1200500FA04F3EF
:1012000020FA05F001FA04F240EA020001F0004180
:1012100010EBD37041F100015EEA430E08BF20EAF3
:10122000D37070BDC4F1200500FA05F24EEA020E3B
:1012300020FA04F301FA05F243EA020321FA04F06A
:1012400001F0004121FA04F220EA020000EBD37021
:101250005EEA430E08BF20EAD37070BD94F0000F21
:101260000FD101F00046400041EB010111F4801F55
:1012700008BF013CF7D041EA060195F0000F18BF06
:10128000704703F00046520043EB030313F4801F42
:1012900008BF013DF7D043EA0603704794EA0C0FFC
:1012A0000CEA135518BF95EA0C0F0CD050EA410612
:1012B00018BF52EA4306D1D181EA030101F000418F
:1012C0004FF0000070BD50EA410606BF10461946B7
:1012D00052EA430619D094EA0C0F02D150EA0136C3
:1012E00013D195EA0C0F05D152EA03361CBF104604
:1012F00019460AD181EA030101F0004141F0FE41A3
:1013000041F470014FF0000070BD41F0FE4141F426
:10131000780170BD70B54FF0FF0C4CF4E06C1CEA26
:1013200011541DBF1CEA135594EA0C0F95EA0C0FDB
:1013300000F0A7F8A4EB050481EA030E52EA033596
:101340004FEA013100F088804FEA03334FF08055B7
:1013500045EA131343EA12634FEA022245EA1115E4
:1013600045EA10654FEA00260EF000419D4208BF95
:10137000964244F1FD0404F5407402D25B084FEA42
:101380003202B61A65EB03055B084FEA32024FF4EE
:1013900080104FF4002CB6EB020E75EB030E22BF4B
:1013A000B61A754640EA0C005B084FEA3202B6EB0B
:1013B000020E75EB030E22BFB61A754640EA5C00BA
:1013C0005B084FEA3202B6EB020E75EB030E22BF4A
:1013D000B61A754640EA9C005B084FEA3202B6EB4B
:1013E000020E75EB030E22BFB61A754640EADC000A
:1013F00055EA060E18D04FEA051545EA16754FEA6C
:1014000006164FEAC30343EA52734FEAC2025FEA89
:101410001C1CC0D111F4801F0BD141EA00014FF018
:1014200000004FF0004CB6E711F4801F04BF0143E9
:101430000020B4F1FD0C88BFBCF5E06F3FF6AFAE05
:10144000B5EB030C04BFB6EB020C5FEA500C50F195
:10145000000041EB045170BD0EF0004E4EEA113118
:1014600014EB5C04C2BFD4EB0C0541EA045170BD1F
:1014700041F480114FF0000E013C90E645EA060E63
:101480008DE60CEA135594EA0C0F08BF95EA0C0F91
:101490003FF43BAF94EA0C0F0AD150EA01347FF4D9
:1014A00034AF95EA0C0F7FF425AF104619462CE7B0
:1014B00095EA0C0F06D152EA03353FF4FDAE104613
:1014C000194622E750EA410618BF52EA43067FF464
:1014D000C5AE50EA41047FF40DAF52EA43057FF4F4
:1014E000EBAE12E74FEA410C7FEA6C5C02D150EAA6
:1014F000013C0AD14FEA430C7FEA6C5C02D152EA0C
:10150000033C02D14FF0000070474FF001007047DC
:101510004FEA410212F5001215D211D56FF478731B
:10152000B3EB625212D94FEAC12343F0004343EABE
:10153000505311F0004F23FA02F018BF4042704799
:101540004FF00000704750EA013005D111F0004023
:1015500008BF6FF0004070474FF00000704700BFB9
:101560000348044B834202D0034B03B11847704732
:101570007009002070090020000000000548064B9B
:101580001B1AD90F01EBA301491002D0034B03B181
:101590001847704770090020700900200000000003
:1015A00010B5064C237843B9FFF7DAFF044B13B1AB
:1015B0000448AFF300800123237010BD70090020A0
:1015C000000000006C88010808B5054B1BB10549F7
:1015D0000548AFF30080BDE80840FFF7CFBF00BF6C
:1015E00000000000740900206C88010800B585B077
:1015F00000230193029303931148124A026083600F
:10160000037303754FF46022C261436001230361D9
:1016100006F0E2FC68B91023019301230293002332
:10162000039301A9064806F051FB28B905B05DF8FF
:1016300004FB06F0C4F8EEE706F0C1F8F6E700BFD9
:101640008C090020002401400268094B9A4200D016
:10165000704782B003F56C439A6942F400729A6154
:101660009B6903F400730193019B02B0704700BFB4
:10167000002401400048704738000020F8B50D46AE
:1016800014461E460F6811463846FFF777FA50B9E0
:1016900021463846FEF7D4FF20F000400C49FFF702
:1016A00077FA08B12C60F8BD39462046FEF7C8FF2E
:1016B000044631460748FEF7C3FF01462046FFF7C0
:1016C0007DF901463846FEF7BDFF2860EBE700BF15
:1016D0009A99193E0000C84208B503F001FE03685C
:1016E000DB69984708BD08B503F0FAFD03681B6A7B
:1016F000984708BD10B5044603F0F2FD03685B6A25
:101700002146984710BD10B5044603F0E9FD036873
:101710009B6A2146984710BD10B5044603F0E0FDD2
:1017200003681B6B2146984710BDF8B504460D466B
:10173000164603F0D5FD03689F6B33462A462146C3
:10174000B847F8BDF8B504460D46164603F0C8FD87
:1017500003689F6C33462A462146B847F8BDF8B562
:1017600004460D46164603F0BBFD0368DF6C3346A6
:101770002A462146B847F8BDF0B583B004460D4669
:1017800016461F4603F0ACFD036800975F6D3346B5
:101790002A462146B84703B0F0BD08B503F0A0FDC6
:1017A00003685B6F984708BD10B584B0844601910B
:1017B00044680368E31A98106FF0604EAEEBA30321
:1017C0008B4210D30390814210D803AB1B6818449E
:1017D000DCF80030E41AB0EBA40F09D3B0F1005FDD
:1017E00009D204B010BD104609F07EF901ABEDE757
:1017F0006FF06040F5E76FF06040F2E74068043852
:10180000704710B485B000230193029303930468DA
:1018100001944268029283680393D1F800C0C0F833
:1018200000C0D1F804C0C0F804C0D1F808C0C0F8A6
:1018300008C00C604A608B6005B010BC704708B5EA
:101840000846114607F046FF08BD08B5034653F8A1
:10185000081B994203D082680132FFF7F0FF08BDF0
:1018600010B50446FFF7F1FF204610BD136801E0F4
:1018700040F8043B8142FBD1704708B5084691000F
:1018800007F028FF08BD10B5044601688268521AA7
:1018900011B19210FFF7F1FF204610BD10B50446BC
:1018A000FFF7F1FF204610BD08B5B1F1005F03D28C
:1018B000880008F08BFC08BDB1F1804F01D309F01E
:1018C000EBF809F0D9F838B504460D4641B10022CD
:1018D000FFF7EAFF2060606000EB8500A06038BD84
:1018E0000020F7E770B5B1F1005F0ED205460C4657
:1018F00016460023036043608360FFF7E4FF2B6814
:101900006CB103EB8404326804E0064809F0ECF89B
:1019100043F8042B9C42FBD16C60284670BD1C46EA
:10192000FAE700BF688A010870B584B005460C4626
:101930001646836800681B1AB1EBA30F09D86968C3
:101940000B1AB4EBA30F11D86CB300EB840413682B
:1019500022E02B4601A8FFF7C5FF294601A8FFF7A3
:1019600050FF01A8FFF78FFF04B070BDFFF77EFFA7
:101970006B682A689A1AB4EBA20209D003EB8202C0
:10198000316801E043F8041B9A42FBD16A60EBE73F
:101990001A46FBE740F8043B8442FBD16B68A34244
:1019A000E2D06C60E0E70446F8E700002DE9F84F6C
:1019B00005468A4693461E4A0121FFF7F5FED5F8F3
:1019C00000806F68AAEB0804814618B30022014624
:1019D0002846FFF769FF0646DBF800303351002C3C
:1019E0001ADC04343444A7EB0A07002F1ADC3C4409
:1019F000AA68A2EB08029210B8F1000F03D041468A
:101A00002846FFF73AFF2E606C6006EB8906AE6051
:101A1000BDE8F88F0026DFE722464146304611F048
:101A20000FFCDEE73A465146204611F009FCDEE79E
:101A30009C8A010810B5044643688268934208D026
:101A40000A681A604368043343602046FFF7D6FEF5
:101A500010BD0A461946FFF7A9FFF6E72DE9F04F3A
:101A600087B081462AE2B24808F06EFB002800F0F9
:101A70003682B04AB049B14807F0A8FDAC4808F03A
:101A800083FB2CE2AE4808F05FFB002800F02F82B9
:101A9000A84AA949AB4807F099FDA94808F074FB8A
:101AA00025E2A94808F050FB002800F02882A14A4E
:101AB000A149A64807F08AFDA34808F065FB1EE28D
:101AC000A34808F041FB002800F02182994AA1496F
:101AD000A14807F07BFD9E4808F056FB17E29F489F
:101AE00008F032FB002800F01A82924A99499C487B
:101AF00007F06CFD994808F047FB10E203F0F0FB9B
:101B000004799548FFF7FFFD201A00EBD0704010D4
:101B1000FEF74CFE934B1860934808F035FB12E239
:101B200003F0DEFB04798E48FFF7EDFD201A00EB91
:101B3000D0704010FEF73AFE8C4B18608C4808F0CD
:101B400023FB11E28B4808F0FFFA002800F018820E
:101B5000D5F8A4100020FEF773FD4FF07E51FEF77C
:101B60006FFD854B1860834808F00EFB08E2834840
:101B700008F0EAFA002800F00B82D5F8A81000203F
:101B8000FEF75EFD4FF07E51FEF75AFD7C4B18606C
:101B90007A4808F0F9FAFBE17A4808F0D5FA00280B
:101BA00000F0FE8103F09CFB4079C043FEF7FEFD90
:101BB000754B1860734808F0E7FAF1E15F4B1A685B
:101BC0005B68934201D05D4B5A605E4B1A685B685C
:101BD000934201D05B4B5A605C4B1A685B689A4237
:101BE00001D05A4B5A60002669E0FFF7D6FDC0EBE2
:101BF000C00010F07BFCD5F8A0100020FEF720FDFF
:101C00004FF07E51FEF71CFD029002A94B48FFF7F2
:101C100011FF10F073FC044603F062FB90F805809E
:101C2000D5F8A0000146FEF70DFD07464046FEF739
:101C3000BDFD3946FEF704FD4FF08041FEF700FD83
:101C40004FF07E51FEF7FEFCFEF7F0FF80B294FBF2
:101C5000F0F300FB13400130FEF7A8FD039003A949
:101C60003848FFF7E7FE10F049FC044603F038FB64
:101C700090F80480D5F8A0000146FEF7E3FC074683
:101C80004046FEF793FD3946FEF7DAFC4FF08041FF
:101C9000FEF7D6FC4FF07E51FEF7D4FCFEF7C6FFF0
:101CA00080B294FBF0F300FB13400130FEF77EFDA1
:101CB000049004A92548FFF7BDFE0136F6B295F859
:101CC000AC30B34291D8314B01221A7075E103F068
:101CD00007FB4079C043FEF769FD2D4B186095F86E
:101CE000AC40D5F8A0100020FEF7AAFC4FF07E51C2
:101CF000FEF7A6FC059005AA21461248FFF714FE40
:101D0000D5F8A4100020FEF79BFC4FF07E51FEF7A3
:101D100097FC204B1860D5F8A8100020FEF790FC27
:101D20004FF07E51FEF78CFC1B4B186062E100BF48
:101D3000180A0020000000209D1800081C0A00203E
:101D4000080A00200C0A0020F8090020FC090020E5
:101D5000F4090020611800081C000020F009002090
:101D600004000020EC090020E8090020E40900201C
:101D7000E0090020D8090020DC090020D00900205B
:101D8000D4090020C0090020C40900202A0A00202C
:101D9000BC090020CC090020C8090020BA4F3B68CC
:101DA0004FEA840AD5F8A080414653F82400FEF794
:101DB00047FCB64E336853F824B04FF07E51FEF71F
:101DC0003FFC42465946FFF7CAFC3B683268D5F8EB
:101DD000A0B052F824804FF0804153F82400FEF761
:101DE00031FC5A464146FFF7BAFCD7F800B03368D9
:101DF000D5F8A080414653F82400FEF721FC4FF0AF
:101E00007E51FEF71DFC014642465BF82400FFF7B9
:101E100099FC3F683368D5F8A0804FF0804153F8B3
:101E20002400FEF70FFC0146424657F82400FFF756
:101E300089FC3168964B1A68AB6A52F824205144E9
:101E400001A8FFF71BFC0134E4B295F8AC30A342C3
:101E5000A4D8D5F8B000FFF74DFC8E4E3168D5F808
:101E6000A400FEF7EFFB01468B4A8C4B1868FFF786
:101E70005CFCD5F8B400FFF73DFC894C2168D5F82F
:101E8000A800FEF7DFFB0146864A874B1868FFF77C
:101E90004CFCAB6A854A1268314601A8FFF7EEFB9D
:101EA000AB6A834A1268214601A8FFF7E7FBFFF7F8
:101EB00013FC804B1B884B4580F0D5807E4B1B78F4
:101EC000002B00F024817B4A1388013313807B4B65
:101ED0001B68BFF35B8F13F0010F3FF4C4AD784B69
:101EE0001B68BFF35B8F13F0010F3FF4CBAD754B55
:101EF0001B68BFF35B8F13F0010F3FF4D2AD724B41
:101F00001B68BFF35B8F13F0010F3FF4D9AD6F4B2C
:101F10001B68BFF35B8F13F0010F3FF4E0ADFFF7D9
:101F2000A9FB0546D0F8B000FFF7E4FB684B1B683F
:101F3000BFF35B8F13F0010F05D1654808F004F97A
:101F400000287FF4DBADD5F8B400FFF7D3FB614B7D
:101F50001B68BFF35B8F13F0010F05D15D4808F0DC
:101F6000F3F800287FF4DCADD5F8B800FFF7C2FB2A
:101F7000594B1B68BFF35B8F13F0010F3FF4E2ADC9
:101F8000564B1B68BFF35B8F13F0010F3FF4EFADAF
:101F9000534B1B68BFF35B8F13F0010F3FF4FCAD95
:101FA000444B1B884B45BFF492AE4E4B00221A6047
:101FB0004D4B1B78002B3FF401AE03F091F94679AD
:101FC00076084FF07C51D5F8A400FEF743FC044698
:101FD0003046FEF7EBFB2146FEF732FB334B186031
:101FE000D5F8A810FEF72CFB4FF08141FEF728FB37
:101FF0002F4B1860FFF777FB0020FFF78DFB3B4C62
:10200000D4F8008003F06CF90079FEF7CBFB0646AC
:1020100003F066F94079FEF7C5FB03460027324618
:1020200041463846FFF7A8FBAB6A2E4A12682146A4
:1020300001A8FFF723FB0120FFF76EFB03F050F927
:102040004079FEF7B3FB2168FEF7FCFA044603F083
:1020500047F90079FEF7A6FB024621463846FFF70E
:102060007EFB0024F1E603F03BF94079C043FEF724
:102070009DFB1E4B1968FEF781FD00283FF41EAF43
:102080000D4B00221A7019E7FC0900201C0A0020E1
:102090000C0A0020DC0900201C000020EC090020B4
:1020A000D409002004000020E4090020CC0900200D
:1020B000C8090020280A002034000020180A002047
:1020C000080A0020F8090020F4090020F009002087
:1020D000E8090020E0090020D8090020D0090020EC
:1020E000C0090020BC0900202A0A0020C4090020E1
:1020F000084808F045F807F0EFFA074808F040F8FC
:1021000007F0EAFA054808F03BF807F0E5FA07B0EF
:10211000BDE8F08FE8090020E0090020C009002098
:1021200010B5044603F0DCF803689B6E214698471F
:1021300010BD000008B5024B186802F089FFFAE7ED
:10214000640A002008B5081E02DB08F03FF808BD4D
:1021500008F092FCF8B5541A0CD405460E4664B14A
:1021600000222146FFF7EEFF28600719AF6034B95F
:102170006F60F8BD044808F0B7FC0020F4E7224681
:10218000314611F05DF8F3E7688A010808B5012AC5
:1021900003D022B1FEF71EFF01E00B78037008BDEB
:1021A00008B50846114607F095FA08BD10B5044673
:1021B00001688268521A09B1FFF7F2FF204610BD8C
:1021C00010B50446FFF7F2FF204610BD10B582B0EF
:1021D000044602AB03E9060000230360436083600A
:1021E0000A44FFF7B7FF04E02046FFF7DFFF07F0E0
:1021F00073FA204602B010BD08B5081E02DB07F0D6
:10220000E5FF08BD08F038FC10B50B68002B0EDBAD
:10221000934206D95400B3EB420F02D20C60002C5B
:1022200008DB096800220131FFF7E6FF10BD034813
:1022300008F05AFC6FF000430B60F2E7B88A01081F
:1022400070B582B004460E46551A01950F2D0DD873
:1022500000942A4631462068FFF798FF002200923A
:10226000019B63602168CA5402B070BD002201A9BD
:10227000FFF7CAFF2060019BA360E9E738B500F1D2
:102280000803036069B104460D46084611F020FAC0
:102290004FF000032A1829462046FFF7D1FF2046B9
:1022A00038BD014808F008FCD08A010870B5C0B0FC
:1022B000A42007F08BFF0446B84B03608023037112
:1022C00040234371B64B836000218181B54B40F8B8
:1022D000103B942211F032F8204603F0B9F84FF485
:1022E000AF70FFF71DFF4FF47A70FFF7B7FBAE4BEF
:1022F0001D684FF4A67007F069FF044607AAAB49B2
:1023000001A8FFF7BBFF08E0012525B14FF4A67136
:10231000204607F0DFF907F0DFF9A54A01A92046BA
:1023200001F058FD2146284601F002FE04E0002598
:1023300001A8FFF78AFAE8E701A8FFF786FA9A4BA7
:102340001D684FF4A67007F041FF04460EAA994994
:1023500008A8FFF793FF08E0012525B14FF4A67107
:10236000204607F0B7F907F0B7F9934A08A92046C5
:1023700001F030FD2146284601F0DAFD04E0002599
:1023800008A8FFF762FAE8E708A8FFF75EFA864BAD
:102390001D684FF4A67007F019FF044615AA874977
:1023A0000FA8FFF76BFF08E0012525B14FF4A671D8
:1023B000204607F08FF907F08FF90FA9204601F0AA
:1023C00079FF2146284601F0B3FD04E000250FA85F
:1023D000FFF73BFAE9E70FA8FFF737FA784C2168D7
:1023E000714B186801F0A4FD25684FF4A67007F042
:1023F000EDFE044601F008FF2146284601F098FD55
:102400006F4B1E684FF4A67007F0E0FE04461CAA4E
:102410006C4916A8FFF732FF08E0012525B14FF4FB
:10242000A671204607F056F907F056F916A920467E
:1024300001F040FF04E0012516A8FFF706FAEDE7DA
:10244000E42007F0C3FE05465F4902F05FFB01E0B0
:102450000025F1E72A462146304601F0E9FD01E07A
:102460000025E9E716A8FFF7F0F9554B1D684FF472
:10247000AE7007F0ABFE044623AA54491DA8FFF72F
:10248000FDFE08E0012525B14FF4AE71204607F0AE
:1024900021F907F021F91DA9204601F05FFF21462F
:1024A000284601F045FD04E000251DA8FFF7CDF901
:1024B000E9E71DA8FFF7C9F9414B1D684FF4AE705D
:1024C00007F084FE04462AAA414924A8FFF7D6FE55
:1024D00008E0012525B14FF4AE71204607F0FAF867
:1024E00007F0FAF824A9204601F038FF21462846D3
:1024F00001F01EFD04E0002524A8FFF7A6F9E9E796
:1025000024A8FFF7A2F92E4B1D684FF4A67007F020
:102510005DFE044631AA2F492BA8FFF7AFFE08E065
:10252000012525B14FF4A671204607F0D3F807F036
:10253000D3F82BA9204601F0BDFE2146284601F024
:10254000F7FC04E000252BA8FFF77FF9E9E72BA8AB
:10255000FFF77BF91A4B1D684FF4A67007F036FEA3
:10256000044638AA1C4932A8FFF788FE08E0012576
:1025700025B14FF4A671204607F0ACF807F0ACF88F
:1025800032A9204601F096FE2146284601F0D0FCF3
:1025900024E0002532A8FFF758F9E9E78C8D0108FF
:1025A00000007F43ECA10108600A0020048B0108B1
:1025B000540A00200C8B0108480A0020148B0108E3
:1025C0002C0A0020248B010808010020308B010810
:1025D000408B0108588B0108708B010832A8FFF767
:1025E00034F9264B1D684FF4A67007F0EFFD044642
:1025F0003FAA234939A8FFF741FE08E0012525B18C
:102600004FF4A671204607F065F807F065F839A980
:10261000204601F04FFE2146284601F089FC04E0E7
:10262000002539A8FFF711F9E9E739A8FFF70DF9F7
:10263000144B1968144B186802F00CFC40B070BDC4
:10264000012575E601259BE60125C0E64FF4A6713C
:10265000204607F03FF807F03FF8E421284607F04E
:1026600039F80025E8E601251FE7012544E70125A3
:1026700069E701258EE70125D3E700BF2C0A00207A
:10268000888B0108600A0020640A0020012800D01D
:1026900070474FF6FF739942FAD12DE9F041B8B077
:1026A000182007F093FD0023036043608360C3603C
:1026B000036143614D4B18604FF4AE7007F086FD27
:1026C000044624AA4A491EA8FFF7D8FD1EA92046A1
:1026D00001F044FE474B1C601EA8FFF7B6F8464FBA
:1026E0007824224639466846FEF774FCCDF894D02B
:1026F0002694DFF8088127AB224669464046FFF75B
:1027000065FD3F4E3F4D32462946404606F05EFF8E
:10271000224639196846FEF75DFCCDF8A0D0299411
:10272000DFF8E4802AAB224669464046FFF74EFDBB
:1027300032462946404606F049FF224607F1F0019D
:102740006846FEF747FCCDF8ACD02C94DFF8BC808F
:102750002DAB224669464046FFF738FD32462946F2
:10276000404606F033FF224607F5B4716846FEF78F
:1027700031FCCDF8B8D02F94254C30AB7822694687
:102780002046FFF723FD32462946204606F01EFF6D
:102790004FF4A67007F01AFD044637AA1D4931A868
:1027A000FFF76CFD1A4A31A9204601F013FB1A4BC2
:1027B0001C6031A8FFF749F838B0BDE8F0811EA8C9
:1027C000FFF743F84FF4AE71204606F083FF06F0A2
:1027D00083FFF7E731A8FFF738F84FF4A6712046DA
:1027E00006F078FF06F078FFF7E700BF640A0020E4
:1027F000A08B0108600A002088880108540A002084
:1028000000000020C1210008480A00203C0A0020E6
:10281000300A0020A88B01082C0A002008B54FF6CA
:10282000FF710120FFF732FF08BD000030B54149BC
:102830000160414A4260414A8260414AC26002618D
:10284000404C4461404C8461404CC461404C046243
:10285000416282624FF0010C80F82CC080F82DC0DC
:1028600080F82EC080F82FC0002280F83020394D2B
:1028700045634FF0824282634FF08141C1634FF064
:10288000834404644FF07C5EC0F844E081644FF000
:10289000804EC0F84CE080F850C0DFF8BCC0C0F8F3
:1028A00054C0C0F858C0C2650266DFF8B0C0C0F8B6
:1028B00064C08166DFF8A8C0C0F86CC00267DFF8AA
:1028C000A4C0C0F874C0C0F878E0C567264DC0F851
:1028D0008050DFF898C0C0F884C0C0F888C0C0F845
:1028E0008C20C0F89040C0F89410C0F898E0204CBC
:1028F000C0F89C40C0F8A0E01E4CC0F8A440C0F84E
:10290000A820102480F8AC401B4CC0F8B0401B4CF1
:10291000C0F8B440C0F8B840C0F8BC20C0F8C0202F
:10292000C0F8C410164AC0F8C8204FF07E52C0F854
:10293000CC2030BD0000A042000082420000504286
:1029400000008C4200005C420000C8410000704161
:102950000000C8420000A0400000F0410000C0405C
:102960000000904100004041000040400000104243
:102970000000B442000060412C8E010880960108DE
:1029800000002041F8B504460D4616460768384653
:10299000FEF7F4F8E0B929463846FDF751FE20F07D
:1029A00000404FF07E51FEF7FDF890B939462846B9
:1029B000FDF746FE054631460748FDF741FE014654
:1029C0002846FDF7FBFF01463846FDF73BFE206039
:1029D000F8BD2560FCE700BF0000C84270B50446A2
:1029E0000D46164680230370402343700D4B436011
:1029F0000830FFF71BFF002384F8E8302946002049
:102A0000FDF71EFE0546C4F8D80031460020FDF74C
:102A100017FEC4F8DC00C4F8E050C4F8E400204617
:102A200070BD00BF00007F432DE9F04704460E460D
:102A30001546D0F8E0100020FDF702FE8046D4F8DD
:102A4000E4100020FDF7FCFD07464FF00109314678
:102A50004046FEF7BBF808B94FF000094FF0010AF5
:102A600029463846FEF7B2F808B94FF0000A49EA9D
:102A70000A0919F0FF0F2ED12078FDF797FE414685
:102A8000FDF7E0FD4FF07E51FDF7DAFD80466078FE
:102A9000FDF78CFE3946FDF7D5FD4FF07E51FDF771
:102AA000CFFD07464FF0010431464046FEF770F86F
:102AB00008B94FF000044FF0010629463846FEF7EA
:102AC00067F808B94FF00006344314F0FF0F04D143
:102AD0000020BDE8F0870120FBE70220F9E770B590
:102AE00004461646012380F8E8300020FDF7A8FDD3
:102AF0000546E26A014604F1E000FFF743FF314674
:102B00000020FDF79DFD0646E26A014604F1E4005F
:102B1000FFF738FFD4F8E0102846FEF72FF840B151
:102B2000D4F8E4103046FEF729F810B1002384F8F9
:102B3000E83070BD70B504460D46244B1B68BFF3EA
:102B40005B8F13F0010F28D0012384F8E83055B1D2
:102B50001F4B1B78B5FBF3F203FB125212F0FF0F71
:102B60002FD1B5FBF3F5607805FB00F0FDF71EFEF5
:102B7000024600212046FFF7B2FFD4F8E4606078F7
:102B800005FB00F0FDF712FE01463046FDF7F6FFAB
:102B900010B1002384F8E83070BD0C4807F0D4FA77
:102BA0000028D1D0A66C6078FDF700FE3146FDF715
:102BB00005FFFEF73BF8064B1870044807F0E4FAEF
:102BC000C2E7B5FBF3F3DDB2CDE700BF6C0A00202E
:102BD000700A0020F8B504460D46012380F8E8305D
:102BE0000B681E685F683A463146FFF71DFF0128F3
:102BF00014D0022816D03C4B1B78012B16D03A4B30
:102C00001B78022B34D02B685A6819682046FFF7CE
:102C10000BFF10B9002384F8E830F8BD324B0122D5
:102C20001A70E8E7304B02221A70E4E73A46314660
:102C30002046FFF754FFD4F8E0702E68316800207A
:102C4000FDF7FEFC01463846FDF798FF0028D6D078
:102C5000D4F8E47071680020FDF7F2FC01463846B4
:102C6000FDF78CFF0028CAD01F4B00221A70C6E760
:102C70002F687968A06CFDF7E5FC06466078FDF7E3
:102C800095FD01463046FDF7DBFC024639682046DB
:102C9000FFF725FFD4F8E0702E6831680020FDF7BB
:102CA000CFFC01463846FDF769FF0028ABD0D4F8C9
:102CB000E4707168A06CFDF7C5FC06466078FDF70E
:102CC00075FD01463046FDF7BBFC01460020FDF7CF
:102CD000B7FC01463846FDF751FF002893D0024B60
:102CE00000221A708FE700BF680A0020F8B504467A
:102CF000012380F8E8300846FDF758FD0546616E6F
:102D0000E06DFDF79FFC014600262846FDF7A2FD79
:102D1000014632462046FFF7E2FED4F8E070616ECD
:102D2000E06DFDF78FFC01462846FDF793FD014657
:102D30003046FDF785FC01463846FDF71FFF10B110
:102D4000002384F8E830F8BDF0B583B005460E46A0
:102D500047680197084610F0BBFC04460090B84253
:102D60000AD301AB1A6828681AB1314610F038FA54
:102D700000B9381B03B0F0BD6B46F3E7F0B591B076
:102D800006460C4617460B681B6801A898471B4966
:102D900001A8FFF7D9FF054601A8FEF756FDB5B912
:102DA00096F858306BB1012B1FD1394607A801F0B6
:102DB00007FE07A93046FFF70DFF07A8FEF763FDE2
:102DC00013E094F838113046FFF7B4FE0DE02368A5
:102DD0001B6821460AA8984709490AA8FFF7B4FFCB
:102DE00005460AA8FEF731FD0DB111B0F0BD94F80B
:102DF00038113046FFF77AFFF7E700BFB48B0108C0
:102E0000BC8B01082DE9F041571A0F4B9F4216D891
:102E100004460D461646B910A1B10022FEF744FD46
:102E2000206000EB0708C4F80880B54203D03A469A
:102E3000294610F005FAC4F80480BDE8F081034883
:102E400007F052FE0020EBE7FCFFFF7F688A0108D5
:102E500010B582B0044602AB03E90600002303600C
:102E60004360836001EB8202FFF7CCFF04E0204661
:102E7000FEF709FD06F030FC204602B010BD10B58B
:102E800086B00446D1F8E0300393D1F8E4300493DF
:102E900003AB01930223029305AB01AA06CAFFF715
:102EA000D7FF204606B010BD004870470C01002037
:102EB0007047704770472DE9F04706468946D0F8BD
:102EC0002031D0F82481002404E0C5F8E400013466
:102ED000E4B23B1D1F4698451CD01D68B36CC5F875
:102EE000DC30C5F8E030D6F84CA02046FDF75EFC9B
:102EF0005146FDF7AFFCC5F8E80096F83930002BD5
:102F0000E3D0D9F80030F16C5868FDF799FBC5F8AB
:102F1000E400DCE7BDE8F08770B504460579066C8F
:102F20002846FDF743FC3146FDF78AFBC4F848010B
:102F300094F8393043B10023C4F83C312846FDF7FA
:102F400031FCC4F8440170BDD4F84031C4F83C31C0
:102F5000F4E72DE9F04F83B004468B46D0F82031DA
:102F6000D0F824A1002505E0C6F8DC000135EDB25B
:102F700009F1040399469A4535D01E680023C6F826
:102F8000E43027797F08D4F860804FF07C514046C8
:102F9000FDF760FC01903846FDF708FC0199FDF74C
:102FA0004FFB0746A16E4046FDF74CFB8046284686
:102FB000FDF7FCFB4146FDF74DFC01463846FDF7A9
:102FC00041FBC6F8E000E36EC6F8E83094F838300C
:102FD000002BC9D0DBF80030216E1868FDF730FBFC
:102FE000C6F8DC00C2E703B0BDE8F08F70B5044658
:102FF0000023C0F8483146793046FDF7D7FB054637
:10300000E16FFDF71DFBC4F85001A16F2846FDF7E5
:1030100017FBC4F8580194F838308BB10023C4F87A
:103020003C313046FDF7BEFBC4F84C01C4F85401F6
:10303000D4F884100020FDF703FBC4F8440170BDF0
:10304000D4F84031C4F83C31EBE708B502F048F958
:1030500003681B69984708BD08B502F041F9036889
:103060005B69984708BD08B502F03AF903689B69A7
:10307000984708BD38B504460D4602F031F903689B
:103080005B6B2A462146984738BDF8B504460D4685
:10309000164602F025F90368DF6B33462A462146BF
:1030A000B847F8BDF8B504460D46164602F018F9C3
:1030B00003685F6C33462A462146B847F8BDF0B531
:1030C00083B004460D4616461F4602F009F9036810
:1030D000089A019200971F6D33462A462146B84749
:1030E00003B0F0BD10B5044602F0FAF8043003C88E
:1030F00084E80300FFF7D8FE0146D02204F108005F
:10310000FDF768FF10BD000038B55C4B1B68BFF3CE
:103110005B8F13F0010F03D1584807F015F8B8B9C9
:10312000FFF793FF0446FFF7BFFE0546006AFDF771
:103130007DFDFEF7F5FF95F83030002B56D0504B53
:103140001B78013B032B4DD8DFE803F01E2C3C4AD3
:10315000FFF782FF0446FFF786FF00FB04F4E4005C
:10316000484B1C70454807F00FF8D9E701339BB274
:10317000444A12789A4258D913F0010FF6D0E25C13
:1031800002F0AA02E254F1E70023F1E701339BB217
:103190003C4A12789A4248D913F0010FF6D0002227
:1031A000E254F3E70023F3E701339BB2354A127888
:1031B0009A423AD913F0010FF6D1E25C02F05502BF
:1031C000E254F1E70023F1E701339BB22D4A127874
:1031D0009A422AD913F0010FF6D10022E254F3E704
:1031E0000023F3E7264B00221A701EE0244B1B78C5
:1031F000013B032B39D8DFE803F0101D2D360133D6
:103200009BB2204A12789A420FD913F0010FF6D0E0
:10321000E25C42F0AA02E254F1E70023F1E7013355
:103220009BB2184A12789A42F9D8154A137801339A
:10323000137038BD0023F4E701339BB2114A1278B2
:103240009A42F2D913F0010FF6D1E25C42F0550236
:10325000E254F1E70023F1E701339BB2094A127807
:103260009A42F9D8E1E70023F8E7054B00221A70EB
:10327000DBE7024806F084FF06F02EFA740A00200D
:1032800009010020780A0020D0F82431D0F820016C
:10329000181AC0F3870070472DE9F04F87B0044635
:1032A00005910430FFF71EFF0120FEF735FAD4F830
:1032B0002061D4F82431049322E056F8045BD5F859
:1032C000DCB0059B1F68D5F804A1D4F86490D4F84D
:1032D00060807968E06EFDF7B5F90390396858466B
:1032E000FDF7B0F9CDF800A04B4642460399FFF731
:1032F000E6FEE268D5F8E01005F1DC00FFF742FBDE
:10330000049BB342D9D194F838010130FDF74EFA4D
:1033100005462079FDF746FA06462046FFF7B4FF3A
:10332000FDF744FA01463046FDF748FB01462846C2
:10333000FDF790FAC4F840014FF00008D4F884304B
:10334000D4F83C21D4F844114046FEF715FA226F18
:10335000D4F84C11606FFEF702FA666F4FF07E51A1
:10336000D4F84C01FDF76EF905464FF07E5130461A
:10337000FDF768F92946FFF77DFE666F4FF0804143
:10338000D4F84C01FDF75EF905464FF08041304618
:10339000FDF758F92946FFF76DFE666F4FF07E5135
:1033A000D4F84C01FDF74CF905464FF07E513046FC
:1033B000FDF748F92946FFF75DFE666F4FF0804143
:1033C000D4F84C01FDF73CF905464FF080413046FA
:1033D000FDF738F92946FFF74DFE256F2079FDF7F7
:1033E000E5F92946FDF72CF9D4F84C61616FFDF73A
:1033F00027F92A463146FEF7B2F92779266F4FF0B2
:103400007E51D4F84C01FDF71DF905463846FDF70D
:10341000CDF93146FDF714F92946FFF72BFE256F4C
:103420002079FDF7C3F92946FDF70AF906464FF062
:103430008041D4F84C01FDF705F905464FF07E5167
:103440003046FDF7FDF82946FFF714FE2779266F71
:103450004FF07E51D4F84C01FDF7F2F8054638469E
:10346000FDF7A4F93146FDF7EBF82946FFF702FE18
:10347000256F2079FDF79AF92946FDF7E1F8064610
:103480004FF08041D4F84C01FDF7DAF805464FF0D3
:103490007E513046FDF7D4F82946FFF7EBFD434E49
:1034A0004FF08041D4F84C01FDF7CCF8014632468C
:1034B000D4F89C00FEF753F9D4F89CA04FF080415B
:1034C000D4F84C01FDF7BEF84FF08145DFF8E090ED
:1034D0002946FDF7B5F807464FF080415046FDF705
:1034E000B1F82B464A463946FEF746F9D4F89C70A7
:1034F0002079FDF75BF93946FDF7A2F882464FF0D7
:103500008041D4F84C01FDF79DF8074631465046FE
:10351000FDF796F832463946FEF721F9D4F89C704B
:103520002079FDF743F93946FDF78AF83146FDF772
:1035300087F807464FF08041D4F84C01FDF782F838
:103540002946FDF77DF806464FF080413846FDF7E5
:1035500079F82B464A463146FEF70EF92079FDF7F9
:1035600021F90246D4F854114046FFF79BFDE2686A
:10357000D4F8581104F5AA70FFF704FAE268D4F8F9
:10358000501104F5A670FFF7FDF9E268D4F8401178
:1035900004F59E70FFF7F6F9E268D4F8481104F5D7
:1035A000A270FFF7EFF907B0BDE8F08F00001041FF
:1035B0000000A04090F83821D0F8203153F82200C4
:1035C0007047D0F81C01704708B5FFF79DFD08BD96
:1035D00010B5044680230371402343711B4B836065
:1035E0000C30FFF723F92246194B42F8DC3B00234D
:1035F000C4F8DC3053609360D36004F1F402C4F883
:10360000EC20C4F8F03084F8F430C4F80431C4F885
:103610000831C4F80C31C4F81031C4F81431C4F8BE
:103620001831C4F81031C4F81431C4F81831C4F892
:103630002031C4F82431C4F82831C4F82C31C4F83E
:103640003031C4F83431204610BD00BF00007F4344
:103650008C8C010803684068984214BF0020012048
:1036600070472DE9F04F85B004468A460430FFF7D5
:1036700039FD0120FEF750F8D4F82031D4F8242188
:10368000039244E057F8048BD4F8D4602079FDF716
:103690008DF83146FCF7D4FF0646D4F8C890D4F82C
:1036A000D010D5F8E400FCF7CDFF01904946304634
:1036B000FCF7C6FF0146D8F800301E695346019A50
:1036C0004046B047BB45DDD1D5F8DC90DAF8007054
:1036D000616CD5F8E400FCF7B5FFA16CFCF7B2FF14
:1036E00005F1EC087968FCF7ADFF064639684846F5
:1036F000FCF7A8FF42463146FFF7C7FC2269D5F820
:10370000E81005F1E400FFF73DF9029B0433029352
:10371000039A9A420BD01D6805F59670FFF79AFF41
:103720000028D1D1D5F82C71D5F830B1CAE794F87A
:1037300038010130FDF73AF805466079FDF732F8B7
:1037400006462046FFF7A0FDFDF730F8014630465B
:10375000FDF734F901462846FDF77CF8C4F840012E
:10376000266C00252079FDF721F83146FCF768FF2B
:1037700032462946FDF7F3FF94F80480276C607900
:103780000138FDF713F806464046FDF70FF83946B5
:10379000FCF756FF3A463146FDF7E1FF94F8048006
:1037A0004FF07C51206CFDF755F8FCF715FE0DF03D
:1037B0005BFC06460F464046FCF7FCFD32463B46A6
:1037C000FCF7AAFC804689466079FCF7EBFF0646C9
:1037D00040464946FCF7E0FE32462946FDF7B2FF77
:1037E000D4F83C31226C2946D4F84401FDF7C4FFDB
:1037F00094F83C3083B92269D4F8401104F59E70E6
:10380000FFF7C0F82269D4F8481104F5A270FFF759
:10381000B9F805B0BDE8F08F0220FDF77DFF2679ED
:103820006079FCF7BFFF05463046FCF7BBFF024658
:1038300000202B460146FDF79FFF0120FDF76CFF9E
:10384000D9E710B584B08446019144680368E31A4F
:103850006FF00040C01A88420ED3039399420ED8ED
:1038600003AA10681844DCF80030E41A844208D82F
:10387000002809DB04B010BD104607F035F901AA95
:10388000EFE76FF00040F5E76FF00040F2E710B5AA
:1038900084B08446019144680368E31A98106FF07D
:1038A000604EAEEBA3038B4210D30390814210D83D
:1038B00003AB1B681844DCF80030E41AB0EBA40F2B
:1038C00009D3B0F1005F09D204B010BD104607F073
:1038D0000BF901ABEDE76FF06040F5E76FF060408A
:1038E000F2E710B584B08446019144680368E31A96
:1038F00098106FF0604EAEEBA3038B4210D3039091
:10390000814210D803AB1B681844DCF80030E41A7D
:10391000B0EBA40F09D3B0F1005F09D204B010BD21
:10392000104607F0E1F801ABEDE76FF06040F5E716
:103930006FF06040F2E738B515460C1A01D128192E
:1039400038BD2246014628460FF07AFCF7E710B44E
:1039500085B00023019302930393046801944268A5
:10396000029283680393D1F800C0C0F800C0D1F878
:1039700004C0C0F804C0D1F808C0C0F808C00C608A
:103980004A608B6005B010BC704738B515460C1AFC
:1039900001D1281938BD2246014628460FF050FCB7
:1039A000F7E708B5FFF7F1FF08BD08B5012A03D016
:1039B00022B10FF045FC01E00B78037008BD10B593
:1039C00084B00C460023019302930393FFF7BFFFDB
:1039D000214601A8FFF7BBFF01A8FEF7E7FB04B0F3
:1039E00010BD08B513780A1A00D108BD19460FF0AA
:1039F000A5FCFAE708B50846910005F06BFE08BD86
:103A000010B5044601688268521A11B19210FFF78E
:103A1000F1FF204610BD08B50846910005F05AFE9A
:103A200008BD10B5044601688268521A11B192109F
:103A3000FFF7F1FF204610BD10B504460B4B0360A5
:103A400000F59670FFF7EDFF04F59070FFF7D8FFD3
:103A500004F58870FEF7AAFB04F58270FEF7A6FB5A
:103A600004F1EC00FDF7F1FE204610BD8C8C01083E
:103A700010B582B0044601AA0249FEF7FFFB2046BA
:103A800002B010BDC48B010810B582B0044601AA73
:103A90000249FEF7F3FB204602B010BDBC8B0108C3
:103AA00010B582B0044601AA0249FEF7E7FB2046A2
:103AB00002B010BDB48B01082DE9F04782B0044676
:103AC0000D4616469846DDF828904068471ABF1AFA
:103AD0004844801A0190234653F8082B934217D08C
:103AE000A26801A92046FEF78FFB824695B9B8F17E
:103AF000000F02D0B9F1000F11D1BFB92046FDF778
:103B0000A4FEC4F800A0019BA36002B0BDE8F0874A
:103B10000F22E6E72A462168FEF738FBE7E74A4628
:103B200041460AEB0500FEF731FBE6E705EB09002D
:103B3000216835443A4629445044FEF727FBDDE727
:103B40002DE9F04782B0044616460A9F4068121AD3
:103B500002F10042013A97422DD8984607EB00093E
:103B6000A9EB0609224652F8083B9A4226D0A268E1
:103B7000914566D803EB010A411A8D1B98451FD366
:103B8000034498451CD8BFBB0DB1BE423CD1BE42D8
:103B90001AD208EB07020AEB06039A423CD94345C6
:103BA00040D8A8EB0A01BE1B31443A465144504666
:103BB000FEF7ECFA08E0264806F096FF0F22D7E75A
:103BC0000DB1BE420AD18FB9C4F804902368002217
:103BD00003F80920204602B0BDE8F0872A460AEB28
:103BE00006010AEB0700FFF7E0FEECE73A46414624
:103BF0005046FEF7CBFAE7E7BE42C5D33A46414608
:103C00005046FFF7D2FEBFE72A460AEB06010AEB51
:103C10000700FFF7CAFEBAE73A4641465046FFF7AB
:103C2000C4FED1E7A3EB08052A4641465046FFF7FC
:103C3000BCFE7A1B0AEB07010AEB0500FEF7A6FAA9
:103C4000C2E70097434632462046FFF735FFBBE701
:103C5000CC8B010870B582B004460D464668084614
:103C60000FF036FD00902B46324600212046FFF72C
:103C700067FF02B070BD884228D0F0B583B004461B
:103C80000D464E68034653F8082B934209D08268CC
:103C9000B24208D3A6B96660236800229A5503B0E1
:103CA000F0BD0F22F4E7019601A92046FEF7ACFA19
:103CB00007462046FDF7C9FD2760019BA360E9E7A1
:103CC000324629682068FEF761FAE4E7704738B5A4
:103CD00004460D4639B10022FEF734FA20606060D8
:103CE0002844A06038BD0020F8E738B515460C1A06
:103CF00001D1281938BD2246014628460FF0A0FA06
:103D0000F7E708B5FFF7F1FF08BD08B5FFF7F9FFC2
:103D100008BD38B504460D4649682A68002303608B
:103D200043608360891AFFF7D2FF226869682868B8
:103D3000FFF7EBFF6060204638BD70B515461E46A4
:103D400051B10022FEF7FEF90446224631462846CC
:103D5000FFF7DBFF204670BD0024F6E770B5044690
:103D6000814213D00D46496828680E1A2268A3685C
:103D7000A3EB020CB4450BD36368A3EB020C6645BE
:103D800018D8FFF70EFE236833446360204670BDE9
:103D90000B46024631462046FFF7CFFF0546216815
:103DA000A268521A11B12046FEF7FAF9256035448F
:103DB000A560E8E700EB0C01FFF7BDFD296860682E
:103DC0002368C31A19446A68521ADCD00FF038FA13
:103DD000D9E7000070B504460E461546FFF7F8FB1C
:103DE000204B23600023C4F83C31C4F84031C4F8B0
:103DF0004431C4F84831314604F1EC00FFF73BFF91
:103E0000294604F58270FFF7A9FF002384F83831B2
:103E1000C4F81C31D4F82031D4F82421934201D0C5
:103E2000C4F82431D4F82C31D4F83021934201D095
:103E3000C4F830310023C4F8DC30C4F8E030C4F8F2
:103E4000E430C4F8E830C4F83C31C4F84031C4F878
:103E50004431C4F84831204670BD2046FFF7ECFDE0
:103E600005F03AFCA48C010808B5B1F1005F03D25B
:103E7000880006F0ABF908BDB1F1804F01D306F020
:103E80000BFE06F0F9FD00002DE9F84F05468A46C5
:103E900093461E4A0121FFF7FAFCD5F800806F68AF
:103EA000AAEB0804814618B3002201462846FFF712
:103EB000DBFF0646DBF800303351002C1ADC0434FB
:103EC0003444A7EB0A07002F1ADC3C44AA68A2EB93
:103ED00008029210B8F1000F03D041462846FFF7C0
:103EE00089FD2E606C6006EB8906AE60BDE8F88F38
:103EF0000026DFE72246414630460FF0A1F9DEE713
:103F00003A46514620460FF09BF9DEE79C8A0108AD
:103F100008B543688268934205D00A681A6043680E
:103F20000433436008BD0A461946FFF7ADFFF9E7C1
:103F300070B582B0054601910C4601F59670FFF709
:103F400089FB064658B16CB1C4F81C5101A905F5AE
:103F50009070FFF7DDFF2B689B6828469847304636
:103F600002B070BD0026FAE708B5B1F1005F03D2D8
:103F7000880006F02BF908BDB1F1804F01D306F09F
:103F80008BFD06F079FD00002DE9F84F05468A46C5
:103F900093461E4A0121FFF7A4FCD5F800806F6804
:103FA000AAEB0804814618B3002201462846FFF711
:103FB000DBFF0646DBF800303351002C1ADC0434FA
:103FC0003444A7EB0A07002F1ADC3C44AA68A2EB92
:103FD00008029210B8F1000F03D041462846FFF7BF
:103FE0001AFD2E606C6006EB8906AE60BDE8F88FA6
:103FF0000026DFE72246414630460FF021F9DEE792
:104000003A46514620460FF01BF9DEE79C8A01082C
:1040100008B543688268934205D00A681A6043680D
:104020000433436008BD0A461946FFF7ADFFF9E7C0
:1040300030B583B001929AB10C46FFF779FF05467F
:1040400010B9284603B030BD01A904F59670FFF7FA
:10405000DFFF0198C0F8DC4003681B689847F0E771
:104060000025EEE738B515460C1A01D1281938BDE0
:104070002246014628460FF0E3F8F7E708B5FFF7B8
:10408000F1FF08BD08B5FFF7F9FF08BD08B5FFF758
:10409000F5FF08BD38B515460C1A01D1281B38BDEF
:1040A00022460146281B0FF0CBF8F7E7002A7DD007
:1040B0002DE9F04782B004460D461F46164681683A
:1040C0004368C91A91423ED3009000238DF8043012
:1040D0003B788DF804304768A7EB0508424515D3B7
:1040E000B2EB080628D13E46666023463246394682
:1040F0002846FFF7C7FF63684344636001AA394657
:104100002846FFF76EFC02B0BDE8F087A7EB020877
:1041100003463A4639464046FFF7B4FF63683344E6
:1041200063603A4641462846FFF7B4FF01AAA91941
:104130002846FFF756FCE6E73E4401AA31463846DA
:10414000FFF74FFCD0E71A4A3146FFF77AFB2368A6
:10415000A5EB0309824630B3002201462046FDF755
:10416000F1FF804608EB09003A468119FFF739FC58
:104170002346424629462068FFF788FF23468219D6
:1041800061682846FFF782FF05462168A268521A37
:1041900011B12046FEF704F8C4F80080656008EB12
:1041A0000A01A160AFE74FF00008DBE7704700BFEE
:1041B000F48B010808B58C4641680368A1EB030E37
:1041C000F44506D8F44509D263448B4206D04360D7
:1041D00004E01346ACEB0E02FFF768FF08BD30B5F4
:1041E00083B0044601F58875FF238DF807300DF183
:1041F000070278212846FFF7DDFF29462046FFF712
:1042000088FD204603B030BD10B584B00446FFF7EA
:10421000DFF9264B23600023C4F83C31C4F8403159
:10422000C4F84431C4F84831214904F1EC00FFF7E7
:1042300011FD214601A8FFF7D2FF4FF0000201A9AE
:1042400004F58270FFF7BBFB01A8FDF7AFFF002369
:1042500084F83831C4F81C31D4F82031D4F8242142
:10426000934201D0C4F82431D4F82C31D4F8302151
:10427000934201D0C4F830310023C4F8DC30C4F8D4
:10428000E030C4F8E430C4F8E830C4F83C31C4F895
:104290004031C4F84431C4F84831204604B010BD60
:1042A0002046FFF7C9FB05F017FA00BFA48C0108F0
:1042B000E88B010830B585B004460D46FFF788F954
:1042C000254B23600023C4F83C31C4F84031C4F8C6
:1042D0004431C4F84831294604F1EC00FFF7CBFC27
:1042E000214601A8FFF77BFF4FF0000201A904F56A
:1042F0008270FFF764FB01A8FDF758FF002384F8E4
:104300003831C4F81C31D4F82031D4F82421934238
:1043100001D0C4F82431D4F82C31D4F830219342A0
:1043200001D0C4F830310023C4F8DC30C4F8E030E8
:10433000C4F8E430C4F8E830C4F83C31C4F8403183
:10434000C4F84431C4F84831204605B030BD204699
:10435000FFF772FB05F0C0F9A48C010830B585B0F9
:1043600004460D46FFF734F9224B2360202200213A
:1043700004F59E700EF0E2FF294604F1EC00FFF711
:104380007AFC214601A8FFF72AFF4FF0000201A99D
:1043900004F58270FFF713FB01A8FDF707FF002368
:1043A00084F83831C4F81C31D4F82031D4F82421F1
:1043B000934201D0C4F82431D4F82C31D4F8302100
:1043C000934201D0C4F830310021C4F8DC10C4F8A5
:1043D000E010C4F8E410C4F8E810202204F59E7040
:1043E0000EF0ACFF204605B030BD2046FFF724FBA1
:1043F00005F072F9BC8C0108F0B583B004460D4697
:1044000016461F4600F06CFF0368089A0192009759
:104410009F6D33462A462146B84703B0F0BD0000E1
:1044200070B58CB00446D0F8D8100B681B6868468D
:10443000984741496846FEF787FC05466846FDF700
:1044400004FAB5BBD4F8D85095F83821D5F8203106
:1044500053F82230D4F888603146D3F8E000FCF7F6
:10446000EFF8C4F8E00095F83821D5F8203153F87A
:1044700022303146D3F8E800FCF7E2F8C4F8E8004F
:1044800065782846FCF78EF9C4F8FC00E66F2846EC
:10449000FCF78CF93146FCF7D3F8C4F80001D4F8E6
:1044A0008C30C4F8F030D4F89030C4F8F8300CB048
:1044B00070BDD4F8D8100B681B6806A898471F4930
:1044C00006A8FEF741FC054606A8FDF7BEF9002D3B
:1044D000EDD1D4F8D85095F83821D5F8203153F8DB
:1044E0002230216DD3F8E000FCF7AAF8C4F8E00010
:1044F00095F83821D5F8203153F82230D3F8E83038
:10450000C4F8E83095F83821D5F8203153F8220066
:10451000EC30FDF7F8F8FCF745F90546606C01460C
:10452000FCF790F801462846FCF78CF8C4F8F00038
:10453000A36CC4F8F830BAE7BC8B0108B48B01084F
:1045400038B504460D46FEF7CDFDD4F8D83083F8D3
:1045500038512046FFF764FF38BD41B108B5C0F8B7
:10456000D81091F83811FFF7EBFF012008BD0020AB
:10457000704710B50446D0F8D82092F83811D2F818
:104580002431D2F820219B1A9B10013B994206D17D
:1045900090F8363053B10021FFF7D2FF03E001312C
:1045A000C9B2FFF7CDFF2046FFF73AFF10BD10B5A7
:1045B0000446D0F8D83093F8381169B990F836200D
:1045C0008AB1D3F82411D3F82031C91A89100139DE
:1045D000C9B2FFF7B5FF03E00139C9B2FFF7B0FF79
:1045E0002046FFF71DFF10BD2DE9F0438FB00446B4
:1045F0000D46FEF777FD6269D4F8E01004F1DC00A7
:10460000FEF7C0F92269D4F8E81004F1E400FEF7DF
:10461000B9F9E269D4F8F81004F1F400FEF7B2F940
:10462000A269D4F8F01004F1EC00FEF7ABF9D4F86D
:10463000D8100B681B6802A89847CC4902A8FEF75F
:1046400083FB064602A8FDF700F99EB1D4F8D81006
:104650000B681B6808A89847C54908A8FEF774FBB3
:10466000064608A8FDF7F1F8002E00F083810FB090
:10467000BDE8F0832269D4F8001104F1FC00FEF7D4
:1046800081F90120FDF748F82078FCF78FF80646FD
:10469000D4F8D83093F83821D3F8203153F82200D9
:1046A000EC30FDF730F8FCF77DF801463046FBF7BB
:1046B000C7FF8046D4F8D83093F83821D3F820319A
:1046C00053F82270EC37D4F89410D4F8FC00FBF7C0
:1046D000B9FF06464FF07C514046FCF7BBF83A461E
:1046E0003146FEF7D2FC0220FDF716F8D4F8DC8044
:1046F0002F687968D4F8E400FBF7A4FF0646396810
:104700004046FBF79FFF3146FEF7B4FCD4F8DC903F
:10471000D5F80080D4F8E4604FF07E51D4F88400DE
:10472000FBF790FF0746D8F804103046FBF78AFFE6
:104730000646D8F800104846FBF784FF3A46314653
:10474000FDF70DF8D4F8DC90D5F80080D4F8E460DB
:104750004FF07E51D4F88400FBF774FF0746D8F879
:1047600004103046FBF76EFF0646D8F800104846A6
:10477000FBF768FF3A463146FCF7E4FFD4F8DC90DB
:10478000D5F80080D8F80410D4F8E400FBF75AFFFD
:10479000D4F8F410FBF756FF06464FF07E51D4F8DC
:1047A0008400FBF74FFF07464FF07E513046FBF782
:1047B00047FF0646D8F800104846FBF743FF3A4645
:1047C0003146FCF7CCFFD4F8DC90D5F80080D8F85F
:1047D0000410D4F8E400FBF735FFD4F8F410FBF72D
:1047E00031FFD4F884703946FBF72AFF4FF07E5131
:1047F000FBF726FF0646D8F800104846FBF722FFD5
:104800003A463146FCF79EFF2E683168D4F8DC004A
:10481000FBF718FFD4F8EC10FBF714FFD4F88480F2
:104820004146FBF70DFF07467168D4F8E400FBF73B
:1048300009FF06464FF07E513846FBF701FF42461E
:104840003146FCF78CFF2E683168D4F8DC00FBF7AA
:10485000F9FED4F8EC10FBF7F5FE8046D4F8E490AE
:104860004FF07E51D4F88400FBF7ECFE07467168E8
:104870004846FBF7E7FE06464FF07E514046FBF701
:10488000DFFE3A463146FCF75DFF2E683168D4F80A
:10489000DC00FBF7D7FED4F8EC10FBF7D3FED4F81E
:1048A00084804146FBF7CCFE07467168D4F8E400EB
:1048B000FBF7C8FED4F8F410FBF7C4FE4FF07E51AE
:1048C000FBF7BEFE06464FF07E513846FBF7B8FEBA
:1048D00042463146FCF743FF2E683168D4F8DC00CD
:1048E000FBF7B0FED4F8EC10FBF7ACFE074671689E
:1048F000D4F8E400FBF7A6FED4F8F410FBF7A2FE10
:10490000D4F884804146FBF79BFE4FF07E51FBF7C5
:1049100097FE06464FF07E513846FBF791FE424621
:104920003146FCF70FFF2E683168D4F8DC00FBF746
:1049300089FED4F8EC10FBF785FE05467168D4F8C3
:10494000E400FBF77FFED4F8F410FBF77BFE4FF09A
:104950007E51FBF775FE04464FF07E512846FBF76B
:104960006FFE2146FEF786FB81E600BFBC8B010887
:10497000B48B01080220FCF7CFFED4F8DC902F683E
:10498000D4F8E4504FF07E51D4F8F400FBF758FE11
:104990000646D4F8EC8079682846FBF753FE0546B6
:1049A00039684846FBF74EFEE36C009333464246B7
:1049B0002946FFF721FD0120FCF7AEFE57E600BFB8
:1049C00010B586B00446D1F8E0300393D1F8E83052
:1049D000049303AB01930223029305AB01AA06CA19
:1049E000FEF736FA204606B010BD7047704700202B
:1049F0007047002070477047704790F8E0301BB157
:104A0000012380F8E2307047002380F8E2307047DD
:104A1000704708B5E42104F05DFE08BDF0B583B031
:104A200004460D4616461F4600F05AFC0368089AD5
:104A3000019200971F6E33462A462146B84703B0BD
:104A4000F0BD2DE9F04F83B004460E4615461F46D3
:104A50000430FEF747FB0120FCF75EFED7F800901C
:104A6000D4F8CCB0D4F8C8A0D9F804102846FBF785
:104A7000E9FD8046D9F800103046FBF7E3FDD4F895
:104A8000D83000935B4652464146FFF7C7FF94F883
:104A9000E23013B903B0BDE8F08FD7F80080D8F842
:104AA00000103046FBF7CEFD0646D4F8C8A04FF004
:104AB0007A515046FBF7CEFE0746D8F80410284638
:104AC000FBF7C0FD8146D4F8CC504FF07A51284610
:104AD000FBF7C0FE04464FF07C512846FBF7BAFEB8
:104AE00080464FF07C515046FBF7B4FE0546214608
:104AF0004846FBF7A7FD044639463046FBF7A2FDC2
:104B000043462A462146FCF737FEC3E738B504463C
:104B10000D4680230371402343710D4B83600C309D
:104B2000FDF784FE0B4B23600B4B23602B7884F83E
:104B3000E0304BB1012384F8E230002384F8E13007
:104B4000C4F8DC30204638BD002384F8E230F4E7B6
:104B500000007F431C8D01083C8D01080048704710
:104B6000DC01002008B500F0BBFB0368DB6A984756
:104B700008BD08B500F0B4FB0368DB6E984708BDBC
:104B800008B500F0ADFB0368D3F89030984708BD36
:104B900008B500F0A5FB0368D3F89430984708BD2A
:104BA0002DE9F04F91B0044606910792A44B1B6883
:104BB000BFF35B8F13F0010F53D0A24B1B784BB99F
:104BC0000121A04B1970D4E904239F48C0E90023B8
:104BD0009E4B19700698FCF796FDFBF7E7FD06461D
:104BE000FFF7BCFF0546D0F894000146FBF72AFD0D
:104BF00001463046FBF726FD07460290FFF7B2FF5D
:104C0000FBF7D4FD0646D5F894000146FBF71AFDE4
:104C100001463046FBF716FD814601460020FBF7B2
:104C20000FFD4FF08241FBF70BFD0490099000F05F
:104C300057FB4079FBF7BAFD4946FBF701FD844974
:104C4000FBF7BCFE059000F04BFB0079FBF7AEFDD7
:104C50003946FBF7F5FC4FF07C51FBF7FBFD824634
:104C6000ABE0774805F070FA0028A6D0D4E9042319
:104C70007549C1E90023724805F086FA9DE70AA844
:104C8000FCF701FEA668E1680DA8FEF7F8F80DA98B
:104C90003046FFF7A9FC0DA8FCF7F5FDA2682168D6
:104CA000E068FEF76BF80020FCF736FDD5F898B009
:104CB0004FF082414846FBF7C5FC03904FF082411C
:104CC0000298FBF7BFFC80464FF081410998FBF743
:104CD000B7FC07464FF081415046FBF7B1FC064652
:104CE0004FF080415846FBF7ADFC0090039B4246D5
:104CF00039463046FFF780FB0120FCF70DFD4FF0F1
:104D000080414846FBF79EFC80464FF08041029868
:104D1000FBF798FC07464FF07E510998FBF790FC93
:104D200006464FF07E515046FBF78AFCD5F8983086
:104D3000009343463A463146FFF770FED5F894702B
:104D400051463846FBF77EFC064609993846FBF784
:104D500079FC0746FFF706FFFBF728FD3946FBF70E
:104D600071FC0146069A3046FCF7DFFCFCF7B4FC08
:104D7000D5F89C20059909A8FDF704FE226963690E
:104D8000314801684068521A63EB000307998A4270
:104D900073F1000301D3049B0593FFF7F9FEFFF7BE
:104DA000EFFE00282ED109990498FBF7E7FE20B109
:104DB0000023264A1370234A1370244B1B78002BC0
:104DC0003AD023696269013342F1000223616261D2
:104DD000FCF789FC26683368DF68E1680AA8FEF7FB
:104DE0004EF80AA93046B84749E70136F6B2012E17
:104DF0000AD800F075FA0C30835D012BF5D1049BC5
:104E00000593F2E70026F2E700F06AFA00F10C06DB
:104E100000F066FA0E3002E0002306F8013BB042D3
:104E2000FAD1C0E70AA8FCF72EFD04F055FC0DA846
:104E3000FCF729FD04F050FC11B0BDE8F08F00BF75
:104E40007C0A0020880A0020800A0020790A0020BD
:104E500000004040F0B585B005460E460160EC20EC
:104E600005F0B4F9044600210A46FDF7B7FDEC60F1
:104E700033685F68214601A8FEF701F801A93046B2
:104E8000B84701A8FCF7FFFC4FF4827005F09EF9CB
:104E900004464FF4827200210EF050FA80232370F2
:104EA000402363700D4B636004F10800FDF7BEFC06
:104EB000AC6031462046FFF750FB0321A868FFF79E
:104EC0003FFB05B0F0BDEC21204604F003FC04F0EC
:104ED00003FC01A8FCF7D7FC04F0FEFB00007F43B5
:104EE00070B592B004460068FEF764FBB8B1206864
:104EF000FEF760FBFEF7C8F908B32068FEF764FB15
:104F00002068FEF757FB0546206003685E68E1688D
:104F10000FA8FDF7B4FF0FA92846B0471FE007AA66
:104F20001B4901A8FDF7AAF94FF4167201A9204602
:104F3000FFF736FE01A8FCF788FC002017E00EAA58
:104F4000144908A8FDF79AF94FF4167208A92046EB
:104F5000FFF726FE08A8FCF778FC002007E00FA862
:104F6000FCF791FC2168A068FFF7F7FA012012B066
:104F700070BD01A8FCF769FC04F0AEFB08A8FCF7C3
:104F800064FC04F0A9FB0FA8FCF77DFC04F0A4FB73
:104F9000548D0108688D010870B592B00446006810
:104FA000FEF70FFBB8B12068FEF70BFBFEF76CF9BC
:104FB00008B32068FEF708FB2068FEF702FB0546F1
:104FC000206003685E68E1680FA8FDF758FF0FA92D
:104FD0002846B0471FE007AA1B4901A8FDF74EF974
:104FE0004FF4167201A92046FFF7DAFD01A8FCF77D
:104FF0002CFC002017E00EAA144908A8FDF73EF982
:105000004FF4167208A92046FFF7CAFD08A8FCF75E
:105010001CFC002007E00FA8FCF735FC2168A06805
:10502000FFF79BFA012012B070BD01A8FCF70DFC40
:1050300004F052FB08A8FCF708FC04F04DFB0FA895
:10504000FCF721FC04F048FB548D0108688D010831
:1050500070B58AB00446FCF746FB25682B68DE680D
:10506000E16801A8FDF70BFF01A92846B04701A898
:10507000FCF709FC65685DB12B685E69E16804A80E
:10508000FDF7FDFE04A92846B04704A8FCF7FBFB8A
:10509000A568E16807A8FDF7F2FE07A92846FFF713
:1050A000A3FA07A8FCF7EFFBA2682168E068FDF708
:1050B00065FE22696369032A73F1000311D200F0CF
:1050C0000FF9837B012B13D0FCF706FBFFF751FD93
:1050D0002E4BA3FB003080092061002363610AB0DE
:1050E00070BDFFF755FD00220023C4E90423E6E765
:1050F00000F0F6F8002585730BE0A068FFF757FA7B
:1051000005E000F0EDF80C30435D022B11D00135C5
:10511000EDB2012D18D800F0E3F80C30435D012BFF
:10512000EFD1002DE9D0012DF1D1A068FFF721FAD0
:10513000EDE72DB1012DEAD12046FFF7D1FEE6E7DC
:105140002046FFF729FFE2E700F0CAF800F10C055E
:1051500000F0C6F80E3002E0002305F8013BA8423B
:10516000FAD100F0BDF800238373ADE701A8FCF786
:105170008AFB04F0B1FA04A8FCF785FB04F0ACFA52
:1051800007A8FCF780FB04F0A7FA00BFD34D62101C
:1051900000B583B00A4B5A6942F001025A615B695B
:1051A00003F001030193019B002211460F2002F03E
:1051B000DDFF0F2002F0EAFF03B05DF804FB00BF43
:1051C0000010024070B588B0002404940594069441
:1051D0000794234B9A6942F020029A619A6902F07F
:1051E00020020192019A9A6942F004029A619A6936
:1051F00002F004020292029A9A6942F008029A614D
:105200009B6903F008030393039B164D2246042178
:10521000284603F068FA01221821284603F063FAB1
:10522000042304930126059602230693079304A9F9
:10523000284603F043F918230493059606960323A2
:10524000079304A9284603F039F9C0230493059471
:10525000069404A9284603F031F908B070BD00BFD8
:1052600000100240000801407047002070470020F5
:1052700070470020704770477047704700207047A4
:1052800000207047704770477047704770477047FD
:105290007047704770477047704770477047704756
:1052A000002070470020704700207047704770470B
:1052B000704770477047002070477047014B03608C
:1052C000704700BF8C8D010810B50446034B036086
:1052D000102104F0FFF9204610BD00BF8C8D01089D
:1052E000014B1868704700BFAC0A002010B5044697
:1052F000FFF7F6FF0368D3F88C302146984710BDBE
:1053000010B50024012C06DCE0B2FFF7EFFF0346E6
:1053100010B90134F6E70023184610BD10B53A4B1A
:105320001B78022B0CD804465AB21ABB3BB9FFF7C4
:1053300027FC78B90023354A1370354A137010BD25
:10534000032BFCD1FFF71CFC0028F8D12E4B0022C8
:105350001A70F4E70020FFF7C9FF10B12A4B0122B1
:105360001A700120FFF7C2FF0028E3D0264B02226B
:105370001A70DFE7FFF704FC38B3254B1B7813B92D
:10538000234B01221A70214A13780133DBB21370C8
:10539000642BD4D90123A3730020FFF7A7FF18B112
:1053A00002232373002363730120FFF79FFF18B1CB
:1053B00002236373002323730023144A1370144AD7
:1053C0001370114B03221A70B9E7114B1B78ABB164
:1053D0000D4B1B78012B07D0022B0AD00123A3739E
:1053E000094B03221A70AAE701222273002262737A
:1053F000F2E70123637300232373EFE70023024ADC
:105400001370237363739AE7890A00208B0A0020C4
:105410008A0A002010B50446FFF7B2FB70B10023E2
:10542000012B09D8E218127B012A04D0022A09D0E4
:105430000133DBB2F4E713B90023A38110BD012BC4
:10544000FAD0F5E7002BF7D0012BF5D0F0E70000FC
:1054500040B110B504460368DB689847024B1C60F6
:10546000012010BD00207047AC0A002070B5064630
:105470000C46083030600D4655F8083B9D420AD076
:1054800033608B68B360636873602560002363607A
:105490002372304670BD4A680132F4D02946FBF7CA
:1054A00099FDF0E730B585B0844601914468036802
:1054B000E31ADB10114803FB00F0114D2D1A8D4249
:1054C00013D30390814213D803AA12681044DCF866
:1054D0000030E41AE410094B03FB04F4A04209D3A2
:1054E000074B984208D805B030BD104605F0FCFACD
:1054F00001AAEAE70248F6E70148F4E7ABAAAAAA3C
:1055000055555505F8B545688D420AD007460E46F3
:105510000C4603E02046FCF798F91834A542F9D16F
:105520007E60F8BD08B5084602EB4202D10004F0E7
:10553000D1F808BD10B5044601688268521AD2102D
:10554000034B03FB02F209B1FFF7ECFF204610BD4D
:10555000ABAAAAAA70B506460468456803E02046CF
:10556000FCF773F91834A542F9D13046FFF7E2FF92
:10557000304670BD70B504460E46154608E021461B
:105580002846FFF773FF2046FCF75FF918341835FB
:10559000B442F4D1284670BD10B582B0044601AAC9
:1055A0000249FCF76BFE204602B010BDC48B010817
:1055B00070B582B004460E46551A01950F2D0DD8D0
:1055C00000942A4631462068FCF7E0FD0022009254
:1055D000019B63602168CA5402B070BD002201A91A
:1055E000FCF712FE2060019BA360E9E710B50446BA
:1055F0000B4600F10802026009685A684FF0000388
:105600000A44FFF7D5FF204610BD000008B5084B3F
:10561000994205D801EB4101C80004F0D7FD08BD4F
:10562000044B994201D905F037FA05F025FA00BF7D
:1056300055555505AAAAAA0A2DE9F84F04468846E9
:105640009246274A0121FFF72DFF2768D4F804B0BE
:10565000A8EB0709054658B1002201462046FFF78E
:10566000D5FF0646B14451464846FFF7BFFF01E06B
:105670000026F7E72346324641463846FFF77AFFD1
:10568000234600F1180259464046FFF773FF804653
:10569000A368DB1BDB10134A03FB02F21FB1394680
:1056A0002046FFF73FFF2660C4F8048005EB450560
:1056B00006EBC505A560BDE8F88F04F0D3F846B940
:1056C0004846FCF7C2F804F007FD04F00BF904F0BB
:1056D00003F82A4631462046FFF724FFF3E700BFD0
:1056E0009C8A0108ABAAAAAA10B504464068A36820
:1056F000984205D0FFF77AFF63681833636010BDE6
:105700000A4601462046FFF797FFF8E738B50C46F2
:10571000434B1B68BFF35B8F13F0010F28D0414B45
:105720001B68BFF35B8F13F0010F03D13D4804F0FA
:105730000BFD58BB3C4B1B68BFF35B8F13F0010F95
:1057400031D03A4A536811685B1ADB10384A02FBC1
:1057500003F3384A12789A4232D921463348FFF788
:10576000C3FFFBF7C0FF0220FBF7D6FF00243DE09C
:105770002B4804F0E9FC0028D1D02F4A2F492B48B0
:1057800003F024FF264804F0FFFCC8E7FFF7A8FD5C
:105790004579FFF7E7F9B5FBF0F5264B1D70214879
:1057A00004F0F2FCC6E7204804F0CEFC0028C8D084
:1057B000FFF7D8F9224B18701B4804F0E5FCC0E74E
:1057C0001A48FFF79FFEC8E71D4B1B7803FB0440F8
:1057D00004EB440105EBC1051844FAF7E7FF014665
:1057E0002A460020FBF7A1FF0134E4B20F4A5368B8
:1057F00015685B1BDB100E4901FB03F39C42E3D3EE
:10580000FBF76AFF0120FBF787FF38BD054804F06E
:10581000B7FC03F061FF044804F0B2FC03F05CFF46
:105820009C0A0020940A00208C0A0020A00A002074
:10583000ABAAAAAA980A002000000020555500082B
:10584000900A002070477047704770477047704754
:1058500008B539B18021074802F03EFFB0FA80F068
:10586000400908BD4021034802F036FFB0FA80F03D
:105870004009F6E70008014008B502F029F908BD23
:1058800000B591B02822002106A80DF057FD002395
:1058900001930293039304930593012206924FF41C
:1058A000803307930A9202220D920E934FF4E01375
:1058B0000F9306A802F034FF80B90F230193022151
:1058C0000291002303934FF480620492059301A890
:1058D00003F058F928B911B05DF804FB01F06FFF2F
:1058E000EBE701F06CFFF6E708B5FFF76BFC08BDCE
:1058F000704708B501F0B8FF08BD08B5FFF748FCD0
:1059000008BD08B5FBF772FE08BD08B5084602F0F1
:1059100003F908BD08B502F0F9F808BD094B18688D
:105920004FF0E022536992699B1A074A12680749AF
:10593000A1FB0212920CB3FBF2F34FF47A7202FB5A
:1059400000307047540F0020AC02002083DE1B4360
:1059500010B50B4C204602F09FFA3221204602F08F
:10596000EFF8204602F052FA10F4007F02D1054B06
:10597000186810BD204602F0A5F9024B1860F6E742
:105980008C090020B00A00202DE9F04F83B00746B3
:105990000E4691461D46DDF8308090F892A0CB1857
:1059A000541CA4B200949BB200F0FFFF78B3BAFA83
:1059B0008AFB4FEA5B1B012414E087F892A00023C6
:1059C000009301234A463146384600F040FF013635
:1059D000B6B2640014F0FF0402D108F101080124FA
:1059E000013DADB28DB198F800302342E5D197F872
:1059F0009130002BEBD187F892B0009301234A46F7
:105A00003146384600F023FFE1E787F892A003B063
:105A1000BDE8F08F2DE9F04782B0824688461446F3
:105A20001F46BDF828500B9E03F10709C9F3CC09A6
:105A300003EB010C53199BB200931FFA8CF300F097
:105A4000B4FF60B90DE000963B4622464146504601
:105A5000FFF79AFF4E440134A4B2013DADB2002DD0
:105A6000F1D102B0BDE8F0872DE9F04182B0804667
:105A70000F4614461E46BDF8205001EB030C531987
:105A80009BB200931FFA8CF300F08FFF60B90DE01A
:105A900000220092334622463946404600F0D7FEA7
:105AA0000134A4B2013DADB2002DF1D102B0BDE888
:105AB000F0812DE9F04782B080460D4614461E461F
:105AC000BDF82890CF18BFB202EB09039BB2009338
:105AD0003B4600F06AFF10B902B0BDE8F087002332
