:020000040800F2
:10000000005000207D950008957900089779000838
:10001000997900089B7900089D790008000000008C
:100020000000000000000000000000009F790008B0
:10003000A179000800000000A3790008A579000854
:10004000C5950008C5950008C5950008C595000828
:10005000C5950008C5950008C5950008C595000818
:10006000C5950008C5950008C5950008C595000808
:10007000C5950008C5950008C5950008AD7900082C
:10008000C5950008C5950008C5950008C5950008E8
:10009000C5950008C5950008C5950008C5950008D8
:1000A000C5950008C5950008C5950008C5950008C8
:1000B000C5950008C5950008C5950008C5950008B8
:1000C000C5950008C5950008C5950008C5950008A8
:1000D000BD790008C5950008C5950008C5950008BC
:1000E000C5950008C5950008C595000800000000EA
:1000F0000000000000000000000000000000000000
:0C01000000000000000000005FF808F1A3
:1001100081F0004102E000BF83F0004330B54FEAB8
:1001200041044FEA430594EA050F08BF90EA020F25
:100130001FBF54EA000C55EA020C7FEA645C7FEAB8
:10014000655C00F0E2804FEA5454D4EB5555B8BFDB
:100150006D420CDD2C4480EA020281EA030382EA4C
:10016000000083EA010180EA020281EA0303362DDE
:1001700088BF30BD11F0004F4FEA01314FF4801CB1
:100180004CEA113102D0404261EB410113F0004FC3
:100190004FEA03334CEA133302D0524263EB43037A
:1001A00094EA050F00F0A780A4F10104D5F1200E18
:1001B0000DDB02FA0EFC22FA05F2801841F1000173
:1001C00003FA0EF2801843FA05F359410EE0A5F147
:1001D00020050EF1200E012A03FA0EFC28BF4CF078
:1001E000020C43FA05F3C01851EBE37101F000452E
:1001F00007D54FF0000EDCF1000C7EEB00006EEB3B
:100200000101B1F5801F1BD3B1F5001F0CD34908C4
:100210005FEA30004FEA3C0C04F101044FEA44521B
:1002200012F5800F80F09A80BCF1004F08BF5FEAA2
:10023000500C50F1000041EB045141EA050130BD82
:100240005FEA4C0C404141EB0101013C28BFB1F594
:10025000801FE9D291F0000F04BF01460020B1FADF
:1002600081F308BF2033A3F10B03B3F120020CDAB2
:100270000C3208DD02F1140CC2F10C0201FA0CF090
:1002800021FA02F10CE002F11402D8BFC2F1200CF5
:1002900001FA02F120FA0CFCDCBF41EA0C019040AB
:1002A000E41AA2BF01EB0451294330BD6FEA0404F4
:1002B0001F3C1CDA0C340EDC04F11404C4F12002DF
:1002C00020FA04F001FA02F340EA030021FA04F3F1
:1002D00045EA030130BDC4F10C04C4F1200220FA48
:1002E00002F001FA04F340EA0300294630BD21FA86
:1002F00004F0294630BD94F0000F83F4801306BF4C
:1003000081F480110134013D4EE77FEA645C18BF3F
:100310007FEA655C29D094EA050F08BF90EA020FD6
:1003200005D054EA000C04BF1946104630BD91EACE
:10033000030F1EBF0021002030BD5FEA545C05D1D1
:100340004000494128BF41F0004130BD14F5800410
:100350003CBF01F5801130BD01F0004545F0FE4184
:1003600041F470014FF0000030BD7FEA645C1ABFB9
:10037000194610467FEA655C1CBF0B46024650EAF0
:10038000013406BF52EA033591EA030F41F400211C
:1003900030BD00BF90F0000F04BF0021704730B5A2
:1003A0004FF4806404F132044FF000054FF0000177
:1003B00050E700BF90F0000F04BF0021704730B538
:1003C0004FF4806404F1320410F0004548BF40420D
:1003D0004FF000013EE700BF42004FEAE2014FEA62
:1003E00031014FEA02701FBF12F07F4393F07F4F3D
:1003F00081F06051704732F07F4208BF704793F040
:100400007F4F04BF41F40021704730B54FF4607452
:1004100001F0004521F000411CE700BF50EA010255
:1004200008BF704730B54FF000050AE050EA0102FE
:1004300008BF704730B511F0004502D5404261EB6E
:1004400041014FF4806404F132045FEA915C3FF4AF
:10045000D8AE4FF003025FEADC0C18BF03325FEA4C
:10046000DC0C18BF033202EBDC02C2F1200300FAFD
:1004700003FC20FA02F001FA03FE40EA0E0021FA22
:1004800002F11444BDE600BF4FF0FF3C06E000BFA0
:100490004FF0010C02E000BF4FF0010C4DF804CD0D
:1004A0004FEA410C7FEA6C5C4FEA430C18BF7FEACD
:1004B0006C5C1BD001B050EA410C0CBF52EA430CFB
:1004C00091EA030F02BF90EA020F0020704710F17B
:1004D000000F91EA030F58BF994208BF90422CBF0A
:1004E000D8176FEAE37040F0010070474FEA410C03
:1004F0007FEA6C5C02D150EA013C07D14FEA430C21
:100500007FEA6C5CD6D152EA033CD3D05DF8040B91
:10051000704700BF8446104662468C4619466346C3
:1005200000E000BF01B5FFF7B7FF002848BF10F19A
:10053000000F01BD4DF808EDFFF7F4FF0CBF0120DF
:1005400000205DF808FB00BF4DF808EDFFF7EAFF5B
:1005500034BF012000205DF808FB00BF4DF808ED16
:10056000FFF7E0FF94BF012000205DF808FB00BF0B
:100570004DF808EDFFF7CEFF94BF012000205DF895
:1005800008FB00BF4DF808EDFFF7C4FF34BF0120A2
:1005900000205DF808FB00BF4FEA4102B2F1E043E2
:1005A00024BFB3F5001CDCF1FE5C0DD901F0004C5A
:1005B0004FEAC0024CEA5070B2F1004F40EB8300AA
:1005C00008BF20F00100704711F0804F21D113F1D6
:1005D0003872BCBF01F00040704741F480114FEA0F
:1005E0005252C2F11802C2F1200C10FA0CF320FA98
:1005F00002F018BF40F001004FEAC1234FEAD323B5
:1006000003FA0CFC40EA0C0023FA02F34FEA43031E
:10061000CCE77FEA625307D150EA01331EBF4FF0A7
:10062000FE4040F44000704701F0004040F0FE40C2
:1006300040F40000704700BF80F0004002E000BFBF
:1006400081F0004142001FBF5FEA410392EA030FBD
:100650007FEA226C7FEA236C6AD04FEA1262D2EB07
:100660001363C1BFD218414048404140B8BF5B420C
:10067000192B88BF704710F0004F40F4000020F0A5
:100680007F4018BF404211F0004F41F4000121F0BB
:100690007F4118BF494292EA030F3FD0A2F1010205
:1006A00041FA03FC10EB0C00C3F1200301FA03F143
:1006B00000F0004302D5494260EB4000B0F5000F66
:1006C00013D3B0F1807F06D340084FEA310102F125
:1006D0000102FE2A51D2B1F1004F40EBC25008BFD7
:1006E00020F0010040EA03007047490040EB0000A1
:1006F000013A28BFB0F5000FEDD2B0FA80FCACF1A2
:10070000080CB2EB0C0200FA0CF0AABF00EBC250CE
:1007100052421843BCBFD0401843704792F0000FBC
:1007200081F4000106BF80F400000132013BB5E70F
:100730004FEA41037FEA226C18BF7FEA236C21D085
:1007400092EA030F04D092F0000F08BF08467047EA
:1007500090EA010F1CBF0020704712F07F4F04D1B8
:10076000400028BF40F00040704712F100723CBFCB
:1007700000F50000704700F0004343F0FE4040F4F5
:10078000000070477FEA226216BF08467FEA2363B3
:100790000146420206BF5FEA412390EA010F40F49E
:1007A000800070474FF0000304E000BF10F00043EA
:1007B00048BF40425FEA000C08BF704743F09643D1
:1007C00001464FF000001CE050EA010208BF7047EC
:1007D0004FF000030AE000BF50EA010208BF704773
:1007E00011F0004302D5404261EB41015FEA010C88
:1007F00002BF84460146002043F0B64308BFA3F180
:100800008053A3F50003BCFA8CF2083AA3EBC25361
:1008100010DB01FA02FC634400FA02FCC2F1200280
:10082000BCF1004F20FA02F243EB020008BF20F0B7
:100830000100704702F1200201FA02FCC2F120021D
:1008400050EA4C0021FA02F243EB020008BF20EA12
:10085000DC7070474FF0FF0C1CEAD0521EBF1CEA40
:10086000D15392EA0C0F93EA0C0F6FD01A4480EA2E
:10087000010C400218BF5FEA41211ED04FF0006317
:1008800043EA501043EA5111A0FB01310CF0004043
:10089000B1F5000F3EBF490041EAD3715B0040EA69
:1008A000010062F17F02FD2A1DD8B3F1004F40EB39
:1008B000C25008BF20F00100704790F0000F0CF00C
:1008C000004C08BF49024CEA502040EA51207F3AD0
:1008D000C2BFD2F1FF0340EAC250704740F40000AB
:1008E0004FF00003013A5DDC12F1190FDCBF00F09C
:1008F00000407047C2F10002410021FA02F1C2F14A
:10090000200200FA02FC5FEA310040F1000053EAE5
:100910004C0308BF20EADC70704792F0000F00F033
:10092000004C02BF400010F4000F013AF9D040EA39
:100930000C0093F0000F01F0004C02BF490011F4CD
:10094000000F013BF9D041EA0C018FE70CEAD153CB
:1009500092EA0C0F18BF93EA0C0F0AD030F0004C4B
:1009600018BF31F0004CD8D180EA010000F00040FF
:10097000704790F0000F17BF90F0004F084691F0BD
:10098000000F91F0004F14D092EA0C0F01D14202F7
:100990000FD193EA0C0F03D14B0218BF084608D1C0
:1009A00080EA010000F0004040F0FE4040F400000A
:1009B000704740F0FE4040F4400070474FF0FF0C9D
:1009C0001CEAD0521EBF1CEAD15392EA0C0F93EAE4
:1009D0000C0F69D0A2EB030280EA010C49024FEA36
:1009E000402037D04FF0805343EA111143EA1013EF
:1009F0000CF000408B4238BF5B0042F17D024FF4A7
:100A0000000C8B4224BF5B1A40EA0C00B3EB510F81
:100A100024BFA3EB510340EA5C00B3EB910F24BF6A
:100A2000A3EB910340EA9C00B3EBD10F24BFA3EBEF
:100A3000D10340EADC001B0118BF5FEA1C1CE0D1B7
:100A4000FD2A3FF650AF8B4240EBC25008BF20F06A
:100A5000010070470CF0004C4CEA50207F32C2BFBE
:100A6000D2F1FF0340EAC250704740F400004FF05B
:100A70000003013A37E792F0000F00F0004C02BF8C
:100A8000400010F4000F013AF9D040EA0C0093F056
:100A9000000F01F0004C02BF490011F4000F013BB0
:100AA000F9D041EA0C0195E70CEAD15392EA0C0F18
:100AB00008D142027FF47DAF93EA0C0F7FF470AF50
:100AC000084676E793EA0C0F04D14B023FF44CAF93
:100AD00008466EE730F0004C18BF31F0004CCAD128
:100AE00030F000427FF45CAF31F000437FF43CAF64
:100AF0005FE700BF4FF0FF3C06E000BF4FF0010C86
:100B000002E000BF4FF0010C4DF804CD4FEA400267
:100B10004FEA41037FEA226C18BF7FEA236C11D0B1
:100B200001B052EA530C18BF90EA010F58BFB2EB64
:100B3000030088BFC81738BF6FEAE17018BF40F0E4
:100B4000010070477FEA226C02D15FEA402C05D198
:100B50007FEA236CE4D15FEA412CE1D05DF8040B1D
:100B6000704700BF844608466146FFE70FB5FFF7B0
:100B7000C9FF002848BF10F1000F0FBD4DF808ED68
:100B8000FFF7F4FF0CBF012000205DF808FB00BF59
:100B90004DF808EDFFF7EAFF34BF012000205DF8B3
:100BA00008FB00BF4DF808EDFFF7E0FF94BF012000
:100BB00000205DF808FB00BF4DF808EDFFF7D2FFFD
:100BC00094BF012000205DF808FB00BF4DF808ED40
:100BD000FFF7C8FF34BF012000205DF808FB00BF0D
:100BE0004FEA4002B2F1FE4F0FD34FF09E03B3EB3A
:100BF00012620DD94FEA002343F0004310F0004F7A
:100C000023FA02F018BF404270474FF000007047CF
:100C100012F1610F01D1420205D110F0004008BF6E
:100C20006FF0004070474FF00000704742000ED256
:100C3000B2F1FE4F0BD34FF09E03B3EB126209D417
:100C40004FEA002343F0004323FA02F070474FF0CD
:100C50000000704712F1610F01D1420202D14FF042
:100C6000FF3070474FF00000704700BF00F13401C3
:100C700091E838009C46A6464CF8045D90E8FF0FCA
:100C8000E54600BD90EC210B704700BF80EC210BC6
:100C9000704700BF90EC200B704700BF80EC200B2A
:100CA000704700BFD0EC200B704700BFC0EC200B9A
:100CB000704700BFF0EC0201F0EC0211F0EC0221F1
:100CC000F0EC0231F0EC0241F0EC0251F0EC026188
:100CD000F0EC0271F0EC0281F0EC0291F0EC02A178
:100CE000F0EC02B1F0EC02C1F0EC02D1F0EC02E168
:100CF000F0EC02F1704700BFE0EC0201E0EC021101
:100D0000E0EC0221E0EC0231E0EC0241E0EC0251C7
:100D1000E0EC0261E0EC0271E0EC0281E0EC0291B7
:100D2000E0EC02A1E0EC02B1E0EC02C1E0EC02D1A7
:100D3000E0EC02E1E0EC02F1704700BFB0FC0181A1
:100D4000B0FC0191B0FC01A1B0FC01B1704700BF43
:100D5000A0FC0181A0FC0191A0FC01A1A0FC01B1BB
:100D6000704700BFEC4600B52DE900502DE9FF1F8C
:100D70004FF000032DE90C0001A910F075FBDDF820
:100D800040E012B0704700BFEC4600B52DE90050BE
:100D90002DE9FF1F4FF000032DE90C0001A910F011
:100DA000A3FBDDF840E012B0704700BFEC4600B591
:100DB0002DE900502DE9FF1F4FF000032DE90C0035
:100DC00001A910F0B1FBDDF840E012B0704700BFA0
:100DD000EC4600B52DE900502DE9FF1F4FF0000350
:100DE0002DE90C0001AB10F073FBDDF840E012B010
:100DF000704700BFEC4600B52DE900502DE9FF1FFC
:100E00004FF000032DE90C0001AA10F0EBFBDDF818
:100E100040E012B0704700BF80EA010C1CF0030FE5
:100E200037D110F0030C20F0030021F0030150F83B
:100E3000042B08BF51F8043B0ED08CF0030C6FF06C
:100E40007F434FEACC0C23FA0CFC51F8043B42EAF6
:100E50000C0243EA0C0300BFA2F1013C9A4201BF1D
:100E60002CEA020C1CF0803F50F8042B51F8043B94
:100E7000F2D04FEA02604FEA1222012828BFB0EBFD
:100E8000036F08BF1B0AF4D003F0FF03000EC01A63
:100E9000704710F0030F0AD010F8012B11F8013B36
:100EA000012A28BF9A42F4D0A2EB030070474DF804
:100EB000045D50F8042B01F0030521F0030151F803
:100EC000043B022D26D04DD822F07F45B5EB132FE1
:100ED000A2F1013C2CEA020C0DD11CF0803C08BFB1
:100EE00051F8043B0AD185EA0205B5EB036F0CD13A
:100EF00050F8042BE8E74FEA13235BE03CF07F4C0B
:100F000054D10B784FEA126554E04FEA126503F0B2
:100F1000FF034FE04FEA0245A2F1013C4FEA1545BD
:100F20002CEA020CB5EB134F18D11CF0803C08BF23
:100F300051F8043B07D185EA0205B5EB034F09D10F
:100F400050F8042BE6E75FEA0C4C2FD10B884FEAF0
:100F500012452FE04FEA03434FEA12454FEA13438D
:100F600028E000BF02F0FF05B5EB136FA2F1013CD2
:100F70002CEA020C0DD11CF0803C08BF51F8043B58
:100F80000AD185EA0205B5EB032F0AD150F8042BEC
:100F9000E8E74FEA13630DE012F0FF0F06D051F8B7
:100FA000043B4FEA122523F07F4303E04FF000009B
:100FB00020BC704705F0FF0203F0FF00012828BFA6
:100FC000904204BF2D0A1B0AF4D0A2EB000020BC03
:100FD000704700BF844641EA000313F0030349D180
:100FE000403A23D30B6803604B6843608B6883608F
:100FF000CB68C3600B6903614B6943618B69836193
:10100000CB69C3610B6A03624B6A43628B6A83627A
:10101000CB6AC3620B6B03634B6B43638B6B836362
:10102000CB6BC36340304031403ADBD230320BD31C
:101030000B6803604B6843608B688360CB68C36058
:1010400010301031103AF3D20C3205D351F8043B72
:1010500040F8043B043AF9D2043208D0D2071CBF4E
:1010600011F8013B00F8013B01D30B880380604677
:10107000704700BF082A13D38B07B1D010F00303C9
:10108000AED0C3F10403D21ADB071CBF11F8013B39
:1010900000F8013BA4D331F8023B20F8023B9FE764
:1010A000043AD9D3013A11F8013B00F8013BF9D2D7
:1010B0000B7803704B7843708B7883706046704771
:1010C00070B54FF0FF0C4CF4E06C1CEA11541DBFDE
:1010D0001CEA135594EA0C0F95EA0C0F00F0DEF8A9
:1010E0002C4481EA030621EA4C5123EA4C5350EA8E
:1010F000013518BF52EA033541F4801143F48013DF
:1011000038D0A0FB02CE4FF00005E1FB02E506F06F
:101110000042E0FB03E54FF00006E1FB03569CF0C4
:10112000000F18BF4EF0010EA4F1FF04B6F5007FCA
:1011300064F5407404D25FEA4E0E6D4146EB06063C
:1011400042EAC62141EA55514FEAC52040EA5E50C5
:101150004FEACE2EB4F1FD0C88BFBCF5E06F1ED86F
:10116000BEF1004F08BF5FEA500E50F1000041EBA6
:10117000045170BD06F0004646EA010140EA020053
:1011800081EA0301B4EB5C04C2BFD4EB0C0541EA75
:10119000045170BD41F480114FF0000E013C00F38A
:1011A000AB8014F1360FDEBF002001F0004170BDAE
:1011B000C4F10004203C35DA0C341BDC04F11404C7
:1011C000C4F1200500FA05F320FA04F001FA05F253
:1011D00040EA020001F0004221F0004110EBD37020
:1011E00021FA04F642EB06015EEA430E08BF20EA4C
:1011F000D37070BDC4F10C04C4F1200500FA04F3EF
:1012000020FA05F001FA04F240EA020001F0004180
:1012100010EBD37041F100015EEA430E08BF20EAF3
:10122000D37070BDC4F1200500FA05F24EEA020E3B
:1012300020FA04F301FA05F243EA020321FA04F06A
:1012400001F0004121FA04F220EA020000EBD37021
:101250005EEA430E08BF20EAD37070BD94F0000F21
:101260000FD101F00046400041EB010111F4801F55
:1012700008BF013CF7D041EA060195F0000F18BF06
:10128000704703F00046520043EB030313F4801F42
:1012900008BF013DF7D043EA0603704794EA0C0FFC
:1012A0000CEA135518BF95EA0C0F0CD050EA410612
:1012B00018BF52EA4306D1D181EA030101F000418F
:1012C0004FF0000070BD50EA410606BF10461946B7
:1012D00052EA430619D094EA0C0F02D150EA0136C3
:1012E00013D195EA0C0F05D152EA03361CBF104604
:1012F00019460AD181EA030101F0004141F0FE41A3
:1013000041F470014FF0000070BD41F0FE4141F426
:10131000780170BD70B54FF0FF0C4CF4E06C1CEA26
:1013200011541DBF1CEA135594EA0C0F95EA0C0FDB
:1013300000F0A7F8A4EB050481EA030E52EA033596
:101340004FEA013100F088804FEA03334FF08055B7
:1013500045EA131343EA12634FEA022245EA1115E4
:1013600045EA10654FEA00260EF000419D4208BF95
:10137000964244F1FD0404F5407402D25B084FEA42
:101380003202B61A65EB03055B084FEA32024FF4EE
:1013900080104FF4002CB6EB020E75EB030E22BF4B
:1013A000B61A754640EA0C005B084FEA3202B6EB0B
:1013B000020E75EB030E22BFB61A754640EA5C00BA
:1013C0005B084FEA3202B6EB020E75EB030E22BF4A
:1013D000B61A754640EA9C005B084FEA3202B6EB4B
:1013E000020E75EB030E22BFB61A754640EADC000A
:1013F00055EA060E18D04FEA051545EA16754FEA6C
:1014000006164FEAC30343EA52734FEAC2025FEA89
:101410001C1CC0D111F4801F0BD141EA00014FF018
:1014200000004FF0004CB6E711F4801F04BF0143E9
:101430000020B4F1FD0C88BFBCF5E06F3FF6AFAE05
:10144000B5EB030C04BFB6EB020C5FEA500C50F195
:10145000000041EB045170BD0EF0004E4EEA113118
:1014600014EB5C04C2BFD4EB0C0541EA045170BD1F
:1014700041F480114FF0000E013C90E645EA060E63
:101480008DE60CEA135594EA0C0F08BF95EA0C0F91
:101490003FF43BAF94EA0C0F0AD150EA01347FF4D9
:1014A00034AF95EA0C0F7FF425AF104619462CE7B0
:1014B00095EA0C0F06D152EA03353FF4FDAE104613
:1014C000194622E750EA410618BF52EA43067FF464
:1014D000C5AE50EA41047FF40DAF52EA43057FF4F4
:1014E000EBAE12E74FEA410C7FEA6C5C02D150EAA6
:1014F000013C0AD14FEA430C7FEA6C5C02D152EA0C
:10150000033C02D14FF0000070474FF001007047DC
:101510004FEA410212F5001215D211D56FF478731B
:10152000B3EB625212D94FEAC12343F0004343EABE
:10153000505311F0004F23FA02F018BF4042704799
:101540004FF00000704750EA013005D111F0004023
:1015500008BF6FF0004070474FF00000704700BFB9
:101560000348044B834202D0034B03B11847704732
:101570007809002078090020000000000548064B8B
:101580001B1AD90F01EBA301491002D0034B03B181
:1015900018477047780900207809002000000000F3
:1015A00010B5064C237843B9FFF7DAFF044B13B1AB
:1015B0000448AFF300800123237010BD7809002098
:1015C000000000006C88010808B5054B1BB10549F7
:1015D0000548AFF30080BDE80840FFF7CFBF00BF6C
:1015E000000000007C0900206C88010800B585B06F
:1015F00000230193029303931148124A026083600F
:10160000037303754FF46022C261436001230361D9
:1016100006F0E0FC68B91023019301230293002334
:10162000039301A9064806F04FFB28B905B05DF801
:1016300004FB06F0C2F8EEE706F0BFF8F6E700BFDD
:1016400094090020002401400268094B9A4200D00E
:10165000704782B003F56C439A6942F400729A6154
:101660009B6903F400730193019B02B0704700BFB4
:10167000002401400048704738000020F8B50D46AE
:1016800014461E460F6811463846FFF777FA50B9E0
:1016900021463846FEF7D4FF20F000400C49FFF702
:1016A00077FA08B12C60F8BD39462046FEF7C8FF2E
:1016B000044631460748FEF7C3FF01462046FFF7C0
:1016C0007DF901463846FEF7BDFF2860EBE700BF15
:1016D0009A99193E0000C84208B503F00BFE036852
:1016E000DB69984708BD08B503F004FE03681B6A70
:1016F000984708BD10B5044603F0FCFD03685B6A1B
:101700002146984710BD10B5044603F0F3FD036869
:101710009B6A2146984710BD10B5044603F0EAFDC8
:1017200003681B6B2146984710BDF8B504460D466B
:10173000164603F0DFFD03689F6B33462A462146B9
:10174000B847F8BDF8B504460D46164603F0D2FD7D
:1017500003689F6C33462A462146B847F8BDF8B562
:1017600004460D46164603F0C5FD0368DF6C33469C
:101770002A462146B847F8BDF0B583B004460D4669
:1017800016461F4603F0B6FD036800975F6D3346AB
:101790002A462146B84703B0F0BD08B503F0AAFDBC
:1017A00003685B6F984708BD10B584B0844601910B
:1017B00044680368E31A98106FF0604EAEEBA30321
:1017C0008B4210D30390814210D803AB1B6818449E
:1017D000DCF80030E41AB0EBA40F09D3B0F1005FDD
:1017E00009D204B010BD104609F07CF901ABEDE759
:1017F0006FF06040F5E76FF06040F2E74068043852
:10180000704710B485B000230193029303930468DA
:1018100001944268029283680393D1F800C0C0F833
:1018200000C0D1F804C0C0F804C0D1F808C0C0F8A6
:1018300008C00C604A608B6005B010BC704708B5EA
:101840000846114607F044FF08BD08B5034653F8A3
:10185000081B994203D082680132FFF7F0FF08BDF0
:1018600010B50446FFF7F1FF204610BD136801E0F4
:1018700040F8043B8142FBD1704708B5084691000F
:1018800007F026FF08BD10B5044601688268521AA9
:1018900011B19210FFF7F1FF204610BD10B50446BC
:1018A000FFF7F1FF204610BD08B5B1F1005F03D28C
:1018B000880008F089FC08BDB1F1804F01D309F020
:1018C000E9F809F0D7F838B504460D4641B10022D1
:1018D000FFF7EAFF2060606000EB8500A06038BD84
:1018E0000020F7E770B5B1F1005F0ED205460C4657
:1018F00016460023036043608360FFF7E4FF2B6814
:101900006CB103EB8404326804E0064809F0EAF89D
:1019100043F8042B9C42FBD16C60284670BD1C46EA
:10192000FAE700BF688A010870B584B005460C4626
:101930001646836800681B1AB1EBA30F09D86968C3
:101940000B1AB4EBA30F11D86CB300EB840413682B
:1019500022E02B4601A8FFF7C5FF294601A8FFF7A3
:1019600050FF01A8FFF78FFF04B070BDFFF77EFFA7
:101970006B682A689A1AB4EBA20209D003EB8202C0
:10198000316801E043F8041B9A42FBD16A60EBE73F
:101990001A46FBE740F8043B8442FBD16B68A34244
:1019A000E2D06C60E0E70446F8E700002DE9F84F6C
:1019B00005468A4693461E4A0121FFF7F5FED5F8F3
:1019C00000806F68AAEB0804814618B30022014624
:1019D0002846FFF769FF0646DBF800303351002C3C
:1019E0001ADC04343444A7EB0A07002F1ADC3C4409
:1019F000AA68A2EB08029210B8F1000F03D041468A
:101A00002846FFF73AFF2E606C6006EB8906AE6051
:101A1000BDE8F88F0026DFE722464146304611F048
:101A20000FFCDEE73A465146204611F009FCDEE79E
:101A30009C8A010810B5044643688268934208D026
:101A40000A681A604368043343602046FFF7D6FEF5
:101A500010BD0A461946FFF7A9FFF6E72DE9F04F3A
:101A600087B081462AE2B24808F06CFB002800F0FB
:101A70003682B04AB049B14807F0A6FDAC4808F03C
:101A800081FB2CE2AE4808F05DFB002800F02F82BD
:101A9000A84AA949AB4807F097FDA94808F072FB8E
:101AA00025E2A94808F04EFB002800F02882A14A50
:101AB000A149A64807F088FDA34808F063FB1EE291
:101AC000A34808F03FFB002800F02182994AA14971
:101AD000A14807F079FD9E4808F054FB17E29F48A3
:101AE00008F030FB002800F01A82924A99499C487D
:101AF00007F06AFD994808F045FB10E203F0FAFB95
:101B000004799548FFF7FFFD201A00EBD0704010D4
:101B1000FEF74CFE934B1860934808F033FB12E23B
:101B200003F0E8FB04798E48FFF7EDFD201A00EB87
:101B3000D0704010FEF73AFE8C4B18608C4808F0CD
:101B400021FB11E28B4808F0FDFA002800F0188212
:101B5000D5F8A4100020FEF773FD4FF07E51FEF77C
:101B60006FFD854B1860834808F00CFB08E2834842
:101B700008F0E8FA002800F00B82D5F8A810002041
:101B8000FEF75EFD4FF07E51FEF75AFD7C4B18606C
:101B90007A4808F0F7FAFBE17A4808F0D3FA00280F
:101BA00000F0FE8103F0A6FB4079C043FEF7FEFD86
:101BB000754B1860734808F0E5FAF1E15F4B1A685D
:101BC0005B68934201D05D4B5A605E4B1A685B685C
:101BD000934201D05B4B5A605C4B1A685B689A4237
:101BE00001D05A4B5A60002669E0FFF7D6FDC0EBE2
:101BF000C00010F07BFCD5F8A0100020FEF720FDFF
:101C00004FF07E51FEF71CFD029002A94B48FFF7F2
:101C100011FF10F073FC044603F06CFB90F8058094
:101C2000D5F8A0000146FEF70DFD07464046FEF739
:101C3000BDFD3946FEF704FD4FF08041FEF700FD83
:101C40004FF07E51FEF7FEFCFEF7F0FF80B294FBF2
:101C5000F0F300FB13400130FEF7A8FD039003A949
:101C60003848FFF7E7FE10F049FC044603F042FB5A
:101C700090F80480D5F8A0000146FEF7E3FC074683
:101C80004046FEF793FD3946FEF7DAFC4FF08041FF
:101C9000FEF7D6FC4FF07E51FEF7D4FCFEF7C6FFF0
:101CA00080B294FBF0F300FB13400130FEF77EFDA1
:101CB000049004A92548FFF7BDFE0136F6B295F859
:101CC000AC30B34291D8314B01221A7075E103F068
:101CD00011FB4079C043FEF769FD2D4B186095F864
:101CE000AC40D5F8A0100020FEF7AAFC4FF07E51C2
:101CF000FEF7A6FC059005AA21461248FFF714FE40
:101D0000D5F8A4100020FEF79BFC4FF07E51FEF7A3
:101D100097FC204B1860D5F8A8100020FEF790FC27
:101D20004FF07E51FEF78CFC1B4B186062E100BF48
:101D3000200A0020000000209D180008240A00202E
:101D4000100A0020140A0020000A0020040A0020C3
:101D5000FC090020611800081C000020F809002080
:101D600004000020F4090020F0090020EC09002004
:101D7000E8090020E0090020E4090020D80900203B
:101D8000DC090020C8090020CC090020320A00200C
:101D9000C4090020D4090020D0090020BA4F3B68B4
:101DA0004FEA840AD5F8A080414653F82400FEF794
:101DB00047FCB64E336853F824B04FF07E51FEF71F
:101DC0003FFC42465946FFF7CAFC3B683268D5F8EB
:101DD000A0B052F824804FF0804153F82400FEF761
:101DE00031FC5A464146FFF7BAFCD7F800B03368D9
:101DF000D5F8A080414653F82400FEF721FC4FF0AF
:101E00007E51FEF71DFC014642465BF82400FFF7B9
:101E100099FC3F683368D5F8A0804FF0804153F8B3
:101E20002400FEF70FFC0146424657F82400FFF756
:101E300089FC3168964B1A68AB6A52F824205144E9
:101E400001A8FFF71BFC0134E4B295F8AC30A342C3
:101E5000A4D8D5F8B000FFF74DFC8E4E3168D5F808
:101E6000A400FEF7EFFB01468B4A8C4B1868FFF786
:101E70005CFCD5F8B400FFF73DFC894C2168D5F82F
:101E8000A800FEF7DFFB0146864A874B1868FFF77C
:101E90004CFCAB6A854A1268314601A8FFF7EEFB9D
:101EA000AB6A834A1268214601A8FFF7E7FBFFF7F8
:101EB00013FC804B1B884B4580F0D5807E4B1B78F4
:101EC000002B00F024817B4A1388013313807B4B65
:101ED0001B68BFF35B8F13F0010F3FF4C4AD784B69
:101EE0001B68BFF35B8F13F0010F3FF4CBAD754B55
:101EF0001B68BFF35B8F13F0010F3FF4D2AD724B41
:101F00001B68BFF35B8F13F0010F3FF4D9AD6F4B2C
:101F10001B68BFF35B8F13F0010F3FF4E0ADFFF7D9
:101F2000A9FB0546D0F8B000FFF7E4FB684B1B683F
:101F3000BFF35B8F13F0010F05D1654808F002F97C
:101F400000287FF4DBADD5F8B400FFF7D3FB614B7D
:101F50001B68BFF35B8F13F0010F05D15D4808F0DC
:101F6000F1F800287FF4DCADD5F8B800FFF7C2FB2C
:101F7000594B1B68BFF35B8F13F0010F3FF4E2ADC9
:101F8000564B1B68BFF35B8F13F0010F3FF4EFADAF
:101F9000534B1B68BFF35B8F13F0010F3FF4FCAD95
:101FA000444B1B884B45BFF492AE4E4B00221A6047
:101FB0004D4B1B78002B3FF401AE03F09BF94679A3
:101FC00076084FF07C51D5F8A400FEF743FC044698
:101FD0003046FEF7EBFB2146FEF732FB334B186031
:101FE000D5F8A810FEF72CFB4FF08141FEF728FB37
:101FF0002F4B1860FFF777FB0020FFF78DFB3B4C62
:10200000D4F8008003F076F90079FEF7CBFB0646A2
:1020100003F070F94079FEF7C5FB0346002732460E
:1020200041463846FFF7A8FBAB6A2E4A12682146A4
:1020300001A8FFF723FB0120FFF76EFB03F05AF91D
:102040004079FEF7B3FB2168FEF7FCFA044603F083
:1020500051F90079FEF7A6FB024621463846FFF704
:102060007EFB0024F1E603F045F94079C043FEF71A
:102070009DFB1E4B1968FEF781FD00283FF41EAF43
:102080000D4B00221A7019E7040A0020240A0020D0
:10209000140A0020E40900201C000020F40900209C
:1020A000DC09002004000020EC090020D4090020F5
:1020B000D0090020300A002034000020200A00202F
:1020C000100A0020000A0020FC090020F809002066
:1020D000F0090020E8090020E0090020D8090020CC
:1020E000C8090020C4090020320A0020CC090020C1
:1020F000084808F043F807F0EDFA074808F03EF802
:1021000007F0E8FA054808F039F807F0E3FA07B0F5
:10211000BDE8F08FF0090020E8090020C809002080
:10212000F8B504460D46164603F0E4F80368DF6B85
:1021300033462A462146B847F8BD10B5044603F099
:10214000D9F803689B6E2146984710BD08B5024B2D
:10215000186802F065FFFAE76C0A002008B5081E4F
:1021600002DB08F031F808BD08F084FCF8B5541A19
:102170000CD405460E4664B100222146FFF7EEFF5F
:1021800028600719AF6034B96F60F8BD044808F0E3
:10219000A9FC0020F4E72246314611F051F8F3E79C
:1021A000688A010808B5012A03D022B1FEF712FFA0
:1021B00001E00B78037008BD08B50846114607F02A
:1021C00087FA08BD10B5044601688268521A09B141
:1021D000FFF7F2FF204610BD10B50446FFF7F2FFEF
:1021E000204610BD10B582B0044602AB03E90600DC
:1021F00000230360436083600A44FFF7B7FF04E0F5
:102200002046FFF7DFFF07F065FA204602B010BD59
:1022100008B5081E02DB07F0D7FF08BD08F02AFC4E
:1022200010B50B68002B0EDB934206D95400B3EBBC
:10223000420F02D20C60002C08DB09680022013139
:10224000FFF7E6FF10BD034808F04CFC6FF00043B9
:102250000B60F2E7B88A010870B582B004460E46FA
:10226000551A01950F2D0DD800942A463146206845
:10227000FFF798FF00220092019B63602168CA5417
:1022800002B070BD002201A9FFF7CAFF2060019BC8
:10229000A360E9E738B500F10803036069B10446BB
:1022A0000D46084611F014FA4FF000032A1829468B
:1022B0002046FFF7D1FF204638BD014808F0FAFB61
:1022C000D08A010870B5B8B0A42007F07DFF04469D
:1022D000B84B03608023037140234371B64B836086
:1022E00000218181B54B40F8103B942211F026F873
:1022F000204603F0ABF84FF4AF70FFF71EFF4FF42A
:102300007A70FFF7ABFBAE4B1D684FF4A67007F079
:102310005BFF044606AAAB496846FFF7BBFF08E02F
:10232000012525B14FF4A671204607F0D1F907F039
:10233000D1F9A54A6946204601F01AFD21462846F2
:1023400001F0C4FD04E000256846FFF77EFAE8E7E7
:102350006846FFF77AFA9A4B1D684FF4A67007F0AB
:1023600033FF04460DAA994907A8FFF793FF08E039
:10237000012525B14FF4A671204607F0A9F907F011
:10238000A9F9934A07A9204601F0F2FC2146284604
:1023900001F09CFD04E0002507A8FFF756FAE8E7E6
:1023A00007A8FFF752FA864B1D684FF4A67007F096
:1023B0000BFF044614AA87490EA8FFF76BFF08E03D
:1023C000012525B14FF4A671204607F081F907F0E9
:1023D00081F90EA9204601F03BFF2146284601F075
:1023E00075FD04E000250EA8FFF72FFAE9E70EA817
:1023F000FFF72BFA784C2168714B186801F066FDE5
:1024000025684FF4A67007F0DFFE044601F0CAFE0F
:102410002146284601F05AFD6F4B1E684FF4A67006
:1024200007F0D2FE04461BAA6C4915A8FFF732FF3D
:1024300008E0012525B14FF4A671204607F048F9C0
:1024400007F048F915A9204601F002FF04E0012534
:1024500015A8FFF7FAF9EDE7E42007F0B5FE054609
:102460005F4902F0D7FA01E00025F1E72A4621464C
:10247000304601F0ABFD01E00025E9E715A8FFF7C4
:10248000E4F9554B1D684FF4AE7007F09DFE04460D
:1024900022AA54491CA8FFF7FDFE08E0012525B13A
:1024A0004FF4AE71204607F013F907F013F91CA999
:1024B000204601F021FF2146284601F007FD04E0F7
:1024C00000251CA8FFF7C1F9E9E71CA8FFF7BDF933
:1024D000414B1D684FF4AE7007F076FE044629AA02
:1024E000414923A8FFF7D6FE08E0012525B14FF4A6
:1024F000AE71204607F0ECF807F0ECF823A920466F
:1025000001F0FAFE2146284601F0E0FC04E0002537
:1025100023A8FFF79AF9E9E723A8FFF796F92E4BCE
:102520001D684FF4A67007F04FFE044630AA2F49ED
:102530002AA8FFF7AFFE08E0012525B14FF4A671E8
:10254000204607F0C5F807F0C5F82AA9204601F093
:102550007FFE2146284601F0B9FC04E000252AA8A8
:10256000FFF773F9E9E72AA8FFF76FF91A4B1D681F
:102570004FF4A67007F028FE044637AA1C4931A87C
:10258000FFF788FE08E0012525B14FF4A67120462B
:1025900007F09EF807F09EF831A9204601F058FE9A
:1025A0002146284601F092FC24E0002531A8FFF7DF
:1025B0004CF9E9E7748D010800007F43D4A10108BC
:1025C000680A0020048B01085C0A00200C8B0108BB
:1025D000500A0020148B0108340A0020248B0108C3
:1025E00008010020308B0108408B0108588B01083E
:1025F000708B010831A8FFF728F9114B1968114BAE
:10260000186802F00FFC38B070BD01259CE601256A
:10261000C2E60125E7E64FF4A671204607F058F818
:1026200007F058F8E421284607F052F800250FE794
:10263000012546E701256BE7012590E70125B5E770
:10264000680A00206C0A0020012800D070474FF66D
:10265000FF739942FAD12DE9F041B8B0182007F084
:10266000B3FD0023036043608360C3600361436183
:102670004D4B18604FF4AE7007F0A6FD044624AA37
:102680004A491EA8FFF706FE1EA9204601F034FEA7
:10269000474B1C601EA8FFF7D8F8464F7824224607
:1026A00039466846FEF796FCCDF894D02694DFF8BC
:1026B000088127AB224669464046FFF793FD3F4E0F
:1026C0003F4D32462946404606F07EFF22463919E4
:1026D0006846FEF77FFCCDF8A0D02994DFF8E480AF
:1026E0002AAB224669464046FFF77CFD3246294622
:1026F000404606F069FF224607F1F0016846FEF702
:1027000069FCCDF8ACD02C94DFF8BC802DAB224610
:1027100069464046FFF766FD32462946404606F0C8
:1027200053FF224607F5B4716846FEF753FCCDF817
:10273000B8D02F94254C30AB782269462046FFF75D
:1027400051FD32462946204606F03EFF4FF4A67062
:1027500007F03AFD044637AA1D4931A8FFF79AFD54
:102760001A4A31A9204601F003FB1A4B1C6031A81C
:10277000FFF76BF838B0BDE8F0811EA8FFF765F8E9
:102780004FF4AE71204606F0A3FF06F0A3FFF7E773
:1027900031A8FFF75AF84FF4A671204606F098FFCB
:1027A00006F098FFF7E700BF6C0A0020888B01084D
:1027B000680A0020888801085C0A002000000020C8
:1027C000D9210008500A0020440A0020380A0020BD
:1027D000908B0108340A002008B54FF6FF710120E4
:1027E000FFF732FF08BD000030B53E4901603E4AA8
:1027F00042603E4A82603E4AC26002613D4C446192
:102800003D4C84613D4CC4613D4C04624162826236
:10281000012180F82C1080F82D1080F82E1080F8FF
:102820002F1080F83010002280F83120354D45639C
:102830004FF0824282634FF0814CC0F83CC04FF0B1
:10284000834404644FF07C5EC0F844E0C0F848C0A4
:102850004FF0804EC0F84CE080F850102A49416596
:102860008165C265026629494166C0F868C0284989
:10287000C166026727494167C0F878E0C567264905
:10288000C0F880102549C0F88410C0F88810C0F83E
:102890008C20C0F89040C0F894C0C0F898E020495F
:1028A000C0F89C10C0F8A0E01E49C0F8A410C0F801
:1028B000A820102180F8AC101B49C0F8B0101B49AB
:1028C000C0F8B410C0F8B810C0F8BC20C0F8C020E0
:1028D000C0F8C4C0164AC0F8C8204FF07E52C0F8F5
:1028E000CC2030BD0000A0420000824200005042D7
:1028F00000008C4200005C420000C84100007041B2
:102900000000C8420000A0400000F0410000C040AC
:102910000000904100004041000040400000104293
:102920000000B44200006041148E0108689601085E
:1029300000002041F8B504460D46164607683846A3
:10294000FEF71CF9E0B929463846FDF779FE20F07C
:1029500000404FF07E51FEF725F990B939462846E0
:10296000FDF76EFE054631460748FDF769FE014654
:102970002846FEF723F801463846FDF763FE20603F
:10298000F8BD2560FCE700BF0000C84270B50446F2
:102990000D46164680230370402343700D4B436061
:1029A0000830FFF721FF002384F8E8302946002093
:1029B000FDF746FE0546C4F8D80031460020FDF775
:1029C0003FFEC4F8DC00C4F8E050C4F8E400204640
:1029D00070BD00BF00007F432DE9F04704460E465E
:1029E0001546D0F8E0100020FDF72AFE8046D4F806
:1029F000E4100020FDF724FE07464FF001093146A0
:102A00004046FEF7E3F808B94FF000094FF0010A1D
:102A100029463846FEF7DAF808B94FF0000A49EAC5
:102A20000A0919F0FF0F2ED12078FDF7BFFE4146AD
:102A3000FDF708FE4FF07E51FDF702FE80466078FC
:102A4000FDF7B4FE3946FDF7FDFD4FF07E51FDF771
:102A5000F7FD07464FF0010431464046FEF798F86F
:102A600008B94FF000044FF0010629463846FEF73A
:102A70008FF808B94FF00006344314F0FF0F04D16B
:102A80000020BDE8F0870120FBE70220F9E770B5E0
:102A900004461646012380F8E8300020FDF7D0FDFB
:102AA0000546E26A014604F1E000FFF743FF3146C4
:102AB0000020FDF7C5FD0646E26A014604F1E40088
:102AC000FFF738FFD4F8E0102846FEF757F840B17A
:102AD000D4F8E4103046FEF751F810B1002384F822
:102AE000E83070BD70B504460D46244B1B68BFF33B
:102AF0005B8F13F0010F28D0012384F8E83055B123
:102B00001F4B1B78B5FBF3F203FB125212F0FF0FC1
:102B10002FD1B5FBF3F5607805FB00F0FDF746FE1D
:102B2000024600212046FFF7B2FFD4F8E460607847
:102B300005FB00F0FDF73AFE01463046FEF71EF8B1
:102B400010B1002384F8E83070BD0C4807F0FAFAA1
:102B50000028D1D0A66C6078FDF728FE3146FDF73D
:102B60002DFFFEF763F8064B1870044807F00AFBC8
:102B7000C2E7B5FBF3F3DDB2CDE700BF740A002076
:102B8000780A0020F8B504460D46012380F8E830A5
:102B90000B681E685F683A463146FFF71DFF012843
:102BA00019D03A4631462046FFF716FF022816D0C4
:102BB0003B4B1B78012B16D0394B1B78022B34D0A2
:102BC0002B685A6819682046FFF706FF10B90023E2
:102BD00084F8E830F8BD324B01221A70E1E7304B3F
:102BE00002221A70E4E73A4631462046FFF74FFFCB
:102BF000D4F8E0702E6831680020FDF721FD014611
:102C00003846FDF7BBFF0028D6D0D4F8E4707168D1
:102C10000020FDF715FD01463846FDF7AFFF0028FF
:102C2000CAD01F4B00221A70C6E72F687968A06CC3
:102C3000FDF708FD06466078FDF7B8FD0146304611
:102C4000FDF7FEFC024639682046FFF720FFD4F866
:102C5000E0702E6831680020FDF7F2FC014638462E
:102C6000FDF78CFF0028ABD0D4F8E4707168A06C3D
:102C7000FDF7E8FC06466078FDF798FD0146304612
:102C8000FDF7DEFC01460020FDF7DAFC0146384680
:102C9000FDF774FF002893D0014B00221A708FE7D4
:102CA000700A0020F8B50446012380F8E830084691
:102CB000FDF77CFD0546616EE06DFDF7C3FC014646
:102CC00000262846FDF7C6FD014632462046FFF79E
:102CD000DEFED4F8E070616EE06DFDF7B3FC0146F6
:102CE0002846FDF7B7FD01463046FDF7A9FC014631
:102CF0003846FDF743FF10B1002384F8E830F8BDF3
:102D0000F0B583B005460E4647680197084610F0B7
:102D1000DFFC04460090B8420AD301AB1A68286869
:102D20001AB1314610F05CFA00B9381B03B0F0BD9F
:102D30006B46F3E7F0B591B006460C4617460B68B4
:102D40001B6801A898471B4901A8FFF7D9FF054652
:102D500001A8FEF77AFDB5B996F858306BB1012B92
:102D60001FD1394607A801F0AFFD07A93046FFF78C
:102D700009FF07A8FEF787FD13E094F838113046E5
:102D8000FFF7B0FE0DE023681B6821460AA89847AC
:102D900009490AA8FFF7B4FF05460AA8FEF755FD42
:102DA0000DB111B0F0BD94F838113046FFF77AFF3D
:102DB000F7E700BF9C8B0108A48B01082DE9F041C7
:102DC000571A0F4B9F4216D804460D461646B910A7
:102DD000A1B10022FEF768FD206000EB0708C4F8EF
:102DE0000880B54203D03A46294610F029FAC4F8C3
:102DF0000480BDE8F081034807F074FE0020EBE793
:102E0000FCFFFF7F688A010810B582B0044602AB60
:102E100003E90600002303604360836001EB820244
:102E2000FFF7CCFF04E02046FEF72DFD06F052FC34
:102E3000204602B010BD10B586B00446D1F8E0308F
:102E40000393D1F8E430049303AB0193022302937C
:102E500005AB01AA06CAFFF7D7FF204606B010BD92
:102E6000004870470C0100207047704770472DE9FB
:102E7000F04706468946D0F82031D0F82481002456
:102E800004E0C5F8E4000134E4B23B1D1F46984558
:102E90001CD01D68B36CC5F8DC30C5F8E030D6F83E
:102EA0004CA02046FDF782FC5146FDF7D3FCC5F847
:102EB000E80096F83930002BE3D0D9F80030F16CF7
:102EC0005868FDF7BDFBC5F8E400DCE7BDE8F08716
:102ED00070B504460579066C2846FDF767FC314657
:102EE000FDF7AEFBC4F8480194F8393043B1002334
:102EF000C4F83C312846FDF755FCC4F8440170BDC8
:102F0000D4F84031C4F83C31F4E72DE9F04F83B0F8
:102F100004468B46D0F82031D0F824A1002505E0E6
:102F2000C6F8DC000135EDB209F1040399469A4573
:102F300035D01E680023C6F8E43027797F08D4F81E
:102F400060804FF07C514046FDF784FC019038468C
:102F5000FDF72CFC0199FDF773FB0746A16E404677
:102F6000FDF770FB80462846FDF720FC4146FDF743
:102F700071FC01463846FDF765FBC6F8E000E36EDC
:102F8000C6F8E83094F83830002BC9D0DBF80030B0
:102F9000216E1868FDF754FBC6F8DC00C2E703B0E9
:102FA000BDE8F08F70B504460023C0F8483146797B
:102FB0003046FDF7FBFB0546E16FFDF741FBC4F82A
:102FC0005001A16F2846FDF73BFBC4F8580194F867
:102FD00038308BB10023C4F83C313046FDF7E2FBBA
:102FE000C4F84C01C4F85401D4F884100020FDF753
:102FF00027FBC4F8440170BDD4F84031C4F83C311B
:10300000EBE708B502F076F903681B69984708BD3D
:1030100008B502F06FF903685B69984708BD08B509
:1030200002F068F903689B69984708BD38B5044603
:103030000D4602F05FF903685B6B2A46214698470C
:1030400038BDF8B504460D46164602F053F903683C
:103050005F6C33462A462146B847F8BDF0B583B0C9
:1030600004460D4616461F4602F044F90368089AC6
:10307000019200971F6D33462A462146B84703B098
:10308000F0BD10B5044602F035F9043003C884E8F9
:103090000300FFF7E5FE0146D02204F10800FDF72A
:1030A00099FF10BD38B55C4B1B68BFF35B8F13F005
:1030B000010F03D1584807F045F8B8B9FFF7A1FF51
:1030C0000446FFF7CDFE0546006AFDF7AFFDFFF7AA
:1030D00034F895F83130002B56D0504B1B78013B1B
:1030E000032B4DD8DFE803F01E2C3C4AFFF790FF7E
:1030F0000446FFF794FF00FB04F4E400484B1C7007
:10310000454807F03FF8D9E701339BB2444A1278AB
:103110009A4258D913F0010FF6D0E25C02F0AA02ED
:10312000E254F1E70023F1E701339BB23C4A127805
:103130009A4248D913F0010FF6D00022E254F3E787
:103140000023F3E701339BB2354A12789A423AD909
:1031500013F0010FF6D1E25C02F05502E254F1E700
:103160000023F1E701339BB22D4A12789A422AD903
:1031700013F0010FF6D10022E254F3E70023F3E746
:10318000264B00221A701EE0244B1B78013B032BB8
:1031900039D8DFE803F0101D2D3601339BB2204AE9
:1031A00012789A420FD913F0010FF6D0E25C42F088
:1031B000AA02E254F1E70023F1E701339BB2184A77
:1031C00012789A42F9D8154A13780133137038BD32
:1031D0000023F4E701339BB2114A12789A42F2D9E4
:1031E00013F0010FF6D1E25C42F05502E254F1E730
:1031F0000023F1E701339BB2094A12789A42F9D8C9
:10320000E1E70023F8E7054B00221A70DBE70248EC
:1032100006F0B4FF06F05EFA7C0A002009010020E7
:10322000800A0020D0F82431D0F82001181AC0F309
:10323000870070472DE9F04F87B0044605910430B0
:10324000FFF71FFF0120FEF767FAD4F82061D4F8DA
:103250002431049322E056F8045BD5F8DCB0059BDA
:103260001F68D5F804A1D4F86490D4F86080796818
:10327000E06EFDF7E7F9039039685846FDF7E2F98B
:10328000CDF800A04B4642460399FFF7E7FEE268FF
:10329000D5F8E01005F1DC00FFF74CFB049BB342CE
:1032A000D9D194F838010130FDF780FA054620792C
:1032B000FDF778FA06462046FFF7B4FFFDF776FAE9
:1032C00001463046FDF77AFB01462846FDF7C2FA73
:1032D000C4F840014FF00008D4F88430D4F83C2101
:1032E000D4F844114046FEF747FA226FD4F84C1147
:1032F000606FFEF734FA666F4FF07E51D4F84C01E0
:10330000FDF7A0F905464FF07E513046FDF79AF9DA
:103310002946FFF78BFE666F4FF08041D4F84C01D1
:10332000FDF790F905464FF080413046FDF78AF9E8
:103330002946FFF77BFE666F4FF07E51D4F84C01B3
:10334000FDF77EF905464FF07E513046FDF77AF9DC
:103350002946FFF76BFE666F4FF08041D4F84C01B1
:10336000FDF76EF905464FF080413046FDF76AF9EA
:103370002946FFF75BFE256F2079FDF717FA2946EE
:10338000FDF75EF9D4F84C61616FFDF759F92A46F3
:103390003146FEF7E4F92779266F4FF07E51D4F8D5
:1033A0004C01FDF74FF905463846FDF7FFF9314668
:1033B000FDF746F92946FFF739FE256F2079FDF71D
:1033C000F5F92946FDF73CF906464FF08041D4F85F
:1033D0004C01FDF737F905464FF07E513046FDF7B9
:1033E0002FF92946FFF722FE2779266F4FF07E51ED
:1033F000D4F84C01FDF724F905463846FDF7D6F917
:103400003146FDF71DF92946FFF710FE256F20799B
:10341000FDF7CCF92946FDF713F906464FF0804138
:10342000D4F84C01FDF70CF905464FF07E513046BB
:10343000FDF706F92946FFF7F9FD434E4FF08041AD
:10344000D4F84C01FDF7FEF801463246D4F89C0052
:10345000FEF785F9D4F89CA04FF08041D4F84C01D8
:10346000FDF7F0F84FF08145DFF8E0902946FDF7D1
:10347000E7F807464FF080415046FDF7E3F82B464A
:103480004A463946FEF778F9D4F89C702079FDF762
:103490008DF93946FDF7D4F882464FF08041D4F8D3
:1034A0004C01FDF7CFF8074631465046FDF7C8F806
:1034B00032463946FEF753F9D4F89C702079FDF76F
:1034C00075F93946FDF7BCF83146FDF7B9F80746FE
:1034D0004FF08041D4F84C01FDF7B4F82946FDF7D0
:1034E000AFF806464FF080413846FDF7ABF82B4663
:1034F0004A463146FEF740F92079FDF753F9024676
:10350000D4F854114046FFF79CFDE268D4F85811F6
:1035100004F5AA70FFF70EFAE268D4F8501104F52A
:10352000A670FFF707FAE268D4F8401104F59E7020
:10353000FFF700FAE268D4F8481104F5A270FFF72B
:10354000F9F907B0BDE8F08F000010410000A0407D
:1035500090F83821D0F8203153F822007047D0F885
:103560001C01704708B5FFF79DFD08BD10B5044666
:1035700080230371402343711B4B83600C30FFF7A2
:1035800033F92246194B42F8DC3B0023C4F8DC3007
:1035900053609360D36004F1F402C4F8EC20C4F8E3
:1035A000F03084F8F430C4F80431C4F80831C4F8B9
:1035B0000C31C4F81031C4F81431C4F81831C4F80F
:1035C0001031C4F81431C4F81831C4F82031C4F8EB
:1035D0002431C4F82831C4F82C31C4F83031C4F88F
:1035E0003431204610BD00BF00007F43748C0108B9
:1035F00003684068984214BF0020012070472DE9FD
:10360000F04F85B004468A460430FFF73AFD0120AA
:10361000FEF782F8D4F82031D4F82421039244E054
:1036200057F8048BD4F8D4602079FDF7BFF8314601
:10363000FDF706F80646D4F8C890D4F8D010D5F8AF
:10364000E400FCF7FFFF019049463046FCF7F8FF25
:103650000146D8F800301E695346019A4046B047EB
:10366000BB45DDD1D5F8DC90DAF80070616CD5F897
:10367000E400FCF7E7FFA16CFCF7E4FF05F1EC08C0
:103680007968FCF7DFFF064639684846FCF7DAFF41
:1036900042463146FEF744FD2269D5F8E81005F1AF
:1036A000E400FFF747F9029B04330293039A9A421E
:1036B0000BD01D6805F59670FFF79AFF0028D1D151
:1036C000D5F82C71D5F830B1CAE794F8380101303B
:1036D000FDF76CF805466079FDF764F8064620466C
:1036E000FFF7A0FDFDF762F801463046FDF766F9E9
:1036F00001462846FDF7AEF8C4F84001266C0025C7
:103700002079FDF753F83146FCF79AFF32462946F7
:10371000FEF725F894F80480276C60790138FDF7EE
:1037200045F806464046FDF741F83946FCF788FF64
:103730003A463146FEF713F894F804804FF07C5176
:10374000206CFDF787F8FCF747FE0DF08DFC064670
:103750000F464046FCF72EFE32463B46FCF7DCFCAB
:10376000804689466079FDF71DF806464046494681
:10377000FCF712FF32462946FDF7E4FFD4F83C314E
:10378000226C2946D4F84401FDF7F6FF94F83D3049
:1037900083B92269D4F8401104F59E70FFF7CAF886
:1037A0002269D4F8481104F5A270FFF7C3F805B0F8
:1037B000BDE8F08F0220FDF7AFFF26796079FCF7B6
:1037C000F1FF05463046FCF7EDFF024600202B4690
:1037D0000146FDF7D1FF0120FDF79EFFD9E710B5A7
:1037E00084B08446019144680368E31A6FF0004096
:1037F000C01A88420ED3039399420ED803AA1068C8
:103800001844DCF80030E41A844208D8002809DBA8
:1038100004B010BD104607F065F901AAEFE76FF09C
:103820000040F5E76FF00040F2E710B584B0844641
:10383000019144680368E31A98106FF0604EAEEB94
:10384000A3038B4210D30390814210D803AB1B68B3
:103850001844DCF80030E41AB0EBA40F09D3B0F13F
:10386000005F09D204B010BD104607F03BF901AB70
:10387000EDE76FF06040F5E76FF06040F2E710B5FC
:1038800084B08446019144680368E31A98106FF08D
:10389000604EAEEBA3038B4210D30390814210D84D
:1038A00003AB1B681844DCF80030E41AB0EBA40F3B
:1038B00009D3B0F1005F09D204B010BD104607F083
:1038C00011F901ABEDE76FF06040F5E76FF0604094
:1038D000F2E738B515460C1A01D1281938BD224631
:1038E000014628460FF0ACFCF7E710B485B0002382
:1038F00001930293039304680194426802928368DF
:103900000393D1F800C0C0F800C0D1F804C0C0F8DB
:1039100004C0D1F808C0C0F808C00C604A608B60D1
:1039200005B010BC704738B515460C1A01D12819DE
:1039300038BD2246014628460FF082FCF7E708B55D
:10394000FFF7F1FF08BD08B5012A03D022B10FF03F
:1039500077FC01E00B78037008BD10B584B00C460D
:103960000023019302930393FFF7BFFF214601A8B1
:10397000FFF7BBFF01A8FEF725FC04B010BD08B59A
:1039800013780A1A00D108BD19460FF0D7FCFAE7E0
:1039900008B50846910005F09BFE08BD10B5044629
:1039A00001688268521A11B19210FFF7F1FF2046A8
:1039B00010BD08B50846910005F08AFE08BD10B597
:1039C000044601688268521A11B19210FFF7F1FFA4
:1039D000204610BD10B504460B4B036000F59670F1
:1039E000FFF7EDFF04F59070FFF7D8FF04F588703E
:1039F000FEF7E8FB04F58270FEF7E4FB04F1EC004F
:103A0000FDF723FF204610BD748C010810B582B06D
:103A1000044601AA0249FEF73DFC204602B010BD53
:103A2000AC8B010810B582B0044601AA0249FEF72A
:103A300031FC204602B010BDA48B010810B582B045
:103A4000044601AA0249FEF725FC204602B010BD3B
:103A50009C8B01082DE9F04782B004460D461646BE
:103A60009846DDF828904068471ABF1A4844801AE3
:103A70000190234653F8082B934217D0A26801A95E
:103A80002046FEF7CDFB824695B9B8F1000F02D073
:103A9000B9F1000F11D1BFB92046FDF7D6FEC4F829
:103AA00000A0019BA36002B0BDE8F0870F22E6E70B
:103AB0002A462168FEF776FBE7E74A4641460AEBCD
:103AC0000500FEF76FFBE6E705EB090021683544CA
:103AD0003A4629445044FEF765FBDDE72DE9F047FF
:103AE00082B0044616460A9F4068121A02F100424C
:103AF000013A97422DD8984607EB0009A9EB060931
:103B0000224652F8083B9A4226D0A268914566D8D0
:103B100003EB010A411A8D1B98451FD303449845B6
:103B20001CD8BFBB0DB1BE423CD1BE421AD208EB7D
:103B300007020AEB06039A423CD9434540D8A8EB5A
:103B40000A01BE1B31443A4651445046FEF72AFB57
:103B500008E0264806F0C6FF0F22D7E70DB1BE42A7
:103B60000AD18FB9C4F804902368002203F8092011
:103B7000204602B0BDE8F0872A460AEB06010AEBB0
:103B80000700FFF7E0FEECE73A4641465046FEF7F5
:103B900009FBE7E7BE42C5D33A4641465046FFF728
:103BA000D2FEBFE72A460AEB06010AEB0700FFF741
:103BB000CAFEBAE73A4641465046FFF7C4FED1E78F
:103BC000A3EB08052A4641465046FFF7BCFE7A1B88
:103BD0000AEB07010AEB0500FEF7E4FAC2E70097DB
:103BE000434632462046FFF735FFBBE7B48B01085A
:103BF00070B582B004460D46466808460FF068FD71
:103C000000902B46324600212046FFF767FF02B0A6
:103C100070BD884228D0F0B583B004460D464E688A
:103C2000034653F8082B934209D08268B24208D366
:103C3000A6B96660236800229A5503B0F0BD0F2232
:103C4000F4E7019601A92046FEF7EAFA0746204666
:103C5000FDF7FBFD2760019BA360E9E73246296879
:103C60002068FEF79FFAE4E7704738B504460D4632
:103C700039B10022FEF772FA206060602844A0602B
:103C800038BD0020F8E738B515460C1A01D12819BF
:103C900038BD2246014628460FF0D2FAF7E708B5AC
:103CA000FFF7F1FF08BD08B5FFF7F9FF08BD38B50C
:103CB00004460D4649682A68002303604360836018
:103CC000891AFFF7D2FF226869682868FFF7EBFFBF
:103CD0006060204638BD70B515461E4651B10022C1
:103CE000FEF73CFA0446224631462846FFF7DBFF42
:103CF000204670BD0024F6E770B50446814213D01B
:103D00000D46496828680E1A2268A368A3EB020CC6
:103D1000B4450BD36368A3EB020C664518D8FFF7D4
:103D20000EFE236833446360204670BD0B46024696
:103D300031462046FFF7CFFF05462168A268521A98
:103D400011B12046FEF738FA25603544A560E8E752
:103D500000EB0C01FFF7BDFD296860682368C31AFA
:103D600019446A68521ADCD00FF06AFAD9E70000E9
:103D700070B504460E461546FFF7F8FB204B23604E
:103D80000023C4F83C31C4F84031C4F84431C4F8CD
:103D90004831314604F1EC00FFF73BFF294604F5BA
:103DA0008270FFF7A9FF002384F83831C4F81C3172
:103DB000D4F82031D4F82421934201D0C4F824311E
:103DC000D4F82C31D4F83021934201D0C4F83031EA
:103DD0000023C4F8DC30C4F8E030C4F8E430C4F8A0
:103DE000E830C4F83C31C4F84031C4F84431C4F878
:103DF0004831204670BD2046FFF7ECFD05F06AFC17
:103E00008C8C010808B5B1F1005F03D2880006F080
:103E1000DBF908BDB1F1804F01D306F03BFE06F09F
:103E200029FE00002DE9F84F05468A4693461E4AB2
:103E30000121FFF7FAFCD5F800806F68AAEB0804AF
:103E4000814618B3002201462846FFF7DBFF0646ED
:103E5000DBF800303351002C1ADC04343444A7EB77
:103E60000A07002F1ADC3C44AA68A2EB0802921051
:103E7000B8F1000F03D041462846FFF789FD2E60B8
:103E80006C6006EB8906AE60BDE8F88F0026DFE7C0
:103E90002246414630460FF0D3F9DEE73A46514616
:103EA00020460FF0CDF9DEE79C8A010808B543688B
:103EB0008268934205D00A681A60436804334360FD
:103EC00008BD0A461946FFF7ADFFF9E770B582B0A5
:103ED000054601910C4601F59670FFF789FB0646F1
:103EE00058B16CB1C4F81C5101A905F59070FFF7E9
:103EF000DDFF2B689B6828469847304602B070BDAE
:103F00000026FAE708B5B1F1005F03D2880006F099
:103F10005BF908BDB1F1804F01D306F0BBFD06F09F
:103F2000A9FD00002DE9F84F05468A4693461E4A32
:103F30000121FFF7A4FCD5F800806F68AAEB080404
:103F4000814618B3002201462846FFF7DBFF0646EC
:103F5000DBF800303351002C1ADC04343444A7EB76
:103F60000A07002F1ADC3C44AA68A2EB0802921050
:103F7000B8F1000F03D041462846FFF71AFD2E6026
:103F80006C6006EB8906AE60BDE8F88F0026DFE7BF
:103F90002246414630460FF053F9DEE73A46514695
:103FA00020460FF04DF9DEE79C8A010808B543680A
:103FB0008268934205D00A681A60436804334360FC
:103FC00008BD0A461946FFF7ADFFF9E730B583B0E3
:103FD00001929AB10C46FFF779FF054610B92846C1
:103FE00003B030BD01A904F59670FFF7DFFF01981B
:103FF000C0F8DC4003681B689847F0E70025EEE74F
:1040000038B515460C1A01D1281938BD224601468B
:1040100028460FF015F9F7E708B5FFF7F1FF08BDDF
:1040200008B5FFF7F9FF08BD08B5FFF7F5FF08BDB4
:1040300038B515460C1A01D1281B38BD2246014659
:10404000281B0FF0FDF8F7E7002A7DD02DE9F04797
:1040500082B004460D461F46164681684368C91A59
:1040600091423ED3009000238DF804303B788DF8C8
:1040700004304768A7EB0508424515D3B2EB0806A4
:1040800028D13E4666602346324639462846FFF729
:10409000C7FF63684344636001AA39462846FFF7B7
:1040A0006EFC02B0BDE8F087A7EB020803463A4673
:1040B00039464046FFF7B4FF6368334463603A46CD
:1040C00041462846FFF7B4FF01AAA9192846FFF781
:1040D00056FCE6E73E4401AA31463846FFF74FFC5E
:1040E000D0E71A4A3146FFF77AFB2368A5EB0309AC
:1040F000824630B3002201462046FEF72FF8804664
:1041000008EB09003A468119FFF739FC234642467D
:1041100029462068FFF788FF2346821961682846F0
:10412000FFF782FF05462168A268521A11B12046A6
:10413000FEF742F8C4F80080656008EB0A01A16050
:10414000AFE74FF00008DBE7704700BFDC8B0108EA
:1041500008B58C4641680368A1EB030EF44506D808
:10416000F44509D263448B4206D0436004E0134611
:10417000ACEB0E02FFF768FF08BD30B583B0044614
:1041800001F58875FF238DF807300DF107027821BE
:104190002846FFF7DDFF29462046FFF788FD204629
:1041A00003B030BD10B584B00446FFF7DFF9264BED
:1041B00023600023C4F83C31C4F84031C4F84431D2
:1041C000C4F84831214904F1EC00FFF711FD214604
:1041D00001A8FFF7D2FF4FF0000201A904F5827099
:1041E000FFF7BBFB01A8FDF7EDFF002384F8383192
:1041F000C4F81C31D4F82031D4F82421934201D0E2
:10420000C4F82431D4F82C31D4F83021934201D0B1
:10421000C4F830310023C4F8DC30C4F8E030C4F80E
:10422000E430C4F8E830C4F83C31C4F84031C4F894
:104230004431C4F84831204604B010BD2046FFF791
:10424000C9FB05F047FA00BF8C8C0108D08B010830
:1042500030B585B004460D46FFF788F9254B23603D
:104260000023C4F83C31C4F84031C4F84431C4F8E8
:104270004831294604F1EC00FFF7CBFC214601A8A8
:10428000FFF77BFF4FF0000201A904F58270FFF7F2
:1042900064FB01A8FDF796FF002384F83831C4F8C9
:1042A0001C31D4F82031D4F82421934201D0C4F831
:1042B0002431D4F82C31D4F83021934201D0C4F801
:1042C00030310023C4F8DC30C4F8E030C4F8E43006
:1042D000C4F8E830C4F83C31C4F84031C4F8443183
:1042E000C4F84831204605B030BD2046FFF772FBC8
:1042F00005F0F0F98C8C010830B585B004460D4608
:10430000FFF734F9224B23602022002104F59E7030
:104310000FF014F8294604F1EC00FFF77AFC21466F
:1043200001A8FFF72AFF4FF0000201A904F58270EF
:10433000FFF713FB01A8FDF745FF002384F8383190
:10434000C4F81C31D4F82031D4F82421934201D090
:10435000C4F82431D4F82C31D4F83021934201D060
:10436000C4F830310021C4F8DC10C4F8E010C4F8FF
:10437000E410C4F8E810202204F59E700EF0DEFF71
:10438000204605B030BD2046FFF724FB05F0A2F91A
:10439000A48C0108F0B583B004460D4616461F46AE
:1043A00000F0A8FF0368089A019200979F6D3346BA
:1043B0002A462146B84703B0F0BD0000F0B58DB0E5
:1043C00004460D46FEF75DFED4F8D83083F8385128
:1043D000D4F8D8100B681B68684698473C49684673
:1043E000FEF78EFC06466846FDF72FFA96BBD4F81A
:1043F000D870D7F8203153F82530D4F8886031468A
:10440000D3F8E000FCF71CF9C4F8E000D7F820313D
:1044100053F825303146D3F8E800FCF711F9C4F819
:10442000E80065782846FCF7BDF9C4F8FC00E66FA3
:104430002846FCF7BBF93146FCF702F9C4F8000145
:10444000D4F88C30C4F8F030D4F89030C4F8F83098
:104450000DB0F0BDD4F8D8100B681B6806A89847BB
:104460001C4906A8FEF74CFC064606A8FDF7EDF928
:10447000002EEDD1D4F8D860D6F8203153F825308D
:10448000216DD3F8E000FCF7DBF8C4F8E000D6F8C3
:10449000203153F82530D3F8E830C4F8E830D6F8A6
:1044A000203153F82500EC30FDF72DF9FCF77AF9AF
:1044B0000546606C0146FCF7C5F801462846FCF746
:1044C000C1F8C4F8F000A36CC4F8F830C0E700BF2E
:1044D000A48B01089C8B010841B108B5C0F8D81025
:1044E00091F83811FFF76AFF012008BD00207047DE
:1044F0002DE9F0438FB004460D46FEF7C2FD626918
:10450000D4F8E01004F1DC00FEF714FA2269D4F8C4
:10451000E81004F1E400FEF70DFAE269D4F8F810AF
:1045200004F1F400FEF706FAA269D4F8F01004F1E1
:10453000EC00FEF7FFF9D4F8D8100B681B6802A84E
:104540009847CC4902A8FEF7DBFB064602A8FDF718
:104550007CF99EB1D4F8D8100B681B6808A898475E
:10456000C54908A8FEF7CCFB064608A8FDF76DF97B
:10457000002E00F083810FB0BDE8F0832269D4F8EB
:10458000001104F1FC00FEF7D5F90120FDF7C4F895
:104590002078FCF70BF90646D4F8D83093F8382188
:1045A000D3F8203153F82200EC30FDF7ACF8FCF7DB
:1045B000F9F801463046FCF743F88046D4F8D83085
:1045C00093F83821D3F8203153F82270EC37D4F81F
:1045D0009410D4F8FC00FCF735F806464FF07C51F7
:1045E0004046FCF737F93A463146FDF799FD02207F
:1045F000FDF792F8D4F8DC802F687968D4F8E400ED
:10460000FCF720F8064639684046FCF71BF83146AF
:10461000FEF70CFDD4F8DC90D5F80080D4F8E46007
:104620004FF07E51D4F88400FCF70CF80746D8F818
:1046300004103046FCF706F80646D8F80010484645
:10464000FCF700F83A463146FDF789F8D4F8DC90DB
:10465000D5F80080D4F8E4604FF07E51D4F884009F
:10466000FBF7F0FF0746D8F804103046FBF7EAFFE7
:104670000646D8F800104846FBF7E4FF3A463146B4
:10468000FDF760F8D4F8DC90D5F80080D8F8041075
:10469000D4F8E400FBF7D6FFD4F8F410FBF7D2FF10
:1046A00006464FF07E51D4F88400FBF7CBFF074657
:1046B0004FF07E513046FBF7C3FF0646D8F8001096
:1046C0004846FBF7BFFF3A463146FDF748F8D4F8B5
:1046D000DC90D5F80080D8F80410D4F8E400FBF79B
:1046E000B1FFD4F8F410FBF7ADFFD4F8847039466D
:1046F000FBF7A6FF4FF07E51FBF7A2FF0646D8F866
:1047000000104846FBF79EFF3A463146FDF71AF87F
:104710002E683168D4F8DC00FBF794FFD4F8EC1075
:10472000FBF790FFD4F884804146FBF789FF0746EA
:104730007168D4F8E400FBF785FF06464FF07E5120
:104740003846FBF77DFF42463146FDF708F82E68F4
:104750003168D4F8DC00FBF775FFD4F8EC10FBF7F8
:1047600071FF8046D4F8E4904FF07E51D4F8840075
:10477000FBF768FF074671684846FBF763FF06468C
:104780004FF07E514046FBF75BFF3A463146FCF75F
:10479000D9FF2E683168D4F8DC00FBF753FFD4F85A
:1047A000EC10FBF74FFFD4F884804146FBF748FF3D
:1047B00007467168D4F8E400FBF744FFD4F8F4101E
:1047C000FBF740FF4FF07E51FBF73AFF06464FF0F4
:1047D0007E513846FBF734FF42463146FCF7BFFFB7
:1047E0002E683168D4F8DC00FBF72CFFD4F8EC100D
:1047F000FBF728FF07467168D4F8E400FBF722FFB7
:10480000D4F8F410FBF71EFFD4F884804146FBF780
:1048100017FF4FF07E51FBF713FF06464FF07E5116
:104820003846FBF70DFF42463146FCF78BFF2E68FA
:104830003168D4F8DC00FBF705FFD4F8EC10FBF787
:1048400001FF05467168D4F8E400FBF7FBFED4F8DD
:10485000F410FBF7F7FE4FF07E51FBF7F1FE044634
:104860004FF07E512846FBF7EBFE2146FEF7DEFBBC
:1048700081E600BFA48B01089C8B01080220FCF795
:104880004BFFD4F8DC902F68D4F8E4504FF07E5101
:10489000D4F8F400FBF7D4FE0646D4F8EC8079682F
:1048A0002846FBF7CFFE054639684846FBF7CAFEA7
:1048B000E36C0093334642462946FFF76BFD012027
:1048C000FCF72AFF57E600BF10B586B00446D1F8C2
:1048D000E0300393D1F8E830049303AB0193022353
:1048E000029305AB01AA06CAFEF78EFA204606B06F
:1048F00010BD704770470020704700207047704718
:10490000704790F8E0301BB1012380F8E230704727
:10491000002380F8E2307047704708B5E42104F0C6
:10492000D7FE08BDF0B583B004460D4616461F46B7
:1049300000F0E0FC0368089A019200971F6E33466E
:104940002A462146B84703B0F0BD2DE9F04F83B0A9
:1049500004460E4615461F460430FEF792FB012022
:10496000FCF7DAFED7F80090D4F8CCB0D4F8C8A0A1
:10497000D9F804102846FBF765FE8046D9F80010E8
:104980003046FBF75FFED4F8D83000935B465246C2
:104990004146FFF7C7FF94F8E23013B903B0BDE812
:1049A000F08FD7F80080D8F800103046FBF74AFEA9
:1049B0000646D4F8C8A04FF07A515046FBF74AFF9C
:1049C0000746D8F804102846FBF73CFE8146D4F889
:1049D000CC504FF07A512846FBF73CFF04464FF08D
:1049E0007C512846FBF736FF80464FF07C515046FD
:1049F000FBF730FF054621464846FBF723FE0446F9
:104A000039463046FBF71EFE43462A462146FCF750
:104A1000B3FEC3E738B504460D4680230371402337
:104A200043710D4B83600C30FDF7DEFE0B4B2360B2
:104A30000B4B23602B7884F8E0304BB1012384F8D2
:104A4000E230002384F8E130C4F8DC30204638BD81
:104A5000002384F8E230F4E700007F43048D01086E
:104A6000248D010800487047E001002008B500F0DF
:104A700041FC0368DB6A984708BD00002DE9F04F50
:104A80008DB00446059191463D4B1B68BFF35B8F8B
:104A900013F0010F40F03481394805F053FB002832
:104AA00000F02E81D4E904233649C1E900233448BB
:104AB00005F068FB24E10598FCF725FEFBF776FE80
:104AC0000546FFF7CFFFD0F894000146FBF7BAFD8B
:104AD00001462846FBF7B6FD2B4B18602B4805F026
:104AE00051FB25E1FFF7C2FFFBF760FE0546FFF72C
:104AF000B9FFD0F894000146FBF7A4FD0146284613
:104B0000FBF7A0FD224B1860224805F03BFB1CE19F
:104B1000214805F017FB002800F01F811C4B196885
:104B20000020FBF78DFD4FF08241FBF789FD1B4B09
:104B30001860194805F026FB0FE100F0DBFB407917
:104B4000FBF734FE124B1968FBF77AFD1449FBF7AB
:104B500035FF144B186018E100F0CCFB0079FBF72F
:104B600025FE094B1968FBF76BFD4FF07C51FBF7F5
:104B700071FE0D4B18600D4805F004FB12E100BFFB
:104B8000A80A0020B00A0020A40A0020A00A0020E1
:104B90009C0A0020980A0020900A0020940A002015
:104BA000000040408C0A0020880A0020840A00206F
:104BB00006A8FCF768FEA568E16809A8FEF73BF9BE
:104BC00009A92846FFF794FC09A8FCF75CFEA26837
:104BD0002168E068FEF7AEF80020FCF79DFD864FE7
:104BE0004FF081413868FBF72BFD0290834E4FF068
:104BF00081413068FBF724FD8046DFF804A24FF0C6
:104C00008241DAF80000FBF71DFD0390DFF8F4B1F4
:104C10004FF08241DBF80000FBF714FD0490FFF732
:104C200021FF05464FF08041D0F89800FBF70AFDC0
:104C30000090049B039A41460298FFF7ABFB0120CA
:104C4000FCF76AFD4FF08041DBF80000FBF7FAFC4F
:104C500083464FF08041DAF80000FBF7F3FC824610
:104C60004FF07E513068FBF7EBFC80464FF07E51F1
:104C70003868FBF7E5FCD5F8983000935B46524660
:104C80004146FFF74FFED5F8948039684046FBF760
:104C9000D9FC074631684046FBF7D4FC8046FFF755
:104CA000E5FEFBF783FD4146FBF7CCFC0146059A88
:104CB0003846FCF73AFDFCF70FFDD5F89C20524B27
:104CC00019683046FDF736FE226963694F4801686E
:104CD0004068521A63EB00034A4573F100030FD397
:104CE000484B19680020FBF7ABFC4FF08241FBF703
:104CF000A7FC3168FBF742FF10B1454B00221A7048
:104D0000434B1B78002B73D023696269013342F156
:104D10000002236162613F4B1B68BFF35B8F13F09E
:104D2000010F05D13B4805F00DFA00287FF4C3AE12
:104D3000394B1B68BFF35B8F13F0010F05D1364869
:104D400005F000FA00287FF4CDAE344B1B68BFF3AA
:104D50005B8F13F0010F3FF4DBAE226963692B48D0
:104D600001684068521A63EB00034A4573F100037F
:104D7000FFF4E3AE234B19680020FBF761FC4FF012
:104D80008241FBF75DFC204B1860254B1B68BFF38D
:104D90005B8F13F0010F05D1214805F0D3F90028EE
:104DA0007FF4DAAEFCF79FFC25682B68DE68E168CB
:104DB00006A8FEF740F806A92846B047F8E61548C9
:104DC00005F0DCF904F086FC134805F0D7F904F08F
:104DD00081FC134805F0D2F904F07CFC06A8FCF72E
:104DE00052FD04F077FC09A8FCF74DFD04F072FCBD
:104DF0000DB0BDE8F08F00BF880A0020940A0020A3
:104E0000A40A00209C0A00208C0A0020B00A00207E
:104E1000DC010020A00A0020980A0020900A00204F
:104E2000840A0020F0B585B005460E460160EC20EE
:104E300005F0CAF9044600210A46FDF7A7FDEC601B
:104E400033685F68214601A8FDF7F5FF01A93046E8
:104E5000B84701A8FCF717FD4FF4827005F0B4F9CC
:104E600004464FF4827200210EF068FA802323700A
:104E7000402363700D4B636004F10800FDF7B4FC40
:104E8000AC6031462046FFF727FB0321A868FFF7F7
:104E900095FA05B0F0BDEC21204604F019FC04F0B1
:104EA00019FC01A8FCF7EFFC04F014FC00007F43A0
:104EB00070B592B004460068FEF74AFBB8B12068AE
:104EC000FEF746FBFEF7AEF908B32068FEF74AFB93
:104ED0002068FEF73DFB0546206003685E68E168D8
:104EE0000FA8FDF7A8FF0FA92846B0471FE007AAA3
:104EF0001B4901A8FDF7CEF94FF4167201A920460F
:104F0000FFF7BCFD01A8FCF7A0FC002017E00EAAEB
:104F1000144908A8FDF7BEF94FF4167208A92046F7
:104F2000FFF7ACFD08A8FCF790FC002007E00FA8F5
:104F3000FCF7A9FC2168A068FFF7CEFA012012B0A7
:104F400070BD01A8FCF781FC04F0C4FB08A8FCF7C5
:104F50007CFC04F0BFFB0FA8FCF795FC04F0BAFB47
:104F60003C8D0108508D010870B592B00446006870
:104F7000FEF7F5FAB8B12068FEF7F1FAFEF752F93C
:104F800008B32068FEF7EEFA2068FEF7E8FA054657
:104F9000206003685E68E1680FA8FDF74CFF0FA969
:104FA0002846B0471FE007AA1B4901A8FDF772F980
:104FB0004FF4167201A92046FFF760FD01A8FCF727
:104FC00044FC002017E00EAA144908A8FDF762F976
:104FD0004FF4167208A92046FFF750FD08A8FCF709
:104FE00034FC002007E00FA8FCF74DFC2168A06806
:104FF000FFF772FA012012B070BD01A8FCF725FC82
:1050000004F068FB08A8FCF720FC04F063FB0FA881
:10501000FCF739FC04F05EFB3C8D0108508D010863
:1050200070B58AB00446FCF75EFB25682B68DE6825
:10503000E16801A8FDF7FFFE01A92846B04701A8D5
:10504000FCF721FC65685DB12B685E69E16804A826
:10505000FDF7F1FE04A92846B04704A8FCF713FCAD
:10506000A568E16807A8FDF7E6FE07A92846FFF74F
:105070003FFA07A8FCF707FCA2682168E068FDF783
:1050800059FE23696269A3F5FA7313434CD023696F
:105090006269A3F5487313434BD023696269A3F592
:1050A0009663134349D023696269A3F2DC53134327
:1050B00048D023696269A3F5E163134347D02369AC
:1050C0006269A3F63403134346D023696269A3F6E9
:1050D000FC03134345D023696269A3F6C413134349
:1050E00044D023696269A3F65433134342D0236941
:1050F0006269A3F54863134340D02169636940F6B0
:10510000B242914273F1000303D300220023C4E9A9
:105110000423FCF7E1FA23696269013342F10002DA
:10512000236162610AB070BD0321A068FFF746F9F0
:10513000ADE72046FFF7BCFEAFE70121A068FFF70F
:105140003DF9B0E70321A068FFF738F9B1E7042182
:10515000A068FFF733F9B2E70121A068FFF72EF945
:10516000B3E70021A068FFF729F9B4E72046FFF76D
:105170009FFEB6E72046FFF7F7FEB8E70021A068DC
:10518000FFF71CF9B9E701A8FCF77DFB04F0A2FAD0
:1051900004A8FCF778FB04F09DFA07A8FCF773FB62
:1051A00004F098FA00B583B00A4B5A6942F0010244
:1051B0005A615B6903F001030193019B00221146D0
:1051C0000F2002F0D1FF0F2002F0DEFF03B05DF8E8
:1051D00004FB00BF0010024070B588B000240494A6
:1051E000059406940794234B9A6942F020029A6131
:1051F0009A6902F020020192019A9A6942F004022F
:105200009A619A6902F004020292029A9A6942F043
:1052100008029A619B6903F008030393039B164DF0
:1052200022460421284603F05CFA01221821284670
:1052300003F057FA042304930126059602230693EC
:10524000079304A9284603F037F918230493059619
:1052500006960323079304A9284603F02DF9C023DB
:1052600004930594069404A9284603F025F908B090
:1052700070BD00BF001002400008014070470020D0
:105280007047002070470020704770477047704794
:105290000020704700207047704770477047704784
:1052A0007047704770477047704770477047704746
:1052B00070477047002070470020704700207047FB
:1052C00070477047704770477047002070477047BD
:1052D000014B0360704700BF748D010810B5044690
:1052E000034B0360102104F0F3F9204610BD00BF0A
:1052F000748D0108014B1868704700BFDC0A00205C
:1053000010B50446FFF7F6FF0368D3F88C3021464A
:10531000984710BD10B50024012C06DCE0B2FFF761
:10532000EFFF034610B90134F6E70023184610BD1D
:1053300008B5FFF7DFFF0368D3F89030984708BD42
:1053400010B5304B1B78022B0CD804465AB21ABB4E
:105350003BB9FFF7EDFF78B900232B4A13702B4AB6
:10536000137010BD032BFCD1FFF7E2FF0028F8D12A
:10537000244B00221A70F4E70020FFF7C1FF10B1A0
:10538000204B01221A700120FFF7BAFF0028E3D05A
:105390001C4B02221A70DFE7FFF7CAFF28B31B4B32
:1053A0001B7813B9194B01221A70174A137801336D
:1053B000DBB21370642BD4D90020FFF7A1FF18B122
:1053C00002232373002363730120FFF799FF18B1B1
:1053D000022363730023237300230B4A13700B4AC9
:1053E0001370084B03221A70BBE7084B1B781BB1E4
:1053F000044B03221A70B4E70023024A137063734C
:105400002373AEE7B80A0020BA0A0020B90A0020C8
:1054100010B50446FFF78CFF70B10023012B09D8AB
:10542000E218127B012A04D0022A09D00133DBB230
:10543000F4E713B90023A38110BD012BFAD0F5E7DF
:10544000002BF7D0012BF5D0F0E7000040B110B5EC
:1054500004460368DB689847024B1C60012010BDBE
:1054600000207047DC0A002070B506460C46083064
:1054700030600D4655F8083B9D420AD033608B687A
:10548000B3606368736025600023636023723046F5
:1054900070BD4A680132F4D02946FBF79BFDF0E766
:1054A00030B585B08446019144680368E31ADB1087
:1054B000114803FB00F0114D2D1A8D4213D30390B8
:1054C000814213D803AA12681044DCF80030E41AB1
:1054D000E410094B03FB04F4A04209D3074B9842A4
:1054E00008D805B030BD104605F0FCFA01AAEAE77D
:1054F0000248F6E70148F4E7ABAAAAAA55555505B4
:10550000F8B545688D420AD007460E460C4603E0C2
:105510002046FCF79AF91834A542F9D17E60F8BD0F
:1055200008B5084602EB4202D10004F0D1F808BDEC
:1055300010B5044601688268521AD210034B03FB6F
:1055400002F209B1FFF7ECFF204610BDABAAAAAAF0
:1055500070B506460468456803E02046FCF775F917
:105560001834A542F9D13046FFF7E2FF304670BD4E
:1055700070B504460E46154608E021462846FFF75A
:1055800073FF2046FCF761F918341835B442F4D1A2
:10559000284670BD10B582B0044601AA0249FCF746
:1055A00079FE204602B010BDAC8B010870B582B008
:1055B00004460E46551A01950F2D0DD800942A4623
:1055C00031462068FCF7EEFD00220092019B6360EB
:1055D0002168CA5402B070BD002201A9FCF720FE68
:1055E0002060019BA360E9E710B504460B4600F17B
:1055F0000802026009685A684FF000030A44FFF786
:10560000D5FF204610BD000008B5084B994205D8CB
:1056100001EB4101C80004F0D7FD08BD044B9942DD
:1056200001D905F037FA05F025FA00BF55555505A3
:10563000AAAAAA0A2DE9F84F044688469246274AA4
:105640000121FFF72DFF2768D4F804B0A8EB070964
:10565000054658B1002201462046FFF7D5FF064611
:10566000B14451464846FFF7BFFF01E00026F7E787
:105670002346324641463846FFF77AFF234600F17B
:10568000180259464046FFF773FF8046A368DB1BAC
:10569000DB10134A03FB02F21FB139462046FFF725
:1056A0003FFF2660C4F8048005EB450506EBC50501
:1056B000A560BDE8F88F04F0D3F846B94846FCF77A
:1056C000C4F804F007FD04F00BF904F003F82A46CF
:1056D00031462046FFF724FFF3E700BF9C8A01080C
:1056E000ABAAAAAA10B504464068A368984205D0A0
:1056F000FFF77AFF63681833636010BD0A460146FE
:105700002046FFF797FFF8E738B50C46434B1B6878
:10571000BFF35B8F13F0010F28D0414B1B68BFF321
:105720005B8F13F0010F03D13D4804F00BFD58BB14
:105730003C4B1B68BFF35B8F13F0010F31D03A4A2B
:10574000536811685B1ADB10384A02FB03F3384ACE
:1057500012789A4232D921463348FFF7C3FFFBF74C
:10576000C2FF0220FBF7D8FF00243DE02B4804F0E5
:10577000E9FC0028D1D02F4A2F492B4803F024FF01
:10578000264804F0FFFCC8E7FFF7B4FD4579FFF7B2
:105790006DF9B5FBF0F5264B1D70214804F0F2FCC5
:1057A000C6E7204804F0CEFC0028C8D0FFF75EF919
:1057B000224B18701B4804F0E5FCC0E71A48FFF7BD
:1057C0009FFEC8E71D4B1B7803FB044004EB44011C
:1057D00005EBC1051844FAF7E9FF01462A46002007
:1057E000FBF7A3FF0134E4B20F4A536815685B1B53
:1057F000DB100E4901FB03F39C42E3D3FBF76CFF84
:105800000120FBF789FF38BD054804F0B7FC03F021
:1058100061FF044804F0B2FC03F05CFFCC0A0020F6
:10582000C40A0020BC0A0020D00A0020ABAAAAAA01
:10583000C80A00200000002051550008C00A0020BE
:1058400070477047704770477047704708B539B167
:105850008021074802F03EFF003818BF012008BD34
:105860004021034802F036FF003818BF0120F6E758
:105870000008014008B502F029F908BD00B591B053
:105880002822002106A80DF059FD00230193029360
:10589000039304930593012206924FF480330793F8
:1058A0000A9202220D920E934FF4E0130F9306A872
:1058B00002F034FF80B90F230193022102910023EB
:1058C00003934FF480620492059301A803F058F902
:1058D00028B911B05DF804FB01F06FFFEBE701F0B0
:1058E0006CFFF6E708B5FFF777FC08BD704708B511
:1058F00001F0B8FF08BD08B5FFF754FC08BD08B5B6
:10590000FBF774FE08BD08B5084602F003F908BDB0
:1059100008B502F0F9F808BD094B18684FF0E0220D
:10592000536992699B1A074A12680749A1FB021240
:10593000920CB3FBF2F34FF47A7202FB0030704723
:10594000840F0020B002002083DE1B4310B50B4CF7
:10595000204602F09FFA3221204602F0EFF820465E
:1059600002F052FA10F4007F02D1054B186810BD06
:10597000204602F0A5F9024B1860F6E794090020D2
:10598000E00A00202DE9F04F83B007460E4691460D
:105990001D46DDF8308090F892A0CB18541CA4B2BC
:1059A00000949BB200F0FFFF78B3BAFA8AFB4FEA8B
:1059B0005B1B012414E087F892A0002300930123CD
:1059C0004A463146384600F040FF0136B6B2640020
:1059D00014F0FF0402D108F101080124013DADB229
:1059E0008DB198F800302342E5D197F89130002B23
:1059F000EBD187F892B0009301234A4631463846EE
:105A000000F023FFE1E787F892A003B0BDE8F08F34
:105A10002DE9F04782B08246884614461F46BDF8FD
:105A200028500B9E03F10709C9F3CC0903EB010CC5
:105A300053199BB200931FFA8CF300F0B4FF60B9C6
:105A40000DE000963B46224641465046FFF79AFF3E
:105A50004E440134A4B2013DADB2002DF1D102B0EB
:105A6000BDE8F0872DE9F04182B080460F4614462C
:105A70001E46BDF8205001EB030C53199BB2009356
:105A80001FFA8CF300F08FFF60B90DE00022009246
:105A9000334622463946404600F0D7FE0134A4B2D0
:105AA000013DADB2002DF1D102B0BDE8F0812DE98C
:105AB000F04782B080460D4614461E46BDF8289039
:105AC000CF18BFB202EB09039BB200933B4600F034
:105AD0006AFF10B902B0BDE8F08700230093334697
